{
  "_format": "hh-sol-artifact-1",
  "contractName": "FlashSwapDefault",
  "sourceName": "contracts/FlashSwap/FlashSwapDefault.sol",
  "abi": [
    {
      "inputs": [
        {
          "internalType": "contract UniswapV2Router02",
          "name": "router_",
          "type": "address"
        }
      ],
      "stateMutability": "nonpayable",
      "type": "constructor"
    },
    {
      "anonymous": false,
      "inputs": [
        {
          "indexed": true,
          "internalType": "address",
          "name": "previousOwner",
          "type": "address"
        },
        {
          "indexed": true,
          "internalType": "address",
          "name": "newOwner",
          "type": "address"
        }
      ],
      "name": "OwnershipTransferred",
      "type": "event"
    },
    {
      "inputs": [
        {
          "internalType": "address",
          "name": "",
          "type": "address"
        },
        {
          "internalType": "contract IERC20[]",
          "name": "tokenIn_",
          "type": "address[]"
        },
        {
          "internalType": "uint256[]",
          "name": "amountIn_",
          "type": "uint256[]"
        },
        {
          "internalType": "contract IERC20[]",
          "name": "tokenOut_",
          "type": "address[]"
        },
        {
          "internalType": "uint256[]",
          "name": "minAmountOut_",
          "type": "uint256[]"
        },
        {
          "internalType": "bytes",
          "name": "data_",
          "type": "bytes"
        }
      ],
      "name": "flashSwap",
      "outputs": [
        {
          "internalType": "uint256[]",
          "name": "",
          "type": "uint256[]"
        }
      ],
      "stateMutability": "nonpayable",
      "type": "function"
    },
    {
      "inputs": [],
      "name": "owner",
      "outputs": [
        {
          "internalType": "address",
          "name": "",
          "type": "address"
        }
      ],
      "stateMutability": "view",
      "type": "function"
    },
    {
      "inputs": [],
      "name": "renounceOwnership",
      "outputs": [],
      "stateMutability": "nonpayable",
      "type": "function"
    },
    {
      "inputs": [],
      "name": "router",
      "outputs": [
        {
          "internalType": "contract UniswapV2Router02",
          "name": "",
          "type": "address"
        }
      ],
      "stateMutability": "view",
      "type": "function"
    },
    {
      "inputs": [
        {
          "internalType": "contract UniswapV2Router02",
          "name": "router_",
          "type": "address"
        }
      ],
      "name": "setRouter",
      "outputs": [],
      "stateMutability": "nonpayable",
      "type": "function"
    },
    {
      "inputs": [
        {
          "internalType": "address",
          "name": "newOwner",
          "type": "address"
        }
      ],
      "name": "transferOwnership",
      "outputs": [],
      "stateMutability": "nonpayable",
      "type": "function"
    }
  ],
  "bytecode": "0x608060405234801561001057600080fd5b5060405161185338038061185383398101604081905261002f916100ad565b6100383361005d565b600180546001600160a01b0319166001600160a01b03929092169190911790556100db565b600080546001600160a01b038381166001600160a01b0319831681178455604051919092169283917f8be0079c531659141344cd1fd0a4f28419497f9722a3daafe3b4186f6b6457e09190a35050565b6000602082840312156100be578081fd5b81516001600160a01b03811681146100d4578182fd5b9392505050565b611769806100ea6000396000f3fe608060405234801561001057600080fd5b50600436106100625760003560e01c8063715018a6146100675780638da5cb5b14610071578063af7211e61461009b578063c0d78655146100bb578063f2fde38b146100ce578063f887ea40146100e1575b600080fd5b61006f6100f4565b005b6000546001600160a01b03165b6040516001600160a01b0390911681526020015b60405180910390f35b6100ae6100a936600461131d565b610133565b6040516100929190611522565b61006f6100c9366004611301565b610249565b61006f6100dc366004611301565b610295565b60015461007e906001600160a01b031681565b6000546001600160a01b031633146101275760405162461bcd60e51b815260040161011e90611599565b60405180910390fd5b6101316000610330565b565b6060600061014387878787610380565b90506000610152846014015190565b905060005b885181101561023b57600089828151811061018257634e487b7160e01b600052603260045260246000fd5b60209081029190910101516040516370a0823160e01b81523060048201529091506000906001600160a01b038316906370a082319060240160206040518083038186803b1580156101d257600080fd5b505afa1580156101e6573d6000803e3d6000fd5b505050506040513d601f19601f8201168201806040525081019061020a91906114ab565b90508015610226576102266001600160a01b038316858361075a565b50508080610233906116d7565b915050610157565b509098975050505050505050565b6000546001600160a01b031633146102735760405162461bcd60e51b815260040161011e90611599565b600180546001600160a01b0319166001600160a01b0392909216919091179055565b6000546001600160a01b031633146102bf5760405162461bcd60e51b815260040161011e90611599565b6001600160a01b0381166103245760405162461bcd60e51b815260206004820152602660248201527f4f776e61626c653a206e6577206f776e657220697320746865207a65726f206160448201526564647265737360d01b606482015260840161011e565b61032d81610330565b50565b600080546001600160a01b038381166001600160a01b0319831681178455604051919092169283917f8be0079c531659141344cd1fd0a4f28419497f9722a3daafe3b4186f6b6457e09190a35050565b600480546060916000919082610395836116d7565b909155506004805491925060009190826103ae836116d7565b9091555060008381526002602090815260408083206003909252822092935091905b895181101561046f5760008a82815181106103fb57634e487b7160e01b600052603260045260246000fd5b6020026020010151905061041881856107c290919063ffffffff16565b89828151811061043857634e487b7160e01b600052603260045260246000fd5b6020908102919091018101516001600160a01b03909216600090815290849052604090205580610467816116d7565b9150506103d0565b506000838152600360205260408120905b885181101561065f5760008982815181106104ab57634e487b7160e01b600052603260045260246000fd5b6020026020010151905060008983815181106104d757634e487b7160e01b600052603260045260246000fd5b6020026020010151905060005b60018701548110156106495760006104fc8883610871565b6001600160a01b0381166000908152602089905260408120549192506105238386886108b4565b9050818111156105a757600061053a848489610a03565b6001600160a01b038816600090815260208b905260409020549091506105609082610c59565b6001600160a01b03808916600090815260208c81526040808320949094559187168152908c9052908120556105958b85610c65565b61059f8682610dc8565b955050610633565b60006105b4848389610a03565b6001600160a01b038816600090815260208b905260409020549091506105da9082610c59565b6001600160a01b03808916600090815260208c81526040808320949094559187168152908c9052205461060d9083610dc8565b6001600160a01b03909416600090815260208b9052604090209390935550610649915050565b5050508080610641906116d7565b9150506104e4565b5050508080610657906116d7565b915050610480565b506000885167ffffffffffffffff81111561068a57634e487b7160e01b600052604160045260246000fd5b6040519080825280602002602001820160405280156106b3578160200160208202803683370190505b50905060005b895181101561074b578260008b83815181106106e557634e487b7160e01b600052603260045260246000fd5b60200260200101516001600160a01b03166001600160a01b031681526020019081526020016000205482828151811061072e57634e487b7160e01b600052603260045260246000fd5b602090810291909101015280610743816116d7565b9150506106b9565b509a9950505050505050505050565b6040516001600160a01b0383166024820152604481018290526107bd90849063a9059cbb60e01b906064015b60408051601f198184030181529190526020810180516001600160e01b03166001600160e01b031990931692909217909152610dd4565b505050565b6107cc8282610ea6565b156108195760405162461bcd60e51b815260206004820181905260248201527f546f6b656e20616c72656164792065786973747320696e20746865207365742e604482015260640161011e565b6001828101805480830182556000828152602090200180546001600160a01b0319166001600160a01b038516179055546108539190611690565b6001600160a01b039091166000908152602092909252604090912055565b600082600101828154811061089657634e487b7160e01b600052603260045260246000fd5b6000918252602090912001546001600160a01b031690505b92915050565b6040805160028082526060820183526000928392919060208301908036833701905050905084816000815181106108fb57634e487b7160e01b600052603260045260246000fd5b60200260200101906001600160a01b031690816001600160a01b031681525050828160018151811061093d57634e487b7160e01b600052603260045260246000fd5b6001600160a01b0392831660209182029290920101526001546040516307c0329d60e21b8152911690631f00ca749061097c90879085906004016115ce565b60006040518083038186803b15801561099457600080fd5b505afa1580156109a8573d6000803e3d6000fd5b505050506040513d6000823e601f3d908101601f191682016040526109d091908101906113f8565b6000815181106109f057634e487b7160e01b600052603260045260246000fd5b60200260200101519150505b9392505050565b604080516002808252606082018352600092839291906020830190803683370190505090508481600081518110610a4a57634e487b7160e01b600052603260045260246000fd5b60200260200101906001600160a01b031690816001600160a01b0316815250508281600181518110610a8c57634e487b7160e01b600052603260045260246000fd5b60200260200101906001600160a01b031690816001600160a01b031681525050600081600181518110610acf57634e487b7160e01b600052603260045260246000fd5b60200260200101516001600160a01b031682600081518110610b0157634e487b7160e01b600052603260045260246000fd5b60200260200101516001600160a01b03161415610b1f575083610c3c565b6001548251610b73916001600160a01b03169087908590600090610b5357634e487b7160e01b600052603260045260246000fd5b60200260200101516001600160a01b0316610f159092919063ffffffff16565b600180546001600160a01b0316906338ed173990879060009086903090610b9b904290611678565b6040518663ffffffff1660e01b8152600401610bbb9594939291906115e7565b600060405180830381600087803b158015610bd557600080fd5b505af1158015610be9573d6000803e3d6000fd5b505050506040513d6000823e601f3d908101601f19168201604052610c1191908101906113f8565b600181518110610c3157634e487b7160e01b600052603260045260246000fd5b602002602001015190505b610c506001600160a01b038516338361075a565b95945050505050565b60006109fc8284611678565b610c6f8282610ea6565b610cbb5760405162461bcd60e51b815260206004820181905260248201527f546f6b656e20646f6573206e6f7420657869737420696e20746865207365742e604482015260640161011e565b60018281018054600092610cce91611690565b81548110610cec57634e487b7160e01b600052603260045260246000fd5b60009182526020808320909101546001600160a01b03858116845291869052604080842054929091168084529220819055600185018054929350909183919083908110610d4957634e487b7160e01b600052603260045260246000fd5b600091825260208083209190910180546001600160a01b0319166001600160a01b03948516179055918516815290859052604081205560018401805480610da057634e487b7160e01b600052603160045260246000fd5b600082815260209020810160001990810180546001600160a01b031916905501905550505050565b60006109fc8284611690565b6000610e29826040518060400160405280602081526020017f5361666545524332303a206c6f772d6c6576656c2063616c6c206661696c6564815250856001600160a01b03166110399092919063ffffffff16565b8051909150156107bd5780806020019051810190610e47919061148b565b6107bd5760405162461bcd60e51b815260206004820152602a60248201527f5361666545524332303a204552433230206f7065726174696f6e20646964206e6044820152691bdd081cdd58d8d9595960b21b606482015260840161011e565b6001820154600090610eba575060006108ae565b6001600160a01b0382166000818152602085905260409020546001850180549091908110610ef857634e487b7160e01b600052603260045260246000fd5b6000918252602090912001546001600160a01b0316149392505050565b801580610f9e5750604051636eb1769f60e11b81523060048201526001600160a01b03838116602483015284169063dd62ed3e9060440160206040518083038186803b158015610f6457600080fd5b505afa158015610f78573d6000803e3d6000fd5b505050506040513d601f19601f82011682018060405250810190610f9c91906114ab565b155b6110095760405162461bcd60e51b815260206004820152603660248201527f5361666545524332303a20617070726f76652066726f6d206e6f6e2d7a65726f60448201527520746f206e6f6e2d7a65726f20616c6c6f77616e636560501b606482015260840161011e565b6040516001600160a01b0383166024820152604481018290526107bd90849063095ea7b360e01b90606401610786565b60606110488484600085611050565b949350505050565b6060824710156110b15760405162461bcd60e51b815260206004820152602660248201527f416464726573733a20696e73756666696369656e742062616c616e636520666f6044820152651c8818d85b1b60d21b606482015260840161011e565b843b6110ff5760405162461bcd60e51b815260206004820152601d60248201527f416464726573733a2063616c6c20746f206e6f6e2d636f6e7472616374000000604482015260640161011e565b600080866001600160a01b0316858760405161111b9190611506565b60006040518083038185875af1925050503d8060008114611158576040519150601f19603f3d011682016040523d82523d6000602084013e61115d565b606091505b509150915061116d828286611178565b979650505050505050565b606083156111875750816109fc565b8251156111975782518084602001fd5b8160405162461bcd60e51b815260040161011e9190611566565b80356111bc8161171e565b919050565b600082601f8301126111d1578081fd5b813560206111e66111e183611654565b611623565b80838252828201915082860187848660051b8901011115611205578586fd5b855b8581101561122c57813561121a8161171e565b84529284019290840190600101611207565b5090979650505050505050565b600082601f830112611249578081fd5b813560206112596111e183611654565b80838252828201915082860187848660051b8901011115611278578586fd5b855b8581101561122c5781358452928401929084019060010161127a565b600082601f8301126112a6578081fd5b813567ffffffffffffffff8111156112c0576112c0611708565b6112d3601f8201601f1916602001611623565b8181528460208386010111156112e7578283fd5b816020850160208301379081016020019190915292915050565b600060208284031215611312578081fd5b81356109fc8161171e565b60008060008060008060c08789031215611335578182fd5b61133e876111b1565b9550602087013567ffffffffffffffff8082111561135a578384fd5b6113668a838b016111c1565b9650604089013591508082111561137b578384fd5b6113878a838b01611239565b9550606089013591508082111561139c578384fd5b6113a88a838b016111c1565b945060808901359150808211156113bd578384fd5b6113c98a838b01611239565b935060a08901359150808211156113de578283fd5b506113eb89828a01611296565b9150509295509295509295565b6000602080838503121561140a578182fd5b825167ffffffffffffffff811115611420578283fd5b8301601f81018513611430578283fd5b805161143e6111e182611654565b80828252848201915084840188868560051b870101111561145d578687fd5b8694505b8385101561147f578051835260019490940193918501918501611461565b50979650505050505050565b60006020828403121561149c578081fd5b815180151581146109fc578182fd5b6000602082840312156114bc578081fd5b5051919050565b6000815180845260208085019450808401835b838110156114fb5781516001600160a01b0316875295820195908201906001016114d6565b509495945050505050565b600082516115188184602087016116a7565b9190910192915050565b6020808252825182820181905260009190848201906040850190845b8181101561155a5783518352928401929184019160010161153e565b50909695505050505050565b60208152600082518060208401526115858160408501602087016116a7565b601f01601f19169190910160400192915050565b6020808252818101527f4f776e61626c653a2063616c6c6572206973206e6f7420746865206f776e6572604082015260600190565b82815260406020820152600061104860408301846114c3565b85815284602082015260a06040820152600061160660a08301866114c3565b6001600160a01b0394909416606083015250608001529392505050565b604051601f8201601f1916810167ffffffffffffffff8111828210171561164c5761164c611708565b604052919050565b600067ffffffffffffffff82111561166e5761166e611708565b5060051b60200190565b6000821982111561168b5761168b6116f2565b500190565b6000828210156116a2576116a26116f2565b500390565b60005b838110156116c25781810151838201526020016116aa565b838111156116d1576000848401525b50505050565b60006000198214156116eb576116eb6116f2565b5060010190565b634e487b7160e01b600052601160045260246000fd5b634e487b7160e01b600052604160045260246000fd5b6001600160a01b038116811461032d57600080fdfea2646970667358221220f046d5c47380305292885dbfa31327be738e20f53c6e30000f57f8f84aa3e92864736f6c63430008040033",
  "linkReferences": {},
  "deployedLinkReferences": {}
}