{
  "_format": "hh-sol-artifact-1",
  "contractName": "FlashSwap",
  "sourceName": "contracts/FlashSwap/FlashSwap.sol",
  "abi": [
    {
      "anonymous": false,
      "inputs": [
        {
          "indexed": false,
          "internalType": "contract IERC20[]",
          "name": "tokenIn",
          "type": "address[]"
        },
        {
          "indexed": false,
          "internalType": "uint256[]",
          "name": "amountIn",
          "type": "uint256[]"
        },
        {
          "indexed": false,
          "internalType": "contract IERC20[]",
          "name": "tokenOut",
          "type": "address[]"
        },
        {
          "indexed": false,
          "internalType": "uint256[]",
          "name": "amountOut",
          "type": "uint256[]"
        },
        {
          "indexed": false,
          "internalType": "contract IFlashSwap",
          "name": "flashSwap",
          "type": "address"
        },
        {
          "indexed": false,
          "internalType": "bytes",
          "name": "data",
          "type": "bytes"
        }
      ],
      "name": "Swap",
      "type": "event"
    },
    {
      "inputs": [
        {
          "internalType": "contract IERC20[]",
          "name": "tokenIn_",
          "type": "address[]"
        },
        {
          "internalType": "uint256[]",
          "name": "amountIn_",
          "type": "uint256[]"
        },
        {
          "internalType": "contract IERC20[]",
          "name": "tokenOut_",
          "type": "address[]"
        },
        {
          "internalType": "uint256[]",
          "name": "minAmountOut_",
          "type": "uint256[]"
        },
        {
          "internalType": "contract IFlashSwap",
          "name": "flashSwap_",
          "type": "address"
        },
        {
          "internalType": "bytes",
          "name": "data_",
          "type": "bytes"
        }
      ],
      "name": "flashSwap",
      "outputs": [
        {
          "internalType": "uint256[]",
          "name": "",
          "type": "uint256[]"
        }
      ],
      "stateMutability": "nonpayable",
      "type": "function"
    }
  ],
  "bytecode": "0x608060405234801561001057600080fd5b506001600055610d08806100256000396000f3fe608060405234801561001057600080fd5b506004361061002b5760003560e01c8063854b364e14610030575b600080fd5b61004361003e36600461085f565b610059565b6040516100509190610bb6565b60405180910390f35b6060600260005414156100b35760405162461bcd60e51b815260206004820152601f60248201527f5265656e7472616e637947756172643a207265656e7472616e742063616c6c0060448201526064015b60405180910390fd5b600260009081555b88518110156101445761013233868a84815181106100e957634e487b7160e01b600052603260045260246000fd5b60200260200101518c858151811061011157634e487b7160e01b600052603260045260246000fd5b60200260200101516001600160a01b0316610441909392919063ffffffff16565b8061013c81610c7d565b9150506100bb565b506040516357b908f360e11b81526000906001600160a01b0386169063af7211e6906101809033908d908d908d908d908c908c90600401610ac4565b600060405180830381600087803b15801561019a57600080fd5b505af11580156101ae573d6000803e3d6000fd5b505050506040513d6000823e601f3d908101601f191682016040526101d69190810190610942565b905060005b81518110156103ec5786818151811061020457634e487b7160e01b600052603260045260246000fd5b602002602001015182828151811061022c57634e487b7160e01b600052603260045260246000fd5b60200260200101511015801561030b575086818151811061025d57634e487b7160e01b600052603260045260246000fd5b602002602001015188828151811061028557634e487b7160e01b600052603260045260246000fd5b60209081029190910101516040516370a0823160e01b81523060048201526001600160a01b03909116906370a082319060240160206040518083038186803b1580156102d057600080fd5b505afa1580156102e4573d6000803e3d6000fd5b505050506040513d601f19601f8201168201806040525081019061030891906109f5565b10155b61036e5760405162461bcd60e51b815260206004820152602e60248201527f416d6f756e742073776170706564206973206c657373207468616e206d696e6960448201526d1b5d5b48185b5bdd5b9d081bdd5d60921b60648201526084016100aa565b6103da3383838151811061039257634e487b7160e01b600052603260045260246000fd5b60200260200101518a84815181106103ba57634e487b7160e01b600052603260045260246000fd5b60200260200101516001600160a01b03166104b29092919063ffffffff16565b806103e481610c7d565b9150506101db565b507f744b82810952e05c4ca29616aba9cba339b04786301c233e81f3e9b8d50903a4898989848989896040516104289796959493929190610b45565b60405180910390a1600160005598975050505050505050565b6040516001600160a01b03808516602483015283166044820152606481018290526104ac9085906323b872dd60e01b906084015b60408051601f198184030181529190526020810180516001600160e01b03166001600160e01b0319909316929092179091526104e7565b50505050565b6040516001600160a01b0383166024820152604481018290526104e290849063a9059cbb60e01b90606401610475565b505050565b600061053c826040518060400160405280602081526020017f5361666545524332303a206c6f772d6c6576656c2063616c6c206661696c6564815250856001600160a01b03166105b99092919063ffffffff16565b8051909150156104e2578080602001905181019061055a91906109d5565b6104e25760405162461bcd60e51b815260206004820152602a60248201527f5361666545524332303a204552433230206f7065726174696f6e20646964206e6044820152691bdd081cdd58d8d9595960b21b60648201526084016100aa565b60606105c884846000856105d2565b90505b9392505050565b6060824710156106335760405162461bcd60e51b815260206004820152602660248201527f416464726573733a20696e73756666696369656e742062616c616e636520666f6044820152651c8818d85b1b60d21b60648201526084016100aa565b843b6106815760405162461bcd60e51b815260206004820152601d60248201527f416464726573733a2063616c6c20746f206e6f6e2d636f6e747261637400000060448201526064016100aa565b600080866001600160a01b0316858760405161069d9190610aa8565b60006040518083038185875af1925050503d80600081146106da576040519150601f19603f3d011682016040523d82523d6000602084013e6106df565b606091505b50915091506106ef8282866106fa565b979650505050505050565b606083156107095750816105cb565b8251156107195782518084602001fd5b8160405162461bcd60e51b81526004016100aa9190610bc9565b600082601f830112610743578081fd5b8135602061075861075383610c2d565b610bfc565b80838252828201915082860187848660051b8901011115610777578586fd5b855b8581101561079e57813561078c81610cba565b84529284019290840190600101610779565b5090979650505050505050565b600082601f8301126107bb578081fd5b813560206107cb61075383610c2d565b80838252828201915082860187848660051b89010111156107ea578586fd5b855b8581101561079e578135845292840192908401906001016107ec565b60008083601f840112610819578182fd5b50813567ffffffffffffffff811115610830578182fd5b60208301915083602082850101111561084857600080fd5b9250929050565b803561085a81610cba565b919050565b600080600080600080600060c0888a031215610879578283fd5b873567ffffffffffffffff80821115610890578485fd5b61089c8b838c01610733565b985060208a01359150808211156108b1578485fd5b6108bd8b838c016107ab565b975060408a01359150808211156108d2578485fd5b6108de8b838c01610733565b965060608a01359150808211156108f3578485fd5b6108ff8b838c016107ab565b955061090d60808b0161084f565b945060a08a0135915080821115610922578384fd5b5061092f8a828b01610808565b989b979a50959850939692959293505050565b60006020808385031215610954578182fd5b825167ffffffffffffffff81111561096a578283fd5b8301601f8101851361097a578283fd5b805161098861075382610c2d565b80828252848201915084840188868560051b87010111156109a7578687fd5b8694505b838510156109c95780518352600194909401939185019185016109ab565b50979650505050505050565b6000602082840312156109e6578081fd5b815180151581146105cb578182fd5b600060208284031215610a06578081fd5b5051919050565b6000815180845260208085019450808401835b83811015610a455781516001600160a01b031687529582019590820190600101610a20565b509495945050505050565b6000815180845260208085019450808401835b83811015610a4557815187529582019590820190600101610a63565b81835281816020850137506000828201602090810191909152601f909101601f19169091010190565b60008251610aba818460208701610c51565b9190910192915050565b6001600160a01b038816815260c060208201819052600090610ae890830189610a0d565b8281036040840152610afa8189610a50565b90508281036060840152610b0e8188610a0d565b90508281036080840152610b228187610a50565b905082810360a0840152610b37818587610a7f565b9a9950505050505050505050565b60c081526000610b5860c083018a610a0d565b8281036020840152610b6a818a610a50565b90508281036040840152610b7e8189610a0d565b90508281036060840152610b928188610a50565b6001600160a01b038716608085015283810360a08501529050610b37818587610a7f565b6020815260006105cb6020830184610a50565b6020815260008251806020840152610be8816040850160208701610c51565b601f01601f19169190910160400192915050565b604051601f8201601f1916810167ffffffffffffffff81118282101715610c2557610c25610ca4565b604052919050565b600067ffffffffffffffff821115610c4757610c47610ca4565b5060051b60200190565b60005b83811015610c6c578181015183820152602001610c54565b838111156104ac5750506000910152565b6000600019821415610c9d57634e487b7160e01b81526011600452602481fd5b5060010190565b634e487b7160e01b600052604160045260246000fd5b6001600160a01b0381168114610ccf57600080fd5b5056fea2646970667358221220033cadbe0cb50ffb0eae58dd5c40f16d14ecbdc3238ed8402af93d1139a6304b64736f6c63430008040033",
  "linkReferences": {},
  "deployedLinkReferences": {}
}