{
  "_format": "hh-sol-artifact-1",
  "contractName": "Governance",
  "sourceName": "contracts/Governance/Governor.sol",
  "abi": [
    {
      "inputs": [
        {
          "internalType": "contract ERC20Votes",
          "name": "token_",
          "type": "address"
        },
        {
          "internalType": "contract TimelockController",
          "name": "timelock_",
          "type": "address"
        },
        {
          "internalType": "uint256",
          "name": "quorumFraction_",
          "type": "uint256"
        },
        {
          "internalType": "uint256",
          "name": "votingDelay_",
          "type": "uint256"
        },
        {
          "internalType": "uint256",
          "name": "votingPeriod_",
          "type": "uint256"
        },
        {
          "internalType": "uint256",
          "name": "proposalThreshold_",
          "type": "uint256"
        }
      ],
      "stateMutability": "nonpayable",
      "type": "constructor"
    },
    {
      "anonymous": false,
      "inputs": [
        {
          "indexed": false,
          "internalType": "uint256",
          "name": "proposalId",
          "type": "uint256"
        }
      ],
      "name": "ProposalCanceled",
      "type": "event"
    },
    {
      "anonymous": false,
      "inputs": [
        {
          "indexed": false,
          "internalType": "uint256",
          "name": "proposalId",
          "type": "uint256"
        },
        {
          "indexed": false,
          "internalType": "address",
          "name": "proposer",
          "type": "address"
        },
        {
          "indexed": false,
          "internalType": "address[]",
          "name": "targets",
          "type": "address[]"
        },
        {
          "indexed": false,
          "internalType": "uint256[]",
          "name": "values",
          "type": "uint256[]"
        },
        {
          "indexed": false,
          "internalType": "string[]",
          "name": "signatures",
          "type": "string[]"
        },
        {
          "indexed": false,
          "internalType": "bytes[]",
          "name": "calldatas",
          "type": "bytes[]"
        },
        {
          "indexed": false,
          "internalType": "uint256",
          "name": "startBlock",
          "type": "uint256"
        },
        {
          "indexed": false,
          "internalType": "uint256",
          "name": "endBlock",
          "type": "uint256"
        },
        {
          "indexed": false,
          "internalType": "string",
          "name": "description",
          "type": "string"
        }
      ],
      "name": "ProposalCreated",
      "type": "event"
    },
    {
      "anonymous": false,
      "inputs": [
        {
          "indexed": false,
          "internalType": "uint256",
          "name": "proposalId",
          "type": "uint256"
        }
      ],
      "name": "ProposalExecuted",
      "type": "event"
    },
    {
      "anonymous": false,
      "inputs": [
        {
          "indexed": false,
          "internalType": "uint256",
          "name": "proposalId",
          "type": "uint256"
        },
        {
          "indexed": false,
          "internalType": "uint256",
          "name": "eta",
          "type": "uint256"
        }
      ],
      "name": "ProposalQueued",
      "type": "event"
    },
    {
      "anonymous": false,
      "inputs": [
        {
          "indexed": false,
          "internalType": "uint256",
          "name": "oldProposalThreshold",
          "type": "uint256"
        },
        {
          "indexed": false,
          "internalType": "uint256",
          "name": "newProposalThreshold",
          "type": "uint256"
        }
      ],
      "name": "ProposalThresholdSet",
      "type": "event"
    },
    {
      "anonymous": false,
      "inputs": [
        {
          "indexed": false,
          "internalType": "uint256",
          "name": "oldQuorumNumerator",
          "type": "uint256"
        },
        {
          "indexed": false,
          "internalType": "uint256",
          "name": "newQuorumNumerator",
          "type": "uint256"
        }
      ],
      "name": "QuorumNumeratorUpdated",
      "type": "event"
    },
    {
      "anonymous": false,
      "inputs": [
        {
          "indexed": false,
          "internalType": "address",
          "name": "oldTimelock",
          "type": "address"
        },
        {
          "indexed": false,
          "internalType": "address",
          "name": "newTimelock",
          "type": "address"
        }
      ],
      "name": "TimelockChange",
      "type": "event"
    },
    {
      "anonymous": false,
      "inputs": [
        {
          "indexed": true,
          "internalType": "address",
          "name": "voter",
          "type": "address"
        },
        {
          "indexed": false,
          "internalType": "uint256",
          "name": "proposalId",
          "type": "uint256"
        },
        {
          "indexed": false,
          "internalType": "uint8",
          "name": "support",
          "type": "uint8"
        },
        {
          "indexed": false,
          "internalType": "uint256",
          "name": "weight",
          "type": "uint256"
        },
        {
          "indexed": false,
          "internalType": "string",
          "name": "reason",
          "type": "string"
        }
      ],
      "name": "VoteCast",
      "type": "event"
    },
    {
      "anonymous": false,
      "inputs": [
        {
          "indexed": false,
          "internalType": "uint256",
          "name": "oldVotingDelay",
          "type": "uint256"
        },
        {
          "indexed": false,
          "internalType": "uint256",
          "name": "newVotingDelay",
          "type": "uint256"
        }
      ],
      "name": "VotingDelaySet",
      "type": "event"
    },
    {
      "anonymous": false,
      "inputs": [
        {
          "indexed": false,
          "internalType": "uint256",
          "name": "oldVotingPeriod",
          "type": "uint256"
        },
        {
          "indexed": false,
          "internalType": "uint256",
          "name": "newVotingPeriod",
          "type": "uint256"
        }
      ],
      "name": "VotingPeriodSet",
      "type": "event"
    },
    {
      "inputs": [],
      "name": "BALLOT_TYPEHASH",
      "outputs": [
        {
          "internalType": "bytes32",
          "name": "",
          "type": "bytes32"
        }
      ],
      "stateMutability": "view",
      "type": "function"
    },
    {
      "inputs": [],
      "name": "COUNTING_MODE",
      "outputs": [
        {
          "internalType": "string",
          "name": "",
          "type": "string"
        }
      ],
      "stateMutability": "pure",
      "type": "function"
    },
    {
      "inputs": [
        {
          "internalType": "uint256",
          "name": "proposalId",
          "type": "uint256"
        }
      ],
      "name": "cancel",
      "outputs": [],
      "stateMutability": "nonpayable",
      "type": "function"
    },
    {
      "inputs": [
        {
          "internalType": "uint256",
          "name": "proposalId",
          "type": "uint256"
        },
        {
          "internalType": "uint8",
          "name": "support",
          "type": "uint8"
        }
      ],
      "name": "castVote",
      "outputs": [
        {
          "internalType": "uint256",
          "name": "",
          "type": "uint256"
        }
      ],
      "stateMutability": "nonpayable",
      "type": "function"
    },
    {
      "inputs": [
        {
          "internalType": "uint256",
          "name": "proposalId",
          "type": "uint256"
        },
        {
          "internalType": "uint8",
          "name": "support",
          "type": "uint8"
        },
        {
          "internalType": "uint8",
          "name": "v",
          "type": "uint8"
        },
        {
          "internalType": "bytes32",
          "name": "r",
          "type": "bytes32"
        },
        {
          "internalType": "bytes32",
          "name": "s",
          "type": "bytes32"
        }
      ],
      "name": "castVoteBySig",
      "outputs": [
        {
          "internalType": "uint256",
          "name": "",
          "type": "uint256"
        }
      ],
      "stateMutability": "nonpayable",
      "type": "function"
    },
    {
      "inputs": [
        {
          "internalType": "uint256",
          "name": "proposalId",
          "type": "uint256"
        },
        {
          "internalType": "uint8",
          "name": "support",
          "type": "uint8"
        },
        {
          "internalType": "string",
          "name": "reason",
          "type": "string"
        }
      ],
      "name": "castVoteWithReason",
      "outputs": [
        {
          "internalType": "uint256",
          "name": "",
          "type": "uint256"
        }
      ],
      "stateMutability": "nonpayable",
      "type": "function"
    },
    {
      "inputs": [
        {
          "internalType": "address[]",
          "name": "targets",
          "type": "address[]"
        },
        {
          "internalType": "uint256[]",
          "name": "values",
          "type": "uint256[]"
        },
        {
          "internalType": "bytes[]",
          "name": "calldatas",
          "type": "bytes[]"
        },
        {
          "internalType": "bytes32",
          "name": "descriptionHash",
          "type": "bytes32"
        }
      ],
      "name": "execute",
      "outputs": [
        {
          "internalType": "uint256",
          "name": "",
          "type": "uint256"
        }
      ],
      "stateMutability": "payable",
      "type": "function"
    },
    {
      "inputs": [
        {
          "internalType": "uint256",
          "name": "proposalId",
          "type": "uint256"
        }
      ],
      "name": "execute",
      "outputs": [],
      "stateMutability": "payable",
      "type": "function"
    },
    {
      "inputs": [
        {
          "internalType": "uint256",
          "name": "proposalId",
          "type": "uint256"
        }
      ],
      "name": "getActions",
      "outputs": [
        {
          "internalType": "address[]",
          "name": "targets",
          "type": "address[]"
        },
        {
          "internalType": "uint256[]",
          "name": "values",
          "type": "uint256[]"
        },
        {
          "internalType": "string[]",
          "name": "signatures",
          "type": "string[]"
        },
        {
          "internalType": "bytes[]",
          "name": "calldatas",
          "type": "bytes[]"
        }
      ],
      "stateMutability": "view",
      "type": "function"
    },
    {
      "inputs": [
        {
          "internalType": "uint256",
          "name": "proposalId",
          "type": "uint256"
        },
        {
          "internalType": "address",
          "name": "voter",
          "type": "address"
        }
      ],
      "name": "getReceipt",
      "outputs": [
        {
          "components": [
            {
              "internalType": "bool",
              "name": "hasVoted",
              "type": "bool"
            },
            {
              "internalType": "uint8",
              "name": "support",
              "type": "uint8"
            },
            {
              "internalType": "uint96",
              "name": "votes",
              "type": "uint96"
            }
          ],
          "internalType": "struct IGovernorCompatibilityBravo.Receipt",
          "name": "",
          "type": "tuple"
        }
      ],
      "stateMutability": "view",
      "type": "function"
    },
    {
      "inputs": [
        {
          "internalType": "address",
          "name": "account",
          "type": "address"
        },
        {
          "internalType": "uint256",
          "name": "blockNumber",
          "type": "uint256"
        }
      ],
      "name": "getVotes",
      "outputs": [
        {
          "internalType": "uint256",
          "name": "",
          "type": "uint256"
        }
      ],
      "stateMutability": "view",
      "type": "function"
    },
    {
      "inputs": [
        {
          "internalType": "uint256",
          "name": "proposalId",
          "type": "uint256"
        },
        {
          "internalType": "address",
          "name": "account",
          "type": "address"
        }
      ],
      "name": "hasVoted",
      "outputs": [
        {
          "internalType": "bool",
          "name": "",
          "type": "bool"
        }
      ],
      "stateMutability": "view",
      "type": "function"
    },
    {
      "inputs": [
        {
          "internalType": "address[]",
          "name": "targets",
          "type": "address[]"
        },
        {
          "internalType": "uint256[]",
          "name": "values",
          "type": "uint256[]"
        },
        {
          "internalType": "bytes[]",
          "name": "calldatas",
          "type": "bytes[]"
        },
        {
          "internalType": "bytes32",
          "name": "descriptionHash",
          "type": "bytes32"
        }
      ],
      "name": "hashProposal",
      "outputs": [
        {
          "internalType": "uint256",
          "name": "",
          "type": "uint256"
        }
      ],
      "stateMutability": "pure",
      "type": "function"
    },
    {
      "inputs": [],
      "name": "name",
      "outputs": [
        {
          "internalType": "string",
          "name": "",
          "type": "string"
        }
      ],
      "stateMutability": "view",
      "type": "function"
    },
    {
      "inputs": [
        {
          "internalType": "uint256",
          "name": "proposalId",
          "type": "uint256"
        }
      ],
      "name": "proposalDeadline",
      "outputs": [
        {
          "internalType": "uint256",
          "name": "",
          "type": "uint256"
        }
      ],
      "stateMutability": "view",
      "type": "function"
    },
    {
      "inputs": [
        {
          "internalType": "uint256",
          "name": "proposalId",
          "type": "uint256"
        }
      ],
      "name": "proposalEta",
      "outputs": [
        {
          "internalType": "uint256",
          "name": "",
          "type": "uint256"
        }
      ],
      "stateMutability": "view",
      "type": "function"
    },
    {
      "inputs": [
        {
          "internalType": "uint256",
          "name": "proposalId",
          "type": "uint256"
        }
      ],
      "name": "proposalSnapshot",
      "outputs": [
        {
          "internalType": "uint256",
          "name": "",
          "type": "uint256"
        }
      ],
      "stateMutability": "view",
      "type": "function"
    },
    {
      "inputs": [],
      "name": "proposalThreshold",
      "outputs": [
        {
          "internalType": "uint256",
          "name": "",
          "type": "uint256"
        }
      ],
      "stateMutability": "view",
      "type": "function"
    },
    {
      "inputs": [
        {
          "internalType": "uint256",
          "name": "proposalId",
          "type": "uint256"
        }
      ],
      "name": "proposals",
      "outputs": [
        {
          "internalType": "uint256",
          "name": "id",
          "type": "uint256"
        },
        {
          "internalType": "address",
          "name": "proposer",
          "type": "address"
        },
        {
          "internalType": "uint256",
          "name": "eta",
          "type": "uint256"
        },
        {
          "internalType": "uint256",
          "name": "startBlock",
          "type": "uint256"
        },
        {
          "internalType": "uint256",
          "name": "endBlock",
          "type": "uint256"
        },
        {
          "internalType": "uint256",
          "name": "forVotes",
          "type": "uint256"
        },
        {
          "internalType": "uint256",
          "name": "againstVotes",
          "type": "uint256"
        },
        {
          "internalType": "uint256",
          "name": "abstainVotes",
          "type": "uint256"
        },
        {
          "internalType": "bool",
          "name": "canceled",
          "type": "bool"
        },
        {
          "internalType": "bool",
          "name": "executed",
          "type": "bool"
        }
      ],
      "stateMutability": "view",
      "type": "function"
    },
    {
      "inputs": [
        {
          "internalType": "address[]",
          "name": "targets",
          "type": "address[]"
        },
        {
          "internalType": "uint256[]",
          "name": "values",
          "type": "uint256[]"
        },
        {
          "internalType": "bytes[]",
          "name": "calldatas",
          "type": "bytes[]"
        },
        {
          "internalType": "string",
          "name": "description",
          "type": "string"
        }
      ],
      "name": "propose",
      "outputs": [
        {
          "internalType": "uint256",
          "name": "",
          "type": "uint256"
        }
      ],
      "stateMutability": "nonpayable",
      "type": "function"
    },
    {
      "inputs": [
        {
          "internalType": "address[]",
          "name": "targets",
          "type": "address[]"
        },
        {
          "internalType": "uint256[]",
          "name": "values",
          "type": "uint256[]"
        },
        {
          "internalType": "string[]",
          "name": "signatures",
          "type": "string[]"
        },
        {
          "internalType": "bytes[]",
          "name": "calldatas",
          "type": "bytes[]"
        },
        {
          "internalType": "string",
          "name": "description",
          "type": "string"
        }
      ],
      "name": "propose",
      "outputs": [
        {
          "internalType": "uint256",
          "name": "",
          "type": "uint256"
        }
      ],
      "stateMutability": "nonpayable",
      "type": "function"
    },
    {
      "inputs": [
        {
          "internalType": "address[]",
          "name": "targets",
          "type": "address[]"
        },
        {
          "internalType": "uint256[]",
          "name": "values",
          "type": "uint256[]"
        },
        {
          "internalType": "bytes[]",
          "name": "calldatas",
          "type": "bytes[]"
        },
        {
          "internalType": "bytes32",
          "name": "descriptionHash",
          "type": "bytes32"
        }
      ],
      "name": "queue",
      "outputs": [
        {
          "internalType": "uint256",
          "name": "",
          "type": "uint256"
        }
      ],
      "stateMutability": "nonpayable",
      "type": "function"
    },
    {
      "inputs": [
        {
          "internalType": "uint256",
          "name": "proposalId",
          "type": "uint256"
        }
      ],
      "name": "queue",
      "outputs": [],
      "stateMutability": "nonpayable",
      "type": "function"
    },
    {
      "inputs": [
        {
          "internalType": "uint256",
          "name": "blockNumber",
          "type": "uint256"
        }
      ],
      "name": "quorum",
      "outputs": [
        {
          "internalType": "uint256",
          "name": "",
          "type": "uint256"
        }
      ],
      "stateMutability": "view",
      "type": "function"
    },
    {
      "inputs": [],
      "name": "quorumDenominator",
      "outputs": [
        {
          "internalType": "uint256",
          "name": "",
          "type": "uint256"
        }
      ],
      "stateMutability": "view",
      "type": "function"
    },
    {
      "inputs": [],
      "name": "quorumNumerator",
      "outputs": [
        {
          "internalType": "uint256",
          "name": "",
          "type": "uint256"
        }
      ],
      "stateMutability": "view",
      "type": "function"
    },
    {
      "inputs": [],
      "name": "quorumVotes",
      "outputs": [
        {
          "internalType": "uint256",
          "name": "",
          "type": "uint256"
        }
      ],
      "stateMutability": "view",
      "type": "function"
    },
    {
      "inputs": [
        {
          "internalType": "uint256",
          "name": "newProposalThreshold",
          "type": "uint256"
        }
      ],
      "name": "setProposalThreshold",
      "outputs": [],
      "stateMutability": "nonpayable",
      "type": "function"
    },
    {
      "inputs": [
        {
          "internalType": "uint256",
          "name": "newVotingDelay",
          "type": "uint256"
        }
      ],
      "name": "setVotingDelay",
      "outputs": [],
      "stateMutability": "nonpayable",
      "type": "function"
    },
    {
      "inputs": [
        {
          "internalType": "uint256",
          "name": "newVotingPeriod",
          "type": "uint256"
        }
      ],
      "name": "setVotingPeriod",
      "outputs": [],
      "stateMutability": "nonpayable",
      "type": "function"
    },
    {
      "inputs": [
        {
          "internalType": "uint256",
          "name": "proposalId",
          "type": "uint256"
        }
      ],
      "name": "state",
      "outputs": [
        {
          "internalType": "enum IGovernor.ProposalState",
          "name": "",
          "type": "uint8"
        }
      ],
      "stateMutability": "view",
      "type": "function"
    },
    {
      "inputs": [
        {
          "internalType": "bytes4",
          "name": "interfaceId",
          "type": "bytes4"
        }
      ],
      "name": "supportsInterface",
      "outputs": [
        {
          "internalType": "bool",
          "name": "",
          "type": "bool"
        }
      ],
      "stateMutability": "view",
      "type": "function"
    },
    {
      "inputs": [],
      "name": "timelock",
      "outputs": [
        {
          "internalType": "address",
          "name": "",
          "type": "address"
        }
      ],
      "stateMutability": "view",
      "type": "function"
    },
    {
      "inputs": [],
      "name": "token",
      "outputs": [
        {
          "internalType": "contract ERC20Votes",
          "name": "",
          "type": "address"
        }
      ],
      "stateMutability": "view",
      "type": "function"
    },
    {
      "inputs": [
        {
          "internalType": "uint256",
          "name": "newQuorumNumerator",
          "type": "uint256"
        }
      ],
      "name": "updateQuorumNumerator",
      "outputs": [],
      "stateMutability": "nonpayable",
      "type": "function"
    },
    {
      "inputs": [
        {
          "internalType": "contract TimelockController",
          "name": "newTimelock",
          "type": "address"
        }
      ],
      "name": "updateTimelock",
      "outputs": [],
      "stateMutability": "nonpayable",
      "type": "function"
    },
    {
      "inputs": [],
      "name": "version",
      "outputs": [
        {
          "internalType": "string",
          "name": "",
          "type": "string"
        }
      ],
      "stateMutability": "view",
      "type": "function"
    },
    {
      "inputs": [],
      "name": "votingDelay",
      "outputs": [
        {
          "internalType": "uint256",
          "name": "",
          "type": "uint256"
        }
      ],
      "stateMutability": "view",
      "type": "function"
    },
    {
      "inputs": [],
      "name": "votingPeriod",
      "outputs": [
        {
          "internalType": "uint256",
          "name": "",
          "type": "uint256"
        }
      ],
      "stateMutability": "view",
      "type": "function"
    },
    {
      "stateMutability": "payable",
      "type": "receive"
    }
  ],
  "bytecode": "0x6101606040523480156200001257600080fd5b506040516200476638038062004766833981016040819052620000359162000490565b84848785858560405180604001604052806009815260200168546f7271756544414f60b81b815250806200006e6200017360201b60201c565b815160208084019190912082518383012060e08290526101008190524660a0818152604080517f8b73c3c69bb8fe3d512ecc4cf759cc79239f7b179b0ffacaa9a75d522b39400f81880181905281830187905260608201869052608082019490945230818401528151808203909301835260c00190528051940193909320919290916080523060601b60c0526101205250508251620001179250600091506020840190620003ea565b50620001259050836200018e565b6200013082620001cf565b6200013b8162000276565b50505060601b6001600160601b031916610140526200015a81620002b7565b50620001668162000381565b5050505050505062000548565b6040805180820190915260018152603160f81b602082015290565b60025460408051918252602082018390527fc565b045403dc03c2eea82b81a0465edad9e2e7fc4d97e11421c209da93d7a93910160405180910390a1600255565b60008111620002355760405162461bcd60e51b815260206004820152602760248201527f476f7665726e6f7253657474696e67733a20766f74696e6720706572696f6420604482015266746f6f206c6f7760c81b60648201526084015b60405180910390fd5b60035460408051918252602082018390527f7e3f7f0708a84de9203036abaa450dccc85ad5ff52f78c170f3edb55cf5e8828910160405180910390a1600355565b60045460408051918252602082018390527fccb45da8d5717e6c4544694297c4ba5cf151d455c9bb0ed4fc7a38411bc05461910160405180910390a1600455565b60648111156200033c5760405162461bcd60e51b815260206004820152604360248201527f476f7665726e6f72566f74657351756f72756d4672616374696f6e3a2071756f60448201527f72756d4e756d657261746f72206f7665722071756f72756d44656e6f6d696e616064820152623a37b960e91b608482015260a4016200022c565b600680549082905560408051828152602081018490527f0553476bf02ef2726e8ce5ced78d63e26e602e4a2257b1f559418e24b4633997910160405180910390a15050565b600754604080516001600160a01b03928316815291831660208301527f08f74ea46ef7894f65eabfb5e6e695de773a000b47c529ab559178069b226401910160405180910390a1600780546001600160a01b0319166001600160a01b0392909216919091179055565b828054620003f890620004f2565b90600052602060002090601f0160209004810192826200041c576000855562000467565b82601f106200043757805160ff191683800117855562000467565b8280016001018555821562000467579182015b82811115620004675782518255916020019190600101906200044a565b506200047592915062000479565b5090565b5b808211156200047557600081556001016200047a565b60008060008060008060c08789031215620004a9578182fd5b8651620004b6816200052f565b6020880151909650620004c9816200052f565b6040880151606089015160808a015160a0909a0151989b929a5090989097909650945092505050565b600181811c908216806200050757607f821691505b602082108114156200052957634e487b7160e01b600052602260045260246000fd5b50919050565b6001600160a01b03811681146200054557600080fd5b50565b60805160a05160c05160601c60e05161010051610120516101405160601c6141af620005b760003960008181610880015281816123ea01526124c40152600061268d015260006126dc015260006126b7015260006126100152600061263a0152600061266401526141af6000f3fe6080604052600436106102345760003560e01c80637d5e81e21161012e578063dd4e2ba5116100ab578063eb9019d41161006f578063eb9019d41461080e578063ece40cc11461082e578063f8ce560a1461084e578063fc0c546a1461086e578063fe0d94c1146108a257600080fd5b8063dd4e2ba51461068a578063ddf0b009146106d0578063deaaa7cc146106f0578063e23a9a5214610724578063ea0217cf146107ee57600080fd5b8063b58131b0116100f2578063b58131b0146105e3578063c01f9e37146105f8578063c59057e414610618578063d33219b414610638578063da95691a1461066a57600080fd5b80637d5e81e21461055a57806397c3d3341461057a578063a7713a701461058e578063a890c910146105a3578063ab58fb8e146105c357600080fd5b8063328dd982116101bc5780634385963211610180578063438596321461048657806354fd4d50146104d057806356781388146104fa57806370b0f6601461051a5780637b3c71d31461053a57600080fd5b8063328dd982146103d45780633932abb1146104045780633bccf4fd146104195780633e4f49e61461043957806340e58ee51461046657600080fd5b806306fdde031161020357806306fdde031461034a578063160cbed71461036c57806324bc1a641461038c5780632656227d146103a15780632d63f693146103b457600080fd5b8063013cf08b1461025c57806301ffc9a7146102d757806302a251a31461030757806306f3f9e61461032a57600080fd5b3661025757306102426108b5565b6001600160a01b03161461025557600080fd5b005b600080fd5b34801561026857600080fd5b5061027c610277366004613a81565b6108ce565b604080519a8b526001600160a01b0390991660208b0152978901969096526060880194909452608087019290925260a086015260c085015260e084015215156101008301521515610120820152610140015b60405180910390f35b3480156102e357600080fd5b506102f76102f2366004613a3d565b610993565b60405190151581526020016102ce565b34801561031357600080fd5b5061031c6109a4565b6040519081526020016102ce565b34801561033657600080fd5b50610255610345366004613a81565b6109af565b34801561035657600080fd5b5061035f6109fc565b6040516102ce9190613e0d565b34801561037857600080fd5b5061031c610387366004613808565b610a8e565b34801561039857600080fd5b5061031c610cbb565b61031c6103af366004613808565b610ccb565b3480156103c057600080fd5b5061031c6103cf366004613a81565b610dba565b3480156103e057600080fd5b506103f46103ef366004613a81565b610df1565b6040516102ce9493929190613dc0565b34801561041057600080fd5b5061031c611082565b34801561042557600080fd5b5061031c610434366004613b74565b61108d565b34801561044557600080fd5b50610459610454366004613a81565b611121565b6040516102ce9190613e20565b34801561047257600080fd5b50610255610481366004613a81565b61112c565b34801561049257600080fd5b506102f76104a1366004613a99565b60008281526005602090815260408083206001600160a01b038516845260080190915290205460ff1692915050565b3480156104dc57600080fd5b506040805180820190915260018152603160f81b602082015261035f565b34801561050657600080fd5b5061031c610515366004613ac8565b611444565b34801561052657600080fd5b50610255610535366004613a81565b61146d565b34801561054657600080fd5b5061031c610555366004613af3565b6114ae565b34801561056657600080fd5b5061031c610575366004613893565b611500565b34801561058657600080fd5b50606461031c565b34801561059a57600080fd5b5060065461031c565b3480156105af57600080fd5b506102556105be366004613a65565b611517565b3480156105cf57600080fd5b5061031c6105de366004613a81565b611558565b3480156105ef57600080fd5b5061031c611602565b34801561060457600080fd5b5061031c610613366004613a81565b61160d565b34801561062457600080fd5b5061031c610633366004613808565b61163c565b34801561064457600080fd5b506007546001600160a01b03165b6040516001600160a01b0390911681526020016102ce565b34801561067657600080fd5b5061031c61068536600461393a565b611676565b34801561069657600080fd5b5060408051808201909152601a81527f737570706f72743d627261766f2671756f72756d3d627261766f000000000000602082015261035f565b3480156106dc57600080fd5b506102556106eb366004613a81565b61169b565b3480156106fc57600080fd5b5061031c7f150214d74d59b7d1e90c73fc22ef3d991dd0a76b046543d4d80ab92d2a50328f81565b34801561073057600080fd5b506107be61073f366004613a99565b60408051606081018252600080825260208201819052918101919091525060009182526005602090815260408084206001600160a01b0393909316845260089092018152918190208151606081018352905460ff8082161515835261010082041693820193909352620100009092046001600160601b03169082015290565b6040805182511515815260208084015160ff1690820152918101516001600160601b0316908201526060016102ce565b3480156107fa57600080fd5b50610255610809366004613a81565b611909565b34801561081a57600080fd5b5061031c6108293660046137dd565b61194a565b34801561083a57600080fd5b50610255610849366004613a81565b611956565b34801561085a57600080fd5b5061031c610869366004613a81565b611997565b34801561087a57600080fd5b506106527f000000000000000000000000000000000000000000000000000000000000000081565b6102556108b0366004613a81565b6119a2565b60006108c96007546001600160a01b031690565b905090565b80600080808080808080806108e28a611558565b97506108ed8b610dba565b96506108f88b61160d565b60008c81526005602081905260408220805491810154600682015460078301546001600160a01b039094169e50949a50985092965094506109388d611121565b9050600281600781111561095c57634e487b7160e01b600052602160045260246000fd5b149350600781600781111561098157634e487b7160e01b600052602160045260246000fd5b14925050509193959799509193959799565b600061099e82611c10565b92915050565b60006108c960035490565b6109b76108b5565b6001600160a01b0316336001600160a01b0316146109f05760405162461bcd60e51b81526004016109e790613e48565b60405180910390fd5b6109f981611c35565b50565b606060008054610a0b906140e8565b80601f0160208091040260200160405190810160405280929190818152602001828054610a37906140e8565b8015610a845780601f10610a5957610100808354040283529160200191610a84565b820191906000526020600020905b815481529060010190602001808311610a6757829003601f168201915b5050505050905090565b600080610a9d8686868661163c565b90506004610aaa82611121565b6007811115610ac957634e487b7160e01b600052602160045260246000fd5b14610ae65760405162461bcd60e51b81526004016109e790613ec0565b6007546040805163793d064960e11b815290516000926001600160a01b03169163f27a0c92916004808301926020929190829003018186803b158015610b2b57600080fd5b505afa158015610b3f573d6000803e3d6000fd5b505050506040513d601f19601f82011682018060405250810190610b639190613a25565b60075460405163b1c5f42760e01b81529192506001600160a01b03169063b1c5f42790610b9d908a908a908a906000908b90600401613d1a565b60206040518083038186803b158015610bb557600080fd5b505afa158015610bc9573d6000803e3d6000fd5b505050506040513d601f19601f82011682018060405250810190610bed9190613a25565b6000838152600860205260408082209290925560075491516308f2a0bb60e41b81526001600160a01b0390921691638f2a0bb091610c38918b918b918b91908b908990600401613d68565b600060405180830381600087803b158015610c5257600080fd5b505af1158015610c66573d6000803e3d6000fd5b505050507f9a2e42fd6722813d69113e7d0079d3d940171428df7373df9c7f7617cfda2892828242610c98919061401f565b604080519283526020830191909152015b60405180910390a15095945050505050565b60006108c96108696001436140a1565b600080610cda8686868661163c565b90506000610ce782611121565b90506004816007811115610d0b57634e487b7160e01b600052602160045260246000fd5b1480610d3657506005816007811115610d3457634e487b7160e01b600052602160045260246000fd5b145b610d525760405162461bcd60e51b81526004016109e790613ec0565b600082815260016020818152604092839020600201805460ff191690921790915590518381527f712ae1383f79ac853f8d882153778e0260ef8f03b504e2866e0593e04d2b291f910160405180910390a1610db08288888888611cfd565b5095945050505050565b60008181526001602090815260408083208151928301909152546001600160401b0316908190525b6001600160401b031692915050565b60608060608060006005600087815260200190815260200160002090508060010181600201826003018360040183805480602002602001604051908101604052809291908181526020018280548015610e7357602002820191906000526020600020905b81546001600160a01b03168152600190910190602001808311610e55575b5050505050935082805480602002602001604051908101604052809291908181526020018280548015610ec557602002820191906000526020600020905b815481526020019060010190808311610eb1575b5050505050925081805480602002602001604051908101604052809291908181526020016000905b82821015610f99578382906000526020600020018054610f0c906140e8565b80601f0160208091040260200160405190810160405280929190818152602001828054610f38906140e8565b8015610f855780601f10610f5a57610100808354040283529160200191610f85565b820191906000526020600020905b815481529060010190602001808311610f6857829003601f168201915b505050505081526020019060010190610eed565b50505050915080805480602002602001604051908101604052809291908181526020016000905b8282101561106c578382906000526020600020018054610fdf906140e8565b80601f016020809104026020016040519081016040528092919081815260200182805461100b906140e8565b80156110585780601f1061102d57610100808354040283529160200191611058565b820191906000526020600020905b81548152906001019060200180831161103b57829003601f168201915b505050505081526020019060010190610fc0565b5050505090509450945094509450509193509193565b60006108c960025490565b604080517f150214d74d59b7d1e90c73fc22ef3d991dd0a76b046543d4d80ab92d2a50328f602082015290810186905260ff8516606082015260009081906110f9906110f19060800160405160208183030381529060405280519060200120611d11565b868686611d5f565b905061111687828860405180602001604052806000815250611d7d565b979650505050505050565b600061099e82611e96565b600081815260056020526040902080546001600160a01b0316336001600160a01b0316148061117a575061115e611602565b8154611178906001600160a01b03166108296001436140a1565b105b6111d65760405162461bcd60e51b815260206004820152602760248201527f476f7665726e6f72427261766f3a2070726f706f7365722061626f76652074686044820152661c995cda1bdb1960ca1b60648201526084016109e7565b61143f8160010180548060200260200160405190810160405280929190818152602001828054801561123157602002820191906000526020600020905b81546001600160a01b03168152600190910190602001808311611213575b50505050508260020180548060200260200160405190810160405280929190818152602001828054801561128457602002820191906000526020600020905b815481526020019060010190808311611270575b505050505061143584600301805480602002602001604051908101604052809291908181526020016000905b8282101561135c5783829060005260206000200180546112cf906140e8565b80601f01602080910402602001604051908101604052809291908181526020018280546112fb906140e8565b80156113485780601f1061131d57610100808354040283529160200191611348565b820191906000526020600020905b81548152906001019060200180831161132b57829003601f168201915b5050505050815260200190600101906112b0565b50505060048701805460408051602080840282018101909252828152935060009084015b8282101561142c57838290600052602060002001805461139f906140e8565b80601f01602080910402602001604051908101604052809291908181526020018280546113cb906140e8565b80156114185780601f106113ed57610100808354040283529160200191611418565b820191906000526020600020905b8154815290600101906020018083116113fb57829003601f168201915b505050505081526020019060010190611380565b50505050611f81565b8460090154612135565b505050565b60008033905061146584828560405180602001604052806000815250611d7d565b949350505050565b6114756108b5565b6001600160a01b0316336001600160a01b0316146114a55760405162461bcd60e51b81526004016109e790613e48565b6109f981612143565b6000803390506114f686828787878080601f016020809104026020016040519081016040528093929190818152602001838380828437600092019190915250611d7d92505050565b9695505050505050565b600061150e85858585612184565b95945050505050565b61151f6108b5565b6001600160a01b0316336001600160a01b03161461154f5760405162461bcd60e51b81526004016109e790613e48565b6109f9816121fa565b60075460008281526008602052604080822054905163d45c443560e01b81526004810191909152909182916001600160a01b039091169063d45c44359060240160206040518083038186803b1580156115b057600080fd5b505afa1580156115c4573d6000803e3d6000fd5b505050506040513d601f19601f820116820180604052508101906115e89190613a25565b9050806001146115f857806115fb565b60005b9392505050565b60006108c960045490565b60008181526001602081815260408084208151928301909152909101546001600160401b031690819052610de2565b6000848484846040516020016116559493929190613ccf565b60408051601f19818403018152919052805160209091012095945050505050565b6000611686338787878787612263565b6114f686866116958787611f81565b85611500565b600081815260056020908152604091829020600181018054845181850281018501909552808552919361143f9390929083018282801561170457602002820191906000526020600020905b81546001600160a01b031681526001909101906020018083116116e6575b50505050508260020180548060200260200160405190810160405280929190818152602001828054801561175757602002820191906000526020600020905b815481526020019060010190808311611743575b50505050506118ff84600301805480602002602001604051908101604052809291908181526020016000905b8282101561182f5783829060005260206000200180546117a2906140e8565b80601f01602080910402602001604051908101604052809291908181526020018280546117ce906140e8565b801561181b5780601f106117f05761010080835404028352916020019161181b565b820191906000526020600020905b8154815290600101906020018083116117fe57829003601f168201915b505050505081526020019060010190611783565b50505060048701805460408051602080840282018101909252828152935060009084015b8282101561142c578382906000526020600020018054611872906140e8565b80601f016020809104026020016040519081016040528092919081815260200182805461189e906140e8565b80156118eb5780601f106118c0576101008083540402835291602001916118eb565b820191906000526020600020905b8154815290600101906020018083116118ce57829003601f168201915b505050505081526020019060010190611853565b8460090154610a8e565b6119116108b5565b6001600160a01b0316336001600160a01b0316146119415760405162461bcd60e51b81526004016109e790613e48565b6109f981612320565b60006115fb83836123c1565b61195e6108b5565b6001600160a01b0316336001600160a01b03161461198e5760405162461bcd60e51b81526004016109e790613e48565b6109f981612466565b600061099e826124a7565b600081815260056020908152604091829020600181018054845181850281018501909552808552919361143f93909290830182828015611a0b57602002820191906000526020600020905b81546001600160a01b031681526001909101906020018083116119ed575b505050505082600201805480602002602001604051908101604052809291908181526020018280548015611a5e57602002820191906000526020600020905b815481526020019060010190808311611a4a575b5050505050611c0684600301805480602002602001604051908101604052809291908181526020016000905b82821015611b36578382906000526020600020018054611aa9906140e8565b80601f0160208091040260200160405190810160405280929190818152602001828054611ad5906140e8565b8015611b225780601f10611af757610100808354040283529160200191611b22565b820191906000526020600020905b815481529060010190602001808311611b0557829003601f168201915b505050505081526020019060010190611a8a565b50505060048701805460408051602080840282018101909252828152935060009084015b8282101561142c578382906000526020600020018054611b79906140e8565b80601f0160208091040260200160405190810160405280929190818152602001828054611ba5906140e8565b8015611bf25780601f10611bc757610100808354040283529160200191611bf2565b820191906000526020600020905b815481529060010190602001808311611bd557829003601f168201915b505050505081526020019060010190611b5a565b8460090154610ccb565b60006001600160e01b03198216636e665ced60e01b148061099e575061099e8261255a565b6064811115611cb85760405162461bcd60e51b815260206004820152604360248201527f476f7665726e6f72566f74657351756f72756d4672616374696f6e3a2071756f60448201527f72756d4e756d657261746f72206f7665722071756f72756d44656e6f6d696e616064820152623a37b960e91b608482015260a4016109e7565b600680549082905560408051828152602081018490527f0553476bf02ef2726e8ce5ced78d63e26e602e4a2257b1f559418e24b4633997910160405180910390a15050565b611d0a858585858561258f565b5050505050565b600061099e611d1e612603565b8360405161190160f01b6020820152602281018390526042810182905260009060620160405160208183030381529060405280519060200120905092915050565b6000806000611d708787878761272a565b91509150610db081612817565b6000848152600160208190526040822090611d9787611121565b6007811115611db657634e487b7160e01b600052602160045260246000fd5b14611e0f5760405162461bcd60e51b815260206004820152602360248201527f476f7665726e6f723a20766f7465206e6f742063757272656e746c792061637460448201526269766560e81b60648201526084016109e7565b604080516020810190915281546001600160401b031690819052600090611e3790879061194a565b9050611e4587878784612a18565b856001600160a01b03167fb8e138887d0aa13bab447e82de9d5c1777041ecd21ca36ba824ff1e6c07ddda488878488604051611e849493929190613fa4565b60405180910390a29695505050505050565b600080611ea283612bbd565b90506004816007811115611ec657634e487b7160e01b600052602160045260246000fd5b14611ed15792915050565b60008381526008602052604090205480611eec575092915050565b600754604051632ab0f52960e01b8152600481018390526001600160a01b0390911690632ab0f5299060240160206040518083038186803b158015611f3057600080fd5b505afa158015611f44573d6000803e3d6000fd5b505050506040513d601f19601f82011682018060405250810190611f689190613a05565b15611f77575060079392505050565b5060059392505050565b6060600082516001600160401b03811115611fac57634e487b7160e01b600052604160045260246000fd5b604051908082528060200260200182016040528015611fdf57816020015b6060815260200190600190039081611fca5790505b50905060005b845181101561212d5784818151811061200e57634e487b7160e01b600052603260045260246000fd5b6020026020010151516000146120c85784818151811061203e57634e487b7160e01b600052603260045260246000fd5b602002602001015184828151811061206657634e487b7160e01b600052603260045260246000fd5b602002602001015160405160240161207e9190613e0d565b60408051601f19818403018152908290529161209991613cb3565b6040519081900390206020820180516001600160e01b03166001600160e01b03199092169190911790526120f1565b8381815181106120e857634e487b7160e01b600052603260045260246000fd5b60200260200101515b82828151811061211157634e487b7160e01b600052603260045260246000fd5b6020026020010181905250806121269061411d565b9050611fe5565b509392505050565b600061150e85858585612d24565b60025460408051918252602082018390527fc565b045403dc03c2eea82b81a0465edad9e2e7fc4d97e11421c209da93d7a93910160405180910390a1600255565b60006121ee33868686516001600160401b038111156121b357634e487b7160e01b600052604160045260246000fd5b6040519080825280602002602001820160405280156121e657816020015b60608152602001906001900390816121d15790505b508787612263565b61150e85858585612dd6565b600754604080516001600160a01b03928316815291831660208301527f08f74ea46ef7894f65eabfb5e6e695de773a000b47c529ab559178069b226401910160405180910390a1600780546001600160a01b0319166001600160a01b0392909216919091179055565b805160208201206000612281878761227b8888611f81565b8561163c565b60008181526005602052604090206009810154919250906123155780546001600160a01b0319166001600160a01b038a1617815587516122ca90600183019060208b0190613321565b5086516122e090600283019060208a0190613382565b5085516122f690600383019060208901906133bd565b50845161230c9060048301906020880190613416565b50600981018390555b505050505050505050565b600081116123805760405162461bcd60e51b815260206004820152602760248201527f476f7665726e6f7253657474696e67733a20766f74696e6720706572696f6420604482015266746f6f206c6f7760c81b60648201526084016109e7565b60035460408051918252602082018390527f7e3f7f0708a84de9203036abaa450dccc85ad5ff52f78c170f3edb55cf5e8828910160405180910390a1600355565b604051630748d63560e31b81526001600160a01b038381166004830152602482018390526000917f000000000000000000000000000000000000000000000000000000000000000090911690633a46b1a89060440160206040518083038186803b15801561242e57600080fd5b505afa158015612442573d6000803e3d6000fd5b505050506040513d601f19601f820116820180604052508101906115fb9190613a25565b60045460408051918252602082018390527fccb45da8d5717e6c4544694297c4ba5cf151d455c9bb0ed4fc7a38411bc05461910160405180910390a1600455565b60006064600654604051632394e7a360e21b8152600481018590527f00000000000000000000000000000000000000000000000000000000000000006001600160a01b031690638e539e8c9060240160206040518083038186803b15801561250e57600080fd5b505afa158015612522573d6000803e3d6000fd5b505050506040513d601f19601f820116820180604052508101906125469190613a25565b6125509190614082565b61099e9190614062565b60006001600160e01b0319821663bf26d89760e01b148061099e57506301ffc9a760e01b6001600160e01b031983161461099e565b60075460405163e38335e560e01b81526001600160a01b039091169063e38335e59034906125ca908890889088906000908990600401613d1a565b6000604051808303818588803b1580156125e357600080fd5b505af11580156125f7573d6000803e3d6000fd5b50505050505050505050565b6000306001600160a01b037f00000000000000000000000000000000000000000000000000000000000000001614801561265c57507f000000000000000000000000000000000000000000000000000000000000000046145b1561268657507f000000000000000000000000000000000000000000000000000000000000000090565b50604080517f00000000000000000000000000000000000000000000000000000000000000006020808301919091527f0000000000000000000000000000000000000000000000000000000000000000828401527f000000000000000000000000000000000000000000000000000000000000000060608301524660808301523060a0808401919091528351808403909101815260c0909201909252805191012090565b6000807f7fffffffffffffffffffffffffffffff5d576e7357a4501ddfe92f46681b20a0831115612761575060009050600361280e565b8460ff16601b1415801561277957508460ff16601c14155b1561278a575060009050600461280e565b6040805160008082526020820180845289905260ff881692820192909252606081018690526080810185905260019060a0016020604051602081039080840390855afa1580156127de573d6000803e3d6000fd5b5050604051601f1901519150506001600160a01b0381166128075760006001925092505061280e565b9150600090505b94509492505050565b600081600481111561283957634e487b7160e01b600052602160045260246000fd5b14156128425750565b600181600481111561286457634e487b7160e01b600052602160045260246000fd5b14156128b25760405162461bcd60e51b815260206004820152601860248201527f45434453413a20696e76616c6964207369676e6174757265000000000000000060448201526064016109e7565b60028160048111156128d457634e487b7160e01b600052602160045260246000fd5b14156129225760405162461bcd60e51b815260206004820152601f60248201527f45434453413a20696e76616c6964207369676e6174757265206c656e6774680060448201526064016109e7565b600381600481111561294457634e487b7160e01b600052602160045260246000fd5b141561299d5760405162461bcd60e51b815260206004820152602260248201527f45434453413a20696e76616c6964207369676e6174757265202773272076616c604482015261756560f01b60648201526084016109e7565b60048160048111156129bf57634e487b7160e01b600052602160045260246000fd5b14156109f95760405162461bcd60e51b815260206004820152602260248201527f45434453413a20696e76616c6964207369676e6174757265202776272076616c604482015261756560f01b60648201526084016109e7565b60008481526005602090815260408083206001600160a01b038716845260088101909252909120805460ff1615612aa75760405162461bcd60e51b815260206004820152602d60248201527f476f7665726e6f72436f6d7061746962696c697479427261766f3a20766f746560448201526c08185b1c9958591e4818d85cdd609a1b60648201526084016109e7565b805460ff85166101000261ffff19909116176001178155612ac7836130bf565b81546001600160601b039190911662010000026dffffffffffffffffffffffff00001990911617815560ff8416612b175782826006016000828254612b0c919061401f565b90915550612bb59050565b60ff841660011415612b375782826005016000828254612b0c919061401f565b60ff841660021415612b575782826007016000828254612b0c919061401f565b60405162461bcd60e51b815260206004820152602d60248201527f476f7665726e6f72436f6d7061746962696c697479427261766f3a20696e766160448201526c6c696420766f7465207479706560981b60648201526084016109e7565b505050505050565b6000818152600160208181526040808420815160a08101835281546001600160401b0390811660808301908152825283518086018552958301541685529283019390935260029092015460ff80821615801594840194909452610100909104161515606082015290612c325750600792915050565b806060015115612c455750600292915050565b80515143906001600160401b031610612c615750600092915050565b43612c6e82602001515190565b6001600160401b031610612c855750600192915050565b612c92816020015161312b565b15612cd657612ca08361315a565b8015612cc2575060008381526005602081905260409091206006810154910154115b612ccd5760036115fb565b60049392505050565b60405162461bcd60e51b815260206004820152601d60248201527f476f7665726e6f723a20756e6b6e6f776e2070726f706f73616c20696400000060448201526064016109e7565b50919050565b600080612d3386868686613183565b6000818152600860205260409020549091501561150e576007546000828152600860205260409081902054905163c4d252f560e01b81526001600160a01b039092169163c4d252f591612d8c9160040190815260200190565b600060405180830381600087803b158015612da657600080fd5b505af1158015612dba573d6000803e3d6000fd5b5050506000828152600860205260408120555095945050505050565b6000612de0611602565b612def336108296001436140a1565b1015612e6f5760405162461bcd60e51b815260206004820152604360248201527f476f7665726e6f72436f6d7061746962696c697479427261766f3a2070726f7060448201527f6f73657220766f7465732062656c6f772070726f706f73616c207468726573686064820152621bdb1960ea1b608482015260a4016109e7565b6000612e84868686868051906020012061163c565b90508451865114612ea75760405162461bcd60e51b81526004016109e790613e7f565b8351865114612ec85760405162461bcd60e51b81526004016109e790613e7f565b6000865111612f195760405162461bcd60e51b815260206004820152601860248201527f476f7665726e6f723a20656d7074792070726f706f73616c000000000000000060448201526064016109e7565b600081815260016020908152604091829020825191820190925281546001600160401b03169081905215612f995760405162461bcd60e51b815260206004820152602160248201527f476f7665726e6f723a2070726f706f73616c20616c72656164792065786973746044820152607360f81b60648201526084016109e7565b6000612fab612fa6611082565b6132b9565b612fb4436132b9565b612fbe9190614037565b90506000612fcd612fa66109a4565b612fd79083614037565b835467ffffffffffffffff19166001600160401b038416178455905060018301805467ffffffffffffffff19166001600160401b0383161790557f7d84a6263ae0d98d3329bd7b46bb4e8d6f98cd35a7adb45c274c8b7fd5ebd5e084338b8b8d516001600160401b0381111561305d57634e487b7160e01b600052604160045260246000fd5b60405190808252806020026020018201604052801561309057816020015b606081526020019060019003908161307b5790505b508c88888e6040516130aa99989796959493929190613f01565b60405180910390a15091979650505050505050565b60006001600160601b038211156131275760405162461bcd60e51b815260206004820152602660248201527f53616665436173743a2076616c756520646f65736e27742066697420696e203960448201526536206269747360d01b60648201526084016109e7565b5090565b600061314082516001600160401b0316151590565b801561099e57505051436001600160401b03909116111590565b600081815260056020819052604082209081015461317a61086985610dba565b11159392505050565b6000806131928686868661163c565b9050600061319f82611121565b905060028160078111156131c357634e487b7160e01b600052602160045260246000fd5b141580156131f1575060068160078111156131ee57634e487b7160e01b600052602160045260246000fd5b14155b801561321d5750600781600781111561321a57634e487b7160e01b600052602160045260246000fd5b14155b6132695760405162461bcd60e51b815260206004820152601d60248201527f476f7665726e6f723a2070726f706f73616c206e6f742061637469766500000060448201526064016109e7565b60008281526001602052604090819020600201805461ff001916610100179055517f789cf55be980739dad1d0699b93b58e806b51c9d96619bfa8fe0a28abaa7b30c90610ca99084815260200190565b60006001600160401b038211156131275760405162461bcd60e51b815260206004820152602660248201527f53616665436173743a2076616c756520646f65736e27742066697420696e203660448201526534206269747360d01b60648201526084016109e7565b828054828255906000526020600020908101928215613376579160200282015b8281111561337657825182546001600160a01b0319166001600160a01b03909116178255602090920191600190910190613341565b5061312792915061346f565b828054828255906000526020600020908101928215613376579160200282015b828111156133765782518255916020019190600101906133a2565b82805482825590600052602060002090810192821561340a579160200282015b8281111561340a57825180516133fa918491602090910190613484565b50916020019190600101906133dd565b506131279291506134f7565b828054828255906000526020600020908101928215613463579160200282015b828111156134635782518051613453918491602090910190613484565b5091602001919060010190613436565b50613127929150613514565b5b808211156131275760008155600101613470565b828054613490906140e8565b90600052602060002090601f0160209004810192826134b25760008555613376565b82601f106134cb57805160ff1916838001178555613376565b8280016001018555821561337657918201828111156133765782518255916020019190600101906133a2565b8082111561312757600061350b8282613531565b506001016134f7565b808211156131275760006135288282613531565b50600101613514565b50805461353d906140e8565b6000825580601f1061354d575050565b601f0160209004906000526020600020908101906109f9919061346f565b60006001600160401b038311156135845761358461414e565b613597601f8401601f1916602001613fcc565b90508281528383830111156135ab57600080fd5b828260208301376000602084830101529392505050565b600082601f8301126135d2578081fd5b813560206135e76135e283613ffc565b613fcc565b80838252828201915082860187848660051b8901011115613606578586fd5b855b8581101561362d57813561361b81614164565b84529284019290840190600101613608565b5090979650505050505050565b600082601f83011261364a578081fd5b8135602061365a6135e283613ffc565b80838252828201915082860187848660051b8901011115613679578586fd5b855b8581101561362d5781356001600160401b03811115613698578788fd5b8801603f81018a136136a8578788fd5b6136b98a878301356040840161356b565b855250928401929084019060010161367b565b600082601f8301126136dc578081fd5b813560206136ec6135e283613ffc565b80838252828201915082860187848660051b890101111561370b578586fd5b855b8581101561362d5781356001600160401b0381111561372a578788fd5b6137388a87838c01016137a8565b855250928401929084019060010161370d565b600082601f83011261375b578081fd5b8135602061376b6135e283613ffc565b80838252828201915082860187848660051b890101111561378a578586fd5b855b8581101561362d5781358452928401929084019060010161378c565b600082601f8301126137b8578081fd5b6115fb8383356020850161356b565b803560ff811681146137d857600080fd5b919050565b600080604083850312156137ef578182fd5b82356137fa81614164565b946020939093013593505050565b6000806000806080858703121561381d578182fd5b84356001600160401b0380821115613833578384fd5b61383f888389016135c2565b95506020870135915080821115613854578384fd5b6138608883890161374b565b94506040870135915080821115613875578384fd5b506138828782880161363a565b949793965093946060013593505050565b600080600080608085870312156138a8578182fd5b84356001600160401b03808211156138be578384fd5b6138ca888389016135c2565b955060208701359150808211156138df578384fd5b6138eb8883890161374b565b94506040870135915080821115613900578384fd5b61390c8883890161363a565b93506060870135915080821115613921578283fd5b5061392e878288016137a8565b91505092959194509250565b600080600080600060a08688031215613951578283fd5b85356001600160401b0380821115613967578485fd5b61397389838a016135c2565b96506020880135915080821115613988578485fd5b61399489838a0161374b565b955060408801359150808211156139a9578485fd5b6139b589838a016136cc565b945060608801359150808211156139ca578283fd5b6139d689838a0161363a565b935060808801359150808211156139eb578283fd5b506139f8888289016137a8565b9150509295509295909350565b600060208284031215613a16578081fd5b815180151581146115fb578182fd5b600060208284031215613a36578081fd5b5051919050565b600060208284031215613a4e578081fd5b81356001600160e01b0319811681146115fb578182fd5b600060208284031215613a76578081fd5b81356115fb81614164565b600060208284031215613a92578081fd5b5035919050565b60008060408385031215613aab578182fd5b823591506020830135613abd81614164565b809150509250929050565b60008060408385031215613ada578182fd5b82359150613aea602084016137c7565b90509250929050565b60008060008060608587031215613b08578182fd5b84359350613b18602086016137c7565b925060408501356001600160401b0380821115613b33578384fd5b818701915087601f830112613b46578384fd5b813581811115613b54578485fd5b886020828501011115613b65578485fd5b95989497505060200194505050565b600080600080600060a08688031215613b8b578283fd5b85359450613b9b602087016137c7565b9350613ba9604087016137c7565b94979396509394606081013594506080013592915050565b6000815180845260208085019450808401835b83811015613bf95781516001600160a01b031687529582019590820190600101613bd4565b509495945050505050565b600081518084526020808501808196508360051b81019150828601855b85811015613c4b578284038952613c39848351613c87565b98850198935090840190600101613c21565b5091979650505050505050565b6000815180845260208085019450808401835b83811015613bf957815187529582019590820190600101613c6b565b60008151808452613c9f8160208601602086016140b8565b601f01601f19169290920160200192915050565b60008251613cc58184602087016140b8565b9190910192915050565b608081526000613ce26080830187613bc1565b8281036020840152613cf48187613c58565b90508281036040840152613d088186613c04565b91505082606083015295945050505050565b60a081526000613d2d60a0830188613bc1565b8281036020840152613d3f8188613c58565b90508281036040840152613d538187613c04565b60608401959095525050608001529392505050565b60c081526000613d7b60c0830189613bc1565b8281036020840152613d8d8189613c58565b90508281036040840152613da18188613c04565b60608401969096525050608081019290925260a0909101529392505050565b608081526000613dd36080830187613bc1565b8281036020840152613de58187613c58565b90508281036040840152613df98186613c04565b905082810360608401526111168185613c04565b6020815260006115fb6020830184613c87565b6020810160088310613e4257634e487b7160e01b600052602160045260246000fd5b91905290565b60208082526018908201527f476f7665726e6f723a206f6e6c79476f7665726e616e63650000000000000000604082015260600190565b60208082526021908201527f476f7665726e6f723a20696e76616c69642070726f706f73616c206c656e67746040820152600d60fb1b606082015260800190565b60208082526021908201527f476f7665726e6f723a2070726f706f73616c206e6f74207375636365737366756040820152601b60fa1b606082015260800190565b8981526001600160a01b038916602082015261012060408201819052600090613f2c8382018b613bc1565b90508281036060840152613f40818a613c58565b90508281036080840152613f548189613c04565b905082810360a0840152613f688188613c04565b6001600160401b0387811660c0860152861660e08501528381036101008501529050613f948185613c87565b9c9b505050505050505050505050565b84815260ff841660208201528260408201526080606082015260006114f66080830184613c87565b604051601f8201601f191681016001600160401b0381118282101715613ff457613ff461414e565b604052919050565b60006001600160401b038211156140155761401561414e565b5060051b60200190565b6000821982111561403257614032614138565b500190565b60006001600160401b0380831681851680830382111561405957614059614138565b01949350505050565b60008261407d57634e487b7160e01b81526012600452602481fd5b500490565b600081600019048311821515161561409c5761409c614138565b500290565b6000828210156140b3576140b3614138565b500390565b60005b838110156140d35781810151838201526020016140bb565b838111156140e2576000848401525b50505050565b600181811c908216806140fc57607f821691505b60208210811415612d1e57634e487b7160e01b600052602260045260246000fd5b600060001982141561413157614131614138565b5060010190565b634e487b7160e01b600052601160045260246000fd5b634e487b7160e01b600052604160045260246000fd5b6001600160a01b03811681146109f957600080fdfea2646970667358221220dace2d81cfeb551af10f0481bd0975b6c1d2701d2f40d0faa5b3f8518b5e14e464736f6c63430008040033",
  "linkReferences": {},
  "deployedLinkReferences": {}
}