{
  "_format": "hh-sol-artifact-1",
  "contractName": "LPool",
  "sourceName": "contracts/LPool.sol",
  "abi": [
    {
      "inputs": [
        {
          "internalType": "uint256",
          "name": "periodLength_",
          "type": "uint256"
        },
        {
          "internalType": "uint256",
          "name": "cooldownLength_",
          "type": "uint256"
        },
        {
          "internalType": "uint256",
          "name": "taxPercent_",
          "type": "uint256"
        },
        {
          "internalType": "contract Margin",
          "name": "margin_",
          "type": "address"
        }
      ],
      "stateMutability": "nonpayable",
      "type": "constructor"
    },
    {
      "anonymous": false,
      "inputs": [
        {
          "indexed": true,
          "internalType": "address",
          "name": "account",
          "type": "address"
        },
        {
          "indexed": true,
          "internalType": "uint256",
          "name": "periodId",
          "type": "uint256"
        },
        {
          "indexed": false,
          "internalType": "contract IERC20",
          "name": "token",
          "type": "address"
        },
        {
          "indexed": false,
          "internalType": "uint256",
          "name": "amount",
          "type": "uint256"
        }
      ],
      "name": "Deposit",
      "type": "event"
    },
    {
      "anonymous": false,
      "inputs": [
        {
          "indexed": true,
          "internalType": "address",
          "name": "previousOwner",
          "type": "address"
        },
        {
          "indexed": true,
          "internalType": "address",
          "name": "newOwner",
          "type": "address"
        }
      ],
      "name": "OwnershipTransferred",
      "type": "event"
    },
    {
      "anonymous": false,
      "inputs": [
        {
          "indexed": true,
          "internalType": "address",
          "name": "account",
          "type": "address"
        },
        {
          "indexed": true,
          "internalType": "uint256",
          "name": "periodId",
          "type": "uint256"
        },
        {
          "indexed": false,
          "internalType": "contract IERC20",
          "name": "token",
          "type": "address"
        },
        {
          "indexed": false,
          "internalType": "uint256",
          "name": "amount",
          "type": "uint256"
        },
        {
          "indexed": false,
          "internalType": "uint256",
          "name": "liquidity",
          "type": "uint256"
        }
      ],
      "name": "Redeem",
      "type": "event"
    },
    {
      "anonymous": false,
      "inputs": [
        {
          "indexed": true,
          "internalType": "address",
          "name": "account",
          "type": "address"
        },
        {
          "indexed": true,
          "internalType": "uint256",
          "name": "periodId",
          "type": "uint256"
        },
        {
          "indexed": false,
          "internalType": "contract IERC20",
          "name": "token",
          "type": "address"
        },
        {
          "indexed": false,
          "internalType": "uint256",
          "name": "amount",
          "type": "uint256"
        }
      ],
      "name": "Stake",
      "type": "event"
    },
    {
      "anonymous": false,
      "inputs": [
        {
          "indexed": true,
          "internalType": "address",
          "name": "account",
          "type": "address"
        },
        {
          "indexed": true,
          "internalType": "uint256",
          "name": "periodId",
          "type": "uint256"
        },
        {
          "indexed": false,
          "internalType": "contract IERC20",
          "name": "token",
          "type": "address"
        },
        {
          "indexed": false,
          "internalType": "uint256",
          "name": "amount",
          "type": "uint256"
        }
      ],
      "name": "Withdraw",
      "type": "event"
    },
    {
      "inputs": [
        {
          "internalType": "contract IERC20",
          "name": "_token",
          "type": "address"
        }
      ],
      "name": "approveToken",
      "outputs": [],
      "stateMutability": "nonpayable",
      "type": "function"
    },
    {
      "inputs": [],
      "name": "approvedList",
      "outputs": [
        {
          "internalType": "contract IERC20[]",
          "name": "",
          "type": "address[]"
        }
      ],
      "stateMutability": "view",
      "type": "function"
    },
    {
      "inputs": [
        {
          "internalType": "address",
          "name": "_account",
          "type": "address"
        },
        {
          "internalType": "contract IERC20",
          "name": "_token",
          "type": "address"
        },
        {
          "internalType": "uint256",
          "name": "_periodId",
          "type": "uint256"
        }
      ],
      "name": "balanceOf",
      "outputs": [
        {
          "internalType": "uint256",
          "name": "",
          "type": "uint256"
        }
      ],
      "stateMutability": "view",
      "type": "function"
    },
    {
      "inputs": [],
      "name": "cooldownLength",
      "outputs": [
        {
          "internalType": "uint256",
          "name": "",
          "type": "uint256"
        }
      ],
      "stateMutability": "view",
      "type": "function"
    },
    {
      "inputs": [],
      "name": "currentPeriodId",
      "outputs": [
        {
          "internalType": "uint256",
          "name": "",
          "type": "uint256"
        }
      ],
      "stateMutability": "view",
      "type": "function"
    },
    {
      "inputs": [
        {
          "internalType": "contract IERC20",
          "name": "_token",
          "type": "address"
        },
        {
          "internalType": "uint256",
          "name": "_amount",
          "type": "uint256"
        }
      ],
      "name": "deposit",
      "outputs": [],
      "stateMutability": "nonpayable",
      "type": "function"
    },
    {
      "inputs": [
        {
          "internalType": "uint256",
          "name": "_periodId",
          "type": "uint256"
        }
      ],
      "name": "epilogueTimes",
      "outputs": [
        {
          "internalType": "uint256",
          "name": "",
          "type": "uint256"
        },
        {
          "internalType": "uint256",
          "name": "",
          "type": "uint256"
        }
      ],
      "stateMutability": "view",
      "type": "function"
    },
    {
      "inputs": [
        {
          "internalType": "contract IERC20",
          "name": "_token",
          "type": "address"
        }
      ],
      "name": "isApproved",
      "outputs": [
        {
          "internalType": "bool",
          "name": "",
          "type": "bool"
        }
      ],
      "stateMutability": "view",
      "type": "function"
    },
    {
      "inputs": [
        {
          "internalType": "uint256",
          "name": "_periodId",
          "type": "uint256"
        }
      ],
      "name": "isCurrentPeriod",
      "outputs": [
        {
          "internalType": "bool",
          "name": "",
          "type": "bool"
        }
      ],
      "stateMutability": "view",
      "type": "function"
    },
    {
      "inputs": [
        {
          "internalType": "uint256",
          "name": "_periodId",
          "type": "uint256"
        }
      ],
      "name": "isEpilogue",
      "outputs": [
        {
          "internalType": "bool",
          "name": "",
          "type": "bool"
        }
      ],
      "stateMutability": "view",
      "type": "function"
    },
    {
      "inputs": [
        {
          "internalType": "uint256",
          "name": "_periodId",
          "type": "uint256"
        }
      ],
      "name": "isPrologue",
      "outputs": [
        {
          "internalType": "bool",
          "name": "",
          "type": "bool"
        }
      ],
      "stateMutability": "view",
      "type": "function"
    },
    {
      "inputs": [
        {
          "internalType": "contract IERC20",
          "name": "_token",
          "type": "address"
        },
        {
          "internalType": "uint256",
          "name": "_periodId",
          "type": "uint256"
        }
      ],
      "name": "liquidity",
      "outputs": [
        {
          "internalType": "uint256",
          "name": "",
          "type": "uint256"
        }
      ],
      "stateMutability": "view",
      "type": "function"
    },
    {
      "inputs": [],
      "name": "margin",
      "outputs": [
        {
          "internalType": "contract Margin",
          "name": "",
          "type": "address"
        }
      ],
      "stateMutability": "view",
      "type": "function"
    },
    {
      "inputs": [],
      "name": "owner",
      "outputs": [
        {
          "internalType": "address",
          "name": "",
          "type": "address"
        }
      ],
      "stateMutability": "view",
      "type": "function"
    },
    {
      "inputs": [],
      "name": "periodLength",
      "outputs": [
        {
          "internalType": "uint256",
          "name": "",
          "type": "uint256"
        }
      ],
      "stateMutability": "view",
      "type": "function"
    },
    {
      "inputs": [
        {
          "internalType": "uint256",
          "name": "_periodId",
          "type": "uint256"
        }
      ],
      "name": "prologueTimes",
      "outputs": [
        {
          "internalType": "uint256",
          "name": "",
          "type": "uint256"
        },
        {
          "internalType": "uint256",
          "name": "",
          "type": "uint256"
        }
      ],
      "stateMutability": "view",
      "type": "function"
    },
    {
      "inputs": [
        {
          "internalType": "contract IERC20",
          "name": "_token",
          "type": "address"
        },
        {
          "internalType": "uint256",
          "name": "_amount",
          "type": "uint256"
        },
        {
          "internalType": "uint256",
          "name": "_periodId",
          "type": "uint256"
        }
      ],
      "name": "redeem",
      "outputs": [],
      "stateMutability": "nonpayable",
      "type": "function"
    },
    {
      "inputs": [
        {
          "internalType": "contract IERC20",
          "name": "_token",
          "type": "address"
        },
        {
          "internalType": "uint256",
          "name": "_amount",
          "type": "uint256"
        },
        {
          "internalType": "uint256",
          "name": "_periodId",
          "type": "uint256"
        }
      ],
      "name": "redeemValue",
      "outputs": [
        {
          "internalType": "uint256",
          "name": "",
          "type": "uint256"
        }
      ],
      "stateMutability": "view",
      "type": "function"
    },
    {
      "inputs": [],
      "name": "renounceOwnership",
      "outputs": [],
      "stateMutability": "nonpayable",
      "type": "function"
    },
    {
      "inputs": [
        {
          "internalType": "uint256",
          "name": "_taxPercent",
          "type": "uint256"
        }
      ],
      "name": "setTaxPercentage",
      "outputs": [],
      "stateMutability": "nonpayable",
      "type": "function"
    },
    {
      "inputs": [
        {
          "internalType": "contract IERC20",
          "name": "_token",
          "type": "address"
        },
        {
          "internalType": "uint256",
          "name": "_amount",
          "type": "uint256"
        },
        {
          "internalType": "uint256",
          "name": "_periodId",
          "type": "uint256"
        }
      ],
      "name": "stake",
      "outputs": [],
      "stateMutability": "nonpayable",
      "type": "function"
    },
    {
      "inputs": [],
      "name": "taxPercent",
      "outputs": [
        {
          "internalType": "uint256",
          "name": "",
          "type": "uint256"
        }
      ],
      "stateMutability": "view",
      "type": "function"
    },
    {
      "inputs": [
        {
          "internalType": "address",
          "name": "newOwner",
          "type": "address"
        }
      ],
      "name": "transferOwnership",
      "outputs": [],
      "stateMutability": "nonpayable",
      "type": "function"
    },
    {
      "inputs": [
        {
          "internalType": "contract IERC20",
          "name": "_token",
          "type": "address"
        },
        {
          "internalType": "uint256",
          "name": "_amount",
          "type": "uint256"
        }
      ],
      "name": "withdraw",
      "outputs": [],
      "stateMutability": "nonpayable",
      "type": "function"
    }
  ],
  "bytecode": "0x60e060405234801561001057600080fd5b5060405161174e38038061174e83398101604081905261002f916100ac565b6100383361005c565b60a09390935260c09190915260045560601b6001600160601b0319166080526100f9565b600080546001600160a01b038381166001600160a01b0319831681178455604051919092169283917f8be0079c531659141344cd1fd0a4f28419497f9722a3daafe3b4186f6b6457e09190a35050565b600080600080608085870312156100c1578384fd5b845160208601516040870151606088015192965090945092506001600160a01b03811681146100ee578182fd5b939692955090935050565b60805160601c60a05160c0516115f9610155600039600081816102e401528181610a2d0152610c9401526000818161030b015281816109ff01528181610b540152610c660152600081816102b50152610dc201526115f96000f3fe608060405234801561001057600080fd5b50600436106101585760003560e01c80638da5cb5b116100c3578063d78cd8231161007c578063d78cd82314610340578063d865a70e14610353578063e007b26614610368578063e93119d91461037b578063f2fde38b1461038e578063f3fef3a3146103a157600080fd5b80638da5cb5b1461028b5780638f76691a146102b0578063988e6595146102d7578063b3ace4ec146102df578063d2ca211514610306578063d55584db1461032d57600080fd5b80637042f20b116101155780637042f20b146101e6578063715018a6146101f95780637541f41c146102015780637b8c6ebf1461021857806380b2edd814610240578063858e5b5f1461025357600080fd5b806301f4fbb21461015d5780630c51b88f146101855780632b83cccd1461019a57806347e7ef24146101ad578063673448dd146101c0578063699abb3c146101d3575b600080fd5b61017061016b3660046113e0565b6103b4565b60405190151581526020015b60405180910390f35b6101986101933660046113ac565b6103e0565b005b6101986101a83660046113ac565b6105eb565b6101986101bb366004611381565b6107ce565b6101706101ce366004611305565b610955565b6101986101e13660046113e0565b610973565b6101706101f43660046113e0565b6109a2565b6101986109b0565b61020a60045481565b60405190815260200161017c565b61022b6102263660046113e0565b6109e6565b6040805192835260208301919091520161017c565b61019861024e366004611305565b610a5d565b61020a610261366004611381565b60009081526003602090815260408083206001600160a01b03949094168352929052206001015490565b6000546001600160a01b03165b6040516001600160a01b03909116815260200161017c565b6102987f000000000000000000000000000000000000000000000000000000000000000081565b61020a610b4c565b61020a7f000000000000000000000000000000000000000000000000000000000000000081565b61020a7f000000000000000000000000000000000000000000000000000000000000000081565b61017061033b3660046113e0565b610b7d565b61020a61034e3660046113ac565b610b8f565b61035b610bfa565b60405161017c9190611414565b61022b6103763660046113e0565b610c5c565b61020a610389366004611321565b610cc4565b61019861039c366004611305565b610cfe565b6101986103af366004611381565b610d99565b60008060006103c284610c5c565b9092509050428281108015906103d757508181105b95945050505050565b826103ea81610955565b61040f5760405162461bcd60e51b8152600401610406906114c9565b60405180910390fd5b610417610b4c565b82101561047c5760405162461bcd60e51b815260206004820152602d60248201527f4d6179206f6e6c79207374616b6520696e746f2063757272656e74206f72206660448201526c757475726520706572696f647360981b6064820152608401610406565b610485826103b4565b80610496575061049482610b7d565b155b61051a5760405162461bcd60e51b815260206004820152604960248201527f5374616b696e67206973206f6e6c7920616c6c6f77656420647572696e67207460448201527f68652070726f6c6f67756520706572696f64206f7220666f72206120667574756064820152681c99481c195c9a5bd960ba1b608482015260a401610406565b61052f6001600160a01b038516333086610f95565b60008281526003602090815260408083206001600160a01b0388168452825280832033845260028101909252909120546105699085611006565b336000908152600283016020526040902055600181015461058a9085611006565b6001820155805461059b9085611006565b8155604080516001600160a01b038716815260208101869052849133917f1bd1eb6b4fd3f08e718d7a241c54c4641c9f36004b6949383f48d15a2fcc8f5291015b60405180910390a35050505050565b6105f4816103b4565b80610605575061060381610b7d565b155b6106865760405162461bcd60e51b815260206004820152604660248201527f52656465656d206973206f6e6c7920616c6c6f77656420647572696e6720707260448201527f6f6c6f67756520706572696f64206f72206f6e636520706572696f642068617360648201526508195b99195960d21b608482015260a401610406565b610691338483610cc4565b8211156106ee5760405162461bcd60e51b815260206004820152602560248201527f43616e6e6f742072656465656d206d6f7265207468616e20746f74616c2062616044820152646c616e636560d81b6064820152608401610406565b60008181526003602090815260408083206001600160a01b038716845290915281209061071c858585610b8f565b33600090815260028401602052604090205490915061073b9085611012565b33600090815260028401602052604090205581546107599085611012565b8255600182015461076a9082611012565b60018301556107836001600160a01b038616338361101e565b604080516001600160a01b038716815260208101869052908101829052839033907f2c9958d57e9c0c9f740c07c5576329da445545e857c6b82061735c8fd787eec7906060016105dc565b816107d881610955565b6107f45760405162461bcd60e51b8152600401610406906114c9565b60006107fe610b4c565b9050610809816103b4565b156108565760405162461bcd60e51b815260206004820152601e60248201527f43616e6e6f74206465706f73697420647572696e672070726f6c6f67756500006044820152606401610406565b6000839050600061087d60646108776004548861105390919063ffffffff16565b9061105f565b90506108898282611012565b91506108ad336000546001600160a01b03166001600160a01b038916919084610f95565b506108c36001600160a01b038616333084610f95565b60008281526003602090815260408083206001600160a01b03891684529091529020600101546108f39082611006565b60008381526003602090815260408083206001600160a01b038a16808552908352928190206001019390935582519182528101839052839133917fd2f8022f659fd9c8c558f30c00fd5ee7038f7cb56da45095c3e0e7d48b3e0c4b91016105dc565b6001600160a01b031660009081526002602052604090205460ff1690565b6000546001600160a01b0316331461099d5760405162461bcd60e51b815260040161040690611494565b600455565b60008060006103c2846109e6565b6000546001600160a01b031633146109da5760405162461bcd60e51b815260040161040690611494565b6109e4600061106b565b565b600080806109f5846001611006565b90506000610a23827f0000000000000000000000000000000000000000000000000000000000000000611053565b90506000610a51827f0000000000000000000000000000000000000000000000000000000000000000611012565b96919550909350505050565b6000546001600160a01b03163314610a875760405162461bcd60e51b815260040161040690611494565b610a9081610955565b15610ae95760405162461bcd60e51b8152602060048201526024808201527f5468697320746f6b656e2068617320616c7265616479206265656e20617070726044820152631bdd995960e21b6064820152608401610406565b6001600160a01b03166000818152600260205260408120805460ff191660019081179091558054808201825591527fb10e2d527612073b26eecdfd717e6a320cf44b4afac2b0732d9fcbe2b7fa0cf60180546001600160a01b0319169091179055565b6000610b78427f000000000000000000000000000000000000000000000000000000000000000061105f565b905090565b6000610b87610b4c565b909114919050565b600083610b9b81610955565b610bb75760405162461bcd60e51b8152600401610406906114c9565b60008381526003602090815260408083206001600160a01b0389168452909152902080546001820154610bf09190610877908890611053565b9695505050505050565b60606001805480602002602001604051908101604052809291908181526020018280548015610c5257602002820191906000526020600020905b81546001600160a01b03168152600190910190602001808311610c34575b5050505050905090565b60008080610c8a847f0000000000000000000000000000000000000000000000000000000000000000611053565b90506000610cb8827f0000000000000000000000000000000000000000000000000000000000000000611006565b91959194509092505050565b60008181526003602090815260408083206001600160a01b03808716855290835281842090871684526002019091529020545b9392505050565b6000546001600160a01b03163314610d285760405162461bcd60e51b815260040161040690611494565b6001600160a01b038116610d8d5760405162461bcd60e51b815260206004820152602660248201527f4f776e61626c653a206e6577206f776e657220697320746865207a65726f206160448201526564647265737360d01b6064820152608401610406565b610d968161106b565b50565b81610da381610955565b610dbf5760405162461bcd60e51b8152600401610406906114c9565b337f00000000000000000000000000000000000000000000000000000000000000006001600160a01b031614610e465760405162461bcd60e51b815260206004820152602660248201527f4f6e6c7920746865206d617267696e206d61792063616c6c20746869732066756044820152653731ba34b7b760d11b6064820152608401610406565b6000610e50610b4c565b9050610e5b816103b4565b15610ea85760405162461bcd60e51b815260206004820152601f60248201527f43616e6e6f7420776974686472617720647572696e672070726f6c6f677565006044820152606401610406565b60008181526003602090815260408083206001600160a01b038816845290915290206001810154841115610f2a5760405162461bcd60e51b8152602060048201526024808201527f43616e6e6f74207769746864726177206d6f7265207468616e2076616c7565206044820152631c1bdbdb60e21b6064820152608401610406565b6001810154610f399085611012565b6001820155610f526001600160a01b038616338661101e565b604080516001600160a01b038716815260208101869052839133917f457f950b75085c30ff780acd57bde642ff1316cc4aad9f286af2c1ffc4163a7891016105dc565b6040516001600160a01b03808516602483015283166044820152606481018290526110009085906323b872dd60e01b906084015b60408051601f198184030181529190526020810180516001600160e01b03166001600160e01b0319909316929092179091526110bb565b50505050565b6000610cf782846114fe565b6000610cf78284611555565b6040516001600160a01b03831660248201526044810182905261104e90849063a9059cbb60e01b90606401610fc9565b505050565b6000610cf78284611536565b6000610cf78284611516565b600080546001600160a01b038381166001600160a01b0319831681178455604051919092169283917f8be0079c531659141344cd1fd0a4f28419497f9722a3daafe3b4186f6b6457e09190a35050565b6000611110826040518060400160405280602081526020017f5361666545524332303a206c6f772d6c6576656c2063616c6c206661696c6564815250856001600160a01b031661118d9092919063ffffffff16565b80519091501561104e578080602001905181019061112e9190611361565b61104e5760405162461bcd60e51b815260206004820152602a60248201527f5361666545524332303a204552433230206f7065726174696f6e20646964206e6044820152691bdd081cdd58d8d9595960b21b6064820152608401610406565b606061119c84846000856111a4565b949350505050565b6060824710156112055760405162461bcd60e51b815260206004820152602660248201527f416464726573733a20696e73756666696369656e742062616c616e636520666f6044820152651c8818d85b1b60d21b6064820152608401610406565b843b6112535760405162461bcd60e51b815260206004820152601d60248201527f416464726573733a2063616c6c20746f206e6f6e2d636f6e74726163740000006044820152606401610406565b600080866001600160a01b0316858760405161126f91906113f8565b60006040518083038185875af1925050503d80600081146112ac576040519150601f19603f3d011682016040523d82523d6000602084013e6112b1565b606091505b50915091506112c18282866112cc565b979650505050505050565b606083156112db575081610cf7565b8251156112eb5782518084602001fd5b8160405162461bcd60e51b81526004016104069190611461565b600060208284031215611316578081fd5b8135610cf7816115ae565b600080600060608486031215611335578182fd5b8335611340816115ae565b92506020840135611350816115ae565b929592945050506040919091013590565b600060208284031215611372578081fd5b81518015158114610cf7578182fd5b60008060408385031215611393578182fd5b823561139e816115ae565b946020939093013593505050565b6000806000606084860312156113c0578283fd5b83356113cb816115ae565b95602085013595506040909401359392505050565b6000602082840312156113f1578081fd5b5035919050565b6000825161140a81846020870161156c565b9190910192915050565b6020808252825182820181905260009190848201906040850190845b818110156114555783516001600160a01b031683529284019291840191600101611430565b50909695505050505050565b602081526000825180602084015261148081604085016020870161156c565b601f01601f19169190910160400192915050565b6020808252818101527f4f776e61626c653a2063616c6c6572206973206e6f7420746865206f776e6572604082015260600190565b6020808252818101527f5468697320746f6b656e20686173206e6f74206265656e20617070726f766564604082015260600190565b6000821982111561151157611511611598565b500190565b60008261153157634e487b7160e01b81526012600452602481fd5b500490565b600081600019048311821515161561155057611550611598565b500290565b60008282101561156757611567611598565b500390565b60005b8381101561158757818101518382015260200161156f565b838111156110005750506000910152565b634e487b7160e01b600052601160045260246000fd5b6001600160a01b0381168114610d9657600080fdfea2646970667358221220b66f95fcfe3e45915034c316ead0c4fc150717c08b2c77e5f8596ab36f4b0e7464736f6c63430008040033",
  "linkReferences": {},
  "deployedLinkReferences": {}
}