{
  "_format": "hh-sol-artifact-1",
  "contractName": "LPool",
  "sourceName": "contracts/LPool/LPool.sol",
  "abi": [
    {
      "inputs": [
        {
          "internalType": "uint256",
          "name": "taxPercentNumerator_",
          "type": "uint256"
        },
        {
          "internalType": "uint256",
          "name": "taxPercentDenominator_",
          "type": "uint256"
        },
        {
          "internalType": "uint256",
          "name": "blocksPerCompound_",
          "type": "uint256"
        }
      ],
      "stateMutability": "nonpayable",
      "type": "constructor"
    },
    {
      "anonymous": false,
      "inputs": [
        {
          "indexed": false,
          "internalType": "contract IERC20",
          "name": "token",
          "type": "address"
        },
        {
          "indexed": false,
          "internalType": "contract IERC20",
          "name": "LPToken",
          "type": "address"
        }
      ],
      "name": "Approved",
      "type": "event"
    },
    {
      "anonymous": false,
      "inputs": [
        {
          "indexed": true,
          "internalType": "address",
          "name": "account",
          "type": "address"
        },
        {
          "indexed": false,
          "internalType": "contract IERC20",
          "name": "token",
          "type": "address"
        },
        {
          "indexed": false,
          "internalType": "uint256",
          "name": "amount",
          "type": "uint256"
        }
      ],
      "name": "Claim",
      "type": "event"
    },
    {
      "anonymous": false,
      "inputs": [
        {
          "indexed": true,
          "internalType": "address",
          "name": "account",
          "type": "address"
        },
        {
          "indexed": false,
          "internalType": "contract IERC20",
          "name": "token",
          "type": "address"
        },
        {
          "indexed": false,
          "internalType": "uint256",
          "name": "amount",
          "type": "uint256"
        },
        {
          "indexed": false,
          "internalType": "uint256",
          "name": "totalTax",
          "type": "uint256"
        },
        {
          "indexed": false,
          "internalType": "address[]",
          "name": "taxAccount",
          "type": "address[]"
        }
      ],
      "name": "Deposit",
      "type": "event"
    },
    {
      "anonymous": false,
      "inputs": [
        {
          "indexed": true,
          "internalType": "address",
          "name": "account",
          "type": "address"
        },
        {
          "indexed": false,
          "internalType": "contract IERC20",
          "name": "token",
          "type": "address"
        },
        {
          "indexed": false,
          "internalType": "uint256",
          "name": "amount",
          "type": "uint256"
        }
      ],
      "name": "Loaned",
      "type": "event"
    },
    {
      "anonymous": false,
      "inputs": [
        {
          "indexed": true,
          "internalType": "address",
          "name": "account",
          "type": "address"
        },
        {
          "indexed": false,
          "internalType": "contract IERC20",
          "name": "token",
          "type": "address"
        },
        {
          "indexed": false,
          "internalType": "uint256",
          "name": "amount",
          "type": "uint256"
        },
        {
          "indexed": false,
          "internalType": "uint256",
          "name": "value",
          "type": "uint256"
        }
      ],
      "name": "Redeem",
      "type": "event"
    },
    {
      "anonymous": false,
      "inputs": [
        {
          "indexed": true,
          "internalType": "address",
          "name": "account",
          "type": "address"
        },
        {
          "indexed": false,
          "internalType": "contract IERC20",
          "name": "token",
          "type": "address"
        },
        {
          "indexed": false,
          "internalType": "uint256",
          "name": "amount",
          "type": "uint256"
        }
      ],
      "name": "Repay",
      "type": "event"
    },
    {
      "anonymous": false,
      "inputs": [
        {
          "indexed": true,
          "internalType": "bytes32",
          "name": "role",
          "type": "bytes32"
        },
        {
          "indexed": true,
          "internalType": "bytes32",
          "name": "previousAdminRole",
          "type": "bytes32"
        },
        {
          "indexed": true,
          "internalType": "bytes32",
          "name": "newAdminRole",
          "type": "bytes32"
        }
      ],
      "name": "RoleAdminChanged",
      "type": "event"
    },
    {
      "anonymous": false,
      "inputs": [
        {
          "indexed": true,
          "internalType": "bytes32",
          "name": "role",
          "type": "bytes32"
        },
        {
          "indexed": true,
          "internalType": "address",
          "name": "account",
          "type": "address"
        },
        {
          "indexed": true,
          "internalType": "address",
          "name": "sender",
          "type": "address"
        }
      ],
      "name": "RoleGranted",
      "type": "event"
    },
    {
      "anonymous": false,
      "inputs": [
        {
          "indexed": true,
          "internalType": "bytes32",
          "name": "role",
          "type": "bytes32"
        },
        {
          "indexed": true,
          "internalType": "address",
          "name": "account",
          "type": "address"
        },
        {
          "indexed": true,
          "internalType": "address",
          "name": "sender",
          "type": "address"
        }
      ],
      "name": "RoleRevoked",
      "type": "event"
    },
    {
      "anonymous": false,
      "inputs": [
        {
          "indexed": true,
          "internalType": "address",
          "name": "account",
          "type": "address"
        },
        {
          "indexed": false,
          "internalType": "contract IERC20",
          "name": "token",
          "type": "address"
        },
        {
          "indexed": false,
          "internalType": "uint256",
          "name": "amount",
          "type": "uint256"
        },
        {
          "indexed": false,
          "internalType": "uint256",
          "name": "value",
          "type": "uint256"
        }
      ],
      "name": "Stake",
      "type": "event"
    },
    {
      "anonymous": false,
      "inputs": [
        {
          "indexed": true,
          "internalType": "address",
          "name": "account",
          "type": "address"
        },
        {
          "indexed": false,
          "internalType": "contract IERC20",
          "name": "token",
          "type": "address"
        },
        {
          "indexed": false,
          "internalType": "uint256",
          "name": "amount",
          "type": "uint256"
        }
      ],
      "name": "Unclaim",
      "type": "event"
    },
    {
      "anonymous": false,
      "inputs": [
        {
          "indexed": true,
          "internalType": "address",
          "name": "account",
          "type": "address"
        },
        {
          "indexed": false,
          "internalType": "contract IERC20",
          "name": "token",
          "type": "address"
        },
        {
          "indexed": false,
          "internalType": "uint256",
          "name": "amount",
          "type": "uint256"
        }
      ],
      "name": "Withdraw",
      "type": "event"
    },
    {
      "inputs": [],
      "name": "DEFAULT_ADMIN_ROLE",
      "outputs": [
        {
          "internalType": "bytes32",
          "name": "",
          "type": "bytes32"
        }
      ],
      "stateMutability": "view",
      "type": "function"
    },
    {
      "inputs": [
        {
          "internalType": "contract IERC20",
          "name": "token_",
          "type": "address"
        }
      ],
      "name": "LPFromPA",
      "outputs": [
        {
          "internalType": "contract IERC20",
          "name": "",
          "type": "address"
        }
      ],
      "stateMutability": "view",
      "type": "function"
    },
    {
      "inputs": [
        {
          "internalType": "contract IERC20",
          "name": "token_",
          "type": "address"
        }
      ],
      "name": "PAFromLP",
      "outputs": [
        {
          "internalType": "contract IERC20",
          "name": "",
          "type": "address"
        }
      ],
      "stateMutability": "view",
      "type": "function"
    },
    {
      "inputs": [],
      "name": "POOL_ADMIN",
      "outputs": [
        {
          "internalType": "bytes32",
          "name": "",
          "type": "bytes32"
        }
      ],
      "stateMutability": "view",
      "type": "function"
    },
    {
      "inputs": [],
      "name": "POOL_APPROVED",
      "outputs": [
        {
          "internalType": "bytes32",
          "name": "",
          "type": "bytes32"
        }
      ],
      "stateMutability": "view",
      "type": "function"
    },
    {
      "inputs": [
        {
          "internalType": "address",
          "name": "account_",
          "type": "address"
        }
      ],
      "name": "addTaxAccount",
      "outputs": [],
      "stateMutability": "nonpayable",
      "type": "function"
    },
    {
      "inputs": [
        {
          "internalType": "contract IERC20[]",
          "name": "token_",
          "type": "address[]"
        },
        {
          "internalType": "string[]",
          "name": "name_",
          "type": "string[]"
        },
        {
          "internalType": "string[]",
          "name": "symbol_",
          "type": "string[]"
        }
      ],
      "name": "approve",
      "outputs": [],
      "stateMutability": "nonpayable",
      "type": "function"
    },
    {
      "inputs": [],
      "name": "blocksPerCompound",
      "outputs": [
        {
          "internalType": "uint256",
          "name": "",
          "type": "uint256"
        }
      ],
      "stateMutability": "view",
      "type": "function"
    },
    {
      "inputs": [
        {
          "internalType": "contract IERC20",
          "name": "token_",
          "type": "address"
        },
        {
          "internalType": "uint256",
          "name": "amount_",
          "type": "uint256"
        }
      ],
      "name": "claim",
      "outputs": [],
      "stateMutability": "nonpayable",
      "type": "function"
    },
    {
      "inputs": [
        {
          "internalType": "contract IERC20",
          "name": "token_",
          "type": "address"
        },
        {
          "internalType": "address",
          "name": "account_",
          "type": "address"
        }
      ],
      "name": "claimed",
      "outputs": [
        {
          "internalType": "uint256",
          "name": "",
          "type": "uint256"
        }
      ],
      "stateMutability": "view",
      "type": "function"
    },
    {
      "inputs": [
        {
          "internalType": "contract IERC20",
          "name": "token_",
          "type": "address"
        },
        {
          "internalType": "uint256",
          "name": "amount_",
          "type": "uint256"
        }
      ],
      "name": "deposit",
      "outputs": [],
      "stateMutability": "nonpayable",
      "type": "function"
    },
    {
      "inputs": [
        {
          "internalType": "bytes32",
          "name": "role",
          "type": "bytes32"
        }
      ],
      "name": "getRoleAdmin",
      "outputs": [
        {
          "internalType": "bytes32",
          "name": "",
          "type": "bytes32"
        }
      ],
      "stateMutability": "view",
      "type": "function"
    },
    {
      "inputs": [
        {
          "internalType": "bytes32",
          "name": "role",
          "type": "bytes32"
        },
        {
          "internalType": "address",
          "name": "account",
          "type": "address"
        }
      ],
      "name": "grantRole",
      "outputs": [],
      "stateMutability": "nonpayable",
      "type": "function"
    },
    {
      "inputs": [
        {
          "internalType": "bytes32",
          "name": "role",
          "type": "bytes32"
        },
        {
          "internalType": "address",
          "name": "account",
          "type": "address"
        }
      ],
      "name": "hasRole",
      "outputs": [
        {
          "internalType": "bool",
          "name": "",
          "type": "bool"
        }
      ],
      "stateMutability": "view",
      "type": "function"
    },
    {
      "inputs": [
        {
          "internalType": "contract IERC20",
          "name": "token_",
          "type": "address"
        },
        {
          "internalType": "uint256",
          "name": "initialBorrow_",
          "type": "uint256"
        },
        {
          "internalType": "uint256",
          "name": "borrowBlock_",
          "type": "uint256"
        }
      ],
      "name": "interest",
      "outputs": [
        {
          "internalType": "uint256",
          "name": "",
          "type": "uint256"
        }
      ],
      "stateMutability": "view",
      "type": "function"
    },
    {
      "inputs": [
        {
          "internalType": "contract IERC20",
          "name": "token_",
          "type": "address"
        }
      ],
      "name": "interestRate",
      "outputs": [
        {
          "internalType": "uint256",
          "name": "",
          "type": "uint256"
        },
        {
          "internalType": "uint256",
          "name": "",
          "type": "uint256"
        }
      ],
      "stateMutability": "view",
      "type": "function"
    },
    {
      "inputs": [
        {
          "internalType": "contract IERC20",
          "name": "token_",
          "type": "address"
        }
      ],
      "name": "isLP",
      "outputs": [
        {
          "internalType": "bool",
          "name": "",
          "type": "bool"
        }
      ],
      "stateMutability": "view",
      "type": "function"
    },
    {
      "inputs": [
        {
          "internalType": "contract IERC20",
          "name": "token_",
          "type": "address"
        }
      ],
      "name": "isPA",
      "outputs": [
        {
          "internalType": "bool",
          "name": "",
          "type": "bool"
        }
      ],
      "stateMutability": "view",
      "type": "function"
    },
    {
      "inputs": [
        {
          "internalType": "contract IERC20",
          "name": "token_",
          "type": "address"
        }
      ],
      "name": "liquidity",
      "outputs": [
        {
          "internalType": "uint256",
          "name": "",
          "type": "uint256"
        }
      ],
      "stateMutability": "view",
      "type": "function"
    },
    {
      "inputs": [
        {
          "internalType": "contract IERC20",
          "name": "token_",
          "type": "address"
        },
        {
          "internalType": "uint256",
          "name": "amount_",
          "type": "uint256"
        }
      ],
      "name": "loan",
      "outputs": [],
      "stateMutability": "nonpayable",
      "type": "function"
    },
    {
      "inputs": [
        {
          "internalType": "contract IERC20",
          "name": "token_",
          "type": "address"
        },
        {
          "internalType": "address",
          "name": "account_",
          "type": "address"
        }
      ],
      "name": "loaned",
      "outputs": [
        {
          "internalType": "uint256",
          "name": "",
          "type": "uint256"
        }
      ],
      "stateMutability": "view",
      "type": "function"
    },
    {
      "inputs": [
        {
          "internalType": "contract IERC20",
          "name": "token_",
          "type": "address"
        }
      ],
      "name": "maxInterestMax",
      "outputs": [
        {
          "internalType": "uint256",
          "name": "",
          "type": "uint256"
        },
        {
          "internalType": "uint256",
          "name": "",
          "type": "uint256"
        }
      ],
      "stateMutability": "view",
      "type": "function"
    },
    {
      "inputs": [
        {
          "internalType": "contract IERC20",
          "name": "token_",
          "type": "address"
        }
      ],
      "name": "maxInterestMin",
      "outputs": [
        {
          "internalType": "uint256",
          "name": "",
          "type": "uint256"
        },
        {
          "internalType": "uint256",
          "name": "",
          "type": "uint256"
        }
      ],
      "stateMutability": "view",
      "type": "function"
    },
    {
      "inputs": [
        {
          "internalType": "contract IERC20",
          "name": "token_",
          "type": "address"
        }
      ],
      "name": "maxUtilization",
      "outputs": [
        {
          "internalType": "uint256",
          "name": "",
          "type": "uint256"
        },
        {
          "internalType": "uint256",
          "name": "",
          "type": "uint256"
        }
      ],
      "stateMutability": "view",
      "type": "function"
    },
    {
      "inputs": [
        {
          "internalType": "contract IERC20",
          "name": "token_",
          "type": "address"
        },
        {
          "internalType": "uint256",
          "name": "amount_",
          "type": "uint256"
        }
      ],
      "name": "redeem",
      "outputs": [
        {
          "internalType": "uint256",
          "name": "",
          "type": "uint256"
        }
      ],
      "stateMutability": "nonpayable",
      "type": "function"
    },
    {
      "inputs": [
        {
          "internalType": "contract IERC20",
          "name": "token_",
          "type": "address"
        },
        {
          "internalType": "uint256",
          "name": "amount_",
          "type": "uint256"
        }
      ],
      "name": "redeemValue",
      "outputs": [
        {
          "internalType": "uint256",
          "name": "",
          "type": "uint256"
        }
      ],
      "stateMutability": "view",
      "type": "function"
    },
    {
      "inputs": [
        {
          "internalType": "address",
          "name": "account_",
          "type": "address"
        }
      ],
      "name": "removeTaxAccount",
      "outputs": [],
      "stateMutability": "nonpayable",
      "type": "function"
    },
    {
      "inputs": [
        {
          "internalType": "bytes32",
          "name": "role",
          "type": "bytes32"
        },
        {
          "internalType": "address",
          "name": "account",
          "type": "address"
        }
      ],
      "name": "renounceRole",
      "outputs": [],
      "stateMutability": "nonpayable",
      "type": "function"
    },
    {
      "inputs": [
        {
          "internalType": "contract IERC20",
          "name": "token_",
          "type": "address"
        },
        {
          "internalType": "uint256",
          "name": "amount_",
          "type": "uint256"
        }
      ],
      "name": "repay",
      "outputs": [],
      "stateMutability": "nonpayable",
      "type": "function"
    },
    {
      "inputs": [
        {
          "internalType": "bytes32",
          "name": "role",
          "type": "bytes32"
        },
        {
          "internalType": "address",
          "name": "account",
          "type": "address"
        }
      ],
      "name": "revokeRole",
      "outputs": [],
      "stateMutability": "nonpayable",
      "type": "function"
    },
    {
      "inputs": [
        {
          "internalType": "uint256",
          "name": "blocksPerCompound_",
          "type": "uint256"
        }
      ],
      "name": "setBlocksPerCompound",
      "outputs": [],
      "stateMutability": "nonpayable",
      "type": "function"
    },
    {
      "inputs": [
        {
          "internalType": "contract IERC20[]",
          "name": "token_",
          "type": "address[]"
        },
        {
          "internalType": "uint256[]",
          "name": "percentNumerator_",
          "type": "uint256[]"
        },
        {
          "internalType": "uint256[]",
          "name": "percentDenominator_",
          "type": "uint256[]"
        }
      ],
      "name": "setMaxInterestMax",
      "outputs": [],
      "stateMutability": "nonpayable",
      "type": "function"
    },
    {
      "inputs": [
        {
          "internalType": "contract IERC20[]",
          "name": "token_",
          "type": "address[]"
        },
        {
          "internalType": "uint256[]",
          "name": "percentNumerator_",
          "type": "uint256[]"
        },
        {
          "internalType": "uint256[]",
          "name": "percentDenominator_",
          "type": "uint256[]"
        }
      ],
      "name": "setMaxInterestMin",
      "outputs": [],
      "stateMutability": "nonpayable",
      "type": "function"
    },
    {
      "inputs": [
        {
          "internalType": "contract IERC20[]",
          "name": "token_",
          "type": "address[]"
        },
        {
          "internalType": "uint256[]",
          "name": "percentNumerator_",
          "type": "uint256[]"
        },
        {
          "internalType": "uint256[]",
          "name": "percentDenominator_",
          "type": "uint256[]"
        }
      ],
      "name": "setMaxUtilization",
      "outputs": [],
      "stateMutability": "nonpayable",
      "type": "function"
    },
    {
      "inputs": [
        {
          "internalType": "uint256",
          "name": "taxPercentNumerator_",
          "type": "uint256"
        },
        {
          "internalType": "uint256",
          "name": "taxPercentDenominator_",
          "type": "uint256"
        }
      ],
      "name": "setTaxPercentage",
      "outputs": [],
      "stateMutability": "nonpayable",
      "type": "function"
    },
    {
      "inputs": [
        {
          "internalType": "contract IERC20",
          "name": "token_",
          "type": "address"
        },
        {
          "internalType": "uint256",
          "name": "amount_",
          "type": "uint256"
        }
      ],
      "name": "stake",
      "outputs": [
        {
          "internalType": "uint256",
          "name": "",
          "type": "uint256"
        }
      ],
      "stateMutability": "nonpayable",
      "type": "function"
    },
    {
      "inputs": [
        {
          "internalType": "contract IERC20",
          "name": "token_",
          "type": "address"
        },
        {
          "internalType": "uint256",
          "name": "amount_",
          "type": "uint256"
        }
      ],
      "name": "stakeValue",
      "outputs": [
        {
          "internalType": "uint256",
          "name": "",
          "type": "uint256"
        }
      ],
      "stateMutability": "view",
      "type": "function"
    },
    {
      "inputs": [
        {
          "internalType": "bytes4",
          "name": "interfaceId",
          "type": "bytes4"
        }
      ],
      "name": "supportsInterface",
      "outputs": [
        {
          "internalType": "bool",
          "name": "",
          "type": "bool"
        }
      ],
      "stateMutability": "view",
      "type": "function"
    },
    {
      "inputs": [],
      "name": "taxPercentage",
      "outputs": [
        {
          "internalType": "uint256",
          "name": "",
          "type": "uint256"
        },
        {
          "internalType": "uint256",
          "name": "",
          "type": "uint256"
        }
      ],
      "stateMutability": "view",
      "type": "function"
    },
    {
      "inputs": [
        {
          "internalType": "contract IERC20",
          "name": "token_",
          "type": "address"
        }
      ],
      "name": "totalClaimed",
      "outputs": [
        {
          "internalType": "uint256",
          "name": "",
          "type": "uint256"
        }
      ],
      "stateMutability": "view",
      "type": "function"
    },
    {
      "inputs": [
        {
          "internalType": "contract IERC20",
          "name": "token_",
          "type": "address"
        }
      ],
      "name": "totalLoaned",
      "outputs": [
        {
          "internalType": "uint256",
          "name": "",
          "type": "uint256"
        }
      ],
      "stateMutability": "view",
      "type": "function"
    },
    {
      "inputs": [
        {
          "internalType": "contract IERC20",
          "name": "token_",
          "type": "address"
        }
      ],
      "name": "tvl",
      "outputs": [
        {
          "internalType": "uint256",
          "name": "",
          "type": "uint256"
        }
      ],
      "stateMutability": "view",
      "type": "function"
    },
    {
      "inputs": [
        {
          "internalType": "contract IERC20",
          "name": "token_",
          "type": "address"
        },
        {
          "internalType": "uint256",
          "name": "amount_",
          "type": "uint256"
        }
      ],
      "name": "unclaim",
      "outputs": [],
      "stateMutability": "nonpayable",
      "type": "function"
    },
    {
      "inputs": [
        {
          "internalType": "contract IERC20",
          "name": "token_",
          "type": "address"
        }
      ],
      "name": "utilizationRate",
      "outputs": [
        {
          "internalType": "uint256",
          "name": "",
          "type": "uint256"
        },
        {
          "internalType": "uint256",
          "name": "",
          "type": "uint256"
        }
      ],
      "stateMutability": "view",
      "type": "function"
    },
    {
      "inputs": [
        {
          "internalType": "contract IERC20",
          "name": "token_",
          "type": "address"
        }
      ],
      "name": "utilized",
      "outputs": [
        {
          "internalType": "uint256",
          "name": "",
          "type": "uint256"
        }
      ],
      "stateMutability": "view",
      "type": "function"
    },
    {
      "inputs": [
        {
          "internalType": "contract IERC20",
          "name": "token_",
          "type": "address"
        },
        {
          "internalType": "uint256",
          "name": "amount_",
          "type": "uint256"
        }
      ],
      "name": "withdraw",
      "outputs": [],
      "stateMutability": "nonpayable",
      "type": "function"
    }
  ],
  "bytecode": "0x60806040523480156200001157600080fd5b506040516200480d3803806200480d8339810160408190526200003491620001aa565b80838362000052600080516020620047ed83398151915280620000be565b6200008d7fe6026b923a18d83f4b6e92786fdd85dc8e02e7647281b0d8831236806acf2a30600080516020620047ed833981519152620000be565b620000a8600080516020620047ed8339815191523362000109565b600791909155600855600d5550620001d8915050565b600082815260208190526040808220600101805490849055905190918391839186917fbd79b86ffe0ab8e8776151514217cd7cacd52c909f66475c3af44e129f0b00ff9190a4505050565b6000828152602081815260408083206001600160a01b038516845290915290205460ff16620001a6576000828152602081815260408083206001600160a01b03851684529091529020805460ff19166001179055620001653390565b6001600160a01b0316816001600160a01b0316837f2f8788117e7eff1d82e926ec794901d17c78024a50270940304540a733656f0d60405160405180910390a45b5050565b600080600060608486031215620001bf578283fd5b8351925060208401519150604084015190509250925092565b61460580620001e86000396000f3fe60806040523480156200001157600080fd5b5060043610620002c15760003560e01c80637b5644601162000179578063ae7b6d1611620000df578063ddd826a51162000092578063ddd826a51462000757578063e75db6161462000783578063ef5d9ae8146200079a578063f2fd9dc214620007c6578063f3fef3a314620007dd578063fe3d576814620007f457600080fd5b8063ae7b6d1614620006d8578063b1e5ce1d14620006e4578063b8c876b114620006fb578063bffe84c21462000712578063d0b9622c1462000729578063d547741f146200074057600080fd5b806393a00daa116200013857806393a00daa146200063f578063a217fddf1462000656578063a2b4fe71146200065f578063aa08ed761462000676578063aad3ec9614620006aa578063adc9772e14620006c157600080fd5b80637b56446014620005975780637c2c69c014620005ae5780637df0f76714620005c55780638695ede314620005f457806391d14854146200062857600080fd5b806322867d78116200022b5780634fc1d7dc11620001de5780634fc1d7dc14620004ce5780636518711d146200050b5780636da8d26214620005225780637594825b1462000539578063766a0b48146200055057806378b09e91146200058057600080fd5b806322867d781462000435578063248a9ca3146200044c57806325ddcd6114620004725780632f2ff15d146200048957806336568abe14620004a057806347e7ef2414620004b757600080fd5b806312e23ac2116200028457806312e23ac21462000376578063147e094814620003c0578063185cc75114620003d95780631e9a695014620003f0578063207b27df146200040757806320f5ad94146200041e57600080fd5b80630104b00414620002c657806301ffc9a714620002f2578063045f1f4f14620003095780630bbd0618146200032f5780630c9cbf0e1462000339575b600080fd5b620002dd620002d736600462002da9565b6200080b565b60405190151581526020015b60405180910390f35b620002dd6200030336600462002f47565b62000829565b62000320600080516020620045b083398151915281565b604051908152602001620002e9565b62000320600d5481565b620003206200034a36600462002f71565b6001600160a01b0380821660009081526005602090815260408083209386168352929052205492915050565b620003aa6200038736600462002da9565b6001600160a01b03166000908152600f6020526040902080546001909101549091565b60408051928352602083019190915201620002e9565b620003d7620003d136600462002efc565b62000861565b005b620003d7620003ea36600462002fa3565b62000883565b620003206200040136600462002fa3565b620009bc565b620003aa6200041836600462002da9565b62000b6f565b620003d76200042f36600462003021565b62000b99565b620003d76200044636600462002fa3565b62000bc1565b620003206200045d36600462002efc565b60009081526020819052604090206001015490565b620003d76200048336600462002da9565b62000d18565b620003d76200049a36600462002f15565b62000d45565b620003d7620004b136600462002f15565b62000d74565b620003d7620004c836600462002fa3565b62000df2565b62000320620004df36600462002f71565b6001600160a01b038082166000908152600b602090815260408083209386168352929052205492915050565b620003d76200051c36600462002e56565b62000f87565b620003206200053336600462002fa3565b62001100565b620003d76200054a36600462002da9565b620011a9565b620005676200056136600462002da9565b620011d2565b6040516001600160a01b039091168152602001620002e9565b620003206200059136600462002fa3565b6200121f565b620003d7620005a836600462002e56565b620012c8565b620003aa620005bf36600462002da9565b6200142c565b620002dd620005d636600462002da9565b6001600160a01b031660009081526002602052604090205460ff1690565b620003aa6200060536600462002da9565b6001600160a01b0316600090815260106020526040902080546001909101549091565b620002dd6200063936600462002f15565b62001500565b620003d76200065036600462002dc8565b62001529565b62000320600081565b620003206000805160206200459083398151915281565b620003aa6200068736600462002da9565b6001600160a01b03166000908152600e6020526040902080546001909101549091565b620003d7620006bb36600462002fa3565b62001860565b62000320620006d236600462002fa3565b620019b1565b600754600854620003aa565b62000567620006f536600462002da9565b62001b37565b620003206200070c36600462002da9565b62001b94565b620003d76200072336600462002fa3565b62001bdc565b620003206200073a36600462002fd1565b62001d43565b620003d76200075136600462002f15565b62001da3565b620003206200076836600462002da9565b6001600160a01b03166000908152600c602052604090205490565b620003206200079436600462002da9565b62001dcd565b62000320620007ab36600462002da9565b6001600160a01b031660009081526006602052604090205490565b620003d7620007d736600462002e56565b62001e74565b620003d7620007ee36600462002fa3565b62001fd8565b620003206200080536600462002da9565b62002099565b6001600160a01b031660009081526001602052604090205460ff1690565b60006001600160e01b03198216637965db0b60e01b14806200085b57506301ffc9a760e01b6001600160e01b03198316145b92915050565b600080516020620045908339815191526200087d8133620020c4565b50600d55565b600080516020620045b08339815191526200089f8133620020c4565b82620008ab816200080b565b620008d35760405162461bcd60e51b8152600401620008ca9062003203565b60405180910390fd5b620008de8462001b94565b831115620009005760405162461bcd60e51b8152600401620008ca90620031b8565b62000918335b6001600160a01b038616908562002133565b6200095483600b6000335b6001600160a01b03908116825260208083019390935260409182016000908120918a16815292529020549062002198565b336000818152600b602090815260408083206001600160a01b038a1680855290835292819020949094558351918252810186905290917fc9d1e37d63367ddb1e7af8bcc8e9f6bbe504db1b5953feceadf5c41eb1b996b491015b60405180910390a250505050565b6001600160a01b038216600090815260026020526040812054839060ff16620009f95760405162461bcd60e51b8152600401620008ca9062003248565b83600062000a078262001b37565b9050600062000a17838762001100565b905062000a248262001b94565b81111562000a895760405162461bcd60e51b815260206004820152602b60248201527f4e6f7420656e6f756768206c697175696469747920746f2072656465656d206160448201526a7420746869732074696d6560a81b6064820152608401620008ca565b6001600160a01b038316639dc29fac336040516001600160e01b031960e084901b1681526001600160a01b03909116600482015260248101899052604401600060405180830381600087803b15801562000ae257600080fd5b505af115801562000af7573d6000803e3d6000fd5b5050505062000b1962000b073390565b6001600160a01b038416908362002133565b604080516001600160a01b038916815260208101889052808201839052905133917f3f693fff038bb8a046aa76d9516190ac7444f7d69cf952c4cbdc086fdef2d6fc919081900360600190a29695505050505050565b600080600062000b7f8462001dcd565b9050600062000b8e8562002099565b959194509092505050565b6000805160206200459083398151915262000bb58133620020c4565b50600791909155600855565b600080516020620045b083398151915262000bdd8133620020c4565b8262000be9816200080b565b62000c085760405162461bcd60e51b8152600401620008ca9062003203565b62000c1f6001600160a01b038516333086620021a6565b336000908152600b602090815260408083206001600160a01b038816845290915290205483111562000c7557336000908152600b602090815260408083206001600160a01b038816845290915281205562000cd6565b62000cb183600b6000335b6001600160a01b03908116825260208083019390935260409182016000908120918a168152925290205490620021e6565b336000908152600b602090815260408083206001600160a01b03891684529091529020555b604080516001600160a01b03861681526020810185905233917f05f2eeda0e08e4b437f487c8d7d29b14537d15e3488170dc3de5dbdf8dac46849101620009ae565b6000805160206200459083398151915262000d348133620020c4565b62000d41600983620021f4565b5050565b60008281526020819052604090206001015462000d638133620020c4565b62000d6f8383620022b4565b505050565b6001600160a01b038116331462000de65760405162461bcd60e51b815260206004820152602f60248201527f416363657373436f6e74726f6c3a2063616e206f6e6c792072656e6f756e636560448201526e103937b632b9903337b91039b2b63360891b6064820152608401620008ca565b62000d4182826200233c565b600080516020620045b083398151915262000e0e8133620020c4565b8262000e1a816200080b565b62000e395760405162461bcd60e51b8152600401620008ca9062003203565b60008062000e4a6007546008549091565b91509150600062000e5a620023a4565b9050600062000e85825162000e7e8562000e7e8b89620023b790919063ffffffff16565b90620023c5565b9050600062000e9f835183620023b790919063ffffffff16565b905060005b835181101562000f0d5762000ef83385838151811062000ed457634e487b7160e01b600052603260045260246000fd5b6020026020010151858d6001600160a01b0316620021a6909392919063ffffffff16565b8062000f0481620034af565b91505062000ea4565b5062000f1a8882620021e6565b975062000f336001600160a01b038a1633308b620021a6565b336001600160a01b03167f3e8f7080d28360572f18a99da683fe6f32eaaabb302169ad2648b417524f0a998a8a848760405162000f74949392919062003108565b60405180910390a2505050505050505050565b6000805160206200459083398151915262000fa38133620020c4565b60005b8451811015620010f95762000fe385828151811062000fd557634e487b7160e01b600052603260045260246000fd5b60200260200101516200080b565b15620010e4578381815181106200100a57634e487b7160e01b600052603260045260246000fd5b6020026020010151601060008784815181106200103757634e487b7160e01b600052603260045260246000fd5b60200260200101516001600160a01b03166001600160a01b03168152602001908152602001600020600001819055508281815181106200108757634e487b7160e01b600052603260045260246000fd5b602002602001015160106000878481518110620010b457634e487b7160e01b600052603260045260246000fd5b60200260200101516001600160a01b03166001600160a01b03168152602001908152602001600020600101819055505b80620010f081620034af565b91505062000fa6565b5050505050565b6000808390506000816001600160a01b03166318160ddd6040518163ffffffff1660e01b815260040160206040518083038186803b1580156200114257600080fd5b505afa15801562001157573d6000803e3d6000fd5b505050506040513d601f19601f820116820180604052508101906200117d919062003008565b905060006200118c8662001dcd565b90506200119f8262000e7e8784620023b7565b9695505050505050565b60008051602062004590833981519152620011c58133620020c4565b62000d41600983620023d3565b600081620011e0816200080b565b620011ff5760405162461bcd60e51b8152600401620008ca9062003203565b50506001600160a01b039081166000908152600360205260409020541690565b6000806200122d84620011d2565b90506000816001600160a01b03166318160ddd6040518163ffffffff1660e01b815260040160206040518083038186803b1580156200126b57600080fd5b505afa15801562001280573d6000803e3d6000fd5b505050506040513d601f19601f82011682018060405250810190620012a6919062003008565b90506000620012b58662001dcd565b90506200119f8162000e7e8785620023b7565b60008051602062004590833981519152620012e48133620020c4565b60005b8451811015620010f9576200131685828151811062000fd557634e487b7160e01b600052603260045260246000fd5b1562001417578381815181106200133d57634e487b7160e01b600052603260045260246000fd5b6020026020010151600f60008784815181106200136a57634e487b7160e01b600052603260045260246000fd5b60200260200101516001600160a01b03166001600160a01b0316815260200190815260200160002060000181905550828181518110620013ba57634e487b7160e01b600052603260045260246000fd5b6020026020010151600f6000878481518110620013e757634e487b7160e01b600052603260045260246000fd5b60200260200101516001600160a01b03166001600160a01b03168152602001908152602001600020600101819055505b806200142381620034af565b915050620012e7565b6000806000806200143d8562000b6f565b6001600160a01b0387166000818152601060209081526040808320815180830183528154815260019182015481850152858552600e8085528386208451808601865281548082529190940154848701819052979096528452825180840190935293825291810193909352815194965092945092620014bd908590620023b7565b6020840151620014cf908790620023b7565b1115620014f357620014e585858585856200254a565b965096505050505050915091565b620014e58585846200262c565b6000918252602082815260408084206001600160a01b0393909316845291905290205460ff1690565b60008051602062004590833981519152620015458133620020c4565b60005b8451811015620010f9576200157785828151811062000fd557634e487b7160e01b600052603260045260246000fd5b158015620015cd5750620015cb858281518110620015a557634e487b7160e01b600052603260045260246000fd5b60200260200101516001600160a01b031660009081526002602052604090205460ff1690565b155b156200184b576001806000878481518110620015f957634e487b7160e01b600052603260045260246000fd5b60200260200101516001600160a01b03166001600160a01b0316815260200190815260200160002060006101000a81548160ff02191690831515021790555060008482815181106200165b57634e487b7160e01b600052603260045260246000fd5b60200260200101518483815181106200168457634e487b7160e01b600052603260045260246000fd5b60200260200101516040516200169a9062002bc5565b620016a792919062003186565b604051809103906000f080158015620016c4573d6000803e3d6000fd5b506001600160a01b0381166000908152600260205260408120805460ff1916600117905587519192508291600391908990869081106200171457634e487b7160e01b600052603260045260246000fd5b60200260200101516001600160a01b03166001600160a01b0316815260200190815260200160002060006101000a8154816001600160a01b0302191690836001600160a01b031602179055508582815181106200178157634e487b7160e01b600052603260045260246000fd5b602002602001015160046000836001600160a01b03166001600160a01b0316815260200190815260200160002060006101000a8154816001600160a01b0302191690836001600160a01b031602179055507faad2833c9fd7a3de33f301e5186ee84d1a5753ce32de6b97baedaac4b92b55fc8683815181106200181457634e487b7160e01b600052603260045260246000fd5b602002602001015182604051620018419291906001600160a01b0392831681529116602082015260400190565b60405180910390a1505b806200185781620034af565b91505062001548565b600080516020620045b08339815191526200187c8133620020c4565b8262001888816200080b565b620018a75760405162461bcd60e51b8152600401620008ca9062003203565b620018b28462001b94565b831115620019125760405162461bcd60e51b815260206004820152602660248201527f43616e6e6f7420636c61696d206d6f7265207468616e20746f74616c206c697160448201526575696469747960d01b6064820152608401620008ca565b6200192283600560003362000923565b3360009081526005602090815260408083206001600160a01b03891684528252808320939093556006905220546200195b908462002198565b6001600160a01b03851660008181526006602090815260409182902093909355805191825291810185905233917f70eb43c4a8ae8c40502dcf22436c509c28d6ff421cf07c491be56984bd9870689101620009ae565b600082620019bf816200080b565b620019de5760405162461bcd60e51b8152600401620008ca9062003203565b6000620019eb85620011d2565b90506000620019fb86866200121f565b90506000811162001a4f5760405162461bcd60e51b815260206004820152601860248201527f4e6f7420656e6f75676820746f6b656e73207374616b656400000000000000006044820152606401620008ca565b62001a666001600160a01b038716333088620021a6565b6001600160a01b0382166340c10f19336040516001600160e01b031960e084901b1681526001600160a01b03909116600482015260248101849052604401600060405180830381600087803b15801562001abf57600080fd5b505af115801562001ad4573d6000803e3d6000fd5b5050505062001ae03390565b604080516001600160a01b038981168252602082018990529181018490529116907f63602d0ecc7b3a0ef7ff1a116e23056662d64280355ba8031b6d0d767c4b44589060600160405180910390a295945050505050565b6001600160a01b038116600090815260026020526040812054829060ff1662001b745760405162461bcd60e51b8152600401620008ca9062003248565b50506001600160a01b039081166000908152600460205260409020541690565b6001600160a01b038116600090815260066020908152604080832054600c90925282205462001bd48162001bcd8462001bcd8862001dcd565b90620021e6565b949350505050565b600080516020620045b083398151915262001bf88133620020c4565b8262001c04816200080b565b62001c235760405162461bcd60e51b8152600401620008ca9062003203565b3360009081526005602090815260408083206001600160a01b038816845290915290205483111562001ca45760405162461bcd60e51b815260206004820152602360248201527f43616e6e6f7420756e636c61696d206d6f7265207468616e20796f757220636c60448201526261696d60e81b6064820152608401620008ca565b62001cb483600560003362000c80565b3360009081526005602090815260408083206001600160a01b038916845282528083209390935560069052205462001ced9084620021e6565b6001600160a01b03851660008181526006602090815260409182902093909355805191825291810185905233917fb357d3c8cf2c37863e04f4c71afd0e8bef633cec94ee21866dc4e7058932a4899101620009ae565b60008062001d524384620021e6565b905060008062001d62876200142c565b915091506000600c905062001d958762001d8d8562000e7e86600d54620023b790919063ffffffff16565b86846200265e565b9450505050505b9392505050565b60008281526020819052604090206001015462001dc18133620020c4565b62000d6f83836200233c565b6001600160a01b0381166000908152600c602052604081205481906040516370a0823160e01b815230600482015290915062001d9c9082906001600160a01b038616906370a082319060240160206040518083038186803b15801562001e3257600080fd5b505afa15801562001e47573d6000803e3d6000fd5b505050506040513d601f19601f8201168201806040525081019062001e6d919062003008565b9062002198565b6000805160206200459083398151915262001e908133620020c4565b60005b8451811015620010f95762001ec285828151811062000fd557634e487b7160e01b600052603260045260246000fd5b1562001fc35783818151811062001ee957634e487b7160e01b600052603260045260246000fd5b6020026020010151600e600087848151811062001f1657634e487b7160e01b600052603260045260246000fd5b60200260200101516001600160a01b03166001600160a01b031681526020019081526020016000206000018190555082818151811062001f6657634e487b7160e01b600052603260045260246000fd5b6020026020010151600e600087848151811062001f9357634e487b7160e01b600052603260045260246000fd5b60200260200101516001600160a01b03166001600160a01b03168152602001908152602001600020600101819055505b8062001fcf81620034af565b91505062001e93565b600080516020620045b083398151915262001ff48133620020c4565b8262002000816200080b565b6200201f5760405162461bcd60e51b8152600401620008ca9062003203565b6200202a8462001b94565b8311156200204c5760405162461bcd60e51b8152600401620008ca90620031b8565b620020573362000906565b604080516001600160a01b03861681526020810185905233917f9b1bfa7fa9ee420a16e124f794c35ac9f90472acc99140eb2f6447c714cad8eb9101620009ae565b600080620020a78362001b94565b90506000620020b68462001dcd565b905062001bd48183620021e6565b620020d0828262001500565b62000d4157620020eb816001600160a01b0316601462002703565b620020f883602062002703565b6040516020016200210b9291906200308f565b60408051601f198184030181529082905262461bcd60e51b8252620008ca9160040162003171565b6040516001600160a01b03831660248201526044810182905262000d6f90849063a9059cbb60e01b906064015b60408051601f198184030181529190526020810180516001600160e01b03166001600160e01b031990931692909217909152620028f9565b600062001d9c8284620032e9565b6040516001600160a01b0380851660248301528316604482015260648101829052620021e09085906323b872dd60e01b9060840162002160565b50505050565b600062001d9c82846200344c565b620022008282620029d2565b156200225a5760405162461bcd60e51b815260206004820152602260248201527f4164647265737320616c72656164792065786973747320696e207468652073656044820152613a1760f11b6064820152608401620008ca565b6001828101805480830182556000828152602090200180546001600160a01b0319166001600160a01b038516179055546200229691906200344c565b6001600160a01b039091166000908152602092909252604090912055565b620022c0828262001500565b62000d41576000828152602081815260408083206001600160a01b03851684529091529020805460ff19166001179055620022f83390565b6001600160a01b0316816001600160a01b0316837f2f8788117e7eff1d82e926ec794901d17c78024a50270940304540a733656f0d60405160405180910390a45050565b62002348828262001500565b1562000d41576000828152602081815260408083206001600160a01b0385168085529252808320805460ff1916905551339285917ff6391f5c32d9c69d2a47ea670b442974b53935d1edc7fd64eb21e047a839171b9190a45050565b6060620023b2600962002a44565b905090565b600062001d9c82846200342a565b600062001d9c828462003304565b620023df8282620029d2565b620024385760405162461bcd60e51b815260206004820152602260248201527f4164647265737320646f6573206e6f7420657869737420696e207468652073656044820152613a1760f11b6064820152608401620008ca565b600182810180546000926200244d916200344c565b815481106200246c57634e487b7160e01b600052603260045260246000fd5b60009182526020808320909101546001600160a01b03858116845291869052604080842054929091168084529220819055600185018054929350909183919083908110620024ca57634e487b7160e01b600052603260045260246000fd5b600091825260208083209190910180546001600160a01b0319166001600160a01b039485161790559185168152908590526040812055600184018054806200252257634e487b7160e01b600052603160045260246000fd5b600082815260209020810160001990810180546001600160a01b031916905501905550505050565b60008060006200259286600001516200258b6200257987602001518960000151620023b790919063ffffffff16565b6020890151885162001bcd9162002198565b90620023b7565b90506000620025bc87602001516200258b88602001518860200151620023b790919063ffffffff16565b90506000620025f8620025e287602001516200258b8c87620023b790919063ffffffff16565b875162001bcd9085906200258b908f90620023b7565b905060006200261a836200258b89602001518d620023b790919063ffffffff16565b919b919a509098505050505050505050565b8051600090819062002640908690620023b7565b602084015162002652908690620023b7565b91509150935093915050565b600080600180825b85811015620026f6576200267b81896200336e565b8262002688858c6200342a565b62002694919062003304565b620026a0919062003304565b620026ac9085620032e9565b9350620026ba81886200344c565b620026c690846200342a565b9250620026d5816001620032e9565b620026e190836200342a565b9150620026ee81620034af565b905062002666565b5091979650505050505050565b60606000620027148360026200342a565b62002721906002620032e9565b67ffffffffffffffff8111156200274857634e487b7160e01b600052604160045260246000fd5b6040519080825280601f01601f19166020018201604052801562002773576020820181803683370190505b509050600360fc1b816000815181106200279d57634e487b7160e01b600052603260045260246000fd5b60200101906001600160f81b031916908160001a905350600f60fb1b81600181518110620027db57634e487b7160e01b600052603260045260246000fd5b60200101906001600160f81b031916908160001a9053506000620028018460026200342a565b6200280e906001620032e9565b90505b6001811115620028a8576f181899199a1a9b1b9c1cb0b131b232b360811b85600f16601081106200285257634e487b7160e01b600052603260045260246000fd5b1a60f81b8282815181106200287757634e487b7160e01b600052603260045260246000fd5b60200101906001600160f81b031916908160001a90535060049490941c93620028a08162003495565b905062002811565b50831562001d9c5760405162461bcd60e51b815260206004820181905260248201527f537472696e67733a20686578206c656e67746820696e73756666696369656e746044820152606401620008ca565b600062002950826040518060400160405280602081526020017f5361666545524332303a206c6f772d6c6576656c2063616c6c206661696c6564815250856001600160a01b031662002aac9092919063ffffffff16565b80519091501562000d6f578080602001905181019062002971919062002eda565b62000d6f5760405162461bcd60e51b815260206004820152602a60248201527f5361666545524332303a204552433230206f7065726174696f6e20646964206e6044820152691bdd081cdd58d8d9595960b21b6064820152608401620008ca565b6001820154600090620029e8575060006200085b565b6001600160a01b038216600081815260208590526040902054600185018054909190811062002a2757634e487b7160e01b600052603260045260246000fd5b6000918252602090912001546001600160a01b0316149392505050565b60608160010180548060200260200160405190810160405280929190818152602001828054801562002aa057602002820191906000526020600020905b81546001600160a01b0316815260019091019060200180831162002a81575b50505050509050919050565b606062001bd4848460008585843b62002b085760405162461bcd60e51b815260206004820152601d60248201527f416464726573733a2063616c6c20746f206e6f6e2d636f6e74726163740000006044820152606401620008ca565b600080866001600160a01b0316858760405162002b26919062003071565b60006040518083038185875af1925050503d806000811462002b65576040519150601f19603f3d011682016040523d82523d6000602084013e62002b6a565b606091505b509150915062002b7c82828662002b87565b979650505050505050565b6060831562002b9857508162001d9c565b82511562002ba95782518084602001fd5b8160405162461bcd60e51b8152600401620008ca919062003171565b61107d806200351383390190565b600082601f83011262002be4578081fd5b8135602062002bfd62002bf783620032c2565b6200328e565b80838252828201915082860187848660051b890101111562002c1d578586fd5b855b8581101562002c4857813562002c3581620034f9565b8452928401929084019060010162002c1f565b5090979650505050505050565b6000601f838184011262002c67578182fd5b8235602062002c7a62002bf783620032c2565b80838252828201915082870188848660051b8a0101111562002c9a578687fd5b865b8581101562002d3757813567ffffffffffffffff8082111562002cbd57898afd5b818b0191508b603f83011262002cd157898afd5b8682013560408282111562002cea5762002cea620034e3565b62002cfd828c01601f19168a016200328e565b92508183528d8183860101111562002d13578b8cfd5b818185018a85013750810187018a9052855250928401929084019060010162002c9c565b509098975050505050505050565b600082601f83011262002d56578081fd5b8135602062002d6962002bf783620032c2565b80838252828201915082860187848660051b890101111562002d89578586fd5b855b8581101562002c485781358452928401929084019060010162002d8b565b60006020828403121562002dbb578081fd5b813562001d9c81620034f9565b60008060006060848603121562002ddd578182fd5b833567ffffffffffffffff8082111562002df5578384fd5b62002e038783880162002bd3565b9450602086013591508082111562002e19578384fd5b62002e278783880162002c55565b9350604086013591508082111562002e3d578283fd5b5062002e4c8682870162002c55565b9150509250925092565b60008060006060848603121562002e6b578283fd5b833567ffffffffffffffff8082111562002e83578485fd5b62002e918783880162002bd3565b9450602086013591508082111562002ea7578384fd5b62002eb58783880162002d45565b9350604086013591508082111562002ecb578283fd5b5062002e4c8682870162002d45565b60006020828403121562002eec578081fd5b8151801515811462001d9c578182fd5b60006020828403121562002f0e578081fd5b5035919050565b6000806040838503121562002f28578182fd5b82359150602083013562002f3c81620034f9565b809150509250929050565b60006020828403121562002f59578081fd5b81356001600160e01b03198116811462001d9c578182fd5b6000806040838503121562002f84578182fd5b823562002f9181620034f9565b9150602083013562002f3c81620034f9565b6000806040838503121562002fb6578182fd5b823562002fc381620034f9565b946020939093013593505050565b60008060006060848603121562002fe6578081fd5b833562002ff381620034f9565b95602085013595506040909401359392505050565b6000602082840312156200301a578081fd5b5051919050565b6000806040838503121562003034578182fd5b50508035926020909101359150565b600081518084526200305d81602086016020860162003466565b601f01601f19169290920160200192915050565b600082516200308581846020870162003466565b9190910192915050565b7f416363657373436f6e74726f6c3a206163636f756e7420000000000000000000815260008351620030c981601785016020880162003466565b7001034b99036b4b9b9b4b733903937b6329607d1b6017918401918201528351620030fc81602884016020880162003466565b01602801949350505050565b60006080820160018060a01b038088168452602087818601528660408601526080606086015282865180855260a0870191508288019450855b818110156200316157855185168352948301949183019160010162003141565b50909a9950505050505050505050565b60208152600062001d9c602083018462003043565b6040815260006200319b604083018562003043565b8281036020840152620031af818562003043565b95945050505050565b6020808252602b908201527f576974686472617720616d6f756e74206578636565647320617661696c61626c60408201526a65206c697175696469747960a81b606082015260800190565b60208082526025908201527f4f6e6c7920706f6f6c20617070726f76656420746f6b656e73206d6179206265604082015264081d5cd95960da1b606082015260800190565b60208082526026908201527f4f6e6c79206c697175696469747920706f6f6c20746f6b656e73206d6179206260408201526519481d5cd95960d21b606082015260800190565b604051601f8201601f1916810167ffffffffffffffff81118282101715620032ba57620032ba620034e3565b604052919050565b600067ffffffffffffffff821115620032df57620032df620034e3565b5060051b60200190565b60008219821115620032ff57620032ff620034cd565b500190565b6000826200332057634e487b7160e01b81526012600452602481fd5b500490565b600181815b80851115620033665781600019048211156200334a576200334a620034cd565b808516156200335857918102915b93841c93908002906200332a565b509250929050565b600062001d9c838360008262003387575060016200085b565b8162003396575060006200085b565b8160018114620033af5760028114620033ba57620033da565b60019150506200085b565b60ff841115620033ce57620033ce620034cd565b50506001821b6200085b565b5060208310610133831016604e8410600b8410161715620033ff575081810a6200085b565b6200340b838362003325565b8060001904821115620034225762003422620034cd565b029392505050565b6000816000190483118215151615620034475762003447620034cd565b500290565b600082821015620034615762003461620034cd565b500390565b60005b838110156200348357818101518382015260200162003469565b83811115620021e05750506000910152565b600081620034a757620034a7620034cd565b506000190190565b6000600019821415620034c657620034c6620034cd565b5060010190565b634e487b7160e01b600052601160045260246000fd5b634e487b7160e01b600052604160045260246000fd5b6001600160a01b03811681146200350f57600080fd5b5056fe60806040523480156200001157600080fd5b506040516200107d3803806200107d833981016040819052620000349162000237565b8151829082906200004d906003906020850190620000de565b50805162000063906004906020840190620000de565b505050620000806200007a6200008860201b60201c565b6200008c565b5050620002f1565b3390565b600580546001600160a01b038381166001600160a01b0319831681179093556040519116919082907f8be0079c531659141344cd1fd0a4f28419497f9722a3daafe3b4186f6b6457e090600090a35050565b828054620000ec906200029e565b90600052602060002090601f0160209004810192826200011057600085556200015b565b82601f106200012b57805160ff19168380011785556200015b565b828001600101855582156200015b579182015b828111156200015b5782518255916020019190600101906200013e565b50620001699291506200016d565b5090565b5b808211156200016957600081556001016200016e565b600082601f83011262000195578081fd5b81516001600160401b0380821115620001b257620001b2620002db565b604051601f8301601f19908116603f01168101908282118183101715620001dd57620001dd620002db565b81604052838152602092508683858801011115620001f9578485fd5b8491505b838210156200021c5785820183015181830184015290820190620001fd565b838211156200022d57848385830101525b9695505050505050565b600080604083850312156200024a578182fd5b82516001600160401b038082111562000261578384fd5b6200026f8683870162000184565b9350602085015191508082111562000285578283fd5b50620002948582860162000184565b9150509250929050565b600181811c90821680620002b357607f821691505b60208210811415620002d557634e487b7160e01b600052602260045260246000fd5b50919050565b634e487b7160e01b600052604160045260246000fd5b610d7c80620003016000396000f3fe608060405234801561001057600080fd5b50600436106101005760003560e01c8063715018a611610097578063a457c2d711610066578063a457c2d714610209578063a9059cbb1461021c578063dd62ed3e1461022f578063f2fde38b1461026857600080fd5b8063715018a6146101cb5780638da5cb5b146101d357806395d89b41146101ee5780639dc29fac146101f657600080fd5b8063313ce567116100d3578063313ce5671461016b578063395093511461017a57806340c10f191461018d57806370a08231146101a257600080fd5b806306fdde0314610105578063095ea7b31461012357806318160ddd1461014657806323b872dd14610158575b600080fd5b61010d61027b565b60405161011a9190610c3e565b60405180910390f35b610136610131366004610c15565b61030d565b604051901515815260200161011a565b6002545b60405190815260200161011a565b610136610166366004610bda565b610323565b6040516012815260200161011a565b610136610188366004610c15565b6103d2565b6101a061019b366004610c15565b61040e565b005b61014a6101b0366004610b87565b6001600160a01b031660009081526020819052604090205490565b6101a0610446565b6005546040516001600160a01b03909116815260200161011a565b61010d61047c565b6101a0610204366004610c15565b61048b565b610136610217366004610c15565b6104bf565b61013661022a366004610c15565b610558565b61014a61023d366004610ba8565b6001600160a01b03918216600090815260016020908152604080832093909416825291909152205490565b6101a0610276366004610b87565b610565565b60606003805461028a90610cf5565b80601f01602080910402602001604051908101604052809291908181526020018280546102b690610cf5565b80156103035780601f106102d857610100808354040283529160200191610303565b820191906000526020600020905b8154815290600101906020018083116102e657829003601f168201915b5050505050905090565b600061031a338484610600565b50600192915050565b6000610330848484610725565b6001600160a01b0384166000908152600160209081526040808320338452909152902054828110156103ba5760405162461bcd60e51b815260206004820152602860248201527f45524332303a207472616e7366657220616d6f756e74206578636565647320616044820152676c6c6f77616e636560c01b60648201526084015b60405180910390fd5b6103c78533858403610600565b506001949350505050565b3360008181526001602090815260408083206001600160a01b0387168452909152812054909161031a918590610409908690610cc6565b610600565b6005546001600160a01b031633146104385760405162461bcd60e51b81526004016103b190610c91565b61044282826108f4565b5050565b6005546001600160a01b031633146104705760405162461bcd60e51b81526004016103b190610c91565b61047a60006109d3565b565b60606004805461028a90610cf5565b6005546001600160a01b031633146104b55760405162461bcd60e51b81526004016103b190610c91565b6104428282610a25565b3360009081526001602090815260408083206001600160a01b0386168452909152812054828110156105415760405162461bcd60e51b815260206004820152602560248201527f45524332303a2064656372656173656420616c6c6f77616e63652062656c6f77604482015264207a65726f60d81b60648201526084016103b1565b61054e3385858403610600565b5060019392505050565b600061031a338484610725565b6005546001600160a01b0316331461058f5760405162461bcd60e51b81526004016103b190610c91565b6001600160a01b0381166105f45760405162461bcd60e51b815260206004820152602660248201527f4f776e61626c653a206e6577206f776e657220697320746865207a65726f206160448201526564647265737360d01b60648201526084016103b1565b6105fd816109d3565b50565b6001600160a01b0383166106625760405162461bcd60e51b8152602060048201526024808201527f45524332303a20617070726f76652066726f6d20746865207a65726f206164646044820152637265737360e01b60648201526084016103b1565b6001600160a01b0382166106c35760405162461bcd60e51b815260206004820152602260248201527f45524332303a20617070726f766520746f20746865207a65726f206164647265604482015261737360f01b60648201526084016103b1565b6001600160a01b0383811660008181526001602090815260408083209487168084529482529182902085905590518481527f8c5be1e5ebec7d5bd14f71427d1e84f3dd0314c0f7b2291e5b200ac8c7c3b92591015b60405180910390a3505050565b6001600160a01b0383166107895760405162461bcd60e51b815260206004820152602560248201527f45524332303a207472616e736665722066726f6d20746865207a65726f206164604482015264647265737360d81b60648201526084016103b1565b6001600160a01b0382166107eb5760405162461bcd60e51b815260206004820152602360248201527f45524332303a207472616e7366657220746f20746865207a65726f206164647260448201526265737360e81b60648201526084016103b1565b6001600160a01b038316600090815260208190526040902054818110156108635760405162461bcd60e51b815260206004820152602660248201527f45524332303a207472616e7366657220616d6f756e7420657863656564732062604482015265616c616e636560d01b60648201526084016103b1565b6001600160a01b0380851660009081526020819052604080822085850390559185168152908120805484929061089a908490610cc6565b92505081905550826001600160a01b0316846001600160a01b03167fddf252ad1be2c89b69c2b068fc378daa952ba7f163c4a11628f55a4df523b3ef846040516108e691815260200190565b60405180910390a350505050565b6001600160a01b03821661094a5760405162461bcd60e51b815260206004820152601f60248201527f45524332303a206d696e7420746f20746865207a65726f20616464726573730060448201526064016103b1565b806002600082825461095c9190610cc6565b90915550506001600160a01b03821660009081526020819052604081208054839290610989908490610cc6565b90915550506040518181526001600160a01b038316906000907fddf252ad1be2c89b69c2b068fc378daa952ba7f163c4a11628f55a4df523b3ef9060200160405180910390a35050565b600580546001600160a01b038381166001600160a01b0319831681179093556040519116919082907f8be0079c531659141344cd1fd0a4f28419497f9722a3daafe3b4186f6b6457e090600090a35050565b6001600160a01b038216610a855760405162461bcd60e51b815260206004820152602160248201527f45524332303a206275726e2066726f6d20746865207a65726f206164647265736044820152607360f81b60648201526084016103b1565b6001600160a01b03821660009081526020819052604090205481811015610af95760405162461bcd60e51b815260206004820152602260248201527f45524332303a206275726e20616d6f756e7420657863656564732062616c616e604482015261636560f01b60648201526084016103b1565b6001600160a01b0383166000908152602081905260408120838303905560028054849290610b28908490610cde565b90915550506040518281526000906001600160a01b038516907fddf252ad1be2c89b69c2b068fc378daa952ba7f163c4a11628f55a4df523b3ef90602001610718565b80356001600160a01b0381168114610b8257600080fd5b919050565b600060208284031215610b98578081fd5b610ba182610b6b565b9392505050565b60008060408385031215610bba578081fd5b610bc383610b6b565b9150610bd160208401610b6b565b90509250929050565b600080600060608486031215610bee578081fd5b610bf784610b6b565b9250610c0560208501610b6b565b9150604084013590509250925092565b60008060408385031215610c27578182fd5b610c3083610b6b565b946020939093013593505050565b6000602080835283518082850152825b81811015610c6a57858101830151858201604001528201610c4e565b81811115610c7b5783604083870101525b50601f01601f1916929092016040019392505050565b6020808252818101527f4f776e61626c653a2063616c6c6572206973206e6f7420746865206f776e6572604082015260600190565b60008219821115610cd957610cd9610d30565b500190565b600082821015610cf057610cf0610d30565b500390565b600181811c90821680610d0957607f821691505b60208210811415610d2a57634e487b7160e01b600052602260045260246000fd5b50919050565b634e487b7160e01b600052601160045260246000fdfea26469706673582212205b6799890ed169949239ccd2d02483277659e3067c272e21c25740018e18181d64736f6c6343000804003324e583e35a20f9ecfc1572e7cb66bcc18ad3cd1650ec40dbf6ad2290e553a9fae6026b923a18d83f4b6e92786fdd85dc8e02e7647281b0d8831236806acf2a30a26469706673582212200a89f9a87d37353c3938147a1e858f9068a3a9ae419f7702a9d4329e9e8655dd64736f6c6343000804003324e583e35a20f9ecfc1572e7cb66bcc18ad3cd1650ec40dbf6ad2290e553a9fa",
  "linkReferences": {},
  "deployedLinkReferences": {}
}