{
  "_format": "hh-sol-artifact-1",
  "contractName": "LPool",
  "sourceName": "contracts/LPool/LPool.sol",
  "abi": [
    {
      "inputs": [
        {
          "internalType": "contract IConverter",
          "name": "converter_",
          "type": "address"
        },
        {
          "internalType": "uint256",
          "name": "taxPercent_",
          "type": "uint256"
        },
        {
          "internalType": "uint256",
          "name": "blocksPerCompound_",
          "type": "uint256"
        }
      ],
      "stateMutability": "nonpayable",
      "type": "constructor"
    },
    {
      "anonymous": false,
      "inputs": [
        {
          "indexed": false,
          "internalType": "contract IERC20",
          "name": "token",
          "type": "address"
        },
        {
          "indexed": false,
          "internalType": "contract IERC20",
          "name": "LPToken",
          "type": "address"
        }
      ],
      "name": "AddLPToken",
      "type": "event"
    },
    {
      "anonymous": false,
      "inputs": [
        {
          "indexed": true,
          "internalType": "address",
          "name": "account",
          "type": "address"
        },
        {
          "indexed": false,
          "internalType": "contract IERC20",
          "name": "token",
          "type": "address"
        },
        {
          "indexed": false,
          "internalType": "uint256",
          "name": "amount",
          "type": "uint256"
        }
      ],
      "name": "Claim",
      "type": "event"
    },
    {
      "anonymous": false,
      "inputs": [
        {
          "indexed": true,
          "internalType": "address",
          "name": "account",
          "type": "address"
        },
        {
          "indexed": false,
          "internalType": "contract IERC20",
          "name": "tokenIn",
          "type": "address"
        },
        {
          "indexed": false,
          "internalType": "uint256",
          "name": "amountIn",
          "type": "uint256"
        },
        {
          "indexed": false,
          "internalType": "contract IERC20",
          "name": "convertedToken",
          "type": "address"
        },
        {
          "indexed": false,
          "internalType": "uint256",
          "name": "convertedAmount",
          "type": "uint256"
        }
      ],
      "name": "Deposit",
      "type": "event"
    },
    {
      "anonymous": false,
      "inputs": [
        {
          "indexed": true,
          "internalType": "address",
          "name": "account",
          "type": "address"
        },
        {
          "indexed": false,
          "internalType": "contract IERC20",
          "name": "token",
          "type": "address"
        },
        {
          "indexed": false,
          "internalType": "uint256",
          "name": "amount",
          "type": "uint256"
        },
        {
          "indexed": false,
          "internalType": "uint256",
          "name": "value",
          "type": "uint256"
        }
      ],
      "name": "Redeem",
      "type": "event"
    },
    {
      "anonymous": false,
      "inputs": [
        {
          "indexed": true,
          "internalType": "bytes32",
          "name": "role",
          "type": "bytes32"
        },
        {
          "indexed": true,
          "internalType": "bytes32",
          "name": "previousAdminRole",
          "type": "bytes32"
        },
        {
          "indexed": true,
          "internalType": "bytes32",
          "name": "newAdminRole",
          "type": "bytes32"
        }
      ],
      "name": "RoleAdminChanged",
      "type": "event"
    },
    {
      "anonymous": false,
      "inputs": [
        {
          "indexed": true,
          "internalType": "bytes32",
          "name": "role",
          "type": "bytes32"
        },
        {
          "indexed": true,
          "internalType": "address",
          "name": "account",
          "type": "address"
        },
        {
          "indexed": true,
          "internalType": "address",
          "name": "sender",
          "type": "address"
        }
      ],
      "name": "RoleGranted",
      "type": "event"
    },
    {
      "anonymous": false,
      "inputs": [
        {
          "indexed": true,
          "internalType": "bytes32",
          "name": "role",
          "type": "bytes32"
        },
        {
          "indexed": true,
          "internalType": "address",
          "name": "account",
          "type": "address"
        },
        {
          "indexed": true,
          "internalType": "address",
          "name": "sender",
          "type": "address"
        }
      ],
      "name": "RoleRevoked",
      "type": "event"
    },
    {
      "anonymous": false,
      "inputs": [
        {
          "indexed": true,
          "internalType": "address",
          "name": "account",
          "type": "address"
        },
        {
          "indexed": false,
          "internalType": "contract IERC20",
          "name": "token",
          "type": "address"
        },
        {
          "indexed": false,
          "internalType": "uint256",
          "name": "amount",
          "type": "uint256"
        },
        {
          "indexed": false,
          "internalType": "uint256",
          "name": "value",
          "type": "uint256"
        }
      ],
      "name": "Stake",
      "type": "event"
    },
    {
      "anonymous": false,
      "inputs": [
        {
          "indexed": true,
          "internalType": "address",
          "name": "account",
          "type": "address"
        },
        {
          "indexed": false,
          "internalType": "contract IERC20",
          "name": "token",
          "type": "address"
        },
        {
          "indexed": false,
          "internalType": "uint256",
          "name": "amount",
          "type": "uint256"
        }
      ],
      "name": "Unclaim",
      "type": "event"
    },
    {
      "anonymous": false,
      "inputs": [
        {
          "indexed": true,
          "internalType": "address",
          "name": "account",
          "type": "address"
        },
        {
          "indexed": false,
          "internalType": "contract IERC20",
          "name": "token",
          "type": "address"
        },
        {
          "indexed": false,
          "internalType": "uint256",
          "name": "amount",
          "type": "uint256"
        }
      ],
      "name": "Withdraw",
      "type": "event"
    },
    {
      "inputs": [],
      "name": "DEFAULT_ADMIN_ROLE",
      "outputs": [
        {
          "internalType": "bytes32",
          "name": "",
          "type": "bytes32"
        }
      ],
      "stateMutability": "view",
      "type": "function"
    },
    {
      "inputs": [
        {
          "internalType": "contract IERC20",
          "name": "token_",
          "type": "address"
        }
      ],
      "name": "LPFromPT",
      "outputs": [
        {
          "internalType": "contract IERC20",
          "name": "",
          "type": "address"
        }
      ],
      "stateMutability": "view",
      "type": "function"
    },
    {
      "inputs": [],
      "name": "POOL_ADMIN",
      "outputs": [
        {
          "internalType": "bytes32",
          "name": "",
          "type": "bytes32"
        }
      ],
      "stateMutability": "view",
      "type": "function"
    },
    {
      "inputs": [],
      "name": "POOL_APPROVED",
      "outputs": [
        {
          "internalType": "bytes32",
          "name": "",
          "type": "bytes32"
        }
      ],
      "stateMutability": "view",
      "type": "function"
    },
    {
      "inputs": [
        {
          "internalType": "contract IERC20",
          "name": "token_",
          "type": "address"
        }
      ],
      "name": "PTFromLP",
      "outputs": [
        {
          "internalType": "contract IERC20",
          "name": "",
          "type": "address"
        }
      ],
      "stateMutability": "view",
      "type": "function"
    },
    {
      "inputs": [
        {
          "internalType": "contract IERC20[]",
          "name": "token_",
          "type": "address[]"
        },
        {
          "internalType": "string[]",
          "name": "name_",
          "type": "string[]"
        },
        {
          "internalType": "string[]",
          "name": "symbol_",
          "type": "string[]"
        }
      ],
      "name": "addLPToken",
      "outputs": [],
      "stateMutability": "nonpayable",
      "type": "function"
    },
    {
      "inputs": [
        {
          "internalType": "address",
          "name": "account_",
          "type": "address"
        }
      ],
      "name": "addTaxAccount",
      "outputs": [],
      "stateMutability": "nonpayable",
      "type": "function"
    },
    {
      "inputs": [
        {
          "internalType": "contract IERC20",
          "name": "token_",
          "type": "address"
        },
        {
          "internalType": "uint256",
          "name": "amount_",
          "type": "uint256"
        }
      ],
      "name": "claim",
      "outputs": [],
      "stateMutability": "nonpayable",
      "type": "function"
    },
    {
      "inputs": [
        {
          "internalType": "contract IERC20",
          "name": "token_",
          "type": "address"
        },
        {
          "internalType": "address",
          "name": "account_",
          "type": "address"
        }
      ],
      "name": "claimed",
      "outputs": [
        {
          "internalType": "uint256",
          "name": "",
          "type": "uint256"
        }
      ],
      "stateMutability": "view",
      "type": "function"
    },
    {
      "inputs": [],
      "name": "converter",
      "outputs": [
        {
          "internalType": "contract IConverter",
          "name": "",
          "type": "address"
        }
      ],
      "stateMutability": "view",
      "type": "function"
    },
    {
      "inputs": [
        {
          "internalType": "contract IERC20",
          "name": "token_",
          "type": "address"
        },
        {
          "internalType": "uint256",
          "name": "amount_",
          "type": "uint256"
        }
      ],
      "name": "deposit",
      "outputs": [],
      "stateMutability": "nonpayable",
      "type": "function"
    },
    {
      "inputs": [
        {
          "internalType": "bytes32",
          "name": "role",
          "type": "bytes32"
        }
      ],
      "name": "getRoleAdmin",
      "outputs": [
        {
          "internalType": "bytes32",
          "name": "",
          "type": "bytes32"
        }
      ],
      "stateMutability": "view",
      "type": "function"
    },
    {
      "inputs": [
        {
          "internalType": "bytes32",
          "name": "role",
          "type": "bytes32"
        },
        {
          "internalType": "address",
          "name": "account",
          "type": "address"
        }
      ],
      "name": "grantRole",
      "outputs": [],
      "stateMutability": "nonpayable",
      "type": "function"
    },
    {
      "inputs": [
        {
          "internalType": "bytes32",
          "name": "role",
          "type": "bytes32"
        },
        {
          "internalType": "address",
          "name": "account",
          "type": "address"
        }
      ],
      "name": "hasRole",
      "outputs": [
        {
          "internalType": "bool",
          "name": "",
          "type": "bool"
        }
      ],
      "stateMutability": "view",
      "type": "function"
    },
    {
      "inputs": [
        {
          "internalType": "contract IERC20",
          "name": "token_",
          "type": "address"
        },
        {
          "internalType": "uint256",
          "name": "initialBorrow_",
          "type": "uint256"
        },
        {
          "internalType": "uint256",
          "name": "borrowBlock_",
          "type": "uint256"
        }
      ],
      "name": "interest",
      "outputs": [
        {
          "internalType": "uint256",
          "name": "",
          "type": "uint256"
        }
      ],
      "stateMutability": "view",
      "type": "function"
    },
    {
      "inputs": [
        {
          "internalType": "contract IERC20",
          "name": "token_",
          "type": "address"
        }
      ],
      "name": "interestRate",
      "outputs": [
        {
          "internalType": "uint256",
          "name": "",
          "type": "uint256"
        },
        {
          "internalType": "uint256",
          "name": "",
          "type": "uint256"
        }
      ],
      "stateMutability": "view",
      "type": "function"
    },
    {
      "inputs": [],
      "name": "interestRateBlocks",
      "outputs": [
        {
          "internalType": "uint256",
          "name": "",
          "type": "uint256"
        }
      ],
      "stateMutability": "view",
      "type": "function"
    },
    {
      "inputs": [
        {
          "internalType": "contract IERC20",
          "name": "token_",
          "type": "address"
        }
      ],
      "name": "isApprovedLP",
      "outputs": [
        {
          "internalType": "bool",
          "name": "",
          "type": "bool"
        }
      ],
      "stateMutability": "view",
      "type": "function"
    },
    {
      "inputs": [
        {
          "internalType": "contract IERC20",
          "name": "token_",
          "type": "address"
        }
      ],
      "name": "isApprovedPT",
      "outputs": [
        {
          "internalType": "bool",
          "name": "",
          "type": "bool"
        }
      ],
      "stateMutability": "view",
      "type": "function"
    },
    {
      "inputs": [
        {
          "internalType": "contract IERC20",
          "name": "token_",
          "type": "address"
        }
      ],
      "name": "isLP",
      "outputs": [
        {
          "internalType": "bool",
          "name": "",
          "type": "bool"
        }
      ],
      "stateMutability": "view",
      "type": "function"
    },
    {
      "inputs": [
        {
          "internalType": "contract IERC20",
          "name": "token_",
          "type": "address"
        }
      ],
      "name": "isPT",
      "outputs": [
        {
          "internalType": "bool",
          "name": "",
          "type": "bool"
        }
      ],
      "stateMutability": "view",
      "type": "function"
    },
    {
      "inputs": [
        {
          "internalType": "contract IERC20",
          "name": "token_",
          "type": "address"
        }
      ],
      "name": "liquidity",
      "outputs": [
        {
          "internalType": "uint256",
          "name": "",
          "type": "uint256"
        }
      ],
      "stateMutability": "view",
      "type": "function"
    },
    {
      "inputs": [
        {
          "internalType": "contract IERC20",
          "name": "token_",
          "type": "address"
        }
      ],
      "name": "maxInterestMax",
      "outputs": [
        {
          "internalType": "uint256",
          "name": "",
          "type": "uint256"
        },
        {
          "internalType": "uint256",
          "name": "",
          "type": "uint256"
        }
      ],
      "stateMutability": "view",
      "type": "function"
    },
    {
      "inputs": [
        {
          "internalType": "contract IERC20",
          "name": "token_",
          "type": "address"
        }
      ],
      "name": "maxInterestMin",
      "outputs": [
        {
          "internalType": "uint256",
          "name": "",
          "type": "uint256"
        },
        {
          "internalType": "uint256",
          "name": "",
          "type": "uint256"
        }
      ],
      "stateMutability": "view",
      "type": "function"
    },
    {
      "inputs": [
        {
          "internalType": "contract IERC20",
          "name": "token_",
          "type": "address"
        }
      ],
      "name": "maxUtilization",
      "outputs": [
        {
          "internalType": "uint256",
          "name": "",
          "type": "uint256"
        },
        {
          "internalType": "uint256",
          "name": "",
          "type": "uint256"
        }
      ],
      "stateMutability": "view",
      "type": "function"
    },
    {
      "inputs": [
        {
          "internalType": "contract IERC20",
          "name": "token_",
          "type": "address"
        },
        {
          "internalType": "uint256",
          "name": "amount_",
          "type": "uint256"
        }
      ],
      "name": "redeem",
      "outputs": [
        {
          "internalType": "uint256",
          "name": "",
          "type": "uint256"
        }
      ],
      "stateMutability": "nonpayable",
      "type": "function"
    },
    {
      "inputs": [
        {
          "internalType": "contract IERC20",
          "name": "token_",
          "type": "address"
        },
        {
          "internalType": "uint256",
          "name": "amount_",
          "type": "uint256"
        }
      ],
      "name": "redeemValue",
      "outputs": [
        {
          "internalType": "uint256",
          "name": "",
          "type": "uint256"
        }
      ],
      "stateMutability": "view",
      "type": "function"
    },
    {
      "inputs": [
        {
          "internalType": "address",
          "name": "account_",
          "type": "address"
        }
      ],
      "name": "removeTaxAccount",
      "outputs": [],
      "stateMutability": "nonpayable",
      "type": "function"
    },
    {
      "inputs": [
        {
          "internalType": "bytes32",
          "name": "role",
          "type": "bytes32"
        },
        {
          "internalType": "address",
          "name": "account",
          "type": "address"
        }
      ],
      "name": "renounceRole",
      "outputs": [],
      "stateMutability": "nonpayable",
      "type": "function"
    },
    {
      "inputs": [
        {
          "internalType": "bytes32",
          "name": "role",
          "type": "bytes32"
        },
        {
          "internalType": "address",
          "name": "account",
          "type": "address"
        }
      ],
      "name": "revokeRole",
      "outputs": [],
      "stateMutability": "nonpayable",
      "type": "function"
    },
    {
      "inputs": [
        {
          "internalType": "contract IERC20[]",
          "name": "token_",
          "type": "address[]"
        },
        {
          "internalType": "bool[]",
          "name": "approved_",
          "type": "bool[]"
        }
      ],
      "name": "setApproved",
      "outputs": [],
      "stateMutability": "nonpayable",
      "type": "function"
    },
    {
      "inputs": [
        {
          "internalType": "contract IConverter",
          "name": "converter_",
          "type": "address"
        }
      ],
      "name": "setConverter",
      "outputs": [],
      "stateMutability": "nonpayable",
      "type": "function"
    },
    {
      "inputs": [
        {
          "internalType": "uint256",
          "name": "interestRateBlocks_",
          "type": "uint256"
        }
      ],
      "name": "setInterestRateBlocks",
      "outputs": [],
      "stateMutability": "nonpayable",
      "type": "function"
    },
    {
      "inputs": [
        {
          "internalType": "contract IERC20[]",
          "name": "token_",
          "type": "address[]"
        },
        {
          "internalType": "uint256[]",
          "name": "percentNumerator_",
          "type": "uint256[]"
        },
        {
          "internalType": "uint256[]",
          "name": "percentDenominator_",
          "type": "uint256[]"
        }
      ],
      "name": "setMaxInterestMax",
      "outputs": [],
      "stateMutability": "nonpayable",
      "type": "function"
    },
    {
      "inputs": [
        {
          "internalType": "contract IERC20[]",
          "name": "token_",
          "type": "address[]"
        },
        {
          "internalType": "uint256[]",
          "name": "percentNumerator_",
          "type": "uint256[]"
        },
        {
          "internalType": "uint256[]",
          "name": "percentDenominator_",
          "type": "uint256[]"
        }
      ],
      "name": "setMaxInterestMin",
      "outputs": [],
      "stateMutability": "nonpayable",
      "type": "function"
    },
    {
      "inputs": [
        {
          "internalType": "contract IERC20[]",
          "name": "token_",
          "type": "address[]"
        },
        {
          "internalType": "uint256[]",
          "name": "percentNumerator_",
          "type": "uint256[]"
        },
        {
          "internalType": "uint256[]",
          "name": "percentDenominator_",
          "type": "uint256[]"
        }
      ],
      "name": "setMaxUtilization",
      "outputs": [],
      "stateMutability": "nonpayable",
      "type": "function"
    },
    {
      "inputs": [
        {
          "internalType": "uint256",
          "name": "taxPercentNumerator_",
          "type": "uint256"
        },
        {
          "internalType": "uint256",
          "name": "taxPercentDenominator_",
          "type": "uint256"
        }
      ],
      "name": "setTaxPercentage",
      "outputs": [],
      "stateMutability": "nonpayable",
      "type": "function"
    },
    {
      "inputs": [
        {
          "internalType": "contract IERC20",
          "name": "token_",
          "type": "address"
        },
        {
          "internalType": "uint256",
          "name": "amount_",
          "type": "uint256"
        }
      ],
      "name": "stake",
      "outputs": [
        {
          "internalType": "uint256",
          "name": "",
          "type": "uint256"
        }
      ],
      "stateMutability": "nonpayable",
      "type": "function"
    },
    {
      "inputs": [
        {
          "internalType": "contract IERC20",
          "name": "token_",
          "type": "address"
        },
        {
          "internalType": "uint256",
          "name": "amount_",
          "type": "uint256"
        }
      ],
      "name": "stakeValue",
      "outputs": [
        {
          "internalType": "uint256",
          "name": "",
          "type": "uint256"
        }
      ],
      "stateMutability": "view",
      "type": "function"
    },
    {
      "inputs": [
        {
          "internalType": "bytes4",
          "name": "interfaceId",
          "type": "bytes4"
        }
      ],
      "name": "supportsInterface",
      "outputs": [
        {
          "internalType": "bool",
          "name": "",
          "type": "bool"
        }
      ],
      "stateMutability": "view",
      "type": "function"
    },
    {
      "inputs": [],
      "name": "taxPercentage",
      "outputs": [
        {
          "internalType": "uint256",
          "name": "",
          "type": "uint256"
        },
        {
          "internalType": "uint256",
          "name": "",
          "type": "uint256"
        }
      ],
      "stateMutability": "view",
      "type": "function"
    },
    {
      "inputs": [
        {
          "internalType": "contract IERC20",
          "name": "token_",
          "type": "address"
        }
      ],
      "name": "totalClaimed",
      "outputs": [
        {
          "internalType": "uint256",
          "name": "",
          "type": "uint256"
        }
      ],
      "stateMutability": "view",
      "type": "function"
    },
    {
      "inputs": [
        {
          "internalType": "contract IERC20",
          "name": "token_",
          "type": "address"
        }
      ],
      "name": "tvl",
      "outputs": [
        {
          "internalType": "uint256",
          "name": "",
          "type": "uint256"
        }
      ],
      "stateMutability": "view",
      "type": "function"
    },
    {
      "inputs": [
        {
          "internalType": "contract IERC20",
          "name": "token_",
          "type": "address"
        },
        {
          "internalType": "uint256",
          "name": "amount_",
          "type": "uint256"
        }
      ],
      "name": "unclaim",
      "outputs": [],
      "stateMutability": "nonpayable",
      "type": "function"
    },
    {
      "inputs": [
        {
          "internalType": "contract IERC20",
          "name": "token_",
          "type": "address"
        }
      ],
      "name": "utilizationRate",
      "outputs": [
        {
          "internalType": "uint256",
          "name": "",
          "type": "uint256"
        },
        {
          "internalType": "uint256",
          "name": "",
          "type": "uint256"
        }
      ],
      "stateMutability": "view",
      "type": "function"
    },
    {
      "inputs": [
        {
          "internalType": "contract IERC20",
          "name": "token_",
          "type": "address"
        }
      ],
      "name": "utilized",
      "outputs": [
        {
          "internalType": "uint256",
          "name": "",
          "type": "uint256"
        }
      ],
      "stateMutability": "view",
      "type": "function"
    },
    {
      "inputs": [
        {
          "internalType": "contract IERC20",
          "name": "token_",
          "type": "address"
        },
        {
          "internalType": "uint256",
          "name": "amount_",
          "type": "uint256"
        }
      ],
      "name": "withdraw",
      "outputs": [],
      "stateMutability": "nonpayable",
      "type": "function"
    }
  ],
  "bytecode": "0x60806040523480156200001157600080fd5b506040516200476f3803806200476f8339810160408190526200003491620001cc565b8083836064620000546000805160206200474f83398151915280620000e0565b6200008f7fe6026b923a18d83f4b6e92786fdd85dc8e02e7647281b0d8831236806acf2a306000805160206200474f833981519152620000e0565b620000aa6000805160206200474f833981519152336200012b565b600791909155600855600b80546001600160a01b0319166001600160a01b0392909216919091179055600c55506200020f915050565b600082815260208190526040808220600101805490849055905190918391839186917fbd79b86ffe0ab8e8776151514217cd7cacd52c909f66475c3af44e129f0b00ff9190a4505050565b6000828152602081815260408083206001600160a01b038516845290915290205460ff16620001c8576000828152602081815260408083206001600160a01b03851684529091529020805460ff19166001179055620001873390565b6001600160a01b0316816001600160a01b0316837f2f8788117e7eff1d82e926ec794901d17c78024a50270940304540a733656f0d60405160405180910390a45b5050565b600080600060608486031215620001e1578283fd5b83516001600160a01b0381168114620001f8578384fd5b602085015160409095015190969495509392505050565b614530806200021f6000396000f3fe60806040523480156200001157600080fd5b5060043610620002cd5760003560e01c80638695ede31162000185578063bd38837b11620000df578063e75db6161162000092578063e75db6161462000739578063ef5d9ae81462000750578063f2fd9dc2146200077c578063f3fef3a31462000793578063fbfa54d114620007aa578063fe3d576814620007c157600080fd5b8063bd38837b14620006b2578063bffe84c214620006c6578063d0b9622c14620006dd578063d547741f14620006f4578063e472d744146200070b578063e5a045cb146200072257600080fd5b8063aad3ec961162000138578063aad3ec961462000640578063adc9772e1462000657578063ae7b6d16146200066e578063b19337a4146200067a578063b2ac20721462000691578063b8c876b1146200069b57600080fd5b80638695ede3146200058a578063902c4e5514620005be57806391d1485414620005d5578063a217fddf14620005ec578063a2b4fe7114620005f5578063aa08ed76146200060c57600080fd5b806336568abe11620002375780636da8d26211620001ea5780636da8d26214620005005780637594825b146200051757806378b09e91146200052e5780637b56446014620005455780637c2c69c0146200055c5780637df0f767146200057357600080fd5b806336568abe146200045d57806347e7ef2414620004745780634bf90fe3146200048b5780634c07d1b714620004a25780636518711d14620004d25780636a112c8914620004e957600080fd5b80631e9a695011620002905780631e9a695014620003c2578063207b27df14620003d957806320f5ad9414620003f0578063248a9ca3146200040957806325ddcd61146200042f5780632f2ff15d146200044657600080fd5b806301ffc9a714620002d2578063045f1f4f14620002fe5780630c9cbf0e146200032457806312e23ac2146200036157806318b7373d14620003ab575b600080fd5b620002e9620002e336600462002ff9565b620007d8565b60405190151581526020015b60405180910390f35b62000315600080516020620044db83398151915281565b604051908152602001620002f5565b620003156200033536600462003023565b6001600160a01b0380821660009081526005602090815260408083209386168352929052205492915050565b620003956200037236600462002d8b565b6001600160a01b03166000908152600e6020526040902080546001909101549091565b60408051928352602083019190915201620002f5565b620002e9620003bc36600462002d8b565b62000810565b62000315620003d336600462003055565b62000830565b62000395620003ea36600462002d8b565b620009dc565b6200040762000401366004620030d3565b62000a06565b005b620003156200041a36600462002fae565b60009081526020819052604090206001015490565b620004076200044036600462002d8b565b62000a2e565b620004076200045736600462002fc7565b62000a5b565b620004076200046e36600462002fc7565b62000a8a565b620004076200048536600462003055565b62000b08565b620004076200049c36600462002fae565b62000d22565b620004b9620004b336600462002d8b565b62000d44565b6040516001600160a01b039091168152602001620002f5565b62000407620004e336600462002f0b565b62000d91565b620004b9620004fa36600462002d8b565b62000ed1565b620003156200051136600462003055565b62000f4d565b620004076200052836600462002d8b565b62001002565b620003156200053f36600462003055565b6200102b565b620004076200055636600462002f0b565b620010f0565b620003956200056d36600462002d8b565b62001229565b620002e96200058436600462002d8b565b620012fd565b620003956200059b36600462002d8b565b6001600160a01b03166000908152600f6020526040902080546001909101549091565b62000407620005cf36600462002e7d565b6200131d565b620002e9620005e636600462002fc7565b6200161f565b62000315600081565b62000315600080516020620044bb83398151915281565b620003956200061d36600462002d8b565b6001600160a01b03166000908152600d6020526040902080546001909101549091565b620004076200065136600462003055565b62001648565b620003156200066836600462003055565b620017c2565b60075460085462000395565b620004076200068b36600462002d8b565b62001948565b62000315600c5481565b62000315620006ac36600462002d8b565b62001987565b600b54620004b9906001600160a01b031681565b62000407620006d736600462003055565b620019be565b62000315620006ee36600462003083565b62001b77565b620004076200070536600462002fc7565b62001bbd565b620004076200071c36600462002daa565b62001be7565b620002e96200073336600462002d8b565b62001ce4565b620003156200074a36600462002d8b565b62001d18565b620003156200076136600462002d8b565b6001600160a01b031660009081526006602052604090205490565b620004076200078d36600462002f0b565b62001d96565b62000407620007a436600462003055565b62001ecf565b620002e9620007bb36600462002d8b565b62001fde565b62000315620007d236600462002d8b565b62002025565b60006001600160e01b03198216637965db0b60e01b14806200080a57506301ffc9a760e01b6001600160e01b03198316145b92915050565b6001600160a01b0390811660009081526001602052604090205416151590565b6000826200083e81620012fd565b620008665760405162461bcd60e51b81526004016200085d9062003201565b60405180910390fd5b836000620008748262000d44565b9050600062000884838762000f4d565b9050620008918262001987565b811115620008f65760405162461bcd60e51b815260206004820152602b60248201527f4e6f7420656e6f756768206c697175696469747920746f2072656465656d206160448201526a7420746869732074696d6560a81b60648201526084016200085d565b6001600160a01b038316639dc29fac336040516001600160e01b031960e084901b1681526001600160a01b03909116600482015260248101899052604401600060405180830381600087803b1580156200094f57600080fd5b505af115801562000964573d6000803e3d6000fd5b5050505062000986620009743390565b6001600160a01b038416908362002058565b604080516001600160a01b038916815260208101889052808201839052905133917f3f693fff038bb8a046aa76d9516190ac7444f7d69cf952c4cbdc086fdef2d6fc919081900360600190a29695505050505050565b6000806000620009ec8462001d18565b90506000620009fb8562002025565b959194509092505050565b600080516020620044bb83398151915262000a228133620020bd565b50600791909155600855565b600080516020620044bb83398151915262000a4a8133620020bd565b62000a576009836200212c565b5050565b60008281526020819052604090206001015462000a798133620020bd565b62000a858383620021ec565b505050565b6001600160a01b038116331462000afc5760405162461bcd60e51b815260206004820152602f60248201527f416363657373436f6e74726f6c3a2063616e206f6e6c792072656e6f756e636560448201526e103937b632b9903337b91039b2b63360891b60648201526084016200085d565b62000a57828262002274565b600080516020620044db83398151915262000b248133620020bd565b62000b3b6001600160a01b038416333085620022dc565b600062000b4762002316565b600b546040516302e0684d60e11b81526001600160a01b038781166004830152602482018790528084166044830152929350600092909116906305c0d09a90606401602060405180830381600087803b15801562000ba457600080fd5b505af115801562000bb9573d6000803e3d6000fd5b505050506040513d601f19601f8201168201806040525081019062000bdf9190620030ba565b9050600062000bed620023b5565b905060008062000c006007546008549091565b91509150600062000c2d845162000c268462000c268988620023c890919063ffffffff16565b90620023d6565b9050600062000c47855183620023c890919063ffffffff16565b905060005b855181101562000cb35762000c9e86828151811062000c7b57634e487b7160e01b600052603260045260246000fd5b6020026020010151848a6001600160a01b0316620020589092919063ffffffff16565b8062000caa816200339e565b91505062000c4c565b5062000cc08682620023e4565b604080516001600160a01b038d81168252602082018d90528a168183015260608101839052905191975033917faaefaf378e10f40556b2167ea878af7e62d89229b0bce3924630aabf1ee611ff9181900360800190a250505050505050505050565b600080516020620044bb83398151915262000d3e8133620020bd565b50600c55565b60008162000d5281620012fd565b62000d715760405162461bcd60e51b81526004016200085d9062003201565b50506001600160a01b039081166000908152600260205260409020541690565b600080516020620044bb83398151915262000dad8133620020bd565b60005b845181101562000eca5783818151811062000ddb57634e487b7160e01b600052603260045260246000fd5b6020026020010151600f600087848151811062000e0857634e487b7160e01b600052603260045260246000fd5b60200260200101516001600160a01b03166001600160a01b031681526020019081526020016000206000018190555082818151811062000e5857634e487b7160e01b600052603260045260246000fd5b6020026020010151600f600087848151811062000e8557634e487b7160e01b600052603260045260246000fd5b60200260200101516001600160a01b03166001600160a01b0316815260200190815260200160002060010181905550808062000ec1906200339e565b91505062000db0565b5050505050565b60008162000edf8162000810565b62000f2d5760405162461bcd60e51b815260206004820152601c60248201527f4f6e6c7920706f6f6c20746f6b656e73206d617920626520757365640000000060448201526064016200085d565b50506001600160a01b039081166000908152600160205260409020541690565b6000828162000f5c8262000d44565b90506000826001600160a01b03166318160ddd6040518163ffffffff1660e01b815260040160206040518083038186803b15801562000f9a57600080fd5b505afa15801562000faf573d6000803e3d6000fd5b505050506040513d601f19601f8201168201806040525081019062000fd59190620030ba565b9050600062000fe48362001d18565b905062000ff78262000c268884620023c8565b979650505050505050565b600080516020620044bb8339815191526200101e8133620020bd565b62000a57600983620023f2565b600080620010398462000ed1565b90506000816001600160a01b03166318160ddd6040518163ffffffff1660e01b815260040160206040518083038186803b1580156200107757600080fd5b505afa1580156200108c573d6000803e3d6000fd5b505050506040513d601f19601f82011682018060405250810190620010b29190620030ba565b90506000620010c18662001d18565b905080620010d5578493505050506200080a565b620010e68162000c268785620023c8565b9695505050505050565b600080516020620044bb8339815191526200110c8133620020bd565b60005b845181101562000eca578381815181106200113a57634e487b7160e01b600052603260045260246000fd5b6020026020010151600e60008784815181106200116757634e487b7160e01b600052603260045260246000fd5b60200260200101516001600160a01b03166001600160a01b0316815260200190815260200160002060000181905550828181518110620011b757634e487b7160e01b600052603260045260246000fd5b6020026020010151600e6000878481518110620011e457634e487b7160e01b600052603260045260246000fd5b60200260200101516001600160a01b03166001600160a01b0316815260200190815260200160002060010181905550808062001220906200339e565b9150506200110f565b6000806000806200123a85620009dc565b6001600160a01b0387166000818152600f60209081526040808320815180830183528154815260019182015481850152858552600d8085528386208451808601865281548082529190940154848701819052979096528452825180840190935293825291810193909352815194965092945092620012ba908590620023c8565b6020840151620012cc908790620023c8565b1115620012f057620012e2858585858562002569565b965096505050505050915091565b620012e285858462002644565b6001600160a01b0390811660009081526002602052604090205416151590565b600080516020620044bb833981519152620013398133620020bd565b60005b845181101562000eca57620013798582815181106200136b57634e487b7160e01b600052603260045260246000fd5b602002602001015162000810565b158015620013b75750620013b5858281518110620013a757634e487b7160e01b600052603260045260246000fd5b6020026020010151620012fd565b155b156200160a576000848281518110620013e057634e487b7160e01b600052603260045260246000fd5b60200260200101518483815181106200140957634e487b7160e01b600052603260045260246000fd5b60200260200101516040516200141f9062002ba7565b6200142c929190620031cf565b604051809103906000f08015801562001449573d6000803e3d6000fd5b50905080600160008885815181106200147257634e487b7160e01b600052603260045260246000fd5b60200260200101516001600160a01b03166001600160a01b0316815260200190815260200160002060006101000a8154816001600160a01b0302191690836001600160a01b03160217905550858281518110620014df57634e487b7160e01b600052603260045260246000fd5b602002602001015160026000836001600160a01b03166001600160a01b0316815260200190815260200160002060006101000a8154816001600160a01b0302191690836001600160a01b0316021790555060038683815181106200155357634e487b7160e01b600052603260045260246000fd5b60209081029190910181015182546001810184556000938452919092200180546001600160a01b0319166001600160a01b0390921691909117905585517f477e5c7d85f3de93afbcad26bdf96f48e48da2fe002f3e35e7aa07bf174daeff90879084908110620015d357634e487b7160e01b600052603260045260246000fd5b602002602001015182604051620016009291906001600160a01b0392831681529116602082015260400190565b60405180910390a1505b8062001616816200339e565b9150506200133c565b6000918252602082815260408084206001600160a01b0393909316845291905290205460ff1690565b600080516020620044db833981519152620016648133620020bd565b82620016708162001ce4565b6200168f5760405162461bcd60e51b81526004016200085d9062003247565b6200169a8462001987565b831115620016fa5760405162461bcd60e51b815260206004820152602660248201527f43616e6e6f7420636c61696d206d6f7265207468616e20746f74616c206c697160448201526575696469747960d01b60648201526084016200085d565b3360009081526005602090815260408083206001600160a01b03881684529091529020546200172a908462002676565b3360009081526005602090815260408083206001600160a01b038916845282528083209390935560069052205462001763908462002676565b6001600160a01b03851660008181526006602090815260409182902093909355805191825291810185905233917f70eb43c4a8ae8c40502dcf22436c509c28d6ff421cf07c491be56984bd98706891015b60405180910390a250505050565b600082620017d08162001ce4565b620017ef5760405162461bcd60e51b81526004016200085d9062003247565b6000620017fc8562000ed1565b905060006200180c86866200102b565b905060008111620018605760405162461bcd60e51b815260206004820152601860248201527f4e6f7420656e6f75676820746f6b656e73207374616b6564000000000000000060448201526064016200085d565b620018776001600160a01b038716333088620022dc565b6001600160a01b0382166340c10f19336040516001600160e01b031960e084901b1681526001600160a01b03909116600482015260248101849052604401600060405180830381600087803b158015620018d057600080fd5b505af1158015620018e5573d6000803e3d6000fd5b50505050620018f13390565b604080516001600160a01b038981168252602082018990529181018490529116907f63602d0ecc7b3a0ef7ff1a116e23056662d64280355ba8031b6d0d767c4b44589060600160405180910390a295945050505050565b600080516020620044bb833981519152620019648133620020bd565b50600b80546001600160a01b0319166001600160a01b0392909216919091179055565b6001600160a01b038116600090815260066020526040812054620019b781620019b08562001d18565b90620023e4565b9392505050565b600080516020620044db833981519152620019da8133620020bd565b82620019e68162000810565b62001a345760405162461bcd60e51b815260206004820152601c60248201527f4f6e6c7920706f6f6c20746f6b656e73206d617920626520757365640000000060448201526064016200085d565b3360009081526005602090815260408083206001600160a01b038816845290915290205483111562001ab85760405162461bcd60e51b815260206004820152602660248201527f43616e6e6f7420756e636c61696d206d6f7265207468616e2063757272656e7460448201526520636c61696d60d01b60648201526084016200085d565b3360009081526005602090815260408083206001600160a01b038816845290915290205462001ae89084620023e4565b3360009081526005602090815260408083206001600160a01b038916845282528083209390935560069052205462001b219084620023e4565b6001600160a01b03851660008181526006602090815260409182902093909355805191825291810185905233917fb357d3c8cf2c37863e04f4c71afd0e8bef633cec94ee21866dc4e7058932a4899101620017b4565b60008062001b864384620023e4565b905060008062001b968762001229565b600c54919350915062000ff79062000c2683818762001bb68c89620023c8565b90620023c8565b60008281526020819052604090206001015462001bdb8133620020bd565b62000a85838362002274565b600080516020620044bb83398151915262001c038133620020bd565b60005b835181101562001cde5762001c358482815181106200136b57634e487b7160e01b600052603260045260246000fd5b1562001cc95782818151811062001c5c57634e487b7160e01b600052603260045260246000fd5b60200260200101516004600086848151811062001c8957634e487b7160e01b600052603260045260246000fd5b60200260200101516001600160a01b03166001600160a01b0316815260200190815260200160002060006101000a81548160ff0219169083151502179055505b8062001cd5816200339e565b91505062001c06565b50505050565b600062001cf18262000810565b80156200080a5750506001600160a01b031660009081526004602052604090205460ff1690565b6040516370a0823160e01b81523060048201526000906001600160a01b038316906370a082319060240160206040518083038186803b15801562001d5b57600080fd5b505afa15801562001d70573d6000803e3d6000fd5b505050506040513d601f19601f820116820180604052508101906200080a9190620030ba565b600080516020620044bb83398151915262001db28133620020bd565b60005b845181101562000eca5783818151811062001de057634e487b7160e01b600052603260045260246000fd5b6020026020010151600d600087848151811062001e0d57634e487b7160e01b600052603260045260246000fd5b60200260200101516001600160a01b03166001600160a01b031681526020019081526020016000206000018190555082818151811062001e5d57634e487b7160e01b600052603260045260246000fd5b6020026020010151600d600087848151811062001e8a57634e487b7160e01b600052603260045260246000fd5b60200260200101516001600160a01b03166001600160a01b0316815260200190815260200160002060010181905550808062001ec6906200339e565b91505062001db5565b600080516020620044db83398151915262001eeb8133620020bd565b8262001ef78162001ce4565b62001f165760405162461bcd60e51b81526004016200085d9062003247565b62001f218462001987565b83111562001f865760405162461bcd60e51b815260206004820152602b60248201527f576974686472617720616d6f756e74206578636565647320617661696c61626c60448201526a65206c697175696469747960a81b60648201526084016200085d565b62001f9c6001600160a01b038516338562002058565b604080516001600160a01b03861681526020810185905233917f9b1bfa7fa9ee420a16e124f794c35ac9f90472acc99140eb2f6447c714cad8eb9101620017b4565b600062001feb82620012fd565b80156200080a575060046000620020028462000d44565b6001600160a01b0316815260208101919091526040016000205460ff1692915050565b600080620020338362001987565b90506000620020428462001d18565b9050620020508183620023e4565b949350505050565b6040516001600160a01b03831660248201526044810182905262000a8590849063a9059cbb60e01b906064015b60408051601f198184030181529190526020810180516001600160e01b03166001600160e01b03199093169290921790915262002684565b620020c982826200161f565b62000a5757620020e4816001600160a01b031660146200275d565b620020f18360206200275d565b6040516020016200210492919062003141565b60408051601f198184030181529082905262461bcd60e51b82526200085d91600401620031ba565b62002138828262002953565b15620021925760405162461bcd60e51b815260206004820152602260248201527f4164647265737320616c72656164792065786973747320696e207468652073656044820152613a1760f11b60648201526084016200085d565b6001828101805480830182556000828152602090200180546001600160a01b0319166001600160a01b03851617905554620021ce91906200333b565b6001600160a01b039091166000908152602092909252604090912055565b620021f882826200161f565b62000a57576000828152602081815260408083206001600160a01b03851684529091529020805460ff19166001179055620022303390565b6001600160a01b0316816001600160a01b0316837f2f8788117e7eff1d82e926ec794901d17c78024a50270940304540a733656f0d60405160405180910390a45050565b6200228082826200161f565b1562000a57576000828152602081815260408083206001600160a01b0385168085529252808320805460ff1916905551339285917ff6391f5c32d9c69d2a47ea670b442974b53935d1edc7fd64eb21e047a839171b9190a45050565b6040516001600160a01b038085166024830152831660448201526064810182905262001cde9085906323b872dd60e01b9060840162002085565b60008062002323620029c5565b905060006200238382514443620023373390565b6040805160208101949094528301919091526bffffffffffffffffffffffff19606091821b169082015260740160408051601f1981840301815291905280516020909101209062002a29565b9050818181518110620023a657634e487b7160e01b600052603260045260246000fd5b60200260200101519250505090565b6060620023c3600962002a37565b905090565b6000620019b7828462003319565b6000620019b7828462003302565b6000620019b782846200333b565b620023fe828262002953565b620024575760405162461bcd60e51b815260206004820152602260248201527f4164647265737320646f6573206e6f7420657869737420696e207468652073656044820152613a1760f11b60648201526084016200085d565b600182810180546000926200246c916200333b565b815481106200248b57634e487b7160e01b600052603260045260246000fd5b60009182526020808320909101546001600160a01b03858116845291869052604080842054929091168084529220819055600185018054929350909183919083908110620024e957634e487b7160e01b600052603260045260246000fd5b600091825260208083209190910180546001600160a01b0319166001600160a01b039485161790559185168152908590526040812055600184018054806200254157634e487b7160e01b600052603160045260246000fd5b600082815260209020810160001990810180546001600160a01b031916905501905550505050565b6000806000620025aa866000015162001bb66200259887602001518960000151620023c890919063ffffffff16565b60208901518851620019b09162002676565b90506000620025d4876020015162001bb688602001518860200151620023c890919063ffffffff16565b9050600062002610620025fa876020015162001bb68c87620023c890919063ffffffff16565b8751620019b090859062001bb6908f90620023c8565b90506000620026328362001bb689602001518d620023c890919063ffffffff16565b919b919a509098505050505050505050565b8051600090819062002658908690620023c8565b60208401516200266a908690620023c8565b91509150935093915050565b6000620019b78284620032e7565b6000620026db826040518060400160405280602081526020017f5361666545524332303a206c6f772d6c6576656c2063616c6c206661696c6564815250856001600160a01b031662002a9f9092919063ffffffff16565b80519091501562000a855780806020019051810190620026fc919062002f8f565b62000a855760405162461bcd60e51b815260206004820152602a60248201527f5361666545524332303a204552433230206f7065726174696f6e20646964206e6044820152691bdd081cdd58d8d9595960b21b60648201526084016200085d565b606060006200276e83600262003319565b6200277b906002620032e7565b67ffffffffffffffff811115620027a257634e487b7160e01b600052604160045260246000fd5b6040519080825280601f01601f191660200182016040528015620027cd576020820181803683370190505b509050600360fc1b81600081518110620027f757634e487b7160e01b600052603260045260246000fd5b60200101906001600160f81b031916908160001a905350600f60fb1b816001815181106200283557634e487b7160e01b600052603260045260246000fd5b60200101906001600160f81b031916908160001a90535060006200285b84600262003319565b62002868906001620032e7565b90505b600181111562002902576f181899199a1a9b1b9c1cb0b131b232b360811b85600f1660108110620028ac57634e487b7160e01b600052603260045260246000fd5b1a60f81b828281518110620028d157634e487b7160e01b600052603260045260246000fd5b60200101906001600160f81b031916908160001a90535060049490941c93620028fa8162003384565b90506200286b565b508315620019b75760405162461bcd60e51b815260206004820181905260248201527f537472696e67733a20686578206c656e67746820696e73756666696369656e7460448201526064016200085d565b600182015460009062002969575060006200080a565b6001600160a01b0382166000818152602085905260409020546001850180549091908110620029a857634e487b7160e01b600052603260045260246000fd5b6000918252602090912001546001600160a01b0316149392505050565b6060600380548060200260200160405190810160405280929190818152602001828054801562002a1f57602002820191906000526020600020905b81546001600160a01b0316815260019091019060200180831162002a00575b5050505050905090565b6000620019b78284620033bc565b60608160010180548060200260200160405190810160405280929190818152602001828054801562002a9357602002820191906000526020600020905b81546001600160a01b0316815260019091019060200180831162002a74575b50505050509050919050565b606062002050848460008585843b62002afb5760405162461bcd60e51b815260206004820152601d60248201527f416464726573733a2063616c6c20746f206e6f6e2d636f6e747261637400000060448201526064016200085d565b600080866001600160a01b0316858760405162002b19919062003123565b60006040518083038185875af1925050503d806000811462002b58576040519150601f19603f3d011682016040523d82523d6000602084013e62002b5d565b606091505b509150915062000ff78282866060831562002b7a575081620019b7565b82511562002b8b5782518084602001fd5b8160405162461bcd60e51b81526004016200085d9190620031ba565b61107d806200343e83390190565b600082601f83011262002bc6578081fd5b8135602062002bdf62002bd983620032c0565b6200328c565b80838252828201915082860187848660051b890101111562002bff578586fd5b855b8581101562002c2a57813562002c178162003415565b8452928401929084019060010162002c01565b5090979650505050505050565b6000601f838184011262002c49578182fd5b8235602062002c5c62002bd983620032c0565b80838252828201915082870188848660051b8a0101111562002c7c578687fd5b865b8581101562002d1957813567ffffffffffffffff8082111562002c9f57898afd5b818b0191508b603f83011262002cb357898afd5b8682013560408282111562002ccc5762002ccc620033ff565b62002cdf828c01601f19168a016200328c565b92508183528d8183860101111562002cf5578b8cfd5b818185018a85013750810187018a9052855250928401929084019060010162002c7e565b509098975050505050505050565b600082601f83011262002d38578081fd5b8135602062002d4b62002bd983620032c0565b80838252828201915082860187848660051b890101111562002d6b578586fd5b855b8581101562002c2a5781358452928401929084019060010162002d6d565b60006020828403121562002d9d578081fd5b8135620019b78162003415565b6000806040838503121562002dbd578081fd5b823567ffffffffffffffff8082111562002dd5578283fd5b62002de38683870162002bb5565b935060209150818501358181111562002dfa578384fd5b85019050601f8101861362002e0d578283fd5b803562002e1e62002bd982620032c0565b80828252848201915084840189868560051b870101111562002e3e578687fd5b8694505b8385101562002e6d57803562002e58816200342e565b83526001949094019391850191850162002e42565b5080955050505050509250929050565b60008060006060848603121562002e92578081fd5b833567ffffffffffffffff8082111562002eaa578283fd5b62002eb88783880162002bb5565b9450602086013591508082111562002ece578283fd5b62002edc8783880162002c37565b9350604086013591508082111562002ef2578283fd5b5062002f018682870162002c37565b9150509250925092565b60008060006060848603121562002f20578283fd5b833567ffffffffffffffff8082111562002f38578485fd5b62002f468783880162002bb5565b9450602086013591508082111562002f5c578384fd5b62002f6a8783880162002d27565b9350604086013591508082111562002f80578283fd5b5062002f018682870162002d27565b60006020828403121562002fa1578081fd5b8151620019b7816200342e565b60006020828403121562002fc0578081fd5b5035919050565b6000806040838503121562002fda578182fd5b82359150602083013562002fee8162003415565b809150509250929050565b6000602082840312156200300b578081fd5b81356001600160e01b031981168114620019b7578182fd5b6000806040838503121562003036578182fd5b8235620030438162003415565b9150602083013562002fee8162003415565b6000806040838503121562003068578182fd5b8235620030758162003415565b946020939093013593505050565b60008060006060848603121562003098578081fd5b8335620030a58162003415565b95602085013595506040909401359392505050565b600060208284031215620030cc578081fd5b5051919050565b60008060408385031215620030e6578182fd5b50508035926020909101359150565b600081518084526200310f81602086016020860162003355565b601f01601f19169290920160200192915050565b600082516200313781846020870162003355565b9190910192915050565b7f416363657373436f6e74726f6c3a206163636f756e74200000000000000000008152600083516200317b81601785016020880162003355565b7001034b99036b4b9b9b4b733903937b6329607d1b6017918401918201528351620031ae81602884016020880162003355565b01602801949350505050565b602081526000620019b76020830184620030f5565b604081526000620031e46040830185620030f5565b8281036020840152620031f88185620030f5565b95945050505050565b60208082526026908201527f4f6e6c79206c697175696469747920706f6f6c20746f6b656e73206d6179206260408201526519481d5cd95960d21b606082015260800190565b60208082526025908201527f4f6e6c7920617070726f76656420706f6f6c20746f6b656e73206d6179206265604082015264081d5cd95960da1b606082015260800190565b604051601f8201601f1916810167ffffffffffffffff81118282101715620032b857620032b8620033ff565b604052919050565b600067ffffffffffffffff821115620032dd57620032dd620033ff565b5060051b60200190565b60008219821115620032fd57620032fd620033d3565b500190565b600082620033145762003314620033e9565b500490565b6000816000190483118215151615620033365762003336620033d3565b500290565b600082821015620033505762003350620033d3565b500390565b60005b838110156200337257818101518382015260200162003358565b8381111562001cde5750506000910152565b600081620033965762003396620033d3565b506000190190565b6000600019821415620033b557620033b5620033d3565b5060010190565b600082620033ce57620033ce620033e9565b500690565b634e487b7160e01b600052601160045260246000fd5b634e487b7160e01b600052601260045260246000fd5b634e487b7160e01b600052604160045260246000fd5b6001600160a01b03811681146200342b57600080fd5b50565b80151581146200342b57600080fdfe60806040523480156200001157600080fd5b506040516200107d3803806200107d833981016040819052620000349162000237565b8151829082906200004d906003906020850190620000de565b50805162000063906004906020840190620000de565b505050620000806200007a6200008860201b60201c565b6200008c565b5050620002f1565b3390565b600580546001600160a01b038381166001600160a01b0319831681179093556040519116919082907f8be0079c531659141344cd1fd0a4f28419497f9722a3daafe3b4186f6b6457e090600090a35050565b828054620000ec906200029e565b90600052602060002090601f0160209004810192826200011057600085556200015b565b82601f106200012b57805160ff19168380011785556200015b565b828001600101855582156200015b579182015b828111156200015b5782518255916020019190600101906200013e565b50620001699291506200016d565b5090565b5b808211156200016957600081556001016200016e565b600082601f83011262000195578081fd5b81516001600160401b0380821115620001b257620001b2620002db565b604051601f8301601f19908116603f01168101908282118183101715620001dd57620001dd620002db565b81604052838152602092508683858801011115620001f9578485fd5b8491505b838210156200021c5785820183015181830184015290820190620001fd565b838211156200022d57848385830101525b9695505050505050565b600080604083850312156200024a578182fd5b82516001600160401b038082111562000261578384fd5b6200026f8683870162000184565b9350602085015191508082111562000285578283fd5b50620002948582860162000184565b9150509250929050565b600181811c90821680620002b357607f821691505b60208210811415620002d557634e487b7160e01b600052602260045260246000fd5b50919050565b634e487b7160e01b600052604160045260246000fd5b610d7c80620003016000396000f3fe608060405234801561001057600080fd5b50600436106101005760003560e01c8063715018a611610097578063a457c2d711610066578063a457c2d714610209578063a9059cbb1461021c578063dd62ed3e1461022f578063f2fde38b1461026857600080fd5b8063715018a6146101cb5780638da5cb5b146101d357806395d89b41146101ee5780639dc29fac146101f657600080fd5b8063313ce567116100d3578063313ce5671461016b578063395093511461017a57806340c10f191461018d57806370a08231146101a257600080fd5b806306fdde0314610105578063095ea7b31461012357806318160ddd1461014657806323b872dd14610158575b600080fd5b61010d61027b565b60405161011a9190610c3e565b60405180910390f35b610136610131366004610c15565b61030d565b604051901515815260200161011a565b6002545b60405190815260200161011a565b610136610166366004610bda565b610323565b6040516012815260200161011a565b610136610188366004610c15565b6103d2565b6101a061019b366004610c15565b61040e565b005b61014a6101b0366004610b87565b6001600160a01b031660009081526020819052604090205490565b6101a0610446565b6005546040516001600160a01b03909116815260200161011a565b61010d61047c565b6101a0610204366004610c15565b61048b565b610136610217366004610c15565b6104bf565b61013661022a366004610c15565b610558565b61014a61023d366004610ba8565b6001600160a01b03918216600090815260016020908152604080832093909416825291909152205490565b6101a0610276366004610b87565b610565565b60606003805461028a90610cf5565b80601f01602080910402602001604051908101604052809291908181526020018280546102b690610cf5565b80156103035780601f106102d857610100808354040283529160200191610303565b820191906000526020600020905b8154815290600101906020018083116102e657829003601f168201915b5050505050905090565b600061031a338484610600565b50600192915050565b6000610330848484610725565b6001600160a01b0384166000908152600160209081526040808320338452909152902054828110156103ba5760405162461bcd60e51b815260206004820152602860248201527f45524332303a207472616e7366657220616d6f756e74206578636565647320616044820152676c6c6f77616e636560c01b60648201526084015b60405180910390fd5b6103c78533858403610600565b506001949350505050565b3360008181526001602090815260408083206001600160a01b0387168452909152812054909161031a918590610409908690610cc6565b610600565b6005546001600160a01b031633146104385760405162461bcd60e51b81526004016103b190610c91565b61044282826108f4565b5050565b6005546001600160a01b031633146104705760405162461bcd60e51b81526004016103b190610c91565b61047a60006109d3565b565b60606004805461028a90610cf5565b6005546001600160a01b031633146104b55760405162461bcd60e51b81526004016103b190610c91565b6104428282610a25565b3360009081526001602090815260408083206001600160a01b0386168452909152812054828110156105415760405162461bcd60e51b815260206004820152602560248201527f45524332303a2064656372656173656420616c6c6f77616e63652062656c6f77604482015264207a65726f60d81b60648201526084016103b1565b61054e3385858403610600565b5060019392505050565b600061031a338484610725565b6005546001600160a01b0316331461058f5760405162461bcd60e51b81526004016103b190610c91565b6001600160a01b0381166105f45760405162461bcd60e51b815260206004820152602660248201527f4f776e61626c653a206e6577206f776e657220697320746865207a65726f206160448201526564647265737360d01b60648201526084016103b1565b6105fd816109d3565b50565b6001600160a01b0383166106625760405162461bcd60e51b8152602060048201526024808201527f45524332303a20617070726f76652066726f6d20746865207a65726f206164646044820152637265737360e01b60648201526084016103b1565b6001600160a01b0382166106c35760405162461bcd60e51b815260206004820152602260248201527f45524332303a20617070726f766520746f20746865207a65726f206164647265604482015261737360f01b60648201526084016103b1565b6001600160a01b0383811660008181526001602090815260408083209487168084529482529182902085905590518481527f8c5be1e5ebec7d5bd14f71427d1e84f3dd0314c0f7b2291e5b200ac8c7c3b92591015b60405180910390a3505050565b6001600160a01b0383166107895760405162461bcd60e51b815260206004820152602560248201527f45524332303a207472616e736665722066726f6d20746865207a65726f206164604482015264647265737360d81b60648201526084016103b1565b6001600160a01b0382166107eb5760405162461bcd60e51b815260206004820152602360248201527f45524332303a207472616e7366657220746f20746865207a65726f206164647260448201526265737360e81b60648201526084016103b1565b6001600160a01b038316600090815260208190526040902054818110156108635760405162461bcd60e51b815260206004820152602660248201527f45524332303a207472616e7366657220616d6f756e7420657863656564732062604482015265616c616e636560d01b60648201526084016103b1565b6001600160a01b0380851660009081526020819052604080822085850390559185168152908120805484929061089a908490610cc6565b92505081905550826001600160a01b0316846001600160a01b03167fddf252ad1be2c89b69c2b068fc378daa952ba7f163c4a11628f55a4df523b3ef846040516108e691815260200190565b60405180910390a350505050565b6001600160a01b03821661094a5760405162461bcd60e51b815260206004820152601f60248201527f45524332303a206d696e7420746f20746865207a65726f20616464726573730060448201526064016103b1565b806002600082825461095c9190610cc6565b90915550506001600160a01b03821660009081526020819052604081208054839290610989908490610cc6565b90915550506040518181526001600160a01b038316906000907fddf252ad1be2c89b69c2b068fc378daa952ba7f163c4a11628f55a4df523b3ef9060200160405180910390a35050565b600580546001600160a01b038381166001600160a01b0319831681179093556040519116919082907f8be0079c531659141344cd1fd0a4f28419497f9722a3daafe3b4186f6b6457e090600090a35050565b6001600160a01b038216610a855760405162461bcd60e51b815260206004820152602160248201527f45524332303a206275726e2066726f6d20746865207a65726f206164647265736044820152607360f81b60648201526084016103b1565b6001600160a01b03821660009081526020819052604090205481811015610af95760405162461bcd60e51b815260206004820152602260248201527f45524332303a206275726e20616d6f756e7420657863656564732062616c616e604482015261636560f01b60648201526084016103b1565b6001600160a01b0383166000908152602081905260408120838303905560028054849290610b28908490610cde565b90915550506040518281526000906001600160a01b038516907fddf252ad1be2c89b69c2b068fc378daa952ba7f163c4a11628f55a4df523b3ef90602001610718565b80356001600160a01b0381168114610b8257600080fd5b919050565b600060208284031215610b98578081fd5b610ba182610b6b565b9392505050565b60008060408385031215610bba578081fd5b610bc383610b6b565b9150610bd160208401610b6b565b90509250929050565b600080600060608486031215610bee578081fd5b610bf784610b6b565b9250610c0560208501610b6b565b9150604084013590509250925092565b60008060408385031215610c27578182fd5b610c3083610b6b565b946020939093013593505050565b6000602080835283518082850152825b81811015610c6a57858101830151858201604001528201610c4e565b81811115610c7b5783604083870101525b50601f01601f1916929092016040019392505050565b6020808252818101527f4f776e61626c653a2063616c6c6572206973206e6f7420746865206f776e6572604082015260600190565b60008219821115610cd957610cd9610d30565b500190565b600082821015610cf057610cf0610d30565b500390565b600181811c90821680610d0957607f821691505b60208210811415610d2a57634e487b7160e01b600052602260045260246000fd5b50919050565b634e487b7160e01b600052601160045260246000fdfea26469706673582212205b6799890ed169949239ccd2d02483277659e3067c272e21c25740018e18181d64736f6c6343000804003324e583e35a20f9ecfc1572e7cb66bcc18ad3cd1650ec40dbf6ad2290e553a9fae6026b923a18d83f4b6e92786fdd85dc8e02e7647281b0d8831236806acf2a30a2646970667358221220e84ede86706b149b2b5e4fa15683afc33fc213dd2e2ae4b08fb7aa06da628c3264736f6c6343000804003324e583e35a20f9ecfc1572e7cb66bcc18ad3cd1650ec40dbf6ad2290e553a9fa",
  "linkReferences": {},
  "deployedLinkReferences": {}
}