{
  "_format": "hh-sol-artifact-1",
  "contractName": "LPool",
  "sourceName": "contracts/LPool/LPool.sol",
  "abi": [
    {
      "inputs": [
        {
          "internalType": "uint256",
          "name": "taxPercentNumerator_",
          "type": "uint256"
        },
        {
          "internalType": "uint256",
          "name": "taxPercentDenominator_",
          "type": "uint256"
        },
        {
          "internalType": "uint256",
          "name": "blocksPerCompound_",
          "type": "uint256"
        }
      ],
      "stateMutability": "nonpayable",
      "type": "constructor"
    },
    {
      "anonymous": false,
      "inputs": [
        {
          "indexed": false,
          "internalType": "contract IERC20",
          "name": "token",
          "type": "address"
        },
        {
          "indexed": false,
          "internalType": "contract IERC20",
          "name": "LPToken",
          "type": "address"
        }
      ],
      "name": "Approved",
      "type": "event"
    },
    {
      "anonymous": false,
      "inputs": [
        {
          "indexed": true,
          "internalType": "address",
          "name": "account",
          "type": "address"
        },
        {
          "indexed": false,
          "internalType": "contract IERC20",
          "name": "token",
          "type": "address"
        },
        {
          "indexed": false,
          "internalType": "uint256",
          "name": "amount",
          "type": "uint256"
        }
      ],
      "name": "Claim",
      "type": "event"
    },
    {
      "anonymous": false,
      "inputs": [
        {
          "indexed": true,
          "internalType": "address",
          "name": "account",
          "type": "address"
        },
        {
          "indexed": false,
          "internalType": "contract IERC20",
          "name": "token",
          "type": "address"
        },
        {
          "indexed": false,
          "internalType": "uint256",
          "name": "amount",
          "type": "uint256"
        },
        {
          "indexed": false,
          "internalType": "uint256",
          "name": "totalTax",
          "type": "uint256"
        },
        {
          "indexed": false,
          "internalType": "address[]",
          "name": "taxAccount",
          "type": "address[]"
        }
      ],
      "name": "Deposit",
      "type": "event"
    },
    {
      "anonymous": false,
      "inputs": [
        {
          "indexed": true,
          "internalType": "address",
          "name": "account",
          "type": "address"
        },
        {
          "indexed": false,
          "internalType": "contract IERC20",
          "name": "token",
          "type": "address"
        },
        {
          "indexed": false,
          "internalType": "uint256",
          "name": "amount",
          "type": "uint256"
        }
      ],
      "name": "Loaned",
      "type": "event"
    },
    {
      "anonymous": false,
      "inputs": [
        {
          "indexed": true,
          "internalType": "address",
          "name": "account",
          "type": "address"
        },
        {
          "indexed": false,
          "internalType": "contract IERC20",
          "name": "token",
          "type": "address"
        },
        {
          "indexed": false,
          "internalType": "uint256",
          "name": "amount",
          "type": "uint256"
        },
        {
          "indexed": false,
          "internalType": "uint256",
          "name": "value",
          "type": "uint256"
        }
      ],
      "name": "Redeem",
      "type": "event"
    },
    {
      "anonymous": false,
      "inputs": [
        {
          "indexed": true,
          "internalType": "address",
          "name": "account",
          "type": "address"
        },
        {
          "indexed": false,
          "internalType": "contract IERC20",
          "name": "token",
          "type": "address"
        },
        {
          "indexed": false,
          "internalType": "uint256",
          "name": "amount",
          "type": "uint256"
        }
      ],
      "name": "Repay",
      "type": "event"
    },
    {
      "anonymous": false,
      "inputs": [
        {
          "indexed": true,
          "internalType": "bytes32",
          "name": "role",
          "type": "bytes32"
        },
        {
          "indexed": true,
          "internalType": "bytes32",
          "name": "previousAdminRole",
          "type": "bytes32"
        },
        {
          "indexed": true,
          "internalType": "bytes32",
          "name": "newAdminRole",
          "type": "bytes32"
        }
      ],
      "name": "RoleAdminChanged",
      "type": "event"
    },
    {
      "anonymous": false,
      "inputs": [
        {
          "indexed": true,
          "internalType": "bytes32",
          "name": "role",
          "type": "bytes32"
        },
        {
          "indexed": true,
          "internalType": "address",
          "name": "account",
          "type": "address"
        },
        {
          "indexed": true,
          "internalType": "address",
          "name": "sender",
          "type": "address"
        }
      ],
      "name": "RoleGranted",
      "type": "event"
    },
    {
      "anonymous": false,
      "inputs": [
        {
          "indexed": true,
          "internalType": "bytes32",
          "name": "role",
          "type": "bytes32"
        },
        {
          "indexed": true,
          "internalType": "address",
          "name": "account",
          "type": "address"
        },
        {
          "indexed": true,
          "internalType": "address",
          "name": "sender",
          "type": "address"
        }
      ],
      "name": "RoleRevoked",
      "type": "event"
    },
    {
      "anonymous": false,
      "inputs": [
        {
          "indexed": true,
          "internalType": "address",
          "name": "account",
          "type": "address"
        },
        {
          "indexed": false,
          "internalType": "contract IERC20",
          "name": "token",
          "type": "address"
        },
        {
          "indexed": false,
          "internalType": "uint256",
          "name": "amount",
          "type": "uint256"
        },
        {
          "indexed": false,
          "internalType": "uint256",
          "name": "value",
          "type": "uint256"
        }
      ],
      "name": "Stake",
      "type": "event"
    },
    {
      "anonymous": false,
      "inputs": [
        {
          "indexed": true,
          "internalType": "address",
          "name": "account",
          "type": "address"
        },
        {
          "indexed": false,
          "internalType": "contract IERC20",
          "name": "token",
          "type": "address"
        },
        {
          "indexed": false,
          "internalType": "uint256",
          "name": "amount",
          "type": "uint256"
        }
      ],
      "name": "Unclaim",
      "type": "event"
    },
    {
      "anonymous": false,
      "inputs": [
        {
          "indexed": true,
          "internalType": "address",
          "name": "account",
          "type": "address"
        },
        {
          "indexed": false,
          "internalType": "contract IERC20",
          "name": "token",
          "type": "address"
        },
        {
          "indexed": false,
          "internalType": "uint256",
          "name": "amount",
          "type": "uint256"
        }
      ],
      "name": "Withdraw",
      "type": "event"
    },
    {
      "inputs": [],
      "name": "DEFAULT_ADMIN_ROLE",
      "outputs": [
        {
          "internalType": "bytes32",
          "name": "",
          "type": "bytes32"
        }
      ],
      "stateMutability": "view",
      "type": "function"
    },
    {
      "inputs": [
        {
          "internalType": "contract IERC20",
          "name": "token_",
          "type": "address"
        }
      ],
      "name": "LPFromPA",
      "outputs": [
        {
          "internalType": "contract IERC20",
          "name": "",
          "type": "address"
        }
      ],
      "stateMutability": "view",
      "type": "function"
    },
    {
      "inputs": [
        {
          "internalType": "contract IERC20",
          "name": "token_",
          "type": "address"
        }
      ],
      "name": "PAFromLP",
      "outputs": [
        {
          "internalType": "contract IERC20",
          "name": "",
          "type": "address"
        }
      ],
      "stateMutability": "view",
      "type": "function"
    },
    {
      "inputs": [],
      "name": "POOL_ADMIN",
      "outputs": [
        {
          "internalType": "bytes32",
          "name": "",
          "type": "bytes32"
        }
      ],
      "stateMutability": "view",
      "type": "function"
    },
    {
      "inputs": [],
      "name": "POOL_APPROVED",
      "outputs": [
        {
          "internalType": "bytes32",
          "name": "",
          "type": "bytes32"
        }
      ],
      "stateMutability": "view",
      "type": "function"
    },
    {
      "inputs": [
        {
          "internalType": "address",
          "name": "account_",
          "type": "address"
        }
      ],
      "name": "addTaxAccount",
      "outputs": [],
      "stateMutability": "nonpayable",
      "type": "function"
    },
    {
      "inputs": [
        {
          "internalType": "contract IERC20[]",
          "name": "token_",
          "type": "address[]"
        },
        {
          "internalType": "string[]",
          "name": "name_",
          "type": "string[]"
        },
        {
          "internalType": "string[]",
          "name": "symbol_",
          "type": "string[]"
        }
      ],
      "name": "approve",
      "outputs": [],
      "stateMutability": "nonpayable",
      "type": "function"
    },
    {
      "inputs": [],
      "name": "blocksPerCompound",
      "outputs": [
        {
          "internalType": "uint256",
          "name": "",
          "type": "uint256"
        }
      ],
      "stateMutability": "view",
      "type": "function"
    },
    {
      "inputs": [
        {
          "internalType": "contract IERC20",
          "name": "token_",
          "type": "address"
        },
        {
          "internalType": "uint256",
          "name": "amount_",
          "type": "uint256"
        }
      ],
      "name": "claim",
      "outputs": [],
      "stateMutability": "nonpayable",
      "type": "function"
    },
    {
      "inputs": [
        {
          "internalType": "contract IERC20",
          "name": "token_",
          "type": "address"
        },
        {
          "internalType": "address",
          "name": "account_",
          "type": "address"
        }
      ],
      "name": "claimed",
      "outputs": [
        {
          "internalType": "uint256",
          "name": "",
          "type": "uint256"
        }
      ],
      "stateMutability": "view",
      "type": "function"
    },
    {
      "inputs": [
        {
          "internalType": "contract IERC20",
          "name": "token_",
          "type": "address"
        },
        {
          "internalType": "uint256",
          "name": "amount_",
          "type": "uint256"
        }
      ],
      "name": "deposit",
      "outputs": [],
      "stateMutability": "nonpayable",
      "type": "function"
    },
    {
      "inputs": [
        {
          "internalType": "bytes32",
          "name": "role",
          "type": "bytes32"
        }
      ],
      "name": "getRoleAdmin",
      "outputs": [
        {
          "internalType": "bytes32",
          "name": "",
          "type": "bytes32"
        }
      ],
      "stateMutability": "view",
      "type": "function"
    },
    {
      "inputs": [
        {
          "internalType": "bytes32",
          "name": "role",
          "type": "bytes32"
        },
        {
          "internalType": "address",
          "name": "account",
          "type": "address"
        }
      ],
      "name": "grantRole",
      "outputs": [],
      "stateMutability": "nonpayable",
      "type": "function"
    },
    {
      "inputs": [
        {
          "internalType": "bytes32",
          "name": "role",
          "type": "bytes32"
        },
        {
          "internalType": "address",
          "name": "account",
          "type": "address"
        }
      ],
      "name": "hasRole",
      "outputs": [
        {
          "internalType": "bool",
          "name": "",
          "type": "bool"
        }
      ],
      "stateMutability": "view",
      "type": "function"
    },
    {
      "inputs": [
        {
          "internalType": "contract IERC20",
          "name": "token_",
          "type": "address"
        },
        {
          "internalType": "uint256",
          "name": "initialBorrow_",
          "type": "uint256"
        },
        {
          "internalType": "uint256",
          "name": "borrowBlock_",
          "type": "uint256"
        }
      ],
      "name": "interest",
      "outputs": [
        {
          "internalType": "uint256",
          "name": "",
          "type": "uint256"
        }
      ],
      "stateMutability": "view",
      "type": "function"
    },
    {
      "inputs": [
        {
          "internalType": "contract IERC20",
          "name": "token_",
          "type": "address"
        }
      ],
      "name": "interestRate",
      "outputs": [
        {
          "internalType": "uint256",
          "name": "",
          "type": "uint256"
        },
        {
          "internalType": "uint256",
          "name": "",
          "type": "uint256"
        }
      ],
      "stateMutability": "view",
      "type": "function"
    },
    {
      "inputs": [
        {
          "internalType": "contract IERC20",
          "name": "token_",
          "type": "address"
        }
      ],
      "name": "isLP",
      "outputs": [
        {
          "internalType": "bool",
          "name": "",
          "type": "bool"
        }
      ],
      "stateMutability": "view",
      "type": "function"
    },
    {
      "inputs": [
        {
          "internalType": "contract IERC20",
          "name": "token_",
          "type": "address"
        }
      ],
      "name": "isPA",
      "outputs": [
        {
          "internalType": "bool",
          "name": "",
          "type": "bool"
        }
      ],
      "stateMutability": "view",
      "type": "function"
    },
    {
      "inputs": [
        {
          "internalType": "contract IERC20",
          "name": "token_",
          "type": "address"
        }
      ],
      "name": "liquidity",
      "outputs": [
        {
          "internalType": "uint256",
          "name": "",
          "type": "uint256"
        }
      ],
      "stateMutability": "view",
      "type": "function"
    },
    {
      "inputs": [
        {
          "internalType": "contract IERC20",
          "name": "token_",
          "type": "address"
        },
        {
          "internalType": "uint256",
          "name": "amount_",
          "type": "uint256"
        }
      ],
      "name": "loan",
      "outputs": [],
      "stateMutability": "nonpayable",
      "type": "function"
    },
    {
      "inputs": [
        {
          "internalType": "contract IERC20",
          "name": "token_",
          "type": "address"
        },
        {
          "internalType": "address",
          "name": "account_",
          "type": "address"
        }
      ],
      "name": "loaned",
      "outputs": [
        {
          "internalType": "uint256",
          "name": "",
          "type": "uint256"
        }
      ],
      "stateMutability": "view",
      "type": "function"
    },
    {
      "inputs": [
        {
          "internalType": "contract IERC20",
          "name": "token_",
          "type": "address"
        }
      ],
      "name": "maxInterestMax",
      "outputs": [
        {
          "internalType": "uint256",
          "name": "",
          "type": "uint256"
        },
        {
          "internalType": "uint256",
          "name": "",
          "type": "uint256"
        }
      ],
      "stateMutability": "view",
      "type": "function"
    },
    {
      "inputs": [
        {
          "internalType": "contract IERC20",
          "name": "token_",
          "type": "address"
        }
      ],
      "name": "maxInterestMin",
      "outputs": [
        {
          "internalType": "uint256",
          "name": "",
          "type": "uint256"
        },
        {
          "internalType": "uint256",
          "name": "",
          "type": "uint256"
        }
      ],
      "stateMutability": "view",
      "type": "function"
    },
    {
      "inputs": [
        {
          "internalType": "contract IERC20",
          "name": "token_",
          "type": "address"
        }
      ],
      "name": "maxUtilization",
      "outputs": [
        {
          "internalType": "uint256",
          "name": "",
          "type": "uint256"
        },
        {
          "internalType": "uint256",
          "name": "",
          "type": "uint256"
        }
      ],
      "stateMutability": "view",
      "type": "function"
    },
    {
      "inputs": [
        {
          "internalType": "contract IERC20",
          "name": "token_",
          "type": "address"
        },
        {
          "internalType": "uint256",
          "name": "amount_",
          "type": "uint256"
        }
      ],
      "name": "redeem",
      "outputs": [
        {
          "internalType": "uint256",
          "name": "",
          "type": "uint256"
        }
      ],
      "stateMutability": "nonpayable",
      "type": "function"
    },
    {
      "inputs": [
        {
          "internalType": "contract IERC20",
          "name": "token_",
          "type": "address"
        },
        {
          "internalType": "uint256",
          "name": "amount_",
          "type": "uint256"
        }
      ],
      "name": "redeemValue",
      "outputs": [
        {
          "internalType": "uint256",
          "name": "",
          "type": "uint256"
        }
      ],
      "stateMutability": "view",
      "type": "function"
    },
    {
      "inputs": [
        {
          "internalType": "address",
          "name": "account_",
          "type": "address"
        }
      ],
      "name": "removeTaxAccount",
      "outputs": [],
      "stateMutability": "nonpayable",
      "type": "function"
    },
    {
      "inputs": [
        {
          "internalType": "bytes32",
          "name": "role",
          "type": "bytes32"
        },
        {
          "internalType": "address",
          "name": "account",
          "type": "address"
        }
      ],
      "name": "renounceRole",
      "outputs": [],
      "stateMutability": "nonpayable",
      "type": "function"
    },
    {
      "inputs": [
        {
          "internalType": "contract IERC20",
          "name": "token_",
          "type": "address"
        },
        {
          "internalType": "uint256",
          "name": "amount_",
          "type": "uint256"
        }
      ],
      "name": "repay",
      "outputs": [],
      "stateMutability": "nonpayable",
      "type": "function"
    },
    {
      "inputs": [
        {
          "internalType": "bytes32",
          "name": "role",
          "type": "bytes32"
        },
        {
          "internalType": "address",
          "name": "account",
          "type": "address"
        }
      ],
      "name": "revokeRole",
      "outputs": [],
      "stateMutability": "nonpayable",
      "type": "function"
    },
    {
      "inputs": [
        {
          "internalType": "uint256",
          "name": "blocksPerCompound_",
          "type": "uint256"
        }
      ],
      "name": "setBlocksPerCompound",
      "outputs": [],
      "stateMutability": "nonpayable",
      "type": "function"
    },
    {
      "inputs": [
        {
          "internalType": "contract IERC20[]",
          "name": "token_",
          "type": "address[]"
        },
        {
          "internalType": "uint256[]",
          "name": "percentNumerator_",
          "type": "uint256[]"
        },
        {
          "internalType": "uint256[]",
          "name": "percentDenominator_",
          "type": "uint256[]"
        }
      ],
      "name": "setMaxInterestMax",
      "outputs": [],
      "stateMutability": "nonpayable",
      "type": "function"
    },
    {
      "inputs": [
        {
          "internalType": "contract IERC20[]",
          "name": "token_",
          "type": "address[]"
        },
        {
          "internalType": "uint256[]",
          "name": "percentNumerator_",
          "type": "uint256[]"
        },
        {
          "internalType": "uint256[]",
          "name": "percentDenominator_",
          "type": "uint256[]"
        }
      ],
      "name": "setMaxInterestMin",
      "outputs": [],
      "stateMutability": "nonpayable",
      "type": "function"
    },
    {
      "inputs": [
        {
          "internalType": "contract IERC20[]",
          "name": "token_",
          "type": "address[]"
        },
        {
          "internalType": "uint256[]",
          "name": "percentNumerator_",
          "type": "uint256[]"
        },
        {
          "internalType": "uint256[]",
          "name": "percentDenominator_",
          "type": "uint256[]"
        }
      ],
      "name": "setMaxUtilization",
      "outputs": [],
      "stateMutability": "nonpayable",
      "type": "function"
    },
    {
      "inputs": [
        {
          "internalType": "uint256",
          "name": "taxPercentNumerator_",
          "type": "uint256"
        },
        {
          "internalType": "uint256",
          "name": "taxPercentDenominator_",
          "type": "uint256"
        }
      ],
      "name": "setTaxPercentage",
      "outputs": [],
      "stateMutability": "nonpayable",
      "type": "function"
    },
    {
      "inputs": [
        {
          "internalType": "contract IERC20",
          "name": "token_",
          "type": "address"
        },
        {
          "internalType": "uint256",
          "name": "amount_",
          "type": "uint256"
        }
      ],
      "name": "stake",
      "outputs": [
        {
          "internalType": "uint256",
          "name": "",
          "type": "uint256"
        }
      ],
      "stateMutability": "nonpayable",
      "type": "function"
    },
    {
      "inputs": [
        {
          "internalType": "contract IERC20",
          "name": "token_",
          "type": "address"
        },
        {
          "internalType": "uint256",
          "name": "amount_",
          "type": "uint256"
        }
      ],
      "name": "stakeValue",
      "outputs": [
        {
          "internalType": "uint256",
          "name": "",
          "type": "uint256"
        }
      ],
      "stateMutability": "view",
      "type": "function"
    },
    {
      "inputs": [
        {
          "internalType": "bytes4",
          "name": "interfaceId",
          "type": "bytes4"
        }
      ],
      "name": "supportsInterface",
      "outputs": [
        {
          "internalType": "bool",
          "name": "",
          "type": "bool"
        }
      ],
      "stateMutability": "view",
      "type": "function"
    },
    {
      "inputs": [],
      "name": "taxPercentage",
      "outputs": [
        {
          "internalType": "uint256",
          "name": "",
          "type": "uint256"
        },
        {
          "internalType": "uint256",
          "name": "",
          "type": "uint256"
        }
      ],
      "stateMutability": "view",
      "type": "function"
    },
    {
      "inputs": [
        {
          "internalType": "contract IERC20",
          "name": "token_",
          "type": "address"
        }
      ],
      "name": "totalClaimed",
      "outputs": [
        {
          "internalType": "uint256",
          "name": "",
          "type": "uint256"
        }
      ],
      "stateMutability": "view",
      "type": "function"
    },
    {
      "inputs": [
        {
          "internalType": "contract IERC20",
          "name": "token_",
          "type": "address"
        }
      ],
      "name": "totalLoaned",
      "outputs": [
        {
          "internalType": "uint256",
          "name": "",
          "type": "uint256"
        }
      ],
      "stateMutability": "view",
      "type": "function"
    },
    {
      "inputs": [
        {
          "internalType": "contract IERC20",
          "name": "token_",
          "type": "address"
        }
      ],
      "name": "tvl",
      "outputs": [
        {
          "internalType": "uint256",
          "name": "",
          "type": "uint256"
        }
      ],
      "stateMutability": "view",
      "type": "function"
    },
    {
      "inputs": [
        {
          "internalType": "contract IERC20",
          "name": "token_",
          "type": "address"
        },
        {
          "internalType": "uint256",
          "name": "amount_",
          "type": "uint256"
        }
      ],
      "name": "unclaim",
      "outputs": [],
      "stateMutability": "nonpayable",
      "type": "function"
    },
    {
      "inputs": [
        {
          "internalType": "contract IERC20",
          "name": "token_",
          "type": "address"
        }
      ],
      "name": "utilizationRate",
      "outputs": [
        {
          "internalType": "uint256",
          "name": "",
          "type": "uint256"
        },
        {
          "internalType": "uint256",
          "name": "",
          "type": "uint256"
        }
      ],
      "stateMutability": "view",
      "type": "function"
    },
    {
      "inputs": [
        {
          "internalType": "contract IERC20",
          "name": "token_",
          "type": "address"
        },
        {
          "internalType": "uint256",
          "name": "amount_",
          "type": "uint256"
        }
      ],
      "name": "withdraw",
      "outputs": [],
      "stateMutability": "nonpayable",
      "type": "function"
    }
  ],
  "bytecode": "0x60806040523480156200001157600080fd5b50604051620047cc380380620047cc8339810160408190526200003491620001aa565b80838362000052600080516020620047ac83398151915280620000be565b6200008d7fe6026b923a18d83f4b6e92786fdd85dc8e02e7647281b0d8831236806acf2a30600080516020620047ac833981519152620000be565b620000a8600080516020620047ac8339815191523362000109565b600791909155600855600d5550620001d8915050565b600082815260208190526040808220600101805490849055905190918391839186917fbd79b86ffe0ab8e8776151514217cd7cacd52c909f66475c3af44e129f0b00ff9190a4505050565b6000828152602081815260408083206001600160a01b038516845290915290205460ff16620001a6576000828152602081815260408083206001600160a01b03851684529091529020805460ff19166001179055620001653390565b6001600160a01b0316816001600160a01b0316837f2f8788117e7eff1d82e926ec794901d17c78024a50270940304540a733656f0d60405160405180910390a45b5050565b600080600060608486031215620001bf578283fd5b8351925060208401519150604084015190509250925092565b6145c480620001e86000396000f3fe60806040523480156200001157600080fd5b5060043610620002b55760003560e01c806378b09e911162000179578063adc9772e11620000df578063d547741f1162000092578063d547741f1462000734578063ddd826a5146200074b578063e75db6161462000777578063ef5d9ae8146200078e578063f2fd9dc214620007ba578063f3fef3a314620007d157600080fd5b8063adc9772e14620006b5578063ae7b6d1614620006cc578063b1e5ce1d14620006d8578063b8c876b114620006ef578063bffe84c21462000706578063d0b9622c146200071d57600080fd5b806391d14854116200013857806391d14854146200061c57806393a00daa1462000633578063a217fddf146200064a578063a2b4fe711462000653578063aa08ed76146200066a578063aad3ec96146200069e57600080fd5b806378b09e9114620005745780637b564460146200058b5780637c2c69c014620005a25780637df0f76714620005b95780638695ede314620005e857600080fd5b806322867d78116200021f57806347e7ef2411620001de57806347e7ef2414620004ab5780634fc1d7dc14620004c25780636518711d14620004ff5780636da8d26214620005165780637594825b146200052d578063766a0b48146200054457600080fd5b806322867d781462000429578063248a9ca3146200044057806325ddcd6114620004665780632f2ff15d146200047d57806336568abe146200049457600080fd5b806312e23ac2116200027857806312e23ac2146200036a578063147e094814620003b4578063185cc75114620003cd5780631e9a695014620003e4578063207b27df14620003fb57806320f5ad94146200041257600080fd5b80630104b00414620002ba57806301ffc9a714620002e6578063045f1f4f14620002fd5780630bbd061814620003235780630c9cbf0e146200032d575b600080fd5b620002d1620002cb36600462002d68565b620007e8565b60405190151581526020015b60405180910390f35b620002d1620002f736600462002f06565b62000806565b620003146000805160206200456f83398151915281565b604051908152602001620002dd565b62000314600d5481565b620003146200033e36600462002f30565b6001600160a01b0380821660009081526005602090815260408083209386168352929052205492915050565b6200039e6200037b36600462002d68565b6001600160a01b03166000908152600f6020526040902080546001909101549091565b60408051928352602083019190915201620002dd565b620003cb620003c536600462002ebb565b6200083e565b005b620003cb620003de36600462002f62565b62000860565b62000314620003f536600462002f62565b62000999565b6200039e6200040c36600462002d68565b62000b4c565b620003cb6200042336600462002fe0565b62000b83565b620003cb6200043a36600462002f62565b62000bab565b620003146200045136600462002ebb565b60009081526020819052604090206001015490565b620003cb6200047736600462002d68565b62000d02565b620003cb6200048e36600462002ed4565b62000d2f565b620003cb620004a536600462002ed4565b62000d5e565b620003cb620004bc36600462002f62565b62000ddc565b62000314620004d336600462002f30565b6001600160a01b038082166000908152600b602090815260408083209386168352929052205492915050565b620003cb6200051036600462002e15565b62000f71565b620003146200052736600462002f62565b620010ea565b620003cb6200053e36600462002d68565b62001193565b6200055b6200055536600462002d68565b620011bc565b6040516001600160a01b039091168152602001620002dd565b620003146200058536600462002f62565b62001209565b620003cb6200059c36600462002e15565b620012b2565b6200039e620005b336600462002d68565b62001416565b620002d1620005ca36600462002d68565b6001600160a01b031660009081526002602052604090205460ff1690565b6200039e620005f936600462002d68565b6001600160a01b0316600090815260106020526040902080546001909101549091565b620002d16200062d36600462002ed4565b620014ea565b620003cb6200064436600462002d87565b62001513565b62000314600081565b620003146000805160206200454f83398151915281565b6200039e6200067b36600462002d68565b6001600160a01b03166000908152600e6020526040902080546001909101549091565b620003cb620006af36600462002f62565b6200184a565b62000314620006c636600462002f62565b6200199b565b6007546008546200039e565b6200055b620006e936600462002d68565b62001b21565b620003146200070036600462002d68565b62001b7e565b620003cb6200071736600462002f62565b62001bc6565b620003146200072e36600462002f90565b62001d2d565b620003cb6200074536600462002ed4565b62001d8d565b620003146200075c36600462002d68565b6001600160a01b03166000908152600c602052604090205490565b620003146200078836600462002d68565b62001db7565b620003146200079f36600462002d68565b6001600160a01b031660009081526006602052604090205490565b620003cb620007cb36600462002e15565b62001e5e565b620003cb620007e236600462002f62565b62001fc2565b6001600160a01b031660009081526001602052604090205460ff1690565b60006001600160e01b03198216637965db0b60e01b14806200083857506301ffc9a760e01b6001600160e01b03198316145b92915050565b6000805160206200454f8339815191526200085a813362002083565b50600d55565b6000805160206200456f8339815191526200087c813362002083565b826200088881620007e8565b620008b05760405162461bcd60e51b8152600401620008a790620031c2565b60405180910390fd5b620008bb8462001b7e565b831115620008dd5760405162461bcd60e51b8152600401620008a79062003177565b620008f5335b6001600160a01b0386169085620020f2565b6200093183600b6000335b6001600160a01b03908116825260208083019390935260409182016000908120918a16815292529020549062002157565b336000818152600b602090815260408083206001600160a01b038a1680855290835292819020949094558351918252810186905290917fc9d1e37d63367ddb1e7af8bcc8e9f6bbe504db1b5953feceadf5c41eb1b996b491015b60405180910390a250505050565b6001600160a01b038216600090815260026020526040812054839060ff16620009d65760405162461bcd60e51b8152600401620008a79062003207565b836000620009e48262001b21565b90506000620009f48387620010ea565b905062000a018262001b7e565b81111562000a665760405162461bcd60e51b815260206004820152602b60248201527f4e6f7420656e6f756768206c697175696469747920746f2072656465656d206160448201526a7420746869732074696d6560a81b6064820152608401620008a7565b6001600160a01b038316639dc29fac336040516001600160e01b031960e084901b1681526001600160a01b03909116600482015260248101899052604401600060405180830381600087803b15801562000abf57600080fd5b505af115801562000ad4573d6000803e3d6000fd5b5050505062000af662000ae43390565b6001600160a01b0384169083620020f2565b604080516001600160a01b038916815260208101889052808201839052905133917f3f693fff038bb8a046aa76d9516190ac7444f7d69cf952c4cbdc086fdef2d6fc919081900360600190a29695505050505050565b600080600062000b5c8462001b7e565b9050600062000b6b8562001db7565b905062000b79818362002165565b9590945092505050565b6000805160206200454f83398151915262000b9f813362002083565b50600791909155600855565b6000805160206200456f83398151915262000bc7813362002083565b8262000bd381620007e8565b62000bf25760405162461bcd60e51b8152600401620008a790620031c2565b62000c096001600160a01b03851633308662002173565b336000908152600b602090815260408083206001600160a01b038816845290915290205483111562000c5f57336000908152600b602090815260408083206001600160a01b038816845290915281205562000cc0565b62000c9b83600b6000335b6001600160a01b03908116825260208083019390935260409182016000908120918a16815292529020549062002165565b336000908152600b602090815260408083206001600160a01b03891684529091529020555b604080516001600160a01b03861681526020810185905233917f05f2eeda0e08e4b437f487c8d7d29b14537d15e3488170dc3de5dbdf8dac468491016200098b565b6000805160206200454f83398151915262000d1e813362002083565b62000d2b600983620021b3565b5050565b60008281526020819052604090206001015462000d4d813362002083565b62000d59838362002273565b505050565b6001600160a01b038116331462000dd05760405162461bcd60e51b815260206004820152602f60248201527f416363657373436f6e74726f6c3a2063616e206f6e6c792072656e6f756e636560448201526e103937b632b9903337b91039b2b63360891b6064820152608401620008a7565b62000d2b8282620022fb565b6000805160206200456f83398151915262000df8813362002083565b8262000e0481620007e8565b62000e235760405162461bcd60e51b8152600401620008a790620031c2565b60008062000e346007546008549091565b91509150600062000e4462002363565b9050600062000e6f825162000e688562000e688b896200237690919063ffffffff16565b9062002384565b9050600062000e898351836200237690919063ffffffff16565b905060005b835181101562000ef75762000ee23385838151811062000ebe57634e487b7160e01b600052603260045260246000fd5b6020026020010151858d6001600160a01b031662002173909392919063ffffffff16565b8062000eee816200346e565b91505062000e8e565b5062000f04888262002165565b975062000f1d6001600160a01b038a1633308b62002173565b336001600160a01b03167f3e8f7080d28360572f18a99da683fe6f32eaaabb302169ad2648b417524f0a998a8a848760405162000f5e9493929190620030c7565b60405180910390a2505050505050505050565b6000805160206200454f83398151915262000f8d813362002083565b60005b8451811015620010e35762000fcd85828151811062000fbf57634e487b7160e01b600052603260045260246000fd5b6020026020010151620007e8565b15620010ce5783818151811062000ff457634e487b7160e01b600052603260045260246000fd5b6020026020010151601060008784815181106200102157634e487b7160e01b600052603260045260246000fd5b60200260200101516001600160a01b03166001600160a01b03168152602001908152602001600020600001819055508281815181106200107157634e487b7160e01b600052603260045260246000fd5b6020026020010151601060008784815181106200109e57634e487b7160e01b600052603260045260246000fd5b60200260200101516001600160a01b03166001600160a01b03168152602001908152602001600020600101819055505b80620010da816200346e565b91505062000f90565b5050505050565b6000808390506000816001600160a01b03166318160ddd6040518163ffffffff1660e01b815260040160206040518083038186803b1580156200112c57600080fd5b505afa15801562001141573d6000803e3d6000fd5b505050506040513d601f19601f8201168201806040525081019062001167919062002fc7565b90506000620011768662001db7565b9050620011898262000e68878462002376565b9695505050505050565b6000805160206200454f833981519152620011af813362002083565b62000d2b60098362002392565b600081620011ca81620007e8565b620011e95760405162461bcd60e51b8152600401620008a790620031c2565b50506001600160a01b039081166000908152600360205260409020541690565b6000806200121784620011bc565b90506000816001600160a01b03166318160ddd6040518163ffffffff1660e01b815260040160206040518083038186803b1580156200125557600080fd5b505afa1580156200126a573d6000803e3d6000fd5b505050506040513d601f19601f8201168201806040525081019062001290919062002fc7565b905060006200129f8662001db7565b9050620011898162000e68878562002376565b6000805160206200454f833981519152620012ce813362002083565b60005b8451811015620010e3576200130085828151811062000fbf57634e487b7160e01b600052603260045260246000fd5b1562001401578381815181106200132757634e487b7160e01b600052603260045260246000fd5b6020026020010151600f60008784815181106200135457634e487b7160e01b600052603260045260246000fd5b60200260200101516001600160a01b03166001600160a01b0316815260200190815260200160002060000181905550828181518110620013a457634e487b7160e01b600052603260045260246000fd5b6020026020010151600f6000878481518110620013d157634e487b7160e01b600052603260045260246000fd5b60200260200101516001600160a01b03166001600160a01b03168152602001908152602001600020600101819055505b806200140d816200346e565b915050620012d1565b600080600080620014278562000b4c565b6001600160a01b0387166000818152601060209081526040808320815180830183528154815260019182015481850152858552600e8085528386208451808601865281548082529190940154848701819052979096528452825180840190935293825291810193909352815194965092945092620014a790859062002376565b6020840151620014b990879062002376565b1115620014dd57620014cf858585858562002509565b965096505050505050915091565b620014cf858584620025eb565b6000918252602082815260408084206001600160a01b0393909316845291905290205460ff1690565b6000805160206200454f8339815191526200152f813362002083565b60005b8451811015620010e3576200156185828151811062000fbf57634e487b7160e01b600052603260045260246000fd5b158015620015b75750620015b58582815181106200158f57634e487b7160e01b600052603260045260246000fd5b60200260200101516001600160a01b031660009081526002602052604090205460ff1690565b155b1562001835576001806000878481518110620015e357634e487b7160e01b600052603260045260246000fd5b60200260200101516001600160a01b03166001600160a01b0316815260200190815260200160002060006101000a81548160ff02191690831515021790555060008482815181106200164557634e487b7160e01b600052603260045260246000fd5b60200260200101518483815181106200166e57634e487b7160e01b600052603260045260246000fd5b6020026020010151604051620016849062002b84565b6200169192919062003145565b604051809103906000f080158015620016ae573d6000803e3d6000fd5b506001600160a01b0381166000908152600260205260408120805460ff191660011790558751919250829160039190899086908110620016fe57634e487b7160e01b600052603260045260246000fd5b60200260200101516001600160a01b03166001600160a01b0316815260200190815260200160002060006101000a8154816001600160a01b0302191690836001600160a01b031602179055508582815181106200176b57634e487b7160e01b600052603260045260246000fd5b602002602001015160046000836001600160a01b03166001600160a01b0316815260200190815260200160002060006101000a8154816001600160a01b0302191690836001600160a01b031602179055507faad2833c9fd7a3de33f301e5186ee84d1a5753ce32de6b97baedaac4b92b55fc868381518110620017fe57634e487b7160e01b600052603260045260246000fd5b6020026020010151826040516200182b9291906001600160a01b0392831681529116602082015260400190565b60405180910390a1505b8062001841816200346e565b91505062001532565b6000805160206200456f83398151915262001866813362002083565b826200187281620007e8565b620018915760405162461bcd60e51b8152600401620008a790620031c2565b6200189c8462001b7e565b831115620018fc5760405162461bcd60e51b815260206004820152602660248201527f43616e6e6f7420636c61696d206d6f7265207468616e20746f74616c206c697160448201526575696469747960d01b6064820152608401620008a7565b6200190c83600560003362000900565b3360009081526005602090815260408083206001600160a01b038916845282528083209390935560069052205462001945908462002157565b6001600160a01b03851660008181526006602090815260409182902093909355805191825291810185905233917f70eb43c4a8ae8c40502dcf22436c509c28d6ff421cf07c491be56984bd98706891016200098b565b600082620019a981620007e8565b620019c85760405162461bcd60e51b8152600401620008a790620031c2565b6000620019d585620011bc565b90506000620019e5868662001209565b90506000811162001a395760405162461bcd60e51b815260206004820152601860248201527f4e6f7420656e6f75676820746f6b656e73207374616b656400000000000000006044820152606401620008a7565b62001a506001600160a01b03871633308862002173565b6001600160a01b0382166340c10f19336040516001600160e01b031960e084901b1681526001600160a01b03909116600482015260248101849052604401600060405180830381600087803b15801562001aa957600080fd5b505af115801562001abe573d6000803e3d6000fd5b5050505062001aca3390565b604080516001600160a01b038981168252602082018990529181018490529116907f63602d0ecc7b3a0ef7ff1a116e23056662d64280355ba8031b6d0d767c4b44589060600160405180910390a295945050505050565b6001600160a01b038116600090815260026020526040812054829060ff1662001b5e5760405162461bcd60e51b8152600401620008a79062003207565b50506001600160a01b039081166000908152600460205260409020541690565b6001600160a01b038116600090815260066020908152604080832054600c90925282205462001bbe8162001bb78462001bb78862001db7565b9062002165565b949350505050565b6000805160206200456f83398151915262001be2813362002083565b8262001bee81620007e8565b62001c0d5760405162461bcd60e51b8152600401620008a790620031c2565b3360009081526005602090815260408083206001600160a01b038816845290915290205483111562001c8e5760405162461bcd60e51b815260206004820152602360248201527f43616e6e6f7420756e636c61696d206d6f7265207468616e20796f757220636c60448201526261696d60e81b6064820152608401620008a7565b62001c9e83600560003362000c6a565b3360009081526005602090815260408083206001600160a01b038916845282528083209390935560069052205462001cd7908462002165565b6001600160a01b03851660008181526006602090815260409182902093909355805191825291810185905233917fb357d3c8cf2c37863e04f4c71afd0e8bef633cec94ee21866dc4e7058932a48991016200098b565b60008062001d3c438462002165565b905060008062001d4c8762001416565b915091506000600c905062001d7f8762001d778562000e6886600d546200237690919063ffffffff16565b86846200261d565b9450505050505b9392505050565b60008281526020819052604090206001015462001dab813362002083565b62000d598383620022fb565b6001600160a01b0381166000908152600c602052604081205481906040516370a0823160e01b815230600482015290915062001d869082906001600160a01b038616906370a082319060240160206040518083038186803b15801562001e1c57600080fd5b505afa15801562001e31573d6000803e3d6000fd5b505050506040513d601f19601f8201168201806040525081019062001e57919062002fc7565b9062002157565b6000805160206200454f83398151915262001e7a813362002083565b60005b8451811015620010e35762001eac85828151811062000fbf57634e487b7160e01b600052603260045260246000fd5b1562001fad5783818151811062001ed357634e487b7160e01b600052603260045260246000fd5b6020026020010151600e600087848151811062001f0057634e487b7160e01b600052603260045260246000fd5b60200260200101516001600160a01b03166001600160a01b031681526020019081526020016000206000018190555082818151811062001f5057634e487b7160e01b600052603260045260246000fd5b6020026020010151600e600087848151811062001f7d57634e487b7160e01b600052603260045260246000fd5b60200260200101516001600160a01b03166001600160a01b03168152602001908152602001600020600101819055505b8062001fb9816200346e565b91505062001e7d565b6000805160206200456f83398151915262001fde813362002083565b8262001fea81620007e8565b620020095760405162461bcd60e51b8152600401620008a790620031c2565b620020148462001b7e565b831115620020365760405162461bcd60e51b8152600401620008a79062003177565b6200204133620008e3565b604080516001600160a01b03861681526020810185905233917f9b1bfa7fa9ee420a16e124f794c35ac9f90472acc99140eb2f6447c714cad8eb91016200098b565b6200208f8282620014ea565b62000d2b57620020aa816001600160a01b03166014620026c2565b620020b7836020620026c2565b604051602001620020ca9291906200304e565b60408051601f198184030181529082905262461bcd60e51b8252620008a79160040162003130565b6040516001600160a01b03831660248201526044810182905262000d5990849063a9059cbb60e01b906064015b60408051601f198184030181529190526020810180516001600160e01b03166001600160e01b031990931692909217909152620028b8565b600062001d868284620032a8565b600062001d8682846200340b565b6040516001600160a01b0380851660248301528316604482015260648101829052620021ad9085906323b872dd60e01b906084016200211f565b50505050565b620021bf828262002991565b15620022195760405162461bcd60e51b815260206004820152602260248201527f4164647265737320616c72656164792065786973747320696e207468652073656044820152613a1760f11b6064820152608401620008a7565b6001828101805480830182556000828152602090200180546001600160a01b0319166001600160a01b038516179055546200225591906200340b565b6001600160a01b039091166000908152602092909252604090912055565b6200227f8282620014ea565b62000d2b576000828152602081815260408083206001600160a01b03851684529091529020805460ff19166001179055620022b73390565b6001600160a01b0316816001600160a01b0316837f2f8788117e7eff1d82e926ec794901d17c78024a50270940304540a733656f0d60405160405180910390a45050565b620023078282620014ea565b1562000d2b576000828152602081815260408083206001600160a01b0385168085529252808320805460ff1916905551339285917ff6391f5c32d9c69d2a47ea670b442974b53935d1edc7fd64eb21e047a839171b9190a45050565b606062002371600962002a03565b905090565b600062001d868284620033e9565b600062001d868284620032c3565b6200239e828262002991565b620023f75760405162461bcd60e51b815260206004820152602260248201527f4164647265737320646f6573206e6f7420657869737420696e207468652073656044820152613a1760f11b6064820152608401620008a7565b600182810180546000926200240c916200340b565b815481106200242b57634e487b7160e01b600052603260045260246000fd5b60009182526020808320909101546001600160a01b038581168452918690526040808420549290911680845292208190556001850180549293509091839190839081106200248957634e487b7160e01b600052603260045260246000fd5b600091825260208083209190910180546001600160a01b0319166001600160a01b03948516179055918516815290859052604081205560018401805480620024e157634e487b7160e01b600052603160045260246000fd5b600082815260209020810160001990810180546001600160a01b031916905501905550505050565b60008060006200255186600001516200254a62002538876020015189600001516200237690919063ffffffff16565b6020890151885162001bb79162002157565b9062002376565b905060006200257b87602001516200254a886020015188602001516200237690919063ffffffff16565b90506000620025b7620025a187602001516200254a8c876200237690919063ffffffff16565b875162001bb79085906200254a908f9062002376565b90506000620025d9836200254a89602001518d6200237690919063ffffffff16565b919b919a509098505050505050505050565b80516000908190620025ff90869062002376565b60208401516200261190869062002376565b91509150935093915050565b600080600180825b85811015620026b5576200263a81896200332d565b8262002647858c620033e9565b620026539190620032c3565b6200265f9190620032c3565b6200266b9085620032a8565b93506200267981886200340b565b620026859084620033e9565b925062002694816001620032a8565b620026a09083620033e9565b9150620026ad816200346e565b905062002625565b5091979650505050505050565b60606000620026d3836002620033e9565b620026e0906002620032a8565b67ffffffffffffffff8111156200270757634e487b7160e01b600052604160045260246000fd5b6040519080825280601f01601f19166020018201604052801562002732576020820181803683370190505b509050600360fc1b816000815181106200275c57634e487b7160e01b600052603260045260246000fd5b60200101906001600160f81b031916908160001a905350600f60fb1b816001815181106200279a57634e487b7160e01b600052603260045260246000fd5b60200101906001600160f81b031916908160001a9053506000620027c0846002620033e9565b620027cd906001620032a8565b90505b600181111562002867576f181899199a1a9b1b9c1cb0b131b232b360811b85600f16601081106200281157634e487b7160e01b600052603260045260246000fd5b1a60f81b8282815181106200283657634e487b7160e01b600052603260045260246000fd5b60200101906001600160f81b031916908160001a90535060049490941c936200285f8162003454565b9050620027d0565b50831562001d865760405162461bcd60e51b815260206004820181905260248201527f537472696e67733a20686578206c656e67746820696e73756666696369656e746044820152606401620008a7565b60006200290f826040518060400160405280602081526020017f5361666545524332303a206c6f772d6c6576656c2063616c6c206661696c6564815250856001600160a01b031662002a6b9092919063ffffffff16565b80519091501562000d59578080602001905181019062002930919062002e99565b62000d595760405162461bcd60e51b815260206004820152602a60248201527f5361666545524332303a204552433230206f7065726174696f6e20646964206e6044820152691bdd081cdd58d8d9595960b21b6064820152608401620008a7565b6001820154600090620029a75750600062000838565b6001600160a01b0382166000818152602085905260409020546001850180549091908110620029e657634e487b7160e01b600052603260045260246000fd5b6000918252602090912001546001600160a01b0316149392505050565b60608160010180548060200260200160405190810160405280929190818152602001828054801562002a5f57602002820191906000526020600020905b81546001600160a01b0316815260019091019060200180831162002a40575b50505050509050919050565b606062001bbe848460008585843b62002ac75760405162461bcd60e51b815260206004820152601d60248201527f416464726573733a2063616c6c20746f206e6f6e2d636f6e74726163740000006044820152606401620008a7565b600080866001600160a01b0316858760405162002ae5919062003030565b60006040518083038185875af1925050503d806000811462002b24576040519150601f19603f3d011682016040523d82523d6000602084013e62002b29565b606091505b509150915062002b3b82828662002b46565b979650505050505050565b6060831562002b5757508162001d86565b82511562002b685782518084602001fd5b8160405162461bcd60e51b8152600401620008a7919062003130565b61107d80620034d283390190565b600082601f83011262002ba3578081fd5b8135602062002bbc62002bb68362003281565b6200324d565b80838252828201915082860187848660051b890101111562002bdc578586fd5b855b8581101562002c0757813562002bf481620034b8565b8452928401929084019060010162002bde565b5090979650505050505050565b6000601f838184011262002c26578182fd5b8235602062002c3962002bb68362003281565b80838252828201915082870188848660051b8a0101111562002c59578687fd5b865b8581101562002cf657813567ffffffffffffffff8082111562002c7c57898afd5b818b0191508b603f83011262002c9057898afd5b8682013560408282111562002ca95762002ca9620034a2565b62002cbc828c01601f19168a016200324d565b92508183528d8183860101111562002cd2578b8cfd5b818185018a85013750810187018a9052855250928401929084019060010162002c5b565b509098975050505050505050565b600082601f83011262002d15578081fd5b8135602062002d2862002bb68362003281565b80838252828201915082860187848660051b890101111562002d48578586fd5b855b8581101562002c075781358452928401929084019060010162002d4a565b60006020828403121562002d7a578081fd5b813562001d8681620034b8565b60008060006060848603121562002d9c578182fd5b833567ffffffffffffffff8082111562002db4578384fd5b62002dc28783880162002b92565b9450602086013591508082111562002dd8578384fd5b62002de68783880162002c14565b9350604086013591508082111562002dfc578283fd5b5062002e0b8682870162002c14565b9150509250925092565b60008060006060848603121562002e2a578283fd5b833567ffffffffffffffff8082111562002e42578485fd5b62002e508783880162002b92565b9450602086013591508082111562002e66578384fd5b62002e748783880162002d04565b9350604086013591508082111562002e8a578283fd5b5062002e0b8682870162002d04565b60006020828403121562002eab578081fd5b8151801515811462001d86578182fd5b60006020828403121562002ecd578081fd5b5035919050565b6000806040838503121562002ee7578182fd5b82359150602083013562002efb81620034b8565b809150509250929050565b60006020828403121562002f18578081fd5b81356001600160e01b03198116811462001d86578182fd5b6000806040838503121562002f43578182fd5b823562002f5081620034b8565b9150602083013562002efb81620034b8565b6000806040838503121562002f75578182fd5b823562002f8281620034b8565b946020939093013593505050565b60008060006060848603121562002fa5578081fd5b833562002fb281620034b8565b95602085013595506040909401359392505050565b60006020828403121562002fd9578081fd5b5051919050565b6000806040838503121562002ff3578182fd5b50508035926020909101359150565b600081518084526200301c81602086016020860162003425565b601f01601f19169290920160200192915050565b600082516200304481846020870162003425565b9190910192915050565b7f416363657373436f6e74726f6c3a206163636f756e74200000000000000000008152600083516200308881601785016020880162003425565b7001034b99036b4b9b9b4b733903937b6329607d1b6017918401918201528351620030bb81602884016020880162003425565b01602801949350505050565b60006080820160018060a01b038088168452602087818601528660408601526080606086015282865180855260a0870191508288019450855b818110156200312057855185168352948301949183019160010162003100565b50909a9950505050505050505050565b60208152600062001d86602083018462003002565b6040815260006200315a604083018562003002565b82810360208401526200316e818562003002565b95945050505050565b6020808252602b908201527f576974686472617720616d6f756e74206578636565647320617661696c61626c60408201526a65206c697175696469747960a81b606082015260800190565b60208082526025908201527f4f6e6c7920706f6f6c20617070726f76656420746f6b656e73206d6179206265604082015264081d5cd95960da1b606082015260800190565b60208082526026908201527f4f6e6c79206c697175696469747920706f6f6c20746f6b656e73206d6179206260408201526519481d5cd95960d21b606082015260800190565b604051601f8201601f1916810167ffffffffffffffff81118282101715620032795762003279620034a2565b604052919050565b600067ffffffffffffffff8211156200329e576200329e620034a2565b5060051b60200190565b60008219821115620032be57620032be6200348c565b500190565b600082620032df57634e487b7160e01b81526012600452602481fd5b500490565b600181815b80851115620033255781600019048211156200330957620033096200348c565b808516156200331757918102915b93841c9390800290620032e9565b509250929050565b600062001d868383600082620033465750600162000838565b81620033555750600062000838565b81600181146200336e5760028114620033795762003399565b600191505062000838565b60ff8411156200338d576200338d6200348c565b50506001821b62000838565b5060208310610133831016604e8410600b8410161715620033be575081810a62000838565b620033ca8383620032e4565b8060001904821115620033e157620033e16200348c565b029392505050565b60008160001904831182151516156200340657620034066200348c565b500290565b6000828210156200342057620034206200348c565b500390565b60005b838110156200344257818101518382015260200162003428565b83811115620021ad5750506000910152565b6000816200346657620034666200348c565b506000190190565b60006000198214156200348557620034856200348c565b5060010190565b634e487b7160e01b600052601160045260246000fd5b634e487b7160e01b600052604160045260246000fd5b6001600160a01b0381168114620034ce57600080fd5b5056fe60806040523480156200001157600080fd5b506040516200107d3803806200107d833981016040819052620000349162000237565b8151829082906200004d906003906020850190620000de565b50805162000063906004906020840190620000de565b505050620000806200007a6200008860201b60201c565b6200008c565b5050620002f1565b3390565b600580546001600160a01b038381166001600160a01b0319831681179093556040519116919082907f8be0079c531659141344cd1fd0a4f28419497f9722a3daafe3b4186f6b6457e090600090a35050565b828054620000ec906200029e565b90600052602060002090601f0160209004810192826200011057600085556200015b565b82601f106200012b57805160ff19168380011785556200015b565b828001600101855582156200015b579182015b828111156200015b5782518255916020019190600101906200013e565b50620001699291506200016d565b5090565b5b808211156200016957600081556001016200016e565b600082601f83011262000195578081fd5b81516001600160401b0380821115620001b257620001b2620002db565b604051601f8301601f19908116603f01168101908282118183101715620001dd57620001dd620002db565b81604052838152602092508683858801011115620001f9578485fd5b8491505b838210156200021c5785820183015181830184015290820190620001fd565b838211156200022d57848385830101525b9695505050505050565b600080604083850312156200024a578182fd5b82516001600160401b038082111562000261578384fd5b6200026f8683870162000184565b9350602085015191508082111562000285578283fd5b50620002948582860162000184565b9150509250929050565b600181811c90821680620002b357607f821691505b60208210811415620002d557634e487b7160e01b600052602260045260246000fd5b50919050565b634e487b7160e01b600052604160045260246000fd5b610d7c80620003016000396000f3fe608060405234801561001057600080fd5b50600436106101005760003560e01c8063715018a611610097578063a457c2d711610066578063a457c2d714610209578063a9059cbb1461021c578063dd62ed3e1461022f578063f2fde38b1461026857600080fd5b8063715018a6146101cb5780638da5cb5b146101d357806395d89b41146101ee5780639dc29fac146101f657600080fd5b8063313ce567116100d3578063313ce5671461016b578063395093511461017a57806340c10f191461018d57806370a08231146101a257600080fd5b806306fdde0314610105578063095ea7b31461012357806318160ddd1461014657806323b872dd14610158575b600080fd5b61010d61027b565b60405161011a9190610c3e565b60405180910390f35b610136610131366004610c15565b61030d565b604051901515815260200161011a565b6002545b60405190815260200161011a565b610136610166366004610bda565b610323565b6040516012815260200161011a565b610136610188366004610c15565b6103d2565b6101a061019b366004610c15565b61040e565b005b61014a6101b0366004610b87565b6001600160a01b031660009081526020819052604090205490565b6101a0610446565b6005546040516001600160a01b03909116815260200161011a565b61010d61047c565b6101a0610204366004610c15565b61048b565b610136610217366004610c15565b6104bf565b61013661022a366004610c15565b610558565b61014a61023d366004610ba8565b6001600160a01b03918216600090815260016020908152604080832093909416825291909152205490565b6101a0610276366004610b87565b610565565b60606003805461028a90610cf5565b80601f01602080910402602001604051908101604052809291908181526020018280546102b690610cf5565b80156103035780601f106102d857610100808354040283529160200191610303565b820191906000526020600020905b8154815290600101906020018083116102e657829003601f168201915b5050505050905090565b600061031a338484610600565b50600192915050565b6000610330848484610725565b6001600160a01b0384166000908152600160209081526040808320338452909152902054828110156103ba5760405162461bcd60e51b815260206004820152602860248201527f45524332303a207472616e7366657220616d6f756e74206578636565647320616044820152676c6c6f77616e636560c01b60648201526084015b60405180910390fd5b6103c78533858403610600565b506001949350505050565b3360008181526001602090815260408083206001600160a01b0387168452909152812054909161031a918590610409908690610cc6565b610600565b6005546001600160a01b031633146104385760405162461bcd60e51b81526004016103b190610c91565b61044282826108f4565b5050565b6005546001600160a01b031633146104705760405162461bcd60e51b81526004016103b190610c91565b61047a60006109d3565b565b60606004805461028a90610cf5565b6005546001600160a01b031633146104b55760405162461bcd60e51b81526004016103b190610c91565b6104428282610a25565b3360009081526001602090815260408083206001600160a01b0386168452909152812054828110156105415760405162461bcd60e51b815260206004820152602560248201527f45524332303a2064656372656173656420616c6c6f77616e63652062656c6f77604482015264207a65726f60d81b60648201526084016103b1565b61054e3385858403610600565b5060019392505050565b600061031a338484610725565b6005546001600160a01b0316331461058f5760405162461bcd60e51b81526004016103b190610c91565b6001600160a01b0381166105f45760405162461bcd60e51b815260206004820152602660248201527f4f776e61626c653a206e6577206f776e657220697320746865207a65726f206160448201526564647265737360d01b60648201526084016103b1565b6105fd816109d3565b50565b6001600160a01b0383166106625760405162461bcd60e51b8152602060048201526024808201527f45524332303a20617070726f76652066726f6d20746865207a65726f206164646044820152637265737360e01b60648201526084016103b1565b6001600160a01b0382166106c35760405162461bcd60e51b815260206004820152602260248201527f45524332303a20617070726f766520746f20746865207a65726f206164647265604482015261737360f01b60648201526084016103b1565b6001600160a01b0383811660008181526001602090815260408083209487168084529482529182902085905590518481527f8c5be1e5ebec7d5bd14f71427d1e84f3dd0314c0f7b2291e5b200ac8c7c3b92591015b60405180910390a3505050565b6001600160a01b0383166107895760405162461bcd60e51b815260206004820152602560248201527f45524332303a207472616e736665722066726f6d20746865207a65726f206164604482015264647265737360d81b60648201526084016103b1565b6001600160a01b0382166107eb5760405162461bcd60e51b815260206004820152602360248201527f45524332303a207472616e7366657220746f20746865207a65726f206164647260448201526265737360e81b60648201526084016103b1565b6001600160a01b038316600090815260208190526040902054818110156108635760405162461bcd60e51b815260206004820152602660248201527f45524332303a207472616e7366657220616d6f756e7420657863656564732062604482015265616c616e636560d01b60648201526084016103b1565b6001600160a01b0380851660009081526020819052604080822085850390559185168152908120805484929061089a908490610cc6565b92505081905550826001600160a01b0316846001600160a01b03167fddf252ad1be2c89b69c2b068fc378daa952ba7f163c4a11628f55a4df523b3ef846040516108e691815260200190565b60405180910390a350505050565b6001600160a01b03821661094a5760405162461bcd60e51b815260206004820152601f60248201527f45524332303a206d696e7420746f20746865207a65726f20616464726573730060448201526064016103b1565b806002600082825461095c9190610cc6565b90915550506001600160a01b03821660009081526020819052604081208054839290610989908490610cc6565b90915550506040518181526001600160a01b038316906000907fddf252ad1be2c89b69c2b068fc378daa952ba7f163c4a11628f55a4df523b3ef9060200160405180910390a35050565b600580546001600160a01b038381166001600160a01b0319831681179093556040519116919082907f8be0079c531659141344cd1fd0a4f28419497f9722a3daafe3b4186f6b6457e090600090a35050565b6001600160a01b038216610a855760405162461bcd60e51b815260206004820152602160248201527f45524332303a206275726e2066726f6d20746865207a65726f206164647265736044820152607360f81b60648201526084016103b1565b6001600160a01b03821660009081526020819052604090205481811015610af95760405162461bcd60e51b815260206004820152602260248201527f45524332303a206275726e20616d6f756e7420657863656564732062616c616e604482015261636560f01b60648201526084016103b1565b6001600160a01b0383166000908152602081905260408120838303905560028054849290610b28908490610cde565b90915550506040518281526000906001600160a01b038516907fddf252ad1be2c89b69c2b068fc378daa952ba7f163c4a11628f55a4df523b3ef90602001610718565b80356001600160a01b0381168114610b8257600080fd5b919050565b600060208284031215610b98578081fd5b610ba182610b6b565b9392505050565b60008060408385031215610bba578081fd5b610bc383610b6b565b9150610bd160208401610b6b565b90509250929050565b600080600060608486031215610bee578081fd5b610bf784610b6b565b9250610c0560208501610b6b565b9150604084013590509250925092565b60008060408385031215610c27578182fd5b610c3083610b6b565b946020939093013593505050565b6000602080835283518082850152825b81811015610c6a57858101830151858201604001528201610c4e565b81811115610c7b5783604083870101525b50601f01601f1916929092016040019392505050565b6020808252818101527f4f776e61626c653a2063616c6c6572206973206e6f7420746865206f776e6572604082015260600190565b60008219821115610cd957610cd9610d30565b500190565b600082821015610cf057610cf0610d30565b500390565b600181811c90821680610d0957607f821691505b60208210811415610d2a57634e487b7160e01b600052602260045260246000fd5b50919050565b634e487b7160e01b600052601160045260246000fdfea26469706673582212205b6799890ed169949239ccd2d02483277659e3067c272e21c25740018e18181d64736f6c6343000804003324e583e35a20f9ecfc1572e7cb66bcc18ad3cd1650ec40dbf6ad2290e553a9fae6026b923a18d83f4b6e92786fdd85dc8e02e7647281b0d8831236806acf2a30a2646970667358221220d28fa38030256522ac5f44d239060b9cd7e66fe7f2ae7f6e62f815cb1a48ca7864736f6c6343000804003324e583e35a20f9ecfc1572e7cb66bcc18ad3cd1650ec40dbf6ad2290e553a9fa",
  "linkReferences": {},
  "deployedLinkReferences": {}
}