{
  "_format": "hh-sol-artifact-1",
  "contractName": "LPool",
  "sourceName": "contracts/LPool/LPool.sol",
  "abi": [
    {
      "inputs": [
        {
          "internalType": "contract IConverter",
          "name": "converter_",
          "type": "address"
        },
        {
          "internalType": "uint256",
          "name": "taxPercent_",
          "type": "uint256"
        },
        {
          "internalType": "uint256",
          "name": "blocksPerCompound_",
          "type": "uint256"
        }
      ],
      "stateMutability": "nonpayable",
      "type": "constructor"
    },
    {
      "anonymous": false,
      "inputs": [
        {
          "indexed": false,
          "internalType": "contract IERC20",
          "name": "token",
          "type": "address"
        },
        {
          "indexed": false,
          "internalType": "contract IERC20",
          "name": "LPToken",
          "type": "address"
        }
      ],
      "name": "AddLPToken",
      "type": "event"
    },
    {
      "anonymous": false,
      "inputs": [
        {
          "indexed": true,
          "internalType": "address",
          "name": "account",
          "type": "address"
        },
        {
          "indexed": false,
          "internalType": "contract IERC20",
          "name": "token",
          "type": "address"
        },
        {
          "indexed": false,
          "internalType": "uint256",
          "name": "amount",
          "type": "uint256"
        }
      ],
      "name": "Claim",
      "type": "event"
    },
    {
      "anonymous": false,
      "inputs": [
        {
          "indexed": true,
          "internalType": "address",
          "name": "account",
          "type": "address"
        },
        {
          "indexed": false,
          "internalType": "contract IERC20",
          "name": "tokenIn",
          "type": "address"
        },
        {
          "indexed": false,
          "internalType": "uint256",
          "name": "amountIn",
          "type": "uint256"
        },
        {
          "indexed": false,
          "internalType": "contract IERC20",
          "name": "convertedToken",
          "type": "address"
        },
        {
          "indexed": false,
          "internalType": "uint256",
          "name": "convertedAmount",
          "type": "uint256"
        }
      ],
      "name": "Deposit",
      "type": "event"
    },
    {
      "anonymous": false,
      "inputs": [
        {
          "indexed": true,
          "internalType": "address",
          "name": "account",
          "type": "address"
        },
        {
          "indexed": false,
          "internalType": "contract IERC20",
          "name": "token",
          "type": "address"
        },
        {
          "indexed": false,
          "internalType": "uint256",
          "name": "amount",
          "type": "uint256"
        },
        {
          "indexed": false,
          "internalType": "uint256",
          "name": "value",
          "type": "uint256"
        }
      ],
      "name": "Redeem",
      "type": "event"
    },
    {
      "anonymous": false,
      "inputs": [
        {
          "indexed": true,
          "internalType": "bytes32",
          "name": "role",
          "type": "bytes32"
        },
        {
          "indexed": true,
          "internalType": "bytes32",
          "name": "previousAdminRole",
          "type": "bytes32"
        },
        {
          "indexed": true,
          "internalType": "bytes32",
          "name": "newAdminRole",
          "type": "bytes32"
        }
      ],
      "name": "RoleAdminChanged",
      "type": "event"
    },
    {
      "anonymous": false,
      "inputs": [
        {
          "indexed": true,
          "internalType": "bytes32",
          "name": "role",
          "type": "bytes32"
        },
        {
          "indexed": true,
          "internalType": "address",
          "name": "account",
          "type": "address"
        },
        {
          "indexed": true,
          "internalType": "address",
          "name": "sender",
          "type": "address"
        }
      ],
      "name": "RoleGranted",
      "type": "event"
    },
    {
      "anonymous": false,
      "inputs": [
        {
          "indexed": true,
          "internalType": "bytes32",
          "name": "role",
          "type": "bytes32"
        },
        {
          "indexed": true,
          "internalType": "address",
          "name": "account",
          "type": "address"
        },
        {
          "indexed": true,
          "internalType": "address",
          "name": "sender",
          "type": "address"
        }
      ],
      "name": "RoleRevoked",
      "type": "event"
    },
    {
      "anonymous": false,
      "inputs": [
        {
          "indexed": true,
          "internalType": "address",
          "name": "account",
          "type": "address"
        },
        {
          "indexed": false,
          "internalType": "contract IERC20",
          "name": "token",
          "type": "address"
        },
        {
          "indexed": false,
          "internalType": "uint256",
          "name": "amount",
          "type": "uint256"
        },
        {
          "indexed": false,
          "internalType": "uint256",
          "name": "value",
          "type": "uint256"
        }
      ],
      "name": "Stake",
      "type": "event"
    },
    {
      "anonymous": false,
      "inputs": [
        {
          "indexed": true,
          "internalType": "address",
          "name": "account",
          "type": "address"
        },
        {
          "indexed": false,
          "internalType": "contract IERC20",
          "name": "token",
          "type": "address"
        },
        {
          "indexed": false,
          "internalType": "uint256",
          "name": "amount",
          "type": "uint256"
        }
      ],
      "name": "Unclaim",
      "type": "event"
    },
    {
      "anonymous": false,
      "inputs": [
        {
          "indexed": true,
          "internalType": "address",
          "name": "account",
          "type": "address"
        },
        {
          "indexed": false,
          "internalType": "contract IERC20",
          "name": "token",
          "type": "address"
        },
        {
          "indexed": false,
          "internalType": "uint256",
          "name": "amount",
          "type": "uint256"
        }
      ],
      "name": "Withdraw",
      "type": "event"
    },
    {
      "inputs": [],
      "name": "DEFAULT_ADMIN_ROLE",
      "outputs": [
        {
          "internalType": "bytes32",
          "name": "",
          "type": "bytes32"
        }
      ],
      "stateMutability": "view",
      "type": "function"
    },
    {
      "inputs": [
        {
          "internalType": "contract IERC20",
          "name": "token_",
          "type": "address"
        }
      ],
      "name": "LPFromPT",
      "outputs": [
        {
          "internalType": "contract IERC20",
          "name": "",
          "type": "address"
        }
      ],
      "stateMutability": "view",
      "type": "function"
    },
    {
      "inputs": [],
      "name": "POOL_ADMIN",
      "outputs": [
        {
          "internalType": "bytes32",
          "name": "",
          "type": "bytes32"
        }
      ],
      "stateMutability": "view",
      "type": "function"
    },
    {
      "inputs": [],
      "name": "POOL_APPROVED",
      "outputs": [
        {
          "internalType": "bytes32",
          "name": "",
          "type": "bytes32"
        }
      ],
      "stateMutability": "view",
      "type": "function"
    },
    {
      "inputs": [
        {
          "internalType": "contract IERC20",
          "name": "token_",
          "type": "address"
        }
      ],
      "name": "PTFromLP",
      "outputs": [
        {
          "internalType": "contract IERC20",
          "name": "",
          "type": "address"
        }
      ],
      "stateMutability": "view",
      "type": "function"
    },
    {
      "inputs": [
        {
          "internalType": "contract IERC20[]",
          "name": "token_",
          "type": "address[]"
        },
        {
          "internalType": "string[]",
          "name": "name_",
          "type": "string[]"
        },
        {
          "internalType": "string[]",
          "name": "symbol_",
          "type": "string[]"
        }
      ],
      "name": "addLPToken",
      "outputs": [],
      "stateMutability": "nonpayable",
      "type": "function"
    },
    {
      "inputs": [
        {
          "internalType": "address",
          "name": "account_",
          "type": "address"
        }
      ],
      "name": "addTaxAccount",
      "outputs": [],
      "stateMutability": "nonpayable",
      "type": "function"
    },
    {
      "inputs": [
        {
          "internalType": "contract IERC20",
          "name": "token_",
          "type": "address"
        },
        {
          "internalType": "uint256",
          "name": "amount_",
          "type": "uint256"
        }
      ],
      "name": "claim",
      "outputs": [],
      "stateMutability": "nonpayable",
      "type": "function"
    },
    {
      "inputs": [
        {
          "internalType": "contract IERC20",
          "name": "token_",
          "type": "address"
        },
        {
          "internalType": "address",
          "name": "account_",
          "type": "address"
        }
      ],
      "name": "claimed",
      "outputs": [
        {
          "internalType": "uint256",
          "name": "",
          "type": "uint256"
        }
      ],
      "stateMutability": "view",
      "type": "function"
    },
    {
      "inputs": [],
      "name": "converter",
      "outputs": [
        {
          "internalType": "contract IConverter",
          "name": "",
          "type": "address"
        }
      ],
      "stateMutability": "view",
      "type": "function"
    },
    {
      "inputs": [
        {
          "internalType": "contract IERC20",
          "name": "token_",
          "type": "address"
        },
        {
          "internalType": "uint256",
          "name": "amount_",
          "type": "uint256"
        }
      ],
      "name": "deposit",
      "outputs": [],
      "stateMutability": "nonpayable",
      "type": "function"
    },
    {
      "inputs": [
        {
          "internalType": "bytes32",
          "name": "role",
          "type": "bytes32"
        }
      ],
      "name": "getRoleAdmin",
      "outputs": [
        {
          "internalType": "bytes32",
          "name": "",
          "type": "bytes32"
        }
      ],
      "stateMutability": "view",
      "type": "function"
    },
    {
      "inputs": [
        {
          "internalType": "bytes32",
          "name": "role",
          "type": "bytes32"
        },
        {
          "internalType": "address",
          "name": "account",
          "type": "address"
        }
      ],
      "name": "grantRole",
      "outputs": [],
      "stateMutability": "nonpayable",
      "type": "function"
    },
    {
      "inputs": [
        {
          "internalType": "bytes32",
          "name": "role",
          "type": "bytes32"
        },
        {
          "internalType": "address",
          "name": "account",
          "type": "address"
        }
      ],
      "name": "hasRole",
      "outputs": [
        {
          "internalType": "bool",
          "name": "",
          "type": "bool"
        }
      ],
      "stateMutability": "view",
      "type": "function"
    },
    {
      "inputs": [
        {
          "internalType": "contract IERC20",
          "name": "token_",
          "type": "address"
        },
        {
          "internalType": "uint256",
          "name": "initialBorrow_",
          "type": "uint256"
        },
        {
          "internalType": "uint256",
          "name": "borrowBlock_",
          "type": "uint256"
        }
      ],
      "name": "interest",
      "outputs": [
        {
          "internalType": "uint256",
          "name": "",
          "type": "uint256"
        }
      ],
      "stateMutability": "view",
      "type": "function"
    },
    {
      "inputs": [
        {
          "internalType": "contract IERC20",
          "name": "token_",
          "type": "address"
        }
      ],
      "name": "interestRate",
      "outputs": [
        {
          "internalType": "uint256",
          "name": "",
          "type": "uint256"
        },
        {
          "internalType": "uint256",
          "name": "",
          "type": "uint256"
        }
      ],
      "stateMutability": "view",
      "type": "function"
    },
    {
      "inputs": [],
      "name": "interestRateBlocks",
      "outputs": [
        {
          "internalType": "uint256",
          "name": "",
          "type": "uint256"
        }
      ],
      "stateMutability": "view",
      "type": "function"
    },
    {
      "inputs": [
        {
          "internalType": "contract IERC20",
          "name": "token_",
          "type": "address"
        }
      ],
      "name": "isApprovedLP",
      "outputs": [
        {
          "internalType": "bool",
          "name": "",
          "type": "bool"
        }
      ],
      "stateMutability": "view",
      "type": "function"
    },
    {
      "inputs": [
        {
          "internalType": "contract IERC20",
          "name": "token_",
          "type": "address"
        }
      ],
      "name": "isApprovedPT",
      "outputs": [
        {
          "internalType": "bool",
          "name": "",
          "type": "bool"
        }
      ],
      "stateMutability": "view",
      "type": "function"
    },
    {
      "inputs": [
        {
          "internalType": "contract IERC20",
          "name": "token_",
          "type": "address"
        }
      ],
      "name": "isLP",
      "outputs": [
        {
          "internalType": "bool",
          "name": "",
          "type": "bool"
        }
      ],
      "stateMutability": "view",
      "type": "function"
    },
    {
      "inputs": [
        {
          "internalType": "contract IERC20",
          "name": "token_",
          "type": "address"
        }
      ],
      "name": "isPT",
      "outputs": [
        {
          "internalType": "bool",
          "name": "",
          "type": "bool"
        }
      ],
      "stateMutability": "view",
      "type": "function"
    },
    {
      "inputs": [
        {
          "internalType": "contract IERC20",
          "name": "token_",
          "type": "address"
        }
      ],
      "name": "liquidity",
      "outputs": [
        {
          "internalType": "uint256",
          "name": "",
          "type": "uint256"
        }
      ],
      "stateMutability": "view",
      "type": "function"
    },
    {
      "inputs": [
        {
          "internalType": "contract IERC20",
          "name": "token_",
          "type": "address"
        }
      ],
      "name": "maxInterestMax",
      "outputs": [
        {
          "internalType": "uint256",
          "name": "",
          "type": "uint256"
        },
        {
          "internalType": "uint256",
          "name": "",
          "type": "uint256"
        }
      ],
      "stateMutability": "view",
      "type": "function"
    },
    {
      "inputs": [
        {
          "internalType": "contract IERC20",
          "name": "token_",
          "type": "address"
        }
      ],
      "name": "maxInterestMin",
      "outputs": [
        {
          "internalType": "uint256",
          "name": "",
          "type": "uint256"
        },
        {
          "internalType": "uint256",
          "name": "",
          "type": "uint256"
        }
      ],
      "stateMutability": "view",
      "type": "function"
    },
    {
      "inputs": [
        {
          "internalType": "contract IERC20",
          "name": "token_",
          "type": "address"
        }
      ],
      "name": "maxUtilization",
      "outputs": [
        {
          "internalType": "uint256",
          "name": "",
          "type": "uint256"
        },
        {
          "internalType": "uint256",
          "name": "",
          "type": "uint256"
        }
      ],
      "stateMutability": "view",
      "type": "function"
    },
    {
      "inputs": [
        {
          "internalType": "contract IERC20",
          "name": "token_",
          "type": "address"
        },
        {
          "internalType": "uint256",
          "name": "amount_",
          "type": "uint256"
        }
      ],
      "name": "redeem",
      "outputs": [
        {
          "internalType": "uint256",
          "name": "",
          "type": "uint256"
        }
      ],
      "stateMutability": "nonpayable",
      "type": "function"
    },
    {
      "inputs": [
        {
          "internalType": "contract IERC20",
          "name": "token_",
          "type": "address"
        },
        {
          "internalType": "uint256",
          "name": "amount_",
          "type": "uint256"
        }
      ],
      "name": "redeemValue",
      "outputs": [
        {
          "internalType": "uint256",
          "name": "",
          "type": "uint256"
        }
      ],
      "stateMutability": "view",
      "type": "function"
    },
    {
      "inputs": [
        {
          "internalType": "address",
          "name": "account_",
          "type": "address"
        }
      ],
      "name": "removeTaxAccount",
      "outputs": [],
      "stateMutability": "nonpayable",
      "type": "function"
    },
    {
      "inputs": [
        {
          "internalType": "bytes32",
          "name": "role",
          "type": "bytes32"
        },
        {
          "internalType": "address",
          "name": "account",
          "type": "address"
        }
      ],
      "name": "renounceRole",
      "outputs": [],
      "stateMutability": "nonpayable",
      "type": "function"
    },
    {
      "inputs": [
        {
          "internalType": "bytes32",
          "name": "role",
          "type": "bytes32"
        },
        {
          "internalType": "address",
          "name": "account",
          "type": "address"
        }
      ],
      "name": "revokeRole",
      "outputs": [],
      "stateMutability": "nonpayable",
      "type": "function"
    },
    {
      "inputs": [
        {
          "internalType": "contract IERC20[]",
          "name": "token_",
          "type": "address[]"
        },
        {
          "internalType": "bool[]",
          "name": "approved_",
          "type": "bool[]"
        }
      ],
      "name": "setApproved",
      "outputs": [],
      "stateMutability": "nonpayable",
      "type": "function"
    },
    {
      "inputs": [
        {
          "internalType": "contract IConverter",
          "name": "converter_",
          "type": "address"
        }
      ],
      "name": "setConverter",
      "outputs": [],
      "stateMutability": "nonpayable",
      "type": "function"
    },
    {
      "inputs": [
        {
          "internalType": "uint256",
          "name": "interestRateBlocks_",
          "type": "uint256"
        }
      ],
      "name": "setInterestRateBlocks",
      "outputs": [],
      "stateMutability": "nonpayable",
      "type": "function"
    },
    {
      "inputs": [
        {
          "internalType": "contract IERC20[]",
          "name": "token_",
          "type": "address[]"
        },
        {
          "internalType": "uint256[]",
          "name": "percentNumerator_",
          "type": "uint256[]"
        },
        {
          "internalType": "uint256[]",
          "name": "percentDenominator_",
          "type": "uint256[]"
        }
      ],
      "name": "setMaxInterestMax",
      "outputs": [],
      "stateMutability": "nonpayable",
      "type": "function"
    },
    {
      "inputs": [
        {
          "internalType": "contract IERC20[]",
          "name": "token_",
          "type": "address[]"
        },
        {
          "internalType": "uint256[]",
          "name": "percentNumerator_",
          "type": "uint256[]"
        },
        {
          "internalType": "uint256[]",
          "name": "percentDenominator_",
          "type": "uint256[]"
        }
      ],
      "name": "setMaxInterestMin",
      "outputs": [],
      "stateMutability": "nonpayable",
      "type": "function"
    },
    {
      "inputs": [
        {
          "internalType": "contract IERC20[]",
          "name": "token_",
          "type": "address[]"
        },
        {
          "internalType": "uint256[]",
          "name": "percentNumerator_",
          "type": "uint256[]"
        },
        {
          "internalType": "uint256[]",
          "name": "percentDenominator_",
          "type": "uint256[]"
        }
      ],
      "name": "setMaxUtilization",
      "outputs": [],
      "stateMutability": "nonpayable",
      "type": "function"
    },
    {
      "inputs": [
        {
          "internalType": "uint256",
          "name": "taxPercentNumerator_",
          "type": "uint256"
        },
        {
          "internalType": "uint256",
          "name": "taxPercentDenominator_",
          "type": "uint256"
        }
      ],
      "name": "setTaxPercentage",
      "outputs": [],
      "stateMutability": "nonpayable",
      "type": "function"
    },
    {
      "inputs": [
        {
          "internalType": "contract IERC20",
          "name": "token_",
          "type": "address"
        },
        {
          "internalType": "uint256",
          "name": "amount_",
          "type": "uint256"
        }
      ],
      "name": "stake",
      "outputs": [
        {
          "internalType": "uint256",
          "name": "",
          "type": "uint256"
        }
      ],
      "stateMutability": "nonpayable",
      "type": "function"
    },
    {
      "inputs": [
        {
          "internalType": "contract IERC20",
          "name": "token_",
          "type": "address"
        },
        {
          "internalType": "uint256",
          "name": "amount_",
          "type": "uint256"
        }
      ],
      "name": "stakeValue",
      "outputs": [
        {
          "internalType": "uint256",
          "name": "",
          "type": "uint256"
        }
      ],
      "stateMutability": "view",
      "type": "function"
    },
    {
      "inputs": [
        {
          "internalType": "bytes4",
          "name": "interfaceId",
          "type": "bytes4"
        }
      ],
      "name": "supportsInterface",
      "outputs": [
        {
          "internalType": "bool",
          "name": "",
          "type": "bool"
        }
      ],
      "stateMutability": "view",
      "type": "function"
    },
    {
      "inputs": [],
      "name": "taxPercentage",
      "outputs": [
        {
          "internalType": "uint256",
          "name": "",
          "type": "uint256"
        },
        {
          "internalType": "uint256",
          "name": "",
          "type": "uint256"
        }
      ],
      "stateMutability": "view",
      "type": "function"
    },
    {
      "inputs": [
        {
          "internalType": "contract IERC20",
          "name": "token_",
          "type": "address"
        }
      ],
      "name": "totalClaimed",
      "outputs": [
        {
          "internalType": "uint256",
          "name": "",
          "type": "uint256"
        }
      ],
      "stateMutability": "view",
      "type": "function"
    },
    {
      "inputs": [
        {
          "internalType": "contract IERC20",
          "name": "token_",
          "type": "address"
        }
      ],
      "name": "tvl",
      "outputs": [
        {
          "internalType": "uint256",
          "name": "",
          "type": "uint256"
        }
      ],
      "stateMutability": "view",
      "type": "function"
    },
    {
      "inputs": [
        {
          "internalType": "contract IERC20",
          "name": "token_",
          "type": "address"
        },
        {
          "internalType": "uint256",
          "name": "amount_",
          "type": "uint256"
        }
      ],
      "name": "unclaim",
      "outputs": [],
      "stateMutability": "nonpayable",
      "type": "function"
    },
    {
      "inputs": [
        {
          "internalType": "contract IERC20",
          "name": "token_",
          "type": "address"
        }
      ],
      "name": "utilizationRate",
      "outputs": [
        {
          "internalType": "uint256",
          "name": "",
          "type": "uint256"
        },
        {
          "internalType": "uint256",
          "name": "",
          "type": "uint256"
        }
      ],
      "stateMutability": "view",
      "type": "function"
    },
    {
      "inputs": [
        {
          "internalType": "contract IERC20",
          "name": "token_",
          "type": "address"
        }
      ],
      "name": "utilized",
      "outputs": [
        {
          "internalType": "uint256",
          "name": "",
          "type": "uint256"
        }
      ],
      "stateMutability": "view",
      "type": "function"
    },
    {
      "inputs": [
        {
          "internalType": "contract IERC20",
          "name": "token_",
          "type": "address"
        },
        {
          "internalType": "uint256",
          "name": "amount_",
          "type": "uint256"
        }
      ],
      "name": "withdraw",
      "outputs": [],
      "stateMutability": "nonpayable",
      "type": "function"
    }
  ],
  "bytecode": "0x60806040523480156200001157600080fd5b5060405162004752380380620047528339810160408190526200003491620001cc565b8083836064620000546000805160206200473283398151915280620000e0565b6200008f7fe6026b923a18d83f4b6e92786fdd85dc8e02e7647281b0d8831236806acf2a3060008051602062004732833981519152620000e0565b620000aa60008051602062004732833981519152336200012b565b600791909155600855600b80546001600160a01b0319166001600160a01b0392909216919091179055600c55506200020f915050565b600082815260208190526040808220600101805490849055905190918391839186917fbd79b86ffe0ab8e8776151514217cd7cacd52c909f66475c3af44e129f0b00ff9190a4505050565b6000828152602081815260408083206001600160a01b038516845290915290205460ff16620001c8576000828152602081815260408083206001600160a01b03851684529091529020805460ff19166001179055620001873390565b6001600160a01b0316816001600160a01b0316837f2f8788117e7eff1d82e926ec794901d17c78024a50270940304540a733656f0d60405160405180910390a45b5050565b600080600060608486031215620001e1578283fd5b83516001600160a01b0381168114620001f8578384fd5b602085015160409095015190969495509392505050565b614513806200021f6000396000f3fe60806040523480156200001157600080fd5b5060043610620002cd5760003560e01c80638695ede31162000185578063bd38837b11620000df578063e75db6161162000092578063e75db6161462000739578063ef5d9ae81462000750578063f2fd9dc2146200077c578063f3fef3a31462000793578063fbfa54d114620007aa578063fe3d576814620007c157600080fd5b8063bd38837b14620006b2578063bffe84c214620006c6578063d0b9622c14620006dd578063d547741f14620006f4578063e472d744146200070b578063e5a045cb146200072257600080fd5b8063aad3ec961162000138578063aad3ec961462000640578063adc9772e1462000657578063ae7b6d16146200066e578063b19337a4146200067a578063b2ac20721462000691578063b8c876b1146200069b57600080fd5b80638695ede3146200058a578063902c4e5514620005be57806391d1485414620005d5578063a217fddf14620005ec578063a2b4fe7114620005f5578063aa08ed76146200060c57600080fd5b806336568abe11620002375780636da8d26211620001ea5780636da8d26214620005005780637594825b146200051757806378b09e91146200052e5780637b56446014620005455780637c2c69c0146200055c5780637df0f767146200057357600080fd5b806336568abe146200045d57806347e7ef2414620004745780634bf90fe3146200048b5780634c07d1b714620004a25780636518711d14620004d25780636a112c8914620004e957600080fd5b80631e9a695011620002905780631e9a695014620003c2578063207b27df14620003d957806320f5ad9414620003f0578063248a9ca3146200040957806325ddcd61146200042f5780632f2ff15d146200044657600080fd5b806301ffc9a714620002d2578063045f1f4f14620002fe5780630c9cbf0e146200032457806312e23ac2146200036157806318b7373d14620003ab575b600080fd5b620002e9620002e336600462002fdc565b620007d8565b60405190151581526020015b60405180910390f35b62000315600080516020620044be83398151915281565b604051908152602001620002f5565b620003156200033536600462003006565b6001600160a01b0380821660009081526005602090815260408083209386168352929052205492915050565b620003956200037236600462002d6e565b6001600160a01b03166000908152600e6020526040902080546001909101549091565b60408051928352602083019190915201620002f5565b620002e9620003bc36600462002d6e565b62000810565b62000315620003d336600462003038565b62000830565b62000395620003ea36600462002d6e565b620009dc565b6200040762000401366004620030b6565b62000a06565b005b620003156200041a36600462002f91565b60009081526020819052604090206001015490565b620004076200044036600462002d6e565b62000a2e565b620004076200045736600462002faa565b62000a5b565b620004076200046e36600462002faa565b62000a8a565b620004076200048536600462003038565b62000b08565b620004076200049c36600462002f91565b62000d22565b620004b9620004b336600462002d6e565b62000d44565b6040516001600160a01b039091168152602001620002f5565b62000407620004e336600462002eee565b62000d91565b620004b9620004fa36600462002d6e565b62000ed1565b620003156200051136600462003038565b62000f4d565b620004076200052836600462002d6e565b62000ff6565b620003156200053f36600462003038565b6200101f565b620004076200055636600462002eee565b620010c8565b620003956200056d36600462002d6e565b62001201565b620002e96200058436600462002d6e565b620012d5565b620003956200059b36600462002d6e565b6001600160a01b03166000908152600f6020526040902080546001909101549091565b62000407620005cf36600462002e60565b620012f5565b620002e9620005e636600462002faa565b620015f7565b62000315600081565b620003156000805160206200449e83398151915281565b620003956200061d36600462002d6e565b6001600160a01b03166000908152600d6020526040902080546001909101549091565b620004076200065136600462003038565b62001620565b620003156200066836600462003038565b6200179a565b60075460085462000395565b620004076200068b36600462002d6e565b62001920565b62000315600c5481565b62000315620006ac36600462002d6e565b6200195f565b600b54620004b9906001600160a01b031681565b62000407620006d736600462003038565b62001996565b62000315620006ee36600462003066565b62001b4f565b620004076200070536600462002faa565b62001ba0565b620004076200071c36600462002d8d565b62001bca565b620002e96200073336600462002d6e565b62001cc7565b620003156200074a36600462002d6e565b62001cfb565b620003156200076136600462002d6e565b6001600160a01b031660009081526006602052604090205490565b620004076200078d36600462002eee565b62001d79565b62000407620007a436600462003038565b62001eb2565b620002e9620007bb36600462002d6e565b62001fc1565b62000315620007d236600462002d6e565b62002008565b60006001600160e01b03198216637965db0b60e01b14806200080a57506301ffc9a760e01b6001600160e01b03198316145b92915050565b6001600160a01b0390811660009081526001602052604090205416151590565b6000826200083e81620012d5565b620008665760405162461bcd60e51b81526004016200085d90620031e4565b60405180910390fd5b836000620008748262000d44565b9050600062000884838762000f4d565b905062000891826200195f565b811115620008f65760405162461bcd60e51b815260206004820152602b60248201527f4e6f7420656e6f756768206c697175696469747920746f2072656465656d206160448201526a7420746869732074696d6560a81b60648201526084016200085d565b6001600160a01b038316639dc29fac336040516001600160e01b031960e084901b1681526001600160a01b03909116600482015260248101899052604401600060405180830381600087803b1580156200094f57600080fd5b505af115801562000964573d6000803e3d6000fd5b5050505062000986620009743390565b6001600160a01b03841690836200203b565b604080516001600160a01b038916815260208101889052808201839052905133917f3f693fff038bb8a046aa76d9516190ac7444f7d69cf952c4cbdc086fdef2d6fc919081900360600190a29695505050505050565b6000806000620009ec8462001cfb565b90506000620009fb8562002008565b959194509092505050565b6000805160206200449e83398151915262000a228133620020a0565b50600791909155600855565b6000805160206200449e83398151915262000a4a8133620020a0565b62000a576009836200210f565b5050565b60008281526020819052604090206001015462000a798133620020a0565b62000a858383620021cf565b505050565b6001600160a01b038116331462000afc5760405162461bcd60e51b815260206004820152602f60248201527f416363657373436f6e74726f6c3a2063616e206f6e6c792072656e6f756e636560448201526e103937b632b9903337b91039b2b63360891b60648201526084016200085d565b62000a57828262002257565b600080516020620044be83398151915262000b248133620020a0565b62000b3b6001600160a01b038416333085620022bf565b600062000b47620022f9565b600b546040516302e0684d60e11b81526001600160a01b038781166004830152602482018790528084166044830152929350600092909116906305c0d09a90606401602060405180830381600087803b15801562000ba457600080fd5b505af115801562000bb9573d6000803e3d6000fd5b505050506040513d601f19601f8201168201806040525081019062000bdf91906200309d565b9050600062000bed62002398565b905060008062000c006007546008549091565b91509150600062000c2d845162000c268462000c268988620023ab90919063ffffffff16565b90620023b9565b9050600062000c47855183620023ab90919063ffffffff16565b905060005b855181101562000cb35762000c9e86828151811062000c7b57634e487b7160e01b600052603260045260246000fd5b6020026020010151848a6001600160a01b03166200203b9092919063ffffffff16565b8062000caa8162003381565b91505062000c4c565b5062000cc08682620023c7565b604080516001600160a01b038d81168252602082018d90528a168183015260608101839052905191975033917faaefaf378e10f40556b2167ea878af7e62d89229b0bce3924630aabf1ee611ff9181900360800190a250505050505050505050565b6000805160206200449e83398151915262000d3e8133620020a0565b50600c55565b60008162000d5281620012d5565b62000d715760405162461bcd60e51b81526004016200085d90620031e4565b50506001600160a01b039081166000908152600260205260409020541690565b6000805160206200449e83398151915262000dad8133620020a0565b60005b845181101562000eca5783818151811062000ddb57634e487b7160e01b600052603260045260246000fd5b6020026020010151600f600087848151811062000e0857634e487b7160e01b600052603260045260246000fd5b60200260200101516001600160a01b03166001600160a01b031681526020019081526020016000206000018190555082818151811062000e5857634e487b7160e01b600052603260045260246000fd5b6020026020010151600f600087848151811062000e8557634e487b7160e01b600052603260045260246000fd5b60200260200101516001600160a01b03166001600160a01b0316815260200190815260200160002060010181905550808062000ec19062003381565b91505062000db0565b5050505050565b60008162000edf8162000810565b62000f2d5760405162461bcd60e51b815260206004820152601c60248201527f4f6e6c7920706f6f6c20746f6b656e73206d617920626520757365640000000060448201526064016200085d565b50506001600160a01b039081166000908152600160205260409020541690565b6000808390506000816001600160a01b03166318160ddd6040518163ffffffff1660e01b815260040160206040518083038186803b15801562000f8f57600080fd5b505afa15801562000fa4573d6000803e3d6000fd5b505050506040513d601f19601f8201168201806040525081019062000fca91906200309d565b9050600062000fd98662001cfb565b905062000fec8262000c268784620023ab565b9695505050505050565b6000805160206200449e833981519152620010128133620020a0565b62000a57600983620023d5565b6000806200102d8462000ed1565b90506000816001600160a01b03166318160ddd6040518163ffffffff1660e01b815260040160206040518083038186803b1580156200106b57600080fd5b505afa15801562001080573d6000803e3d6000fd5b505050506040513d601f19601f82011682018060405250810190620010a691906200309d565b90506000620010b58662001cfb565b905062000fec8162000c268785620023ab565b6000805160206200449e833981519152620010e48133620020a0565b60005b845181101562000eca578381815181106200111257634e487b7160e01b600052603260045260246000fd5b6020026020010151600e60008784815181106200113f57634e487b7160e01b600052603260045260246000fd5b60200260200101516001600160a01b03166001600160a01b03168152602001908152602001600020600001819055508281815181106200118f57634e487b7160e01b600052603260045260246000fd5b6020026020010151600e6000878481518110620011bc57634e487b7160e01b600052603260045260246000fd5b60200260200101516001600160a01b03166001600160a01b03168152602001908152602001600020600101819055508080620011f89062003381565b915050620010e7565b6000806000806200121285620009dc565b6001600160a01b0387166000818152600f60209081526040808320815180830183528154815260019182015481850152858552600d808552838620845180860186528154808252919094015484870181905297909652845282518084019093529382529181019390935281519496509294509262001292908590620023ab565b6020840151620012a4908790620023ab565b1115620012c857620012ba85858585856200254c565b965096505050505050915091565b620012ba85858462002627565b6001600160a01b0390811660009081526002602052604090205416151590565b6000805160206200449e833981519152620013118133620020a0565b60005b845181101562000eca57620013518582815181106200134357634e487b7160e01b600052603260045260246000fd5b602002602001015162000810565b1580156200138f57506200138d8582815181106200137f57634e487b7160e01b600052603260045260246000fd5b6020026020010151620012d5565b155b15620015e2576000848281518110620013b857634e487b7160e01b600052603260045260246000fd5b6020026020010151848381518110620013e157634e487b7160e01b600052603260045260246000fd5b6020026020010151604051620013f79062002b8a565b62001404929190620031b2565b604051809103906000f08015801562001421573d6000803e3d6000fd5b50905080600160008885815181106200144a57634e487b7160e01b600052603260045260246000fd5b60200260200101516001600160a01b03166001600160a01b0316815260200190815260200160002060006101000a8154816001600160a01b0302191690836001600160a01b03160217905550858281518110620014b757634e487b7160e01b600052603260045260246000fd5b602002602001015160026000836001600160a01b03166001600160a01b0316815260200190815260200160002060006101000a8154816001600160a01b0302191690836001600160a01b0316021790555060038683815181106200152b57634e487b7160e01b600052603260045260246000fd5b60209081029190910181015182546001810184556000938452919092200180546001600160a01b0319166001600160a01b0390921691909117905585517f477e5c7d85f3de93afbcad26bdf96f48e48da2fe002f3e35e7aa07bf174daeff90879084908110620015ab57634e487b7160e01b600052603260045260246000fd5b602002602001015182604051620015d89291906001600160a01b0392831681529116602082015260400190565b60405180910390a1505b80620015ee8162003381565b91505062001314565b6000918252602082815260408084206001600160a01b0393909316845291905290205460ff1690565b600080516020620044be8339815191526200163c8133620020a0565b82620016488162001cc7565b620016675760405162461bcd60e51b81526004016200085d906200322a565b62001672846200195f565b831115620016d25760405162461bcd60e51b815260206004820152602660248201527f43616e6e6f7420636c61696d206d6f7265207468616e20746f74616c206c697160448201526575696469747960d01b60648201526084016200085d565b3360009081526005602090815260408083206001600160a01b038816845290915290205462001702908462002659565b3360009081526005602090815260408083206001600160a01b03891684528252808320939093556006905220546200173b908462002659565b6001600160a01b03851660008181526006602090815260409182902093909355805191825291810185905233917f70eb43c4a8ae8c40502dcf22436c509c28d6ff421cf07c491be56984bd98706891015b60405180910390a250505050565b600082620017a88162001cc7565b620017c75760405162461bcd60e51b81526004016200085d906200322a565b6000620017d48562000ed1565b90506000620017e486866200101f565b905060008111620018385760405162461bcd60e51b815260206004820152601860248201527f4e6f7420656e6f75676820746f6b656e73207374616b6564000000000000000060448201526064016200085d565b6200184f6001600160a01b038716333088620022bf565b6001600160a01b0382166340c10f19336040516001600160e01b031960e084901b1681526001600160a01b03909116600482015260248101849052604401600060405180830381600087803b158015620018a857600080fd5b505af1158015620018bd573d6000803e3d6000fd5b50505050620018c93390565b604080516001600160a01b038981168252602082018990529181018490529116907f63602d0ecc7b3a0ef7ff1a116e23056662d64280355ba8031b6d0d767c4b44589060600160405180910390a295945050505050565b6000805160206200449e8339815191526200193c8133620020a0565b50600b80546001600160a01b0319166001600160a01b0392909216919091179055565b6001600160a01b0381166000908152600660205260408120546200198f81620019888562001cfb565b90620023c7565b9392505050565b600080516020620044be833981519152620019b28133620020a0565b82620019be8162000810565b62001a0c5760405162461bcd60e51b815260206004820152601c60248201527f4f6e6c7920706f6f6c20746f6b656e73206d617920626520757365640000000060448201526064016200085d565b3360009081526005602090815260408083206001600160a01b038816845290915290205483111562001a905760405162461bcd60e51b815260206004820152602660248201527f43616e6e6f7420756e636c61696d206d6f7265207468616e2063757272656e7460448201526520636c61696d60d01b60648201526084016200085d565b3360009081526005602090815260408083206001600160a01b038816845290915290205462001ac09084620023c7565b3360009081526005602090815260408083206001600160a01b038916845282528083209390935560069052205462001af99084620023c7565b6001600160a01b03851660008181526006602090815260409182902093909355805191825291810185905233917fb357d3c8cf2c37863e04f4c71afd0e8bef633cec94ee21866dc4e7058932a48991016200178c565b60008062001b5e4384620023c7565b905060008062001b6e8762001201565b600c54919350915062001b959062000c2683818762001b8e8c89620023ab565b90620023ab565b979650505050505050565b60008281526020819052604090206001015462001bbe8133620020a0565b62000a85838362002257565b6000805160206200449e83398151915262001be68133620020a0565b60005b835181101562001cc15762001c188482815181106200134357634e487b7160e01b600052603260045260246000fd5b1562001cac5782818151811062001c3f57634e487b7160e01b600052603260045260246000fd5b60200260200101516004600086848151811062001c6c57634e487b7160e01b600052603260045260246000fd5b60200260200101516001600160a01b03166001600160a01b0316815260200190815260200160002060006101000a81548160ff0219169083151502179055505b8062001cb88162003381565b91505062001be9565b50505050565b600062001cd48262000810565b80156200080a5750506001600160a01b031660009081526004602052604090205460ff1690565b6040516370a0823160e01b81523060048201526000906001600160a01b038316906370a082319060240160206040518083038186803b15801562001d3e57600080fd5b505afa15801562001d53573d6000803e3d6000fd5b505050506040513d601f19601f820116820180604052508101906200080a91906200309d565b6000805160206200449e83398151915262001d958133620020a0565b60005b845181101562000eca5783818151811062001dc357634e487b7160e01b600052603260045260246000fd5b6020026020010151600d600087848151811062001df057634e487b7160e01b600052603260045260246000fd5b60200260200101516001600160a01b03166001600160a01b031681526020019081526020016000206000018190555082818151811062001e4057634e487b7160e01b600052603260045260246000fd5b6020026020010151600d600087848151811062001e6d57634e487b7160e01b600052603260045260246000fd5b60200260200101516001600160a01b03166001600160a01b0316815260200190815260200160002060010181905550808062001ea99062003381565b91505062001d98565b600080516020620044be83398151915262001ece8133620020a0565b8262001eda8162001cc7565b62001ef95760405162461bcd60e51b81526004016200085d906200322a565b62001f04846200195f565b83111562001f695760405162461bcd60e51b815260206004820152602b60248201527f576974686472617720616d6f756e74206578636565647320617661696c61626c60448201526a65206c697175696469747960a81b60648201526084016200085d565b62001f7f6001600160a01b03851633856200203b565b604080516001600160a01b03861681526020810185905233917f9b1bfa7fa9ee420a16e124f794c35ac9f90472acc99140eb2f6447c714cad8eb91016200178c565b600062001fce82620012d5565b80156200080a57506004600062001fe58462000d44565b6001600160a01b0316815260208101919091526040016000205460ff1692915050565b60008062002016836200195f565b90506000620020258462001cfb565b9050620020338183620023c7565b949350505050565b6040516001600160a01b03831660248201526044810182905262000a8590849063a9059cbb60e01b906064015b60408051601f198184030181529190526020810180516001600160e01b03166001600160e01b03199093169290921790915262002667565b620020ac8282620015f7565b62000a5757620020c7816001600160a01b0316601462002740565b620020d483602062002740565b604051602001620020e792919062003124565b60408051601f198184030181529082905262461bcd60e51b82526200085d916004016200319d565b6200211b828262002936565b15620021755760405162461bcd60e51b815260206004820152602260248201527f4164647265737320616c72656164792065786973747320696e207468652073656044820152613a1760f11b60648201526084016200085d565b6001828101805480830182556000828152602090200180546001600160a01b0319166001600160a01b03851617905554620021b191906200331e565b6001600160a01b039091166000908152602092909252604090912055565b620021db8282620015f7565b62000a57576000828152602081815260408083206001600160a01b03851684529091529020805460ff19166001179055620022133390565b6001600160a01b0316816001600160a01b0316837f2f8788117e7eff1d82e926ec794901d17c78024a50270940304540a733656f0d60405160405180910390a45050565b620022638282620015f7565b1562000a57576000828152602081815260408083206001600160a01b0385168085529252808320805460ff1916905551339285917ff6391f5c32d9c69d2a47ea670b442974b53935d1edc7fd64eb21e047a839171b9190a45050565b6040516001600160a01b038085166024830152831660448201526064810182905262001cc19085906323b872dd60e01b9060840162002068565b60008062002306620029a8565b9050600062002366825144436200231a3390565b6040805160208101949094528301919091526bffffffffffffffffffffffff19606091821b169082015260740160408051601f1981840301815291905280516020909101209062002a0c565b90508181815181106200238957634e487b7160e01b600052603260045260246000fd5b60200260200101519250505090565b6060620023a6600962002a1a565b905090565b60006200198f8284620032fc565b60006200198f8284620032e5565b60006200198f82846200331e565b620023e1828262002936565b6200243a5760405162461bcd60e51b815260206004820152602260248201527f4164647265737320646f6573206e6f7420657869737420696e207468652073656044820152613a1760f11b60648201526084016200085d565b600182810180546000926200244f916200331e565b815481106200246e57634e487b7160e01b600052603260045260246000fd5b60009182526020808320909101546001600160a01b03858116845291869052604080842054929091168084529220819055600185018054929350909183919083908110620024cc57634e487b7160e01b600052603260045260246000fd5b600091825260208083209190910180546001600160a01b0319166001600160a01b039485161790559185168152908590526040812055600184018054806200252457634e487b7160e01b600052603160045260246000fd5b600082815260209020810160001990810180546001600160a01b031916905501905550505050565b60008060006200258d866000015162001b8e6200257b87602001518960000151620023ab90919063ffffffff16565b60208901518851620019889162002659565b90506000620025b7876020015162001b8e88602001518860200151620023ab90919063ffffffff16565b90506000620025f3620025dd876020015162001b8e8c87620023ab90919063ffffffff16565b87516200198890859062001b8e908f90620023ab565b90506000620026158362001b8e89602001518d620023ab90919063ffffffff16565b919b919a509098505050505050505050565b805160009081906200263b908690620023ab565b60208401516200264d908690620023ab565b91509150935093915050565b60006200198f8284620032ca565b6000620026be826040518060400160405280602081526020017f5361666545524332303a206c6f772d6c6576656c2063616c6c206661696c6564815250856001600160a01b031662002a829092919063ffffffff16565b80519091501562000a855780806020019051810190620026df919062002f72565b62000a855760405162461bcd60e51b815260206004820152602a60248201527f5361666545524332303a204552433230206f7065726174696f6e20646964206e6044820152691bdd081cdd58d8d9595960b21b60648201526084016200085d565b6060600062002751836002620032fc565b6200275e906002620032ca565b67ffffffffffffffff8111156200278557634e487b7160e01b600052604160045260246000fd5b6040519080825280601f01601f191660200182016040528015620027b0576020820181803683370190505b509050600360fc1b81600081518110620027da57634e487b7160e01b600052603260045260246000fd5b60200101906001600160f81b031916908160001a905350600f60fb1b816001815181106200281857634e487b7160e01b600052603260045260246000fd5b60200101906001600160f81b031916908160001a90535060006200283e846002620032fc565b6200284b906001620032ca565b90505b6001811115620028e5576f181899199a1a9b1b9c1cb0b131b232b360811b85600f16601081106200288f57634e487b7160e01b600052603260045260246000fd5b1a60f81b828281518110620028b457634e487b7160e01b600052603260045260246000fd5b60200101906001600160f81b031916908160001a90535060049490941c93620028dd8162003367565b90506200284e565b5083156200198f5760405162461bcd60e51b815260206004820181905260248201527f537472696e67733a20686578206c656e67746820696e73756666696369656e7460448201526064016200085d565b60018201546000906200294c575060006200080a565b6001600160a01b03821660008181526020859052604090205460018501805490919081106200298b57634e487b7160e01b600052603260045260246000fd5b6000918252602090912001546001600160a01b0316149392505050565b6060600380548060200260200160405190810160405280929190818152602001828054801562002a0257602002820191906000526020600020905b81546001600160a01b03168152600190910190602001808311620029e3575b5050505050905090565b60006200198f82846200339f565b60608160010180548060200260200160405190810160405280929190818152602001828054801562002a7657602002820191906000526020600020905b81546001600160a01b0316815260019091019060200180831162002a57575b50505050509050919050565b606062002033848460008585843b62002ade5760405162461bcd60e51b815260206004820152601d60248201527f416464726573733a2063616c6c20746f206e6f6e2d636f6e747261637400000060448201526064016200085d565b600080866001600160a01b0316858760405162002afc919062003106565b60006040518083038185875af1925050503d806000811462002b3b576040519150601f19603f3d011682016040523d82523d6000602084013e62002b40565b606091505b509150915062001b958282866060831562002b5d5750816200198f565b82511562002b6e5782518084602001fd5b8160405162461bcd60e51b81526004016200085d91906200319d565b61107d806200342183390190565b600082601f83011262002ba9578081fd5b8135602062002bc262002bbc83620032a3565b6200326f565b80838252828201915082860187848660051b890101111562002be2578586fd5b855b8581101562002c0d57813562002bfa81620033f8565b8452928401929084019060010162002be4565b5090979650505050505050565b6000601f838184011262002c2c578182fd5b8235602062002c3f62002bbc83620032a3565b80838252828201915082870188848660051b8a0101111562002c5f578687fd5b865b8581101562002cfc57813567ffffffffffffffff8082111562002c8257898afd5b818b0191508b603f83011262002c9657898afd5b8682013560408282111562002caf5762002caf620033e2565b62002cc2828c01601f19168a016200326f565b92508183528d8183860101111562002cd8578b8cfd5b818185018a85013750810187018a9052855250928401929084019060010162002c61565b509098975050505050505050565b600082601f83011262002d1b578081fd5b8135602062002d2e62002bbc83620032a3565b80838252828201915082860187848660051b890101111562002d4e578586fd5b855b8581101562002c0d5781358452928401929084019060010162002d50565b60006020828403121562002d80578081fd5b81356200198f81620033f8565b6000806040838503121562002da0578081fd5b823567ffffffffffffffff8082111562002db8578283fd5b62002dc68683870162002b98565b935060209150818501358181111562002ddd578384fd5b85019050601f8101861362002df0578283fd5b803562002e0162002bbc82620032a3565b80828252848201915084840189868560051b870101111562002e21578687fd5b8694505b8385101562002e5057803562002e3b8162003411565b83526001949094019391850191850162002e25565b5080955050505050509250929050565b60008060006060848603121562002e75578081fd5b833567ffffffffffffffff8082111562002e8d578283fd5b62002e9b8783880162002b98565b9450602086013591508082111562002eb1578283fd5b62002ebf8783880162002c1a565b9350604086013591508082111562002ed5578283fd5b5062002ee48682870162002c1a565b9150509250925092565b60008060006060848603121562002f03578283fd5b833567ffffffffffffffff8082111562002f1b578485fd5b62002f298783880162002b98565b9450602086013591508082111562002f3f578384fd5b62002f4d8783880162002d0a565b9350604086013591508082111562002f63578283fd5b5062002ee48682870162002d0a565b60006020828403121562002f84578081fd5b81516200198f8162003411565b60006020828403121562002fa3578081fd5b5035919050565b6000806040838503121562002fbd578182fd5b82359150602083013562002fd181620033f8565b809150509250929050565b60006020828403121562002fee578081fd5b81356001600160e01b0319811681146200198f578182fd5b6000806040838503121562003019578182fd5b82356200302681620033f8565b9150602083013562002fd181620033f8565b600080604083850312156200304b578182fd5b82356200305881620033f8565b946020939093013593505050565b6000806000606084860312156200307b578081fd5b83356200308881620033f8565b95602085013595506040909401359392505050565b600060208284031215620030af578081fd5b5051919050565b60008060408385031215620030c9578182fd5b50508035926020909101359150565b60008151808452620030f281602086016020860162003338565b601f01601f19169290920160200192915050565b600082516200311a81846020870162003338565b9190910192915050565b7f416363657373436f6e74726f6c3a206163636f756e74200000000000000000008152600083516200315e81601785016020880162003338565b7001034b99036b4b9b9b4b733903937b6329607d1b60179184019182015283516200319181602884016020880162003338565b01602801949350505050565b6020815260006200198f6020830184620030d8565b604081526000620031c76040830185620030d8565b8281036020840152620031db8185620030d8565b95945050505050565b60208082526026908201527f4f6e6c79206c697175696469747920706f6f6c20746f6b656e73206d6179206260408201526519481d5cd95960d21b606082015260800190565b60208082526025908201527f4f6e6c7920617070726f76656420706f6f6c20746f6b656e73206d6179206265604082015264081d5cd95960da1b606082015260800190565b604051601f8201601f1916810167ffffffffffffffff811182821017156200329b576200329b620033e2565b604052919050565b600067ffffffffffffffff821115620032c057620032c0620033e2565b5060051b60200190565b60008219821115620032e057620032e0620033b6565b500190565b600082620032f757620032f7620033cc565b500490565b6000816000190483118215151615620033195762003319620033b6565b500290565b600082821015620033335762003333620033b6565b500390565b60005b83811015620033555781810151838201526020016200333b565b8381111562001cc15750506000910152565b600081620033795762003379620033b6565b506000190190565b6000600019821415620033985762003398620033b6565b5060010190565b600082620033b157620033b1620033cc565b500690565b634e487b7160e01b600052601160045260246000fd5b634e487b7160e01b600052601260045260246000fd5b634e487b7160e01b600052604160045260246000fd5b6001600160a01b03811681146200340e57600080fd5b50565b80151581146200340e57600080fdfe60806040523480156200001157600080fd5b506040516200107d3803806200107d833981016040819052620000349162000237565b8151829082906200004d906003906020850190620000de565b50805162000063906004906020840190620000de565b505050620000806200007a6200008860201b60201c565b6200008c565b5050620002f1565b3390565b600580546001600160a01b038381166001600160a01b0319831681179093556040519116919082907f8be0079c531659141344cd1fd0a4f28419497f9722a3daafe3b4186f6b6457e090600090a35050565b828054620000ec906200029e565b90600052602060002090601f0160209004810192826200011057600085556200015b565b82601f106200012b57805160ff19168380011785556200015b565b828001600101855582156200015b579182015b828111156200015b5782518255916020019190600101906200013e565b50620001699291506200016d565b5090565b5b808211156200016957600081556001016200016e565b600082601f83011262000195578081fd5b81516001600160401b0380821115620001b257620001b2620002db565b604051601f8301601f19908116603f01168101908282118183101715620001dd57620001dd620002db565b81604052838152602092508683858801011115620001f9578485fd5b8491505b838210156200021c5785820183015181830184015290820190620001fd565b838211156200022d57848385830101525b9695505050505050565b600080604083850312156200024a578182fd5b82516001600160401b038082111562000261578384fd5b6200026f8683870162000184565b9350602085015191508082111562000285578283fd5b50620002948582860162000184565b9150509250929050565b600181811c90821680620002b357607f821691505b60208210811415620002d557634e487b7160e01b600052602260045260246000fd5b50919050565b634e487b7160e01b600052604160045260246000fd5b610d7c80620003016000396000f3fe608060405234801561001057600080fd5b50600436106101005760003560e01c8063715018a611610097578063a457c2d711610066578063a457c2d714610209578063a9059cbb1461021c578063dd62ed3e1461022f578063f2fde38b1461026857600080fd5b8063715018a6146101cb5780638da5cb5b146101d357806395d89b41146101ee5780639dc29fac146101f657600080fd5b8063313ce567116100d3578063313ce5671461016b578063395093511461017a57806340c10f191461018d57806370a08231146101a257600080fd5b806306fdde0314610105578063095ea7b31461012357806318160ddd1461014657806323b872dd14610158575b600080fd5b61010d61027b565b60405161011a9190610c3e565b60405180910390f35b610136610131366004610c15565b61030d565b604051901515815260200161011a565b6002545b60405190815260200161011a565b610136610166366004610bda565b610323565b6040516012815260200161011a565b610136610188366004610c15565b6103d2565b6101a061019b366004610c15565b61040e565b005b61014a6101b0366004610b87565b6001600160a01b031660009081526020819052604090205490565b6101a0610446565b6005546040516001600160a01b03909116815260200161011a565b61010d61047c565b6101a0610204366004610c15565b61048b565b610136610217366004610c15565b6104bf565b61013661022a366004610c15565b610558565b61014a61023d366004610ba8565b6001600160a01b03918216600090815260016020908152604080832093909416825291909152205490565b6101a0610276366004610b87565b610565565b60606003805461028a90610cf5565b80601f01602080910402602001604051908101604052809291908181526020018280546102b690610cf5565b80156103035780601f106102d857610100808354040283529160200191610303565b820191906000526020600020905b8154815290600101906020018083116102e657829003601f168201915b5050505050905090565b600061031a338484610600565b50600192915050565b6000610330848484610725565b6001600160a01b0384166000908152600160209081526040808320338452909152902054828110156103ba5760405162461bcd60e51b815260206004820152602860248201527f45524332303a207472616e7366657220616d6f756e74206578636565647320616044820152676c6c6f77616e636560c01b60648201526084015b60405180910390fd5b6103c78533858403610600565b506001949350505050565b3360008181526001602090815260408083206001600160a01b0387168452909152812054909161031a918590610409908690610cc6565b610600565b6005546001600160a01b031633146104385760405162461bcd60e51b81526004016103b190610c91565b61044282826108f4565b5050565b6005546001600160a01b031633146104705760405162461bcd60e51b81526004016103b190610c91565b61047a60006109d3565b565b60606004805461028a90610cf5565b6005546001600160a01b031633146104b55760405162461bcd60e51b81526004016103b190610c91565b6104428282610a25565b3360009081526001602090815260408083206001600160a01b0386168452909152812054828110156105415760405162461bcd60e51b815260206004820152602560248201527f45524332303a2064656372656173656420616c6c6f77616e63652062656c6f77604482015264207a65726f60d81b60648201526084016103b1565b61054e3385858403610600565b5060019392505050565b600061031a338484610725565b6005546001600160a01b0316331461058f5760405162461bcd60e51b81526004016103b190610c91565b6001600160a01b0381166105f45760405162461bcd60e51b815260206004820152602660248201527f4f776e61626c653a206e6577206f776e657220697320746865207a65726f206160448201526564647265737360d01b60648201526084016103b1565b6105fd816109d3565b50565b6001600160a01b0383166106625760405162461bcd60e51b8152602060048201526024808201527f45524332303a20617070726f76652066726f6d20746865207a65726f206164646044820152637265737360e01b60648201526084016103b1565b6001600160a01b0382166106c35760405162461bcd60e51b815260206004820152602260248201527f45524332303a20617070726f766520746f20746865207a65726f206164647265604482015261737360f01b60648201526084016103b1565b6001600160a01b0383811660008181526001602090815260408083209487168084529482529182902085905590518481527f8c5be1e5ebec7d5bd14f71427d1e84f3dd0314c0f7b2291e5b200ac8c7c3b92591015b60405180910390a3505050565b6001600160a01b0383166107895760405162461bcd60e51b815260206004820152602560248201527f45524332303a207472616e736665722066726f6d20746865207a65726f206164604482015264647265737360d81b60648201526084016103b1565b6001600160a01b0382166107eb5760405162461bcd60e51b815260206004820152602360248201527f45524332303a207472616e7366657220746f20746865207a65726f206164647260448201526265737360e81b60648201526084016103b1565b6001600160a01b038316600090815260208190526040902054818110156108635760405162461bcd60e51b815260206004820152602660248201527f45524332303a207472616e7366657220616d6f756e7420657863656564732062604482015265616c616e636560d01b60648201526084016103b1565b6001600160a01b0380851660009081526020819052604080822085850390559185168152908120805484929061089a908490610cc6565b92505081905550826001600160a01b0316846001600160a01b03167fddf252ad1be2c89b69c2b068fc378daa952ba7f163c4a11628f55a4df523b3ef846040516108e691815260200190565b60405180910390a350505050565b6001600160a01b03821661094a5760405162461bcd60e51b815260206004820152601f60248201527f45524332303a206d696e7420746f20746865207a65726f20616464726573730060448201526064016103b1565b806002600082825461095c9190610cc6565b90915550506001600160a01b03821660009081526020819052604081208054839290610989908490610cc6565b90915550506040518181526001600160a01b038316906000907fddf252ad1be2c89b69c2b068fc378daa952ba7f163c4a11628f55a4df523b3ef9060200160405180910390a35050565b600580546001600160a01b038381166001600160a01b0319831681179093556040519116919082907f8be0079c531659141344cd1fd0a4f28419497f9722a3daafe3b4186f6b6457e090600090a35050565b6001600160a01b038216610a855760405162461bcd60e51b815260206004820152602160248201527f45524332303a206275726e2066726f6d20746865207a65726f206164647265736044820152607360f81b60648201526084016103b1565b6001600160a01b03821660009081526020819052604090205481811015610af95760405162461bcd60e51b815260206004820152602260248201527f45524332303a206275726e20616d6f756e7420657863656564732062616c616e604482015261636560f01b60648201526084016103b1565b6001600160a01b0383166000908152602081905260408120838303905560028054849290610b28908490610cde565b90915550506040518281526000906001600160a01b038516907fddf252ad1be2c89b69c2b068fc378daa952ba7f163c4a11628f55a4df523b3ef90602001610718565b80356001600160a01b0381168114610b8257600080fd5b919050565b600060208284031215610b98578081fd5b610ba182610b6b565b9392505050565b60008060408385031215610bba578081fd5b610bc383610b6b565b9150610bd160208401610b6b565b90509250929050565b600080600060608486031215610bee578081fd5b610bf784610b6b565b9250610c0560208501610b6b565b9150604084013590509250925092565b60008060408385031215610c27578182fd5b610c3083610b6b565b946020939093013593505050565b6000602080835283518082850152825b81811015610c6a57858101830151858201604001528201610c4e565b81811115610c7b5783604083870101525b50601f01601f1916929092016040019392505050565b6020808252818101527f4f776e61626c653a2063616c6c6572206973206e6f7420746865206f776e6572604082015260600190565b60008219821115610cd957610cd9610d30565b500190565b600082821015610cf057610cf0610d30565b500390565b600181811c90821680610d0957607f821691505b60208210811415610d2a57634e487b7160e01b600052602260045260246000fd5b50919050565b634e487b7160e01b600052601160045260246000fdfea26469706673582212205b6799890ed169949239ccd2d02483277659e3067c272e21c25740018e18181d64736f6c6343000804003324e583e35a20f9ecfc1572e7cb66bcc18ad3cd1650ec40dbf6ad2290e553a9fae6026b923a18d83f4b6e92786fdd85dc8e02e7647281b0d8831236806acf2a30a2646970667358221220661a1cd792bd965aeb98f987a460a610562ea6982da01317f27fa313f06405ff64736f6c6343000804003324e583e35a20f9ecfc1572e7cb66bcc18ad3cd1650ec40dbf6ad2290e553a9fa",
  "linkReferences": {},
  "deployedLinkReferences": {}
}