{
  "_format": "hh-sol-artifact-1",
  "contractName": "LPool",
  "sourceName": "contracts/LPool/LPool.sol",
  "abi": [
    {
      "inputs": [
        {
          "internalType": "contract IConverter",
          "name": "converter_",
          "type": "address"
        },
        {
          "internalType": "uint256",
          "name": "taxPercentNumerator_",
          "type": "uint256"
        },
        {
          "internalType": "uint256",
          "name": "taxPercentDenominator_",
          "type": "uint256"
        },
        {
          "internalType": "uint256",
          "name": "blocksPerInterestApplication_",
          "type": "uint256"
        }
      ],
      "stateMutability": "nonpayable",
      "type": "constructor"
    },
    {
      "anonymous": false,
      "inputs": [
        {
          "indexed": false,
          "internalType": "contract IERC20",
          "name": "token",
          "type": "address"
        },
        {
          "indexed": false,
          "internalType": "contract IERC20",
          "name": "LPToken",
          "type": "address"
        }
      ],
      "name": "AddLPToken",
      "type": "event"
    },
    {
      "anonymous": false,
      "inputs": [
        {
          "indexed": true,
          "internalType": "address",
          "name": "account",
          "type": "address"
        },
        {
          "indexed": false,
          "internalType": "contract IERC20",
          "name": "token",
          "type": "address"
        },
        {
          "indexed": false,
          "internalType": "uint256",
          "name": "amount",
          "type": "uint256"
        }
      ],
      "name": "Claim",
      "type": "event"
    },
    {
      "anonymous": false,
      "inputs": [
        {
          "indexed": true,
          "internalType": "address",
          "name": "account",
          "type": "address"
        },
        {
          "indexed": false,
          "internalType": "contract IERC20",
          "name": "tokenIn",
          "type": "address"
        },
        {
          "indexed": false,
          "internalType": "uint256",
          "name": "amountIn",
          "type": "uint256"
        },
        {
          "indexed": false,
          "internalType": "contract IERC20",
          "name": "convertedToken",
          "type": "address"
        },
        {
          "indexed": false,
          "internalType": "uint256",
          "name": "convertedAmount",
          "type": "uint256"
        }
      ],
      "name": "Deposit",
      "type": "event"
    },
    {
      "anonymous": false,
      "inputs": [
        {
          "indexed": true,
          "internalType": "address",
          "name": "account",
          "type": "address"
        },
        {
          "indexed": false,
          "internalType": "contract IERC20",
          "name": "token",
          "type": "address"
        },
        {
          "indexed": false,
          "internalType": "uint256",
          "name": "amount",
          "type": "uint256"
        },
        {
          "indexed": false,
          "internalType": "uint256",
          "name": "value",
          "type": "uint256"
        }
      ],
      "name": "Redeem",
      "type": "event"
    },
    {
      "anonymous": false,
      "inputs": [
        {
          "indexed": true,
          "internalType": "bytes32",
          "name": "role",
          "type": "bytes32"
        },
        {
          "indexed": true,
          "internalType": "bytes32",
          "name": "previousAdminRole",
          "type": "bytes32"
        },
        {
          "indexed": true,
          "internalType": "bytes32",
          "name": "newAdminRole",
          "type": "bytes32"
        }
      ],
      "name": "RoleAdminChanged",
      "type": "event"
    },
    {
      "anonymous": false,
      "inputs": [
        {
          "indexed": true,
          "internalType": "bytes32",
          "name": "role",
          "type": "bytes32"
        },
        {
          "indexed": true,
          "internalType": "address",
          "name": "account",
          "type": "address"
        },
        {
          "indexed": true,
          "internalType": "address",
          "name": "sender",
          "type": "address"
        }
      ],
      "name": "RoleGranted",
      "type": "event"
    },
    {
      "anonymous": false,
      "inputs": [
        {
          "indexed": true,
          "internalType": "bytes32",
          "name": "role",
          "type": "bytes32"
        },
        {
          "indexed": true,
          "internalType": "address",
          "name": "account",
          "type": "address"
        },
        {
          "indexed": true,
          "internalType": "address",
          "name": "sender",
          "type": "address"
        }
      ],
      "name": "RoleRevoked",
      "type": "event"
    },
    {
      "anonymous": false,
      "inputs": [
        {
          "indexed": true,
          "internalType": "address",
          "name": "account",
          "type": "address"
        },
        {
          "indexed": false,
          "internalType": "contract IERC20",
          "name": "token",
          "type": "address"
        },
        {
          "indexed": false,
          "internalType": "uint256",
          "name": "amount",
          "type": "uint256"
        },
        {
          "indexed": false,
          "internalType": "uint256",
          "name": "value",
          "type": "uint256"
        }
      ],
      "name": "Stake",
      "type": "event"
    },
    {
      "anonymous": false,
      "inputs": [
        {
          "indexed": true,
          "internalType": "address",
          "name": "account",
          "type": "address"
        },
        {
          "indexed": false,
          "internalType": "contract IERC20",
          "name": "token",
          "type": "address"
        },
        {
          "indexed": false,
          "internalType": "uint256",
          "name": "amount",
          "type": "uint256"
        }
      ],
      "name": "Unclaim",
      "type": "event"
    },
    {
      "anonymous": false,
      "inputs": [
        {
          "indexed": true,
          "internalType": "address",
          "name": "account",
          "type": "address"
        },
        {
          "indexed": false,
          "internalType": "contract IERC20",
          "name": "token",
          "type": "address"
        },
        {
          "indexed": false,
          "internalType": "uint256",
          "name": "amount",
          "type": "uint256"
        }
      ],
      "name": "Withdraw",
      "type": "event"
    },
    {
      "inputs": [],
      "name": "DEFAULT_ADMIN_ROLE",
      "outputs": [
        {
          "internalType": "bytes32",
          "name": "",
          "type": "bytes32"
        }
      ],
      "stateMutability": "view",
      "type": "function"
    },
    {
      "inputs": [
        {
          "internalType": "contract IERC20",
          "name": "token_",
          "type": "address"
        }
      ],
      "name": "LPFromPT",
      "outputs": [
        {
          "internalType": "contract IERC20",
          "name": "",
          "type": "address"
        }
      ],
      "stateMutability": "view",
      "type": "function"
    },
    {
      "inputs": [],
      "name": "POOL_ADMIN",
      "outputs": [
        {
          "internalType": "bytes32",
          "name": "",
          "type": "bytes32"
        }
      ],
      "stateMutability": "view",
      "type": "function"
    },
    {
      "inputs": [],
      "name": "POOL_APPROVED",
      "outputs": [
        {
          "internalType": "bytes32",
          "name": "",
          "type": "bytes32"
        }
      ],
      "stateMutability": "view",
      "type": "function"
    },
    {
      "inputs": [
        {
          "internalType": "contract IERC20",
          "name": "token_",
          "type": "address"
        }
      ],
      "name": "PTFromLP",
      "outputs": [
        {
          "internalType": "contract IERC20",
          "name": "",
          "type": "address"
        }
      ],
      "stateMutability": "view",
      "type": "function"
    },
    {
      "inputs": [
        {
          "internalType": "contract IERC20[]",
          "name": "token_",
          "type": "address[]"
        },
        {
          "internalType": "string[]",
          "name": "name_",
          "type": "string[]"
        },
        {
          "internalType": "string[]",
          "name": "symbol_",
          "type": "string[]"
        }
      ],
      "name": "addLPToken",
      "outputs": [],
      "stateMutability": "nonpayable",
      "type": "function"
    },
    {
      "inputs": [
        {
          "internalType": "address",
          "name": "account_",
          "type": "address"
        }
      ],
      "name": "addTaxAccount",
      "outputs": [],
      "stateMutability": "nonpayable",
      "type": "function"
    },
    {
      "inputs": [],
      "name": "blocksPerInterestApplication",
      "outputs": [
        {
          "internalType": "uint256",
          "name": "",
          "type": "uint256"
        }
      ],
      "stateMutability": "view",
      "type": "function"
    },
    {
      "inputs": [
        {
          "internalType": "contract IERC20",
          "name": "token_",
          "type": "address"
        },
        {
          "internalType": "uint256",
          "name": "amount_",
          "type": "uint256"
        }
      ],
      "name": "claim",
      "outputs": [],
      "stateMutability": "nonpayable",
      "type": "function"
    },
    {
      "inputs": [
        {
          "internalType": "contract IERC20",
          "name": "token_",
          "type": "address"
        },
        {
          "internalType": "address",
          "name": "account_",
          "type": "address"
        }
      ],
      "name": "claimed",
      "outputs": [
        {
          "internalType": "uint256",
          "name": "",
          "type": "uint256"
        }
      ],
      "stateMutability": "view",
      "type": "function"
    },
    {
      "inputs": [],
      "name": "converter",
      "outputs": [
        {
          "internalType": "contract IConverter",
          "name": "",
          "type": "address"
        }
      ],
      "stateMutability": "view",
      "type": "function"
    },
    {
      "inputs": [
        {
          "internalType": "contract IERC20",
          "name": "token_",
          "type": "address"
        },
        {
          "internalType": "uint256",
          "name": "amount_",
          "type": "uint256"
        }
      ],
      "name": "deposit",
      "outputs": [],
      "stateMutability": "nonpayable",
      "type": "function"
    },
    {
      "inputs": [
        {
          "internalType": "bytes32",
          "name": "role",
          "type": "bytes32"
        }
      ],
      "name": "getRoleAdmin",
      "outputs": [
        {
          "internalType": "bytes32",
          "name": "",
          "type": "bytes32"
        }
      ],
      "stateMutability": "view",
      "type": "function"
    },
    {
      "inputs": [
        {
          "internalType": "bytes32",
          "name": "role",
          "type": "bytes32"
        },
        {
          "internalType": "address",
          "name": "account",
          "type": "address"
        }
      ],
      "name": "grantRole",
      "outputs": [],
      "stateMutability": "nonpayable",
      "type": "function"
    },
    {
      "inputs": [
        {
          "internalType": "bytes32",
          "name": "role",
          "type": "bytes32"
        },
        {
          "internalType": "address",
          "name": "account",
          "type": "address"
        }
      ],
      "name": "hasRole",
      "outputs": [
        {
          "internalType": "bool",
          "name": "",
          "type": "bool"
        }
      ],
      "stateMutability": "view",
      "type": "function"
    },
    {
      "inputs": [
        {
          "internalType": "contract IERC20",
          "name": "token_",
          "type": "address"
        },
        {
          "internalType": "uint256",
          "name": "initialBorrow_",
          "type": "uint256"
        },
        {
          "internalType": "uint256",
          "name": "borrowBlock_",
          "type": "uint256"
        }
      ],
      "name": "interest",
      "outputs": [
        {
          "internalType": "uint256",
          "name": "",
          "type": "uint256"
        }
      ],
      "stateMutability": "view",
      "type": "function"
    },
    {
      "inputs": [
        {
          "internalType": "contract IERC20",
          "name": "token_",
          "type": "address"
        }
      ],
      "name": "interestRate",
      "outputs": [
        {
          "internalType": "uint256",
          "name": "",
          "type": "uint256"
        },
        {
          "internalType": "uint256",
          "name": "",
          "type": "uint256"
        }
      ],
      "stateMutability": "view",
      "type": "function"
    },
    {
      "inputs": [
        {
          "internalType": "contract IERC20",
          "name": "token_",
          "type": "address"
        }
      ],
      "name": "isApprovedLP",
      "outputs": [
        {
          "internalType": "bool",
          "name": "",
          "type": "bool"
        }
      ],
      "stateMutability": "view",
      "type": "function"
    },
    {
      "inputs": [
        {
          "internalType": "contract IERC20",
          "name": "token_",
          "type": "address"
        }
      ],
      "name": "isApprovedPT",
      "outputs": [
        {
          "internalType": "bool",
          "name": "",
          "type": "bool"
        }
      ],
      "stateMutability": "view",
      "type": "function"
    },
    {
      "inputs": [
        {
          "internalType": "contract IERC20",
          "name": "token_",
          "type": "address"
        }
      ],
      "name": "isLP",
      "outputs": [
        {
          "internalType": "bool",
          "name": "",
          "type": "bool"
        }
      ],
      "stateMutability": "view",
      "type": "function"
    },
    {
      "inputs": [
        {
          "internalType": "contract IERC20",
          "name": "token_",
          "type": "address"
        }
      ],
      "name": "isPT",
      "outputs": [
        {
          "internalType": "bool",
          "name": "",
          "type": "bool"
        }
      ],
      "stateMutability": "view",
      "type": "function"
    },
    {
      "inputs": [
        {
          "internalType": "contract IERC20",
          "name": "token_",
          "type": "address"
        }
      ],
      "name": "liquidity",
      "outputs": [
        {
          "internalType": "uint256",
          "name": "",
          "type": "uint256"
        }
      ],
      "stateMutability": "view",
      "type": "function"
    },
    {
      "inputs": [
        {
          "internalType": "contract IERC20",
          "name": "token_",
          "type": "address"
        }
      ],
      "name": "maxInterestMax",
      "outputs": [
        {
          "internalType": "uint256",
          "name": "",
          "type": "uint256"
        },
        {
          "internalType": "uint256",
          "name": "",
          "type": "uint256"
        }
      ],
      "stateMutability": "view",
      "type": "function"
    },
    {
      "inputs": [
        {
          "internalType": "contract IERC20",
          "name": "token_",
          "type": "address"
        }
      ],
      "name": "maxInterestMin",
      "outputs": [
        {
          "internalType": "uint256",
          "name": "",
          "type": "uint256"
        },
        {
          "internalType": "uint256",
          "name": "",
          "type": "uint256"
        }
      ],
      "stateMutability": "view",
      "type": "function"
    },
    {
      "inputs": [
        {
          "internalType": "contract IERC20",
          "name": "token_",
          "type": "address"
        }
      ],
      "name": "maxUtilization",
      "outputs": [
        {
          "internalType": "uint256",
          "name": "",
          "type": "uint256"
        },
        {
          "internalType": "uint256",
          "name": "",
          "type": "uint256"
        }
      ],
      "stateMutability": "view",
      "type": "function"
    },
    {
      "inputs": [
        {
          "internalType": "contract IERC20",
          "name": "token_",
          "type": "address"
        },
        {
          "internalType": "uint256",
          "name": "amount_",
          "type": "uint256"
        }
      ],
      "name": "redeem",
      "outputs": [
        {
          "internalType": "uint256",
          "name": "",
          "type": "uint256"
        }
      ],
      "stateMutability": "nonpayable",
      "type": "function"
    },
    {
      "inputs": [
        {
          "internalType": "contract IERC20",
          "name": "token_",
          "type": "address"
        },
        {
          "internalType": "uint256",
          "name": "amount_",
          "type": "uint256"
        }
      ],
      "name": "redeemValue",
      "outputs": [
        {
          "internalType": "uint256",
          "name": "",
          "type": "uint256"
        }
      ],
      "stateMutability": "view",
      "type": "function"
    },
    {
      "inputs": [
        {
          "internalType": "address",
          "name": "account_",
          "type": "address"
        }
      ],
      "name": "removeTaxAccount",
      "outputs": [],
      "stateMutability": "nonpayable",
      "type": "function"
    },
    {
      "inputs": [
        {
          "internalType": "bytes32",
          "name": "role",
          "type": "bytes32"
        },
        {
          "internalType": "address",
          "name": "account",
          "type": "address"
        }
      ],
      "name": "renounceRole",
      "outputs": [],
      "stateMutability": "nonpayable",
      "type": "function"
    },
    {
      "inputs": [
        {
          "internalType": "bytes32",
          "name": "role",
          "type": "bytes32"
        },
        {
          "internalType": "address",
          "name": "account",
          "type": "address"
        }
      ],
      "name": "revokeRole",
      "outputs": [],
      "stateMutability": "nonpayable",
      "type": "function"
    },
    {
      "inputs": [
        {
          "internalType": "contract IERC20[]",
          "name": "token_",
          "type": "address[]"
        },
        {
          "internalType": "bool[]",
          "name": "approved_",
          "type": "bool[]"
        }
      ],
      "name": "setApproved",
      "outputs": [],
      "stateMutability": "nonpayable",
      "type": "function"
    },
    {
      "inputs": [
        {
          "internalType": "uint256",
          "name": "blocksPerInterestApplication_",
          "type": "uint256"
        }
      ],
      "name": "setBlocksPerInterestApplication",
      "outputs": [],
      "stateMutability": "nonpayable",
      "type": "function"
    },
    {
      "inputs": [
        {
          "internalType": "contract IConverter",
          "name": "converter_",
          "type": "address"
        }
      ],
      "name": "setConverter",
      "outputs": [],
      "stateMutability": "nonpayable",
      "type": "function"
    },
    {
      "inputs": [
        {
          "internalType": "contract IERC20[]",
          "name": "token_",
          "type": "address[]"
        },
        {
          "internalType": "uint256[]",
          "name": "percentNumerator_",
          "type": "uint256[]"
        },
        {
          "internalType": "uint256[]",
          "name": "percentDenominator_",
          "type": "uint256[]"
        }
      ],
      "name": "setMaxInterestMax",
      "outputs": [],
      "stateMutability": "nonpayable",
      "type": "function"
    },
    {
      "inputs": [
        {
          "internalType": "contract IERC20[]",
          "name": "token_",
          "type": "address[]"
        },
        {
          "internalType": "uint256[]",
          "name": "percentNumerator_",
          "type": "uint256[]"
        },
        {
          "internalType": "uint256[]",
          "name": "percentDenominator_",
          "type": "uint256[]"
        }
      ],
      "name": "setMaxInterestMin",
      "outputs": [],
      "stateMutability": "nonpayable",
      "type": "function"
    },
    {
      "inputs": [
        {
          "internalType": "contract IERC20[]",
          "name": "token_",
          "type": "address[]"
        },
        {
          "internalType": "uint256[]",
          "name": "percentNumerator_",
          "type": "uint256[]"
        },
        {
          "internalType": "uint256[]",
          "name": "percentDenominator_",
          "type": "uint256[]"
        }
      ],
      "name": "setMaxUtilization",
      "outputs": [],
      "stateMutability": "nonpayable",
      "type": "function"
    },
    {
      "inputs": [
        {
          "internalType": "uint256",
          "name": "taxPercentNumerator_",
          "type": "uint256"
        },
        {
          "internalType": "uint256",
          "name": "taxPercentDenominator_",
          "type": "uint256"
        }
      ],
      "name": "setTaxPercentage",
      "outputs": [],
      "stateMutability": "nonpayable",
      "type": "function"
    },
    {
      "inputs": [
        {
          "internalType": "contract IERC20",
          "name": "token_",
          "type": "address"
        },
        {
          "internalType": "uint256",
          "name": "amount_",
          "type": "uint256"
        }
      ],
      "name": "stake",
      "outputs": [
        {
          "internalType": "uint256",
          "name": "",
          "type": "uint256"
        }
      ],
      "stateMutability": "nonpayable",
      "type": "function"
    },
    {
      "inputs": [
        {
          "internalType": "contract IERC20",
          "name": "token_",
          "type": "address"
        },
        {
          "internalType": "uint256",
          "name": "amount_",
          "type": "uint256"
        }
      ],
      "name": "stakeValue",
      "outputs": [
        {
          "internalType": "uint256",
          "name": "",
          "type": "uint256"
        }
      ],
      "stateMutability": "view",
      "type": "function"
    },
    {
      "inputs": [
        {
          "internalType": "bytes4",
          "name": "interfaceId",
          "type": "bytes4"
        }
      ],
      "name": "supportsInterface",
      "outputs": [
        {
          "internalType": "bool",
          "name": "",
          "type": "bool"
        }
      ],
      "stateMutability": "view",
      "type": "function"
    },
    {
      "inputs": [],
      "name": "taxPercentage",
      "outputs": [
        {
          "internalType": "uint256",
          "name": "",
          "type": "uint256"
        },
        {
          "internalType": "uint256",
          "name": "",
          "type": "uint256"
        }
      ],
      "stateMutability": "view",
      "type": "function"
    },
    {
      "inputs": [
        {
          "internalType": "contract IERC20",
          "name": "token_",
          "type": "address"
        }
      ],
      "name": "totalClaimed",
      "outputs": [
        {
          "internalType": "uint256",
          "name": "",
          "type": "uint256"
        }
      ],
      "stateMutability": "view",
      "type": "function"
    },
    {
      "inputs": [
        {
          "internalType": "contract IERC20",
          "name": "token_",
          "type": "address"
        }
      ],
      "name": "tvl",
      "outputs": [
        {
          "internalType": "uint256",
          "name": "",
          "type": "uint256"
        }
      ],
      "stateMutability": "view",
      "type": "function"
    },
    {
      "inputs": [
        {
          "internalType": "contract IERC20",
          "name": "token_",
          "type": "address"
        },
        {
          "internalType": "uint256",
          "name": "amount_",
          "type": "uint256"
        }
      ],
      "name": "unclaim",
      "outputs": [],
      "stateMutability": "nonpayable",
      "type": "function"
    },
    {
      "inputs": [
        {
          "internalType": "contract IERC20",
          "name": "token_",
          "type": "address"
        }
      ],
      "name": "utilizationRate",
      "outputs": [
        {
          "internalType": "uint256",
          "name": "",
          "type": "uint256"
        },
        {
          "internalType": "uint256",
          "name": "",
          "type": "uint256"
        }
      ],
      "stateMutability": "view",
      "type": "function"
    },
    {
      "inputs": [
        {
          "internalType": "contract IERC20",
          "name": "token_",
          "type": "address"
        }
      ],
      "name": "utilized",
      "outputs": [
        {
          "internalType": "uint256",
          "name": "",
          "type": "uint256"
        }
      ],
      "stateMutability": "view",
      "type": "function"
    },
    {
      "inputs": [
        {
          "internalType": "contract IERC20",
          "name": "token_",
          "type": "address"
        },
        {
          "internalType": "uint256",
          "name": "amount_",
          "type": "uint256"
        }
      ],
      "name": "withdraw",
      "outputs": [],
      "stateMutability": "nonpayable",
      "type": "function"
    }
  ],
  "bytecode": "0x60806040523480156200001157600080fd5b5060405162004964380380620049648339810160408190526200003491620001cc565b80848484620000536000805160206200494483398151915280620000e0565b6200008e7fe6026b923a18d83f4b6e92786fdd85dc8e02e7647281b0d8831236806acf2a3060008051602062004944833981519152620000e0565b620000a960008051602062004944833981519152336200012b565b600791909155600855600b80546001600160a01b0319166001600160a01b0392909216919091179055600c55506200021792505050565b600082815260208190526040808220600101805490849055905190918391839186917fbd79b86ffe0ab8e8776151514217cd7cacd52c909f66475c3af44e129f0b00ff9190a4505050565b6000828152602081815260408083206001600160a01b038516845290915290205460ff16620001c8576000828152602081815260408083206001600160a01b03851684529091529020805460ff19166001179055620001873390565b6001600160a01b0316816001600160a01b0316837f2f8788117e7eff1d82e926ec794901d17c78024a50270940304540a733656f0d60405160405180910390a45b5050565b60008060008060808587031215620001e2578384fd5b84516001600160a01b0381168114620001f9578485fd5b60208601516040870151606090970151919890975090945092505050565b61471d80620002276000396000f3fe60806040523480156200001157600080fd5b5060043610620002cd5760003560e01c80638695ede31162000185578063bffe84c211620000df578063ef5d9ae81162000092578063ef5d9ae81462000739578063f2fd9dc21462000765578063f3fef3a3146200077c578063fbfa54d11462000793578063fe3d576814620007aa578063ff9265a114620007c157600080fd5b8063bffe84c214620006af578063d0b9622c14620006c6578063d547741f14620006dd578063e472d74414620006f4578063e5a045cb146200070b578063e75db616146200072257600080fd5b8063aad3ec961162000138578063aad3ec961462000633578063adc9772e146200064a578063ae7b6d161462000661578063b19337a4146200066d578063b8c876b11462000684578063bd38837b146200069b57600080fd5b80638695ede3146200057d578063902c4e5514620005b157806391d1485414620005c8578063a217fddf14620005df578063a2b4fe7114620005e8578063aa08ed7614620005ff57600080fd5b806336568abe11620002375780636da8d26211620001ea5780636da8d26214620004f35780637594825b146200050a57806378b09e9114620005215780637b56446014620005385780637c2c69c0146200054f5780637df0f767146200056657600080fd5b806336568abe146200045d57806346907c7f146200047457806347e7ef24146200047e5780634c07d1b714620004955780636518711d14620004c55780636a112c8914620004dc57600080fd5b80631e9a695011620002905780631e9a695014620003c2578063207b27df14620003d957806320f5ad9414620003f0578063248a9ca3146200040957806325ddcd61146200042f5780632f2ff15d146200044657600080fd5b806301ffc9a714620002d2578063045f1f4f14620002fe5780630c9cbf0e146200032457806312e23ac2146200036157806318b7373d14620003ab575b600080fd5b620002e9620002e33660046200317d565b620007d8565b60405190151581526020015b60405180910390f35b62000315600080516020620046c883398151915281565b604051908152602001620002f5565b6200031562000335366004620031a7565b6001600160a01b0380821660009081526005602090815260408083209386168352929052205492915050565b620003956200037236600462002f0f565b6001600160a01b03166000908152600e6020526040902080546001909101549091565b60408051928352602083019190915201620002f5565b620002e9620003bc36600462002f0f565b62000810565b62000315620003d3366004620031d9565b62000830565b62000395620003ea36600462002f0f565b620009ee565b620004076200040136600462003257565b62000a18565b005b620003156200041a36600462003132565b60009081526020819052604090206001015490565b620004076200044036600462002f0f565b62000a40565b62000407620004573660046200314b565b62000a6d565b620004076200046e3660046200314b565b62000a9c565b62000315600c5481565b620004076200048f366004620031d9565b62000b1a565b620004ac620004a636600462002f0f565b62000c7a565b6040516001600160a01b039091168152602001620002f5565b62000407620004d63660046200308f565b62000cc7565b620004ac620004ed36600462002f0f565b62000e07565b6200031562000504366004620031d9565b62000e54565b620004076200051b36600462002f0f565b62000f10565b6200031562000532366004620031d9565b62000f39565b62000407620005493660046200308f565b62000ffe565b620003956200056036600462002f0f565b62001137565b620002e96200057736600462002f0f565b6200120b565b620003956200058e36600462002f0f565b6001600160a01b03166000908152600f6020526040902080546001909101549091565b62000407620005c236600462003001565b6200122b565b620002e9620005d93660046200314b565b6200152d565b62000315600081565b62000315600080516020620046a883398151915281565b620003956200061036600462002f0f565b6001600160a01b03166000908152600d6020526040902080546001909101549091565b6200040762000644366004620031d9565b62001556565b620003156200065b366004620031d9565b620016dc565b60075460085462000395565b620004076200067e36600462002f0f565b6200186e565b620003156200069536600462002f0f565b620018ad565b600b54620004ac906001600160a01b031681565b62000407620006c0366004620031d9565b620018e4565b62000315620006d736600462003207565b62001a7a565b62000407620006ee3660046200314b565b62001ac0565b620004076200070536600462002f2e565b62001aea565b620002e96200071c36600462002f0f565b62001be7565b620003156200073336600462002f0f565b62001c1b565b620003156200074a36600462002f0f565b6001600160a01b031660009081526006602052604090205490565b62000407620007763660046200308f565b62001c99565b620004076200078d366004620031d9565b62001dd2565b620002e9620007a436600462002f0f565b62001ef3565b62000315620007bb36600462002f0f565b62001f3a565b62000407620007d236600462003132565b62001f6d565b60006001600160e01b03198216637965db0b60e01b14806200080a57506301ffc9a760e01b6001600160e01b03198316145b92915050565b6001600160a01b0390811660009081526001602052604090205416151590565b6000826200083e816200120b565b620008665760405162461bcd60e51b81526004016200085d9062003424565b60405180910390fd5b836000620008748262000c7a565b9050600062000884838762000e54565b90506200089182620018ad565b811115620009085760405162461bcd60e51b815260206004820152603760248201527f4c506f6f6c5374616b653a204e6f7420656e6f756768206c697175696469747960448201527f20746f2072656465656d20617420746869732074696d6500000000000000000060648201526084016200085d565b6001600160a01b038316639dc29fac336040516001600160e01b031960e084901b1681526001600160a01b03909116600482015260248101899052604401600060405180830381600087803b1580156200096157600080fd5b505af115801562000976573d6000803e3d6000fd5b5050505062000998620009863390565b6001600160a01b038416908362001f8f565b604080516001600160a01b038916815260208101889052808201839052905133917f3f693fff038bb8a046aa76d9516190ac7444f7d69cf952c4cbdc086fdef2d6fc919081900360600190a29695505050505050565b6000806000620009fe8462001c1b565b9050600062000a0d8562001f3a565b959194509092505050565b600080516020620046a883398151915262000a34813362001ff4565b50600791909155600855565b600080516020620046a883398151915262000a5c813362001ff4565b62000a6960098362002063565b5050565b60008281526020819052604090206001015462000a8b813362001ff4565b62000a9783836200212f565b505050565b6001600160a01b038116331462000b0e5760405162461bcd60e51b815260206004820152602f60248201527f416363657373436f6e74726f6c3a2063616e206f6e6c792072656e6f756e636560448201526e103937b632b9903337b91039b2b63360891b60648201526084016200085d565b62000a698282620021b7565b600080516020620046c883398151915262000b36813362001ff4565b62000b4d6001600160a01b0384163330856200221f565b600062000b5962002259565b600b546040516302e0684d60e11b81526001600160a01b038781166004830152602482018790528084166044830152929350600092909116906305c0d09a90606401602060405180830381600087803b15801562000bb657600080fd5b505af115801562000bcb573d6000803e3d6000fd5b505050506040513d601f19601f8201168201806040525081019062000bf191906200323e565b9050600062000c01838362002472565b9050337faaefaf378e10f40556b2167ea878af7e62d89229b0bce3924630aabf1ee611ff87878662000c34878762002540565b60405162000c6a94939291906001600160a01b039485168152602081019390935292166040820152606081019190915260800190565b60405180910390a2505050505050565b60008162000c88816200120b565b62000ca75760405162461bcd60e51b81526004016200085d9062003424565b50506001600160a01b039081166000908152600260205260409020541690565b600080516020620046a883398151915262000ce3813362001ff4565b60005b845181101562000e005783818151811062000d1157634e487b7160e01b600052603260045260246000fd5b6020026020010151600f600087848151811062000d3e57634e487b7160e01b600052603260045260246000fd5b60200260200101516001600160a01b03166001600160a01b031681526020019081526020016000206000018190555082818151811062000d8e57634e487b7160e01b600052603260045260246000fd5b6020026020010151600f600087848151811062000dbb57634e487b7160e01b600052603260045260246000fd5b60200260200101516001600160a01b03166001600160a01b0316815260200190815260200160002060010181905550808062000df7906200358b565b91505062000ce6565b5050505050565b60008162000e158162000810565b62000e345760405162461bcd60e51b81526004016200085d9062003385565b50506001600160a01b039081166000908152600160205260409020541690565b6000828162000e638262000c7a565b90506000826001600160a01b03166318160ddd6040518163ffffffff1660e01b815260040160206040518083038186803b15801562000ea157600080fd5b505afa15801562000eb6573d6000803e3d6000fd5b505050506040513d601f19601f8201168201806040525081019062000edc91906200323e565b9050600062000eeb8362001c1b565b905062000f058262000efe88846200254e565b906200255c565b979650505050505050565b600080516020620046a883398151915262000f2c813362001ff4565b62000a696009836200256a565b60008062000f478462000e07565b90506000816001600160a01b03166318160ddd6040518163ffffffff1660e01b815260040160206040518083038186803b15801562000f8557600080fd5b505afa15801562000f9a573d6000803e3d6000fd5b505050506040513d601f19601f8201168201806040525081019062000fc091906200323e565b9050600062000fcf8662001c1b565b90508062000fe3578493505050506200080a565b62000ff48162000efe87856200254e565b9695505050505050565b600080516020620046a88339815191526200101a813362001ff4565b60005b845181101562000e00578381815181106200104857634e487b7160e01b600052603260045260246000fd5b6020026020010151600e60008784815181106200107557634e487b7160e01b600052603260045260246000fd5b60200260200101516001600160a01b03166001600160a01b0316815260200190815260200160002060000181905550828181518110620010c557634e487b7160e01b600052603260045260246000fd5b6020026020010151600e6000878481518110620010f257634e487b7160e01b600052603260045260246000fd5b60200260200101516001600160a01b03166001600160a01b031681526020019081526020016000206001018190555080806200112e906200358b565b9150506200101d565b6000806000806200114885620009ee565b6001600160a01b0387166000818152600f60209081526040808320815180830183528154815260019182015481850152858552600d8085528386208451808601865281548082529190940154848701819052979096528452825180840190935293825291810193909352815194965092945092620011c89085906200254e565b6020840151620011da9087906200254e565b1115620011fe57620011f08585858585620026ed565b965096505050505050915091565b620011f0858584620027c8565b6001600160a01b0390811660009081526002602052604090205416151590565b600080516020620046a883398151915262001247813362001ff4565b60005b845181101562000e0057620012878582815181106200127957634e487b7160e01b600052603260045260246000fd5b602002602001015162000810565b158015620012c55750620012c3858281518110620012b557634e487b7160e01b600052603260045260246000fd5b60200260200101516200120b565b155b1562001518576000848281518110620012ee57634e487b7160e01b600052603260045260246000fd5b60200260200101518483815181106200131757634e487b7160e01b600052603260045260246000fd5b60200260200101516040516200132d9062002d2b565b6200133a92919062003353565b604051809103906000f08015801562001357573d6000803e3d6000fd5b50905080600160008885815181106200138057634e487b7160e01b600052603260045260246000fd5b60200260200101516001600160a01b03166001600160a01b0316815260200190815260200160002060006101000a8154816001600160a01b0302191690836001600160a01b03160217905550858281518110620013ed57634e487b7160e01b600052603260045260246000fd5b602002602001015160026000836001600160a01b03166001600160a01b0316815260200190815260200160002060006101000a8154816001600160a01b0302191690836001600160a01b0316021790555060038683815181106200146157634e487b7160e01b600052603260045260246000fd5b60209081029190910181015182546001810184556000938452919092200180546001600160a01b0319166001600160a01b0390921691909117905585517f477e5c7d85f3de93afbcad26bdf96f48e48da2fe002f3e35e7aa07bf174daeff90879084908110620014e157634e487b7160e01b600052603260045260246000fd5b6020026020010151826040516200150e9291906001600160a01b0392831681529116602082015260400190565b60405180910390a1505b8062001524816200358b565b9150506200124a565b6000918252602082815260408084206001600160a01b0393909316845291905290205460ff1690565b600080516020620046c883398151915262001572813362001ff4565b826200157e8162001be7565b6200159d5760405162461bcd60e51b81526004016200085d90620033d0565b620015a884620018ad565b831115620016145760405162461bcd60e51b815260206004820152603260248201527f4c506f6f6c436c61696d3a2043616e6e6f7420636c61696d206d6f7265207468604482015271616e20746f74616c206c697175696469747960701b60648201526084016200085d565b3360009081526005602090815260408083206001600160a01b0388168452909152902054620016449084620027fa565b3360009081526005602090815260408083206001600160a01b03891684528252808320939093556006905220546200167d9084620027fa565b6001600160a01b03851660008181526006602090815260409182902093909355805191825291810185905233917f70eb43c4a8ae8c40502dcf22436c509c28d6ff421cf07c491be56984bd98706891015b60405180910390a250505050565b600082620016ea8162001be7565b620017095760405162461bcd60e51b81526004016200085d90620033d0565b6000620017168562000e07565b9050600062001726868662000f39565b905060008111620017865760405162461bcd60e51b8152602060048201526024808201527f4c506f6f6c5374616b653a204e6f7420656e6f75676820746f6b656e73207374604482015263185ad95960e21b60648201526084016200085d565b6200179d6001600160a01b0387163330886200221f565b6001600160a01b0382166340c10f19336040516001600160e01b031960e084901b1681526001600160a01b03909116600482015260248101849052604401600060405180830381600087803b158015620017f657600080fd5b505af11580156200180b573d6000803e3d6000fd5b50505050620018173390565b604080516001600160a01b038981168252602082018990529181018490529116907f63602d0ecc7b3a0ef7ff1a116e23056662d64280355ba8031b6d0d767c4b44589060600160405180910390a295945050505050565b600080516020620046a88339815191526200188a813362001ff4565b50600b80546001600160a01b0319166001600160a01b0392909216919091179055565b6001600160a01b038116600090815260066020526040812054620018dd81620018d68562001c1b565b9062002540565b9392505050565b600080516020620046c883398151915262001900813362001ff4565b826200190c8162000810565b6200192b5760405162461bcd60e51b81526004016200085d9062003385565b3360009081526005602090815260408083206001600160a01b0388168452909152902054831115620019bb5760405162461bcd60e51b815260206004820152603260248201527f4c506f6f6c436c61696d3a2043616e6e6f7420756e636c61696d206d6f7265206044820152717468616e2063757272656e7420636c61696d60701b60648201526084016200085d565b3360009081526005602090815260408083206001600160a01b0388168452909152902054620019eb908462002540565b3360009081526005602090815260408083206001600160a01b038916845282528083209390935560069052205462001a24908462002540565b6001600160a01b03851660008181526006602090815260409182902093909355805191825291810185905233917fb357d3c8cf2c37863e04f4c71afd0e8bef633cec94ee21866dc4e7058932a4899101620016ce565b60008062001a89438462002540565b905060008062001a998762001137565b600c54919350915062000f059062000efe83818762001ab98c896200254e565b906200254e565b60008281526020819052604090206001015462001ade813362001ff4565b62000a978383620021b7565b600080516020620046a883398151915262001b06813362001ff4565b60005b835181101562001be15762001b388482815181106200127957634e487b7160e01b600052603260045260246000fd5b1562001bcc5782818151811062001b5f57634e487b7160e01b600052603260045260246000fd5b60200260200101516004600086848151811062001b8c57634e487b7160e01b600052603260045260246000fd5b60200260200101516001600160a01b03166001600160a01b0316815260200190815260200160002060006101000a81548160ff0219169083151502179055505b8062001bd8816200358b565b91505062001b09565b50505050565b600062001bf48262000810565b80156200080a5750506001600160a01b031660009081526004602052604090205460ff1690565b6040516370a0823160e01b81523060048201526000906001600160a01b038316906370a082319060240160206040518083038186803b15801562001c5e57600080fd5b505afa15801562001c73573d6000803e3d6000fd5b505050506040513d601f19601f820116820180604052508101906200080a91906200323e565b600080516020620046a883398151915262001cb5813362001ff4565b60005b845181101562000e005783818151811062001ce357634e487b7160e01b600052603260045260246000fd5b6020026020010151600d600087848151811062001d1057634e487b7160e01b600052603260045260246000fd5b60200260200101516001600160a01b03166001600160a01b031681526020019081526020016000206000018190555082818151811062001d6057634e487b7160e01b600052603260045260246000fd5b6020026020010151600d600087848151811062001d8d57634e487b7160e01b600052603260045260246000fd5b60200260200101516001600160a01b03166001600160a01b0316815260200190815260200160002060010181905550808062001dc9906200358b565b91505062001cb8565b600080516020620046c883398151915262001dee813362001ff4565b8262001dfa8162001be7565b62001e195760405162461bcd60e51b81526004016200085d90620033d0565b62001e2484620018ad565b83111562001e9b5760405162461bcd60e51b815260206004820152603960248201527f4c506f6f6c4465706f7369743a20576974686472617720616d6f756e7420657860448201527f636565647320617661696c61626c65206c69717569646974790000000000000060648201526084016200085d565b62001eb16001600160a01b038516338562001f8f565b604080516001600160a01b03861681526020810185905233917f9b1bfa7fa9ee420a16e124f794c35ac9f90472acc99140eb2f6447c714cad8eb9101620016ce565b600062001f00826200120b565b80156200080a57506004600062001f178462000c7a565b6001600160a01b0316815260208101919091526040016000205460ff1692915050565b60008062001f4883620018ad565b9050600062001f578462001c1b565b905062001f65818362002540565b949350505050565b600080516020620046a883398151915262001f89813362001ff4565b50600c55565b6040516001600160a01b03831660248201526044810182905262000a9790849063a9059cbb60e01b906064015b60408051601f198184030181529190526020810180516001600160e01b03166001600160e01b03199093169290921790915262002808565b6200200082826200152d565b62000a69576200201b816001600160a01b03166014620028e1565b62002028836020620028e1565b6040516020016200203b929190620032c5565b60408051601f198184030181529082905262461bcd60e51b82526200085d916004016200333e565b6200206f828262002ad7565b15620020d55760405162461bcd60e51b815260206004820152602e60248201527f416464726573735365743a204164647265737320616c7265616479206578697360448201526d3a399034b7103a34329039b2ba1760911b60648201526084016200085d565b6001828101805480830182556000828152602090200180546001600160a01b0319166001600160a01b0385161790555462002111919062003528565b6001600160a01b039091166000908152602092909252604090912055565b6200213b82826200152d565b62000a69576000828152602081815260408083206001600160a01b03851684529091529020805460ff19166001179055620021733390565b6001600160a01b0316816001600160a01b0316837f2f8788117e7eff1d82e926ec794901d17c78024a50270940304540a733656f0d60405160405180910390a45050565b620021c382826200152d565b1562000a69576000828152602081815260408083206001600160a01b0385168085529252808320805460ff1916905551339285917ff6391f5c32d9c69d2a47ea670b442974b53935d1edc7fd64eb21e047a839171b9190a45050565b6040516001600160a01b038085166024830152831660448201526064810182905262001be19085906323b872dd60e01b9060840162001fbc565b6000612710816200226962002b49565b90506000815167ffffffffffffffff8111156200229657634e487b7160e01b600052604160045260246000fd5b604051908082528060200260200182016040528015620022c0578160200160208202803683370190505b5090506000805b8351811015620023755760008062002307868481518110620022f957634e487b7160e01b600052603260045260246000fd5b6020026020010151620009ee565b909250905060006200231f8262000efe8a866200254e565b9050808685815181106200234357634e487b7160e01b600052603260045260246000fd5b60209081029190910101526200235a8582620027fa565b945050505080806200236c906200358b565b915050620022c7565b506040805144602080830191909152438284015233606090811b6bffffffffffffffffffffffff1916908301528251605481840301815260749092019092528051910120600090620023c8908362002bad565b9050600080805b8651811015620024665762002416868281518110620023fe57634e487b7160e01b600052603260045260246000fd5b602002602001015184620027fa90919063ffffffff16565b925082841162002451578681815181106200244157634e487b7160e01b600052603260045260246000fd5b6020026020010151915062002466565b806200245d816200358b565b915050620023cf565b50979650505050505050565b60008062002481600962002bbb565b9050600080620024946007546008549091565b915091506000620024ba845162000efe8462000efe8a886200254e90919063ffffffff16565b90506000620024d48551836200254e90919063ffffffff16565b905060005b855181101562002466576200252b8682815181106200250857634e487b7160e01b600052603260045260246000fd5b6020026020010151848b6001600160a01b031662001f8f9092919063ffffffff16565b8062002537816200358b565b915050620024d9565b6000620018dd828462003528565b6000620018dd828462003506565b6000620018dd8284620034ef565b62002576828262002ad7565b620025db5760405162461bcd60e51b815260206004820152602e60248201527f416464726573735365743a204164647265737320646f6573206e6f742065786960448201526d39ba1034b7103a34329039b2ba1760911b60648201526084016200085d565b60018281018054600092620025f09162003528565b815481106200260f57634e487b7160e01b600052603260045260246000fd5b60009182526020808320909101546001600160a01b038581168452918690526040808420549290911680845292208190556001850180549293509091839190839081106200266d57634e487b7160e01b600052603260045260246000fd5b600091825260208083209190910180546001600160a01b0319166001600160a01b03948516179055918516815290859052604081205560018401805480620026c557634e487b7160e01b600052603160045260246000fd5b600082815260209020810160001990810180546001600160a01b031916905501905550505050565b60008060006200272e866000015162001ab96200271c876020015189600001516200254e90919063ffffffff16565b60208901518851620018d691620027fa565b9050600062002758876020015162001ab9886020015188602001516200254e90919063ffffffff16565b90506000620027946200277e876020015162001ab98c876200254e90919063ffffffff16565b8751620018d690859062001ab9908f906200254e565b90506000620027b68362001ab989602001518d6200254e90919063ffffffff16565b919b919a509098505050505050505050565b80516000908190620027dc9086906200254e565b6020840151620027ee9086906200254e565b91509150935093915050565b6000620018dd8284620034d4565b60006200285f826040518060400160405280602081526020017f5361666545524332303a206c6f772d6c6576656c2063616c6c206661696c6564815250856001600160a01b031662002c239092919063ffffffff16565b80519091501562000a97578080602001905181019062002880919062003113565b62000a975760405162461bcd60e51b815260206004820152602a60248201527f5361666545524332303a204552433230206f7065726174696f6e20646964206e6044820152691bdd081cdd58d8d9595960b21b60648201526084016200085d565b60606000620028f283600262003506565b620028ff906002620034d4565b67ffffffffffffffff8111156200292657634e487b7160e01b600052604160045260246000fd5b6040519080825280601f01601f19166020018201604052801562002951576020820181803683370190505b509050600360fc1b816000815181106200297b57634e487b7160e01b600052603260045260246000fd5b60200101906001600160f81b031916908160001a905350600f60fb1b81600181518110620029b957634e487b7160e01b600052603260045260246000fd5b60200101906001600160f81b031916908160001a9053506000620029df84600262003506565b620029ec906001620034d4565b90505b600181111562002a86576f181899199a1a9b1b9c1cb0b131b232b360811b85600f166010811062002a3057634e487b7160e01b600052603260045260246000fd5b1a60f81b82828151811062002a5557634e487b7160e01b600052603260045260246000fd5b60200101906001600160f81b031916908160001a90535060049490941c9362002a7e8162003571565b9050620029ef565b508315620018dd5760405162461bcd60e51b815260206004820181905260248201527f537472696e67733a20686578206c656e67746820696e73756666696369656e7460448201526064016200085d565b600182015460009062002aed575060006200080a565b6001600160a01b038216600081815260208590526040902054600185018054909190811062002b2c57634e487b7160e01b600052603260045260246000fd5b6000918252602090912001546001600160a01b0316149392505050565b6060600380548060200260200160405190810160405280929190818152602001828054801562002ba357602002820191906000526020600020905b81546001600160a01b0316815260019091019060200180831162002b84575b5050505050905090565b6000620018dd8284620035a9565b60608160010180548060200260200160405190810160405280929190818152602001828054801562002c1757602002820191906000526020600020905b81546001600160a01b0316815260019091019060200180831162002bf8575b50505050509050919050565b606062001f65848460008585843b62002c7f5760405162461bcd60e51b815260206004820152601d60248201527f416464726573733a2063616c6c20746f206e6f6e2d636f6e747261637400000060448201526064016200085d565b600080866001600160a01b0316858760405162002c9d9190620032a7565b60006040518083038185875af1925050503d806000811462002cdc576040519150601f19603f3d011682016040523d82523d6000602084013e62002ce1565b606091505b509150915062000f058282866060831562002cfe575081620018dd565b82511562002d0f5782518084602001fd5b8160405162461bcd60e51b81526004016200085d91906200333e565b61107d806200362b83390190565b600082601f83011262002d4a578081fd5b8135602062002d6362002d5d83620034ad565b62003479565b80838252828201915082860187848660051b890101111562002d83578586fd5b855b8581101562002dae57813562002d9b8162003602565b8452928401929084019060010162002d85565b5090979650505050505050565b6000601f838184011262002dcd578182fd5b8235602062002de062002d5d83620034ad565b80838252828201915082870188848660051b8a0101111562002e00578687fd5b865b8581101562002e9d57813567ffffffffffffffff8082111562002e2357898afd5b818b0191508b603f83011262002e3757898afd5b8682013560408282111562002e505762002e50620035ec565b62002e63828c01601f19168a0162003479565b92508183528d8183860101111562002e79578b8cfd5b818185018a85013750810187018a9052855250928401929084019060010162002e02565b509098975050505050505050565b600082601f83011262002ebc578081fd5b8135602062002ecf62002d5d83620034ad565b80838252828201915082860187848660051b890101111562002eef578586fd5b855b8581101562002dae5781358452928401929084019060010162002ef1565b60006020828403121562002f21578081fd5b8135620018dd8162003602565b6000806040838503121562002f41578081fd5b823567ffffffffffffffff8082111562002f59578283fd5b62002f678683870162002d39565b935060209150818501358181111562002f7e578384fd5b85019050601f8101861362002f91578283fd5b803562002fa262002d5d82620034ad565b80828252848201915084840189868560051b870101111562002fc2578687fd5b8694505b8385101562002ff157803562002fdc816200361b565b83526001949094019391850191850162002fc6565b5080955050505050509250929050565b60008060006060848603121562003016578081fd5b833567ffffffffffffffff808211156200302e578283fd5b6200303c8783880162002d39565b9450602086013591508082111562003052578283fd5b620030608783880162002dbb565b9350604086013591508082111562003076578283fd5b50620030858682870162002dbb565b9150509250925092565b600080600060608486031215620030a4578283fd5b833567ffffffffffffffff80821115620030bc578485fd5b620030ca8783880162002d39565b94506020860135915080821115620030e0578384fd5b620030ee8783880162002eab565b9350604086013591508082111562003104578283fd5b50620030858682870162002eab565b60006020828403121562003125578081fd5b8151620018dd816200361b565b60006020828403121562003144578081fd5b5035919050565b600080604083850312156200315e578182fd5b823591506020830135620031728162003602565b809150509250929050565b6000602082840312156200318f578081fd5b81356001600160e01b031981168114620018dd578182fd5b60008060408385031215620031ba578182fd5b8235620031c78162003602565b91506020830135620031728162003602565b60008060408385031215620031ec578182fd5b8235620031f98162003602565b946020939093013593505050565b6000806000606084860312156200321c578081fd5b8335620032298162003602565b95602085013595506040909401359392505050565b60006020828403121562003250578081fd5b5051919050565b600080604083850312156200326a578182fd5b50508035926020909101359150565b600081518084526200329381602086016020860162003542565b601f01601f19169290920160200192915050565b60008251620032bb81846020870162003542565b9190910192915050565b7f416363657373436f6e74726f6c3a206163636f756e7420000000000000000000815260008351620032ff81601785016020880162003542565b7001034b99036b4b9b9b4b733903937b6329607d1b60179184019182015283516200333281602884016020880162003542565b01602801949350505050565b602081526000620018dd602083018462003279565b60408152600062003368604083018562003279565b82810360208401526200337c818562003279565b95945050505050565b6020808252602b908201527f4c506f6f6c417070726f7665643a204f6e6c7920706f6f6c20746f6b656e732060408201526a1b585e481899481d5cd95960aa1b606082015260800190565b60208082526034908201527f4c506f6f6c417070726f7665643a204f6e6c7920617070726f76656420706f6f6040820152731b081d1bdad95b9cc81b585e481899481d5cd95960621b606082015260800190565b60208082526035908201527f4c506f6f6c417070726f7665643a204f6e6c79206c697175696469747920706f6040820152741bdb081d1bdad95b9cc81b585e481899481d5cd959605a1b606082015260800190565b604051601f8201601f1916810167ffffffffffffffff81118282101715620034a557620034a5620035ec565b604052919050565b600067ffffffffffffffff821115620034ca57620034ca620035ec565b5060051b60200190565b60008219821115620034ea57620034ea620035c0565b500190565b600082620035015762003501620035d6565b500490565b6000816000190483118215151615620035235762003523620035c0565b500290565b6000828210156200353d576200353d620035c0565b500390565b60005b838110156200355f57818101518382015260200162003545565b8381111562001be15750506000910152565b600081620035835762003583620035c0565b506000190190565b6000600019821415620035a257620035a2620035c0565b5060010190565b600082620035bb57620035bb620035d6565b500690565b634e487b7160e01b600052601160045260246000fd5b634e487b7160e01b600052601260045260246000fd5b634e487b7160e01b600052604160045260246000fd5b6001600160a01b03811681146200361857600080fd5b50565b80151581146200361857600080fdfe60806040523480156200001157600080fd5b506040516200107d3803806200107d833981016040819052620000349162000237565b8151829082906200004d906003906020850190620000de565b50805162000063906004906020840190620000de565b505050620000806200007a6200008860201b60201c565b6200008c565b5050620002f1565b3390565b600580546001600160a01b038381166001600160a01b0319831681179093556040519116919082907f8be0079c531659141344cd1fd0a4f28419497f9722a3daafe3b4186f6b6457e090600090a35050565b828054620000ec906200029e565b90600052602060002090601f0160209004810192826200011057600085556200015b565b82601f106200012b57805160ff19168380011785556200015b565b828001600101855582156200015b579182015b828111156200015b5782518255916020019190600101906200013e565b50620001699291506200016d565b5090565b5b808211156200016957600081556001016200016e565b600082601f83011262000195578081fd5b81516001600160401b0380821115620001b257620001b2620002db565b604051601f8301601f19908116603f01168101908282118183101715620001dd57620001dd620002db565b81604052838152602092508683858801011115620001f9578485fd5b8491505b838210156200021c5785820183015181830184015290820190620001fd565b838211156200022d57848385830101525b9695505050505050565b600080604083850312156200024a578182fd5b82516001600160401b038082111562000261578384fd5b6200026f8683870162000184565b9350602085015191508082111562000285578283fd5b50620002948582860162000184565b9150509250929050565b600181811c90821680620002b357607f821691505b60208210811415620002d557634e487b7160e01b600052602260045260246000fd5b50919050565b634e487b7160e01b600052604160045260246000fd5b610d7c80620003016000396000f3fe608060405234801561001057600080fd5b50600436106101005760003560e01c8063715018a611610097578063a457c2d711610066578063a457c2d714610209578063a9059cbb1461021c578063dd62ed3e1461022f578063f2fde38b1461026857600080fd5b8063715018a6146101cb5780638da5cb5b146101d357806395d89b41146101ee5780639dc29fac146101f657600080fd5b8063313ce567116100d3578063313ce5671461016b578063395093511461017a57806340c10f191461018d57806370a08231146101a257600080fd5b806306fdde0314610105578063095ea7b31461012357806318160ddd1461014657806323b872dd14610158575b600080fd5b61010d61027b565b60405161011a9190610c3e565b60405180910390f35b610136610131366004610c15565b61030d565b604051901515815260200161011a565b6002545b60405190815260200161011a565b610136610166366004610bda565b610323565b6040516012815260200161011a565b610136610188366004610c15565b6103d2565b6101a061019b366004610c15565b61040e565b005b61014a6101b0366004610b87565b6001600160a01b031660009081526020819052604090205490565b6101a0610446565b6005546040516001600160a01b03909116815260200161011a565b61010d61047c565b6101a0610204366004610c15565b61048b565b610136610217366004610c15565b6104bf565b61013661022a366004610c15565b610558565b61014a61023d366004610ba8565b6001600160a01b03918216600090815260016020908152604080832093909416825291909152205490565b6101a0610276366004610b87565b610565565b60606003805461028a90610cf5565b80601f01602080910402602001604051908101604052809291908181526020018280546102b690610cf5565b80156103035780601f106102d857610100808354040283529160200191610303565b820191906000526020600020905b8154815290600101906020018083116102e657829003601f168201915b5050505050905090565b600061031a338484610600565b50600192915050565b6000610330848484610725565b6001600160a01b0384166000908152600160209081526040808320338452909152902054828110156103ba5760405162461bcd60e51b815260206004820152602860248201527f45524332303a207472616e7366657220616d6f756e74206578636565647320616044820152676c6c6f77616e636560c01b60648201526084015b60405180910390fd5b6103c78533858403610600565b506001949350505050565b3360008181526001602090815260408083206001600160a01b0387168452909152812054909161031a918590610409908690610cc6565b610600565b6005546001600160a01b031633146104385760405162461bcd60e51b81526004016103b190610c91565b61044282826108f4565b5050565b6005546001600160a01b031633146104705760405162461bcd60e51b81526004016103b190610c91565b61047a60006109d3565b565b60606004805461028a90610cf5565b6005546001600160a01b031633146104b55760405162461bcd60e51b81526004016103b190610c91565b6104428282610a25565b3360009081526001602090815260408083206001600160a01b0386168452909152812054828110156105415760405162461bcd60e51b815260206004820152602560248201527f45524332303a2064656372656173656420616c6c6f77616e63652062656c6f77604482015264207a65726f60d81b60648201526084016103b1565b61054e3385858403610600565b5060019392505050565b600061031a338484610725565b6005546001600160a01b0316331461058f5760405162461bcd60e51b81526004016103b190610c91565b6001600160a01b0381166105f45760405162461bcd60e51b815260206004820152602660248201527f4f776e61626c653a206e6577206f776e657220697320746865207a65726f206160448201526564647265737360d01b60648201526084016103b1565b6105fd816109d3565b50565b6001600160a01b0383166106625760405162461bcd60e51b8152602060048201526024808201527f45524332303a20617070726f76652066726f6d20746865207a65726f206164646044820152637265737360e01b60648201526084016103b1565b6001600160a01b0382166106c35760405162461bcd60e51b815260206004820152602260248201527f45524332303a20617070726f766520746f20746865207a65726f206164647265604482015261737360f01b60648201526084016103b1565b6001600160a01b0383811660008181526001602090815260408083209487168084529482529182902085905590518481527f8c5be1e5ebec7d5bd14f71427d1e84f3dd0314c0f7b2291e5b200ac8c7c3b92591015b60405180910390a3505050565b6001600160a01b0383166107895760405162461bcd60e51b815260206004820152602560248201527f45524332303a207472616e736665722066726f6d20746865207a65726f206164604482015264647265737360d81b60648201526084016103b1565b6001600160a01b0382166107eb5760405162461bcd60e51b815260206004820152602360248201527f45524332303a207472616e7366657220746f20746865207a65726f206164647260448201526265737360e81b60648201526084016103b1565b6001600160a01b038316600090815260208190526040902054818110156108635760405162461bcd60e51b815260206004820152602660248201527f45524332303a207472616e7366657220616d6f756e7420657863656564732062604482015265616c616e636560d01b60648201526084016103b1565b6001600160a01b0380851660009081526020819052604080822085850390559185168152908120805484929061089a908490610cc6565b92505081905550826001600160a01b0316846001600160a01b03167fddf252ad1be2c89b69c2b068fc378daa952ba7f163c4a11628f55a4df523b3ef846040516108e691815260200190565b60405180910390a350505050565b6001600160a01b03821661094a5760405162461bcd60e51b815260206004820152601f60248201527f45524332303a206d696e7420746f20746865207a65726f20616464726573730060448201526064016103b1565b806002600082825461095c9190610cc6565b90915550506001600160a01b03821660009081526020819052604081208054839290610989908490610cc6565b90915550506040518181526001600160a01b038316906000907fddf252ad1be2c89b69c2b068fc378daa952ba7f163c4a11628f55a4df523b3ef9060200160405180910390a35050565b600580546001600160a01b038381166001600160a01b0319831681179093556040519116919082907f8be0079c531659141344cd1fd0a4f28419497f9722a3daafe3b4186f6b6457e090600090a35050565b6001600160a01b038216610a855760405162461bcd60e51b815260206004820152602160248201527f45524332303a206275726e2066726f6d20746865207a65726f206164647265736044820152607360f81b60648201526084016103b1565b6001600160a01b03821660009081526020819052604090205481811015610af95760405162461bcd60e51b815260206004820152602260248201527f45524332303a206275726e20616d6f756e7420657863656564732062616c616e604482015261636560f01b60648201526084016103b1565b6001600160a01b0383166000908152602081905260408120838303905560028054849290610b28908490610cde565b90915550506040518281526000906001600160a01b038516907fddf252ad1be2c89b69c2b068fc378daa952ba7f163c4a11628f55a4df523b3ef90602001610718565b80356001600160a01b0381168114610b8257600080fd5b919050565b600060208284031215610b98578081fd5b610ba182610b6b565b9392505050565b60008060408385031215610bba578081fd5b610bc383610b6b565b9150610bd160208401610b6b565b90509250929050565b600080600060608486031215610bee578081fd5b610bf784610b6b565b9250610c0560208501610b6b565b9150604084013590509250925092565b60008060408385031215610c27578182fd5b610c3083610b6b565b946020939093013593505050565b6000602080835283518082850152825b81811015610c6a57858101830151858201604001528201610c4e565b81811115610c7b5783604083870101525b50601f01601f1916929092016040019392505050565b6020808252818101527f4f776e61626c653a2063616c6c6572206973206e6f7420746865206f776e6572604082015260600190565b60008219821115610cd957610cd9610d30565b500190565b600082821015610cf057610cf0610d30565b500390565b600181811c90821680610d0957607f821691505b60208210811415610d2a57634e487b7160e01b600052602260045260246000fd5b50919050565b634e487b7160e01b600052601160045260246000fdfea26469706673582212205b6799890ed169949239ccd2d02483277659e3067c272e21c25740018e18181d64736f6c6343000804003324e583e35a20f9ecfc1572e7cb66bcc18ad3cd1650ec40dbf6ad2290e553a9fae6026b923a18d83f4b6e92786fdd85dc8e02e7647281b0d8831236806acf2a30a2646970667358221220f9b99c33cf8a3c753ca450d01010b1d9b3e194249d4eb483b2b161b7a318a0f664736f6c6343000804003324e583e35a20f9ecfc1572e7cb66bcc18ad3cd1650ec40dbf6ad2290e553a9fa",
  "linkReferences": {},
  "deployedLinkReferences": {}
}