{
  "_format": "hh-sol-artifact-1",
  "contractName": "LPool",
  "sourceName": "contracts/LPool/LPool.sol",
  "abi": [
    {
      "inputs": [
        {
          "internalType": "uint256",
          "name": "taxPercentNumerator_",
          "type": "uint256"
        },
        {
          "internalType": "uint256",
          "name": "taxPercentDenominator_",
          "type": "uint256"
        },
        {
          "internalType": "uint256",
          "name": "blocksPerCompound_",
          "type": "uint256"
        }
      ],
      "stateMutability": "nonpayable",
      "type": "constructor"
    },
    {
      "anonymous": false,
      "inputs": [
        {
          "indexed": false,
          "internalType": "contract IERC20",
          "name": "token",
          "type": "address"
        },
        {
          "indexed": false,
          "internalType": "contract IERC20",
          "name": "LPToken",
          "type": "address"
        }
      ],
      "name": "Approved",
      "type": "event"
    },
    {
      "anonymous": false,
      "inputs": [
        {
          "indexed": true,
          "internalType": "address",
          "name": "account",
          "type": "address"
        },
        {
          "indexed": false,
          "internalType": "contract IERC20",
          "name": "token",
          "type": "address"
        },
        {
          "indexed": false,
          "internalType": "uint256",
          "name": "amount",
          "type": "uint256"
        }
      ],
      "name": "Claim",
      "type": "event"
    },
    {
      "anonymous": false,
      "inputs": [
        {
          "indexed": true,
          "internalType": "address",
          "name": "account",
          "type": "address"
        },
        {
          "indexed": false,
          "internalType": "contract IERC20",
          "name": "token",
          "type": "address"
        },
        {
          "indexed": false,
          "internalType": "uint256",
          "name": "amount",
          "type": "uint256"
        },
        {
          "indexed": false,
          "internalType": "uint256",
          "name": "totalTax",
          "type": "uint256"
        },
        {
          "indexed": false,
          "internalType": "address[]",
          "name": "taxAccount",
          "type": "address[]"
        }
      ],
      "name": "Deposit",
      "type": "event"
    },
    {
      "anonymous": false,
      "inputs": [
        {
          "indexed": true,
          "internalType": "address",
          "name": "account",
          "type": "address"
        },
        {
          "indexed": false,
          "internalType": "contract IERC20",
          "name": "token",
          "type": "address"
        },
        {
          "indexed": false,
          "internalType": "uint256",
          "name": "amount",
          "type": "uint256"
        }
      ],
      "name": "Loaned",
      "type": "event"
    },
    {
      "anonymous": false,
      "inputs": [
        {
          "indexed": true,
          "internalType": "address",
          "name": "account",
          "type": "address"
        },
        {
          "indexed": false,
          "internalType": "contract IERC20",
          "name": "token",
          "type": "address"
        },
        {
          "indexed": false,
          "internalType": "uint256",
          "name": "amount",
          "type": "uint256"
        },
        {
          "indexed": false,
          "internalType": "uint256",
          "name": "value",
          "type": "uint256"
        }
      ],
      "name": "Redeem",
      "type": "event"
    },
    {
      "anonymous": false,
      "inputs": [
        {
          "indexed": true,
          "internalType": "address",
          "name": "account",
          "type": "address"
        },
        {
          "indexed": false,
          "internalType": "contract IERC20",
          "name": "token",
          "type": "address"
        },
        {
          "indexed": false,
          "internalType": "uint256",
          "name": "amount",
          "type": "uint256"
        }
      ],
      "name": "Repay",
      "type": "event"
    },
    {
      "anonymous": false,
      "inputs": [
        {
          "indexed": true,
          "internalType": "bytes32",
          "name": "role",
          "type": "bytes32"
        },
        {
          "indexed": true,
          "internalType": "bytes32",
          "name": "previousAdminRole",
          "type": "bytes32"
        },
        {
          "indexed": true,
          "internalType": "bytes32",
          "name": "newAdminRole",
          "type": "bytes32"
        }
      ],
      "name": "RoleAdminChanged",
      "type": "event"
    },
    {
      "anonymous": false,
      "inputs": [
        {
          "indexed": true,
          "internalType": "bytes32",
          "name": "role",
          "type": "bytes32"
        },
        {
          "indexed": true,
          "internalType": "address",
          "name": "account",
          "type": "address"
        },
        {
          "indexed": true,
          "internalType": "address",
          "name": "sender",
          "type": "address"
        }
      ],
      "name": "RoleGranted",
      "type": "event"
    },
    {
      "anonymous": false,
      "inputs": [
        {
          "indexed": true,
          "internalType": "bytes32",
          "name": "role",
          "type": "bytes32"
        },
        {
          "indexed": true,
          "internalType": "address",
          "name": "account",
          "type": "address"
        },
        {
          "indexed": true,
          "internalType": "address",
          "name": "sender",
          "type": "address"
        }
      ],
      "name": "RoleRevoked",
      "type": "event"
    },
    {
      "anonymous": false,
      "inputs": [
        {
          "indexed": true,
          "internalType": "address",
          "name": "account",
          "type": "address"
        },
        {
          "indexed": false,
          "internalType": "contract IERC20",
          "name": "token",
          "type": "address"
        },
        {
          "indexed": false,
          "internalType": "uint256",
          "name": "amount",
          "type": "uint256"
        },
        {
          "indexed": false,
          "internalType": "uint256",
          "name": "value",
          "type": "uint256"
        }
      ],
      "name": "Stake",
      "type": "event"
    },
    {
      "anonymous": false,
      "inputs": [
        {
          "indexed": true,
          "internalType": "address",
          "name": "account",
          "type": "address"
        },
        {
          "indexed": false,
          "internalType": "contract IERC20",
          "name": "token",
          "type": "address"
        },
        {
          "indexed": false,
          "internalType": "uint256",
          "name": "amount",
          "type": "uint256"
        }
      ],
      "name": "Unclaim",
      "type": "event"
    },
    {
      "anonymous": false,
      "inputs": [
        {
          "indexed": true,
          "internalType": "address",
          "name": "account",
          "type": "address"
        },
        {
          "indexed": false,
          "internalType": "contract IERC20",
          "name": "token",
          "type": "address"
        },
        {
          "indexed": false,
          "internalType": "uint256",
          "name": "amount",
          "type": "uint256"
        }
      ],
      "name": "Withdraw",
      "type": "event"
    },
    {
      "inputs": [],
      "name": "DEFAULT_ADMIN_ROLE",
      "outputs": [
        {
          "internalType": "bytes32",
          "name": "",
          "type": "bytes32"
        }
      ],
      "stateMutability": "view",
      "type": "function"
    },
    {
      "inputs": [
        {
          "internalType": "contract IERC20",
          "name": "token_",
          "type": "address"
        }
      ],
      "name": "LPFromPA",
      "outputs": [
        {
          "internalType": "contract IERC20",
          "name": "",
          "type": "address"
        }
      ],
      "stateMutability": "view",
      "type": "function"
    },
    {
      "inputs": [
        {
          "internalType": "contract IERC20",
          "name": "token_",
          "type": "address"
        }
      ],
      "name": "PAFromLP",
      "outputs": [
        {
          "internalType": "contract IERC20",
          "name": "",
          "type": "address"
        }
      ],
      "stateMutability": "view",
      "type": "function"
    },
    {
      "inputs": [],
      "name": "POOL_ADMIN",
      "outputs": [
        {
          "internalType": "bytes32",
          "name": "",
          "type": "bytes32"
        }
      ],
      "stateMutability": "view",
      "type": "function"
    },
    {
      "inputs": [],
      "name": "POOL_APPROVED",
      "outputs": [
        {
          "internalType": "bytes32",
          "name": "",
          "type": "bytes32"
        }
      ],
      "stateMutability": "view",
      "type": "function"
    },
    {
      "inputs": [
        {
          "internalType": "address",
          "name": "account_",
          "type": "address"
        }
      ],
      "name": "addTaxAccount",
      "outputs": [],
      "stateMutability": "nonpayable",
      "type": "function"
    },
    {
      "inputs": [
        {
          "internalType": "contract IERC20[]",
          "name": "token_",
          "type": "address[]"
        },
        {
          "internalType": "string[]",
          "name": "name_",
          "type": "string[]"
        },
        {
          "internalType": "string[]",
          "name": "symbol_",
          "type": "string[]"
        }
      ],
      "name": "approve",
      "outputs": [],
      "stateMutability": "nonpayable",
      "type": "function"
    },
    {
      "inputs": [],
      "name": "blocksPerCompound",
      "outputs": [
        {
          "internalType": "uint256",
          "name": "",
          "type": "uint256"
        }
      ],
      "stateMutability": "view",
      "type": "function"
    },
    {
      "inputs": [
        {
          "internalType": "contract IERC20",
          "name": "token_",
          "type": "address"
        },
        {
          "internalType": "uint256",
          "name": "amount_",
          "type": "uint256"
        }
      ],
      "name": "claim",
      "outputs": [],
      "stateMutability": "nonpayable",
      "type": "function"
    },
    {
      "inputs": [
        {
          "internalType": "contract IERC20",
          "name": "token_",
          "type": "address"
        },
        {
          "internalType": "address",
          "name": "account_",
          "type": "address"
        }
      ],
      "name": "claimed",
      "outputs": [
        {
          "internalType": "uint256",
          "name": "",
          "type": "uint256"
        }
      ],
      "stateMutability": "view",
      "type": "function"
    },
    {
      "inputs": [
        {
          "internalType": "contract IERC20",
          "name": "token_",
          "type": "address"
        },
        {
          "internalType": "uint256",
          "name": "amount_",
          "type": "uint256"
        }
      ],
      "name": "deposit",
      "outputs": [],
      "stateMutability": "nonpayable",
      "type": "function"
    },
    {
      "inputs": [
        {
          "internalType": "bytes32",
          "name": "role",
          "type": "bytes32"
        }
      ],
      "name": "getRoleAdmin",
      "outputs": [
        {
          "internalType": "bytes32",
          "name": "",
          "type": "bytes32"
        }
      ],
      "stateMutability": "view",
      "type": "function"
    },
    {
      "inputs": [
        {
          "internalType": "bytes32",
          "name": "role",
          "type": "bytes32"
        },
        {
          "internalType": "address",
          "name": "account",
          "type": "address"
        }
      ],
      "name": "grantRole",
      "outputs": [],
      "stateMutability": "nonpayable",
      "type": "function"
    },
    {
      "inputs": [
        {
          "internalType": "bytes32",
          "name": "role",
          "type": "bytes32"
        },
        {
          "internalType": "address",
          "name": "account",
          "type": "address"
        }
      ],
      "name": "hasRole",
      "outputs": [
        {
          "internalType": "bool",
          "name": "",
          "type": "bool"
        }
      ],
      "stateMutability": "view",
      "type": "function"
    },
    {
      "inputs": [
        {
          "internalType": "contract IERC20",
          "name": "token_",
          "type": "address"
        },
        {
          "internalType": "uint256",
          "name": "initialBorrow_",
          "type": "uint256"
        },
        {
          "internalType": "uint256",
          "name": "borrowBlock_",
          "type": "uint256"
        }
      ],
      "name": "interest",
      "outputs": [
        {
          "internalType": "uint256",
          "name": "",
          "type": "uint256"
        }
      ],
      "stateMutability": "view",
      "type": "function"
    },
    {
      "inputs": [
        {
          "internalType": "contract IERC20",
          "name": "token_",
          "type": "address"
        }
      ],
      "name": "interestRate",
      "outputs": [
        {
          "internalType": "uint256",
          "name": "",
          "type": "uint256"
        },
        {
          "internalType": "uint256",
          "name": "",
          "type": "uint256"
        }
      ],
      "stateMutability": "view",
      "type": "function"
    },
    {
      "inputs": [
        {
          "internalType": "contract IERC20",
          "name": "token_",
          "type": "address"
        }
      ],
      "name": "isLP",
      "outputs": [
        {
          "internalType": "bool",
          "name": "",
          "type": "bool"
        }
      ],
      "stateMutability": "view",
      "type": "function"
    },
    {
      "inputs": [
        {
          "internalType": "contract IERC20",
          "name": "token_",
          "type": "address"
        }
      ],
      "name": "isPA",
      "outputs": [
        {
          "internalType": "bool",
          "name": "",
          "type": "bool"
        }
      ],
      "stateMutability": "view",
      "type": "function"
    },
    {
      "inputs": [
        {
          "internalType": "contract IERC20",
          "name": "token_",
          "type": "address"
        }
      ],
      "name": "liquidity",
      "outputs": [
        {
          "internalType": "uint256",
          "name": "",
          "type": "uint256"
        }
      ],
      "stateMutability": "view",
      "type": "function"
    },
    {
      "inputs": [
        {
          "internalType": "contract IERC20",
          "name": "token_",
          "type": "address"
        },
        {
          "internalType": "uint256",
          "name": "amount_",
          "type": "uint256"
        }
      ],
      "name": "loan",
      "outputs": [],
      "stateMutability": "nonpayable",
      "type": "function"
    },
    {
      "inputs": [
        {
          "internalType": "contract IERC20",
          "name": "token_",
          "type": "address"
        },
        {
          "internalType": "address",
          "name": "account_",
          "type": "address"
        }
      ],
      "name": "loaned",
      "outputs": [
        {
          "internalType": "uint256",
          "name": "",
          "type": "uint256"
        }
      ],
      "stateMutability": "view",
      "type": "function"
    },
    {
      "inputs": [
        {
          "internalType": "contract IERC20",
          "name": "token_",
          "type": "address"
        }
      ],
      "name": "maxInterestMax",
      "outputs": [
        {
          "internalType": "uint256",
          "name": "",
          "type": "uint256"
        },
        {
          "internalType": "uint256",
          "name": "",
          "type": "uint256"
        }
      ],
      "stateMutability": "view",
      "type": "function"
    },
    {
      "inputs": [
        {
          "internalType": "contract IERC20",
          "name": "token_",
          "type": "address"
        }
      ],
      "name": "maxInterestMin",
      "outputs": [
        {
          "internalType": "uint256",
          "name": "",
          "type": "uint256"
        },
        {
          "internalType": "uint256",
          "name": "",
          "type": "uint256"
        }
      ],
      "stateMutability": "view",
      "type": "function"
    },
    {
      "inputs": [
        {
          "internalType": "contract IERC20",
          "name": "token_",
          "type": "address"
        }
      ],
      "name": "maxUtilization",
      "outputs": [
        {
          "internalType": "uint256",
          "name": "",
          "type": "uint256"
        },
        {
          "internalType": "uint256",
          "name": "",
          "type": "uint256"
        }
      ],
      "stateMutability": "view",
      "type": "function"
    },
    {
      "inputs": [
        {
          "internalType": "contract IERC20",
          "name": "token_",
          "type": "address"
        },
        {
          "internalType": "uint256",
          "name": "amount_",
          "type": "uint256"
        }
      ],
      "name": "redeem",
      "outputs": [
        {
          "internalType": "uint256",
          "name": "",
          "type": "uint256"
        }
      ],
      "stateMutability": "nonpayable",
      "type": "function"
    },
    {
      "inputs": [
        {
          "internalType": "contract IERC20",
          "name": "token_",
          "type": "address"
        },
        {
          "internalType": "uint256",
          "name": "amount_",
          "type": "uint256"
        }
      ],
      "name": "redeemValue",
      "outputs": [
        {
          "internalType": "uint256",
          "name": "",
          "type": "uint256"
        }
      ],
      "stateMutability": "view",
      "type": "function"
    },
    {
      "inputs": [
        {
          "internalType": "address",
          "name": "account_",
          "type": "address"
        }
      ],
      "name": "removeTaxAccount",
      "outputs": [],
      "stateMutability": "nonpayable",
      "type": "function"
    },
    {
      "inputs": [
        {
          "internalType": "bytes32",
          "name": "role",
          "type": "bytes32"
        },
        {
          "internalType": "address",
          "name": "account",
          "type": "address"
        }
      ],
      "name": "renounceRole",
      "outputs": [],
      "stateMutability": "nonpayable",
      "type": "function"
    },
    {
      "inputs": [
        {
          "internalType": "contract IERC20",
          "name": "token_",
          "type": "address"
        },
        {
          "internalType": "uint256",
          "name": "amount_",
          "type": "uint256"
        }
      ],
      "name": "repay",
      "outputs": [],
      "stateMutability": "nonpayable",
      "type": "function"
    },
    {
      "inputs": [
        {
          "internalType": "bytes32",
          "name": "role",
          "type": "bytes32"
        },
        {
          "internalType": "address",
          "name": "account",
          "type": "address"
        }
      ],
      "name": "revokeRole",
      "outputs": [],
      "stateMutability": "nonpayable",
      "type": "function"
    },
    {
      "inputs": [
        {
          "internalType": "uint256",
          "name": "blocksPerCompound_",
          "type": "uint256"
        }
      ],
      "name": "setBlocksPerCompound",
      "outputs": [],
      "stateMutability": "nonpayable",
      "type": "function"
    },
    {
      "inputs": [
        {
          "internalType": "contract IERC20[]",
          "name": "token_",
          "type": "address[]"
        },
        {
          "internalType": "uint256[]",
          "name": "percentNumerator_",
          "type": "uint256[]"
        },
        {
          "internalType": "uint256[]",
          "name": "percentDenominator_",
          "type": "uint256[]"
        }
      ],
      "name": "setMaxInterestMax",
      "outputs": [],
      "stateMutability": "nonpayable",
      "type": "function"
    },
    {
      "inputs": [
        {
          "internalType": "contract IERC20[]",
          "name": "token_",
          "type": "address[]"
        },
        {
          "internalType": "uint256[]",
          "name": "percentNumerator_",
          "type": "uint256[]"
        },
        {
          "internalType": "uint256[]",
          "name": "percentDenominator_",
          "type": "uint256[]"
        }
      ],
      "name": "setMaxInterestMin",
      "outputs": [],
      "stateMutability": "nonpayable",
      "type": "function"
    },
    {
      "inputs": [
        {
          "internalType": "contract IERC20[]",
          "name": "token_",
          "type": "address[]"
        },
        {
          "internalType": "uint256[]",
          "name": "percentNumerator_",
          "type": "uint256[]"
        },
        {
          "internalType": "uint256[]",
          "name": "percentDenominator_",
          "type": "uint256[]"
        }
      ],
      "name": "setMaxUtilization",
      "outputs": [],
      "stateMutability": "nonpayable",
      "type": "function"
    },
    {
      "inputs": [
        {
          "internalType": "uint256",
          "name": "taxPercentNumerator_",
          "type": "uint256"
        },
        {
          "internalType": "uint256",
          "name": "taxPercentDenominator_",
          "type": "uint256"
        }
      ],
      "name": "setTaxPercentage",
      "outputs": [],
      "stateMutability": "nonpayable",
      "type": "function"
    },
    {
      "inputs": [
        {
          "internalType": "contract IERC20",
          "name": "token_",
          "type": "address"
        },
        {
          "internalType": "uint256",
          "name": "amount_",
          "type": "uint256"
        }
      ],
      "name": "stake",
      "outputs": [
        {
          "internalType": "uint256",
          "name": "",
          "type": "uint256"
        }
      ],
      "stateMutability": "nonpayable",
      "type": "function"
    },
    {
      "inputs": [
        {
          "internalType": "contract IERC20",
          "name": "token_",
          "type": "address"
        },
        {
          "internalType": "uint256",
          "name": "amount_",
          "type": "uint256"
        }
      ],
      "name": "stakeValue",
      "outputs": [
        {
          "internalType": "uint256",
          "name": "",
          "type": "uint256"
        }
      ],
      "stateMutability": "view",
      "type": "function"
    },
    {
      "inputs": [
        {
          "internalType": "bytes4",
          "name": "interfaceId",
          "type": "bytes4"
        }
      ],
      "name": "supportsInterface",
      "outputs": [
        {
          "internalType": "bool",
          "name": "",
          "type": "bool"
        }
      ],
      "stateMutability": "view",
      "type": "function"
    },
    {
      "inputs": [],
      "name": "taxPercentage",
      "outputs": [
        {
          "internalType": "uint256",
          "name": "",
          "type": "uint256"
        },
        {
          "internalType": "uint256",
          "name": "",
          "type": "uint256"
        }
      ],
      "stateMutability": "view",
      "type": "function"
    },
    {
      "inputs": [
        {
          "internalType": "contract IERC20",
          "name": "token_",
          "type": "address"
        }
      ],
      "name": "totalClaimed",
      "outputs": [
        {
          "internalType": "uint256",
          "name": "",
          "type": "uint256"
        }
      ],
      "stateMutability": "view",
      "type": "function"
    },
    {
      "inputs": [
        {
          "internalType": "contract IERC20",
          "name": "token_",
          "type": "address"
        }
      ],
      "name": "totalLoaned",
      "outputs": [
        {
          "internalType": "uint256",
          "name": "",
          "type": "uint256"
        }
      ],
      "stateMutability": "view",
      "type": "function"
    },
    {
      "inputs": [
        {
          "internalType": "contract IERC20",
          "name": "token_",
          "type": "address"
        }
      ],
      "name": "tvl",
      "outputs": [
        {
          "internalType": "uint256",
          "name": "",
          "type": "uint256"
        }
      ],
      "stateMutability": "view",
      "type": "function"
    },
    {
      "inputs": [
        {
          "internalType": "contract IERC20",
          "name": "token_",
          "type": "address"
        },
        {
          "internalType": "uint256",
          "name": "amount_",
          "type": "uint256"
        }
      ],
      "name": "unclaim",
      "outputs": [],
      "stateMutability": "nonpayable",
      "type": "function"
    },
    {
      "inputs": [
        {
          "internalType": "contract IERC20",
          "name": "token_",
          "type": "address"
        },
        {
          "internalType": "uint256",
          "name": "amount_",
          "type": "uint256"
        }
      ],
      "name": "withdraw",
      "outputs": [],
      "stateMutability": "nonpayable",
      "type": "function"
    }
  ],
  "bytecode": "0x60806040523480156200001157600080fd5b5060405162004790380380620047908339810160408190526200003491620001aa565b808383620000526000805160206200477083398151915280620000be565b6200008d7fe6026b923a18d83f4b6e92786fdd85dc8e02e7647281b0d8831236806acf2a3060008051602062004770833981519152620000be565b620000a8600080516020620047708339815191523362000109565b600791909155600855600d5550620001d8915050565b600082815260208190526040808220600101805490849055905190918391839186917fbd79b86ffe0ab8e8776151514217cd7cacd52c909f66475c3af44e129f0b00ff9190a4505050565b6000828152602081815260408083206001600160a01b038516845290915290205460ff16620001a6576000828152602081815260408083206001600160a01b03851684529091529020805460ff19166001179055620001653390565b6001600160a01b0316816001600160a01b0316837f2f8788117e7eff1d82e926ec794901d17c78024a50270940304540a733656f0d60405160405180910390a45b5050565b600080600060608486031215620001bf578283fd5b8351925060208401519150604084015190509250925092565b61458880620001e86000396000f3fe60806040523480156200001157600080fd5b5060043610620002a95760003560e01c80637b564460116200016d578063ae7b6d1611620000d3578063d547741f1162000092578063d547741f1462000711578063ddd826a51462000728578063e75db6161462000754578063ef5d9ae8146200076b578063f2fd9dc21462000797578063f3fef3a314620007ae57600080fd5b8063ae7b6d1614620006a9578063b1e5ce1d14620006b5578063b8c876b114620006cc578063bffe84c214620006e3578063d0b9622c14620006fa57600080fd5b806393a00daa116200012c57806393a00daa1462000610578063a217fddf1462000627578063a2b4fe711462000630578063aa08ed761462000647578063aad3ec96146200067b578063adc9772e146200069257600080fd5b80637b56446014620005685780637c2c69c0146200057f5780637df0f76714620005965780638695ede314620005c557806391d1485414620005f957600080fd5b8063248a9ca311620002135780634fc1d7dc11620001d25780634fc1d7dc146200049f5780636518711d14620004dc5780636da8d26214620004f35780637594825b146200050a578063766a0b48146200052157806378b09e91146200055157600080fd5b8063248a9ca3146200041d57806325ddcd6114620004435780632f2ff15d146200045a57806336568abe146200047157806347e7ef24146200048857600080fd5b806312e23ac2116200026c57806312e23ac2146200035e578063147e094814620003a8578063185cc75114620003c15780631e9a695014620003d857806320f5ad9414620003ef57806322867d78146200040657600080fd5b80630104b00414620002ae57806301ffc9a714620002da578063045f1f4f14620002f15780630bbd061814620003175780630c9cbf0e1462000321575b600080fd5b620002c5620002bf36600462002d2c565b620007c5565b60405190151581526020015b60405180910390f35b620002c5620002eb36600462002eca565b620007e3565b620003086000805160206200453383398151915281565b604051908152602001620002d1565b62000308600d5481565b620003086200033236600462002ef4565b6001600160a01b0380821660009081526005602090815260408083209386168352929052205492915050565b620003926200036f36600462002d2c565b6001600160a01b03166000908152600f6020526040902080546001909101549091565b60408051928352602083019190915201620002d1565b620003bf620003b936600462002e7f565b6200081b565b005b620003bf620003d236600462002f26565b6200083d565b62000308620003e936600462002f26565b62000976565b620003bf6200040036600462002fa4565b62000b29565b620003bf6200041736600462002f26565b62000b51565b620003086200042e36600462002e7f565b60009081526020819052604090206001015490565b620003bf6200045436600462002d2c565b62000ca8565b620003bf6200046b36600462002e98565b62000cd5565b620003bf6200048236600462002e98565b62000d04565b620003bf6200049936600462002f26565b62000d82565b62000308620004b036600462002ef4565b6001600160a01b038082166000908152600b602090815260408083209386168352929052205492915050565b620003bf620004ed36600462002dd9565b62000f17565b620003086200050436600462002f26565b62001090565b620003bf6200051b36600462002d2c565b62001139565b620005386200053236600462002d2c565b62001162565b6040516001600160a01b039091168152602001620002d1565b620003086200056236600462002f26565b620011af565b620003bf6200057936600462002dd9565b62001258565b620003926200059036600462002d2c565b620013bc565b620002c5620005a736600462002d2c565b6001600160a01b031660009081526002602052604090205460ff1690565b62000392620005d636600462002d2c565b6001600160a01b0316600090815260106020526040902080546001909101549091565b620002c56200060a36600462002e98565b620014b5565b620003bf6200062136600462002d4b565b620014de565b62000308600081565b620003086000805160206200451383398151915281565b620003926200065836600462002d2c565b6001600160a01b03166000908152600e6020526040902080546001909101549091565b620003bf6200068c36600462002f26565b62001815565b62000308620006a336600462002f26565b62001966565b60075460085462000392565b62000538620006c636600462002d2c565b62001aec565b62000308620006dd36600462002d2c565b62001b49565b620003bf620006f436600462002f26565b62001b91565b620003086200070b36600462002f54565b62001cf8565b620003bf6200072236600462002e98565b62001d58565b620003086200073936600462002d2c565b6001600160a01b03166000908152600c602052604090205490565b620003086200076536600462002d2c565b62001d82565b620003086200077c36600462002d2c565b6001600160a01b031660009081526006602052604090205490565b620003bf620007a836600462002dd9565b62001e29565b620003bf620007bf36600462002f26565b62001f8d565b6001600160a01b031660009081526001602052604090205460ff1690565b60006001600160e01b03198216637965db0b60e01b14806200081557506301ffc9a760e01b6001600160e01b03198316145b92915050565b600080516020620045138339815191526200083781336200204e565b50600d55565b600080516020620045338339815191526200085981336200204e565b826200086581620007c5565b6200088d5760405162461bcd60e51b8152600401620008849062003186565b60405180910390fd5b620008988462001b49565b831115620008ba5760405162461bcd60e51b815260040162000884906200313b565b620008d2335b6001600160a01b0386169085620020bd565b6200090e83600b6000335b6001600160a01b03908116825260208083019390935260409182016000908120918a16815292529020549062002122565b336000818152600b602090815260408083206001600160a01b038a1680855290835292819020949094558351918252810186905290917fc9d1e37d63367ddb1e7af8bcc8e9f6bbe504db1b5953feceadf5c41eb1b996b491015b60405180910390a250505050565b6001600160a01b038216600090815260026020526040812054839060ff16620009b35760405162461bcd60e51b81526004016200088490620031cb565b836000620009c18262001aec565b90506000620009d1838762001090565b9050620009de8262001b49565b81111562000a435760405162461bcd60e51b815260206004820152602b60248201527f4e6f7420656e6f756768206c697175696469747920746f2072656465656d206160448201526a7420746869732074696d6560a81b606482015260840162000884565b6001600160a01b038316639dc29fac336040516001600160e01b031960e084901b1681526001600160a01b03909116600482015260248101899052604401600060405180830381600087803b15801562000a9c57600080fd5b505af115801562000ab1573d6000803e3d6000fd5b5050505062000ad362000ac13390565b6001600160a01b0384169083620020bd565b604080516001600160a01b038916815260208101889052808201839052905133917f3f693fff038bb8a046aa76d9516190ac7444f7d69cf952c4cbdc086fdef2d6fc919081900360600190a29695505050505050565b6000805160206200451383398151915262000b4581336200204e565b50600791909155600855565b6000805160206200453383398151915262000b6d81336200204e565b8262000b7981620007c5565b62000b985760405162461bcd60e51b8152600401620008849062003186565b62000baf6001600160a01b03851633308662002130565b336000908152600b602090815260408083206001600160a01b038816845290915290205483111562000c0557336000908152600b602090815260408083206001600160a01b038816845290915281205562000c66565b62000c4183600b6000335b6001600160a01b03908116825260208083019390935260409182016000908120918a16815292529020549062002170565b336000908152600b602090815260408083206001600160a01b03891684529091529020555b604080516001600160a01b03861681526020810185905233917f05f2eeda0e08e4b437f487c8d7d29b14537d15e3488170dc3de5dbdf8dac4684910162000968565b6000805160206200451383398151915262000cc481336200204e565b62000cd16009836200217e565b5050565b60008281526020819052604090206001015462000cf381336200204e565b62000cff83836200223e565b505050565b6001600160a01b038116331462000d765760405162461bcd60e51b815260206004820152602f60248201527f416363657373436f6e74726f6c3a2063616e206f6e6c792072656e6f756e636560448201526e103937b632b9903337b91039b2b63360891b606482015260840162000884565b62000cd18282620022c6565b6000805160206200453383398151915262000d9e81336200204e565b8262000daa81620007c5565b62000dc95760405162461bcd60e51b8152600401620008849062003186565b60008062000dda6007546008549091565b91509150600062000dea6200232e565b9050600062000e15825162000e0e8562000e0e8b896200234190919063ffffffff16565b906200234f565b9050600062000e2f8351836200234190919063ffffffff16565b905060005b835181101562000e9d5762000e883385838151811062000e6457634e487b7160e01b600052603260045260246000fd5b6020026020010151858d6001600160a01b031662002130909392919063ffffffff16565b8062000e948162003432565b91505062000e34565b5062000eaa888262002170565b975062000ec36001600160a01b038a1633308b62002130565b336001600160a01b03167f3e8f7080d28360572f18a99da683fe6f32eaaabb302169ad2648b417524f0a998a8a848760405162000f0494939291906200308b565b60405180910390a2505050505050505050565b6000805160206200451383398151915262000f3381336200204e565b60005b8451811015620010895762000f7385828151811062000f6557634e487b7160e01b600052603260045260246000fd5b6020026020010151620007c5565b15620010745783818151811062000f9a57634e487b7160e01b600052603260045260246000fd5b60200260200101516010600087848151811062000fc757634e487b7160e01b600052603260045260246000fd5b60200260200101516001600160a01b03166001600160a01b03168152602001908152602001600020600001819055508281815181106200101757634e487b7160e01b600052603260045260246000fd5b6020026020010151601060008784815181106200104457634e487b7160e01b600052603260045260246000fd5b60200260200101516001600160a01b03166001600160a01b03168152602001908152602001600020600101819055505b80620010808162003432565b91505062000f36565b5050505050565b6000808390506000816001600160a01b03166318160ddd6040518163ffffffff1660e01b815260040160206040518083038186803b158015620010d257600080fd5b505afa158015620010e7573d6000803e3d6000fd5b505050506040513d601f19601f820116820180604052508101906200110d919062002f8b565b905060006200111c8662001d82565b90506200112f8262000e0e878462002341565b9695505050505050565b600080516020620045138339815191526200115581336200204e565b62000cd16009836200235d565b6000816200117081620007c5565b6200118f5760405162461bcd60e51b8152600401620008849062003186565b50506001600160a01b039081166000908152600360205260409020541690565b600080620011bd8462001162565b90506000816001600160a01b03166318160ddd6040518163ffffffff1660e01b815260040160206040518083038186803b158015620011fb57600080fd5b505afa15801562001210573d6000803e3d6000fd5b505050506040513d601f19601f8201168201806040525081019062001236919062002f8b565b90506000620012458662001d82565b90506200112f8162000e0e878562002341565b600080516020620045138339815191526200127481336200204e565b60005b84518110156200108957620012a685828151811062000f6557634e487b7160e01b600052603260045260246000fd5b15620013a757838181518110620012cd57634e487b7160e01b600052603260045260246000fd5b6020026020010151600f6000878481518110620012fa57634e487b7160e01b600052603260045260246000fd5b60200260200101516001600160a01b03166001600160a01b03168152602001908152602001600020600001819055508281815181106200134a57634e487b7160e01b600052603260045260246000fd5b6020026020010151600f60008784815181106200137757634e487b7160e01b600052603260045260246000fd5b60200260200101516001600160a01b03166001600160a01b03168152602001908152602001600020600101819055505b80620013b38162003432565b91505062001277565b6000806000620013cc8462001d82565b90506000620013e7620013df8662001b49565b839062002170565b6001600160a01b0386166000818152601060209081526040808320815180830183528154815260019182015481850152858552600e80855283862084518086018652815480825291909401548487018190529790965284528251808401909352938252918101939093528151939450909290919062001472906200146b8a62001d82565b9062002341565b60208401516200148490869062002341565b1115620014a8576200149a8486858585620024d4565b965096505050505050915091565b6200149a848684620025af565b6000918252602082815260408084206001600160a01b0393909316845291905290205460ff1690565b60008051602062004513833981519152620014fa81336200204e565b60005b845181101562001089576200152c85828151811062000f6557634e487b7160e01b600052603260045260246000fd5b158015620015825750620015808582815181106200155a57634e487b7160e01b600052603260045260246000fd5b60200260200101516001600160a01b031660009081526002602052604090205460ff1690565b155b1562001800576001806000878481518110620015ae57634e487b7160e01b600052603260045260246000fd5b60200260200101516001600160a01b03166001600160a01b0316815260200190815260200160002060006101000a81548160ff02191690831515021790555060008482815181106200161057634e487b7160e01b600052603260045260246000fd5b60200260200101518483815181106200163957634e487b7160e01b600052603260045260246000fd5b60200260200101516040516200164f9062002b48565b6200165c92919062003109565b604051809103906000f08015801562001679573d6000803e3d6000fd5b506001600160a01b0381166000908152600260205260408120805460ff191660011790558751919250829160039190899086908110620016c957634e487b7160e01b600052603260045260246000fd5b60200260200101516001600160a01b03166001600160a01b0316815260200190815260200160002060006101000a8154816001600160a01b0302191690836001600160a01b031602179055508582815181106200173657634e487b7160e01b600052603260045260246000fd5b602002602001015160046000836001600160a01b03166001600160a01b0316815260200190815260200160002060006101000a8154816001600160a01b0302191690836001600160a01b031602179055507faad2833c9fd7a3de33f301e5186ee84d1a5753ce32de6b97baedaac4b92b55fc868381518110620017c957634e487b7160e01b600052603260045260246000fd5b602002602001015182604051620017f69291906001600160a01b0392831681529116602082015260400190565b60405180910390a1505b806200180c8162003432565b915050620014fd565b600080516020620045338339815191526200183181336200204e565b826200183d81620007c5565b6200185c5760405162461bcd60e51b8152600401620008849062003186565b620018678462001b49565b831115620018c75760405162461bcd60e51b815260206004820152602660248201527f43616e6e6f7420636c61696d206d6f7265207468616e20746f74616c206c697160448201526575696469747960d01b606482015260840162000884565b620018d7836005600033620008dd565b3360009081526005602090815260408083206001600160a01b038916845282528083209390935560069052205462001910908462002122565b6001600160a01b03851660008181526006602090815260409182902093909355805191825291810185905233917f70eb43c4a8ae8c40502dcf22436c509c28d6ff421cf07c491be56984bd987068910162000968565b6000826200197481620007c5565b620019935760405162461bcd60e51b8152600401620008849062003186565b6000620019a08562001162565b90506000620019b08686620011af565b90506000811162001a045760405162461bcd60e51b815260206004820152601860248201527f4e6f7420656e6f75676820746f6b656e73207374616b65640000000000000000604482015260640162000884565b62001a1b6001600160a01b03871633308862002130565b6001600160a01b0382166340c10f19336040516001600160e01b031960e084901b1681526001600160a01b03909116600482015260248101849052604401600060405180830381600087803b15801562001a7457600080fd5b505af115801562001a89573d6000803e3d6000fd5b5050505062001a953390565b604080516001600160a01b038981168252602082018990529181018490529116907f63602d0ecc7b3a0ef7ff1a116e23056662d64280355ba8031b6d0d767c4b44589060600160405180910390a295945050505050565b6001600160a01b038116600090815260026020526040812054829060ff1662001b295760405162461bcd60e51b81526004016200088490620031cb565b50506001600160a01b039081166000908152600460205260409020541690565b6001600160a01b038116600090815260066020908152604080832054600c90925282205462001b898162001b828462001b828862001d82565b9062002170565b949350505050565b6000805160206200453383398151915262001bad81336200204e565b8262001bb981620007c5565b62001bd85760405162461bcd60e51b8152600401620008849062003186565b3360009081526005602090815260408083206001600160a01b038816845290915290205483111562001c595760405162461bcd60e51b815260206004820152602360248201527f43616e6e6f7420756e636c61696d206d6f7265207468616e20796f757220636c60448201526261696d60e81b606482015260840162000884565b62001c6983600560003362000c10565b3360009081526005602090815260408083206001600160a01b038916845282528083209390935560069052205462001ca2908462002170565b6001600160a01b03851660008181526006602090815260409182902093909355805191825291810185905233917fb357d3c8cf2c37863e04f4c71afd0e8bef633cec94ee21866dc4e7058932a489910162000968565b60008062001d07438462002170565b905060008062001d1787620013bc565b915091506000600c905062001d4a8762001d428562000e0e86600d546200234190919063ffffffff16565b8684620025e1565b9450505050505b9392505050565b60008281526020819052604090206001015462001d7681336200204e565b62000cff8383620022c6565b6001600160a01b0381166000908152600c602052604081205481906040516370a0823160e01b815230600482015290915062001d519082906001600160a01b038616906370a082319060240160206040518083038186803b15801562001de757600080fd5b505afa15801562001dfc573d6000803e3d6000fd5b505050506040513d601f19601f8201168201806040525081019062001e22919062002f8b565b9062002122565b6000805160206200451383398151915262001e4581336200204e565b60005b8451811015620010895762001e7785828151811062000f6557634e487b7160e01b600052603260045260246000fd5b1562001f785783818151811062001e9e57634e487b7160e01b600052603260045260246000fd5b6020026020010151600e600087848151811062001ecb57634e487b7160e01b600052603260045260246000fd5b60200260200101516001600160a01b03166001600160a01b031681526020019081526020016000206000018190555082818151811062001f1b57634e487b7160e01b600052603260045260246000fd5b6020026020010151600e600087848151811062001f4857634e487b7160e01b600052603260045260246000fd5b60200260200101516001600160a01b03166001600160a01b03168152602001908152602001600020600101819055505b8062001f848162003432565b91505062001e48565b6000805160206200453383398151915262001fa981336200204e565b8262001fb581620007c5565b62001fd45760405162461bcd60e51b8152600401620008849062003186565b62001fdf8462001b49565b831115620020015760405162461bcd60e51b815260040162000884906200313b565b6200200c33620008c0565b604080516001600160a01b03861681526020810185905233917f9b1bfa7fa9ee420a16e124f794c35ac9f90472acc99140eb2f6447c714cad8eb910162000968565b6200205a8282620014b5565b62000cd15762002075816001600160a01b0316601462002686565b6200208283602062002686565b6040516020016200209592919062003012565b60408051601f198184030181529082905262461bcd60e51b82526200088491600401620030f4565b6040516001600160a01b03831660248201526044810182905262000cff90849063a9059cbb60e01b906064015b60408051601f198184030181529190526020810180516001600160e01b03166001600160e01b0319909316929092179091526200287c565b600062001d5182846200326c565b6040516001600160a01b03808516602483015283166044820152606481018290526200216a9085906323b872dd60e01b90608401620020ea565b50505050565b600062001d518284620033cf565b6200218a828262002955565b15620021e45760405162461bcd60e51b815260206004820152602260248201527f4164647265737320616c72656164792065786973747320696e207468652073656044820152613a1760f11b606482015260840162000884565b6001828101805480830182556000828152602090200180546001600160a01b0319166001600160a01b03851617905554620022209190620033cf565b6001600160a01b039091166000908152602092909252604090912055565b6200224a8282620014b5565b62000cd1576000828152602081815260408083206001600160a01b03851684529091529020805460ff19166001179055620022823390565b6001600160a01b0316816001600160a01b0316837f2f8788117e7eff1d82e926ec794901d17c78024a50270940304540a733656f0d60405160405180910390a45050565b620022d28282620014b5565b1562000cd1576000828152602081815260408083206001600160a01b0385168085529252808320805460ff1916905551339285917ff6391f5c32d9c69d2a47ea670b442974b53935d1edc7fd64eb21e047a839171b9190a45050565b60606200233c6009620029c7565b905090565b600062001d518284620033ad565b600062001d51828462003287565b62002369828262002955565b620023c25760405162461bcd60e51b815260206004820152602260248201527f4164647265737320646f6573206e6f7420657869737420696e207468652073656044820152613a1760f11b606482015260840162000884565b60018281018054600092620023d791620033cf565b81548110620023f657634e487b7160e01b600052603260045260246000fd5b60009182526020808320909101546001600160a01b038581168452918690526040808420549290911680845292208190556001850180549293509091839190839081106200245457634e487b7160e01b600052603260045260246000fd5b600091825260208083209190910180546001600160a01b0319166001600160a01b03948516179055918516815290859052604081205560018401805480620024ac57634e487b7160e01b600052603160045260246000fd5b600082815260209020810160001990810180546001600160a01b031916905501905550505050565b60008060006200251586600001516200146b62002503876020015189600001516200234190919063ffffffff16565b6020890151885162001b829162002122565b905060006200253f87602001516200146b886020015188602001516200234190919063ffffffff16565b905060006200257b6200256587602001516200146b8c876200234190919063ffffffff16565b875162001b829085906200146b908f9062002341565b905060006200259d836200146b89602001518d6200234190919063ffffffff16565b919b919a509098505050505050505050565b80516000908190620025c390869062002341565b6020840151620025d590869062002341565b91509150935093915050565b600080600180825b858110156200267957620025fe8189620032f1565b826200260b858c620033ad565b62002617919062003287565b62002623919062003287565b6200262f90856200326c565b93506200263d8188620033cf565b620026499084620033ad565b9250620026588160016200326c565b620026649083620033ad565b9150620026718162003432565b9050620025e9565b5091979650505050505050565b6060600062002697836002620033ad565b620026a49060026200326c565b67ffffffffffffffff811115620026cb57634e487b7160e01b600052604160045260246000fd5b6040519080825280601f01601f191660200182016040528015620026f6576020820181803683370190505b509050600360fc1b816000815181106200272057634e487b7160e01b600052603260045260246000fd5b60200101906001600160f81b031916908160001a905350600f60fb1b816001815181106200275e57634e487b7160e01b600052603260045260246000fd5b60200101906001600160f81b031916908160001a905350600062002784846002620033ad565b620027919060016200326c565b90505b60018111156200282b576f181899199a1a9b1b9c1cb0b131b232b360811b85600f1660108110620027d557634e487b7160e01b600052603260045260246000fd5b1a60f81b828281518110620027fa57634e487b7160e01b600052603260045260246000fd5b60200101906001600160f81b031916908160001a90535060049490941c93620028238162003418565b905062002794565b50831562001d515760405162461bcd60e51b815260206004820181905260248201527f537472696e67733a20686578206c656e67746820696e73756666696369656e74604482015260640162000884565b6000620028d3826040518060400160405280602081526020017f5361666545524332303a206c6f772d6c6576656c2063616c6c206661696c6564815250856001600160a01b031662002a2f9092919063ffffffff16565b80519091501562000cff5780806020019051810190620028f4919062002e5d565b62000cff5760405162461bcd60e51b815260206004820152602a60248201527f5361666545524332303a204552433230206f7065726174696f6e20646964206e6044820152691bdd081cdd58d8d9595960b21b606482015260840162000884565b60018201546000906200296b5750600062000815565b6001600160a01b0382166000818152602085905260409020546001850180549091908110620029aa57634e487b7160e01b600052603260045260246000fd5b6000918252602090912001546001600160a01b0316149392505050565b60608160010180548060200260200160405190810160405280929190818152602001828054801562002a2357602002820191906000526020600020905b81546001600160a01b0316815260019091019060200180831162002a04575b50505050509050919050565b606062001b89848460008585843b62002a8b5760405162461bcd60e51b815260206004820152601d60248201527f416464726573733a2063616c6c20746f206e6f6e2d636f6e7472616374000000604482015260640162000884565b600080866001600160a01b0316858760405162002aa9919062002ff4565b60006040518083038185875af1925050503d806000811462002ae8576040519150601f19603f3d011682016040523d82523d6000602084013e62002aed565b606091505b509150915062002aff82828662002b0a565b979650505050505050565b6060831562002b1b57508162001d51565b82511562002b2c5782518084602001fd5b8160405162461bcd60e51b8152600401620008849190620030f4565b61107d806200349683390190565b600082601f83011262002b67578081fd5b8135602062002b8062002b7a8362003245565b62003211565b80838252828201915082860187848660051b890101111562002ba0578586fd5b855b8581101562002bcb57813562002bb8816200347c565b8452928401929084019060010162002ba2565b5090979650505050505050565b6000601f838184011262002bea578182fd5b8235602062002bfd62002b7a8362003245565b80838252828201915082870188848660051b8a0101111562002c1d578687fd5b865b8581101562002cba57813567ffffffffffffffff8082111562002c4057898afd5b818b0191508b603f83011262002c5457898afd5b8682013560408282111562002c6d5762002c6d62003466565b62002c80828c01601f19168a0162003211565b92508183528d8183860101111562002c96578b8cfd5b818185018a85013750810187018a9052855250928401929084019060010162002c1f565b509098975050505050505050565b600082601f83011262002cd9578081fd5b8135602062002cec62002b7a8362003245565b80838252828201915082860187848660051b890101111562002d0c578586fd5b855b8581101562002bcb5781358452928401929084019060010162002d0e565b60006020828403121562002d3e578081fd5b813562001d51816200347c565b60008060006060848603121562002d60578182fd5b833567ffffffffffffffff8082111562002d78578384fd5b62002d868783880162002b56565b9450602086013591508082111562002d9c578384fd5b62002daa8783880162002bd8565b9350604086013591508082111562002dc0578283fd5b5062002dcf8682870162002bd8565b9150509250925092565b60008060006060848603121562002dee578283fd5b833567ffffffffffffffff8082111562002e06578485fd5b62002e148783880162002b56565b9450602086013591508082111562002e2a578384fd5b62002e388783880162002cc8565b9350604086013591508082111562002e4e578283fd5b5062002dcf8682870162002cc8565b60006020828403121562002e6f578081fd5b8151801515811462001d51578182fd5b60006020828403121562002e91578081fd5b5035919050565b6000806040838503121562002eab578182fd5b82359150602083013562002ebf816200347c565b809150509250929050565b60006020828403121562002edc578081fd5b81356001600160e01b03198116811462001d51578182fd5b6000806040838503121562002f07578182fd5b823562002f14816200347c565b9150602083013562002ebf816200347c565b6000806040838503121562002f39578182fd5b823562002f46816200347c565b946020939093013593505050565b60008060006060848603121562002f69578081fd5b833562002f76816200347c565b95602085013595506040909401359392505050565b60006020828403121562002f9d578081fd5b5051919050565b6000806040838503121562002fb7578182fd5b50508035926020909101359150565b6000815180845262002fe0816020860160208601620033e9565b601f01601f19169290920160200192915050565b6000825162003008818460208701620033e9565b9190910192915050565b7f416363657373436f6e74726f6c3a206163636f756e74200000000000000000008152600083516200304c816017850160208801620033e9565b7001034b99036b4b9b9b4b733903937b6329607d1b60179184019182015283516200307f816028840160208801620033e9565b01602801949350505050565b60006080820160018060a01b038088168452602087818601528660408601526080606086015282865180855260a0870191508288019450855b81811015620030e4578551851683529483019491830191600101620030c4565b50909a9950505050505050505050565b60208152600062001d51602083018462002fc6565b6040815260006200311e604083018562002fc6565b828103602084015262003132818562002fc6565b95945050505050565b6020808252602b908201527f576974686472617720616d6f756e74206578636565647320617661696c61626c60408201526a65206c697175696469747960a81b606082015260800190565b60208082526025908201527f4f6e6c7920706f6f6c20617070726f76656420746f6b656e73206d6179206265604082015264081d5cd95960da1b606082015260800190565b60208082526026908201527f4f6e6c79206c697175696469747920706f6f6c20746f6b656e73206d6179206260408201526519481d5cd95960d21b606082015260800190565b604051601f8201601f1916810167ffffffffffffffff811182821017156200323d576200323d62003466565b604052919050565b600067ffffffffffffffff82111562003262576200326262003466565b5060051b60200190565b6000821982111562003282576200328262003450565b500190565b600082620032a357634e487b7160e01b81526012600452602481fd5b500490565b600181815b80851115620032e9578160001904821115620032cd57620032cd62003450565b80851615620032db57918102915b93841c9390800290620032ad565b509250929050565b600062001d5183836000826200330a5750600162000815565b81620033195750600062000815565b81600181146200333257600281146200333d576200335d565b600191505062000815565b60ff84111562003351576200335162003450565b50506001821b62000815565b5060208310610133831016604e8410600b841016171562003382575081810a62000815565b6200338e8383620032a8565b8060001904821115620033a557620033a562003450565b029392505050565b6000816000190483118215151615620033ca57620033ca62003450565b500290565b600082821015620033e457620033e462003450565b500390565b60005b8381101562003406578181015183820152602001620033ec565b838111156200216a5750506000910152565b6000816200342a576200342a62003450565b506000190190565b600060001982141562003449576200344962003450565b5060010190565b634e487b7160e01b600052601160045260246000fd5b634e487b7160e01b600052604160045260246000fd5b6001600160a01b03811681146200349257600080fd5b5056fe60806040523480156200001157600080fd5b506040516200107d3803806200107d833981016040819052620000349162000237565b8151829082906200004d906003906020850190620000de565b50805162000063906004906020840190620000de565b505050620000806200007a6200008860201b60201c565b6200008c565b5050620002f1565b3390565b600580546001600160a01b038381166001600160a01b0319831681179093556040519116919082907f8be0079c531659141344cd1fd0a4f28419497f9722a3daafe3b4186f6b6457e090600090a35050565b828054620000ec906200029e565b90600052602060002090601f0160209004810192826200011057600085556200015b565b82601f106200012b57805160ff19168380011785556200015b565b828001600101855582156200015b579182015b828111156200015b5782518255916020019190600101906200013e565b50620001699291506200016d565b5090565b5b808211156200016957600081556001016200016e565b600082601f83011262000195578081fd5b81516001600160401b0380821115620001b257620001b2620002db565b604051601f8301601f19908116603f01168101908282118183101715620001dd57620001dd620002db565b81604052838152602092508683858801011115620001f9578485fd5b8491505b838210156200021c5785820183015181830184015290820190620001fd565b838211156200022d57848385830101525b9695505050505050565b600080604083850312156200024a578182fd5b82516001600160401b038082111562000261578384fd5b6200026f8683870162000184565b9350602085015191508082111562000285578283fd5b50620002948582860162000184565b9150509250929050565b600181811c90821680620002b357607f821691505b60208210811415620002d557634e487b7160e01b600052602260045260246000fd5b50919050565b634e487b7160e01b600052604160045260246000fd5b610d7c80620003016000396000f3fe608060405234801561001057600080fd5b50600436106101005760003560e01c8063715018a611610097578063a457c2d711610066578063a457c2d714610209578063a9059cbb1461021c578063dd62ed3e1461022f578063f2fde38b1461026857600080fd5b8063715018a6146101cb5780638da5cb5b146101d357806395d89b41146101ee5780639dc29fac146101f657600080fd5b8063313ce567116100d3578063313ce5671461016b578063395093511461017a57806340c10f191461018d57806370a08231146101a257600080fd5b806306fdde0314610105578063095ea7b31461012357806318160ddd1461014657806323b872dd14610158575b600080fd5b61010d61027b565b60405161011a9190610c3e565b60405180910390f35b610136610131366004610c15565b61030d565b604051901515815260200161011a565b6002545b60405190815260200161011a565b610136610166366004610bda565b610323565b6040516012815260200161011a565b610136610188366004610c15565b6103d2565b6101a061019b366004610c15565b61040e565b005b61014a6101b0366004610b87565b6001600160a01b031660009081526020819052604090205490565b6101a0610446565b6005546040516001600160a01b03909116815260200161011a565b61010d61047c565b6101a0610204366004610c15565b61048b565b610136610217366004610c15565b6104bf565b61013661022a366004610c15565b610558565b61014a61023d366004610ba8565b6001600160a01b03918216600090815260016020908152604080832093909416825291909152205490565b6101a0610276366004610b87565b610565565b60606003805461028a90610cf5565b80601f01602080910402602001604051908101604052809291908181526020018280546102b690610cf5565b80156103035780601f106102d857610100808354040283529160200191610303565b820191906000526020600020905b8154815290600101906020018083116102e657829003601f168201915b5050505050905090565b600061031a338484610600565b50600192915050565b6000610330848484610725565b6001600160a01b0384166000908152600160209081526040808320338452909152902054828110156103ba5760405162461bcd60e51b815260206004820152602860248201527f45524332303a207472616e7366657220616d6f756e74206578636565647320616044820152676c6c6f77616e636560c01b60648201526084015b60405180910390fd5b6103c78533858403610600565b506001949350505050565b3360008181526001602090815260408083206001600160a01b0387168452909152812054909161031a918590610409908690610cc6565b610600565b6005546001600160a01b031633146104385760405162461bcd60e51b81526004016103b190610c91565b61044282826108f4565b5050565b6005546001600160a01b031633146104705760405162461bcd60e51b81526004016103b190610c91565b61047a60006109d3565b565b60606004805461028a90610cf5565b6005546001600160a01b031633146104b55760405162461bcd60e51b81526004016103b190610c91565b6104428282610a25565b3360009081526001602090815260408083206001600160a01b0386168452909152812054828110156105415760405162461bcd60e51b815260206004820152602560248201527f45524332303a2064656372656173656420616c6c6f77616e63652062656c6f77604482015264207a65726f60d81b60648201526084016103b1565b61054e3385858403610600565b5060019392505050565b600061031a338484610725565b6005546001600160a01b0316331461058f5760405162461bcd60e51b81526004016103b190610c91565b6001600160a01b0381166105f45760405162461bcd60e51b815260206004820152602660248201527f4f776e61626c653a206e6577206f776e657220697320746865207a65726f206160448201526564647265737360d01b60648201526084016103b1565b6105fd816109d3565b50565b6001600160a01b0383166106625760405162461bcd60e51b8152602060048201526024808201527f45524332303a20617070726f76652066726f6d20746865207a65726f206164646044820152637265737360e01b60648201526084016103b1565b6001600160a01b0382166106c35760405162461bcd60e51b815260206004820152602260248201527f45524332303a20617070726f766520746f20746865207a65726f206164647265604482015261737360f01b60648201526084016103b1565b6001600160a01b0383811660008181526001602090815260408083209487168084529482529182902085905590518481527f8c5be1e5ebec7d5bd14f71427d1e84f3dd0314c0f7b2291e5b200ac8c7c3b92591015b60405180910390a3505050565b6001600160a01b0383166107895760405162461bcd60e51b815260206004820152602560248201527f45524332303a207472616e736665722066726f6d20746865207a65726f206164604482015264647265737360d81b60648201526084016103b1565b6001600160a01b0382166107eb5760405162461bcd60e51b815260206004820152602360248201527f45524332303a207472616e7366657220746f20746865207a65726f206164647260448201526265737360e81b60648201526084016103b1565b6001600160a01b038316600090815260208190526040902054818110156108635760405162461bcd60e51b815260206004820152602660248201527f45524332303a207472616e7366657220616d6f756e7420657863656564732062604482015265616c616e636560d01b60648201526084016103b1565b6001600160a01b0380851660009081526020819052604080822085850390559185168152908120805484929061089a908490610cc6565b92505081905550826001600160a01b0316846001600160a01b03167fddf252ad1be2c89b69c2b068fc378daa952ba7f163c4a11628f55a4df523b3ef846040516108e691815260200190565b60405180910390a350505050565b6001600160a01b03821661094a5760405162461bcd60e51b815260206004820152601f60248201527f45524332303a206d696e7420746f20746865207a65726f20616464726573730060448201526064016103b1565b806002600082825461095c9190610cc6565b90915550506001600160a01b03821660009081526020819052604081208054839290610989908490610cc6565b90915550506040518181526001600160a01b038316906000907fddf252ad1be2c89b69c2b068fc378daa952ba7f163c4a11628f55a4df523b3ef9060200160405180910390a35050565b600580546001600160a01b038381166001600160a01b0319831681179093556040519116919082907f8be0079c531659141344cd1fd0a4f28419497f9722a3daafe3b4186f6b6457e090600090a35050565b6001600160a01b038216610a855760405162461bcd60e51b815260206004820152602160248201527f45524332303a206275726e2066726f6d20746865207a65726f206164647265736044820152607360f81b60648201526084016103b1565b6001600160a01b03821660009081526020819052604090205481811015610af95760405162461bcd60e51b815260206004820152602260248201527f45524332303a206275726e20616d6f756e7420657863656564732062616c616e604482015261636560f01b60648201526084016103b1565b6001600160a01b0383166000908152602081905260408120838303905560028054849290610b28908490610cde565b90915550506040518281526000906001600160a01b038516907fddf252ad1be2c89b69c2b068fc378daa952ba7f163c4a11628f55a4df523b3ef90602001610718565b80356001600160a01b0381168114610b8257600080fd5b919050565b600060208284031215610b98578081fd5b610ba182610b6b565b9392505050565b60008060408385031215610bba578081fd5b610bc383610b6b565b9150610bd160208401610b6b565b90509250929050565b600080600060608486031215610bee578081fd5b610bf784610b6b565b9250610c0560208501610b6b565b9150604084013590509250925092565b60008060408385031215610c27578182fd5b610c3083610b6b565b946020939093013593505050565b6000602080835283518082850152825b81811015610c6a57858101830151858201604001528201610c4e565b81811115610c7b5783604083870101525b50601f01601f1916929092016040019392505050565b6020808252818101527f4f776e61626c653a2063616c6c6572206973206e6f7420746865206f776e6572604082015260600190565b60008219821115610cd957610cd9610d30565b500190565b600082821015610cf057610cf0610d30565b500390565b600181811c90821680610d0957607f821691505b60208210811415610d2a57634e487b7160e01b600052602260045260246000fd5b50919050565b634e487b7160e01b600052601160045260246000fdfea26469706673582212205b6799890ed169949239ccd2d02483277659e3067c272e21c25740018e18181d64736f6c6343000804003324e583e35a20f9ecfc1572e7cb66bcc18ad3cd1650ec40dbf6ad2290e553a9fae6026b923a18d83f4b6e92786fdd85dc8e02e7647281b0d8831236806acf2a30a26469706673582212204989bcb9afdfe1a26901a8e0811d56f6166f4c2d85756559d1431aca0014535064736f6c6343000804003324e583e35a20f9ecfc1572e7cb66bcc18ad3cd1650ec40dbf6ad2290e553a9fa",
  "linkReferences": {},
  "deployedLinkReferences": {}
}