{
  "_format": "hh-sol-artifact-1",
  "contractName": "MarginLong",
  "sourceName": "contracts/MarginLong/MarginLong.sol",
  "abi": [
    {
      "inputs": [
        {
          "internalType": "contract LPool",
          "name": "pool_",
          "type": "address"
        },
        {
          "internalType": "contract IOracle",
          "name": "oracle_",
          "type": "address"
        },
        {
          "internalType": "uint256",
          "name": "minMarginLevelPercentNumerator_",
          "type": "uint256"
        },
        {
          "internalType": "uint256",
          "name": "minMarginLevelPercentDenominator_",
          "type": "uint256"
        },
        {
          "internalType": "uint256",
          "name": "minCollateralPrice_",
          "type": "uint256"
        },
        {
          "internalType": "uint256",
          "name": "maxLeverage_",
          "type": "uint256"
        },
        {
          "internalType": "uint256",
          "name": "liquidationFeePercentNumerator_",
          "type": "uint256"
        },
        {
          "internalType": "uint256",
          "name": "liquidationFeePercentDenominator_",
          "type": "uint256"
        }
      ],
      "stateMutability": "nonpayable",
      "type": "constructor"
    },
    {
      "anonymous": false,
      "inputs": [
        {
          "indexed": true,
          "internalType": "address",
          "name": "account",
          "type": "address"
        },
        {
          "indexed": false,
          "internalType": "contract IERC20",
          "name": "collateral",
          "type": "address"
        },
        {
          "indexed": false,
          "internalType": "uint256",
          "name": "amount",
          "type": "uint256"
        }
      ],
      "name": "AddCollateral",
      "type": "event"
    },
    {
      "anonymous": false,
      "inputs": [
        {
          "indexed": true,
          "internalType": "address",
          "name": "account",
          "type": "address"
        },
        {
          "indexed": false,
          "internalType": "contract IERC20",
          "name": "borrowed",
          "type": "address"
        },
        {
          "indexed": false,
          "internalType": "uint256",
          "name": "amount",
          "type": "uint256"
        }
      ],
      "name": "Borrow",
      "type": "event"
    },
    {
      "anonymous": false,
      "inputs": [
        {
          "indexed": true,
          "internalType": "address",
          "name": "account",
          "type": "address"
        },
        {
          "indexed": false,
          "internalType": "address",
          "name": "liquidator",
          "type": "address"
        }
      ],
      "name": "Liquidated",
      "type": "event"
    },
    {
      "anonymous": false,
      "inputs": [
        {
          "indexed": true,
          "internalType": "address",
          "name": "previousOwner",
          "type": "address"
        },
        {
          "indexed": true,
          "internalType": "address",
          "name": "newOwner",
          "type": "address"
        }
      ],
      "name": "OwnershipTransferred",
      "type": "event"
    },
    {
      "anonymous": false,
      "inputs": [
        {
          "indexed": true,
          "internalType": "address",
          "name": "account",
          "type": "address"
        },
        {
          "indexed": false,
          "internalType": "contract IERC20",
          "name": "collateral",
          "type": "address"
        },
        {
          "indexed": false,
          "internalType": "uint256",
          "name": "amount",
          "type": "uint256"
        }
      ],
      "name": "RemoveCollateral",
      "type": "event"
    },
    {
      "anonymous": false,
      "inputs": [
        {
          "indexed": true,
          "internalType": "address",
          "name": "account",
          "type": "address"
        },
        {
          "indexed": false,
          "internalType": "contract IERC20",
          "name": "borrowed",
          "type": "address"
        }
      ],
      "name": "Repay",
      "type": "event"
    },
    {
      "anonymous": false,
      "inputs": [
        {
          "indexed": true,
          "internalType": "address",
          "name": "account",
          "type": "address"
        }
      ],
      "name": "RepayAll",
      "type": "event"
    },
    {
      "anonymous": false,
      "inputs": [
        {
          "indexed": true,
          "internalType": "address",
          "name": "account",
          "type": "address"
        },
        {
          "indexed": false,
          "internalType": "address",
          "name": "resetter",
          "type": "address"
        }
      ],
      "name": "Reset",
      "type": "event"
    },
    {
      "inputs": [
        {
          "internalType": "contract IERC20",
          "name": "collateral_",
          "type": "address"
        },
        {
          "internalType": "uint256",
          "name": "amount_",
          "type": "uint256"
        }
      ],
      "name": "addCollateral",
      "outputs": [],
      "stateMutability": "nonpayable",
      "type": "function"
    },
    {
      "inputs": [
        {
          "internalType": "contract IERC20",
          "name": "borrowed_",
          "type": "address"
        },
        {
          "internalType": "uint256",
          "name": "amount_",
          "type": "uint256"
        }
      ],
      "name": "borrow",
      "outputs": [],
      "stateMutability": "nonpayable",
      "type": "function"
    },
    {
      "inputs": [
        {
          "internalType": "contract IERC20",
          "name": "borrowed_",
          "type": "address"
        },
        {
          "internalType": "address",
          "name": "account_",
          "type": "address"
        }
      ],
      "name": "borrowed",
      "outputs": [
        {
          "internalType": "uint256",
          "name": "",
          "type": "uint256"
        }
      ],
      "stateMutability": "view",
      "type": "function"
    },
    {
      "inputs": [
        {
          "internalType": "address",
          "name": "account_",
          "type": "address"
        }
      ],
      "name": "borrowedPrice",
      "outputs": [
        {
          "internalType": "uint256",
          "name": "",
          "type": "uint256"
        }
      ],
      "stateMutability": "view",
      "type": "function"
    },
    {
      "inputs": [
        {
          "internalType": "contract IERC20",
          "name": "collateral_",
          "type": "address"
        },
        {
          "internalType": "address",
          "name": "account_",
          "type": "address"
        }
      ],
      "name": "collateral",
      "outputs": [
        {
          "internalType": "uint256",
          "name": "",
          "type": "uint256"
        }
      ],
      "stateMutability": "view",
      "type": "function"
    },
    {
      "inputs": [
        {
          "internalType": "address",
          "name": "account_",
          "type": "address"
        }
      ],
      "name": "collateralPrice",
      "outputs": [
        {
          "internalType": "uint256",
          "name": "",
          "type": "uint256"
        }
      ],
      "stateMutability": "view",
      "type": "function"
    },
    {
      "inputs": [],
      "name": "getBorrowingAccounts",
      "outputs": [
        {
          "internalType": "address[]",
          "name": "",
          "type": "address[]"
        }
      ],
      "stateMutability": "view",
      "type": "function"
    },
    {
      "inputs": [
        {
          "internalType": "contract IERC20",
          "name": "borrowed_",
          "type": "address"
        },
        {
          "internalType": "address",
          "name": "account_",
          "type": "address"
        }
      ],
      "name": "initialBorrowBlock",
      "outputs": [
        {
          "internalType": "uint256",
          "name": "",
          "type": "uint256"
        }
      ],
      "stateMutability": "view",
      "type": "function"
    },
    {
      "inputs": [
        {
          "internalType": "contract IERC20",
          "name": "borrowed_",
          "type": "address"
        },
        {
          "internalType": "address",
          "name": "account_",
          "type": "address"
        }
      ],
      "name": "initialBorrowPrice",
      "outputs": [
        {
          "internalType": "uint256",
          "name": "",
          "type": "uint256"
        }
      ],
      "stateMutability": "view",
      "type": "function"
    },
    {
      "inputs": [
        {
          "internalType": "address",
          "name": "account_",
          "type": "address"
        }
      ],
      "name": "initialBorrowPrice",
      "outputs": [
        {
          "internalType": "uint256",
          "name": "",
          "type": "uint256"
        }
      ],
      "stateMutability": "view",
      "type": "function"
    },
    {
      "inputs": [
        {
          "internalType": "address",
          "name": "account_",
          "type": "address"
        }
      ],
      "name": "interest",
      "outputs": [
        {
          "internalType": "uint256",
          "name": "",
          "type": "uint256"
        }
      ],
      "stateMutability": "view",
      "type": "function"
    },
    {
      "inputs": [
        {
          "internalType": "contract IERC20",
          "name": "borrowed_",
          "type": "address"
        },
        {
          "internalType": "address",
          "name": "account_",
          "type": "address"
        }
      ],
      "name": "interest",
      "outputs": [
        {
          "internalType": "uint256",
          "name": "",
          "type": "uint256"
        }
      ],
      "stateMutability": "view",
      "type": "function"
    },
    {
      "inputs": [
        {
          "internalType": "contract IERC20",
          "name": "token_",
          "type": "address"
        }
      ],
      "name": "isApprovedBorrowed",
      "outputs": [
        {
          "internalType": "bool",
          "name": "",
          "type": "bool"
        }
      ],
      "stateMutability": "view",
      "type": "function"
    },
    {
      "inputs": [
        {
          "internalType": "contract IERC20",
          "name": "token_",
          "type": "address"
        }
      ],
      "name": "isApprovedCollateral",
      "outputs": [
        {
          "internalType": "bool",
          "name": "",
          "type": "bool"
        }
      ],
      "stateMutability": "view",
      "type": "function"
    },
    {
      "inputs": [
        {
          "internalType": "contract IERC20",
          "name": "borrowed_",
          "type": "address"
        },
        {
          "internalType": "address",
          "name": "account_",
          "type": "address"
        }
      ],
      "name": "isBorrowing",
      "outputs": [
        {
          "internalType": "bool",
          "name": "",
          "type": "bool"
        }
      ],
      "stateMutability": "view",
      "type": "function"
    },
    {
      "inputs": [
        {
          "internalType": "address",
          "name": "account_",
          "type": "address"
        }
      ],
      "name": "isBorrowing",
      "outputs": [
        {
          "internalType": "bool",
          "name": "",
          "type": "bool"
        }
      ],
      "stateMutability": "view",
      "type": "function"
    },
    {
      "inputs": [
        {
          "internalType": "address",
          "name": "account_",
          "type": "address"
        }
      ],
      "name": "liquidatable",
      "outputs": [
        {
          "internalType": "bool",
          "name": "",
          "type": "bool"
        }
      ],
      "stateMutability": "view",
      "type": "function"
    },
    {
      "inputs": [
        {
          "internalType": "address",
          "name": "account_",
          "type": "address"
        }
      ],
      "name": "liquidateAccount",
      "outputs": [
        {
          "internalType": "contract IERC20[]",
          "name": "",
          "type": "address[]"
        },
        {
          "internalType": "uint256[]",
          "name": "",
          "type": "uint256[]"
        }
      ],
      "stateMutability": "nonpayable",
      "type": "function"
    },
    {
      "inputs": [],
      "name": "liquidationFeePercent",
      "outputs": [
        {
          "internalType": "uint256",
          "name": "",
          "type": "uint256"
        },
        {
          "internalType": "uint256",
          "name": "",
          "type": "uint256"
        }
      ],
      "stateMutability": "view",
      "type": "function"
    },
    {
      "inputs": [
        {
          "internalType": "address",
          "name": "account_",
          "type": "address"
        }
      ],
      "name": "marginLevel",
      "outputs": [
        {
          "internalType": "uint256",
          "name": "",
          "type": "uint256"
        },
        {
          "internalType": "uint256",
          "name": "",
          "type": "uint256"
        }
      ],
      "stateMutability": "view",
      "type": "function"
    },
    {
      "inputs": [],
      "name": "maxLeverage",
      "outputs": [
        {
          "internalType": "uint256",
          "name": "",
          "type": "uint256"
        }
      ],
      "stateMutability": "view",
      "type": "function"
    },
    {
      "inputs": [
        {
          "internalType": "address",
          "name": "account_",
          "type": "address"
        }
      ],
      "name": "maxLeverageReached",
      "outputs": [
        {
          "internalType": "bool",
          "name": "",
          "type": "bool"
        }
      ],
      "stateMutability": "view",
      "type": "function"
    },
    {
      "inputs": [],
      "name": "minCollateralPrice",
      "outputs": [
        {
          "internalType": "uint256",
          "name": "",
          "type": "uint256"
        }
      ],
      "stateMutability": "view",
      "type": "function"
    },
    {
      "inputs": [],
      "name": "minMarginLevel",
      "outputs": [
        {
          "internalType": "uint256",
          "name": "",
          "type": "uint256"
        },
        {
          "internalType": "uint256",
          "name": "",
          "type": "uint256"
        }
      ],
      "stateMutability": "view",
      "type": "function"
    },
    {
      "inputs": [],
      "name": "oracle",
      "outputs": [
        {
          "internalType": "contract IOracle",
          "name": "",
          "type": "address"
        }
      ],
      "stateMutability": "view",
      "type": "function"
    },
    {
      "inputs": [],
      "name": "owner",
      "outputs": [
        {
          "internalType": "address",
          "name": "",
          "type": "address"
        }
      ],
      "stateMutability": "view",
      "type": "function"
    },
    {
      "inputs": [],
      "name": "pool",
      "outputs": [
        {
          "internalType": "contract LPool",
          "name": "",
          "type": "address"
        }
      ],
      "stateMutability": "view",
      "type": "function"
    },
    {
      "inputs": [
        {
          "internalType": "contract IERC20",
          "name": "collateral_",
          "type": "address"
        },
        {
          "internalType": "uint256",
          "name": "amount_",
          "type": "uint256"
        }
      ],
      "name": "removeCollateral",
      "outputs": [],
      "stateMutability": "nonpayable",
      "type": "function"
    },
    {
      "inputs": [],
      "name": "renounceOwnership",
      "outputs": [],
      "stateMutability": "nonpayable",
      "type": "function"
    },
    {
      "inputs": [
        {
          "internalType": "contract IERC20",
          "name": "borrowed_",
          "type": "address"
        }
      ],
      "name": "repayAccount",
      "outputs": [],
      "stateMutability": "nonpayable",
      "type": "function"
    },
    {
      "inputs": [],
      "name": "repayAccountAll",
      "outputs": [],
      "stateMutability": "nonpayable",
      "type": "function"
    },
    {
      "inputs": [
        {
          "internalType": "address",
          "name": "account_",
          "type": "address"
        }
      ],
      "name": "resetAccount",
      "outputs": [
        {
          "internalType": "contract IERC20[]",
          "name": "",
          "type": "address[]"
        },
        {
          "internalType": "uint256[]",
          "name": "",
          "type": "uint256[]"
        }
      ],
      "stateMutability": "nonpayable",
      "type": "function"
    },
    {
      "inputs": [
        {
          "internalType": "address",
          "name": "account_",
          "type": "address"
        }
      ],
      "name": "resettable",
      "outputs": [
        {
          "internalType": "bool",
          "name": "",
          "type": "bool"
        }
      ],
      "stateMutability": "view",
      "type": "function"
    },
    {
      "inputs": [
        {
          "internalType": "contract IERC20[]",
          "name": "token_",
          "type": "address[]"
        },
        {
          "internalType": "bool[]",
          "name": "approved_",
          "type": "bool[]"
        }
      ],
      "name": "setApprovedBorrowed",
      "outputs": [],
      "stateMutability": "nonpayable",
      "type": "function"
    },
    {
      "inputs": [
        {
          "internalType": "contract IERC20[]",
          "name": "token_",
          "type": "address[]"
        },
        {
          "internalType": "bool[]",
          "name": "approved_",
          "type": "bool[]"
        }
      ],
      "name": "setApprovedCollateral",
      "outputs": [],
      "stateMutability": "nonpayable",
      "type": "function"
    },
    {
      "inputs": [
        {
          "internalType": "uint256",
          "name": "liquidationFeePercentNumerator_",
          "type": "uint256"
        },
        {
          "internalType": "uint256",
          "name": "liquidationFeePercentDenominator_",
          "type": "uint256"
        }
      ],
      "name": "setLiquidationFeePercent",
      "outputs": [],
      "stateMutability": "nonpayable",
      "type": "function"
    },
    {
      "inputs": [
        {
          "internalType": "uint256",
          "name": "maxLeverage_",
          "type": "uint256"
        }
      ],
      "name": "setMaxLeverage",
      "outputs": [],
      "stateMutability": "nonpayable",
      "type": "function"
    },
    {
      "inputs": [
        {
          "internalType": "uint256",
          "name": "minCollateralPrice_",
          "type": "uint256"
        }
      ],
      "name": "setMinCollateralPrice",
      "outputs": [],
      "stateMutability": "nonpayable",
      "type": "function"
    },
    {
      "inputs": [
        {
          "internalType": "uint256",
          "name": "minMarginLevelNumerator_",
          "type": "uint256"
        },
        {
          "internalType": "uint256",
          "name": "minMarginLevelDenominator_",
          "type": "uint256"
        }
      ],
      "name": "setMinMarginLevel",
      "outputs": [],
      "stateMutability": "nonpayable",
      "type": "function"
    },
    {
      "inputs": [
        {
          "internalType": "contract IOracle",
          "name": "oracle_",
          "type": "address"
        }
      ],
      "name": "setOracle",
      "outputs": [],
      "stateMutability": "nonpayable",
      "type": "function"
    },
    {
      "inputs": [
        {
          "internalType": "contract LPool",
          "name": "pool_",
          "type": "address"
        }
      ],
      "name": "setPool",
      "outputs": [],
      "stateMutability": "nonpayable",
      "type": "function"
    },
    {
      "inputs": [
        {
          "internalType": "address",
          "name": "account_",
          "type": "address"
        }
      ],
      "name": "sufficientCollateralPrice",
      "outputs": [
        {
          "internalType": "bool",
          "name": "",
          "type": "bool"
        }
      ],
      "stateMutability": "view",
      "type": "function"
    },
    {
      "inputs": [
        {
          "internalType": "contract IERC20",
          "name": "borrowed_",
          "type": "address"
        }
      ],
      "name": "totalBorrowed",
      "outputs": [
        {
          "internalType": "uint256",
          "name": "",
          "type": "uint256"
        }
      ],
      "stateMutability": "view",
      "type": "function"
    },
    {
      "inputs": [
        {
          "internalType": "contract IERC20",
          "name": "collateral_",
          "type": "address"
        }
      ],
      "name": "totalCollateral",
      "outputs": [
        {
          "internalType": "uint256",
          "name": "",
          "type": "uint256"
        }
      ],
      "stateMutability": "view",
      "type": "function"
    },
    {
      "inputs": [
        {
          "internalType": "address",
          "name": "newOwner",
          "type": "address"
        }
      ],
      "name": "transferOwnership",
      "outputs": [],
      "stateMutability": "nonpayable",
      "type": "function"
    }
  ],
  "bytecode": "0x60806040523480156200001157600080fd5b5060405162003901380380620039018339810160408190526200003491620000ed565b8181858589898d8d62000047336200009d565b600180546001600160a01b039384166001600160a01b03199182161790915560028054929093169116179055600891909155600955600a91909155600b55600e91909155600f55506200017b9650505050505050565b600080546001600160a01b038381166001600160a01b0319831681178455604051919092169283917f8be0079c531659141344cd1fd0a4f28419497f9722a3daafe3b4186f6b6457e09190a35050565b600080600080600080600080610100898b0312156200010a578384fd5b8851620001178162000162565b60208a01519098506200012a8162000162565b60408a015160608b015160808c015160a08d015160c08e015160e0909e01519c9f949e50929c919b909a509198509650945092505050565b6001600160a01b03811681146200017857600080fd5b50565b613776806200018b6000396000f3fe608060405234801561001057600080fd5b506004361061027f5760003560e01c80637e059b221161015c578063b4929721116100ce578063d8459b4511610087578063d8459b45146105fd578063e2e1ca2b14610610578063e880f13914610639578063f2fde38b14610665578063f5af8d1114610678578063ffec70af1461068b57600080fd5b8063b492972114610596578063b64c74041461059e578063ca3134f6146105b1578063cc218ece146105c4578063d3127e63146105d7578063d3eec404146105ea57600080fd5b80638da5cb5b116101205780638da5cb5b14610530578063916b6c5b14610541578063a4c2c9c514610554578063ac436bdf14610567578063ae3302c21461057a578063b0a02abe1461058357600080fd5b80637e059b22146104b75780637e773d01146104e0578063813c2302146104e9578063876467f8146104fc5780638ac5d4a31461050f57600080fd5b80634eb72012116101f55780636fc2d3c6116101b95780636fc2d3c614610428578063706f1ada1461043b578063715018a61461044e5780637adbf973146104565780637c9ff9eb146104695780637dc0d1d0146104a457600080fd5b80634eb720121461039b57806350711be9146103a657806366dad8f4146103d45780636847e50b146104005780636d75b9ee1461041557600080fd5b8063172fc1f211610247578063172fc1f21461032057806325b69c0c146103335780632becebd21461034f5780632dbaacdc146103625780634437152a146103755780634b8a35291461038857600080fd5b806303f5aaad1461028457806308b1cb23146102ac5780630f9b628e146102cd57806314ace5bb146102e257806316f0115b146102f5575b600080fd5b6102976102923660046133d3565b61069e565b60405190151581526020015b60405180910390f35b6102bf6102ba3660046132d8565b6106b5565b6040519081526020016102a3565b6102e06102db366004613466565b610715565b005b6102e06102f0366004613466565b610753565b600154610308906001600160a01b031681565b6040516001600160a01b0390911681526020016102a3565b61029761032e3660046132d8565b610788565b6008546009545b604080519283526020830191909152016102a3565b61029761035d3660046132d8565b61079e565b6102976103703660046132d8565b6107d8565b6102e06103833660046132d8565b61081c565b6102e061039636600461340b565b610868565b600e54600f5461033a565b6102976103b43660046132d8565b6001600160a01b0316600090815260076020526040902060080154151590565b6102976103e23660046132d8565b6001600160a01b031660009081526003602052604090205460ff1690565b610408610bae565b6040516102a391906134bc565b6102e061042336600461340b565b610bbf565b6102e06104363660046132f4565b610cc9565b6102bf6104493660046133d3565b610d94565b6102e0610dc4565b6102e06104643660046132d8565b610dfa565b6102bf6104773660046133d3565b6001600160a01b039081166000908152600760208181526040808420959094168352930190925290205490565b600254610308906001600160a01b031681565b6102bf6104c53660046132d8565b6001600160a01b031660009081526006602052604090205490565b6102bf600a5481565b61033a6104f73660046132d8565b610e46565b6102e061050a36600461340b565b610e8d565b61052261051d3660046132d8565b611014565b6040516102a3929190613509565b6000546001600160a01b0316610308565b6102e061054f3660046132d8565b6111c1565b6102e06105623660046132f4565b611307565b6102bf6105753660046132d8565b6113cd565b6102bf600b5481565b6102bf6105913660046133d3565b611430565b6102e0611460565b6102bf6105ac3660046132d8565b61151b565b6105226105bf3660046132d8565b61157e565b6102bf6105d23660046133d3565b611693565b6102e06105e5366004613436565b6116c3565b6102e06105f8366004613436565b6116f2565b6102bf61060b3660046132d8565b611721565b6102bf61061e3660046132d8565b6001600160a01b031660009081526005602052604090205490565b6102976106473660046132d8565b6001600160a01b031660009081526004602052604090205460ff1690565b6102e06106733660046132d8565b611775565b6102bf6106863660046133d3565b611810565b6102976106993660046132d8565b611915565b6000806106ab8484611430565b1190505b92915050565b6001600160a01b038116600090815260076020526040812081805b600183015481101561070d576106f96106f26106ec858461197f565b876119c0565b8390611a53565b915080610705816136d6565b9150506106d0565b509392505050565b6000546001600160a01b031633146107485760405162461bcd60e51b815260040161073f906135b2565b60405180910390fd5b600891909155600955565b6000546001600160a01b0316331461077d5760405162461bcd60e51b815260040161073f906135b2565b600e91909155600f55565b6000600a54610796836106b5565b101592915050565b6000806107aa836106b5565b905060006107b78461151b565b9050806107cf600b5484611a5f90919063ffffffff16565b11949350505050565b6001600160a01b038116600090815260076020526040812060080154151580156106af57506108068261079e565b806106af575061081582610788565b1592915050565b6000546001600160a01b031633146108465760405162461bcd60e51b815260040161073f906135b2565b600180546001600160a01b0319166001600160a01b0392909216919091179055565b8161088b816001600160a01b031660009081526004602052604090205460ff1690565b6108fd5760405162461bcd60e51b815260206004820152603960248201527f4d617267696e417070726f7665643a204f6e6c7920617070726f76656420626f60448201527f72726f77656420746f6b656e73206d6179206265207573656400000000000000606482015260840161073f565b61090633610788565b6109785760405162461bcd60e51b815260206004820152603b60248201527f4d617267696e4c6f6e67426f72726f773a20496e73756666696369656e74206360448201527f6f6c6c61746572616c20746f20626f72726f7720616761696e73740000000000606482015260840161073f565b610982833361069e565b6109b7573360009081526007602081815260408084206001600160a01b0388168552909201905290204390556109b733611a6b565b600154604051635569f64b60e11b81526001600160a01b039091169063aad3ec96906109e990869086906004016134a3565b600060405180830381600087803b158015610a0357600080fd5b505af1158015610a17573d6000803e3d6000fd5b50505050610a3a83610a3484610a2e876105913390565b90611a53565b33611a76565b60025460405163b1d5e1b960e01b81526000916001600160a01b03169063b1d5e1b990610a6d90879087906004016134a3565b60206040518083038186803b158015610a8557600080fd5b505afa158015610a99573d6000803e3d6000fd5b505050506040513d601f19601f82011682018060405250810190610abd919061344e565b9050610ad784610ad183610a2e8333610d94565b33611bab565b610ae03361079e565b158015610af35750610af133611915565b155b610b655760405162461bcd60e51b815260206004820152603f60248201527f4d617267696e4c6f6e67426f72726f773a20426f72726f77696e67206465736960448201527f72656420616d6f756e742070757473206163636f756e74206174207269736b00606482015260840161073f565b336001600160a01b03167f312a5e5e1079f5dda4e95dbbd0b908b291fd5b992ef22073643ab691572c5b528585604051610ba09291906134a3565b60405180910390a250505050565b6060610bba600c611bdb565b905090565b81610be2816001600160a01b031660009081526003602052604090205460ff1690565b610c545760405162461bcd60e51b815260206004820152603b60248201527f4d617267696e417070726f7665643a204f6e6c7920617070726f76656420636f60448201527f6c6c61746572616c20746f6b656e73206d617920626520757365640000000000606482015260840161073f565b610c696001600160a01b038416333085611c41565b610c8183610c7b84610a2e8333611693565b33611cb2565b336001600160a01b03167fa32435755c235de2976ed44a75a2f85cb01faf0c894f639fe0c32bb9455fea8f8484604051610cbc9291906134a3565b60405180910390a2505050565b6000546001600160a01b03163314610cf35760405162461bcd60e51b815260040161073f906135b2565b60005b8251811015610d8f57818181518110610d1f57634e487b7160e01b600052603260045260246000fd5b602002602001015160036000858481518110610d4b57634e487b7160e01b600052603260045260246000fd5b6020908102919091018101516001600160a01b03168252810191909152604001600020805460ff191691151591909117905580610d87816136d6565b915050610cf6565b505050565b6001600160a01b038082166000908152600760209081526040808320938616835260069093019052205492915050565b6000546001600160a01b03163314610dee5760405162461bcd60e51b815260040161073f906135b2565b610df86000611dad565b565b6000546001600160a01b03163314610e245760405162461bcd60e51b815260040161073f906135b2565b600280546001600160a01b0319166001600160a01b0392909216919091179055565b6000806000610e548461151b565b90506000610e61856113cd565b9050610e78610e6f866106b5565b610a2e87611721565b610e828383611a53565b935093505050915091565b6000610e998333611693565b905080821115610f115760405162461bcd60e51b815260206004820152603e60248201527f4d617267696e436f6c6c61746572616c3a2043616e6e6f742072656d6f76652060448201527f6d6f7265207468616e20617661696c61626c6520636f6c6c61746572616c0000606482015260840161073f565b610f2983610c7b84610f238333611693565b90611dfd565b610f32336107d8565b158015610f455750610f4333611915565b155b610fc55760405162461bcd60e51b815260206004820152604560248201527f4d617267696e436f6c6c61746572616c3a205769746864726177696e6720646560448201527f736972656420636f6c6c61746572616c2070757473206163636f756e74206174606482015264207269736b60d81b608482015260a40161073f565b610fd96001600160a01b0384163384611e09565b336001600160a01b03167f367be65505e5aff90e7e646744b5f75280ec6d79a0e78690f6020b875a03bc128484604051610cbc9291906134a3565b60608061102083611915565b61108b5760405162461bcd60e51b815260206004820152603660248201527f4d617267696e4c6f6e674c69717569646174653a2054686973206163636f756e6044820152751d0818d85b9b9bdd081899481b1a5c5d5a59185d195960521b606482015260840161073f565b6000611096846106b5565b90506000806110a8600e54600f549091565b909250905060006110c3826110bd8686611a5f565b90611e28565b90506000806110d2838a611e34565b9150915060005b82518110156111615761114f335b83838151811061110757634e487b7160e01b600052603260045260246000fd5b602002602001015185848151811061112f57634e487b7160e01b600052603260045260246000fd5b60200260200101516001600160a01b0316611e099092919063ffffffff16565b80611159816136d6565b9150506110d9565b5061116b89611e62565b6001600160a01b0389167facd74f5a0eb0d086de0eebe2d1e70d5742838c88cb2cf492fc201d39e056f7e0335b6040516001600160a01b03909116815260200160405180910390a2909890975095505050505050565b6111cb813361069e565b61123f576040805162461bcd60e51b81526020600482015260248101919091527f4d617267696e4c6f6e6752657061793a2043616e6e6f7420726570617920616360448201527f636f756e742077697468206e6f206c657665726167656420706f736974696f6e606482015260840161073f565b6112498133611e74565b611252336107d8565b156112c55760405162461bcd60e51b815260206004820152603760248201527f4d617267696e4c6f6e6752657061793a205265706179696e6720706f7369746960448201527f6f6e2070757473206163636f756e74206174207269736b000000000000000000606482015260840161073f565b604080516001600160a01b0383168152905133917f7d361c02aa3e26ac9383eca42a9b4f42433e252882bfb806e8b76869b815250f919081900360200190a250565b6000546001600160a01b031633146113315760405162461bcd60e51b815260040161073f906135b2565b60005b8251811015610d8f5781818151811061135d57634e487b7160e01b600052603260045260246000fd5b60200260200101516004600085848151811061138957634e487b7160e01b600052603260045260246000fd5b6020908102919091018101516001600160a01b03168252810191909152604001600020805460ff1916911515919091179055806113c5816136d6565b915050611334565b6000806113d983611ec9565b90506000805b825181101561070d5761141c6106f284838151811061140e57634e487b7160e01b600052603260045260246000fd5b602002602001015187611810565b915080611428816136d6565b9150506113df565b6001600160a01b038082166000908152600760209081526040808320938616835260059093019052205492915050565b611469336103b4565b6114e55760405162461bcd60e51b815260206004820152604160248201527f4d617267696e4c6f6e6752657061793a2043616e6e6f7420726570617920616360448201527f636f756e742077697468206e6f206c657665726167656420706f736974696f6e6064820152607360f81b608482015260a40161073f565b6114ee33611ef0565b60405133907f2a5e2bc4fa361e17232a0638ac48c9dd4aed21e3241a5bac60bb30f4d505344690600090a2565b60008061152783611ec9565b90506000805b825181101561070d5761156a6106f284838151811061155c57634e487b7160e01b600052603260045260246000fd5b602002602001015187610d94565b915080611576816136d6565b91505061152d565b60608061158a836107d8565b6115ec5760405162461bcd60e51b815260206004820152602d60248201527f4d617267696e4c6f6e6752657061793a2054686973206163636f756e7420636160448201526c1b9b9bdd081899481c995cd95d609a1b606482015260840161073f565b6115f583611ef0565b6000611600846106b5565b9050600080611612600e54600f549091565b90925090506000611627826110bd8686611a5f565b90506000806116368333611e34565b9150915060005b82518110156116615761164f336110e7565b80611659816136d6565b91505061163d565b506001600160a01b0389167fa5df7b378f5dbf7c276ac35d5314c533b2fa1d772a893f471c41481862ec93db33611198565b6001600160a01b038082166000908152600760209081526040808320938616835260029093019052205492915050565b6000546001600160a01b031633146116ed5760405162461bcd60e51b815260040161073f906135b2565b600b55565b6000546001600160a01b0316331461171c5760405162461bcd60e51b815260040161073f906135b2565b600a55565b6001600160a01b038116600090815260076020526040812081805b600483015481101561070d576117616106f261175b600386018461197f565b87611f0b565b91508061176d816136d6565b91505061173c565b6000546001600160a01b0316331461179f5760405162461bcd60e51b815260040161073f906135b2565b6001600160a01b0381166118045760405162461bcd60e51b815260206004820152602660248201527f4f776e61626c653a206e6577206f776e657220697320746865207a65726f206160448201526564647265737360d01b606482015260840161073f565b61180d81611dad565b50565b60008061181d8484611f0b565b9050600061182b8585610d94565b905060008183111561183e575081611841565b50805b6001546001600160a01b031663d0b9622c8783611886828a6001600160a01b039081166000908152600760208181526040808420959094168352930190925290205490565b6040516001600160e01b031960e086901b1681526001600160a01b039093166004840152602483019190915260448201526064015b60206040518083038186803b1580156118d357600080fd5b505afa1580156118e7573d6000803e3d6000fd5b505050506040513d601f19601f8201168201806040525081019061190b919061344e565b9695505050505050565b6001600160a01b03811660009081526007602052604081206008015461193d57506000919050565b60008061194984610e46565b600854919350915060009061195e9083611a5f565b600954909150600090611972908590611a5f565b9091101595945050505050565b60008260010182815481106119a457634e487b7160e01b600052603260045260246000fd5b6000918252602090912001546001600160a01b03169392505050565b6002546000906001600160a01b031663b1d5e1b9846119df8186611693565b6040518363ffffffff1660e01b81526004016119fc9291906134a3565b60206040518083038186803b158015611a1457600080fd5b505afa158015611a28573d6000803e3d6000fd5b505050506040513d601f19601f82011682018060405250810190611a4c919061344e565b9392505050565b6000611a4c828461363c565b6000611a4c8284613674565b61180d600c82611f2a565b6001600160a01b038082166000908152600760209081526040808320938716835260058401909152902054158015611aad57508215155b15611ac457611abf6003820185611ff0565b611afd565b6001600160a01b038416600090815260058201602052604090205415801590611aeb575082155b15611afd57611afd600382018561205a565b6001600160a01b0384166000908152600580830160209081526040808420549290915290912054611b56918691611b3a918791610a2e9190610f23565b6001600160a01b03909116600090815260056020526040902055565b6001600160a01b03841660009081526005820160205260409020546008820154611b85918591610a2e91611dfd565b60088201556001600160a01b039093166000908152600590930160205250604090912055565b6001600160a01b039081166000908152600760209081526040808320959093168252600690940190935290912055565b606081600101805480602002602001604051908101604052809291908181526020018280548015611c3557602002820191906000526020600020905b81546001600160a01b03168152600190910190602001808311611c17575b50505050509050919050565b6040516001600160a01b0380851660248301528316604482015260648101829052611cac9085906323b872dd60e01b906084015b60408051601f198184030181529190526020810180516001600160e01b03166001600160e01b0319909316929092179091526121d0565b50505050565b6001600160a01b038082166000908152600760209081526040808320938716835260028401909152902054158015611ce957508215155b15611cfd57611cf88185611ff0565b611d33565b6001600160a01b038416600090815260028201602052604090205415801590611d24575082155b15611d3357611d33818561205a565b6001600160a01b0384166000908152600282016020908152604080832054600690925290912054611d8c918691611d70918791610a2e9190610f23565b6001600160a01b03909116600090815260066020526040902055565b6001600160a01b039093166000908152600290930160205250604090912055565b600080546001600160a01b038381166001600160a01b0319831681178455604051919092169283917f8be0079c531659141344cd1fd0a4f28419497f9722a3daafe3b4186f6b6457e09190a35050565b6000611a4c8284613693565b610d8f8363a9059cbb60e01b8484604051602401611c759291906134a3565b6000611a4c8284613654565b6060806000611e42846122a2565b905060606000611e5587878585856122c6565b5091969095509350505050565b611e6b81612500565b61180d8161265a565b611e7e82826126f5565b15611e9257611e8d8282612736565b611e9c565b611e9c8282612844565b6001600160a01b038116600090815260076020526040902060080154611ec557611ec581612958565b5050565b6001600160a01b03811660009081526007602052604090206060906106af90600301611bdb565b611ef981612963565b611f02816129f5565b61180d81612958565b6002546000906001600160a01b031663b1d5e1b9846119df8186611430565b611f348282612bf8565b15611f985760405162461bcd60e51b815260206004820152602e60248201527f416464726573735365743a204164647265737320616c7265616479206578697360448201526d3a399034b7103a34329039b2ba1760911b606482015260840161073f565b6001828101805480830182556000828152602090200180546001600160a01b0319166001600160a01b03851617905554611fd29190613693565b6001600160a01b039091166000908152602092909252604090912055565b611ffa8282612bf8565b15611f985760405162461bcd60e51b815260206004820152602a60248201527f546f6b656e5365743a20546f6b656e20616c726561647920657869737473206960448201526937103a34329039b2ba1760b11b606482015260840161073f565b6120648282612bf8565b6120c35760405162461bcd60e51b815260206004820152602a60248201527f546f6b656e5365743a20546f6b656e20646f6573206e6f74206578697374206960448201526937103a34329039b2ba1760b11b606482015260840161073f565b600182810180546000926120d691613693565b815481106120f457634e487b7160e01b600052603260045260246000fd5b60009182526020808320909101546001600160a01b0385811684529186905260408084205492909116808452922081905560018501805492935090918391908390811061215157634e487b7160e01b600052603260045260246000fd5b600091825260208083209190910180546001600160a01b0319166001600160a01b039485161790559185168152908590526040812055600184018054806121a857634e487b7160e01b600052603160045260246000fd5b600082815260209020810160001990810180546001600160a01b031916905501905550505050565b6000612225826040518060400160405280602081526020017f5361666545524332303a206c6f772d6c6576656c2063616c6c206661696c6564815250856001600160a01b0316612c679092919063ffffffff16565b805190915015610d8f578080602001905181019061224391906133b7565b610d8f5760405162461bcd60e51b815260206004820152602a60248201527f5361666545524332303a204552433230206f7065726174696f6e20646964206e6044820152691bdd081cdd58d8d9595960b21b606482015260840161073f565b6001600160a01b03811660009081526007602052604090206060906106af90611bdb565b60005b6000861180156122d95750835182105b156124f757600061231185848151811061230357634e487b7160e01b600052603260045260246000fd5b602002602001015187611693565b9050600061234686858151811061233857634e487b7160e01b600052603260045260246000fd5b6020026020010151886119c0565b9050878110156123ce578185858151811061237157634e487b7160e01b600052603260045260246000fd5b6020026020010181815250506123b08685815181106123a057634e487b7160e01b600052603260045260246000fd5b6020026020010151600089611cb2565b6123ba8882611dfd565b97506123c7846001611a53565b93506124f0565b60025486516000916001600160a01b0316906395f881c99089908890811061240657634e487b7160e01b600052603260045260246000fd5b6020026020010151846040518363ffffffff1660e01b815260040161242c9291906134a3565b60206040518083038186803b15801561244457600080fd5b505afa158015612458573d6000803e3d6000fd5b505050506040513d601f19601f8201168201806040525081019061247c919061344e565b9050828111156124895750815b808686815181106124aa57634e487b7160e01b600052603260045260246000fd5b6020026020010181815250506124e88786815181106124d957634e487b7160e01b600052603260045260246000fd5b6020026020010151828a611cb2565b5050506124f7565b50506122c9565b50949350505050565b600061250b82611ec9565b905060005b81518110156126505760015482516001600160a01b039091169063bffe84c29084908490811061255057634e487b7160e01b600052603260045260246000fd5b602002602001015161258985858151811061257b57634e487b7160e01b600052603260045260246000fd5b602002602001015187611430565b6040518363ffffffff1660e01b81526004016125a69291906134a3565b600060405180830381600087803b1580156125c057600080fd5b505af11580156125d4573d6000803e3d6000fd5b5050505061260b8282815181106125fb57634e487b7160e01b600052603260045260246000fd5b6020026020010151600085611bab565b61263e82828151811061262e57634e487b7160e01b600052603260045260246000fd5b6020026020010151600085611a76565b80612648816136d6565b915050612510565b50611ec582612958565b6000612665826122a2565b9050600061267283612c7e565b905061267e8282612d5d565b60005b8251811015611cac576126e38382815181106126ad57634e487b7160e01b600052603260045260246000fd5b60200260200101518383815181106126d557634e487b7160e01b600052603260045260246000fd5b602002602001015186611cb2565b806126ed816136d6565b915050612681565b6000806127028484611f0b565b905060006127108585610d94565b9050600061271e8686611810565b905061272a8282611a53565b90921195945050505050565b60006127428383612edd565b6001549091506001600160a01b031663bffe84c2846127618186611430565b6040518363ffffffff1660e01b815260040161277e9291906134a3565b600060405180830381600087803b15801561279857600080fd5b505af11580156127ac573d6000803e3d6000fd5b505060015460405163f3fef3a360e01b81526001600160a01b03909116925063f3fef3a391506127e290869085906004016134a3565b600060405180830381600087803b1580156127fc57600080fd5b505af1158015612810573d6000803e3d6000fd5b5050505061282083600084611bab565b61282c83600084611a76565b610d8f8361283e83610a2e8787611693565b84611cb2565b600061284f826122a2565b90506000815167ffffffffffffffff81111561287b57634e487b7160e01b600052604160045260246000fd5b6040519080825280602002602001820160405280156128a4578160200160208202803683370190505b50905060006128b38585612f46565b90506128c38185858560006122c6565b506128ce8383612d5d565b6001546001600160a01b031663bffe84c2866128ea8188611430565b6040518363ffffffff1660e01b81526004016129079291906134a3565b600060405180830381600087803b15801561292157600080fd5b505af1158015612935573d6000803e3d6000fd5b5050505061294585600086611a76565b61295185600086611bab565b5050505050565b61180d600c82612f7f565b600061296e82611ec9565b905060005b8151811015610d8f576129ad82828151811061299f57634e487b7160e01b600052603260045260246000fd5b6020026020010151846126f5565b156129e3576129e38282815181106129d557634e487b7160e01b600052603260045260246000fd5b602002602001015184612736565b806129ed816136d6565b915050612973565b6000612a0082611ec9565b90506000612a0d836122a2565b90506000815167ffffffffffffffff811115612a3957634e487b7160e01b600052604160045260246000fd5b604051908082528060200260200182016040528015612a62578160200160208202803683370190505b5090506000805b8451811015612bed576000612aa5868381518110612a9757634e487b7160e01b600052603260045260246000fd5b602002602001015188612f46565b9050612ab481888787876122c6565b60015487519194506001600160a01b03169063bffe84c290889085908110612aec57634e487b7160e01b600052603260045260246000fd5b6020026020010151612b25898681518110612b1757634e487b7160e01b600052603260045260246000fd5b60200260200101518b611430565b6040518363ffffffff1660e01b8152600401612b429291906134a3565b600060405180830381600087803b158015612b5c57600080fd5b505af1158015612b70573d6000803e3d6000fd5b50505050612ba7868381518110612b9757634e487b7160e01b600052603260045260246000fd5b6020026020010151600089611a76565b612bda868381518110612bca57634e487b7160e01b600052603260045260246000fd5b6020026020010151600089611bab565b5080612be5816136d6565b915050612a69565b506129518383612d5d565b6001820154600090612c0c575060006106af565b6001600160a01b0382166000818152602085905260409020546001850180549091908110612c4a57634e487b7160e01b600052603260045260246000fd5b6000918252602090912001546001600160a01b0316149392505050565b6060612c768484600085612fec565b949350505050565b60606000612c8b836122a2565b90506000815167ffffffffffffffff811115612cb757634e487b7160e01b600052604160045260246000fd5b604051908082528060200260200182016040528015612ce0578160200160208202803683370190505b50905060005b825181101561070d57612d20838281518110612d1257634e487b7160e01b600052603260045260246000fd5b602002602001015186611693565b828281518110612d4057634e487b7160e01b600052603260045260246000fd5b602090810291909101015280612d55816136d6565b915050612ce6565b60005b8251811015610d8f576000828281518110612d8b57634e487b7160e01b600052603260045260246000fd5b60200260200101511115612ecb576001548251612e14916001600160a01b031690849084908110612dcc57634e487b7160e01b600052603260045260246000fd5b6020026020010151858481518110612df457634e487b7160e01b600052603260045260246000fd5b60200260200101516001600160a01b03166131149092919063ffffffff16565b60015483516001600160a01b03909116906347e7ef2490859084908110612e4b57634e487b7160e01b600052603260045260246000fd5b6020026020010151848481518110612e7357634e487b7160e01b600052603260045260246000fd5b60200260200101516040518363ffffffff1660e01b8152600401612e989291906134a3565b600060405180830381600087803b158015612eb257600080fd5b505af1158015612ec6573d6000803e3d6000fd5b505050505b80612ed5816136d6565b915050612d60565b600080612eea8484611f0b565b90506000612ef88585610d94565b90506000612f068686611810565b6002549091506001600160a01b03166395f881c987612f2984610f238888611dfd565b6040518363ffffffff1660e01b81526004016118bb9291906134a3565b600080612f538484611f0b565b90506000612f618585610d94565b90506000612f6f8686611810565b905061190b83610f238484611a53565b612f898282612bf8565b6120c35760405162461bcd60e51b815260206004820152602e60248201527f416464726573735365743a204164647265737320646f6573206e6f742065786960448201526d39ba1034b7103a34329039b2ba1760911b606482015260840161073f565b60608247101561304d5760405162461bcd60e51b815260206004820152602660248201527f416464726573733a20696e73756666696369656e742062616c616e636520666f6044820152651c8818d85b1b60d21b606482015260840161073f565b843b61309b5760405162461bcd60e51b815260206004820152601d60248201527f416464726573733a2063616c6c20746f206e6f6e2d636f6e7472616374000000604482015260640161073f565b600080866001600160a01b031685876040516130b79190613487565b60006040518083038185875af1925050503d80600081146130f4576040519150601f19603f3d011682016040523d82523d6000602084013e6130f9565b606091505b5091509150613109828286613227565b979650505050505050565b80158061319d5750604051636eb1769f60e11b81523060048201526001600160a01b03838116602483015284169063dd62ed3e9060440160206040518083038186803b15801561316357600080fd5b505afa158015613177573d6000803e3d6000fd5b505050506040513d601f19601f8201168201806040525081019061319b919061344e565b155b6132085760405162461bcd60e51b815260206004820152603660248201527f5361666545524332303a20617070726f76652066726f6d206e6f6e2d7a65726f60448201527520746f206e6f6e2d7a65726f20616c6c6f77616e636560501b606482015260840161073f565b610d8f8363095ea7b360e01b8484604051602401611c759291906134a3565b60608315613236575081611a4c565b8251156132465782518084602001fd5b8160405162461bcd60e51b815260040161073f919061357f565b600082601f830112613270578081fd5b8135602061328561328083613618565b6135e7565b80838252828201915082860187848660051b89010111156132a4578586fd5b855b858110156132cb5781356132b981613732565b845292840192908401906001016132a6565b5090979650505050505050565b6000602082840312156132e9578081fd5b8135611a4c8161371d565b60008060408385031215613306578081fd5b823567ffffffffffffffff8082111561331d578283fd5b818501915085601f830112613330578283fd5b8135602061334061328083613618565b8083825282820191508286018a848660051b890101111561335f578788fd5b8796505b8487101561338a5780356133768161371d565b835260019690960195918301918301613363565b50965050860135925050808211156133a0578283fd5b506133ad85828601613260565b9150509250929050565b6000602082840312156133c8578081fd5b8151611a4c81613732565b600080604083850312156133e5578182fd5b82356133f08161371d565b915060208301356134008161371d565b809150509250929050565b6000806040838503121561341d578182fd5b82356134288161371d565b946020939093013593505050565b600060208284031215613447578081fd5b5035919050565b60006020828403121561345f578081fd5b5051919050565b60008060408385031215613478578182fd5b50508035926020909101359150565b600082516134998184602087016136aa565b9190910192915050565b6001600160a01b03929092168252602082015260400190565b6020808252825182820181905260009190848201906040850190845b818110156134fd5783516001600160a01b0316835292840192918401916001016134d8565b50909695505050505050565b604080825283519082018190526000906020906060840190828701845b8281101561354b5781516001600160a01b031684529284019290840190600101613526565b50505083810382850152845180825285830191830190845b818110156132cb57835183529284019291840191600101613563565b602081526000825180602084015261359e8160408501602087016136aa565b601f01601f19169190910160400192915050565b6020808252818101527f4f776e61626c653a2063616c6c6572206973206e6f7420746865206f776e6572604082015260600190565b604051601f8201601f1916810167ffffffffffffffff8111828210171561361057613610613707565b604052919050565b600067ffffffffffffffff82111561363257613632613707565b5060051b60200190565b6000821982111561364f5761364f6136f1565b500190565b60008261366f57634e487b7160e01b81526012600452602481fd5b500490565b600081600019048311821515161561368e5761368e6136f1565b500290565b6000828210156136a5576136a56136f1565b500390565b60005b838110156136c55781810151838201526020016136ad565b83811115611cac5750506000910152565b60006000198214156136ea576136ea6136f1565b5060010190565b634e487b7160e01b600052601160045260246000fd5b634e487b7160e01b600052604160045260246000fd5b6001600160a01b038116811461180d57600080fd5b801515811461180d57600080fdfea26469706673582212202cc19630e6f0513286c29a47646d78f4c60d880efcdadace105de9581e6d2af064736f6c63430008040033",
  "linkReferences": {},
  "deployedLinkReferences": {}
}