{
  "_format": "hh-sol-artifact-1",
  "contractName": "MarginLong",
  "sourceName": "contracts/MarginLong/MarginLong.sol",
  "abi": [
    {
      "inputs": [
        {
          "internalType": "contract LPool",
          "name": "pool_",
          "type": "address"
        },
        {
          "internalType": "contract IOracle",
          "name": "oracle_",
          "type": "address"
        },
        {
          "internalType": "uint256",
          "name": "minMarginLevelPercentNumerator_",
          "type": "uint256"
        },
        {
          "internalType": "uint256",
          "name": "minMarginLevelPercentDenominator_",
          "type": "uint256"
        },
        {
          "internalType": "uint256",
          "name": "minCollateralPrice_",
          "type": "uint256"
        },
        {
          "internalType": "uint256",
          "name": "maxLeverage_",
          "type": "uint256"
        },
        {
          "internalType": "uint256",
          "name": "liquidationFeePercentNumerator_",
          "type": "uint256"
        },
        {
          "internalType": "uint256",
          "name": "liquidationFeePercentDenominator_",
          "type": "uint256"
        }
      ],
      "stateMutability": "nonpayable",
      "type": "constructor"
    },
    {
      "anonymous": false,
      "inputs": [
        {
          "indexed": true,
          "internalType": "address",
          "name": "account",
          "type": "address"
        },
        {
          "indexed": false,
          "internalType": "contract IERC20",
          "name": "collateral",
          "type": "address"
        },
        {
          "indexed": false,
          "internalType": "uint256",
          "name": "amount",
          "type": "uint256"
        }
      ],
      "name": "AddCollateral",
      "type": "event"
    },
    {
      "anonymous": false,
      "inputs": [
        {
          "indexed": true,
          "internalType": "address",
          "name": "account",
          "type": "address"
        },
        {
          "indexed": false,
          "internalType": "contract IERC20",
          "name": "borrowed",
          "type": "address"
        },
        {
          "indexed": false,
          "internalType": "uint256",
          "name": "amount",
          "type": "uint256"
        }
      ],
      "name": "Borrow",
      "type": "event"
    },
    {
      "anonymous": false,
      "inputs": [
        {
          "indexed": true,
          "internalType": "address",
          "name": "account",
          "type": "address"
        },
        {
          "indexed": false,
          "internalType": "address",
          "name": "liquidator",
          "type": "address"
        }
      ],
      "name": "Liquidated",
      "type": "event"
    },
    {
      "anonymous": false,
      "inputs": [
        {
          "indexed": true,
          "internalType": "address",
          "name": "previousOwner",
          "type": "address"
        },
        {
          "indexed": true,
          "internalType": "address",
          "name": "newOwner",
          "type": "address"
        }
      ],
      "name": "OwnershipTransferred",
      "type": "event"
    },
    {
      "anonymous": false,
      "inputs": [
        {
          "indexed": true,
          "internalType": "address",
          "name": "account",
          "type": "address"
        },
        {
          "indexed": false,
          "internalType": "contract IERC20",
          "name": "collateral",
          "type": "address"
        },
        {
          "indexed": false,
          "internalType": "uint256",
          "name": "amount",
          "type": "uint256"
        }
      ],
      "name": "RemoveCollateral",
      "type": "event"
    },
    {
      "anonymous": false,
      "inputs": [
        {
          "indexed": true,
          "internalType": "address",
          "name": "account",
          "type": "address"
        },
        {
          "indexed": false,
          "internalType": "contract IERC20",
          "name": "borrowed",
          "type": "address"
        }
      ],
      "name": "Repay",
      "type": "event"
    },
    {
      "anonymous": false,
      "inputs": [
        {
          "indexed": true,
          "internalType": "address",
          "name": "account",
          "type": "address"
        }
      ],
      "name": "RepayAll",
      "type": "event"
    },
    {
      "anonymous": false,
      "inputs": [
        {
          "indexed": true,
          "internalType": "address",
          "name": "account",
          "type": "address"
        },
        {
          "indexed": false,
          "internalType": "address",
          "name": "resetter",
          "type": "address"
        }
      ],
      "name": "Reset",
      "type": "event"
    },
    {
      "inputs": [
        {
          "internalType": "contract IERC20",
          "name": "collateral_",
          "type": "address"
        },
        {
          "internalType": "uint256",
          "name": "amount_",
          "type": "uint256"
        }
      ],
      "name": "addCollateral",
      "outputs": [],
      "stateMutability": "nonpayable",
      "type": "function"
    },
    {
      "inputs": [
        {
          "internalType": "contract IERC20",
          "name": "borrowed_",
          "type": "address"
        },
        {
          "internalType": "uint256",
          "name": "amount_",
          "type": "uint256"
        }
      ],
      "name": "borrow",
      "outputs": [],
      "stateMutability": "nonpayable",
      "type": "function"
    },
    {
      "inputs": [
        {
          "internalType": "contract IERC20",
          "name": "borrowed_",
          "type": "address"
        },
        {
          "internalType": "address",
          "name": "account_",
          "type": "address"
        }
      ],
      "name": "borrowed",
      "outputs": [
        {
          "internalType": "uint256",
          "name": "",
          "type": "uint256"
        }
      ],
      "stateMutability": "view",
      "type": "function"
    },
    {
      "inputs": [
        {
          "internalType": "address",
          "name": "account_",
          "type": "address"
        }
      ],
      "name": "borrowedPrice",
      "outputs": [
        {
          "internalType": "uint256",
          "name": "",
          "type": "uint256"
        }
      ],
      "stateMutability": "view",
      "type": "function"
    },
    {
      "inputs": [
        {
          "internalType": "contract IERC20",
          "name": "collateral_",
          "type": "address"
        },
        {
          "internalType": "address",
          "name": "account_",
          "type": "address"
        }
      ],
      "name": "collateral",
      "outputs": [
        {
          "internalType": "uint256",
          "name": "",
          "type": "uint256"
        }
      ],
      "stateMutability": "view",
      "type": "function"
    },
    {
      "inputs": [
        {
          "internalType": "address",
          "name": "account_",
          "type": "address"
        }
      ],
      "name": "collateralPrice",
      "outputs": [
        {
          "internalType": "uint256",
          "name": "",
          "type": "uint256"
        }
      ],
      "stateMutability": "view",
      "type": "function"
    },
    {
      "inputs": [],
      "name": "getBorrowingAccounts",
      "outputs": [
        {
          "internalType": "address[]",
          "name": "",
          "type": "address[]"
        }
      ],
      "stateMutability": "view",
      "type": "function"
    },
    {
      "inputs": [
        {
          "internalType": "contract IERC20",
          "name": "borrowed_",
          "type": "address"
        },
        {
          "internalType": "address",
          "name": "account_",
          "type": "address"
        }
      ],
      "name": "initialBorrowBlock",
      "outputs": [
        {
          "internalType": "uint256",
          "name": "",
          "type": "uint256"
        }
      ],
      "stateMutability": "view",
      "type": "function"
    },
    {
      "inputs": [
        {
          "internalType": "contract IERC20",
          "name": "borrowed_",
          "type": "address"
        },
        {
          "internalType": "address",
          "name": "account_",
          "type": "address"
        }
      ],
      "name": "initialBorrowPrice",
      "outputs": [
        {
          "internalType": "uint256",
          "name": "",
          "type": "uint256"
        }
      ],
      "stateMutability": "view",
      "type": "function"
    },
    {
      "inputs": [
        {
          "internalType": "address",
          "name": "account_",
          "type": "address"
        }
      ],
      "name": "initialBorrowPrice",
      "outputs": [
        {
          "internalType": "uint256",
          "name": "",
          "type": "uint256"
        }
      ],
      "stateMutability": "view",
      "type": "function"
    },
    {
      "inputs": [
        {
          "internalType": "address",
          "name": "account_",
          "type": "address"
        }
      ],
      "name": "interest",
      "outputs": [
        {
          "internalType": "uint256",
          "name": "",
          "type": "uint256"
        }
      ],
      "stateMutability": "view",
      "type": "function"
    },
    {
      "inputs": [
        {
          "internalType": "contract IERC20",
          "name": "borrowed_",
          "type": "address"
        },
        {
          "internalType": "address",
          "name": "account_",
          "type": "address"
        }
      ],
      "name": "interest",
      "outputs": [
        {
          "internalType": "uint256",
          "name": "",
          "type": "uint256"
        }
      ],
      "stateMutability": "view",
      "type": "function"
    },
    {
      "inputs": [
        {
          "internalType": "contract IERC20",
          "name": "token_",
          "type": "address"
        }
      ],
      "name": "isApprovedBorrowed",
      "outputs": [
        {
          "internalType": "bool",
          "name": "",
          "type": "bool"
        }
      ],
      "stateMutability": "view",
      "type": "function"
    },
    {
      "inputs": [
        {
          "internalType": "contract IERC20",
          "name": "token_",
          "type": "address"
        }
      ],
      "name": "isApprovedCollateral",
      "outputs": [
        {
          "internalType": "bool",
          "name": "",
          "type": "bool"
        }
      ],
      "stateMutability": "view",
      "type": "function"
    },
    {
      "inputs": [
        {
          "internalType": "contract IERC20",
          "name": "borrowed_",
          "type": "address"
        },
        {
          "internalType": "address",
          "name": "account_",
          "type": "address"
        }
      ],
      "name": "isBorrowing",
      "outputs": [
        {
          "internalType": "bool",
          "name": "",
          "type": "bool"
        }
      ],
      "stateMutability": "view",
      "type": "function"
    },
    {
      "inputs": [
        {
          "internalType": "address",
          "name": "account_",
          "type": "address"
        }
      ],
      "name": "isBorrowing",
      "outputs": [
        {
          "internalType": "bool",
          "name": "",
          "type": "bool"
        }
      ],
      "stateMutability": "view",
      "type": "function"
    },
    {
      "inputs": [
        {
          "internalType": "address",
          "name": "account_",
          "type": "address"
        }
      ],
      "name": "liquidatable",
      "outputs": [
        {
          "internalType": "bool",
          "name": "",
          "type": "bool"
        }
      ],
      "stateMutability": "view",
      "type": "function"
    },
    {
      "inputs": [
        {
          "internalType": "address",
          "name": "account_",
          "type": "address"
        }
      ],
      "name": "liquidateAccount",
      "outputs": [
        {
          "internalType": "contract IERC20[]",
          "name": "",
          "type": "address[]"
        },
        {
          "internalType": "uint256[]",
          "name": "",
          "type": "uint256[]"
        }
      ],
      "stateMutability": "nonpayable",
      "type": "function"
    },
    {
      "inputs": [],
      "name": "liquidationFeePercent",
      "outputs": [
        {
          "internalType": "uint256",
          "name": "",
          "type": "uint256"
        },
        {
          "internalType": "uint256",
          "name": "",
          "type": "uint256"
        }
      ],
      "stateMutability": "view",
      "type": "function"
    },
    {
      "inputs": [
        {
          "internalType": "address",
          "name": "account_",
          "type": "address"
        }
      ],
      "name": "marginLevel",
      "outputs": [
        {
          "internalType": "uint256",
          "name": "",
          "type": "uint256"
        },
        {
          "internalType": "uint256",
          "name": "",
          "type": "uint256"
        }
      ],
      "stateMutability": "view",
      "type": "function"
    },
    {
      "inputs": [],
      "name": "maxLeverage",
      "outputs": [
        {
          "internalType": "uint256",
          "name": "",
          "type": "uint256"
        }
      ],
      "stateMutability": "view",
      "type": "function"
    },
    {
      "inputs": [
        {
          "internalType": "address",
          "name": "account_",
          "type": "address"
        }
      ],
      "name": "maxLeverageReached",
      "outputs": [
        {
          "internalType": "bool",
          "name": "",
          "type": "bool"
        }
      ],
      "stateMutability": "view",
      "type": "function"
    },
    {
      "inputs": [],
      "name": "minCollateralPrice",
      "outputs": [
        {
          "internalType": "uint256",
          "name": "",
          "type": "uint256"
        }
      ],
      "stateMutability": "view",
      "type": "function"
    },
    {
      "inputs": [],
      "name": "minMarginLevel",
      "outputs": [
        {
          "internalType": "uint256",
          "name": "",
          "type": "uint256"
        },
        {
          "internalType": "uint256",
          "name": "",
          "type": "uint256"
        }
      ],
      "stateMutability": "view",
      "type": "function"
    },
    {
      "inputs": [],
      "name": "oracle",
      "outputs": [
        {
          "internalType": "contract IOracle",
          "name": "",
          "type": "address"
        }
      ],
      "stateMutability": "view",
      "type": "function"
    },
    {
      "inputs": [],
      "name": "owner",
      "outputs": [
        {
          "internalType": "address",
          "name": "",
          "type": "address"
        }
      ],
      "stateMutability": "view",
      "type": "function"
    },
    {
      "inputs": [],
      "name": "pool",
      "outputs": [
        {
          "internalType": "contract LPool",
          "name": "",
          "type": "address"
        }
      ],
      "stateMutability": "view",
      "type": "function"
    },
    {
      "inputs": [
        {
          "internalType": "contract IERC20",
          "name": "collateral_",
          "type": "address"
        },
        {
          "internalType": "uint256",
          "name": "amount_",
          "type": "uint256"
        }
      ],
      "name": "removeCollateral",
      "outputs": [],
      "stateMutability": "nonpayable",
      "type": "function"
    },
    {
      "inputs": [],
      "name": "renounceOwnership",
      "outputs": [],
      "stateMutability": "nonpayable",
      "type": "function"
    },
    {
      "inputs": [
        {
          "internalType": "contract IERC20",
          "name": "borrowed_",
          "type": "address"
        }
      ],
      "name": "repayAccount",
      "outputs": [],
      "stateMutability": "nonpayable",
      "type": "function"
    },
    {
      "inputs": [],
      "name": "repayAccountAll",
      "outputs": [],
      "stateMutability": "nonpayable",
      "type": "function"
    },
    {
      "inputs": [
        {
          "internalType": "address",
          "name": "account_",
          "type": "address"
        }
      ],
      "name": "resetAccount",
      "outputs": [
        {
          "internalType": "contract IERC20[]",
          "name": "",
          "type": "address[]"
        },
        {
          "internalType": "uint256[]",
          "name": "",
          "type": "uint256[]"
        }
      ],
      "stateMutability": "nonpayable",
      "type": "function"
    },
    {
      "inputs": [
        {
          "internalType": "address",
          "name": "account_",
          "type": "address"
        }
      ],
      "name": "resettable",
      "outputs": [
        {
          "internalType": "bool",
          "name": "",
          "type": "bool"
        }
      ],
      "stateMutability": "view",
      "type": "function"
    },
    {
      "inputs": [
        {
          "internalType": "contract IERC20[]",
          "name": "token_",
          "type": "address[]"
        },
        {
          "internalType": "bool[]",
          "name": "approved_",
          "type": "bool[]"
        }
      ],
      "name": "setApprovedBorrowed",
      "outputs": [],
      "stateMutability": "nonpayable",
      "type": "function"
    },
    {
      "inputs": [
        {
          "internalType": "contract IERC20[]",
          "name": "token_",
          "type": "address[]"
        },
        {
          "internalType": "bool[]",
          "name": "approved_",
          "type": "bool[]"
        }
      ],
      "name": "setApprovedCollateral",
      "outputs": [],
      "stateMutability": "nonpayable",
      "type": "function"
    },
    {
      "inputs": [
        {
          "internalType": "uint256",
          "name": "liquidationFeePercentNumerator_",
          "type": "uint256"
        },
        {
          "internalType": "uint256",
          "name": "liquidationFeePercentDenominator_",
          "type": "uint256"
        }
      ],
      "name": "setLiquidationFeePercent",
      "outputs": [],
      "stateMutability": "nonpayable",
      "type": "function"
    },
    {
      "inputs": [
        {
          "internalType": "uint256",
          "name": "maxLeverage_",
          "type": "uint256"
        }
      ],
      "name": "setMaxLeverage",
      "outputs": [],
      "stateMutability": "nonpayable",
      "type": "function"
    },
    {
      "inputs": [
        {
          "internalType": "uint256",
          "name": "minCollateralPrice_",
          "type": "uint256"
        }
      ],
      "name": "setMinCollateralPrice",
      "outputs": [],
      "stateMutability": "nonpayable",
      "type": "function"
    },
    {
      "inputs": [
        {
          "internalType": "uint256",
          "name": "minMarginLevelNumerator_",
          "type": "uint256"
        },
        {
          "internalType": "uint256",
          "name": "minMarginLevelDenominator_",
          "type": "uint256"
        }
      ],
      "name": "setMinMarginLevel",
      "outputs": [],
      "stateMutability": "nonpayable",
      "type": "function"
    },
    {
      "inputs": [
        {
          "internalType": "contract IOracle",
          "name": "oracle_",
          "type": "address"
        }
      ],
      "name": "setOracle",
      "outputs": [],
      "stateMutability": "nonpayable",
      "type": "function"
    },
    {
      "inputs": [
        {
          "internalType": "contract LPool",
          "name": "pool_",
          "type": "address"
        }
      ],
      "name": "setPool",
      "outputs": [],
      "stateMutability": "nonpayable",
      "type": "function"
    },
    {
      "inputs": [
        {
          "internalType": "address",
          "name": "account_",
          "type": "address"
        }
      ],
      "name": "sufficientCollateralPrice",
      "outputs": [
        {
          "internalType": "bool",
          "name": "",
          "type": "bool"
        }
      ],
      "stateMutability": "view",
      "type": "function"
    },
    {
      "inputs": [
        {
          "internalType": "contract IERC20",
          "name": "borrowed_",
          "type": "address"
        }
      ],
      "name": "totalBorrowed",
      "outputs": [
        {
          "internalType": "uint256",
          "name": "",
          "type": "uint256"
        }
      ],
      "stateMutability": "view",
      "type": "function"
    },
    {
      "inputs": [
        {
          "internalType": "contract IERC20",
          "name": "collateral_",
          "type": "address"
        }
      ],
      "name": "totalCollateral",
      "outputs": [
        {
          "internalType": "uint256",
          "name": "",
          "type": "uint256"
        }
      ],
      "stateMutability": "view",
      "type": "function"
    },
    {
      "inputs": [
        {
          "internalType": "address",
          "name": "newOwner",
          "type": "address"
        }
      ],
      "name": "transferOwnership",
      "outputs": [],
      "stateMutability": "nonpayable",
      "type": "function"
    }
  ],
  "bytecode": "0x60806040523480156200001157600080fd5b50604051620038f2380380620038f28339810160408190526200003491620000ed565b8181858589898d8d62000047336200009d565b600180546001600160a01b039384166001600160a01b03199182161790915560028054929093169116179055600891909155600955600a91909155600b55600e91909155600f55506200017b9650505050505050565b600080546001600160a01b038381166001600160a01b0319831681178455604051919092169283917f8be0079c531659141344cd1fd0a4f28419497f9722a3daafe3b4186f6b6457e09190a35050565b600080600080600080600080610100898b0312156200010a578384fd5b8851620001178162000162565b60208a01519098506200012a8162000162565b60408a015160608b015160808c015160a08d015160c08e015160e0909e01519c9f949e50929c919b909a509198509650945092505050565b6001600160a01b03811681146200017857600080fd5b50565b613767806200018b6000396000f3fe608060405234801561001057600080fd5b506004361061027f5760003560e01c80637e059b221161015c578063b4929721116100ce578063d8459b4511610087578063d8459b45146105e2578063e2e1ca2b146105f5578063e880f1391461061e578063f2fde38b1461064a578063f5af8d111461065d578063ffec70af1461067057600080fd5b8063b49297211461057b578063b64c740414610583578063ca3134f614610596578063cc218ece146105a9578063d3127e63146105bc578063d3eec404146105cf57600080fd5b80638da5cb5b116101205780638da5cb5b14610515578063916b6c5b14610526578063a4c2c9c514610539578063ac436bdf1461054c578063ae3302c21461055f578063b0a02abe1461056857600080fd5b80637e059b221461049c5780637e773d01146104c5578063813c2302146104ce578063876467f8146104e15780638ac5d4a3146104f457600080fd5b80634eb72012116101f55780636fc2d3c6116101b95780636fc2d3c61461040d578063706f1ada14610420578063715018a6146104335780637adbf9731461043b5780637c9ff9eb1461044e5780637dc0d1d01461048957600080fd5b80634eb720121461039b57806350711be9146103a657806366dad8f4146103b95780636847e50b146103e55780636d75b9ee146103fa57600080fd5b8063172fc1f211610247578063172fc1f21461032057806325b69c0c146103335780632becebd21461034f5780632dbaacdc146103625780634437152a146103755780634b8a35291461038857600080fd5b806303f5aaad1461028457806308b1cb23146102ac5780630f9b628e146102cd57806314ace5bb146102e257806316f0115b146102f5575b600080fd5b6102976102923660046133c4565b610683565b60405190151581526020015b60405180910390f35b6102bf6102ba3660046132c9565b61069a565b6040519081526020016102a3565b6102e06102db366004613457565b6106fa565b005b6102e06102f0366004613457565b610738565b600154610308906001600160a01b031681565b6040516001600160a01b0390911681526020016102a3565b61029761032e3660046132c9565b61076d565b6008546009545b604080519283526020830191909152016102a3565b61029761035d3660046132c9565b610783565b6102976103703660046132c9565b6107bd565b6102e06103833660046132c9565b610817565b6102e06103963660046133fc565b610863565b600e54600f5461033a565b6102976103b43660046132c9565b610b2e565b6102976103c73660046132c9565b6001600160a01b031660009081526003602052604090205460ff1690565b6103ed610b4e565b6040516102a391906134ad565b6102e06104083660046133fc565b610b5f565b6102e061041b3660046132e5565b610c69565b6102bf61042e3660046133c4565b610d34565b6102e0610d64565b6102e06104493660046132c9565b610d9a565b6102bf61045c3660046133c4565b6001600160a01b039081166000908152600760208181526040808420959094168352930190925290205490565b600254610308906001600160a01b031681565b6102bf6104aa3660046132c9565b6001600160a01b031660009081526006602052604090205490565b6102bf600a5481565b61033a6104dc3660046132c9565b610de6565b6102e06104ef3660046133fc565b610e2d565b6105076105023660046132c9565b610fbb565b6040516102a39291906134fa565b6000546001600160a01b0316610308565b6102e06105343660046132c9565b611168565b6102e06105473660046132e5565b6112ae565b6102bf61055a3660046132c9565b611374565b6102bf600b5481565b6102bf6105763660046133c4565b6113d7565b6102e0611407565b6102bf6105913660046132c9565b6114c2565b6105076105a43660046132c9565b611525565b6102bf6105b73660046133c4565b61163a565b6102e06105ca366004613427565b61166a565b6102e06105dd366004613427565b611699565b6102bf6105f03660046132c9565b6116c8565b6102bf6106033660046132c9565b6001600160a01b031660009081526005602052604090205490565b61029761062c3660046132c9565b6001600160a01b031660009081526004602052604090205460ff1690565b6102e06106583660046132c9565b61171c565b6102bf61066b3660046133c4565b6117b7565b61029761067e3660046132c9565b6118bc565b60008061069084846113d7565b1190505b92915050565b6001600160a01b038116600090815260076020526040812081805b60018301548110156106f2576106de6106d76106d18584611921565b87611962565b83906119f5565b9150806106ea816136c7565b9150506106b5565b509392505050565b6000546001600160a01b0316331461072d5760405162461bcd60e51b8152600401610724906135a3565b60405180910390fd5b600891909155600955565b6000546001600160a01b031633146107625760405162461bcd60e51b8152600401610724906135a3565b600e91909155600f55565b6000600a5461077b8361069a565b101592915050565b60008061078f8361069a565b9050600061079c846114c2565b9050806107b4600b5484611a0190919063ffffffff16565b10949350505050565b60006107d06107cb83610b2e565b611a0d565b6107dc6107cb83610783565b6107e86107cb8361076d565b6107f182610b2e565b8015610694575061080182610783565b8061069457506108108261076d565b1592915050565b6000546001600160a01b031633146108415760405162461bcd60e51b8152600401610724906135a3565b600180546001600160a01b0319166001600160a01b0392909216919091179055565b81610886816001600160a01b031660009081526004602052604090205460ff1690565b6108f85760405162461bcd60e51b815260206004820152603960248201527f4d617267696e417070726f7665643a204f6e6c7920617070726f76656420626f60448201527f72726f77656420746f6b656e73206d61792062652075736564000000000000006064820152608401610724565b6109028333610683565b610937573360009081526007602081815260408084206001600160a01b03881685529092019052902043905561093733611a4e565b600154604051635569f64b60e11b81526001600160a01b039091169063aad3ec96906109699086908690600401613494565b600060405180830381600087803b15801561098357600080fd5b505af1158015610997573d6000803e3d6000fd5b505050506109ba836109b4846109ae876105763390565b906119f5565b33611a59565b60025460405163b1d5e1b960e01b81526000916001600160a01b03169063b1d5e1b9906109ed9087908790600401613494565b60206040518083038186803b158015610a0557600080fd5b505afa158015610a19573d6000803e3d6000fd5b505050506040513d601f19601f82011682018060405250810190610a3d919061343f565b9050610a5784610a51836109ae8333610d34565b33611b8e565b610a60336107bd565b158015610a735750610a71336118bc565b155b610ae55760405162461bcd60e51b815260206004820152603f60248201527f4d617267696e4c6f6e67426f72726f773a20426f72726f77696e67206465736960448201527f72656420616d6f756e742070757473206163636f756e74206174207269736b006064820152608401610724565b336001600160a01b03167f312a5e5e1079f5dda4e95dbbd0b908b291fd5b992ef22073643ab691572c5b528585604051610b20929190613494565b60405180910390a250505050565b6001600160a01b0316600090815260076020526040902060080154151590565b6060610b5a600c611bbe565b905090565b81610b82816001600160a01b031660009081526003602052604090205460ff1690565b610bf45760405162461bcd60e51b815260206004820152603b60248201527f4d617267696e417070726f7665643a204f6e6c7920617070726f76656420636f60448201527f6c6c61746572616c20746f6b656e73206d6179206265207573656400000000006064820152608401610724565b610c096001600160a01b038416333085611c24565b610c2183610c1b846109ae833361163a565b33611c95565b336001600160a01b03167fa32435755c235de2976ed44a75a2f85cb01faf0c894f639fe0c32bb9455fea8f8484604051610c5c929190613494565b60405180910390a2505050565b6000546001600160a01b03163314610c935760405162461bcd60e51b8152600401610724906135a3565b60005b8251811015610d2f57818181518110610cbf57634e487b7160e01b600052603260045260246000fd5b602002602001015160036000858481518110610ceb57634e487b7160e01b600052603260045260246000fd5b6020908102919091018101516001600160a01b03168252810191909152604001600020805460ff191691151591909117905580610d27816136c7565b915050610c96565b505050565b6001600160a01b038082166000908152600760209081526040808320938616835260069093019052205492915050565b6000546001600160a01b03163314610d8e5760405162461bcd60e51b8152600401610724906135a3565b610d986000611d90565b565b6000546001600160a01b03163314610dc45760405162461bcd60e51b8152600401610724906135a3565b600280546001600160a01b0319166001600160a01b0392909216919091179055565b6000806000610df4846114c2565b90506000610e0185611374565b9050610e18610e0f8661069a565b6109ae876116c8565b610e2283836119f5565b935093505050915091565b610e37823361163a565b811115610eac5760405162461bcd60e51b815260206004820152603e60248201527f4d617267696e436f6c6c61746572616c3a2043616e6e6f742072656d6f76652060448201527f6d6f7265207468616e20617661696c61626c6520636f6c6c61746572616c00006064820152608401610724565b610ec482610c1b83610ebe833361163a565b90611de0565b610ecd336107bd565b158015610ee05750610ede336118bc565b155b610f605760405162461bcd60e51b815260206004820152604560248201527f4d617267696e436f6c6c61746572616c3a205769746864726177696e6720646560448201527f736972656420636f6c6c61746572616c2070757473206163636f756e74206174606482015264207269736b60d81b608482015260a401610724565b610f746001600160a01b0383163383611dec565b336001600160a01b03167f367be65505e5aff90e7e646744b5f75280ec6d79a0e78690f6020b875a03bc128383604051610faf929190613494565b60405180910390a25050565b606080610fc7836118bc565b6110325760405162461bcd60e51b815260206004820152603660248201527f4d617267696e4c6f6e674c69717569646174653a2054686973206163636f756e6044820152751d0818d85b9b9bdd081899481b1a5c5d5a59185d195960521b6064820152608401610724565b600061103d8461069a565b905060008061104f600e54600f549091565b9092509050600061106a826110648686611a01565b90611e0b565b9050600080611079838a611e17565b9150915060005b8251811015611108576110f6335b8383815181106110ae57634e487b7160e01b600052603260045260246000fd5b60200260200101518584815181106110d657634e487b7160e01b600052603260045260246000fd5b60200260200101516001600160a01b0316611dec9092919063ffffffff16565b80611100816136c7565b915050611080565b5061111289611e45565b6001600160a01b0389167facd74f5a0eb0d086de0eebe2d1e70d5742838c88cb2cf492fc201d39e056f7e0335b6040516001600160a01b03909116815260200160405180910390a2909890975095505050505050565b6111728133610683565b6111e6576040805162461bcd60e51b81526020600482015260248101919091527f4d617267696e4c6f6e6752657061793a2043616e6e6f7420726570617920616360448201527f636f756e742077697468206e6f206c657665726167656420706f736974696f6e6064820152608401610724565b6111f08133611e57565b6111f9336107bd565b1561126c5760405162461bcd60e51b815260206004820152603760248201527f4d617267696e4c6f6e6752657061793a205265706179696e6720706f7369746960448201527f6f6e2070757473206163636f756e74206174207269736b0000000000000000006064820152608401610724565b604080516001600160a01b0383168152905133917f7d361c02aa3e26ac9383eca42a9b4f42433e252882bfb806e8b76869b815250f919081900360200190a250565b6000546001600160a01b031633146112d85760405162461bcd60e51b8152600401610724906135a3565b60005b8251811015610d2f5781818151811061130457634e487b7160e01b600052603260045260246000fd5b60200260200101516004600085848151811061133057634e487b7160e01b600052603260045260246000fd5b6020908102919091018101516001600160a01b03168252810191909152604001600020805460ff19169115159190911790558061136c816136c7565b9150506112db565b60008061138083611e99565b90506000805b82518110156106f2576113c36106d78483815181106113b557634e487b7160e01b600052603260045260246000fd5b6020026020010151876117b7565b9150806113cf816136c7565b915050611386565b6001600160a01b038082166000908152600760209081526040808320938616835260059093019052205492915050565b61141033610b2e565b61148c5760405162461bcd60e51b815260206004820152604160248201527f4d617267696e4c6f6e6752657061793a2043616e6e6f7420726570617920616360448201527f636f756e742077697468206e6f206c657665726167656420706f736974696f6e6064820152607360f81b608482015260a401610724565b61149533611ec0565b60405133907f2a5e2bc4fa361e17232a0638ac48c9dd4aed21e3241a5bac60bb30f4d505344690600090a2565b6000806114ce83611e99565b90506000805b82518110156106f2576115116106d784838151811061150357634e487b7160e01b600052603260045260246000fd5b602002602001015187610d34565b91508061151d816136c7565b9150506114d4565b606080611531836107bd565b6115935760405162461bcd60e51b815260206004820152602d60248201527f4d617267696e4c6f6e6752657061793a2054686973206163636f756e7420636160448201526c1b9b9bdd081899481c995cd95d609a1b6064820152608401610724565b61159c83611ec0565b60006115a78461069a565b90506000806115b9600e54600f549091565b909250905060006115ce826110648686611a01565b90506000806115dd8333611e17565b9150915060005b8251811015611608576115f63361108e565b80611600816136c7565b9150506115e4565b506001600160a01b0389167fa5df7b378f5dbf7c276ac35d5314c533b2fa1d772a893f471c41481862ec93db3361113f565b6001600160a01b038082166000908152600760209081526040808320938616835260029093019052205492915050565b6000546001600160a01b031633146116945760405162461bcd60e51b8152600401610724906135a3565b600b55565b6000546001600160a01b031633146116c35760405162461bcd60e51b8152600401610724906135a3565b600a55565b6001600160a01b038116600090815260076020526040812081805b60048301548110156106f2576117086106d76117026003860184611921565b87611edb565b915080611714816136c7565b9150506116e3565b6000546001600160a01b031633146117465760405162461bcd60e51b8152600401610724906135a3565b6001600160a01b0381166117ab5760405162461bcd60e51b815260206004820152602660248201527f4f776e61626c653a206e6577206f776e657220697320746865207a65726f206160448201526564647265737360d01b6064820152608401610724565b6117b481611d90565b50565b6000806117c48484611edb565b905060006117d28585610d34565b90506000818311156117e55750816117e8565b50805b6001546001600160a01b031663d0b9622c878361182d828a6001600160a01b039081166000908152600760208181526040808420959094168352930190925290205490565b6040516001600160e01b031960e086901b1681526001600160a01b039093166004840152602483019190915260448201526064015b60206040518083038186803b15801561187a57600080fd5b505afa15801561188e573d6000803e3d6000fd5b505050506040513d601f19601f820116820180604052508101906118b2919061343f565b9695505050505050565b60006118c782610b2e565b6118d357506000919050565b6000806118e36008546009549091565b915091506000806118f386610de6565b909250905060006119048583611a01565b905060006119128486611a01565b90911015979650505050505050565b600082600101828154811061194657634e487b7160e01b600052603260045260246000fd5b6000918252602090912001546001600160a01b03169392505050565b6002546000906001600160a01b031663b1d5e1b984611981818661163a565b6040518363ffffffff1660e01b815260040161199e929190613494565b60206040518083038186803b1580156119b657600080fd5b505afa1580156119ca573d6000803e3d6000fd5b505050506040513d601f19601f820116820180604052508101906119ee919061343f565b9392505050565b60006119ee828461362d565b60006119ee8284613665565b60405181151560248201526117b49060440160408051601f198184030181529190526020810180516001600160e01b03166332458eed60e01b179052611efa565b6117b4600c82611f1b565b6001600160a01b038082166000908152600760209081526040808320938716835260058401909152902054158015611a9057508215155b15611aa757611aa26003820185611fe1565b611ae0565b6001600160a01b038416600090815260058201602052604090205415801590611ace575082155b15611ae057611ae0600382018561204b565b6001600160a01b0384166000908152600580830160209081526040808420549290915290912054611b39918691611b1d9187916109ae9190610ebe565b6001600160a01b03909116600090815260056020526040902055565b6001600160a01b03841660009081526005820160205260409020546008820154611b689185916109ae91611de0565b60088201556001600160a01b039093166000908152600590930160205250604090912055565b6001600160a01b039081166000908152600760209081526040808320959093168252600690940190935290912055565b606081600101805480602002602001604051908101604052809291908181526020018280548015611c1857602002820191906000526020600020905b81546001600160a01b03168152600190910190602001808311611bfa575b50505050509050919050565b6040516001600160a01b0380851660248301528316604482015260648101829052611c8f9085906323b872dd60e01b906084015b60408051601f198184030181529190526020810180516001600160e01b03166001600160e01b0319909316929092179091526121c1565b50505050565b6001600160a01b038082166000908152600760209081526040808320938716835260028401909152902054158015611ccc57508215155b15611ce057611cdb8185611fe1565b611d16565b6001600160a01b038416600090815260028201602052604090205415801590611d07575082155b15611d1657611d16818561204b565b6001600160a01b0384166000908152600282016020908152604080832054600690925290912054611d6f918691611d539187916109ae9190610ebe565b6001600160a01b03909116600090815260066020526040902055565b6001600160a01b039093166000908152600290930160205250604090912055565b600080546001600160a01b038381166001600160a01b0319831681178455604051919092169283917f8be0079c531659141344cd1fd0a4f28419497f9722a3daafe3b4186f6b6457e09190a35050565b60006119ee8284613684565b610d2f8363a9059cbb60e01b8484604051602401611c58929190613494565b60006119ee8284613645565b6060806000611e2584612293565b905060606000611e3887878585856122b7565b5091969095509350505050565b611e4e816124f1565b6117b48161264b565b611e6182826126e6565b15611e7557611e708282612727565b611e7f565b611e7f8282612835565b611e8881610b2e565b611e9557611e9581612949565b5050565b6001600160a01b038116600090815260076020526040902060609061069490600301611bbe565b611ec981612954565b611ed2816129e6565b6117b481612949565b6002546000906001600160a01b031663b1d5e1b98461198181866113d7565b80516a636f6e736f6c652e6c6f67602083016000808483855afa5050505050565b611f258282612be9565b15611f895760405162461bcd60e51b815260206004820152602e60248201527f416464726573735365743a204164647265737320616c7265616479206578697360448201526d3a399034b7103a34329039b2ba1760911b6064820152608401610724565b6001828101805480830182556000828152602090200180546001600160a01b0319166001600160a01b03851617905554611fc39190613684565b6001600160a01b039091166000908152602092909252604090912055565b611feb8282612be9565b15611f895760405162461bcd60e51b815260206004820152602a60248201527f546f6b656e5365743a20546f6b656e20616c726561647920657869737473206960448201526937103a34329039b2ba1760b11b6064820152608401610724565b6120558282612be9565b6120b45760405162461bcd60e51b815260206004820152602a60248201527f546f6b656e5365743a20546f6b656e20646f6573206e6f74206578697374206960448201526937103a34329039b2ba1760b11b6064820152608401610724565b600182810180546000926120c791613684565b815481106120e557634e487b7160e01b600052603260045260246000fd5b60009182526020808320909101546001600160a01b0385811684529186905260408084205492909116808452922081905560018501805492935090918391908390811061214257634e487b7160e01b600052603260045260246000fd5b600091825260208083209190910180546001600160a01b0319166001600160a01b0394851617905591851681529085905260408120556001840180548061219957634e487b7160e01b600052603160045260246000fd5b600082815260209020810160001990810180546001600160a01b031916905501905550505050565b6000612216826040518060400160405280602081526020017f5361666545524332303a206c6f772d6c6576656c2063616c6c206661696c6564815250856001600160a01b0316612c589092919063ffffffff16565b805190915015610d2f578080602001905181019061223491906133a8565b610d2f5760405162461bcd60e51b815260206004820152602a60248201527f5361666545524332303a204552433230206f7065726174696f6e20646964206e6044820152691bdd081cdd58d8d9595960b21b6064820152608401610724565b6001600160a01b038116600090815260076020526040902060609061069490611bbe565b60005b6000861180156122ca5750835182105b156124e85760006123028584815181106122f457634e487b7160e01b600052603260045260246000fd5b60200260200101518761163a565b9050600061233786858151811061232957634e487b7160e01b600052603260045260246000fd5b602002602001015188611962565b9050878110156123bf578185858151811061236257634e487b7160e01b600052603260045260246000fd5b6020026020010181815250506123a186858151811061239157634e487b7160e01b600052603260045260246000fd5b6020026020010151600089611c95565b6123ab8882611de0565b97506123b88460016119f5565b93506124e1565b60025486516000916001600160a01b0316906395f881c9908990889081106123f757634e487b7160e01b600052603260045260246000fd5b6020026020010151846040518363ffffffff1660e01b815260040161241d929190613494565b60206040518083038186803b15801561243557600080fd5b505afa158015612449573d6000803e3d6000fd5b505050506040513d601f19601f8201168201806040525081019061246d919061343f565b90508281111561247a5750815b8086868151811061249b57634e487b7160e01b600052603260045260246000fd5b6020026020010181815250506124d98786815181106124ca57634e487b7160e01b600052603260045260246000fd5b6020026020010151828a611c95565b5050506124e8565b50506122ba565b50949350505050565b60006124fc82611e99565b905060005b81518110156126415760015482516001600160a01b039091169063bffe84c29084908490811061254157634e487b7160e01b600052603260045260246000fd5b602002602001015161257a85858151811061256c57634e487b7160e01b600052603260045260246000fd5b6020026020010151876113d7565b6040518363ffffffff1660e01b8152600401612597929190613494565b600060405180830381600087803b1580156125b157600080fd5b505af11580156125c5573d6000803e3d6000fd5b505050506125fc8282815181106125ec57634e487b7160e01b600052603260045260246000fd5b6020026020010151600085611b8e565b61262f82828151811061261f57634e487b7160e01b600052603260045260246000fd5b6020026020010151600085611a59565b80612639816136c7565b915050612501565b50611e9582612949565b600061265682612293565b9050600061266383612c6f565b905061266f8282612d4e565b60005b8251811015611c8f576126d483828151811061269e57634e487b7160e01b600052603260045260246000fd5b60200260200101518383815181106126c657634e487b7160e01b600052603260045260246000fd5b602002602001015186611c95565b806126de816136c7565b915050612672565b6000806126f38484611edb565b905060006127018585610d34565b9050600061270f86866117b7565b905061271b82826119f5565b90921195945050505050565b60006127338383612ece565b6001549091506001600160a01b031663bffe84c28461275281866113d7565b6040518363ffffffff1660e01b815260040161276f929190613494565b600060405180830381600087803b15801561278957600080fd5b505af115801561279d573d6000803e3d6000fd5b505060015460405163f3fef3a360e01b81526001600160a01b03909116925063f3fef3a391506127d39086908590600401613494565b600060405180830381600087803b1580156127ed57600080fd5b505af1158015612801573d6000803e3d6000fd5b5050505061281183600084611b8e565b61281d83600084611a59565b610d2f8361282f836109ae878761163a565b84611c95565b600061284082612293565b90506000815167ffffffffffffffff81111561286c57634e487b7160e01b600052604160045260246000fd5b604051908082528060200260200182016040528015612895578160200160208202803683370190505b50905060006128a48585612f37565b90506128b48185858560006122b7565b506128bf8383612d4e565b6001546001600160a01b031663bffe84c2866128db81886113d7565b6040518363ffffffff1660e01b81526004016128f8929190613494565b600060405180830381600087803b15801561291257600080fd5b505af1158015612926573d6000803e3d6000fd5b5050505061293685600086611a59565b61294285600086611b8e565b5050505050565b6117b4600c82612f70565b600061295f82611e99565b905060005b8151811015610d2f5761299e82828151811061299057634e487b7160e01b600052603260045260246000fd5b6020026020010151846126e6565b156129d4576129d48282815181106129c657634e487b7160e01b600052603260045260246000fd5b602002602001015184612727565b806129de816136c7565b915050612964565b60006129f182611e99565b905060006129fe83612293565b90506000815167ffffffffffffffff811115612a2a57634e487b7160e01b600052604160045260246000fd5b604051908082528060200260200182016040528015612a53578160200160208202803683370190505b5090506000805b8451811015612bde576000612a96868381518110612a8857634e487b7160e01b600052603260045260246000fd5b602002602001015188612f37565b9050612aa581888787876122b7565b60015487519194506001600160a01b03169063bffe84c290889085908110612add57634e487b7160e01b600052603260045260246000fd5b6020026020010151612b16898681518110612b0857634e487b7160e01b600052603260045260246000fd5b60200260200101518b6113d7565b6040518363ffffffff1660e01b8152600401612b33929190613494565b600060405180830381600087803b158015612b4d57600080fd5b505af1158015612b61573d6000803e3d6000fd5b50505050612b98868381518110612b8857634e487b7160e01b600052603260045260246000fd5b6020026020010151600089611a59565b612bcb868381518110612bbb57634e487b7160e01b600052603260045260246000fd5b6020026020010151600089611b8e565b5080612bd6816136c7565b915050612a5a565b506129428383612d4e565b6001820154600090612bfd57506000610694565b6001600160a01b0382166000818152602085905260409020546001850180549091908110612c3b57634e487b7160e01b600052603260045260246000fd5b6000918252602090912001546001600160a01b0316149392505050565b6060612c678484600085612fdd565b949350505050565b60606000612c7c83612293565b90506000815167ffffffffffffffff811115612ca857634e487b7160e01b600052604160045260246000fd5b604051908082528060200260200182016040528015612cd1578160200160208202803683370190505b50905060005b82518110156106f257612d11838281518110612d0357634e487b7160e01b600052603260045260246000fd5b60200260200101518661163a565b828281518110612d3157634e487b7160e01b600052603260045260246000fd5b602090810291909101015280612d46816136c7565b915050612cd7565b60005b8251811015610d2f576000828281518110612d7c57634e487b7160e01b600052603260045260246000fd5b60200260200101511115612ebc576001548251612e05916001600160a01b031690849084908110612dbd57634e487b7160e01b600052603260045260246000fd5b6020026020010151858481518110612de557634e487b7160e01b600052603260045260246000fd5b60200260200101516001600160a01b03166131059092919063ffffffff16565b60015483516001600160a01b03909116906347e7ef2490859084908110612e3c57634e487b7160e01b600052603260045260246000fd5b6020026020010151848481518110612e6457634e487b7160e01b600052603260045260246000fd5b60200260200101516040518363ffffffff1660e01b8152600401612e89929190613494565b600060405180830381600087803b158015612ea357600080fd5b505af1158015612eb7573d6000803e3d6000fd5b505050505b80612ec6816136c7565b915050612d51565b600080612edb8484611edb565b90506000612ee98585610d34565b90506000612ef786866117b7565b6002549091506001600160a01b03166395f881c987612f1a84610ebe8888611de0565b6040518363ffffffff1660e01b8152600401611862929190613494565b600080612f448484611edb565b90506000612f528585610d34565b90506000612f6086866117b7565b90506118b283610ebe84846119f5565b612f7a8282612be9565b6120b45760405162461bcd60e51b815260206004820152602e60248201527f416464726573735365743a204164647265737320646f6573206e6f742065786960448201526d39ba1034b7103a34329039b2ba1760911b6064820152608401610724565b60608247101561303e5760405162461bcd60e51b815260206004820152602660248201527f416464726573733a20696e73756666696369656e742062616c616e636520666f6044820152651c8818d85b1b60d21b6064820152608401610724565b843b61308c5760405162461bcd60e51b815260206004820152601d60248201527f416464726573733a2063616c6c20746f206e6f6e2d636f6e74726163740000006044820152606401610724565b600080866001600160a01b031685876040516130a89190613478565b60006040518083038185875af1925050503d80600081146130e5576040519150601f19603f3d011682016040523d82523d6000602084013e6130ea565b606091505b50915091506130fa828286613218565b979650505050505050565b80158061318e5750604051636eb1769f60e11b81523060048201526001600160a01b03838116602483015284169063dd62ed3e9060440160206040518083038186803b15801561315457600080fd5b505afa158015613168573d6000803e3d6000fd5b505050506040513d601f19601f8201168201806040525081019061318c919061343f565b155b6131f95760405162461bcd60e51b815260206004820152603660248201527f5361666545524332303a20617070726f76652066726f6d206e6f6e2d7a65726f60448201527520746f206e6f6e2d7a65726f20616c6c6f77616e636560501b6064820152608401610724565b610d2f8363095ea7b360e01b8484604051602401611c58929190613494565b606083156132275750816119ee565b8251156132375782518084602001fd5b8160405162461bcd60e51b81526004016107249190613570565b600082601f830112613261578081fd5b8135602061327661327183613609565b6135d8565b80838252828201915082860187848660051b8901011115613295578586fd5b855b858110156132bc5781356132aa81613723565b84529284019290840190600101613297565b5090979650505050505050565b6000602082840312156132da578081fd5b81356119ee8161370e565b600080604083850312156132f7578081fd5b823567ffffffffffffffff8082111561330e578283fd5b818501915085601f830112613321578283fd5b8135602061333161327183613609565b8083825282820191508286018a848660051b8901011115613350578788fd5b8796505b8487101561337b5780356133678161370e565b835260019690960195918301918301613354565b5096505086013592505080821115613391578283fd5b5061339e85828601613251565b9150509250929050565b6000602082840312156133b9578081fd5b81516119ee81613723565b600080604083850312156133d6578182fd5b82356133e18161370e565b915060208301356133f18161370e565b809150509250929050565b6000806040838503121561340e578182fd5b82356134198161370e565b946020939093013593505050565b600060208284031215613438578081fd5b5035919050565b600060208284031215613450578081fd5b5051919050565b60008060408385031215613469578182fd5b50508035926020909101359150565b6000825161348a81846020870161369b565b9190910192915050565b6001600160a01b03929092168252602082015260400190565b6020808252825182820181905260009190848201906040850190845b818110156134ee5783516001600160a01b0316835292840192918401916001016134c9565b50909695505050505050565b604080825283519082018190526000906020906060840190828701845b8281101561353c5781516001600160a01b031684529284019290840190600101613517565b50505083810382850152845180825285830191830190845b818110156132bc57835183529284019291840191600101613554565b602081526000825180602084015261358f81604085016020870161369b565b601f01601f19169190910160400192915050565b6020808252818101527f4f776e61626c653a2063616c6c6572206973206e6f7420746865206f776e6572604082015260600190565b604051601f8201601f1916810167ffffffffffffffff81118282101715613601576136016136f8565b604052919050565b600067ffffffffffffffff821115613623576136236136f8565b5060051b60200190565b60008219821115613640576136406136e2565b500190565b60008261366057634e487b7160e01b81526012600452602481fd5b500490565b600081600019048311821515161561367f5761367f6136e2565b500290565b600082821015613696576136966136e2565b500390565b60005b838110156136b657818101518382015260200161369e565b83811115611c8f5750506000910152565b60006000198214156136db576136db6136e2565b5060010190565b634e487b7160e01b600052601160045260246000fd5b634e487b7160e01b600052604160045260246000fd5b6001600160a01b03811681146117b457600080fd5b80151581146117b457600080fdfea264697066735822122052492615c669f91e18049ca6579ef49f2d25809a5ad94669cee77cd8d6f13dec64736f6c63430008040033",
  "linkReferences": {},
  "deployedLinkReferences": {}
}