{
  "_format": "hh-sol-artifact-1",
  "contractName": "MarginLong",
  "sourceName": "contracts/v1/MarginLong/MarginLong.sol",
  "abi": [
    {
      "anonymous": false,
      "inputs": [
        {
          "indexed": false,
          "internalType": "address",
          "name": "token",
          "type": "address"
        }
      ],
      "name": "AddBorrowedToken",
      "type": "event"
    },
    {
      "anonymous": false,
      "inputs": [
        {
          "indexed": true,
          "internalType": "address",
          "name": "account",
          "type": "address"
        },
        {
          "indexed": false,
          "internalType": "address",
          "name": "token",
          "type": "address"
        },
        {
          "indexed": false,
          "internalType": "uint256",
          "name": "amount",
          "type": "uint256"
        }
      ],
      "name": "AddCollateral",
      "type": "event"
    },
    {
      "anonymous": false,
      "inputs": [
        {
          "indexed": false,
          "internalType": "address",
          "name": "token",
          "type": "address"
        }
      ],
      "name": "AddCollateralToken",
      "type": "event"
    },
    {
      "anonymous": false,
      "inputs": [
        {
          "indexed": true,
          "internalType": "address",
          "name": "account",
          "type": "address"
        },
        {
          "indexed": false,
          "internalType": "address",
          "name": "token",
          "type": "address"
        },
        {
          "indexed": false,
          "internalType": "uint256",
          "name": "amount",
          "type": "uint256"
        }
      ],
      "name": "Borrow",
      "type": "event"
    },
    {
      "anonymous": false,
      "inputs": [
        {
          "indexed": true,
          "internalType": "address",
          "name": "account",
          "type": "address"
        },
        {
          "indexed": false,
          "internalType": "address",
          "name": "liquidator",
          "type": "address"
        }
      ],
      "name": "Liquidated",
      "type": "event"
    },
    {
      "anonymous": false,
      "inputs": [
        {
          "indexed": true,
          "internalType": "address",
          "name": "previousOwner",
          "type": "address"
        },
        {
          "indexed": true,
          "internalType": "address",
          "name": "newOwner",
          "type": "address"
        }
      ],
      "name": "OwnershipTransferred",
      "type": "event"
    },
    {
      "anonymous": false,
      "inputs": [
        {
          "indexed": true,
          "internalType": "address",
          "name": "account",
          "type": "address"
        },
        {
          "indexed": false,
          "internalType": "address",
          "name": "token",
          "type": "address"
        },
        {
          "indexed": false,
          "internalType": "uint256",
          "name": "amount",
          "type": "uint256"
        }
      ],
      "name": "RemoveCollateral",
      "type": "event"
    },
    {
      "anonymous": false,
      "inputs": [
        {
          "indexed": true,
          "internalType": "address",
          "name": "account",
          "type": "address"
        },
        {
          "indexed": false,
          "internalType": "address",
          "name": "token",
          "type": "address"
        }
      ],
      "name": "Repay",
      "type": "event"
    },
    {
      "anonymous": false,
      "inputs": [
        {
          "indexed": true,
          "internalType": "address",
          "name": "account",
          "type": "address"
        }
      ],
      "name": "RepayAll",
      "type": "event"
    },
    {
      "anonymous": false,
      "inputs": [
        {
          "indexed": true,
          "internalType": "address",
          "name": "account",
          "type": "address"
        },
        {
          "indexed": false,
          "internalType": "address",
          "name": "resetter",
          "type": "address"
        }
      ],
      "name": "Reset",
      "type": "event"
    },
    {
      "inputs": [
        {
          "internalType": "address",
          "name": "account_",
          "type": "address"
        }
      ],
      "name": "accountPrice",
      "outputs": [
        {
          "internalType": "uint256",
          "name": "",
          "type": "uint256"
        }
      ],
      "stateMutability": "view",
      "type": "function"
    },
    {
      "inputs": [
        {
          "internalType": "address[]",
          "name": "token_",
          "type": "address[]"
        }
      ],
      "name": "addBorrowedToken",
      "outputs": [],
      "stateMutability": "nonpayable",
      "type": "function"
    },
    {
      "inputs": [
        {
          "internalType": "address",
          "name": "token_",
          "type": "address"
        },
        {
          "internalType": "uint256",
          "name": "amount_",
          "type": "uint256"
        }
      ],
      "name": "addCollateral",
      "outputs": [],
      "stateMutability": "nonpayable",
      "type": "function"
    },
    {
      "inputs": [
        {
          "internalType": "address[]",
          "name": "token_",
          "type": "address[]"
        }
      ],
      "name": "addCollateralToken",
      "outputs": [],
      "stateMutability": "nonpayable",
      "type": "function"
    },
    {
      "inputs": [
        {
          "internalType": "address",
          "name": "token_",
          "type": "address"
        },
        {
          "internalType": "uint256",
          "name": "amount_",
          "type": "uint256"
        }
      ],
      "name": "borrow",
      "outputs": [],
      "stateMutability": "nonpayable",
      "type": "function"
    },
    {
      "inputs": [
        {
          "internalType": "address",
          "name": "token_",
          "type": "address"
        },
        {
          "internalType": "address",
          "name": "account_",
          "type": "address"
        }
      ],
      "name": "borrowed",
      "outputs": [
        {
          "internalType": "uint256",
          "name": "",
          "type": "uint256"
        }
      ],
      "stateMutability": "view",
      "type": "function"
    },
    {
      "inputs": [
        {
          "internalType": "address",
          "name": "account_",
          "type": "address"
        }
      ],
      "name": "borrowedPrice",
      "outputs": [
        {
          "internalType": "uint256",
          "name": "",
          "type": "uint256"
        }
      ],
      "stateMutability": "view",
      "type": "function"
    },
    {
      "inputs": [
        {
          "internalType": "address",
          "name": "token_",
          "type": "address"
        },
        {
          "internalType": "address",
          "name": "account_",
          "type": "address"
        }
      ],
      "name": "collateral",
      "outputs": [
        {
          "internalType": "uint256",
          "name": "",
          "type": "uint256"
        }
      ],
      "stateMutability": "view",
      "type": "function"
    },
    {
      "inputs": [
        {
          "internalType": "address",
          "name": "account_",
          "type": "address"
        }
      ],
      "name": "collateralPrice",
      "outputs": [
        {
          "internalType": "uint256",
          "name": "",
          "type": "uint256"
        }
      ],
      "stateMutability": "view",
      "type": "function"
    },
    {
      "inputs": [
        {
          "internalType": "address",
          "name": "account_",
          "type": "address"
        }
      ],
      "name": "currentLeverage",
      "outputs": [
        {
          "internalType": "uint256",
          "name": "",
          "type": "uint256"
        },
        {
          "internalType": "uint256",
          "name": "",
          "type": "uint256"
        }
      ],
      "stateMutability": "view",
      "type": "function"
    },
    {
      "inputs": [],
      "name": "getBorrowingAccounts",
      "outputs": [
        {
          "internalType": "address[]",
          "name": "",
          "type": "address[]"
        }
      ],
      "stateMutability": "view",
      "type": "function"
    },
    {
      "inputs": [
        {
          "internalType": "address",
          "name": "token_",
          "type": "address"
        },
        {
          "internalType": "address",
          "name": "account_",
          "type": "address"
        }
      ],
      "name": "initialBorrowPrice",
      "outputs": [
        {
          "internalType": "uint256",
          "name": "",
          "type": "uint256"
        }
      ],
      "stateMutability": "view",
      "type": "function"
    },
    {
      "inputs": [
        {
          "internalType": "address",
          "name": "account_",
          "type": "address"
        }
      ],
      "name": "initialBorrowPrice",
      "outputs": [
        {
          "internalType": "uint256",
          "name": "",
          "type": "uint256"
        }
      ],
      "stateMutability": "view",
      "type": "function"
    },
    {
      "inputs": [
        {
          "internalType": "address",
          "name": "token_",
          "type": "address"
        },
        {
          "internalType": "address",
          "name": "account_",
          "type": "address"
        }
      ],
      "name": "initialBorrowTime",
      "outputs": [
        {
          "internalType": "uint256",
          "name": "",
          "type": "uint256"
        }
      ],
      "stateMutability": "view",
      "type": "function"
    },
    {
      "inputs": [
        {
          "internalType": "address",
          "name": "pool_",
          "type": "address"
        },
        {
          "internalType": "address",
          "name": "oracle_",
          "type": "address"
        },
        {
          "internalType": "uint256",
          "name": "minCollateralPrice_",
          "type": "uint256"
        },
        {
          "internalType": "uint256",
          "name": "maxLeverageNumerator_",
          "type": "uint256"
        },
        {
          "internalType": "uint256",
          "name": "maxLeverageDenominator_",
          "type": "uint256"
        },
        {
          "internalType": "uint256",
          "name": "liquidationFeePercentNumerator_",
          "type": "uint256"
        },
        {
          "internalType": "uint256",
          "name": "liquidationFeePercentDenominator_",
          "type": "uint256"
        }
      ],
      "name": "initialize",
      "outputs": [],
      "stateMutability": "nonpayable",
      "type": "function"
    },
    {
      "inputs": [
        {
          "internalType": "address",
          "name": "pool_",
          "type": "address"
        },
        {
          "internalType": "address",
          "name": "oracle_",
          "type": "address"
        }
      ],
      "name": "initializeMarginCore",
      "outputs": [],
      "stateMutability": "nonpayable",
      "type": "function"
    },
    {
      "inputs": [
        {
          "internalType": "uint256",
          "name": "maxLeverageNumerator_",
          "type": "uint256"
        },
        {
          "internalType": "uint256",
          "name": "maxLeverageDenominator_",
          "type": "uint256"
        }
      ],
      "name": "initializeMarginLevel",
      "outputs": [],
      "stateMutability": "nonpayable",
      "type": "function"
    },
    {
      "inputs": [
        {
          "internalType": "uint256",
          "name": "minCollateralPrice_",
          "type": "uint256"
        }
      ],
      "name": "initializeMarginLimits",
      "outputs": [],
      "stateMutability": "nonpayable",
      "type": "function"
    },
    {
      "inputs": [
        {
          "internalType": "uint256",
          "name": "liquidationFeePercentNumerator_",
          "type": "uint256"
        },
        {
          "internalType": "uint256",
          "name": "liquidationFeePercentDenominator_",
          "type": "uint256"
        }
      ],
      "name": "initializeMarginLongLiquidateCore",
      "outputs": [],
      "stateMutability": "nonpayable",
      "type": "function"
    },
    {
      "inputs": [
        {
          "internalType": "address",
          "name": "account_",
          "type": "address"
        }
      ],
      "name": "interest",
      "outputs": [
        {
          "internalType": "uint256",
          "name": "",
          "type": "uint256"
        }
      ],
      "stateMutability": "view",
      "type": "function"
    },
    {
      "inputs": [
        {
          "internalType": "address",
          "name": "token_",
          "type": "address"
        },
        {
          "internalType": "address",
          "name": "account_",
          "type": "address"
        }
      ],
      "name": "interest",
      "outputs": [
        {
          "internalType": "uint256",
          "name": "",
          "type": "uint256"
        }
      ],
      "stateMutability": "view",
      "type": "function"
    },
    {
      "inputs": [
        {
          "internalType": "address",
          "name": "token_",
          "type": "address"
        }
      ],
      "name": "isApprovedBorrowedToken",
      "outputs": [
        {
          "internalType": "bool",
          "name": "",
          "type": "bool"
        }
      ],
      "stateMutability": "view",
      "type": "function"
    },
    {
      "inputs": [
        {
          "internalType": "address",
          "name": "token_",
          "type": "address"
        }
      ],
      "name": "isApprovedCollateralToken",
      "outputs": [
        {
          "internalType": "bool",
          "name": "",
          "type": "bool"
        }
      ],
      "stateMutability": "view",
      "type": "function"
    },
    {
      "inputs": [
        {
          "internalType": "address",
          "name": "token_",
          "type": "address"
        }
      ],
      "name": "isBorrowedToken",
      "outputs": [
        {
          "internalType": "bool",
          "name": "",
          "type": "bool"
        }
      ],
      "stateMutability": "view",
      "type": "function"
    },
    {
      "inputs": [
        {
          "internalType": "address",
          "name": "token_",
          "type": "address"
        },
        {
          "internalType": "address",
          "name": "account_",
          "type": "address"
        }
      ],
      "name": "isBorrowing",
      "outputs": [
        {
          "internalType": "bool",
          "name": "",
          "type": "bool"
        }
      ],
      "stateMutability": "view",
      "type": "function"
    },
    {
      "inputs": [
        {
          "internalType": "address",
          "name": "account_",
          "type": "address"
        }
      ],
      "name": "isBorrowing",
      "outputs": [
        {
          "internalType": "bool",
          "name": "",
          "type": "bool"
        }
      ],
      "stateMutability": "view",
      "type": "function"
    },
    {
      "inputs": [
        {
          "internalType": "address",
          "name": "token_",
          "type": "address"
        }
      ],
      "name": "isCollateralToken",
      "outputs": [
        {
          "internalType": "bool",
          "name": "",
          "type": "bool"
        }
      ],
      "stateMutability": "view",
      "type": "function"
    },
    {
      "inputs": [
        {
          "internalType": "address",
          "name": "account_",
          "type": "address"
        }
      ],
      "name": "liquidatable",
      "outputs": [
        {
          "internalType": "bool",
          "name": "",
          "type": "bool"
        }
      ],
      "stateMutability": "view",
      "type": "function"
    },
    {
      "inputs": [
        {
          "internalType": "address",
          "name": "account_",
          "type": "address"
        }
      ],
      "name": "liquidateAccount",
      "outputs": [
        {
          "internalType": "address[]",
          "name": "",
          "type": "address[]"
        },
        {
          "internalType": "uint256[]",
          "name": "",
          "type": "uint256[]"
        }
      ],
      "stateMutability": "nonpayable",
      "type": "function"
    },
    {
      "inputs": [],
      "name": "liquidationFeePercent",
      "outputs": [
        {
          "internalType": "uint256",
          "name": "",
          "type": "uint256"
        },
        {
          "internalType": "uint256",
          "name": "",
          "type": "uint256"
        }
      ],
      "stateMutability": "view",
      "type": "function"
    },
    {
      "inputs": [
        {
          "internalType": "address",
          "name": "account_",
          "type": "address"
        }
      ],
      "name": "marginLevel",
      "outputs": [
        {
          "internalType": "uint256",
          "name": "",
          "type": "uint256"
        },
        {
          "internalType": "uint256",
          "name": "",
          "type": "uint256"
        }
      ],
      "stateMutability": "view",
      "type": "function"
    },
    {
      "inputs": [],
      "name": "maxLeverage",
      "outputs": [
        {
          "internalType": "uint256",
          "name": "",
          "type": "uint256"
        },
        {
          "internalType": "uint256",
          "name": "",
          "type": "uint256"
        }
      ],
      "stateMutability": "view",
      "type": "function"
    },
    {
      "inputs": [],
      "name": "minCollateralPrice",
      "outputs": [
        {
          "internalType": "uint256",
          "name": "",
          "type": "uint256"
        }
      ],
      "stateMutability": "view",
      "type": "function"
    },
    {
      "inputs": [],
      "name": "minMarginLevel",
      "outputs": [
        {
          "internalType": "uint256",
          "name": "",
          "type": "uint256"
        },
        {
          "internalType": "uint256",
          "name": "",
          "type": "uint256"
        }
      ],
      "stateMutability": "view",
      "type": "function"
    },
    {
      "inputs": [],
      "name": "oracle",
      "outputs": [
        {
          "internalType": "address",
          "name": "",
          "type": "address"
        }
      ],
      "stateMutability": "view",
      "type": "function"
    },
    {
      "inputs": [],
      "name": "owner",
      "outputs": [
        {
          "internalType": "address",
          "name": "",
          "type": "address"
        }
      ],
      "stateMutability": "view",
      "type": "function"
    },
    {
      "inputs": [],
      "name": "pool",
      "outputs": [
        {
          "internalType": "address",
          "name": "",
          "type": "address"
        }
      ],
      "stateMutability": "view",
      "type": "function"
    },
    {
      "inputs": [
        {
          "internalType": "address",
          "name": "token_",
          "type": "address"
        },
        {
          "internalType": "uint256",
          "name": "amount_",
          "type": "uint256"
        }
      ],
      "name": "removeCollateral",
      "outputs": [],
      "stateMutability": "nonpayable",
      "type": "function"
    },
    {
      "inputs": [],
      "name": "renounceOwnership",
      "outputs": [],
      "stateMutability": "nonpayable",
      "type": "function"
    },
    {
      "inputs": [
        {
          "internalType": "address",
          "name": "token_",
          "type": "address"
        }
      ],
      "name": "repayAccount",
      "outputs": [],
      "stateMutability": "nonpayable",
      "type": "function"
    },
    {
      "inputs": [],
      "name": "repayAccount",
      "outputs": [],
      "stateMutability": "nonpayable",
      "type": "function"
    },
    {
      "inputs": [
        {
          "internalType": "address",
          "name": "account_",
          "type": "address"
        }
      ],
      "name": "resetAccount",
      "outputs": [
        {
          "internalType": "address[]",
          "name": "",
          "type": "address[]"
        },
        {
          "internalType": "uint256[]",
          "name": "",
          "type": "uint256[]"
        }
      ],
      "stateMutability": "nonpayable",
      "type": "function"
    },
    {
      "inputs": [
        {
          "internalType": "address",
          "name": "account_",
          "type": "address"
        }
      ],
      "name": "resettable",
      "outputs": [
        {
          "internalType": "bool",
          "name": "",
          "type": "bool"
        }
      ],
      "stateMutability": "view",
      "type": "function"
    },
    {
      "inputs": [
        {
          "internalType": "address[]",
          "name": "token_",
          "type": "address[]"
        },
        {
          "internalType": "bool[]",
          "name": "approved_",
          "type": "bool[]"
        }
      ],
      "name": "setApprovedBorrowedToken",
      "outputs": [],
      "stateMutability": "nonpayable",
      "type": "function"
    },
    {
      "inputs": [
        {
          "internalType": "address[]",
          "name": "token_",
          "type": "address[]"
        },
        {
          "internalType": "bool[]",
          "name": "approved_",
          "type": "bool[]"
        }
      ],
      "name": "setApprovedCollateralToken",
      "outputs": [],
      "stateMutability": "nonpayable",
      "type": "function"
    },
    {
      "inputs": [
        {
          "internalType": "uint256",
          "name": "liquidationFeePercentNumerator_",
          "type": "uint256"
        },
        {
          "internalType": "uint256",
          "name": "liquidationFeePercentDenominator_",
          "type": "uint256"
        }
      ],
      "name": "setLiquidationFeePercent",
      "outputs": [],
      "stateMutability": "nonpayable",
      "type": "function"
    },
    {
      "inputs": [
        {
          "internalType": "uint256",
          "name": "maxLeverageNumerator_",
          "type": "uint256"
        },
        {
          "internalType": "uint256",
          "name": "maxLeverageDenominator_",
          "type": "uint256"
        }
      ],
      "name": "setMaxLeverage",
      "outputs": [],
      "stateMutability": "nonpayable",
      "type": "function"
    },
    {
      "inputs": [
        {
          "internalType": "uint256",
          "name": "minCollateralPrice_",
          "type": "uint256"
        }
      ],
      "name": "setMinCollateralPrice",
      "outputs": [],
      "stateMutability": "nonpayable",
      "type": "function"
    },
    {
      "inputs": [
        {
          "internalType": "address",
          "name": "oracle_",
          "type": "address"
        }
      ],
      "name": "setOracle",
      "outputs": [],
      "stateMutability": "nonpayable",
      "type": "function"
    },
    {
      "inputs": [
        {
          "internalType": "address",
          "name": "pool_",
          "type": "address"
        }
      ],
      "name": "setPool",
      "outputs": [],
      "stateMutability": "nonpayable",
      "type": "function"
    },
    {
      "inputs": [
        {
          "internalType": "address",
          "name": "account_",
          "type": "address"
        }
      ],
      "name": "sufficientCollateralPrice",
      "outputs": [
        {
          "internalType": "bool",
          "name": "",
          "type": "bool"
        }
      ],
      "stateMutability": "view",
      "type": "function"
    },
    {
      "inputs": [
        {
          "internalType": "address",
          "name": "token_",
          "type": "address"
        }
      ],
      "name": "totalBorrowed",
      "outputs": [
        {
          "internalType": "uint256",
          "name": "",
          "type": "uint256"
        }
      ],
      "stateMutability": "view",
      "type": "function"
    },
    {
      "inputs": [
        {
          "internalType": "address",
          "name": "token_",
          "type": "address"
        }
      ],
      "name": "totalCollateral",
      "outputs": [
        {
          "internalType": "uint256",
          "name": "",
          "type": "uint256"
        }
      ],
      "stateMutability": "view",
      "type": "function"
    },
    {
      "inputs": [
        {
          "internalType": "address",
          "name": "newOwner",
          "type": "address"
        }
      ],
      "name": "transferOwnership",
      "outputs": [],
      "stateMutability": "nonpayable",
      "type": "function"
    }
  ],
  "bytecode": "0x608060405234801561001057600080fd5b50614552806100206000396000f3fe608060405234801561001057600080fd5b50600436106103425760003560e01c80637e773d01116101b8578063ca3134f611610104578063e2e1ca2b116100a2578063f5af8d111161007c578063f5af8d1114610737578063f75958f41461074a578063ff8dd7b21461075d578063ffec70af1461077057600080fd5b8063e2e1ca2b146106fe578063edbf4ac214610711578063f2fde38b1461072457600080fd5b8063d65e6b0b116100de578063d65e6b0b146106b2578063d8459b45146106c5578063dd90a6bf146106d8578063de96f393146106eb57600080fd5b8063ca3134f614610679578063cc218ece1461068c578063d3eec4041461069f57600080fd5b8063a05aac3c11610171578063ae3302c21161014b578063ae3302c214610638578063b0a02abe14610640578063b21ae0d114610653578063b64c74041461066657600080fd5b8063a05aac3c1461060a578063a831e7ec1461061d578063ac436bdf1461062557600080fd5b80637e773d0114610596578063813c23021461059f578063876467f8146105b25780638ac5d4a3146105c55780638da5cb5b146105e6578063916b6c5b146105f757600080fd5b80634b8a352911610292578063706f1ada116102305780637adbf9731161020a5780637adbf9731461054a5780637cc357281461055d5780637dc0d1d0146105705780637e059b221461058357600080fd5b8063706f1ada1461051c578063715018a61461052f578063749af1d61461053757600080fd5b806362132cbb1161026c57806362132cbb146104ce5780636847e50b146104e15780636c3065e3146104f65780636d75b9ee1461050957600080fd5b80634b8a3529146104855780634eb720121461049857806350711be9146104a057600080fd5b806316f0115b116102ff57806325b69c0c116102d957806325b69c0c1461042f5780632dbaacdc1461044c5780634437152a1461045f5780634766162c1461047257600080fd5b806316f0115b146103de578063172fc1f2146104095780631b37d19d1461041c57600080fd5b806303f5aaad1461034757806307a48b0d1461036f57806308b1cb231461039057806313d8649b146103a357806314ace5bb146103b657806315442a0e146103cb575b600080fd5b61035a610355366004613e1e565b610783565b60405190151581526020015b60405180910390f35b61038261037d366004613e51565b6107c9565b604051908152602001610366565b61038261039e366004613e51565b61081e565b61035a6103b1366004613e51565b61090b565b6103c96103c4366004613e6c565b610929565b005b6103c96103d9366004613f6b565b61095e565b6065546103f1906001600160a01b031681565b6040516001600160a01b039091168152602001610366565b61035a610417366004613e51565b610aa2565b6103c961042a366004613fae565b610ab8565b610437610b9c565b60408051928352602083019190915201610366565b61035a61045a366004613e51565b610bf3565b6103c961046d366004613e51565b610c29565b61035a610480366004613e51565b610c75565b6103c9610493366004614072565b610c93565b610437611020565b61035a6104ae366004613e51565b6001600160a01b03166000908152606d6020526040902060090154151590565b6103c96104dc366004613e6c565b611045565b6104e961107a565b60405161036691906140e0565b6103c9610504366004613f6b565b61108b565b6103c9610517366004614072565b6111cb565b61038261052a366004613e1e565b61133e565b6103c9611398565b61035a610545366004613e51565b6113ce565b6103c9610558366004613e51565b6113ff565b61043761056b366004613e51565b61144b565b6066546103f1906001600160a01b031681565b610382610591366004613e51565b611472565b61038260705481565b6104376105ad366004613e51565b6114b7565b6103c96105c0366004614072565b6114e5565b6105d86105d3366004613e51565b611708565b6040516103669291906140f3565b6033546001600160a01b03166103f1565b6103c9610605366004613e51565b6117eb565b6103c9610618366004613e1e565b611958565b6103c9611a03565b610382610633366004613e51565b611abe565b610437611b1a565b61038261064e366004613e1e565b611b3f565b6103c9610661366004613e6c565b611b99565b610382610674366004613e51565b611c16565b6105d8610687366004613e51565b611c6b565b61038261069a366004613e1e565b611d25565b6103c96106ad36600461414a565b611d7f565b6103c96106c036600461414a565b611dae565b6103826106d3366004613e51565b611e25565b61035a6106e6366004613e51565b611f0d565b6103c96106f9366004613e6c565b611f3e565b61038261070c366004613e51565b611fbb565b6103c961071f366004614163565b612000565b6103c9610732366004613e51565b6120a0565b610382610745366004613e1e565b61213b565b610382610758366004613e1e565b612248565b6103c961076b366004613fae565b6122a2565b61035a61077e366004613e51565b612381565b60008261078f8161090b565b6107b45760405162461bcd60e51b81526004016107ab906141c1565b60405180910390fd5b60006107c08585611b3f565b11949350505050565b6000806107d58361081e565b905060006107e284611c16565b905060006107ef85611e25565b905060006107fc86611abe565b90506108148161080e858188876123fa565b9061240d565b9695505050505050565b6001600160a01b0381166000908152606d6020526040812081805b60018301548110156109035760006108518483612419565b6066549091506000906001600160a01b031663b1d5e1b983610873818b611d25565b6040518363ffffffff1660e01b8152600401610890929190614211565b60206040518083038186803b1580156108a857600080fd5b505afa1580156108bc573d6000803e3d6000fd5b505050506040513d601f19601f820116820180604052508101906108e0919061422a565b90506108ec84826123fa565b9350505080806108fb90614259565b915050610839565b509392505050565b6001600160a01b031660009081526068602052604090205460ff1690565b6033546001600160a01b031633146109535760405162461bcd60e51b81526004016107ab90614274565b607391909155607455565b6033546001600160a01b031633146109885760405162461bcd60e51b81526004016107ab90614274565b60005b8151811015610a9e57606760008383815181106109aa576109aa6142a9565b6020908102919091018101516001600160a01b031682528101919091526040016000205460ff16610a8c576001606760008484815181106109ed576109ed6142a9565b60200260200101516001600160a01b03166001600160a01b0316815260200190815260200160002060006101000a81548160ff0219169083151502179055507f7c3f95f8569977586927f95930461a261e2121e326fcb513242f9e5c8b8ea6dc828281518110610a5f57610a5f6142a9565b6020026020010151604051610a8391906001600160a01b0391909116815260200190565b60405180910390a15b80610a9681614259565b91505061098b565b5050565b6000607054610ab08361081e565b101592915050565b6033546001600160a01b03163314610ae25760405162461bcd60e51b81526004016107ab90614274565b60005b8251811015610b9757610b10838281518110610b0357610b036142a9565b6020026020010151610c75565b15610b8557818181518110610b2757610b276142a9565b602002602001015160696000858481518110610b4557610b456142a9565b60200260200101516001600160a01b03166001600160a01b0316815260200190815260200160002060006101000a81548160ff0219169083151502179055505b80610b8f81614259565b915050610ae5565b505050565b60408051808201909152606e548152606f5460208201526000908190610beb90610be690610bd590610bcf60018061244c565b906124d4565b610be060018061244c565b906125c9565b612663565b915091509091565b6001600160a01b0381166000908152606d602052604081206009015415158015610c235750610c2182610aa2565b155b92915050565b6033546001600160a01b03163314610c535760405162461bcd60e51b81526004016107ab90614274565b606580546001600160a01b0319166001600160a01b0392909216919091179055565b6001600160a01b031660009081526067602052604090205460ff1690565b81610c9d81611f0d565b610d0f5760405162461bcd60e51b815260206004820152603960248201527f4d617267696e417070726f7665643a204f6e6c7920617070726f76656420626f60448201527f72726f77656420746f6b656e73206d617920626520757365640000000000000060648201526084016107ab565b60008211610d855760405162461bcd60e51b815260206004820152603860248201527f4d617267696e4c6f6e67426f72726f773a20416d6f756e7420626f72726f776560448201527f64206d7573742062652067726561746572207468616e2030000000000000000060648201526084016107ab565b610d8f8333610783565b610d9c57610d9c3361269c565b610dd883610daa813361213b565b336000908152606d602090815260408083206001600160a01b03959095168352600890940190529190912055565b336000908152606d602090815260408083206001600160a01b03871684526007019091529020429055606554604051635569f64b60e11b81526001600160a01b039091169063aad3ec9690610e339086908690600401614211565b600060405180830381600087803b158015610e4d57600080fd5b505af1158015610e61573d6000803e3d6000fd5b50505050610e8483610e7e84610e788761064e3390565b906123fa565b336126a7565b60665460405163b1d5e1b960e01b81526000916001600160a01b03169063b1d5e1b990610eb79087908790600401614211565b60206040518083038186803b158015610ecf57600080fd5b505afa158015610ee3573d6000803e3d6000fd5b505050506040513d601f19601f82011682018060405250810190610f07919061422a565b9050610f4984610f1b83610e78833361133e565b336000908152606d602090815260408083206001600160a01b03959095168352600690940190529190912055565b610f5233610bf3565b158015610f655750610f6333612381565b155b610fd75760405162461bcd60e51b815260206004820152603f60248201527f4d617267696e4c6f6e67426f72726f773a20426f72726f77696e67206465736960448201527f72656420616d6f756e742070757473206163636f756e74206174207269736b0060648201526084016107ab565b336001600160a01b03167f312a5e5e1079f5dda4e95dbbd0b908b291fd5b992ef22073643ab691572c5b528585604051611012929190614211565b60405180910390a250505050565b60408051808201909152607354815260745460208201526000908190610beb90612663565b6033546001600160a01b0316331461106f5760405162461bcd60e51b81526004016107ab90614274565b606e91909155606f55565b606061108660716127c5565b905090565b6033546001600160a01b031633146110b55760405162461bcd60e51b81526004016107ab90614274565b60005b8151811015610a9e57606860008383815181106110d7576110d76142a9565b6020908102919091018101516001600160a01b031682528101919091526040016000205460ff166111b95760016068600084848151811061111a5761111a6142a9565b60200260200101516001600160a01b03166001600160a01b0316815260200190815260200160002060006101000a81548160ff0219169083151502179055507f482a937f25f20894d76d1492cb3345294b2d882b2e90e02486f9da3c893e792382828151811061118c5761118c6142a9565b60200260200101516040516111b091906001600160a01b0391909116815260200190565b60405180910390a15b806111c381614259565b9150506110b8565b816111d5816113ce565b6112475760405162461bcd60e51b815260206004820152603b60248201527f4d617267696e417070726f7665643a204f6e6c7920617070726f76656420636f60448201527f6c6c61746572616c20746f6b656e73206d61792062652075736564000000000060648201526084016107ab565b600082116112c95760405162461bcd60e51b815260206004820152604360248201527f4d617267696e436f6c6c61746572616c3a20416d6f756e74206164646564206160448201527f7320636f6c6c61746572616c206d75737420626520677265617465722074686160648201526206e20360ec1b608482015260a4016107ab565b6112de6001600160a01b03841633308561282b565b6112f6836112f084610e788333611d25565b3361289c565b336001600160a01b03167fa32435755c235de2976ed44a75a2f85cb01faf0c894f639fe0c32bb9455fea8f8484604051611331929190614211565b60405180910390a2505050565b60008261134a8161090b565b6113665760405162461bcd60e51b81526004016107ab906141c1565b50506001600160a01b039081166000908152606d60209081526040808320949093168252600690930190925290205490565b6033546001600160a01b031633146113c25760405162461bcd60e51b81526004016107ab90614274565b6113cc600061297a565b565b60006113d982610c75565b8015610c235750506001600160a01b031660009081526069602052604090205460ff1690565b6033546001600160a01b031633146114295760405162461bcd60e51b81526004016107ab90614274565b606680546001600160a01b0319166001600160a01b0392909216919091179055565b600080600061145984611c16565b90506000611466856107c9565b91959194509092505050565b60008161147e81610c75565b61149a5760405162461bcd60e51b81526004016107ab906142bf565b50506001600160a01b03166000908152606c602052604090205490565b6000806000806114c68561144b565b915091506114da610be6610bd5838561244c565b935093505050915091565b816114ef81610c75565b61150b5760405162461bcd60e51b81526004016107ab906142bf565b6000821161158c5760405162461bcd60e51b815260206004820152604260248201527f4d617267696e436f6c6c61746572616c3a20436f6c6c61746572616c20616d6f60448201527f756e742072656d6f766564206d7573742062652067726561746572207468616e606482015261020360f41b608482015260a4016107ab565b6115968333611d25565b82111561160b5760405162461bcd60e51b815260206004820152603e60248201527f4d617267696e436f6c6c61746572616c3a2043616e6e6f742072656d6f76652060448201527f6d6f7265207468616e20617661696c61626c6520636f6c6c61746572616c000060648201526084016107ab565b61161d836112f08461080e8333611d25565b61162633610bf3565b158015611639575061163733612381565b155b6116b95760405162461bcd60e51b815260206004820152604560248201527f4d617267696e436f6c6c61746572616c3a205769746864726177696e6720646560448201527f736972656420636f6c6c61746572616c2070757473206163636f756e74206174606482015264207269736b60d81b608482015260a4016107ab565b6116cd6001600160a01b03841633846129cc565b336001600160a01b03167f367be65505e5aff90e7e646744b5f75280ec6d79a0e78690f6020b875a03bc128484604051611331929190614211565b60608061171483612381565b61177f5760405162461bcd60e51b815260206004820152603660248201527f4d617267696e4c6f6e674c69717569646174653a2054686973206163636f756e6044820152751d0818d85b9b9bdd081899481b1a5c5d5a59185d195960521b60648201526084016107ab565b60008061178c85336129eb565b9150915061179985612b4d565b6001600160a01b0385167facd74f5a0eb0d086de0eebe2d1e70d5742838c88cb2cf492fc201d39e056f7e0335b6040516001600160a01b03909116815260200160405180910390a29094909350915050565b806117f58161090b565b6118115760405162461bcd60e51b81526004016107ab906141c1565b61181b8233610783565b61188f576040805162461bcd60e51b81526020600482015260248101919091527f4d617267696e4c6f6e6752657061793a2043616e6e6f7420726570617920616360448201527f636f756e742077697468206e6f206c657665726167656420706f736974696f6e60648201526084016107ab565b6118998233612b5f565b6118a233610bf3565b156119155760405162461bcd60e51b815260206004820152603760248201527f4d617267696e4c6f6e6752657061793a205265706179696e6720706f7369746960448201527f6f6e2070757473206163636f756e74206174207269736b00000000000000000060648201526084016107ab565b604080516001600160a01b0384168152905133917f7d361c02aa3e26ac9383eca42a9b4f42433e252882bfb806e8b76869b815250f919081900360200190a25050565b600054610100900460ff166119735760005460ff1615611977565b303b155b6119935760405162461bcd60e51b81526004016107ab90614311565b600054610100900460ff161580156119b5576000805461ffff19166101011790555b6119bd612b82565b606580546001600160a01b038086166001600160a01b03199283161790925560668054928516929091169190911790558015610b97576000805461ff0019169055505050565b611a0c336104ae565b611a885760405162461bcd60e51b815260206004820152604160248201527f4d617267696e4c6f6e6752657061793a2043616e6e6f7420726570617920616360448201527f636f756e742077697468206e6f206c657665726167656420706f736974696f6e6064820152607360f81b608482015260a4016107ab565b611a9133612bb9565b60405133907f2a5e2bc4fa361e17232a0638ac48c9dd4aed21e3241a5bac60bb30f4d505344690600090a2565b600080611aca83612bcb565b90506000805b825181101561090357611b06611aff848381518110611af157611af16142a9565b60200260200101518761213b565b83906123fa565b915080611b1281614259565b915050611ad0565b60408051808201909152606e548152606f5460208201526000908190610beb90612663565b600082611b4b8161090b565b611b675760405162461bcd60e51b81526004016107ab906141c1565b50506001600160a01b039081166000908152606d60209081526040808320949093168252600590930190925290205490565b600054610100900460ff16611bb45760005460ff1615611bb8565b303b155b611bd45760405162461bcd60e51b81526004016107ab90614311565b600054610100900460ff16158015611bf6576000805461ffff19166101011790555b607383905560748290558015610b97576000805461ff0019169055505050565b600080611c2283612bcb565b90506000805b825181101561090357611c57611aff848381518110611c4957611c496142a9565b60200260200101518761133e565b915080611c6381614259565b915050611c28565b606080611c7783610bf3565b611cd95760405162461bcd60e51b815260206004820152602d60248201527f4d617267696e4c6f6e6752657061793a2054686973206163636f756e7420636160448201526c1b9b9bdd081899481c995cd95d609a1b60648201526084016107ab565b611ce283612bb9565b600080611cef85336129eb565b91509150846001600160a01b03167fa5df7b378f5dbf7c276ac35d5314c533b2fa1d772a893f471c41481862ec93db6117c63390565b600082611d3181610c75565b611d4d5760405162461bcd60e51b81526004016107ab906142bf565b50506001600160a01b039081166000908152606d60209081526040808320949093168252600290930190925290205490565b6033546001600160a01b03163314611da95760405162461bcd60e51b81526004016107ab90614274565b607055565b600054610100900460ff16611dc95760005460ff1615611dcd565b303b155b611de95760405162461bcd60e51b81526004016107ab90614311565b600054610100900460ff16158015611e0b576000805461ffff19166101011790555b60708290558015610a9e576000805461ff00191690555050565b6001600160a01b0381166000908152606d6020526040812081805b6004830154811015610903576000611e5b6003850183612419565b6066549091506000906001600160a01b031663b1d5e1b983611e7d818b611b3f565b6040518363ffffffff1660e01b8152600401611e9a929190614211565b60206040518083038186803b158015611eb257600080fd5b505afa158015611ec6573d6000803e3d6000fd5b505050506040513d601f19601f82011682018060405250810190611eea919061422a565b9050611ef684826123fa565b935050508080611f0590614259565b915050611e40565b6000611f188261090b565b8015610c235750506001600160a01b03166000908152606a602052604090205460ff1690565b600054610100900460ff16611f595760005460ff1615611f5d565b303b155b611f795760405162461bcd60e51b81526004016107ab90614311565b600054610100900460ff16158015611f9b576000805461ffff19166101011790555b606e839055606f8290558015610b97576000805461ff0019169055505050565b600081611fc78161090b565b611fe35760405162461bcd60e51b81526004016107ab906141c1565b50506001600160a01b03166000908152606b602052604090205490565b600054610100900460ff1661201b5760005460ff161561201f565b303b155b61203b5760405162461bcd60e51b81526004016107ab90614311565b600054610100900460ff1615801561205d576000805461ffff19166101011790555b6120678888611958565b6120718585611f3e565b61207a86611dae565b6120848383611b99565b8015612096576000805461ff00191690555b5050505050505050565b6033546001600160a01b031633146120ca5760405162461bcd60e51b81526004016107ab90614274565b6001600160a01b03811661212f5760405162461bcd60e51b815260206004820152602660248201527f4f776e61626c653a206e6577206f776e657220697320746865207a65726f206160448201526564647265737360d01b60648201526084016107ab565b6121388161297a565b50565b6000826121478161090b565b6121635760405162461bcd60e51b81526004016107ab906141c1565b606554612240906001600160a01b031663d0b9622c86612183818861133e565b61218d8989612248565b6040516001600160e01b031960e086901b1681526001600160a01b0390931660048401526024830191909152604482015260640160206040518083038186803b1580156121d957600080fd5b505afa1580156121ed573d6000803e3d6000fd5b505050506040513d601f19601f82011682018060405250810190612211919061422a565b6001600160a01b038086166000908152606d60209081526040808320938a168352600890930190522054610e78565b949350505050565b6000826122548161090b565b6122705760405162461bcd60e51b81526004016107ab906141c1565b50506001600160a01b039081166000908152606d60209081526040808320949093168252600790930190925290205490565b6033546001600160a01b031633146122cc5760405162461bcd60e51b81526004016107ab90614274565b60005b8251811015610b97576122fa8382815181106122ed576122ed6142a9565b602002602001015161090b565b1561236f57818181518110612311576123116142a9565b6020026020010151606a600085848151811061232f5761232f6142a9565b60200260200101516001600160a01b03166001600160a01b0316815260200190815260200160002060006101000a81548160ff0219169083151502179055505b8061237981614259565b9150506122cf565b6001600160a01b0381166000908152606d60205260408120600901546123a957506000919050565b6000806123b5846114b7565b9150915060006123c5838361244c565b90506000806123d2610b9c565b9150915060006123e2838361244c565b90506123ee8482612bf2565b98975050505050505050565b6000612406828461435f565b9392505050565b60006124068284614377565b6000826001018281548110612430576124306142a9565b6000918252602090912001546001600160a01b03169392505050565b6040805180820190915260008082526020820152816124be5760405162461bcd60e51b815260206004820152602860248201527f4672616374696f6e4d6174683a2044656e6f6d696e61746f722063616e6e6f7460448201526720657175616c206f60c01b60648201526084016107ab565b5060408051808201909152918252602082015290565b60408051808201909152600080825260208201528280602001516000141561250e5760405162461bcd60e51b81526004016107ab9061438e565b828060200151600014156125345760405162461bcd60e51b81526004016107ab9061438e565b83516125995760405162461bcd60e51b815260206004820152602e60248201527f4672616374696f6e4d6174683a204469766973696f72206672616374696f6e2060448201526d063616e6e6f7420657175616c20360941b60648201526084016107ab565b602084015185516125a991612c6a565b8352835160208601516125bb91612c6a565b602084015250909392505050565b6040805180820190915260008082526020820152828060200151600014156126035760405162461bcd60e51b81526004016107ab9061438e565b828060200151600014156126295760405162461bcd60e51b81526004016107ab9061438e565b6020850151845161264e9161263e9190612c6a565b60208601518751610e7891612c6a565b8352602080850151908601516125bb91612c6a565b6000808280602001516000141561268c5760405162461bcd60e51b81526004016107ab9061438e565b5050815160209092015191929050565b612138607182612c76565b6001600160a01b0381166000908152606d602052604090206126cc6003820185612d3c565b1580156126d857508215155b156126ef576126ea6003820185612c76565b612718565b6126fc6003820185612d3c565b8015612706575082155b15612718576127186003820185612d9d565b6127708461275485610e788560050160008a6001600160a01b03166001600160a01b031681526020019081526020016000205461080e8a611fbb565b6001600160a01b039091166000908152606b6020526040902055565b6001600160a01b0384166000908152600582016020526040902054600982015461279f918591610e789161240d565b60098201556001600160a01b039093166000908152600590930160205250604090912055565b60608160010180548060200260200160405190810160405280929190818152602001828054801561281f57602002820191906000526020600020905b81546001600160a01b03168152600190910190602001808311612801575b50505050509050919050565b6040516001600160a01b03808516602483015283166044820152606481018290526128969085906323b872dd60e01b906084015b60408051601f198184030181529190526020810180516001600160e01b03166001600160e01b031990931692909217909152612eed565b50505050565b6001600160a01b0381166000908152606d602052604090206128be8185612d3c565b1580156128ca57508215155b156128de576128d98185612c76565b612901565b6128e88185612d3c565b80156128f2575082155b15612901576129018185612d9d565b6129598461293d85610e788560020160008a6001600160a01b03166001600160a01b031681526020019081526020016000205461080e8a611472565b6001600160a01b039091166000908152606c6020526040902055565b6001600160a01b039093166000908152600290930160205250604090912055565b603380546001600160a01b038381166001600160a01b0319831681179093556040519116919082907f8be0079c531659141344cd1fd0a4f28419497f9722a3daafe3b4186f6b6457e090600090a35050565b610b978363a9059cbb60e01b848460405160240161285f929190614211565b60608060006129f985612fbf565b90506000815167ffffffffffffffff811115612a1757612a17613e8e565b604051908082528060200260200182016040528015612a40578160200160208202803683370190505b50905060005b8251811015612b41576000612a74848381518110612a6657612a666142a9565b602002602001015189611d25565b9050600080612a81611020565b90925090506000612a9c82612a968686612c6a565b90612fe3565b9050612ad4878681518110612ab357612ab36142a9565b6020026020010151612ace838761240d90919063ffffffff16565b8d61289c565b80868681518110612ae757612ae76142a9565b602002602001018181525050612b2a8a82898881518110612b0a57612b0a6142a9565b60200260200101516001600160a01b03166129cc9092919063ffffffff16565b505050508080612b3990614259565b915050612a46565b50909590945092505050565b612b5681612fef565b61213881613056565b612b6982826130a4565b15612b7857610a9e8282613166565b610a9e82826131fa565b600054610100900460ff16612ba95760405162461bcd60e51b81526004016107ab906143e2565b612bb1613287565b6113cc6132ae565b612bc2816132de565b61213881613354565b6001600160a01b0381166000908152606d60205260409020606090610c23906003016127c5565b600082806020015160001415612c1a5760405162461bcd60e51b81526004016107ab9061438e565b82806020015160001415612c405760405162461bcd60e51b81526004016107ab9061438e565b60208501518451612c5091612c6a565b60208501518651612c6091612c6a565b1095945050505050565b6000612406828461442d565b612c808282612d3c565b15612ce45760405162461bcd60e51b815260206004820152602e60248201527f416464726573735365743a204164647265737320616c7265616479206578697360448201526d3a399034b7103a34329039b2ba1760911b60648201526084016107ab565b6001828101805480830182556000828152602090200180546001600160a01b0319166001600160a01b03851617905554612d1e9190614377565b6001600160a01b039091166000908152602092909252604090912055565b6001820154600090612d5057506000610c23565b6001600160a01b0382166000818152602085905260409020546001850180549091908110612d8057612d806142a9565b6000918252602090912001546001600160a01b0316149392505050565b612da78282612d3c565b612e0a5760405162461bcd60e51b815260206004820152602e60248201527f416464726573735365743a204164647265737320646f6573206e6f742065786960448201526d39ba1034b7103a34329039b2ba1760911b60648201526084016107ab565b60018281018054600092612e1d91614377565b81548110612e2d57612e2d6142a9565b60009182526020808320909101546001600160a01b03858116845291869052604080842054929091168084529220819055600185018054929350909183919083908110612e7c57612e7c6142a9565b600091825260208083209190910180546001600160a01b0319166001600160a01b03948516179055918516815290859052604081205560018401805480612ec557612ec561444c565b600082815260209020810160001990810180546001600160a01b031916905501905550505050565b6000612f42826040518060400160405280602081526020017f5361666545524332303a206c6f772d6c6576656c2063616c6c206661696c6564815250856001600160a01b03166134219092919063ffffffff16565b805190915015610b975780806020019051810190612f609190614462565b610b975760405162461bcd60e51b815260206004820152602a60248201527f5361666545524332303a204552433230206f7065726174696f6e20646964206e6044820152691bdd081cdd58d8d9595960b21b60648201526084016107ab565b6001600160a01b0381166000908152606d60205260409020606090610c23906127c5565b6000612406828461447f565b6000612ffa82612fbf565b9050600061300783613430565b905061301382826134e5565b60005b825181101561289657613044838281518110613034576130346142a9565b602002602001015160008661289c565b8061304e81614259565b915050613016565b600061306182612bcb565b905060005b8151811015610b9757613092828281518110613084576130846142a9565b60200260200101518461361f565b8061309c81614259565b915050613066565b60665460009081906001600160a01b031663b1d5e1b9856130c58187611b3f565b6040518363ffffffff1660e01b81526004016130e2929190614211565b60206040518083038186803b1580156130fa57600080fd5b505afa15801561310e573d6000803e3d6000fd5b505050506040513d601f19601f82011682018060405250810190613132919061422a565b90506000613140858561133e565b9050600061314e868661213b565b905061315a82826123fa565b90921195945050505050565b60006131728383613705565b905061317e838361361f565b60655460405163f3fef3a360e01b81526001600160a01b039091169063f3fef3a3906131b09086908590600401614211565b600060405180830381600087803b1580156131ca57600080fd5b505af11580156131de573d6000803e3d6000fd5b50505050610b97836131f483610e788787611d25565b8461289c565b600061320582612fbf565b90506000815167ffffffffffffffff81111561322357613223613e8e565b60405190808252806020026020018201604052801561324c578160200160208202803683370190505b509050600061325b858561383f565b905061326b8185858560006138f9565b5061327683836134e5565b613280858561361f565b5050505050565b600054610100900460ff166113cc5760405162461bcd60e51b81526004016107ab906143e2565b600054610100900460ff166132d55760405162461bcd60e51b81526004016107ab906143e2565b6113cc3361297a565b60006132e982612bcb565b905060005b8151811015610b975761331a82828151811061330c5761330c6142a9565b6020026020010151846130a4565b1561334257613342828281518110613334576133346142a9565b602002602001015184613166565b8061334c81614259565b9150506132ee565b600061335f82612bcb565b9050600061336c83612fbf565b90506000815167ffffffffffffffff81111561338a5761338a613e8e565b6040519080825280602002602001820160405280156133b3578160200160208202803683370190505b5090506000805b845181101561340d5760006133e88683815181106133da576133da6142a9565b60200260200101518861383f565b90506133f781888787876138f9565b925050808061340590614259565b9150506133ba565b5061341883836134e5565b61328085613056565b60606122408484600085613b83565b6060600061343d83612fbf565b90506000815167ffffffffffffffff81111561345b5761345b613e8e565b604051908082528060200260200182016040528015613484578160200160208202803683370190505b50905060005b8251811015610903576134b68382815181106134a8576134a86142a9565b602002602001015186611d25565b8282815181106134c8576134c86142a9565b6020908102919091010152806134dd81614259565b91505061348a565b60005b8251811015610b97576000828281518110613505576135056142a9565b6020026020010151111561360d576065548251613572916001600160a01b031690849084908110613538576135386142a9565b6020026020010151858481518110613552576135526142a9565b60200260200101516001600160a01b0316613cab9092919063ffffffff16565b60655483516001600160a01b03909116906347e7ef249085908490811061359b5761359b6142a9565b60200260200101518484815181106135b5576135b56142a9565b60200260200101516040518363ffffffff1660e01b81526004016135da929190614211565b600060405180830381600087803b1580156135f457600080fd5b505af1158015613608573d6000803e3d6000fd5b505050505b8061361781614259565b9150506134e8565b6065546001600160a01b031663bffe84c28361363b8185611b3f565b6040518363ffffffff1660e01b8152600401613658929190614211565b600060405180830381600087803b15801561367257600080fd5b505af1158015613686573d6000803e3d6000fd5b5050506001600160a01b038083166000908152606d6020908152604080832093871683526006909301905290812055506136c2826000836126a7565b6001600160a01b038181166000818152606d602081815260408084209588168452600886018252832083905592909152905260090154610a9e57610a9e81613dbe565b60665460009081906001600160a01b031663b1d5e1b9856137268187611b3f565b6040518363ffffffff1660e01b8152600401613743929190614211565b60206040518083038186803b15801561375b57600080fd5b505afa15801561376f573d6000803e3d6000fd5b505050506040513d601f19601f82011682018060405250810190613793919061422a565b905060006137a1858561133e565b905060006137af868661213b565b6066549091506001600160a01b031663468cde72876137d28461080e888861240d565b6040518363ffffffff1660e01b81526004016137ef929190614211565b60206040518083038186803b15801561380757600080fd5b505afa15801561381b573d6000803e3d6000fd5b505050506040513d601f19601f82011682018060405250810190610814919061422a565b60665460009081906001600160a01b031663b1d5e1b9856138608187611b3f565b6040518363ffffffff1660e01b815260040161387d929190614211565b60206040518083038186803b15801561389557600080fd5b505afa1580156138a9573d6000803e3d6000fd5b505050506040513d601f19601f820116820180604052508101906138cd919061422a565b905060006138db858561133e565b905060006138e9868661213b565b90506108148361080e84846123fa565b60005b60008611801561390c5750835182105b15613b7a576000613936858481518110613928576139286142a9565b602002602001015187611d25565b60665486519192506000916001600160a01b039091169063b1d5e1b990889087908110613965576139656142a9565b6020026020010151613990898881518110613982576139826142a9565b60200260200101518b611d25565b6040518363ffffffff1660e01b81526004016139ad929190614211565b60206040518083038186803b1580156139c557600080fd5b505afa1580156139d9573d6000803e3d6000fd5b505050506040513d601f19601f820116820180604052508101906139fd919061422a565b905087811015613a695781858581518110613a1a57613a1a6142a9565b602002602001018181525050613a4b868581518110613a3b57613a3b6142a9565b602002602001015160008961289c565b613a55888261240d565b9750613a628460016123fa565b9350613b73565b60665486516000916001600160a01b0316906395f881c990899088908110613a9357613a936142a9565b60200260200101518b6040518363ffffffff1660e01b8152600401613ab9929190614211565b60206040518083038186803b158015613ad157600080fd5b505afa158015613ae5573d6000803e3d6000fd5b505050506040513d601f19601f82011682018060405250810190613b09919061422a565b905082811115613b165750815b80868681518110613b2957613b296142a9565b602002602001018181525050613b6b878681518110613b4a57613b4a6142a9565b6020026020010151613b65838661240d90919063ffffffff16565b8a61289c565b505050613b7a565b50506138fc565b50949350505050565b606082471015613be45760405162461bcd60e51b815260206004820152602660248201527f416464726573733a20696e73756666696369656e742062616c616e636520666f6044820152651c8818d85b1b60d21b60648201526084016107ab565b843b613c325760405162461bcd60e51b815260206004820152601d60248201527f416464726573733a2063616c6c20746f206e6f6e2d636f6e747261637400000060448201526064016107ab565b600080866001600160a01b03168587604051613c4e91906144cd565b60006040518083038185875af1925050503d8060008114613c8b576040519150601f19603f3d011682016040523d82523d6000602084013e613c90565b606091505b5091509150613ca0828286613dc9565b979650505050505050565b801580613d345750604051636eb1769f60e11b81523060048201526001600160a01b03838116602483015284169063dd62ed3e9060440160206040518083038186803b158015613cfa57600080fd5b505afa158015613d0e573d6000803e3d6000fd5b505050506040513d601f19601f82011682018060405250810190613d32919061422a565b155b613d9f5760405162461bcd60e51b815260206004820152603660248201527f5361666545524332303a20617070726f76652066726f6d206e6f6e2d7a65726f60448201527520746f206e6f6e2d7a65726f20616c6c6f77616e636560501b60648201526084016107ab565b610b978363095ea7b360e01b848460405160240161285f929190614211565b612138607182612d9d565b60608315613dd8575081612406565b825115613de85782518084602001fd5b8160405162461bcd60e51b81526004016107ab91906144e9565b80356001600160a01b0381168114613e1957600080fd5b919050565b60008060408385031215613e3157600080fd5b613e3a83613e02565b9150613e4860208401613e02565b90509250929050565b600060208284031215613e6357600080fd5b61240682613e02565b60008060408385031215613e7f57600080fd5b50508035926020909101359150565b634e487b7160e01b600052604160045260246000fd5b604051601f8201601f1916810167ffffffffffffffff81118282101715613ecd57613ecd613e8e565b604052919050565b600067ffffffffffffffff821115613eef57613eef613e8e565b5060051b60200190565b600082601f830112613f0a57600080fd5b81356020613f1f613f1a83613ed5565b613ea4565b82815260059290921b84018101918181019086841115613f3e57600080fd5b8286015b84811015613f6057613f5381613e02565b8352918301918301613f42565b509695505050505050565b600060208284031215613f7d57600080fd5b813567ffffffffffffffff811115613f9457600080fd5b61224084828501613ef9565b801515811461213857600080fd5b60008060408385031215613fc157600080fd5b823567ffffffffffffffff80821115613fd957600080fd5b613fe586838701613ef9565b9350602091508185013581811115613ffc57600080fd5b85019050601f8101861361400f57600080fd5b803561401d613f1a82613ed5565b81815260059190911b8201830190838101908883111561403c57600080fd5b928401925b8284101561406357833561405481613fa0565b82529284019290840190614041565b80955050505050509250929050565b6000806040838503121561408557600080fd5b61408e83613e02565b946020939093013593505050565b600081518084526020808501945080840160005b838110156140d55781516001600160a01b0316875295820195908201906001016140b0565b509495945050505050565b602081526000612406602083018461409c565b604081526000614106604083018561409c565b82810360208481019190915284518083528582019282019060005b8181101561413d57845183529383019391830191600101614121565b5090979650505050505050565b60006020828403121561415c57600080fd5b5035919050565b600080600080600080600060e0888a03121561417e57600080fd5b61418788613e02565b965061419560208901613e02565b96999698505050506040850135946060810135946080820135945060a0820135935060c0909101359150565b60208082526030908201527f4d617267696e417070726f7665643a204f6e6c7920626f72726f77656420746f60408201526f1ad95b9cc81b585e481899481d5cd95960821b606082015260800190565b6001600160a01b03929092168252602082015260400190565b60006020828403121561423c57600080fd5b5051919050565b634e487b7160e01b600052601160045260246000fd5b600060001982141561426d5761426d614243565b5060010190565b6020808252818101527f4f776e61626c653a2063616c6c6572206973206e6f7420746865206f776e6572604082015260600190565b634e487b7160e01b600052603260045260246000fd5b60208082526032908201527f4d617267696e417070726f7665643a204f6e6c7920636f6c6c61746572616c206040820152711d1bdad95b9cc81b585e481899481d5cd95960721b606082015260800190565b6020808252602e908201527f496e697469616c697a61626c653a20636f6e747261637420697320616c72656160408201526d191e481a5b9a5d1a585b1a5e995960921b606082015260800190565b6000821982111561437257614372614243565b500190565b60008282101561438957614389614243565b500390565b60208082526034908201527f4672616374696f6e4d6174683a2044656e6f6d696e61746f72206f662066726160408201527306374696f6e2063616e6e6f7420657175616c20360641b606082015260800190565b6020808252602b908201527f496e697469616c697a61626c653a20636f6e7472616374206973206e6f74206960408201526a6e697469616c697a696e6760a81b606082015260800190565b600081600019048311821515161561444757614447614243565b500290565b634e487b7160e01b600052603160045260246000fd5b60006020828403121561447457600080fd5b815161240681613fa0565b60008261449c57634e487b7160e01b600052601260045260246000fd5b500490565b60005b838110156144bc5781810151838201526020016144a4565b838111156128965750506000910152565b600082516144df8184602087016144a1565b9190910192915050565b60208152600082518060208401526145088160408501602087016144a1565b601f01601f1916919091016040019291505056fea2646970667358221220d64cadd7ded8ffc08f8c971c6bb9f84baf8e2f2dfb0115c3a4d683f5c134b09a64736f6c63430008090033",
  "linkReferences": {},
  "deployedLinkReferences": {}
}