{
  "_format": "hh-sol-artifact-1",
  "contractName": "MarginLong",
  "sourceName": "contracts/MarginLong/MarginLong.sol",
  "abi": [
    {
      "inputs": [
        {
          "internalType": "contract LPool",
          "name": "pool_",
          "type": "address"
        },
        {
          "internalType": "contract Oracle",
          "name": "oracle_",
          "type": "address"
        },
        {
          "internalType": "contract FlashSwap",
          "name": "flashSwap_",
          "type": "address"
        },
        {
          "internalType": "uint256",
          "name": "swapToleranceNumerator_",
          "type": "uint256"
        },
        {
          "internalType": "uint256",
          "name": "swapToleranceDenominator_",
          "type": "uint256"
        },
        {
          "internalType": "uint256",
          "name": "minMarginLevelNumerator_",
          "type": "uint256"
        },
        {
          "internalType": "uint256",
          "name": "minMarginLevelDenominator_",
          "type": "uint256"
        },
        {
          "internalType": "uint256",
          "name": "minCollateralPrice_",
          "type": "uint256"
        }
      ],
      "stateMutability": "nonpayable",
      "type": "constructor"
    },
    {
      "anonymous": false,
      "inputs": [
        {
          "indexed": true,
          "internalType": "address",
          "name": "account",
          "type": "address"
        },
        {
          "indexed": false,
          "internalType": "contract IERC20",
          "name": "collateral",
          "type": "address"
        },
        {
          "indexed": false,
          "internalType": "uint256",
          "name": "amount",
          "type": "uint256"
        }
      ],
      "name": "AddCollateral",
      "type": "event"
    },
    {
      "anonymous": false,
      "inputs": [
        {
          "indexed": true,
          "internalType": "address",
          "name": "account",
          "type": "address"
        },
        {
          "indexed": false,
          "internalType": "contract IERC20",
          "name": "borrowed",
          "type": "address"
        },
        {
          "indexed": false,
          "internalType": "uint256",
          "name": "amount",
          "type": "uint256"
        }
      ],
      "name": "Borrow",
      "type": "event"
    },
    {
      "anonymous": false,
      "inputs": [
        {
          "indexed": true,
          "internalType": "address",
          "name": "account",
          "type": "address"
        },
        {
          "indexed": false,
          "internalType": "address",
          "name": "liquidator",
          "type": "address"
        },
        {
          "indexed": false,
          "internalType": "contract IFlashSwap",
          "name": "flashSwap",
          "type": "address"
        },
        {
          "indexed": false,
          "internalType": "bytes",
          "name": "data",
          "type": "bytes"
        }
      ],
      "name": "Liquidated",
      "type": "event"
    },
    {
      "anonymous": false,
      "inputs": [
        {
          "indexed": true,
          "internalType": "address",
          "name": "previousOwner",
          "type": "address"
        },
        {
          "indexed": true,
          "internalType": "address",
          "name": "newOwner",
          "type": "address"
        }
      ],
      "name": "OwnershipTransferred",
      "type": "event"
    },
    {
      "anonymous": false,
      "inputs": [
        {
          "indexed": true,
          "internalType": "address",
          "name": "account",
          "type": "address"
        },
        {
          "indexed": false,
          "internalType": "contract IERC20",
          "name": "collateral",
          "type": "address"
        },
        {
          "indexed": false,
          "internalType": "uint256",
          "name": "amount",
          "type": "uint256"
        }
      ],
      "name": "RemoveCollateral",
      "type": "event"
    },
    {
      "anonymous": false,
      "inputs": [
        {
          "indexed": true,
          "internalType": "address",
          "name": "account",
          "type": "address"
        },
        {
          "indexed": false,
          "internalType": "contract IFlashSwap",
          "name": "flashSwap",
          "type": "address"
        },
        {
          "indexed": false,
          "internalType": "bytes",
          "name": "data",
          "type": "bytes"
        }
      ],
      "name": "Repay",
      "type": "event"
    },
    {
      "anonymous": false,
      "inputs": [
        {
          "indexed": false,
          "internalType": "contract IERC20",
          "name": "token",
          "type": "address"
        },
        {
          "indexed": false,
          "internalType": "bool",
          "name": "approved",
          "type": "bool"
        }
      ],
      "name": "SetApprovedBorrow",
      "type": "event"
    },
    {
      "anonymous": false,
      "inputs": [
        {
          "indexed": false,
          "internalType": "contract IERC20",
          "name": "token",
          "type": "address"
        },
        {
          "indexed": false,
          "internalType": "bool",
          "name": "approved",
          "type": "bool"
        }
      ],
      "name": "SetApprovedCollateral",
      "type": "event"
    },
    {
      "inputs": [
        {
          "internalType": "contract IERC20",
          "name": "collateral_",
          "type": "address"
        },
        {
          "internalType": "uint256",
          "name": "amount_",
          "type": "uint256"
        }
      ],
      "name": "addCollateral",
      "outputs": [],
      "stateMutability": "nonpayable",
      "type": "function"
    },
    {
      "inputs": [
        {
          "internalType": "contract IERC20",
          "name": "borrowed_",
          "type": "address"
        },
        {
          "internalType": "uint256",
          "name": "amount_",
          "type": "uint256"
        }
      ],
      "name": "borrow",
      "outputs": [],
      "stateMutability": "nonpayable",
      "type": "function"
    },
    {
      "inputs": [
        {
          "internalType": "contract IERC20",
          "name": "borrowed_",
          "type": "address"
        },
        {
          "internalType": "address",
          "name": "account_",
          "type": "address"
        }
      ],
      "name": "borrowed",
      "outputs": [
        {
          "internalType": "uint256",
          "name": "",
          "type": "uint256"
        }
      ],
      "stateMutability": "view",
      "type": "function"
    },
    {
      "inputs": [
        {
          "internalType": "address",
          "name": "account_",
          "type": "address"
        }
      ],
      "name": "borrowedPrice",
      "outputs": [
        {
          "internalType": "uint256",
          "name": "",
          "type": "uint256"
        }
      ],
      "stateMutability": "view",
      "type": "function"
    },
    {
      "inputs": [
        {
          "internalType": "contract IERC20",
          "name": "collateral_",
          "type": "address"
        },
        {
          "internalType": "address",
          "name": "account_",
          "type": "address"
        }
      ],
      "name": "collateral",
      "outputs": [
        {
          "internalType": "uint256",
          "name": "",
          "type": "uint256"
        }
      ],
      "stateMutability": "view",
      "type": "function"
    },
    {
      "inputs": [
        {
          "internalType": "address",
          "name": "account_",
          "type": "address"
        }
      ],
      "name": "collateralPrice",
      "outputs": [
        {
          "internalType": "uint256",
          "name": "",
          "type": "uint256"
        }
      ],
      "stateMutability": "view",
      "type": "function"
    },
    {
      "inputs": [],
      "name": "flashSwap",
      "outputs": [
        {
          "internalType": "contract FlashSwap",
          "name": "",
          "type": "address"
        }
      ],
      "stateMutability": "view",
      "type": "function"
    },
    {
      "inputs": [
        {
          "internalType": "contract IERC20",
          "name": "borrowed_",
          "type": "address"
        },
        {
          "internalType": "address",
          "name": "account_",
          "type": "address"
        }
      ],
      "name": "initialBorrowBlock",
      "outputs": [
        {
          "internalType": "uint256",
          "name": "",
          "type": "uint256"
        }
      ],
      "stateMutability": "view",
      "type": "function"
    },
    {
      "inputs": [
        {
          "internalType": "contract IERC20",
          "name": "borrowed_",
          "type": "address"
        },
        {
          "internalType": "address",
          "name": "account_",
          "type": "address"
        }
      ],
      "name": "initialBorrowPrice",
      "outputs": [
        {
          "internalType": "uint256",
          "name": "",
          "type": "uint256"
        }
      ],
      "stateMutability": "view",
      "type": "function"
    },
    {
      "inputs": [
        {
          "internalType": "contract IERC20",
          "name": "token_",
          "type": "address"
        }
      ],
      "name": "isApprovedBorrow",
      "outputs": [
        {
          "internalType": "bool",
          "name": "",
          "type": "bool"
        }
      ],
      "stateMutability": "view",
      "type": "function"
    },
    {
      "inputs": [
        {
          "internalType": "contract IERC20",
          "name": "token_",
          "type": "address"
        }
      ],
      "name": "isApprovedCollateral",
      "outputs": [
        {
          "internalType": "bool",
          "name": "",
          "type": "bool"
        }
      ],
      "stateMutability": "view",
      "type": "function"
    },
    {
      "inputs": [
        {
          "internalType": "contract IERC20",
          "name": "borrowed_",
          "type": "address"
        },
        {
          "internalType": "address",
          "name": "account_",
          "type": "address"
        }
      ],
      "name": "isBorrowing",
      "outputs": [
        {
          "internalType": "bool",
          "name": "",
          "type": "bool"
        }
      ],
      "stateMutability": "view",
      "type": "function"
    },
    {
      "inputs": [
        {
          "internalType": "address",
          "name": "account_",
          "type": "address"
        }
      ],
      "name": "isBorrowing",
      "outputs": [
        {
          "internalType": "bool",
          "name": "",
          "type": "bool"
        }
      ],
      "stateMutability": "view",
      "type": "function"
    },
    {
      "inputs": [
        {
          "internalType": "address",
          "name": "account_",
          "type": "address"
        },
        {
          "internalType": "contract IFlashSwap",
          "name": "flashSwap_",
          "type": "address"
        },
        {
          "internalType": "bytes",
          "name": "data_",
          "type": "bytes"
        }
      ],
      "name": "liquidate",
      "outputs": [],
      "stateMutability": "nonpayable",
      "type": "function"
    },
    {
      "inputs": [
        {
          "internalType": "address",
          "name": "account_",
          "type": "address"
        }
      ],
      "name": "liquidateRepayPrice",
      "outputs": [
        {
          "internalType": "uint256",
          "name": "",
          "type": "uint256"
        }
      ],
      "stateMutability": "view",
      "type": "function"
    },
    {
      "inputs": [
        {
          "internalType": "address",
          "name": "account_",
          "type": "address"
        }
      ],
      "name": "marginLevel",
      "outputs": [
        {
          "internalType": "uint256",
          "name": "",
          "type": "uint256"
        },
        {
          "internalType": "uint256",
          "name": "",
          "type": "uint256"
        }
      ],
      "stateMutability": "view",
      "type": "function"
    },
    {
      "inputs": [],
      "name": "minCollateralPrice",
      "outputs": [
        {
          "internalType": "uint256",
          "name": "",
          "type": "uint256"
        }
      ],
      "stateMutability": "view",
      "type": "function"
    },
    {
      "inputs": [],
      "name": "minMarginLevel",
      "outputs": [
        {
          "internalType": "uint256",
          "name": "",
          "type": "uint256"
        },
        {
          "internalType": "uint256",
          "name": "",
          "type": "uint256"
        }
      ],
      "stateMutability": "view",
      "type": "function"
    },
    {
      "inputs": [],
      "name": "oracle",
      "outputs": [
        {
          "internalType": "contract Oracle",
          "name": "",
          "type": "address"
        }
      ],
      "stateMutability": "view",
      "type": "function"
    },
    {
      "inputs": [],
      "name": "owner",
      "outputs": [
        {
          "internalType": "address",
          "name": "",
          "type": "address"
        }
      ],
      "stateMutability": "view",
      "type": "function"
    },
    {
      "inputs": [],
      "name": "pool",
      "outputs": [
        {
          "internalType": "contract LPool",
          "name": "",
          "type": "address"
        }
      ],
      "stateMutability": "view",
      "type": "function"
    },
    {
      "inputs": [
        {
          "internalType": "contract IERC20",
          "name": "collateral_",
          "type": "address"
        },
        {
          "internalType": "uint256",
          "name": "amount_",
          "type": "uint256"
        }
      ],
      "name": "removeCollateral",
      "outputs": [],
      "stateMutability": "nonpayable",
      "type": "function"
    },
    {
      "inputs": [],
      "name": "renounceOwnership",
      "outputs": [],
      "stateMutability": "nonpayable",
      "type": "function"
    },
    {
      "inputs": [
        {
          "internalType": "contract IFlashSwap",
          "name": "flashSwap_",
          "type": "address"
        },
        {
          "internalType": "bytes",
          "name": "data_",
          "type": "bytes"
        }
      ],
      "name": "repay",
      "outputs": [],
      "stateMutability": "nonpayable",
      "type": "function"
    },
    {
      "inputs": [
        {
          "internalType": "contract IERC20[]",
          "name": "token_",
          "type": "address[]"
        },
        {
          "internalType": "bool[]",
          "name": "approved_",
          "type": "bool[]"
        }
      ],
      "name": "setApprovedBorrow",
      "outputs": [],
      "stateMutability": "nonpayable",
      "type": "function"
    },
    {
      "inputs": [
        {
          "internalType": "contract IERC20[]",
          "name": "token_",
          "type": "address[]"
        },
        {
          "internalType": "bool[]",
          "name": "approved_",
          "type": "bool[]"
        }
      ],
      "name": "setApprovedCollateral",
      "outputs": [],
      "stateMutability": "nonpayable",
      "type": "function"
    },
    {
      "inputs": [
        {
          "internalType": "contract FlashSwap",
          "name": "flashSwap_",
          "type": "address"
        }
      ],
      "name": "setFlashSwap",
      "outputs": [],
      "stateMutability": "nonpayable",
      "type": "function"
    },
    {
      "inputs": [
        {
          "internalType": "uint256",
          "name": "minCollateralPrice_",
          "type": "uint256"
        }
      ],
      "name": "setMinCollateralPrice",
      "outputs": [],
      "stateMutability": "nonpayable",
      "type": "function"
    },
    {
      "inputs": [
        {
          "internalType": "uint256",
          "name": "minMarginLevelNumerator_",
          "type": "uint256"
        },
        {
          "internalType": "uint256",
          "name": "minMarginLevelDenominator_",
          "type": "uint256"
        }
      ],
      "name": "setMinMarginLevel",
      "outputs": [],
      "stateMutability": "nonpayable",
      "type": "function"
    },
    {
      "inputs": [
        {
          "internalType": "contract Oracle",
          "name": "oracle_",
          "type": "address"
        }
      ],
      "name": "setOracle",
      "outputs": [],
      "stateMutability": "nonpayable",
      "type": "function"
    },
    {
      "inputs": [
        {
          "internalType": "contract LPool",
          "name": "pool_",
          "type": "address"
        }
      ],
      "name": "setPool",
      "outputs": [],
      "stateMutability": "nonpayable",
      "type": "function"
    },
    {
      "inputs": [
        {
          "internalType": "uint256",
          "name": "swapToleranceNumerator_",
          "type": "uint256"
        },
        {
          "internalType": "uint256",
          "name": "swapToleranceDenominator_",
          "type": "uint256"
        }
      ],
      "name": "setSwapTolerance",
      "outputs": [],
      "stateMutability": "nonpayable",
      "type": "function"
    },
    {
      "inputs": [
        {
          "internalType": "contract IERC20",
          "name": "borrowed_",
          "type": "address"
        },
        {
          "internalType": "uint256",
          "name": "amount_",
          "type": "uint256"
        }
      ],
      "name": "setTotalBorrowed",
      "outputs": [],
      "stateMutability": "nonpayable",
      "type": "function"
    },
    {
      "inputs": [
        {
          "internalType": "contract IERC20",
          "name": "collateral_",
          "type": "address"
        },
        {
          "internalType": "uint256",
          "name": "amount_",
          "type": "uint256"
        }
      ],
      "name": "setTotalCollateral",
      "outputs": [],
      "stateMutability": "nonpayable",
      "type": "function"
    },
    {
      "inputs": [],
      "name": "swapTolerance",
      "outputs": [
        {
          "internalType": "uint256",
          "name": "",
          "type": "uint256"
        },
        {
          "internalType": "uint256",
          "name": "",
          "type": "uint256"
        }
      ],
      "stateMutability": "view",
      "type": "function"
    },
    {
      "inputs": [
        {
          "internalType": "contract IERC20",
          "name": "borrowed_",
          "type": "address"
        }
      ],
      "name": "totalBorrowed",
      "outputs": [
        {
          "internalType": "uint256",
          "name": "",
          "type": "uint256"
        }
      ],
      "stateMutability": "view",
      "type": "function"
    },
    {
      "inputs": [
        {
          "internalType": "contract IERC20",
          "name": "collateral_",
          "type": "address"
        }
      ],
      "name": "totalCollateral",
      "outputs": [
        {
          "internalType": "uint256",
          "name": "",
          "type": "uint256"
        }
      ],
      "stateMutability": "view",
      "type": "function"
    },
    {
      "inputs": [
        {
          "internalType": "address",
          "name": "newOwner",
          "type": "address"
        }
      ],
      "name": "transferOwnership",
      "outputs": [],
      "stateMutability": "nonpayable",
      "type": "function"
    },
    {
      "inputs": [
        {
          "internalType": "address",
          "name": "account_",
          "type": "address"
        }
      ],
      "name": "underCollateralized",
      "outputs": [
        {
          "internalType": "bool",
          "name": "",
          "type": "bool"
        }
      ],
      "stateMutability": "view",
      "type": "function"
    }
  ],
  "bytecode": "0x60806040523480156200001157600080fd5b5060405162003757380380620037578339810160408190526200003491620000f9565b8083838a8a8a8a8a6200004733620000a9565b600180546001600160a01b03199081166001600160a01b039788161790915560028054821695871695909517909455600380549094169290941691909117909155600455600555600b91909155600c55600d5550620001959650505050505050565b600080546001600160a01b038381166001600160a01b0319831681178455604051919092169283917f8be0079c531659141344cd1fd0a4f28419497f9722a3daafe3b4186f6b6457e09190a35050565b600080600080600080600080610100898b03121562000116578384fd5b885162000123816200017c565b60208a015190985062000136816200017c565b60408a015190975062000149816200017c565b60608a015160808b015160a08c015160c08d015160e0909d01519b9e9a9d50929b919a9099929850909650945092505050565b6001600160a01b03811681146200019257600080fd5b50565b6135b280620001a56000396000f3fe608060405234801561001057600080fd5b506004361061023d5760003560e01c806374eb83c11161013b578063a7fcf4e8116100b8578063d3eec4041161007c578063d3eec40414610569578063d589ac1b1461057c578063d8459b45146105a6578063e2e1ca2b146105b9578063f2fde38b146105e257600080fd5b8063a7fcf4e8146104f1578063a9c3a73214610504578063b0a02abe14610530578063b1a131fd14610543578063cc218ece1461055657600080fd5b80637e773d01116100ff5780637e773d01146104a6578063813c2302146104af578063876467f8146104c25780638cab1b37146104d55780638da5cb5b146104e057600080fd5b806374eb83c1146104315780637adbf973146104445780637c9ff9eb146104575780637dc0d1d01461046a5780637e059b221461047d57600080fd5b80633ae261ba116101c957806366dad8f41161018d57806366dad8f4146103c45780636d75b9ee146103f05780636fc2d3c614610403578063706f1ada14610416578063715018a61461042957600080fd5b80633ae261ba1461034a5780634437152a1461035d5780634b8a35291461037057806350711be9146103835780635c992200146103b157600080fd5b806322c901661161021057806322c90166146102cb5780632303c1aa146102de57806325b69c0c146103085780632d03c65314610324578063320907b81461033757600080fd5b806303f5aaad1461024257806308b1cb231461026a5780630f9b628e1461028b57806316f0115b146102a0575b600080fd5b610255610250366004613143565b6105f5565b60405190151581526020015b60405180910390f35b61027d610278366004612f55565b61060c565b604051908152602001610261565b61029e61029936600461321a565b61066c565b005b6001546102b3906001600160a01b031681565b6040516001600160a01b039091168152602001610261565b6003546102b3906001600160a01b031681565b61029e6102ec36600461317b565b6001600160a01b03909116600090815260086020526040902055565b600b54600c545b60408051928352602083019190915201610261565b61029e610332366004612fd1565b6106aa565b61029e6103453660046131a6565b61089a565b610255610358366004612f55565b610960565b61029e61036b366004612f55565b6109a4565b61029e61037e36600461317b565b6109f0565b610255610391366004612f55565b6001600160a01b03166000908152600a6020526040902060080154151590565b61029e6103bf36600461321a565b610c70565b6102556103d2366004612f55565b6001600160a01b031660009081526006602052604090205460ff1690565b61029e6103fe36600461317b565b610ca5565b61029e610411366004612fd1565b610d89565b61027d610424366004613143565b610f74565b61029e610fa4565b61029e61043f366004612f71565b610fda565b61029e610452366004612f55565b61109c565b61027d610465366004613143565b6110e8565b6002546102b3906001600160a01b031681565b61027d61048b366004612f55565b6001600160a01b031660009081526009602052604090205490565b61027d600d5481565b61030f6104bd366004612f55565b611118565b61029e6104d036600461317b565b6112bb565b60045460055461030f565b6000546001600160a01b03166102b3565b61027d6104ff366004612f55565b6114c8565b610255610512366004612f55565b6001600160a01b031660009081526007602052604090205460ff1690565b61027d61053e366004613143565b6114dd565b61029e610551366004612f55565b61150d565b61027d610564366004613143565b611559565b61029e6105773660046131ea565b611589565b61029e61058a36600461317b565b6001600160a01b03909116600090815260096020526040902055565b61027d6105b4366004612f55565b6115b8565b61027d6105c7366004612f55565b6001600160a01b031660009081526008602052604090205490565b61029e6105f0366004612f55565b61160c565b60008061060284846114dd565b1190505b92915050565b6001600160a01b0381166000908152600a6020526040812081805b60018301548110156106645761065061064961064385846116a7565b876116e8565b839061177b565b91508061065c81613512565b915050610627565b509392505050565b6000546001600160a01b0316331461069f5760405162461bcd60e51b8152600401610696906133ee565b60405180910390fd5b600b91909155600c55565b6000546001600160a01b031633146106d45760405162461bcd60e51b8152600401610696906133ee565b60005b82518110156108955781818151811061070057634e487b7160e01b600052603260045260246000fd5b6020026020010151151561075384838151811061072d57634e487b7160e01b600052603260045260246000fd5b60200260200101516001600160a01b031660009081526007602052604090205460ff1690565b1515146108835781818151811061077a57634e487b7160e01b600052603260045260246000fd5b6020026020010151600760008584815181106107a657634e487b7160e01b600052603260045260246000fd5b60200260200101516001600160a01b03166001600160a01b0316815260200190815260200160002060006101000a81548160ff0219169083151502179055507f9258b174bcf60e605e35b734ee5e58c312f1859e813412da9c3ab6b69eef01e283828151811061082657634e487b7160e01b600052603260045260246000fd5b602002602001015183838151811061084e57634e487b7160e01b600052603260045260246000fd5b602002602001015160405161087a9291906001600160a01b039290921682521515602082015260400190565b60405180910390a15b8061088d81613512565b9150506106d7565b505050565b6108a333610391565b6109055760405162461bcd60e51b815260206004820152602d60248201527f43616e6e6f7420726570617920616e206163636f756e7420746861742068617360448201526c081b9bdd08189bdc9c9bddd959609a1b6064820152608401610696565b61090e33611787565b610919338383611a4b565b336001600160a01b03167f5ff5d9e531bed66032af25363b170c19fee09696b750f14fed86c122937cbdf683836040516109549291906133b7565b60405180910390a25050565b600080600061096e84611118565b600b5491935091506000906109839083611bd9565b600c54909150600090610997908590611bd9565b9091101595945050505050565b6000546001600160a01b031633146109ce5760405162461bcd60e51b8152600401610696906133ee565b600180546001600160a01b0319166001600160a01b0392909216919091179055565b81610a13816001600160a01b031660009081526007602052604090205460ff1690565b610a5f5760405162461bcd60e51b815260206004820181905260248201527f4f6e6c7920617070726f76656420746f6b656e73206d617920626520757365646044820152606401610696565b600d54610a6b3361060c565b1015610acf5760405162461bcd60e51b815260206004820152602d60248201527f436f6c6c61746572616c207072696365206d757374206265206772656174657260448201526c207468616e206d696e696d756d60981b6064820152608401610696565b610ad983336105f5565b610b0757336000908152600a602090815260408083206001600160a01b038716845260070190915290204390555b600154604051635569f64b60e11b81526001600160a01b039091169063aad3ec9690610b399086908690600401613321565b600060405180830381600087803b158015610b5357600080fd5b505af1158015610b67573d6000803e3d6000fd5b50505050610b8a83610b8484610b7e8761053e3390565b9061177b565b33611be5565b600254604051632b66e00960e21b81526000916001600160a01b03169063ad9b802490610bbd9087908790600401613321565b60206040518083038186803b158015610bd557600080fd5b505afa158015610be9573d6000803e3d6000fd5b505050506040513d601f19601f82011682018060405250810190610c0d9190613202565b9050610c2784610c2183610b7e8333610f74565b33611cfe565b336001600160a01b03167f312a5e5e1079f5dda4e95dbbd0b908b291fd5b992ef22073643ab691572c5b528585604051610c62929190613321565b60405180910390a250505050565b6000546001600160a01b03163314610c9a5760405162461bcd60e51b8152600401610696906133ee565b600491909155600555565b81610cc8816001600160a01b031660009081526006602052604090205460ff1690565b610d145760405162461bcd60e51b815260206004820181905260248201527f4f6e6c7920617070726f76656420746f6b656e73206d617920626520757365646044820152606401610696565b610d296001600160a01b038416333085611d2e565b610d4183610d3b84610b7e8333611559565b33611d9f565b336001600160a01b03167fa32435755c235de2976ed44a75a2f85cb01faf0c894f639fe0c32bb9455fea8f8484604051610d7c929190613321565b60405180910390a2505050565b6000546001600160a01b03163314610db35760405162461bcd60e51b8152600401610696906133ee565b60005b825181101561089557818181518110610ddf57634e487b7160e01b600052603260045260246000fd5b60200260200101511515610e32848381518110610e0c57634e487b7160e01b600052603260045260246000fd5b60200260200101516001600160a01b031660009081526006602052604090205460ff1690565b151514610f6257818181518110610e5957634e487b7160e01b600052603260045260246000fd5b602002602001015160066000858481518110610e8557634e487b7160e01b600052603260045260246000fd5b60200260200101516001600160a01b03166001600160a01b0316815260200190815260200160002060006101000a81548160ff0219169083151502179055507fd902d25512143a948e8c13a59ce93ca5f1f9ad3cc17e26eb61f089df353eee94838281518110610f0557634e487b7160e01b600052603260045260246000fd5b6020026020010151838381518110610f2d57634e487b7160e01b600052603260045260246000fd5b6020026020010151604051610f599291906001600160a01b039290921682521515602082015260400190565b60405180910390a15b80610f6c81613512565b915050610db6565b6001600160a01b038082166000908152600a60209081526040808320938616835260069093019052205492915050565b6000546001600160a01b03163314610fce5760405162461bcd60e51b8152600401610696906133ee565b610fd86000611e7e565b565b610fe383610960565b61104b5760405162461bcd60e51b815260206004820152603360248201527f4f6e6c7920756e646572636f6c6c61746572616c697a6564206163636f756e746044820152721cc81b585e481899481b1a5c5d5a59185d1959606a1b6064820152608401610696565b61105483611787565b61105f838383611ece565b6001600160a01b0383167f743388a81882d9efb92da3e67dd73aaebfd6de71756d11d2ac11390fdfd607d8338484604051610d7c939291906132f5565b6000546001600160a01b031633146110c65760405162461bcd60e51b8152600401610696906133ee565b600280546001600160a01b0319166001600160a01b0392909216919091179055565b6001600160a01b038082166000908152600a60209081526040808320938616835260079093019052205492915050565b6000806000806000611129866120d7565b905060005b815181101561128f57600061116a83838151811061115c57634e487b7160e01b600052603260045260246000fd5b602002602001015189610f74565b9050611176858261177b565b6001548451919650611279916001600160a01b039091169063d0b9622c908690869081106111b457634e487b7160e01b600052603260045260246000fd5b6020026020010151886111ee8888815181106111e057634e487b7160e01b600052603260045260246000fd5b60200260200101518e6110e8565b6040516001600160e01b031960e086901b1681526001600160a01b0390931660048401526024830191909152604482015260640160206040518083038186803b15801561123a57600080fd5b505afa15801561124e573d6000803e3d6000fd5b505050506040513d601f19601f820116820180604052508101906112729190613202565b859061177b565b935050808061128790613512565b91505061112e565b506112a561129c8761060c565b610b7e886115b8565b6112af848461177b565b94509450505050915091565b60006112c78333611559565b90508082111561132e5760405162461bcd60e51b815260206004820152602c60248201527f43616e6e6f742072656d6f7665206d6f7265207468616e20617661696c61626c60448201526b194818dbdb1b185d195c985b60a21b6064820152608401610696565b61134683610d3b846113408333611559565b906120fe565b61134f33610960565b156113c25760405162461bcd60e51b815260206004820152603d60248201527f52656d6f76696e6720636f6c6c61746572616c20726573756c747320696e206160448201527f6e20756e646572636f6c6c61746572616c697a6564206163636f756e740000006064820152608401610696565b6113cb33610391565b15806113e15750600d546113de3361060c565b10155b6114795760405162461bcd60e51b815260206004820152605a60248201527f43616e6e6f74207769746864726177206966206e657720636f6c6c617465726160448201527f6c207072696365206973206c657373207468616e206d696e696d756d20626f7260648201527f726f77207072696365207768696c737420626f72726f77696e67000000000000608482015260a401610696565b61148d6001600160a01b038416338461210a565b336001600160a01b03167f367be65505e5aff90e7e646744b5f75280ec6d79a0e78690f6020b875a03bc128484604051610d7c929190613321565b6000806114d483612129565b95945050505050565b6001600160a01b038082166000908152600a60209081526040808320938616835260059093019052205492915050565b6000546001600160a01b031633146115375760405162461bcd60e51b8152600401610696906133ee565b600380546001600160a01b0319166001600160a01b0392909216919091179055565b6001600160a01b038082166000908152600a60209081526040808320938616835260029093019052205492915050565b6000546001600160a01b031633146115b35760405162461bcd60e51b8152600401610696906133ee565b600d55565b6001600160a01b0381166000908152600a6020526040812081805b6004830154811015610664576115f86106496115f260038601846116a7565b87612353565b91508061160481613512565b9150506115d3565b6000546001600160a01b031633146116365760405162461bcd60e51b8152600401610696906133ee565b6001600160a01b03811661169b5760405162461bcd60e51b815260206004820152602660248201527f4f776e61626c653a206e6577206f776e657220697320746865207a65726f206160448201526564647265737360d01b6064820152608401610696565b6116a481611e7e565b50565b60008260010182815481106116cc57634e487b7160e01b600052603260045260246000fd5b6000918252602090912001546001600160a01b03169392505050565b6002546000906001600160a01b031663ad9b8024846117078186611559565b6040518363ffffffff1660e01b8152600401611724929190613321565b60206040518083038186803b15801561173c57600080fd5b505afa158015611750573d6000803e3d6000fd5b505050506040513d601f19601f820116820180604052508101906117749190613202565b9392505050565b60006117748284613478565b6000611792826120d7565b905060005b81518110156108955760008282815181106117c257634e487b7160e01b600052603260045260246000fd5b6020026020010151905060006117d88286612353565b905060006117e68387610f74565b6001549091506000906001600160a01b031663d0b9622c8584611809828c6110e8565b6040516001600160e01b031960e086901b1681526001600160a01b0390931660048401526024830191909152604482015260640160206040518083038186803b15801561185557600080fd5b505afa158015611869573d6000803e3d6000fd5b505050506040513d601f19601f8201168201806040525081019061188d9190613202565b9050611899828261177b565b831115611a34576002546000906001600160a01b0316630be002aa866118c38561134089896120fe565b6040518363ffffffff1660e01b81526004016118e0929190613321565b60206040518083038186803b1580156118f857600080fd5b505afa15801561190c573d6000803e3d6000fd5b505050506040513d601f19601f820116820180604052508101906119309190613202565b6001549091506001600160a01b031663bffe84c28661194f818c6114dd565b6040518363ffffffff1660e01b815260040161196c929190613321565b600060405180830381600087803b15801561198657600080fd5b505af115801561199a573d6000803e3d6000fd5b505060015460405163f3fef3a360e01b81526001600160a01b03909116925063f3fef3a391506119d09088908590600401613321565b600060405180830381600087803b1580156119ea57600080fd5b505af11580156119fe573d6000803e3d6000fd5b50505050611a0e8560008a611be5565b611a1a8560008a611cfe565b611a3285611a2c83610b7e898d611559565b8a611d9f565b505b505050508080611a4390613512565b915050611797565b600080611a5785612372565b91509150600080611a6787612129565b50915091506000611a7c858585858b8b612585565b905060005b8151811015611bce576001548251611b05916001600160a01b031690849084908110611abd57634e487b7160e01b600052603260045260246000fd5b6020026020010151868481518110611ae557634e487b7160e01b600052603260045260246000fd5b60200260200101516001600160a01b03166127369092919063ffffffff16565b60015484516001600160a01b03909116906347e7ef2490869084908110611b3c57634e487b7160e01b600052603260045260246000fd5b6020026020010151848481518110611b6457634e487b7160e01b600052603260045260246000fd5b60200260200101516040518363ffffffff1660e01b8152600401611b89929190613321565b600060405180830381600087803b158015611ba357600080fd5b505af1158015611bb7573d6000803e3d6000fd5b505050508080611bc690613512565b915050611a81565b505050505050505050565b600061177482846134b0565b6001600160a01b038082166000908152600a60209081526040808320938716835260058401909152902054158015611c1c57508215155b15611c3357611c2e6003820185612849565b611c6c565b6001600160a01b038416600090815260058201602052604090205415801590611c5a575082155b15611c6c57611c6c60038201856128f8565b6001600160a01b0384166000908152600582016020908152604080832054600890925290912054611ca99186916102ec918791610b7e9190611340565b6001600160a01b03841660009081526005820160205260409020546008820154611cd8918591610b7e916120fe565b60088201556001600160a01b039093166000908152600590930160205250604090912055565b6001600160a01b039081166000908152600a60209081526040808320959093168252600690940190935290912055565b6040516001600160a01b0380851660248301528316604482015260648101829052611d999085906323b872dd60e01b906084015b60408051601f198184030181529190526020810180516001600160e01b03166001600160e01b031990931692909217909152612a5b565b50505050565b6001600160a01b038082166000908152600a60209081526040808320938716835260028401909152902054158015611dd657508215155b15611dea57611de58185612849565b611e20565b6001600160a01b038416600090815260028201602052604090205415801590611e11575082155b15611e2057611e2081856128f8565b6001600160a01b0384166000908152600282016020908152604080832054600990925290912054611e5d91869161058a918791610b7e9190611340565b6001600160a01b039093166000908152600290930160205250604090912055565b600080546001600160a01b038381166001600160a01b0319831681178455604051919092169283917f8be0079c531659141344cd1fd0a4f28419497f9722a3daafe3b4186f6b6457e09190a35050565b6000611ed984612b2d565b90506000815167ffffffffffffffff811115611f0557634e487b7160e01b600052604160045260246000fd5b604051908082528060200260200182016040528015611f2e578160200160208202803683370190505b50905060005b8251811015611fab57611f6e838281518110611f6057634e487b7160e01b600052603260045260246000fd5b602002602001015187611559565b828281518110611f8e57634e487b7160e01b600052603260045260246000fd5b602090810291909101015280611fa381613512565b915050611f34565b50600080611fb887612129565b50915091506000611fcd858585858b8b612585565b905060005b8151811015611bce57600154825161200e916001600160a01b031690849084908110611abd57634e487b7160e01b600052603260045260246000fd5b60015484516001600160a01b03909116906347e7ef249086908490811061204557634e487b7160e01b600052603260045260246000fd5b602002602001015184848151811061206d57634e487b7160e01b600052603260045260246000fd5b60200260200101516040518363ffffffff1660e01b8152600401612092929190613321565b600060405180830381600087803b1580156120ac57600080fd5b505af11580156120c0573d6000803e3d6000fd5b5050505080806120cf90613512565b915050611fd2565b6001600160a01b0381166000908152600a6020526040902060609061060690600301612b4d565b600061177482846134cf565b6108958363a9059cbb60e01b8484604051602401611d62929190613321565b606080600080612138856120d7565b90506000815167ffffffffffffffff81111561216457634e487b7160e01b600052604160045260246000fd5b60405190808252806020026020018201604052801561218d578160200160208202803683370190505b5090506000825167ffffffffffffffff8111156121ba57634e487b7160e01b600052604160045260246000fd5b6040519080825280602002602001820160405280156121e3578160200160208202803683370190505b5090506000805b845181101561234457600085828151811061221557634e487b7160e01b600052603260045260246000fd5b60200260200101519050600061222b828c612bb3565b6002546040516305f0015560e11b81529192506000916001600160a01b0390911690630be002aa906122639086908690600401613321565b60206040518083038186803b15801561227b57600080fd5b505afa15801561228f573d6000803e3d6000fd5b505050506040513d601f19601f820116820180604052508101906122b39190613202565b9050828785815181106122d657634e487b7160e01b600052603260045260246000fd5b60200260200101906001600160a01b031690816001600160a01b0316815250508086858151811061231757634e487b7160e01b600052603260045260246000fd5b602090810291909101015261232c858361177b565b9450505050808061233c90613512565b9150506121ea565b50919790965090945092505050565b6002546000906001600160a01b031663ad9b80248461170781866114dd565b606080600061238084612129565b6010546000818152600e60209081526040808320600f90925290912092955093509091506123af90600161177b565b60105560006123bd87612b2d565b905060005b81518110156124c75760008282815181106123ed57634e487b7160e01b600052603260045260246000fd5b602002602001015190506000612403828b611559565b90506000612411838c6116e8565b9050878111156124325761242f816124298a85611bd9565b90612c8f565b91505b8654600180820189556000898152602080822090930180546001600160a01b0319166001600160a01b038816179055885491820189558881529182200183905561247e9084908d611be5565b61248a8360008d611cfe565b6124968360008d611d9f565b8781106124a5575050506124c7565b6124af88826120fe565b975050505080806124bf90613512565b9150506123c2565b5082828180548060200260200160405190810160405280929190818152602001828054801561251f57602002820191906000526020600020905b81546001600160a01b03168152600190910190602001808311612501575b505050505091508080548060200260200160405190810160405280929190818152602001828054801561257157602002820191906000526020600020905b81548152602001906001019080831161255d575b505050505090509550955050505050915091565b606060005b87518110156126005760035487516125ee916001600160a01b0316908990849081106125c657634e487b7160e01b600052603260045260246000fd5b60200260200101518a8481518110611ae557634e487b7160e01b600052603260045260246000fd5b806125f881613512565b91505061258a565b5060005b845181101561269a5760055460045461265d9190612429906126279083906120fe565b88858151811061264757634e487b7160e01b600052603260045260246000fd5b6020026020010151611bd990919063ffffffff16565b85828151811061267d57634e487b7160e01b600052603260045260246000fd5b60209081029190910101528061269281613512565b915050612604565b506003546040516342a59b2760e11b81526001600160a01b039091169063854b364e906126d5908a908a908a908a908a908a9060040161333a565b600060405180830381600087803b1580156126ef57600080fd5b505af1158015612703573d6000803e3d6000fd5b505050506040513d6000823e601f3d908101601f1916820160405261272b9190810190613094565b979650505050505050565b8015806127bf5750604051636eb1769f60e11b81523060048201526001600160a01b03838116602483015284169063dd62ed3e9060440160206040518083038186803b15801561278557600080fd5b505afa158015612799573d6000803e3d6000fd5b505050506040513d601f19601f820116820180604052508101906127bd9190613202565b155b61282a5760405162461bcd60e51b815260206004820152603660248201527f5361666545524332303a20617070726f76652066726f6d206e6f6e2d7a65726f60448201527520746f206e6f6e2d7a65726f20616c6c6f77616e636560501b6064820152608401610696565b6108958363095ea7b360e01b8484604051602401611d62929190613321565b6128538282612c9b565b156128a05760405162461bcd60e51b815260206004820181905260248201527f546f6b656e20616c72656164792065786973747320696e20746865207365742e6044820152606401610696565b6001828101805480830182556000828152602090200180546001600160a01b0319166001600160a01b038516179055546128da91906134cf565b6001600160a01b039091166000908152602092909252604090912055565b6129028282612c9b565b61294e5760405162461bcd60e51b815260206004820181905260248201527f546f6b656e20646f6573206e6f7420657869737420696e20746865207365742e6044820152606401610696565b60018281018054600092612961916134cf565b8154811061297f57634e487b7160e01b600052603260045260246000fd5b60009182526020808320909101546001600160a01b038581168452918690526040808420549290911680845292208190556001850180549293509091839190839081106129dc57634e487b7160e01b600052603260045260246000fd5b600091825260208083209190910180546001600160a01b0319166001600160a01b03948516179055918516815290859052604081205560018401805480612a3357634e487b7160e01b600052603160045260246000fd5b600082815260209020810160001990810180546001600160a01b031916905501905550505050565b6000612ab0826040518060400160405280602081526020017f5361666545524332303a206c6f772d6c6576656c2063616c6c206661696c6564815250856001600160a01b0316612d0a9092919063ffffffff16565b8051909150156108955780806020019051810190612ace9190613127565b6108955760405162461bcd60e51b815260206004820152602a60248201527f5361666545524332303a204552433230206f7065726174696f6e20646964206e6044820152691bdd081cdd58d8d9595960b21b6064820152608401610696565b6001600160a01b0381166000908152600a60205260409020606090610606905b606081600101805480602002602001604051908101604052809291908181526020018280548015612ba757602002820191906000526020600020905b81546001600160a01b03168152600190910190602001808311612b89575b50505050509050919050565b600080612bc08484612353565b90506000612bce8585610f74565b6001549091506000906001600160a01b031663d0b9622c8784612bf1828a6110e8565b6040516001600160e01b031960e086901b1681526001600160a01b0390931660048401526024830191909152604482015260640160206040518083038186803b158015612c3d57600080fd5b505afa158015612c51573d6000803e3d6000fd5b505050506040513d601f19601f82011682018060405250810190612c759190613202565b9050612c8583611340848461177b565b9695505050505050565b60006117748284613490565b6001820154600090612caf57506000610606565b6001600160a01b0382166000818152602085905260409020546001850180549091908110612ced57634e487b7160e01b600052603260045260246000fd5b6000918252602090912001546001600160a01b0316149392505050565b6060612d198484600085612d21565b949350505050565b606082471015612d825760405162461bcd60e51b815260206004820152602660248201527f416464726573733a20696e73756666696369656e742062616c616e636520666f6044820152651c8818d85b1b60d21b6064820152608401610696565b843b612dd05760405162461bcd60e51b815260206004820152601d60248201527f416464726573733a2063616c6c20746f206e6f6e2d636f6e74726163740000006044820152606401610696565b600080866001600160a01b03168587604051612dec91906132d9565b60006040518083038185875af1925050503d8060008114612e29576040519150601f19603f3d011682016040523d82523d6000602084013e612e2e565b606091505b509150915061272b82828660608315612e48575081611774565b825115612e585782518084602001fd5b8160405162461bcd60e51b815260040161069691906133db565b600082601f830112612e82578081fd5b81356020612e97612e9283613454565b613423565b80838252828201915082860187848660051b8901011115612eb6578586fd5b855b85811015612edd578135612ecb8161356e565b84529284019290840190600101612eb8565b5090979650505050505050565b600082601f830112612efa578081fd5b813567ffffffffffffffff811115612f1457612f14613543565b612f27601f8201601f1916602001613423565b818152846020838601011115612f3b578283fd5b816020850160208301379081016020019190915292915050565b600060208284031215612f66578081fd5b813561177481613559565b600080600060608486031215612f85578182fd5b8335612f9081613559565b92506020840135612fa081613559565b9150604084013567ffffffffffffffff811115612fbb578182fd5b612fc786828701612eea565b9150509250925092565b60008060408385031215612fe3578182fd5b823567ffffffffffffffff80821115612ffa578384fd5b818501915085601f83011261300d578384fd5b8135602061301d612e9283613454565b8083825282820191508286018a848660051b890101111561303c578889fd5b8896505b8487101561306757803561305381613559565b835260019690960195918301918301613040565b509650508601359250508082111561307d578283fd5b5061308a85828601612e72565b9150509250929050565b600060208083850312156130a6578182fd5b825167ffffffffffffffff8111156130bc578283fd5b8301601f810185136130cc578283fd5b80516130da612e9282613454565b80828252848201915084840188868560051b87010111156130f9578687fd5b8694505b8385101561311b5780518352600194909401939185019185016130fd565b50979650505050505050565b600060208284031215613138578081fd5b81516117748161356e565b60008060408385031215613155578182fd5b823561316081613559565b9150602083013561317081613559565b809150509250929050565b6000806040838503121561318d578182fd5b823561319881613559565b946020939093013593505050565b600080604083850312156131b8578182fd5b82356131c381613559565b9150602083013567ffffffffffffffff8111156131de578182fd5b61308a85828601612eea565b6000602082840312156131fb578081fd5b5035919050565b600060208284031215613213578081fd5b5051919050565b6000806040838503121561322c578182fd5b50508035926020909101359150565b6000815180845260208085019450808401835b838110156132735781516001600160a01b03168752958201959082019060010161324e565b509495945050505050565b6000815180845260208085019450808401835b8381101561327357815187529582019590820190600101613291565b600081518084526132c58160208601602086016134e6565b601f01601f19169290920160200192915050565b600082516132eb8184602087016134e6565b9190910192915050565b6001600160a01b038481168252831660208201526060604082018190526000906114d4908301846132ad565b6001600160a01b03929092168252602082015260400190565b60c08152600061334d60c083018961323b565b828103602084015261335f818961327e565b90508281036040840152613373818861323b565b90508281036060840152613387818761327e565b6001600160a01b038616608085015283810360a085015290506133aa81856132ad565b9998505050505050505050565b6001600160a01b0383168152604060208201819052600090612d19908301846132ad565b60208152600061177460208301846132ad565b6020808252818101527f4f776e61626c653a2063616c6c6572206973206e6f7420746865206f776e6572604082015260600190565b604051601f8201601f1916810167ffffffffffffffff8111828210171561344c5761344c613543565b604052919050565b600067ffffffffffffffff82111561346e5761346e613543565b5060051b60200190565b6000821982111561348b5761348b61352d565b500190565b6000826134ab57634e487b7160e01b81526012600452602481fd5b500490565b60008160001904831182151516156134ca576134ca61352d565b500290565b6000828210156134e1576134e161352d565b500390565b60005b838110156135015781810151838201526020016134e9565b83811115611d995750506000910152565b60006000198214156135265761352661352d565b5060010190565b634e487b7160e01b600052601160045260246000fd5b634e487b7160e01b600052604160045260246000fd5b6001600160a01b03811681146116a457600080fd5b80151581146116a457600080fdfea264697066735822122084bb66d93f834e81f354969914a83282ba9f980f27bf964e5a5c2f3d8867c3f464736f6c63430008040033",
  "linkReferences": {},
  "deployedLinkReferences": {}
}