{
  "_format": "hh-sol-artifact-1",
  "contractName": "MarginLong",
  "sourceName": "contracts/MarginLong/MarginLong.sol",
  "abi": [
    {
      "inputs": [
        {
          "internalType": "contract LPool",
          "name": "pool_",
          "type": "address"
        },
        {
          "internalType": "contract IOracle",
          "name": "oracle_",
          "type": "address"
        },
        {
          "internalType": "uint256",
          "name": "minMarginLevelPercent_",
          "type": "uint256"
        },
        {
          "internalType": "uint256",
          "name": "minCollateralPrice_",
          "type": "uint256"
        },
        {
          "internalType": "uint256",
          "name": "maxLeverage_",
          "type": "uint256"
        },
        {
          "internalType": "uint256",
          "name": "repayTaxPercent_",
          "type": "uint256"
        },
        {
          "internalType": "uint256",
          "name": "liquidationFeePercent_",
          "type": "uint256"
        }
      ],
      "stateMutability": "nonpayable",
      "type": "constructor"
    },
    {
      "anonymous": false,
      "inputs": [
        {
          "indexed": true,
          "internalType": "address",
          "name": "account",
          "type": "address"
        },
        {
          "indexed": false,
          "internalType": "contract IERC20",
          "name": "collateral",
          "type": "address"
        },
        {
          "indexed": false,
          "internalType": "uint256",
          "name": "amount",
          "type": "uint256"
        }
      ],
      "name": "AddCollateral",
      "type": "event"
    },
    {
      "anonymous": false,
      "inputs": [
        {
          "indexed": true,
          "internalType": "address",
          "name": "account",
          "type": "address"
        },
        {
          "indexed": false,
          "internalType": "contract IERC20",
          "name": "borrowed",
          "type": "address"
        },
        {
          "indexed": false,
          "internalType": "uint256",
          "name": "amount",
          "type": "uint256"
        }
      ],
      "name": "Borrow",
      "type": "event"
    },
    {
      "anonymous": false,
      "inputs": [
        {
          "indexed": true,
          "internalType": "address",
          "name": "account",
          "type": "address"
        },
        {
          "indexed": false,
          "internalType": "address",
          "name": "liquidator",
          "type": "address"
        }
      ],
      "name": "Liquidated",
      "type": "event"
    },
    {
      "anonymous": false,
      "inputs": [
        {
          "indexed": true,
          "internalType": "address",
          "name": "previousOwner",
          "type": "address"
        },
        {
          "indexed": true,
          "internalType": "address",
          "name": "newOwner",
          "type": "address"
        }
      ],
      "name": "OwnershipTransferred",
      "type": "event"
    },
    {
      "anonymous": false,
      "inputs": [
        {
          "indexed": true,
          "internalType": "address",
          "name": "account",
          "type": "address"
        },
        {
          "indexed": false,
          "internalType": "contract IERC20",
          "name": "collateral",
          "type": "address"
        },
        {
          "indexed": false,
          "internalType": "uint256",
          "name": "amount",
          "type": "uint256"
        }
      ],
      "name": "RemoveCollateral",
      "type": "event"
    },
    {
      "anonymous": false,
      "inputs": [
        {
          "indexed": true,
          "internalType": "address",
          "name": "account",
          "type": "address"
        }
      ],
      "name": "Repay",
      "type": "event"
    },
    {
      "anonymous": false,
      "inputs": [
        {
          "indexed": true,
          "internalType": "address",
          "name": "account",
          "type": "address"
        },
        {
          "indexed": false,
          "internalType": "address",
          "name": "resetter",
          "type": "address"
        }
      ],
      "name": "Reset",
      "type": "event"
    },
    {
      "inputs": [
        {
          "internalType": "contract IERC20",
          "name": "collateral_",
          "type": "address"
        },
        {
          "internalType": "uint256",
          "name": "amount_",
          "type": "uint256"
        }
      ],
      "name": "addCollateral",
      "outputs": [],
      "stateMutability": "nonpayable",
      "type": "function"
    },
    {
      "inputs": [
        {
          "internalType": "contract IERC20",
          "name": "borrowed_",
          "type": "address"
        },
        {
          "internalType": "uint256",
          "name": "amount_",
          "type": "uint256"
        }
      ],
      "name": "borrow",
      "outputs": [],
      "stateMutability": "nonpayable",
      "type": "function"
    },
    {
      "inputs": [
        {
          "internalType": "contract IERC20",
          "name": "borrowed_",
          "type": "address"
        },
        {
          "internalType": "address",
          "name": "account_",
          "type": "address"
        }
      ],
      "name": "borrowed",
      "outputs": [
        {
          "internalType": "uint256",
          "name": "",
          "type": "uint256"
        }
      ],
      "stateMutability": "view",
      "type": "function"
    },
    {
      "inputs": [
        {
          "internalType": "address",
          "name": "account_",
          "type": "address"
        }
      ],
      "name": "borrowedPrice",
      "outputs": [
        {
          "internalType": "uint256",
          "name": "",
          "type": "uint256"
        }
      ],
      "stateMutability": "view",
      "type": "function"
    },
    {
      "inputs": [
        {
          "internalType": "contract IERC20",
          "name": "collateral_",
          "type": "address"
        },
        {
          "internalType": "address",
          "name": "account_",
          "type": "address"
        }
      ],
      "name": "collateral",
      "outputs": [
        {
          "internalType": "uint256",
          "name": "",
          "type": "uint256"
        }
      ],
      "stateMutability": "view",
      "type": "function"
    },
    {
      "inputs": [
        {
          "internalType": "address",
          "name": "account_",
          "type": "address"
        }
      ],
      "name": "collateralPrice",
      "outputs": [
        {
          "internalType": "uint256",
          "name": "",
          "type": "uint256"
        }
      ],
      "stateMutability": "view",
      "type": "function"
    },
    {
      "inputs": [],
      "name": "getBorrowingAccounts",
      "outputs": [
        {
          "internalType": "address[]",
          "name": "",
          "type": "address[]"
        }
      ],
      "stateMutability": "view",
      "type": "function"
    },
    {
      "inputs": [
        {
          "internalType": "contract IERC20",
          "name": "borrowed_",
          "type": "address"
        },
        {
          "internalType": "address",
          "name": "account_",
          "type": "address"
        }
      ],
      "name": "initialBorrowBlock",
      "outputs": [
        {
          "internalType": "uint256",
          "name": "",
          "type": "uint256"
        }
      ],
      "stateMutability": "view",
      "type": "function"
    },
    {
      "inputs": [
        {
          "internalType": "contract IERC20",
          "name": "borrowed_",
          "type": "address"
        },
        {
          "internalType": "address",
          "name": "account_",
          "type": "address"
        }
      ],
      "name": "initialBorrowPrice",
      "outputs": [
        {
          "internalType": "uint256",
          "name": "",
          "type": "uint256"
        }
      ],
      "stateMutability": "view",
      "type": "function"
    },
    {
      "inputs": [
        {
          "internalType": "address",
          "name": "account_",
          "type": "address"
        }
      ],
      "name": "initialBorrowPrice",
      "outputs": [
        {
          "internalType": "uint256",
          "name": "",
          "type": "uint256"
        }
      ],
      "stateMutability": "view",
      "type": "function"
    },
    {
      "inputs": [
        {
          "internalType": "address",
          "name": "account_",
          "type": "address"
        }
      ],
      "name": "interest",
      "outputs": [
        {
          "internalType": "uint256",
          "name": "",
          "type": "uint256"
        }
      ],
      "stateMutability": "view",
      "type": "function"
    },
    {
      "inputs": [
        {
          "internalType": "contract IERC20",
          "name": "borrowed_",
          "type": "address"
        },
        {
          "internalType": "address",
          "name": "account_",
          "type": "address"
        }
      ],
      "name": "interest",
      "outputs": [
        {
          "internalType": "uint256",
          "name": "",
          "type": "uint256"
        }
      ],
      "stateMutability": "view",
      "type": "function"
    },
    {
      "inputs": [
        {
          "internalType": "contract IERC20",
          "name": "token_",
          "type": "address"
        }
      ],
      "name": "isApprovedBorrow",
      "outputs": [
        {
          "internalType": "bool",
          "name": "",
          "type": "bool"
        }
      ],
      "stateMutability": "view",
      "type": "function"
    },
    {
      "inputs": [
        {
          "internalType": "contract IERC20",
          "name": "token_",
          "type": "address"
        }
      ],
      "name": "isApprovedCollateral",
      "outputs": [
        {
          "internalType": "bool",
          "name": "",
          "type": "bool"
        }
      ],
      "stateMutability": "view",
      "type": "function"
    },
    {
      "inputs": [
        {
          "internalType": "contract IERC20",
          "name": "borrowed_",
          "type": "address"
        },
        {
          "internalType": "address",
          "name": "account_",
          "type": "address"
        }
      ],
      "name": "isBorrowing",
      "outputs": [
        {
          "internalType": "bool",
          "name": "",
          "type": "bool"
        }
      ],
      "stateMutability": "view",
      "type": "function"
    },
    {
      "inputs": [
        {
          "internalType": "address",
          "name": "account_",
          "type": "address"
        }
      ],
      "name": "isBorrowing",
      "outputs": [
        {
          "internalType": "bool",
          "name": "",
          "type": "bool"
        }
      ],
      "stateMutability": "view",
      "type": "function"
    },
    {
      "inputs": [
        {
          "internalType": "address",
          "name": "account_",
          "type": "address"
        }
      ],
      "name": "liquidatable",
      "outputs": [
        {
          "internalType": "bool",
          "name": "",
          "type": "bool"
        }
      ],
      "stateMutability": "view",
      "type": "function"
    },
    {
      "inputs": [],
      "name": "liquidationFeePercent",
      "outputs": [
        {
          "internalType": "uint256",
          "name": "",
          "type": "uint256"
        },
        {
          "internalType": "uint256",
          "name": "",
          "type": "uint256"
        }
      ],
      "stateMutability": "view",
      "type": "function"
    },
    {
      "inputs": [
        {
          "internalType": "address",
          "name": "account_",
          "type": "address"
        }
      ],
      "name": "marginLevel",
      "outputs": [
        {
          "internalType": "uint256",
          "name": "",
          "type": "uint256"
        },
        {
          "internalType": "uint256",
          "name": "",
          "type": "uint256"
        }
      ],
      "stateMutability": "view",
      "type": "function"
    },
    {
      "inputs": [],
      "name": "maxLeverage",
      "outputs": [
        {
          "internalType": "uint256",
          "name": "",
          "type": "uint256"
        }
      ],
      "stateMutability": "view",
      "type": "function"
    },
    {
      "inputs": [
        {
          "internalType": "address",
          "name": "account_",
          "type": "address"
        }
      ],
      "name": "maxLeverageReached",
      "outputs": [
        {
          "internalType": "bool",
          "name": "",
          "type": "bool"
        }
      ],
      "stateMutability": "view",
      "type": "function"
    },
    {
      "inputs": [],
      "name": "minCollateralPrice",
      "outputs": [
        {
          "internalType": "uint256",
          "name": "",
          "type": "uint256"
        }
      ],
      "stateMutability": "view",
      "type": "function"
    },
    {
      "inputs": [],
      "name": "minMarginLevel",
      "outputs": [
        {
          "internalType": "uint256",
          "name": "",
          "type": "uint256"
        },
        {
          "internalType": "uint256",
          "name": "",
          "type": "uint256"
        }
      ],
      "stateMutability": "view",
      "type": "function"
    },
    {
      "inputs": [],
      "name": "oracle",
      "outputs": [
        {
          "internalType": "contract IOracle",
          "name": "",
          "type": "address"
        }
      ],
      "stateMutability": "view",
      "type": "function"
    },
    {
      "inputs": [],
      "name": "owner",
      "outputs": [
        {
          "internalType": "address",
          "name": "",
          "type": "address"
        }
      ],
      "stateMutability": "view",
      "type": "function"
    },
    {
      "inputs": [],
      "name": "pool",
      "outputs": [
        {
          "internalType": "contract LPool",
          "name": "",
          "type": "address"
        }
      ],
      "stateMutability": "view",
      "type": "function"
    },
    {
      "inputs": [
        {
          "internalType": "contract IERC20",
          "name": "collateral_",
          "type": "address"
        },
        {
          "internalType": "uint256",
          "name": "amount_",
          "type": "uint256"
        }
      ],
      "name": "removeCollateral",
      "outputs": [],
      "stateMutability": "nonpayable",
      "type": "function"
    },
    {
      "inputs": [],
      "name": "renounceOwnership",
      "outputs": [],
      "stateMutability": "nonpayable",
      "type": "function"
    },
    {
      "inputs": [],
      "name": "repayAccount",
      "outputs": [],
      "stateMutability": "nonpayable",
      "type": "function"
    },
    {
      "inputs": [],
      "name": "repayTax",
      "outputs": [
        {
          "internalType": "uint256",
          "name": "",
          "type": "uint256"
        },
        {
          "internalType": "uint256",
          "name": "",
          "type": "uint256"
        }
      ],
      "stateMutability": "view",
      "type": "function"
    },
    {
      "inputs": [
        {
          "internalType": "address",
          "name": "account_",
          "type": "address"
        }
      ],
      "name": "resetAccount",
      "outputs": [],
      "stateMutability": "nonpayable",
      "type": "function"
    },
    {
      "inputs": [
        {
          "internalType": "address",
          "name": "account_",
          "type": "address"
        }
      ],
      "name": "resettable",
      "outputs": [
        {
          "internalType": "bool",
          "name": "",
          "type": "bool"
        }
      ],
      "stateMutability": "view",
      "type": "function"
    },
    {
      "inputs": [
        {
          "internalType": "contract IERC20[]",
          "name": "token_",
          "type": "address[]"
        },
        {
          "internalType": "bool[]",
          "name": "approved_",
          "type": "bool[]"
        }
      ],
      "name": "setApprovedBorrow",
      "outputs": [],
      "stateMutability": "nonpayable",
      "type": "function"
    },
    {
      "inputs": [
        {
          "internalType": "contract IERC20[]",
          "name": "token_",
          "type": "address[]"
        },
        {
          "internalType": "bool[]",
          "name": "approved_",
          "type": "bool[]"
        }
      ],
      "name": "setApprovedCollateral",
      "outputs": [],
      "stateMutability": "nonpayable",
      "type": "function"
    },
    {
      "inputs": [
        {
          "internalType": "uint256",
          "name": "liquidationFeePercentNumerator_",
          "type": "uint256"
        },
        {
          "internalType": "uint256",
          "name": "liquidationFeePercentDenominator_",
          "type": "uint256"
        }
      ],
      "name": "setLiquidationFeePercent",
      "outputs": [],
      "stateMutability": "nonpayable",
      "type": "function"
    },
    {
      "inputs": [
        {
          "internalType": "uint256",
          "name": "maxLeverage_",
          "type": "uint256"
        }
      ],
      "name": "setMaxLeverage",
      "outputs": [],
      "stateMutability": "nonpayable",
      "type": "function"
    },
    {
      "inputs": [
        {
          "internalType": "uint256",
          "name": "minCollateralPrice_",
          "type": "uint256"
        }
      ],
      "name": "setMinCollateralPrice",
      "outputs": [],
      "stateMutability": "nonpayable",
      "type": "function"
    },
    {
      "inputs": [
        {
          "internalType": "uint256",
          "name": "minMarginLevelNumerator_",
          "type": "uint256"
        },
        {
          "internalType": "uint256",
          "name": "minMarginLevelDenominator_",
          "type": "uint256"
        }
      ],
      "name": "setMinMarginLevel",
      "outputs": [],
      "stateMutability": "nonpayable",
      "type": "function"
    },
    {
      "inputs": [
        {
          "internalType": "contract IOracle",
          "name": "oracle_",
          "type": "address"
        }
      ],
      "name": "setOracle",
      "outputs": [],
      "stateMutability": "nonpayable",
      "type": "function"
    },
    {
      "inputs": [
        {
          "internalType": "contract LPool",
          "name": "pool_",
          "type": "address"
        }
      ],
      "name": "setPool",
      "outputs": [],
      "stateMutability": "nonpayable",
      "type": "function"
    },
    {
      "inputs": [
        {
          "internalType": "uint256",
          "name": "repayTaxNumerator_",
          "type": "uint256"
        },
        {
          "internalType": "uint256",
          "name": "repayTaxDenominator_",
          "type": "uint256"
        }
      ],
      "name": "setRepayTax",
      "outputs": [],
      "stateMutability": "nonpayable",
      "type": "function"
    },
    {
      "inputs": [
        {
          "internalType": "address",
          "name": "account_",
          "type": "address"
        }
      ],
      "name": "sufficientCollateralPrice",
      "outputs": [
        {
          "internalType": "bool",
          "name": "",
          "type": "bool"
        }
      ],
      "stateMutability": "view",
      "type": "function"
    },
    {
      "inputs": [
        {
          "internalType": "contract IERC20",
          "name": "borrowed_",
          "type": "address"
        }
      ],
      "name": "totalBorrowed",
      "outputs": [
        {
          "internalType": "uint256",
          "name": "",
          "type": "uint256"
        }
      ],
      "stateMutability": "view",
      "type": "function"
    },
    {
      "inputs": [
        {
          "internalType": "contract IERC20",
          "name": "collateral_",
          "type": "address"
        }
      ],
      "name": "totalCollateral",
      "outputs": [
        {
          "internalType": "uint256",
          "name": "",
          "type": "uint256"
        }
      ],
      "stateMutability": "view",
      "type": "function"
    },
    {
      "inputs": [
        {
          "internalType": "address",
          "name": "newOwner",
          "type": "address"
        }
      ],
      "name": "transferOwnership",
      "outputs": [],
      "stateMutability": "nonpayable",
      "type": "function"
    }
  ],
  "bytecode": "0x60806040523480156200001157600080fd5b506040516200318a3803806200318a8339810160408190526200003491620000f8565b806064838187878a838e8e6200004a33620000a8565b600180546001600160a01b039384166001600160a01b03199182161790915560028054929093169116179055600891909155600955600a91909155600b55600e91909155600f55601091909155601155506200017c95505050505050565b600080546001600160a01b038381166001600160a01b0319831681178455604051919092169283917f8be0079c531659141344cd1fd0a4f28419497f9722a3daafe3b4186f6b6457e09190a35050565b600080600080600080600060e0888a03121562000113578283fd5b8751620001208162000163565b6020890151909750620001338162000163565b604089015160608a015160808b015160a08c015160c0909c01519a9d939c50919a90999198509650945092505050565b6001600160a01b03811681146200017957600080fd5b50565b612ffe806200018c6000396000f3fe608060405234801561001057600080fd5b506004361061027f5760003560e01c80637c9ff9eb1161015c578063ae3302c2116100ce578063d3eec40411610087578063d3eec40414610600578063d8459b4514610613578063e2e1ca2b14610626578063f2fde38b1461064f578063f5af8d1114610662578063ffec70af1461067557600080fd5b8063ae3302c214610598578063b0a02abe146105a1578063b64c7404146105b4578063ca3134f6146105c7578063cc218ece146105da578063d3127e63146105ed57600080fd5b8063876467f811610120578063876467f81461051a57806389259f171461052d5780638da5cb5b14610540578063a831e7ec14610551578063a9c3a73214610559578063ac436bdf1461058557600080fd5b80637c9ff9eb146104875780637dc0d1d0146104c25780637e059b22146104d55780637e773d01146104fe578063813c23021461050757600080fd5b80634b8a3529116101f55780636847e50b116101b95780636847e50b1461041e5780636d75b9ee146104335780636fc2d3c614610446578063706f1ada14610459578063715018a61461046c5780637adbf9731461047457600080fd5b80634b8a35291461039b5780634eb72012146103ae57806350711be9146103b9578063661c6c4e146103e757806366dad8f4146103f257600080fd5b8063172fc1f211610247578063172fc1f21461032057806325b69c0c146103335780632becebd21461034f5780632d03c653146103625780632dbaacdc146103755780634437152a1461038857600080fd5b806303f5aaad1461028457806308b1cb23146102ac5780630f9b628e146102cd57806314ace5bb146102e257806316f0115b146102f5575b600080fd5b610297610292366004612cd1565b610688565b60405190151581526020015b60405180910390f35b6102bf6102ba366004612bd6565b61069f565b6040519081526020016102a3565b6102e06102db366004612d64565b6106ff565b005b6102e06102f0366004612d64565b61073d565b600154610308906001600160a01b031681565b6040516001600160a01b0390911681526020016102a3565b61029761032e366004612bd6565b610772565b6008546009545b604080519283526020830191909152016102a3565b61029761035d366004612bd6565b610788565b6102e0610370366004612bf2565b6107c3565b610297610383366004612bd6565b61088e565b6102e0610396366004612bd6565b6108af565b6102e06103a9366004612d09565b6108fb565b60105460115461033a565b6102976103c7366004612bd6565b6001600160a01b0316600090815260076020526040902060080154151590565b600e54600f5461033a565b610297610400366004612bd6565b6001600160a01b031660009081526003602052604090205460ff1690565b610426610bf7565b6040516102a39190612dba565b6102e0610441366004612d09565b610c08565b6102e0610454366004612bf2565b610cec565b6102bf610467366004612cd1565b610db2565b6102e0610de2565b6102e0610482366004612bd6565b610e18565b6102bf610495366004612cd1565b6001600160a01b039081166000908152600760208181526040808420959094168352930190925290205490565b600254610308906001600160a01b031681565b6102bf6104e3366004612bd6565b6001600160a01b031660009081526006602052604090205490565b6102bf600a5481565b61033a610515366004612bd6565b610e64565b6102e0610528366004612d09565b610eab565b6102e061053b366004612d64565b611019565b6000546001600160a01b0316610308565b6102e061104e565b610297610567366004612bd6565b6001600160a01b031660009081526004602052604090205460ff1690565b6102bf610593366004612bd6565b611100565b6102bf600b5481565b6102bf6105af366004612cd1565b611163565b6102bf6105c2366004612bd6565b611193565b6102e06105d5366004612bd6565b6111f6565b6102bf6105e8366004612cd1565b611374565b6102e06105fb366004612d34565b6113a4565b6102e061060e366004612d34565b6113d3565b6102bf610621366004612bd6565b611402565b6102bf610634366004612bd6565b6001600160a01b031660009081526005602052604090205490565b6102e061065d366004612bd6565b611456565b6102bf610670366004612cd1565b6114f1565b610297610683366004612bd6565b6115c5565b6000806106958484611163565b1190505b92915050565b6001600160a01b038116600090815260076020526040812081805b60018301548110156106f7576106e36106dc6106d68584611609565b8761164a565b8390611686565b9150806106ef81612f5e565b9150506106ba565b509392505050565b6000546001600160a01b031633146107325760405162461bcd60e51b815260040161072990612e3a565b60405180910390fd5b600891909155600955565b6000546001600160a01b031633146107675760405162461bcd60e51b815260040161072990612e3a565b601091909155601155565b6000600a546107808361069f565b101592915050565b6000806107948361069f565b905060006107a184611193565b9050806107b9600b548461169290919063ffffffff16565b1015949350505050565b6000546001600160a01b031633146107ed5760405162461bcd60e51b815260040161072990612e3a565b60005b82518110156108895781818151811061081957634e487b7160e01b600052603260045260246000fd5b60200260200101516004600085848151811061084557634e487b7160e01b600052603260045260246000fd5b6020908102919091018101516001600160a01b03168252810191909152604001600020805460ff19169115159190911790558061088181612f5e565b9150506107f0565b505050565b600061089982610788565b8061069957506108a882610772565b1592915050565b6000546001600160a01b031633146108d95760405162461bcd60e51b815260040161072990612e3a565b600180546001600160a01b0319166001600160a01b0392909216919091179055565b8161091e816001600160a01b031660009081526004602052604090205460ff1690565b61096a5760405162461bcd60e51b815260206004820181905260248201527f4f6e6c7920617070726f76656420746f6b656e73206d617920626520757365646044820152606401610729565b61097333610772565b6109d15760405162461bcd60e51b815260206004820152602960248201527f496e73756666696369656e7420636f6c6c61746572616c20746f20626f72726f6044820152681dc81859d85a5b9cdd60ba1b6064820152608401610729565b6109db8333610688565b610a10573360009081526007602081815260408084206001600160a01b038816855290920190529020439055610a103361169e565b600154604051635569f64b60e11b81526001600160a01b039091169063aad3ec9690610a429086908690600401612da1565b600060405180830381600087803b158015610a5c57600080fd5b505af1158015610a70573d6000803e3d6000fd5b50505050610a9383610a8d84610a87876105af3390565b90611686565b336116a9565b60025460405163b1d5e1b960e01b81526000916001600160a01b03169063b1d5e1b990610ac69087908790600401612da1565b60206040518083038186803b158015610ade57600080fd5b505afa158015610af2573d6000803e3d6000fd5b505050506040513d601f19601f82011682018060405250810190610b169190612d4c565b9050610b3084610b2a83610a878333610db2565b336117de565b610b3933610788565b158015610b4c5750610b4a336115c5565b155b610bae5760405162461bcd60e51b815260206004820152602d60248201527f426f72726f77696e67206465736972656420616d6f756e74207075747320616360448201526c636f756e74206174207269736b60981b6064820152608401610729565b336001600160a01b03167f312a5e5e1079f5dda4e95dbbd0b908b291fd5b992ef22073643ab691572c5b528585604051610be9929190612da1565b60405180910390a250505050565b6060610c03600c61180e565b905090565b81610c2b816001600160a01b031660009081526003602052604090205460ff1690565b610c775760405162461bcd60e51b815260206004820181905260248201527f4f6e6c7920617070726f76656420746f6b656e73206d617920626520757365646044820152606401610729565b610c8c6001600160a01b038416333085611874565b610ca483610c9e84610a878333611374565b336118e5565b336001600160a01b03167fa32435755c235de2976ed44a75a2f85cb01faf0c894f639fe0c32bb9455fea8f8484604051610cdf929190612da1565b60405180910390a2505050565b6000546001600160a01b03163314610d165760405162461bcd60e51b815260040161072990612e3a565b60005b825181101561088957818181518110610d4257634e487b7160e01b600052603260045260246000fd5b602002602001015160036000858481518110610d6e57634e487b7160e01b600052603260045260246000fd5b6020908102919091018101516001600160a01b03168252810191909152604001600020805460ff191691151591909117905580610daa81612f5e565b915050610d19565b6001600160a01b038082166000908152600760209081526040808320938616835260069093019052205492915050565b6000546001600160a01b03163314610e0c5760405162461bcd60e51b815260040161072990612e3a565b610e1660006119e0565b565b6000546001600160a01b03163314610e425760405162461bcd60e51b815260040161072990612e3a565b600280546001600160a01b0319166001600160a01b0392909216919091179055565b6000806000610e7284611193565b90506000610e7f85611100565b9050610e96610e8d8661069f565b610a8787611402565b610ea08383611686565b935093505050915091565b6000610eb78333611374565b905080821115610f1e5760405162461bcd60e51b815260206004820152602c60248201527f43616e6e6f742072656d6f7665206d6f7265207468616e20617661696c61626c60448201526b194818dbdb1b185d195c985b60a21b6064820152608401610729565b610f3683610c9e84610f308333611374565b90611a30565b610f3f336103c7565b1580610f625750610f4f3361088e565b158015610f625750610f60336115c5565b155b610fca5760405162461bcd60e51b815260206004820152603360248201527f5769746864726177696e67206465736972656420636f6c6c61746572616c2070604482015272757473206163636f756e74206174207269736b60681b6064820152608401610729565b610fde6001600160a01b0384163384611a3c565b336001600160a01b03167f367be65505e5aff90e7e646744b5f75280ec6d79a0e78690f6020b875a03bc128484604051610cdf929190612da1565b6000546001600160a01b031633146110435760405162461bcd60e51b815260040161072990612e3a565b600e91909155600f55565b60006110593361069f565b905061106433611a5b565b600061106f3361069f565b9050818111156110d157600080611089600e54600f549091565b909250905060006110ae826110a8856110a2888a611a30565b90611692565b90611a76565b90506000806110bd8333611a82565b915091506110cb8282611ab0565b50505050505b60405133907f5f9ec7a6c98280524f8d172d79eecf9e9660ad36b52d1836dd45dd81a342bd1390600090a25050565b60008061110c83611c00565b90506000805b82518110156106f75761114f6106dc84838151811061114157634e487b7160e01b600052603260045260246000fd5b6020026020010151876114f1565b91508061115b81612f5e565b915050611112565b6001600160a01b038082166000908152600760209081526040808320938616835260059093019052205492915050565b60008061119f83611c00565b90506000805b82518110156106f7576111e26106dc8483815181106111d457634e487b7160e01b600052603260045260246000fd5b602002602001015187610db2565b9150806111ee81612f5e565b9150506111a5565b6111ff8161088e565b61124b5760405162461bcd60e51b815260206004820152601c60248201527f54686973206163636f756e742063616e6e6f74206265207265736574000000006044820152606401610729565b61125481611a5b565b600061125f8261069f565b9050600080611271600e54600f549091565b90925090506000611286826110a88686611692565b90506000806112958333611a82565b9150915060005b825181101561132357611311338383815181106112c957634e487b7160e01b600052603260045260246000fd5b60200260200101518584815181106112f157634e487b7160e01b600052603260045260246000fd5b60200260200101516001600160a01b0316611a3c9092919063ffffffff16565b8061131b81612f5e565b91505061129c565b506001600160a01b0387167fa5df7b378f5dbf7c276ac35d5314c533b2fa1d772a893f471c41481862ec93db336040516001600160a01b03909116815260200160405180910390a250505050505050565b6001600160a01b038082166000908152600760209081526040808320938616835260029093019052205492915050565b6000546001600160a01b031633146113ce5760405162461bcd60e51b815260040161072990612e3a565b600b55565b6000546001600160a01b031633146113fd5760405162461bcd60e51b815260040161072990612e3a565b600a55565b6001600160a01b038116600090815260076020526040812081805b60048301548110156106f7576114426106dc61143c6003860184611609565b87611c27565b91508061144e81612f5e565b91505061141d565b6000546001600160a01b031633146114805760405162461bcd60e51b815260040161072990612e3a565b6001600160a01b0381166114e55760405162461bcd60e51b815260206004820152602660248201527f4f776e61626c653a206e6577206f776e657220697320746865207a65726f206160448201526564647265737360d01b6064820152608401610729565b6114ee816119e0565b50565b6001546000906001600160a01b031663d0b9622c846115108186610db2565b6001600160a01b038087166000908152600760208181526040808420948c16845293909101905220546040516001600160e01b031960e086901b1681526001600160a01b039093166004840152602483019190915260448201526064015b60206040518083038186803b15801561158657600080fd5b505afa15801561159a573d6000803e3d6000fd5b505050506040513d601f19601f820116820180604052508101906115be9190612d4c565b9392505050565b60008060006115d384610e64565b60085491935091506000906115e89083611692565b6009549091506000906115fc908590611692565b9091101595945050505050565b600082600101828154811061162e57634e487b7160e01b600052603260045260246000fd5b6000918252602090912001546001600160a01b03169392505050565b6002546000906001600160a01b031663b1d5e1b9846116698186611374565b6040518363ffffffff1660e01b815260040161156e929190612da1565b60006115be8284612ec4565b60006115be8284612efc565b6114ee600c82611c46565b6001600160a01b0380821660009081526007602090815260408083209387168352600584019091529020541580156116e057508215155b156116f7576116f26003820185611d00565b611730565b6001600160a01b03841660009081526005820160205260409020541580159061171e575082155b15611730576117306003820185611d57565b6001600160a01b038416600090815260058083016020908152604080842054929091529091205461178991869161176d918791610a879190610f30565b6001600160a01b03909116600090815260056020526040902055565b6001600160a01b038416600090815260058201602052604090205460088201546117b8918591610a8791611a30565b60088201556001600160a01b039093166000908152600590930160205250604090912055565b6001600160a01b039081166000908152600760209081526040808320959093168252600690940190935290912055565b60608160010180548060200260200160405190810160405280929190818152602001828054801561186857602002820191906000526020600020905b81546001600160a01b0316815260019091019060200180831161184a575b50505050509050919050565b6040516001600160a01b03808516602483015283166044820152606481018290526118df9085906323b872dd60e01b906084015b60408051601f198184030181529190526020810180516001600160e01b03166001600160e01b031990931692909217909152611eba565b50505050565b6001600160a01b03808216600090815260076020908152604080832093871683526002840190915290205415801561191c57508215155b156119305761192b8185611d00565b611966565b6001600160a01b038416600090815260028201602052604090205415801590611957575082155b15611966576119668185611d57565b6001600160a01b03841660009081526002820160209081526040808320546006909252909120546119bf9186916119a3918791610a879190610f30565b6001600160a01b03909116600090815260066020526040902055565b6001600160a01b039093166000908152600290930160205250604090912055565b600080546001600160a01b038381166001600160a01b0319831681178455604051919092169283917f8be0079c531659141344cd1fd0a4f28419497f9722a3daafe3b4186f6b6457e09190a35050565b60006115be8284612f1b565b6108898363a9059cbb60e01b84846040516024016118a8929190612da1565b611a6481611f8c565b611a6d8161201e565b6114ee81612189565b60006115be8284612edc565b6060806000611a9084612194565b905060606000611aa387878585856121b8565b5091969095509350505050565b60005b8251811015610889576001548251611b37916001600160a01b031690849084908110611aef57634e487b7160e01b600052603260045260246000fd5b6020026020010151858481518110611b1757634e487b7160e01b600052603260045260246000fd5b60200260200101516001600160a01b03166123f29092919063ffffffff16565b60015483516001600160a01b03909116906347e7ef2490859084908110611b6e57634e487b7160e01b600052603260045260246000fd5b6020026020010151848481518110611b9657634e487b7160e01b600052603260045260246000fd5b60200260200101516040518363ffffffff1660e01b8152600401611bbb929190612da1565b600060405180830381600087803b158015611bd557600080fd5b505af1158015611be9573d6000803e3d6000fd5b505050508080611bf890612f5e565b915050611ab3565b6001600160a01b03811660009081526007602052604090206060906106999060030161180e565b6002546000906001600160a01b031663b1d5e1b9846116698186611163565b611c508282612505565b15611ca85760405162461bcd60e51b815260206004820152602260248201527f4164647265737320616c72656164792065786973747320696e207468652073656044820152613a1760f11b6064820152608401610729565b6001828101805480830182556000828152602090200180546001600160a01b0319166001600160a01b03851617905554611ce29190612f1b565b6001600160a01b039091166000908152602092909252604090912055565b611d0a8282612505565b15611ca85760405162461bcd60e51b815260206004820181905260248201527f546f6b656e20616c72656164792065786973747320696e20746865207365742e6044820152606401610729565b611d618282612505565b611dad5760405162461bcd60e51b815260206004820181905260248201527f546f6b656e20646f6573206e6f7420657869737420696e20746865207365742e6044820152606401610729565b60018281018054600092611dc091612f1b565b81548110611dde57634e487b7160e01b600052603260045260246000fd5b60009182526020808320909101546001600160a01b03858116845291869052604080842054929091168084529220819055600185018054929350909183919083908110611e3b57634e487b7160e01b600052603260045260246000fd5b600091825260208083209190910180546001600160a01b0319166001600160a01b03948516179055918516815290859052604081205560018401805480611e9257634e487b7160e01b600052603160045260246000fd5b600082815260209020810160001990810180546001600160a01b031916905501905550505050565b6000611f0f826040518060400160405280602081526020017f5361666545524332303a206c6f772d6c6576656c2063616c6c206661696c6564815250856001600160a01b03166125749092919063ffffffff16565b8051909150156108895780806020019051810190611f2d9190612cb5565b6108895760405162461bcd60e51b815260206004820152602a60248201527f5361666545524332303a204552433230206f7065726174696f6e20646964206e6044820152691bdd081cdd58d8d9595960b21b6064820152608401610729565b6000611f9782611c00565b905060005b815181101561088957611fd6828281518110611fc857634e487b7160e01b600052603260045260246000fd5b60200260200101518461258b565b1561200c5761200c828281518110611ffe57634e487b7160e01b600052603260045260246000fd5b6020026020010151846125cc565b8061201681612f5e565b915050611f9c565b600061202982611c00565b9050600080612037846126e0565b9150915060005b835181101561217e5760015484516001600160a01b039091169063bffe84c29086908490811061207e57634e487b7160e01b600052603260045260246000fd5b60200260200101516120b78785815181106120a957634e487b7160e01b600052603260045260246000fd5b602002602001015189611163565b6040518363ffffffff1660e01b81526004016120d4929190612da1565b600060405180830381600087803b1580156120ee57600080fd5b505af1158015612102573d6000803e3d6000fd5b5050505061213984828151811061212957634e487b7160e01b600052603260045260246000fd5b60200260200101516000876116a9565b61216c84828151811061215c57634e487b7160e01b600052603260045260246000fd5b60200260200101516000876117de565b8061217681612f5e565b91505061203e565b506118df8282611ab0565b6114ee600c826128a0565b6001600160a01b03811660009081526007602052604090206060906106999061180e565b60005b6000861180156121cb5750835182105b156123e95760006122038584815181106121f557634e487b7160e01b600052603260045260246000fd5b602002602001015187611374565b9050600061223886858151811061222a57634e487b7160e01b600052603260045260246000fd5b60200260200101518861164a565b9050878110156122c0578185858151811061226357634e487b7160e01b600052603260045260246000fd5b6020026020010181815250506122a286858151811061229257634e487b7160e01b600052603260045260246000fd5b60200260200101516000896118e5565b6122ac8882611a30565b97506122b9846001611686565b93506123e2565b60025486516000916001600160a01b0316906395f881c9908990889081106122f857634e487b7160e01b600052603260045260246000fd5b6020026020010151846040518363ffffffff1660e01b815260040161231e929190612da1565b60206040518083038186803b15801561233657600080fd5b505afa15801561234a573d6000803e3d6000fd5b505050506040513d601f19601f8201168201806040525081019061236e9190612d4c565b90508281111561237b5750815b8086868151811061239c57634e487b7160e01b600052603260045260246000fd5b6020026020010181815250506123da8786815181106123cb57634e487b7160e01b600052603260045260246000fd5b6020026020010151828a6118e5565b5050506123e9565b50506121bb565b50949350505050565b80158061247b5750604051636eb1769f60e11b81523060048201526001600160a01b03838116602483015284169063dd62ed3e9060440160206040518083038186803b15801561244157600080fd5b505afa158015612455573d6000803e3d6000fd5b505050506040513d601f19601f820116820180604052508101906124799190612d4c565b155b6124e65760405162461bcd60e51b815260206004820152603660248201527f5361666545524332303a20617070726f76652066726f6d206e6f6e2d7a65726f60448201527520746f206e6f6e2d7a65726f20616c6c6f77616e636560501b6064820152608401610729565b6108898363095ea7b360e01b84846040516024016118a8929190612da1565b600182015460009061251957506000610699565b6001600160a01b038216600081815260208590526040902054600185018054909190811061255757634e487b7160e01b600052603260045260246000fd5b6000918252602090912001546001600160a01b0316149392505050565b60606125838484600085612901565b949350505050565b6000806125988484611c27565b905060006125a68585610db2565b905060006125b486866114f1565b90506125c08282611686565b90921195945050505050565b60006125d88383611163565b905060006125e68484612a29565b90506125f4846000856117de565b612600846000856116a9565b600154604051635fff426160e11b81526001600160a01b039091169063bffe84c2906126329087908690600401612da1565b600060405180830381600087803b15801561264c57600080fd5b505af1158015612660573d6000803e3d6000fd5b505060015460405163f3fef3a360e01b81526001600160a01b03909116925063f3fef3a391506126969087908590600401612da1565b600060405180830381600087803b1580156126b057600080fd5b505af11580156126c4573d6000803e3d6000fd5b505050506118df846126da83610a878888611374565b856118e5565b60608060006126ee84611c00565b90506000815167ffffffffffffffff81111561271a57634e487b7160e01b600052604160045260246000fd5b604051908082528060200260200182016040528015612743578160200160208202803683370190505b509050600061275186612194565b905060606000805b855181101561289257600061279587838151811061278757634e487b7160e01b600052603260045260246000fd5b60200260200101518b612aec565b60025488519192506001600160a01b03169063468cde72908990859081106127cd57634e487b7160e01b600052603260045260246000fd5b6020026020010151836040518363ffffffff1660e01b81526004016127f3929190612da1565b60206040518083038186803b15801561280b57600080fd5b505afa15801561281f573d6000803e3d6000fd5b505050506040513d601f19601f820116820180604052508101906128439190612d4c565b86838151811061286357634e487b7160e01b600052603260045260246000fd5b60200260200101818152505061287c818b8787876121b8565b925050808061288a90612f5e565b915050612759565b509197909650945050505050565b6128aa8282612505565b611dad5760405162461bcd60e51b815260206004820152602260248201527f4164647265737320646f6573206e6f7420657869737420696e207468652073656044820152613a1760f11b6064820152608401610729565b6060824710156129625760405162461bcd60e51b815260206004820152602660248201527f416464726573733a20696e73756666696369656e742062616c616e636520666f6044820152651c8818d85b1b60d21b6064820152608401610729565b843b6129b05760405162461bcd60e51b815260206004820152601d60248201527f416464726573733a2063616c6c20746f206e6f6e2d636f6e74726163740000006044820152606401610729565b600080866001600160a01b031685876040516129cc9190612d85565b60006040518083038185875af1925050503d8060008114612a09576040519150601f19603f3d011682016040523d82523d6000602084013e612a0e565b606091505b5091509150612a1e828286612b25565b979650505050505050565b600080612a368484611c27565b90506000612a448585610db2565b90506000612a5286866114f1565b6002549091506001600160a01b03166395f881c987612a7584610f308888611a30565b6040518363ffffffff1660e01b8152600401612a92929190612da1565b60206040518083038186803b158015612aaa57600080fd5b505afa158015612abe573d6000803e3d6000fd5b505050506040513d601f19601f82011682018060405250810190612ae29190612d4c565b9695505050505050565b600080612af98484611c27565b90506000612b078585610db2565b90506000612b1586866114f1565b9050612ae283610f308484611686565b60608315612b345750816115be565b825115612b445782518084602001fd5b8160405162461bcd60e51b81526004016107299190612e07565b600082601f830112612b6e578081fd5b81356020612b83612b7e83612ea0565b612e6f565b80838252828201915082860187848660051b8901011115612ba2578586fd5b855b85811015612bc9578135612bb781612fba565b84529284019290840190600101612ba4565b5090979650505050505050565b600060208284031215612be7578081fd5b81356115be81612fa5565b60008060408385031215612c04578081fd5b823567ffffffffffffffff80821115612c1b578283fd5b818501915085601f830112612c2e578283fd5b81356020612c3e612b7e83612ea0565b8083825282820191508286018a848660051b8901011115612c5d578788fd5b8796505b84871015612c88578035612c7481612fa5565b835260019690960195918301918301612c61565b5096505086013592505080821115612c9e578283fd5b50612cab85828601612b5e565b9150509250929050565b600060208284031215612cc6578081fd5b81516115be81612fba565b60008060408385031215612ce3578182fd5b8235612cee81612fa5565b91506020830135612cfe81612fa5565b809150509250929050565b60008060408385031215612d1b578182fd5b8235612d2681612fa5565b946020939093013593505050565b600060208284031215612d45578081fd5b5035919050565b600060208284031215612d5d578081fd5b5051919050565b60008060408385031215612d76578182fd5b50508035926020909101359150565b60008251612d97818460208701612f32565b9190910192915050565b6001600160a01b03929092168252602082015260400190565b6020808252825182820181905260009190848201906040850190845b81811015612dfb5783516001600160a01b031683529284019291840191600101612dd6565b50909695505050505050565b6020815260008251806020840152612e26816040850160208701612f32565b601f01601f19169190910160400192915050565b6020808252818101527f4f776e61626c653a2063616c6c6572206973206e6f7420746865206f776e6572604082015260600190565b604051601f8201601f1916810167ffffffffffffffff81118282101715612e9857612e98612f8f565b604052919050565b600067ffffffffffffffff821115612eba57612eba612f8f565b5060051b60200190565b60008219821115612ed757612ed7612f79565b500190565b600082612ef757634e487b7160e01b81526012600452602481fd5b500490565b6000816000190483118215151615612f1657612f16612f79565b500290565b600082821015612f2d57612f2d612f79565b500390565b60005b83811015612f4d578181015183820152602001612f35565b838111156118df5750506000910152565b6000600019821415612f7257612f72612f79565b5060010190565b634e487b7160e01b600052601160045260246000fd5b634e487b7160e01b600052604160045260246000fd5b6001600160a01b03811681146114ee57600080fd5b80151581146114ee57600080fdfea264697066735822122061b2e38568d3e707acca2d7127ac48f1031089365101b1ba20ed166f470dfa5664736f6c63430008040033",
  "linkReferences": {},
  "deployedLinkReferences": {}
}