{
  "_format": "hh-sol-artifact-1",
  "contractName": "MarginLong",
  "sourceName": "contracts/v1/MarginLong/MarginLong.sol",
  "abi": [
    {
      "anonymous": false,
      "inputs": [
        {
          "indexed": false,
          "internalType": "address",
          "name": "token",
          "type": "address"
        }
      ],
      "name": "AddBorrowedToken",
      "type": "event"
    },
    {
      "anonymous": false,
      "inputs": [
        {
          "indexed": true,
          "internalType": "address",
          "name": "account",
          "type": "address"
        },
        {
          "indexed": false,
          "internalType": "address",
          "name": "token",
          "type": "address"
        },
        {
          "indexed": false,
          "internalType": "uint256",
          "name": "amount",
          "type": "uint256"
        }
      ],
      "name": "AddCollateral",
      "type": "event"
    },
    {
      "anonymous": false,
      "inputs": [
        {
          "indexed": false,
          "internalType": "address",
          "name": "token",
          "type": "address"
        }
      ],
      "name": "AddCollateralToken",
      "type": "event"
    },
    {
      "anonymous": false,
      "inputs": [
        {
          "indexed": true,
          "internalType": "address",
          "name": "account",
          "type": "address"
        },
        {
          "indexed": false,
          "internalType": "address",
          "name": "token",
          "type": "address"
        },
        {
          "indexed": false,
          "internalType": "uint256",
          "name": "amount",
          "type": "uint256"
        }
      ],
      "name": "Borrow",
      "type": "event"
    },
    {
      "anonymous": false,
      "inputs": [
        {
          "indexed": true,
          "internalType": "address",
          "name": "account",
          "type": "address"
        },
        {
          "indexed": false,
          "internalType": "address",
          "name": "liquidator",
          "type": "address"
        }
      ],
      "name": "Liquidated",
      "type": "event"
    },
    {
      "anonymous": false,
      "inputs": [
        {
          "indexed": true,
          "internalType": "address",
          "name": "previousOwner",
          "type": "address"
        },
        {
          "indexed": true,
          "internalType": "address",
          "name": "newOwner",
          "type": "address"
        }
      ],
      "name": "OwnershipTransferred",
      "type": "event"
    },
    {
      "anonymous": false,
      "inputs": [
        {
          "indexed": true,
          "internalType": "address",
          "name": "account",
          "type": "address"
        },
        {
          "indexed": false,
          "internalType": "address",
          "name": "token",
          "type": "address"
        },
        {
          "indexed": false,
          "internalType": "uint256",
          "name": "amount",
          "type": "uint256"
        }
      ],
      "name": "RemoveCollateral",
      "type": "event"
    },
    {
      "anonymous": false,
      "inputs": [
        {
          "indexed": true,
          "internalType": "address",
          "name": "account",
          "type": "address"
        },
        {
          "indexed": false,
          "internalType": "address",
          "name": "token",
          "type": "address"
        }
      ],
      "name": "Repay",
      "type": "event"
    },
    {
      "anonymous": false,
      "inputs": [
        {
          "indexed": true,
          "internalType": "address",
          "name": "account",
          "type": "address"
        }
      ],
      "name": "RepayAll",
      "type": "event"
    },
    {
      "anonymous": false,
      "inputs": [
        {
          "indexed": true,
          "internalType": "address",
          "name": "account",
          "type": "address"
        },
        {
          "indexed": false,
          "internalType": "address",
          "name": "resetter",
          "type": "address"
        }
      ],
      "name": "Reset",
      "type": "event"
    },
    {
      "inputs": [
        {
          "internalType": "address",
          "name": "account_",
          "type": "address"
        }
      ],
      "name": "accountPrice",
      "outputs": [
        {
          "internalType": "uint256",
          "name": "",
          "type": "uint256"
        }
      ],
      "stateMutability": "view",
      "type": "function"
    },
    {
      "inputs": [
        {
          "internalType": "address[]",
          "name": "token_",
          "type": "address[]"
        }
      ],
      "name": "addBorrowedToken",
      "outputs": [],
      "stateMutability": "nonpayable",
      "type": "function"
    },
    {
      "inputs": [
        {
          "internalType": "address",
          "name": "token_",
          "type": "address"
        },
        {
          "internalType": "uint256",
          "name": "amount_",
          "type": "uint256"
        }
      ],
      "name": "addCollateral",
      "outputs": [],
      "stateMutability": "nonpayable",
      "type": "function"
    },
    {
      "inputs": [
        {
          "internalType": "address[]",
          "name": "token_",
          "type": "address[]"
        }
      ],
      "name": "addCollateralToken",
      "outputs": [],
      "stateMutability": "nonpayable",
      "type": "function"
    },
    {
      "inputs": [
        {
          "internalType": "address",
          "name": "token_",
          "type": "address"
        },
        {
          "internalType": "uint256",
          "name": "amount_",
          "type": "uint256"
        }
      ],
      "name": "borrow",
      "outputs": [],
      "stateMutability": "nonpayable",
      "type": "function"
    },
    {
      "inputs": [
        {
          "internalType": "address",
          "name": "token_",
          "type": "address"
        },
        {
          "internalType": "address",
          "name": "account_",
          "type": "address"
        }
      ],
      "name": "borrowed",
      "outputs": [
        {
          "internalType": "uint256",
          "name": "",
          "type": "uint256"
        }
      ],
      "stateMutability": "view",
      "type": "function"
    },
    {
      "inputs": [
        {
          "internalType": "address",
          "name": "account_",
          "type": "address"
        }
      ],
      "name": "borrowedPrice",
      "outputs": [
        {
          "internalType": "uint256",
          "name": "",
          "type": "uint256"
        }
      ],
      "stateMutability": "view",
      "type": "function"
    },
    {
      "inputs": [
        {
          "internalType": "address",
          "name": "token_",
          "type": "address"
        },
        {
          "internalType": "address",
          "name": "account_",
          "type": "address"
        }
      ],
      "name": "collateral",
      "outputs": [
        {
          "internalType": "uint256",
          "name": "",
          "type": "uint256"
        }
      ],
      "stateMutability": "view",
      "type": "function"
    },
    {
      "inputs": [
        {
          "internalType": "address",
          "name": "account_",
          "type": "address"
        }
      ],
      "name": "collateralPrice",
      "outputs": [
        {
          "internalType": "uint256",
          "name": "",
          "type": "uint256"
        }
      ],
      "stateMutability": "view",
      "type": "function"
    },
    {
      "inputs": [
        {
          "internalType": "address",
          "name": "account_",
          "type": "address"
        }
      ],
      "name": "currentLeverage",
      "outputs": [
        {
          "internalType": "uint256",
          "name": "",
          "type": "uint256"
        },
        {
          "internalType": "uint256",
          "name": "",
          "type": "uint256"
        }
      ],
      "stateMutability": "view",
      "type": "function"
    },
    {
      "inputs": [],
      "name": "getBorrowingAccounts",
      "outputs": [
        {
          "internalType": "address[]",
          "name": "",
          "type": "address[]"
        }
      ],
      "stateMutability": "view",
      "type": "function"
    },
    {
      "inputs": [
        {
          "internalType": "address",
          "name": "token_",
          "type": "address"
        },
        {
          "internalType": "address",
          "name": "account_",
          "type": "address"
        }
      ],
      "name": "initialBorrowPrice",
      "outputs": [
        {
          "internalType": "uint256",
          "name": "",
          "type": "uint256"
        }
      ],
      "stateMutability": "view",
      "type": "function"
    },
    {
      "inputs": [
        {
          "internalType": "address",
          "name": "account_",
          "type": "address"
        }
      ],
      "name": "initialBorrowPrice",
      "outputs": [
        {
          "internalType": "uint256",
          "name": "",
          "type": "uint256"
        }
      ],
      "stateMutability": "view",
      "type": "function"
    },
    {
      "inputs": [
        {
          "internalType": "address",
          "name": "token_",
          "type": "address"
        },
        {
          "internalType": "address",
          "name": "account_",
          "type": "address"
        }
      ],
      "name": "initialBorrowTime",
      "outputs": [
        {
          "internalType": "uint256",
          "name": "",
          "type": "uint256"
        }
      ],
      "stateMutability": "view",
      "type": "function"
    },
    {
      "inputs": [
        {
          "internalType": "address",
          "name": "pool_",
          "type": "address"
        },
        {
          "internalType": "address",
          "name": "oracle_",
          "type": "address"
        },
        {
          "internalType": "uint256",
          "name": "minMarginLevelNumerator_",
          "type": "uint256"
        },
        {
          "internalType": "uint256",
          "name": "minMarginLevelDenominator_",
          "type": "uint256"
        },
        {
          "internalType": "uint256",
          "name": "minCollateralPrice_",
          "type": "uint256"
        },
        {
          "internalType": "uint256",
          "name": "maxLeverage_",
          "type": "uint256"
        },
        {
          "internalType": "uint256",
          "name": "liquidationFeePercentNumerator_",
          "type": "uint256"
        },
        {
          "internalType": "uint256",
          "name": "liquidationFeePercentDenominator_",
          "type": "uint256"
        }
      ],
      "name": "initialize",
      "outputs": [],
      "stateMutability": "nonpayable",
      "type": "function"
    },
    {
      "inputs": [
        {
          "internalType": "address",
          "name": "pool_",
          "type": "address"
        },
        {
          "internalType": "address",
          "name": "oracle_",
          "type": "address"
        }
      ],
      "name": "initializeMarginCore",
      "outputs": [],
      "stateMutability": "nonpayable",
      "type": "function"
    },
    {
      "inputs": [
        {
          "internalType": "uint256",
          "name": "minMarginLevelNumerator_",
          "type": "uint256"
        },
        {
          "internalType": "uint256",
          "name": "minMarginLevelDenominator_",
          "type": "uint256"
        }
      ],
      "name": "initializeMarginLevel",
      "outputs": [],
      "stateMutability": "nonpayable",
      "type": "function"
    },
    {
      "inputs": [
        {
          "internalType": "uint256",
          "name": "minCollateralPrice_",
          "type": "uint256"
        },
        {
          "internalType": "uint256",
          "name": "maxLeverage_",
          "type": "uint256"
        }
      ],
      "name": "initializeMarginLimits",
      "outputs": [],
      "stateMutability": "nonpayable",
      "type": "function"
    },
    {
      "inputs": [
        {
          "internalType": "uint256",
          "name": "liquidationFeePercentNumerator_",
          "type": "uint256"
        },
        {
          "internalType": "uint256",
          "name": "liquidationFeePercentDenominator_",
          "type": "uint256"
        }
      ],
      "name": "initializeMarginLongLiquidateCore",
      "outputs": [],
      "stateMutability": "nonpayable",
      "type": "function"
    },
    {
      "inputs": [
        {
          "internalType": "address",
          "name": "account_",
          "type": "address"
        }
      ],
      "name": "interest",
      "outputs": [
        {
          "internalType": "uint256",
          "name": "",
          "type": "uint256"
        }
      ],
      "stateMutability": "view",
      "type": "function"
    },
    {
      "inputs": [
        {
          "internalType": "address",
          "name": "token_",
          "type": "address"
        },
        {
          "internalType": "address",
          "name": "account_",
          "type": "address"
        }
      ],
      "name": "interest",
      "outputs": [
        {
          "internalType": "uint256",
          "name": "",
          "type": "uint256"
        }
      ],
      "stateMutability": "view",
      "type": "function"
    },
    {
      "inputs": [
        {
          "internalType": "address",
          "name": "token_",
          "type": "address"
        }
      ],
      "name": "isApprovedBorrowedToken",
      "outputs": [
        {
          "internalType": "bool",
          "name": "",
          "type": "bool"
        }
      ],
      "stateMutability": "view",
      "type": "function"
    },
    {
      "inputs": [
        {
          "internalType": "address",
          "name": "token_",
          "type": "address"
        }
      ],
      "name": "isApprovedCollateralToken",
      "outputs": [
        {
          "internalType": "bool",
          "name": "",
          "type": "bool"
        }
      ],
      "stateMutability": "view",
      "type": "function"
    },
    {
      "inputs": [
        {
          "internalType": "address",
          "name": "token_",
          "type": "address"
        }
      ],
      "name": "isBorrowedToken",
      "outputs": [
        {
          "internalType": "bool",
          "name": "",
          "type": "bool"
        }
      ],
      "stateMutability": "view",
      "type": "function"
    },
    {
      "inputs": [
        {
          "internalType": "address",
          "name": "token_",
          "type": "address"
        },
        {
          "internalType": "address",
          "name": "account_",
          "type": "address"
        }
      ],
      "name": "isBorrowing",
      "outputs": [
        {
          "internalType": "bool",
          "name": "",
          "type": "bool"
        }
      ],
      "stateMutability": "view",
      "type": "function"
    },
    {
      "inputs": [
        {
          "internalType": "address",
          "name": "account_",
          "type": "address"
        }
      ],
      "name": "isBorrowing",
      "outputs": [
        {
          "internalType": "bool",
          "name": "",
          "type": "bool"
        }
      ],
      "stateMutability": "view",
      "type": "function"
    },
    {
      "inputs": [
        {
          "internalType": "address",
          "name": "token_",
          "type": "address"
        }
      ],
      "name": "isCollateralToken",
      "outputs": [
        {
          "internalType": "bool",
          "name": "",
          "type": "bool"
        }
      ],
      "stateMutability": "view",
      "type": "function"
    },
    {
      "inputs": [
        {
          "internalType": "address",
          "name": "account_",
          "type": "address"
        }
      ],
      "name": "liquidatable",
      "outputs": [
        {
          "internalType": "bool",
          "name": "",
          "type": "bool"
        }
      ],
      "stateMutability": "view",
      "type": "function"
    },
    {
      "inputs": [
        {
          "internalType": "address",
          "name": "account_",
          "type": "address"
        }
      ],
      "name": "liquidateAccount",
      "outputs": [
        {
          "internalType": "address[]",
          "name": "",
          "type": "address[]"
        },
        {
          "internalType": "uint256[]",
          "name": "",
          "type": "uint256[]"
        }
      ],
      "stateMutability": "nonpayable",
      "type": "function"
    },
    {
      "inputs": [],
      "name": "liquidationFeePercent",
      "outputs": [
        {
          "internalType": "uint256",
          "name": "",
          "type": "uint256"
        },
        {
          "internalType": "uint256",
          "name": "",
          "type": "uint256"
        }
      ],
      "stateMutability": "view",
      "type": "function"
    },
    {
      "inputs": [
        {
          "internalType": "address",
          "name": "account_",
          "type": "address"
        }
      ],
      "name": "marginLevel",
      "outputs": [
        {
          "internalType": "uint256",
          "name": "",
          "type": "uint256"
        },
        {
          "internalType": "uint256",
          "name": "",
          "type": "uint256"
        }
      ],
      "stateMutability": "view",
      "type": "function"
    },
    {
      "inputs": [],
      "name": "maxLeverage",
      "outputs": [
        {
          "internalType": "uint256",
          "name": "",
          "type": "uint256"
        }
      ],
      "stateMutability": "view",
      "type": "function"
    },
    {
      "inputs": [
        {
          "internalType": "address",
          "name": "account_",
          "type": "address"
        }
      ],
      "name": "maxLeverageReached",
      "outputs": [
        {
          "internalType": "bool",
          "name": "",
          "type": "bool"
        }
      ],
      "stateMutability": "view",
      "type": "function"
    },
    {
      "inputs": [],
      "name": "minCollateralPrice",
      "outputs": [
        {
          "internalType": "uint256",
          "name": "",
          "type": "uint256"
        }
      ],
      "stateMutability": "view",
      "type": "function"
    },
    {
      "inputs": [],
      "name": "minMarginLevel",
      "outputs": [
        {
          "internalType": "uint256",
          "name": "",
          "type": "uint256"
        },
        {
          "internalType": "uint256",
          "name": "",
          "type": "uint256"
        }
      ],
      "stateMutability": "view",
      "type": "function"
    },
    {
      "inputs": [],
      "name": "oracle",
      "outputs": [
        {
          "internalType": "address",
          "name": "",
          "type": "address"
        }
      ],
      "stateMutability": "view",
      "type": "function"
    },
    {
      "inputs": [],
      "name": "owner",
      "outputs": [
        {
          "internalType": "address",
          "name": "",
          "type": "address"
        }
      ],
      "stateMutability": "view",
      "type": "function"
    },
    {
      "inputs": [],
      "name": "pool",
      "outputs": [
        {
          "internalType": "address",
          "name": "",
          "type": "address"
        }
      ],
      "stateMutability": "view",
      "type": "function"
    },
    {
      "inputs": [
        {
          "internalType": "address",
          "name": "token_",
          "type": "address"
        },
        {
          "internalType": "uint256",
          "name": "amount_",
          "type": "uint256"
        }
      ],
      "name": "removeCollateral",
      "outputs": [],
      "stateMutability": "nonpayable",
      "type": "function"
    },
    {
      "inputs": [],
      "name": "renounceOwnership",
      "outputs": [],
      "stateMutability": "nonpayable",
      "type": "function"
    },
    {
      "inputs": [
        {
          "internalType": "address",
          "name": "token_",
          "type": "address"
        }
      ],
      "name": "repayAccount",
      "outputs": [],
      "stateMutability": "nonpayable",
      "type": "function"
    },
    {
      "inputs": [],
      "name": "repayAccountAll",
      "outputs": [],
      "stateMutability": "nonpayable",
      "type": "function"
    },
    {
      "inputs": [
        {
          "internalType": "address",
          "name": "account_",
          "type": "address"
        }
      ],
      "name": "resetAccount",
      "outputs": [
        {
          "internalType": "address[]",
          "name": "",
          "type": "address[]"
        },
        {
          "internalType": "uint256[]",
          "name": "",
          "type": "uint256[]"
        }
      ],
      "stateMutability": "nonpayable",
      "type": "function"
    },
    {
      "inputs": [
        {
          "internalType": "address",
          "name": "account_",
          "type": "address"
        }
      ],
      "name": "resettable",
      "outputs": [
        {
          "internalType": "bool",
          "name": "",
          "type": "bool"
        }
      ],
      "stateMutability": "view",
      "type": "function"
    },
    {
      "inputs": [
        {
          "internalType": "address[]",
          "name": "token_",
          "type": "address[]"
        },
        {
          "internalType": "bool[]",
          "name": "approved_",
          "type": "bool[]"
        }
      ],
      "name": "setApprovedBorrowedToken",
      "outputs": [],
      "stateMutability": "nonpayable",
      "type": "function"
    },
    {
      "inputs": [
        {
          "internalType": "address[]",
          "name": "token_",
          "type": "address[]"
        },
        {
          "internalType": "bool[]",
          "name": "approved_",
          "type": "bool[]"
        }
      ],
      "name": "setApprovedCollateralToken",
      "outputs": [],
      "stateMutability": "nonpayable",
      "type": "function"
    },
    {
      "inputs": [
        {
          "internalType": "uint256",
          "name": "liquidationFeePercentNumerator_",
          "type": "uint256"
        },
        {
          "internalType": "uint256",
          "name": "liquidationFeePercentDenominator_",
          "type": "uint256"
        }
      ],
      "name": "setLiquidationFeePercent",
      "outputs": [],
      "stateMutability": "nonpayable",
      "type": "function"
    },
    {
      "inputs": [
        {
          "internalType": "uint256",
          "name": "maxLeverage_",
          "type": "uint256"
        }
      ],
      "name": "setMaxLeverage",
      "outputs": [],
      "stateMutability": "nonpayable",
      "type": "function"
    },
    {
      "inputs": [
        {
          "internalType": "uint256",
          "name": "minCollateralPrice_",
          "type": "uint256"
        }
      ],
      "name": "setMinCollateralPrice",
      "outputs": [],
      "stateMutability": "nonpayable",
      "type": "function"
    },
    {
      "inputs": [
        {
          "internalType": "uint256",
          "name": "minMarginLevelNumerator_",
          "type": "uint256"
        },
        {
          "internalType": "uint256",
          "name": "minMarginLevelDenominator_",
          "type": "uint256"
        }
      ],
      "name": "setMinMarginLevel",
      "outputs": [],
      "stateMutability": "nonpayable",
      "type": "function"
    },
    {
      "inputs": [
        {
          "internalType": "address",
          "name": "oracle_",
          "type": "address"
        }
      ],
      "name": "setOracle",
      "outputs": [],
      "stateMutability": "nonpayable",
      "type": "function"
    },
    {
      "inputs": [
        {
          "internalType": "address",
          "name": "pool_",
          "type": "address"
        }
      ],
      "name": "setPool",
      "outputs": [],
      "stateMutability": "nonpayable",
      "type": "function"
    },
    {
      "inputs": [
        {
          "internalType": "address",
          "name": "account_",
          "type": "address"
        }
      ],
      "name": "sufficientCollateralPrice",
      "outputs": [
        {
          "internalType": "bool",
          "name": "",
          "type": "bool"
        }
      ],
      "stateMutability": "view",
      "type": "function"
    },
    {
      "inputs": [
        {
          "internalType": "address",
          "name": "token_",
          "type": "address"
        }
      ],
      "name": "totalBorrowed",
      "outputs": [
        {
          "internalType": "uint256",
          "name": "",
          "type": "uint256"
        }
      ],
      "stateMutability": "view",
      "type": "function"
    },
    {
      "inputs": [
        {
          "internalType": "address",
          "name": "token_",
          "type": "address"
        }
      ],
      "name": "totalCollateral",
      "outputs": [
        {
          "internalType": "uint256",
          "name": "",
          "type": "uint256"
        }
      ],
      "stateMutability": "view",
      "type": "function"
    },
    {
      "inputs": [
        {
          "internalType": "address",
          "name": "newOwner",
          "type": "address"
        }
      ],
      "name": "transferOwnership",
      "outputs": [],
      "stateMutability": "nonpayable",
      "type": "function"
    }
  ],
  "bytecode": "0x608060405234801561001057600080fd5b50614484806100206000396000f3fe608060405234801561001057600080fd5b50600436106103785760003560e01c80637e773d01116101d3578063ca3134f611610104578063e16201cf116100a2578063f5af8d111161007c578063f5af8d1114610794578063f75958f4146107a7578063ff8dd7b2146107ba578063ffec70af146107cd57600080fd5b8063e16201cf1461075b578063e2e1ca2b1461076e578063f2fde38b1461078157600080fd5b8063d3eec404116100de578063d3eec4041461070f578063d8459b4514610722578063dd90a6bf14610735578063de96f3931461074857600080fd5b8063ca3134f6146106d6578063cc218ece146106e9578063d3127e63146106fc57600080fd5b8063a05aac3c11610171578063b0a02abe1161014b578063b0a02abe14610695578063b21ae0d1146106a8578063b4929721146106bb578063b64c7404146106c357600080fd5b8063a05aac3c14610666578063ac436bdf14610679578063ae3302c21461068c57600080fd5b80638ac5d4a3116101ad5780638ac5d4a31461060e5780638ba796af1461062f5780638da5cb5b14610642578063916b6c5b1461065357600080fd5b80637e773d01146105df578063813c2302146105e8578063876467f8146105fb57600080fd5b80634766162c116102ad578063706f1ada1161024b5780637adbf973116102255780637adbf973146105935780637cc35728146105a65780637dc0d1d0146105b95780637e059b22146105cc57600080fd5b8063706f1ada14610565578063715018a614610578578063749af1d61461058057600080fd5b806350711be91161028757806350711be9146104fc5780636847e50b1461052a5780636c3065e31461053f5780636d75b9ee1461055257600080fd5b80634766162c146104ce5780634b8a3529146104e15780634eb72012146104f457600080fd5b806316f0115b1161031a57806325b69c0c116102f457806325b69c0c146104785780632becebd2146104955780632dbaacdc146104a85780634437152a146104bb57600080fd5b806316f0115b14610427578063172fc1f2146104525780631b37d19d1461046557600080fd5b80630f9b628e116103565780630f9b628e146103d957806313d8649b146103ee57806314ace5bb1461040157806315442a0e1461041457600080fd5b806303f5aaad1461037d57806307a48b0d146103a557806308b1cb23146103c6575b600080fd5b61039061038b366004613d47565b6107e0565b60405190151581526020015b60405180910390f35b6103b86103b3366004613d7a565b610826565b60405190815260200161039c565b6103b86103d4366004613d7a565b61087b565b6103ec6103e7366004613d95565b610968565b005b6103906103fc366004613d7a565b61099d565b6103ec61040f366004613d95565b6109bb565b6103ec610422366004613e94565b6109f0565b60655461043a906001600160a01b031681565b6040516001600160a01b03909116815260200161039c565b610390610460366004613d7a565b610b34565b6103ec610473366004613ed7565b610b4a565b610480610c2e565b6040805192835260208301919091520161039c565b6103906104a3366004613d7a565b610c5b565b6103906104b6366004613d7a565b610c8c565b6103ec6104c9366004613d7a565b610cd1565b6103906104dc366004613d7a565b610d1d565b6103ec6104ef366004613f9b565b610d3b565b6104806110c8565b61039061050a366004613d7a565b6001600160a01b03166000908152606d6020526040902060090154151590565b6105326110ed565b60405161039c9190614009565b6103ec61054d366004613e94565b6110fe565b6103ec610560366004613f9b565b61123e565b6103b8610573366004613d47565b6113b1565b6103ec61140b565b61039061058e366004613d7a565b611441565b6103ec6105a1366004613d7a565b611472565b6104806105b4366004613d7a565b6114be565b60665461043a906001600160a01b031681565b6103b86105da366004613d7a565b6114e5565b6103b860705481565b6104806105f6366004613d7a565b61152a565b6103ec610609366004613f9b565b611582565b61062161061c366004613d7a565b6117a5565b60405161039c92919061401c565b6103ec61063d366004614073565b611931565b6033546001600160a01b031661043a565b6103ec610661366004613d7a565b6119d3565b6103ec610674366004613d47565b611b40565b6103b8610687366004613d7a565b611beb565b6103b860715481565b6103b86106a3366004613d47565b611c47565b6103ec6106b6366004613d95565b611ca1565b6103ec611d1e565b6103b86106d1366004613d7a565b611dd9565b6106216106e4366004613d7a565b611e2e565b6103b86106f7366004613d47565b611f3e565b6103ec61070a3660046140da565b611f98565b6103ec61071d3660046140da565b611fc7565b6103b8610730366004613d7a565b611ff6565b610390610743366004613d7a565b6120de565b6103ec610756366004613d95565b61210f565b6103ec610769366004613d95565b61218c565b6103b861077c366004613d7a565b612209565b6103ec61078f366004613d7a565b61224e565b6103b86107a2366004613d47565b6122e9565b6103b86107b5366004613d47565b6123f6565b6103ec6107c8366004613ed7565b612450565b6103906107db366004613d7a565b61252f565b6000826107ec8161099d565b6108115760405162461bcd60e51b8152600401610808906140f3565b60405180910390fd5b600061081d8585611c47565b11949350505050565b6000806108328361087b565b9050600061083f84611dd9565b9050600061084c85611ff6565b9050600061085986611beb565b90506108718161086b858188876125a0565b906125b3565b9695505050505050565b6001600160a01b0381166000908152606d6020526040812081805b60018301548110156109605760006108ae84836125bf565b6066549091506000906001600160a01b031663b1d5e1b9836108d0818b611f3e565b6040518363ffffffff1660e01b81526004016108ed929190614143565b60206040518083038186803b15801561090557600080fd5b505afa158015610919573d6000803e3d6000fd5b505050506040513d601f19601f8201168201806040525081019061093d919061415c565b905061094984826125a0565b9350505080806109589061418b565b915050610896565b509392505050565b6033546001600160a01b031633146109925760405162461bcd60e51b8152600401610808906141a6565b606e91909155606f55565b6001600160a01b031660009081526068602052604090205460ff1690565b6033546001600160a01b031633146109e55760405162461bcd60e51b8152600401610808906141a6565b607491909155607555565b6033546001600160a01b03163314610a1a5760405162461bcd60e51b8152600401610808906141a6565b60005b8151811015610b305760676000838381518110610a3c57610a3c6141db565b6020908102919091018101516001600160a01b031682528101919091526040016000205460ff16610b1e57600160676000848481518110610a7f57610a7f6141db565b60200260200101516001600160a01b03166001600160a01b0316815260200190815260200160002060006101000a81548160ff0219169083151502179055507f7c3f95f8569977586927f95930461a261e2121e326fcb513242f9e5c8b8ea6dc828281518110610af157610af16141db565b6020026020010151604051610b1591906001600160a01b0391909116815260200190565b60405180910390a15b80610b288161418b565b915050610a1d565b5050565b6000607054610b428361087b565b101592915050565b6033546001600160a01b03163314610b745760405162461bcd60e51b8152600401610808906141a6565b60005b8251811015610c2957610ba2838281518110610b9557610b956141db565b6020026020010151610d1d565b15610c1757818181518110610bb957610bb96141db565b602002602001015160696000858481518110610bd757610bd76141db565b60200260200101516001600160a01b03166001600160a01b0316815260200190815260200160002060006101000a81548160ff0219169083151502179055505b80610c218161418b565b915050610b77565b505050565b60408051808201909152606e548152606f5460208201526000908190610c53906125f2565b915091509091565b6000806000610c69846114be565b9150915081610c838260715461262b90919063ffffffff16565b10949350505050565b6001600160a01b0381166000908152606d602052604081206009015415158015610ccb5750610cba82610c5b565b80610ccb5750610cc982610b34565b155b92915050565b6033546001600160a01b03163314610cfb5760405162461bcd60e51b8152600401610808906141a6565b606580546001600160a01b0319166001600160a01b0392909216919091179055565b6001600160a01b031660009081526067602052604090205460ff1690565b81610d45816120de565b610db75760405162461bcd60e51b815260206004820152603960248201527f4d617267696e417070726f7665643a204f6e6c7920617070726f76656420626f60448201527f72726f77656420746f6b656e73206d61792062652075736564000000000000006064820152608401610808565b60008211610e2d5760405162461bcd60e51b815260206004820152603860248201527f4d617267696e4c6f6e67426f72726f773a20416d6f756e7420626f72726f776560448201527f64206d7573742062652067726561746572207468616e203000000000000000006064820152608401610808565b610e3783336107e0565b610e4457610e4433612637565b610e8083610e5281336122e9565b336000908152606d602090815260408083206001600160a01b03959095168352600890940190529190912055565b336000908152606d602090815260408083206001600160a01b03871684526007019091529020429055606554604051635569f64b60e11b81526001600160a01b039091169063aad3ec9690610edb9086908690600401614143565b600060405180830381600087803b158015610ef557600080fd5b505af1158015610f09573d6000803e3d6000fd5b50505050610f2c83610f2684610f20876106a33390565b906125a0565b33612642565b60665460405163b1d5e1b960e01b81526000916001600160a01b03169063b1d5e1b990610f5f9087908790600401614143565b60206040518083038186803b158015610f7757600080fd5b505afa158015610f8b573d6000803e3d6000fd5b505050506040513d601f19601f82011682018060405250810190610faf919061415c565b9050610ff184610fc383610f2083336113b1565b336000908152606d602090815260408083206001600160a01b03959095168352600690940190529190912055565b610ffa33610c8c565b15801561100d575061100b3361252f565b155b61107f5760405162461bcd60e51b815260206004820152603f60248201527f4d617267696e4c6f6e67426f72726f773a20426f72726f77696e67206465736960448201527f72656420616d6f756e742070757473206163636f756e74206174207269736b006064820152608401610808565b336001600160a01b03167f312a5e5e1079f5dda4e95dbbd0b908b291fd5b992ef22073643ab691572c5b5285856040516110ba929190614143565b60405180910390a250505050565b60408051808201909152607454815260755460208201526000908190610c53906125f2565b60606110f96072612760565b905090565b6033546001600160a01b031633146111285760405162461bcd60e51b8152600401610808906141a6565b60005b8151811015610b30576068600083838151811061114a5761114a6141db565b6020908102919091018101516001600160a01b031682528101919091526040016000205460ff1661122c5760016068600084848151811061118d5761118d6141db565b60200260200101516001600160a01b03166001600160a01b0316815260200190815260200160002060006101000a81548160ff0219169083151502179055507f482a937f25f20894d76d1492cb3345294b2d882b2e90e02486f9da3c893e79238282815181106111ff576111ff6141db565b602002602001015160405161122391906001600160a01b0391909116815260200190565b60405180910390a15b806112368161418b565b91505061112b565b8161124881611441565b6112ba5760405162461bcd60e51b815260206004820152603b60248201527f4d617267696e417070726f7665643a204f6e6c7920617070726f76656420636f60448201527f6c6c61746572616c20746f6b656e73206d6179206265207573656400000000006064820152608401610808565b6000821161133c5760405162461bcd60e51b815260206004820152604360248201527f4d617267696e436f6c6c61746572616c3a20416d6f756e74206164646564206160448201527f7320636f6c6c61746572616c206d75737420626520677265617465722074686160648201526206e20360ec1b608482015260a401610808565b6113516001600160a01b0384163330856127c6565b6113698361136384610f208333611f3e565b33612837565b336001600160a01b03167fa32435755c235de2976ed44a75a2f85cb01faf0c894f639fe0c32bb9455fea8f84846040516113a4929190614143565b60405180910390a2505050565b6000826113bd8161099d565b6113d95760405162461bcd60e51b8152600401610808906140f3565b50506001600160a01b039081166000908152606d60209081526040808320949093168252600690930190925290205490565b6033546001600160a01b031633146114355760405162461bcd60e51b8152600401610808906141a6565b61143f6000612915565b565b600061144c82610d1d565b8015610ccb5750506001600160a01b031660009081526069602052604090205460ff1690565b6033546001600160a01b0316331461149c5760405162461bcd60e51b8152600401610808906141a6565b606680546001600160a01b0319166001600160a01b0392909216919091179055565b60008060006114cc84611dd9565b905060006114d985610826565b91959194509092505050565b6000816114f181610d1d565b61150d5760405162461bcd60e51b8152600401610808906141f1565b50506001600160a01b03166000908152606c602052604090205490565b600080600061153884611dd9565b9050600061154585611beb565b9050600061155286611ff6565b9050600061155f8761087b565b905061156b82826125a0565b61157585856125a0565b9550955050505050915091565b8161158c81610d1d565b6115a85760405162461bcd60e51b8152600401610808906141f1565b600082116116295760405162461bcd60e51b815260206004820152604260248201527f4d617267696e436f6c6c61746572616c3a20436f6c6c61746572616c20616d6f60448201527f756e742072656d6f766564206d7573742062652067726561746572207468616e606482015261020360f41b608482015260a401610808565b6116338333611f3e565b8211156116a85760405162461bcd60e51b815260206004820152603e60248201527f4d617267696e436f6c6c61746572616c3a2043616e6e6f742072656d6f76652060448201527f6d6f7265207468616e20617661696c61626c6520636f6c6c61746572616c00006064820152608401610808565b6116ba836113638461086b8333611f3e565b6116c333610c8c565b1580156116d657506116d43361252f565b155b6117565760405162461bcd60e51b815260206004820152604560248201527f4d617267696e436f6c6c61746572616c3a205769746864726177696e6720646560448201527f736972656420636f6c6c61746572616c2070757473206163636f756e74206174606482015264207269736b60d81b608482015260a401610808565b61176a6001600160a01b0384163384612967565b336001600160a01b03167f367be65505e5aff90e7e646744b5f75280ec6d79a0e78690f6020b875a03bc1284846040516113a4929190614143565b6060806117b18361252f565b61181c5760405162461bcd60e51b815260206004820152603660248201527f4d617267696e4c6f6e674c69717569646174653a2054686973206163636f756e6044820152751d0818d85b9b9bdd081899481b1a5c5d5a59185d195960521b6064820152608401610808565b60006118278461087b565b90506000806118346110c8565b9092509050600061184f82611849868661262b565b90612986565b905060008061185e838a612992565b9150915060005b82518110156118d1576118bf335b838381518110611885576118856141db565b602002602001015185848151811061189f5761189f6141db565b60200260200101516001600160a01b03166129679092919063ffffffff16565b806118c98161418b565b915050611865565b506118db89612a06565b6001600160a01b0389167facd74f5a0eb0d086de0eebe2d1e70d5742838c88cb2cf492fc201d39e056f7e0335b6040516001600160a01b03909116815260200160405180910390a2909890975095505050505050565b600054610100900460ff1661194c5760005460ff1615611950565b303b155b61196c5760405162461bcd60e51b815260040161080890614243565b600054610100900460ff1615801561198e576000805461ffff19166101011790555b6119988989611b40565b6119a2878761210f565b6119ac858561218c565b6119b68383611ca1565b80156119c8576000805461ff00191690555b505050505050505050565b806119dd8161099d565b6119f95760405162461bcd60e51b8152600401610808906140f3565b611a0382336107e0565b611a77576040805162461bcd60e51b81526020600482015260248101919091527f4d617267696e4c6f6e6752657061793a2043616e6e6f7420726570617920616360448201527f636f756e742077697468206e6f206c657665726167656420706f736974696f6e6064820152608401610808565b611a818233612a18565b611a8a33610c8c565b15611afd5760405162461bcd60e51b815260206004820152603760248201527f4d617267696e4c6f6e6752657061793a205265706179696e6720706f7369746960448201527f6f6e2070757473206163636f756e74206174207269736b0000000000000000006064820152608401610808565b604080516001600160a01b0384168152905133917f7d361c02aa3e26ac9383eca42a9b4f42433e252882bfb806e8b76869b815250f919081900360200190a25050565b600054610100900460ff16611b5b5760005460ff1615611b5f565b303b155b611b7b5760405162461bcd60e51b815260040161080890614243565b600054610100900460ff16158015611b9d576000805461ffff19166101011790555b611ba5612a3b565b606580546001600160a01b038086166001600160a01b03199283161790925560668054928516929091169190911790558015610c29576000805461ff0019169055505050565b600080611bf783612a72565b90506000805b825181101561096057611c33611c2c848381518110611c1e57611c1e6141db565b6020026020010151876122e9565b83906125a0565b915080611c3f8161418b565b915050611bfd565b600082611c538161099d565b611c6f5760405162461bcd60e51b8152600401610808906140f3565b50506001600160a01b039081166000908152606d60209081526040808320949093168252600590930190925290205490565b600054610100900460ff16611cbc5760005460ff1615611cc0565b303b155b611cdc5760405162461bcd60e51b815260040161080890614243565b600054610100900460ff16158015611cfe576000805461ffff19166101011790555b607483905560758290558015610c29576000805461ff0019169055505050565b611d273361050a565b611da35760405162461bcd60e51b815260206004820152604160248201527f4d617267696e4c6f6e6752657061793a2043616e6e6f7420726570617920616360448201527f636f756e742077697468206e6f206c657665726167656420706f736974696f6e6064820152607360f81b608482015260a401610808565b611dac33612a99565b60405133907f2a5e2bc4fa361e17232a0638ac48c9dd4aed21e3241a5bac60bb30f4d505344690600090a2565b600080611de583612a72565b90506000805b825181101561096057611e1a611c2c848381518110611e0c57611e0c6141db565b6020026020010151876113b1565b915080611e268161418b565b915050611deb565b606080611e3a83610c8c565b611e9c5760405162461bcd60e51b815260206004820152602d60248201527f4d617267696e4c6f6e6752657061793a2054686973206163636f756e7420636160448201526c1b9b9bdd081899481c995cd95d609a1b6064820152608401610808565b611ea583612a99565b6000611eb08461087b565b9050600080611ebd6110c8565b90925090506000611ed282611849868661262b565b9050600080611ee18333612992565b9150915060005b8251811015611f0c57611efa33611873565b80611f048161418b565b915050611ee8565b506001600160a01b0389167fa5df7b378f5dbf7c276ac35d5314c533b2fa1d772a893f471c41481862ec93db33611908565b600082611f4a81610d1d565b611f665760405162461bcd60e51b8152600401610808906141f1565b50506001600160a01b039081166000908152606d60209081526040808320949093168252600290930190925290205490565b6033546001600160a01b03163314611fc25760405162461bcd60e51b8152600401610808906141a6565b607155565b6033546001600160a01b03163314611ff15760405162461bcd60e51b8152600401610808906141a6565b607055565b6001600160a01b0381166000908152606d6020526040812081805b600483015481101561096057600061202c60038501836125bf565b6066549091506000906001600160a01b031663b1d5e1b98361204e818b611c47565b6040518363ffffffff1660e01b815260040161206b929190614143565b60206040518083038186803b15801561208357600080fd5b505afa158015612097573d6000803e3d6000fd5b505050506040513d601f19601f820116820180604052508101906120bb919061415c565b90506120c784826125a0565b9350505080806120d69061418b565b915050612011565b60006120e98261099d565b8015610ccb5750506001600160a01b03166000908152606a602052604090205460ff1690565b600054610100900460ff1661212a5760005460ff161561212e565b303b155b61214a5760405162461bcd60e51b815260040161080890614243565b600054610100900460ff1615801561216c576000805461ffff19166101011790555b606e839055606f8290558015610c29576000805461ff0019169055505050565b600054610100900460ff166121a75760005460ff16156121ab565b303b155b6121c75760405162461bcd60e51b815260040161080890614243565b600054610100900460ff161580156121e9576000805461ffff19166101011790555b607083905560718290558015610c29576000805461ff0019169055505050565b6000816122158161099d565b6122315760405162461bcd60e51b8152600401610808906140f3565b50506001600160a01b03166000908152606b602052604090205490565b6033546001600160a01b031633146122785760405162461bcd60e51b8152600401610808906141a6565b6001600160a01b0381166122dd5760405162461bcd60e51b815260206004820152602660248201527f4f776e61626c653a206e6577206f776e657220697320746865207a65726f206160448201526564647265737360d01b6064820152608401610808565b6122e681612915565b50565b6000826122f58161099d565b6123115760405162461bcd60e51b8152600401610808906140f3565b6065546123ee906001600160a01b031663d0b9622c8661233181886113b1565b61233b89896123f6565b6040516001600160e01b031960e086901b1681526001600160a01b0390931660048401526024830191909152604482015260640160206040518083038186803b15801561238757600080fd5b505afa15801561239b573d6000803e3d6000fd5b505050506040513d601f19601f820116820180604052508101906123bf919061415c565b6001600160a01b038086166000908152606d60209081526040808320938a168352600890930190522054610f20565b949350505050565b6000826124028161099d565b61241e5760405162461bcd60e51b8152600401610808906140f3565b50506001600160a01b039081166000908152606d60209081526040808320949093168252600790930190925290205490565b6033546001600160a01b0316331461247a5760405162461bcd60e51b8152600401610808906141a6565b60005b8251811015610c29576124a883828151811061249b5761249b6141db565b602002602001015161099d565b1561251d578181815181106124bf576124bf6141db565b6020026020010151606a60008584815181106124dd576124dd6141db565b60200260200101516001600160a01b03166001600160a01b0316815260200190815260200160002060006101000a81548160ff0219169083151502179055505b806125278161418b565b91505061247d565b6001600160a01b0381166000908152606d602052604081206009015461255757506000919050565b6000806125638461152a565b9150915060006125738383612aab565b60408051808201909152606e548152606f5460208201529091506125979082612b33565b95945050505050565b60006125ac8284614291565b9392505050565b60006125ac82846142a9565b60008260010182815481106125d6576125d66141db565b6000918252602090912001546001600160a01b03169392505050565b6000808280602001516000141561261b5760405162461bcd60e51b8152600401610808906142c0565b5050815160209092015191929050565b60006125ac8284614314565b6122e6607282612bab565b6001600160a01b0381166000908152606d602052604090206126676003820185612c71565b15801561267357508215155b1561268a576126856003820185612bab565b6126b3565b6126976003820185612c71565b80156126a1575082155b156126b3576126b36003820185612cd2565b61270b846126ef85610f208560050160008a6001600160a01b03166001600160a01b031681526020019081526020016000205461086b8a612209565b6001600160a01b039091166000908152606b6020526040902055565b6001600160a01b0384166000908152600582016020526040902054600982015461273a918591610f20916125b3565b60098201556001600160a01b039093166000908152600590930160205250604090912055565b6060816001018054806020026020016040519081016040528092919081815260200182805480156127ba57602002820191906000526020600020905b81546001600160a01b0316815260019091019060200180831161279c575b50505050509050919050565b6040516001600160a01b03808516602483015283166044820152606481018290526128319085906323b872dd60e01b906084015b60408051601f198184030181529190526020810180516001600160e01b03166001600160e01b031990931692909217909152612e22565b50505050565b6001600160a01b0381166000908152606d602052604090206128598185612c71565b15801561286557508215155b15612879576128748185612bab565b61289c565b6128838185612c71565b801561288d575082155b1561289c5761289c8185612cd2565b6128f4846128d885610f208560020160008a6001600160a01b03166001600160a01b031681526020019081526020016000205461086b8a6114e5565b6001600160a01b039091166000908152606c6020526040902055565b6001600160a01b039093166000908152600290930160205250604090912055565b603380546001600160a01b038381166001600160a01b0319831681179093556040519116919082907f8be0079c531659141344cd1fd0a4f28419497f9722a3daafe3b4186f6b6457e090600090a35050565b610c298363a9059cbb60e01b84846040516024016127fa929190614143565b60006125ac8284614333565b60608060006129a084612ef4565b90506000815167ffffffffffffffff8111156129be576129be613db7565b6040519080825280602002602001820160405280156129e7578160200160208202803683370190505b50905060006129f98787858585612f18565b5091969095509350505050565b612a0f816131a2565b6122e681613209565b612a228282613257565b15612a3157610b308282613319565b610b3082826133ad565b600054610100900460ff16612a625760405162461bcd60e51b815260040161080890614355565b612a6a61343a565b61143f613461565b6001600160a01b0381166000908152606d60205260409020606090610ccb90600301612760565b612aa281613491565b6122e681613507565b604080518082019091526000808252602082015281612b1d5760405162461bcd60e51b815260206004820152602860248201527f4672616374696f6e4d6174683a2044656e6f6d696e61746f722063616e6e6f7460448201526720657175616c206f60c01b6064820152608401610808565b5060408051808201909152918252602082015290565b600082806020015160001415612b5b5760405162461bcd60e51b8152600401610808906142c0565b82806020015160001415612b815760405162461bcd60e51b8152600401610808906142c0565b60208501518451612b919161262b565b60208501518651612ba19161262b565b1195945050505050565b612bb58282612c71565b15612c195760405162461bcd60e51b815260206004820152602e60248201527f416464726573735365743a204164647265737320616c7265616479206578697360448201526d3a399034b7103a34329039b2ba1760911b6064820152608401610808565b6001828101805480830182556000828152602090200180546001600160a01b0319166001600160a01b03851617905554612c5391906142a9565b6001600160a01b039091166000908152602092909252604090912055565b6001820154600090612c8557506000610ccb565b6001600160a01b0382166000818152602085905260409020546001850180549091908110612cb557612cb56141db565b6000918252602090912001546001600160a01b0316149392505050565b612cdc8282612c71565b612d3f5760405162461bcd60e51b815260206004820152602e60248201527f416464726573735365743a204164647265737320646f6573206e6f742065786960448201526d39ba1034b7103a34329039b2ba1760911b6064820152608401610808565b60018281018054600092612d52916142a9565b81548110612d6257612d626141db565b60009182526020808320909101546001600160a01b03858116845291869052604080842054929091168084529220819055600185018054929350909183919083908110612db157612db16141db565b600091825260208083209190910180546001600160a01b0319166001600160a01b03948516179055918516815290859052604081205560018401805480612dfa57612dfa6143a0565b600082815260209020810160001990810180546001600160a01b031916905501905550505050565b6000612e77826040518060400160405280602081526020017f5361666545524332303a206c6f772d6c6576656c2063616c6c206661696c6564815250856001600160a01b03166135d49092919063ffffffff16565b805190915015610c295780806020019051810190612e9591906143b6565b610c295760405162461bcd60e51b815260206004820152602a60248201527f5361666545524332303a204552433230206f7065726174696f6e20646964206e6044820152691bdd081cdd58d8d9595960b21b6064820152608401610808565b6001600160a01b0381166000908152606d60205260409020606090610ccb90612760565b60005b600086118015612f2b5750835182105b15613199576000612f55858481518110612f4757612f476141db565b602002602001015187611f3e565b60665486519192506000916001600160a01b039091169063b1d5e1b990889087908110612f8457612f846141db565b6020026020010151612faf898881518110612fa157612fa16141db565b60200260200101518b611f3e565b6040518363ffffffff1660e01b8152600401612fcc929190614143565b60206040518083038186803b158015612fe457600080fd5b505afa158015612ff8573d6000803e3d6000fd5b505050506040513d601f19601f8201168201806040525081019061301c919061415c565b9050878110156130885781858581518110613039576130396141db565b60200260200101818152505061306a86858151811061305a5761305a6141db565b6020026020010151600089612837565b61307488826125b3565b97506130818460016125a0565b9350613192565b60665486516000916001600160a01b0316906395f881c9908990889081106130b2576130b26141db565b60200260200101518b6040518363ffffffff1660e01b81526004016130d8929190614143565b60206040518083038186803b1580156130f057600080fd5b505afa158015613104573d6000803e3d6000fd5b505050506040513d601f19601f82011682018060405250810190613128919061415c565b9050828111156131355750815b80868681518110613148576131486141db565b60200260200101818152505061318a878681518110613169576131696141db565b602002602001015161318483866125b390919063ffffffff16565b8a612837565b505050613199565b5050612f1b565b50949350505050565b60006131ad82612ef4565b905060006131ba836135e3565b90506131c68282613698565b60005b8251811015612831576131f78382815181106131e7576131e76141db565b6020026020010151600086612837565b806132018161418b565b9150506131c9565b600061321482612a72565b905060005b8151811015610c2957613245828281518110613237576132376141db565b6020026020010151846137d2565b8061324f8161418b565b915050613219565b60665460009081906001600160a01b031663b1d5e1b9856132788187611c47565b6040518363ffffffff1660e01b8152600401613295929190614143565b60206040518083038186803b1580156132ad57600080fd5b505afa1580156132c1573d6000803e3d6000fd5b505050506040513d601f19601f820116820180604052508101906132e5919061415c565b905060006132f385856113b1565b9050600061330186866122e9565b905061330d82826125a0565b90921195945050505050565b600061332583836138b8565b905061333183836137d2565b60655460405163f3fef3a360e01b81526001600160a01b039091169063f3fef3a3906133639086908590600401614143565b600060405180830381600087803b15801561337d57600080fd5b505af1158015613391573d6000803e3d6000fd5b50505050610c29836133a783610f208787611f3e565b84612837565b60006133b882612ef4565b90506000815167ffffffffffffffff8111156133d6576133d6613db7565b6040519080825280602002602001820160405280156133ff578160200160208202803683370190505b509050600061340e85856139f2565b905061341e818585856000612f18565b506134298383613698565b61343385856137d2565b5050505050565b600054610100900460ff1661143f5760405162461bcd60e51b815260040161080890614355565b600054610100900460ff166134885760405162461bcd60e51b815260040161080890614355565b61143f33612915565b600061349c82612a72565b905060005b8151811015610c29576134cd8282815181106134bf576134bf6141db565b602002602001015184613257565b156134f5576134f58282815181106134e7576134e76141db565b602002602001015184613319565b806134ff8161418b565b9150506134a1565b600061351282612a72565b9050600061351f83612ef4565b90506000815167ffffffffffffffff81111561353d5761353d613db7565b604051908082528060200260200182016040528015613566578160200160208202803683370190505b5090506000805b84518110156135c057600061359b86838151811061358d5761358d6141db565b6020026020010151886139f2565b90506135aa8188878787612f18565b92505080806135b89061418b565b91505061356d565b506135cb8383613698565b61343385613209565b60606123ee8484600085613aac565b606060006135f083612ef4565b90506000815167ffffffffffffffff81111561360e5761360e613db7565b604051908082528060200260200182016040528015613637578160200160208202803683370190505b50905060005b82518110156109605761366983828151811061365b5761365b6141db565b602002602001015186611f3e565b82828151811061367b5761367b6141db565b6020908102919091010152806136908161418b565b91505061363d565b60005b8251811015610c295760008282815181106136b8576136b86141db565b602002602001015111156137c0576065548251613725916001600160a01b0316908490849081106136eb576136eb6141db565b6020026020010151858481518110613705576137056141db565b60200260200101516001600160a01b0316613bd49092919063ffffffff16565b60655483516001600160a01b03909116906347e7ef249085908490811061374e5761374e6141db565b6020026020010151848481518110613768576137686141db565b60200260200101516040518363ffffffff1660e01b815260040161378d929190614143565b600060405180830381600087803b1580156137a757600080fd5b505af11580156137bb573d6000803e3d6000fd5b505050505b806137ca8161418b565b91505061369b565b6065546001600160a01b031663bffe84c2836137ee8185611c47565b6040518363ffffffff1660e01b815260040161380b929190614143565b600060405180830381600087803b15801561382557600080fd5b505af1158015613839573d6000803e3d6000fd5b5050506001600160a01b038083166000908152606d60209081526040808320938716835260069093019052908120555061387582600083612642565b6001600160a01b038181166000818152606d602081815260408084209588168452600886018252832083905592909152905260090154610b3057610b3081613ce7565b60665460009081906001600160a01b031663b1d5e1b9856138d98187611c47565b6040518363ffffffff1660e01b81526004016138f6929190614143565b60206040518083038186803b15801561390e57600080fd5b505afa158015613922573d6000803e3d6000fd5b505050506040513d601f19601f82011682018060405250810190613946919061415c565b9050600061395485856113b1565b9050600061396286866122e9565b6066549091506001600160a01b031663468cde72876139858461086b88886125b3565b6040518363ffffffff1660e01b81526004016139a2929190614143565b60206040518083038186803b1580156139ba57600080fd5b505afa1580156139ce573d6000803e3d6000fd5b505050506040513d601f19601f82011682018060405250810190610871919061415c565b60665460009081906001600160a01b031663b1d5e1b985613a138187611c47565b6040518363ffffffff1660e01b8152600401613a30929190614143565b60206040518083038186803b158015613a4857600080fd5b505afa158015613a5c573d6000803e3d6000fd5b505050506040513d601f19601f82011682018060405250810190613a80919061415c565b90506000613a8e85856113b1565b90506000613a9c86866122e9565b90506108718361086b84846125a0565b606082471015613b0d5760405162461bcd60e51b815260206004820152602660248201527f416464726573733a20696e73756666696369656e742062616c616e636520666f6044820152651c8818d85b1b60d21b6064820152608401610808565b843b613b5b5760405162461bcd60e51b815260206004820152601d60248201527f416464726573733a2063616c6c20746f206e6f6e2d636f6e74726163740000006044820152606401610808565b600080866001600160a01b03168587604051613b7791906143ff565b60006040518083038185875af1925050503d8060008114613bb4576040519150601f19603f3d011682016040523d82523d6000602084013e613bb9565b606091505b5091509150613bc9828286613cf2565b979650505050505050565b801580613c5d5750604051636eb1769f60e11b81523060048201526001600160a01b03838116602483015284169063dd62ed3e9060440160206040518083038186803b158015613c2357600080fd5b505afa158015613c37573d6000803e3d6000fd5b505050506040513d601f19601f82011682018060405250810190613c5b919061415c565b155b613cc85760405162461bcd60e51b815260206004820152603660248201527f5361666545524332303a20617070726f76652066726f6d206e6f6e2d7a65726f60448201527520746f206e6f6e2d7a65726f20616c6c6f77616e636560501b6064820152608401610808565b610c298363095ea7b360e01b84846040516024016127fa929190614143565b6122e6607282612cd2565b60608315613d015750816125ac565b825115613d115782518084602001fd5b8160405162461bcd60e51b8152600401610808919061441b565b80356001600160a01b0381168114613d4257600080fd5b919050565b60008060408385031215613d5a57600080fd5b613d6383613d2b565b9150613d7160208401613d2b565b90509250929050565b600060208284031215613d8c57600080fd5b6125ac82613d2b565b60008060408385031215613da857600080fd5b50508035926020909101359150565b634e487b7160e01b600052604160045260246000fd5b604051601f8201601f1916810167ffffffffffffffff81118282101715613df657613df6613db7565b604052919050565b600067ffffffffffffffff821115613e1857613e18613db7565b5060051b60200190565b600082601f830112613e3357600080fd5b81356020613e48613e4383613dfe565b613dcd565b82815260059290921b84018101918181019086841115613e6757600080fd5b8286015b84811015613e8957613e7c81613d2b565b8352918301918301613e6b565b509695505050505050565b600060208284031215613ea657600080fd5b813567ffffffffffffffff811115613ebd57600080fd5b6123ee84828501613e22565b80151581146122e657600080fd5b60008060408385031215613eea57600080fd5b823567ffffffffffffffff80821115613f0257600080fd5b613f0e86838701613e22565b9350602091508185013581811115613f2557600080fd5b85019050601f81018613613f3857600080fd5b8035613f46613e4382613dfe565b81815260059190911b82018301908381019088831115613f6557600080fd5b928401925b82841015613f8c578335613f7d81613ec9565b82529284019290840190613f6a565b80955050505050509250929050565b60008060408385031215613fae57600080fd5b613fb783613d2b565b946020939093013593505050565b600081518084526020808501945080840160005b83811015613ffe5781516001600160a01b031687529582019590820190600101613fd9565b509495945050505050565b6020815260006125ac6020830184613fc5565b60408152600061402f6040830185613fc5565b82810360208481019190915284518083528582019282019060005b818110156140665784518352938301939183019160010161404a565b5090979650505050505050565b600080600080600080600080610100898b03121561409057600080fd5b61409989613d2b565b97506140a760208a01613d2b565b979a9799505050506040860135956060810135956080820135955060a0820135945060c0820135935060e0909101359150565b6000602082840312156140ec57600080fd5b5035919050565b60208082526030908201527f4d617267696e417070726f7665643a204f6e6c7920626f72726f77656420746f60408201526f1ad95b9cc81b585e481899481d5cd95960821b606082015260800190565b6001600160a01b03929092168252602082015260400190565b60006020828403121561416e57600080fd5b5051919050565b634e487b7160e01b600052601160045260246000fd5b600060001982141561419f5761419f614175565b5060010190565b6020808252818101527f4f776e61626c653a2063616c6c6572206973206e6f7420746865206f776e6572604082015260600190565b634e487b7160e01b600052603260045260246000fd5b60208082526032908201527f4d617267696e417070726f7665643a204f6e6c7920636f6c6c61746572616c206040820152711d1bdad95b9cc81b585e481899481d5cd95960721b606082015260800190565b6020808252602e908201527f496e697469616c697a61626c653a20636f6e747261637420697320616c72656160408201526d191e481a5b9a5d1a585b1a5e995960921b606082015260800190565b600082198211156142a4576142a4614175565b500190565b6000828210156142bb576142bb614175565b500390565b60208082526034908201527f4672616374696f6e4d6174683a2044656e6f6d696e61746f72206f662066726160408201527306374696f6e2063616e6e6f7420657175616c20360641b606082015260800190565b600081600019048311821515161561432e5761432e614175565b500290565b60008261435057634e487b7160e01b600052601260045260246000fd5b500490565b6020808252602b908201527f496e697469616c697a61626c653a20636f6e7472616374206973206e6f74206960408201526a6e697469616c697a696e6760a81b606082015260800190565b634e487b7160e01b600052603160045260246000fd5b6000602082840312156143c857600080fd5b81516125ac81613ec9565b60005b838110156143ee5781810151838201526020016143d6565b838111156128315750506000910152565b600082516144118184602087016143d3565b9190910192915050565b602081526000825180602084015261443a8160408501602087016143d3565b601f01601f1916919091016040019291505056fea2646970667358221220fcbfdf38450670517bfc91eb4d6c451b9e8a40e8c758962323b3c91670deb1f064736f6c63430008090033",
  "linkReferences": {},
  "deployedLinkReferences": {}
}