{
  "_format": "hh-sol-artifact-1",
  "contractName": "MarginLong",
  "sourceName": "contracts/v1/MarginLong/MarginLong.sol",
  "abi": [
    {
      "anonymous": false,
      "inputs": [
        {
          "indexed": false,
          "internalType": "address",
          "name": "token",
          "type": "address"
        }
      ],
      "name": "AddBorrowedToken",
      "type": "event"
    },
    {
      "anonymous": false,
      "inputs": [
        {
          "indexed": true,
          "internalType": "address",
          "name": "account",
          "type": "address"
        },
        {
          "indexed": false,
          "internalType": "address",
          "name": "token",
          "type": "address"
        },
        {
          "indexed": false,
          "internalType": "uint256",
          "name": "amount",
          "type": "uint256"
        }
      ],
      "name": "AddCollateral",
      "type": "event"
    },
    {
      "anonymous": false,
      "inputs": [
        {
          "indexed": false,
          "internalType": "address",
          "name": "token",
          "type": "address"
        }
      ],
      "name": "AddCollateralToken",
      "type": "event"
    },
    {
      "anonymous": false,
      "inputs": [
        {
          "indexed": true,
          "internalType": "address",
          "name": "account",
          "type": "address"
        },
        {
          "indexed": false,
          "internalType": "address",
          "name": "token",
          "type": "address"
        },
        {
          "indexed": false,
          "internalType": "uint256",
          "name": "amount",
          "type": "uint256"
        }
      ],
      "name": "Borrow",
      "type": "event"
    },
    {
      "anonymous": false,
      "inputs": [
        {
          "indexed": true,
          "internalType": "address",
          "name": "account",
          "type": "address"
        },
        {
          "indexed": false,
          "internalType": "address",
          "name": "liquidator",
          "type": "address"
        }
      ],
      "name": "Liquidated",
      "type": "event"
    },
    {
      "anonymous": false,
      "inputs": [
        {
          "indexed": true,
          "internalType": "address",
          "name": "previousOwner",
          "type": "address"
        },
        {
          "indexed": true,
          "internalType": "address",
          "name": "newOwner",
          "type": "address"
        }
      ],
      "name": "OwnershipTransferred",
      "type": "event"
    },
    {
      "anonymous": false,
      "inputs": [
        {
          "indexed": true,
          "internalType": "address",
          "name": "account",
          "type": "address"
        },
        {
          "indexed": false,
          "internalType": "address",
          "name": "token",
          "type": "address"
        },
        {
          "indexed": false,
          "internalType": "uint256",
          "name": "amount",
          "type": "uint256"
        }
      ],
      "name": "RemoveCollateral",
      "type": "event"
    },
    {
      "anonymous": false,
      "inputs": [
        {
          "indexed": true,
          "internalType": "address",
          "name": "account",
          "type": "address"
        },
        {
          "indexed": false,
          "internalType": "address",
          "name": "token",
          "type": "address"
        }
      ],
      "name": "Repay",
      "type": "event"
    },
    {
      "anonymous": false,
      "inputs": [
        {
          "indexed": true,
          "internalType": "address",
          "name": "account",
          "type": "address"
        }
      ],
      "name": "RepayAll",
      "type": "event"
    },
    {
      "anonymous": false,
      "inputs": [
        {
          "indexed": true,
          "internalType": "address",
          "name": "account",
          "type": "address"
        },
        {
          "indexed": false,
          "internalType": "address",
          "name": "resetter",
          "type": "address"
        }
      ],
      "name": "Reset",
      "type": "event"
    },
    {
      "inputs": [
        {
          "internalType": "address",
          "name": "account_",
          "type": "address"
        }
      ],
      "name": "accountPrice",
      "outputs": [
        {
          "internalType": "uint256",
          "name": "",
          "type": "uint256"
        }
      ],
      "stateMutability": "view",
      "type": "function"
    },
    {
      "inputs": [
        {
          "internalType": "address[]",
          "name": "token_",
          "type": "address[]"
        }
      ],
      "name": "addBorrowedToken",
      "outputs": [],
      "stateMutability": "nonpayable",
      "type": "function"
    },
    {
      "inputs": [
        {
          "internalType": "address",
          "name": "token_",
          "type": "address"
        },
        {
          "internalType": "uint256",
          "name": "amount_",
          "type": "uint256"
        }
      ],
      "name": "addCollateral",
      "outputs": [],
      "stateMutability": "nonpayable",
      "type": "function"
    },
    {
      "inputs": [
        {
          "internalType": "address[]",
          "name": "token_",
          "type": "address[]"
        }
      ],
      "name": "addCollateralToken",
      "outputs": [],
      "stateMutability": "nonpayable",
      "type": "function"
    },
    {
      "inputs": [
        {
          "internalType": "address",
          "name": "token_",
          "type": "address"
        },
        {
          "internalType": "uint256",
          "name": "amount_",
          "type": "uint256"
        }
      ],
      "name": "borrow",
      "outputs": [],
      "stateMutability": "nonpayable",
      "type": "function"
    },
    {
      "inputs": [
        {
          "internalType": "address",
          "name": "token_",
          "type": "address"
        },
        {
          "internalType": "address",
          "name": "account_",
          "type": "address"
        }
      ],
      "name": "borrowed",
      "outputs": [
        {
          "internalType": "uint256",
          "name": "",
          "type": "uint256"
        }
      ],
      "stateMutability": "view",
      "type": "function"
    },
    {
      "inputs": [
        {
          "internalType": "address",
          "name": "account_",
          "type": "address"
        }
      ],
      "name": "borrowedPrice",
      "outputs": [
        {
          "internalType": "uint256",
          "name": "",
          "type": "uint256"
        }
      ],
      "stateMutability": "view",
      "type": "function"
    },
    {
      "inputs": [
        {
          "internalType": "address",
          "name": "token_",
          "type": "address"
        },
        {
          "internalType": "address",
          "name": "account_",
          "type": "address"
        }
      ],
      "name": "collateral",
      "outputs": [
        {
          "internalType": "uint256",
          "name": "",
          "type": "uint256"
        }
      ],
      "stateMutability": "view",
      "type": "function"
    },
    {
      "inputs": [
        {
          "internalType": "address",
          "name": "account_",
          "type": "address"
        }
      ],
      "name": "collateralPrice",
      "outputs": [
        {
          "internalType": "uint256",
          "name": "",
          "type": "uint256"
        }
      ],
      "stateMutability": "view",
      "type": "function"
    },
    {
      "inputs": [
        {
          "internalType": "address",
          "name": "account_",
          "type": "address"
        }
      ],
      "name": "currentLeverage",
      "outputs": [
        {
          "internalType": "uint256",
          "name": "",
          "type": "uint256"
        },
        {
          "internalType": "uint256",
          "name": "",
          "type": "uint256"
        }
      ],
      "stateMutability": "view",
      "type": "function"
    },
    {
      "inputs": [],
      "name": "getBorrowingAccounts",
      "outputs": [
        {
          "internalType": "address[]",
          "name": "",
          "type": "address[]"
        }
      ],
      "stateMutability": "view",
      "type": "function"
    },
    {
      "inputs": [
        {
          "internalType": "address",
          "name": "token_",
          "type": "address"
        },
        {
          "internalType": "address",
          "name": "account_",
          "type": "address"
        }
      ],
      "name": "initialBorrowPrice",
      "outputs": [
        {
          "internalType": "uint256",
          "name": "",
          "type": "uint256"
        }
      ],
      "stateMutability": "view",
      "type": "function"
    },
    {
      "inputs": [
        {
          "internalType": "address",
          "name": "account_",
          "type": "address"
        }
      ],
      "name": "initialBorrowPrice",
      "outputs": [
        {
          "internalType": "uint256",
          "name": "",
          "type": "uint256"
        }
      ],
      "stateMutability": "view",
      "type": "function"
    },
    {
      "inputs": [
        {
          "internalType": "address",
          "name": "token_",
          "type": "address"
        },
        {
          "internalType": "address",
          "name": "account_",
          "type": "address"
        }
      ],
      "name": "initialBorrowTime",
      "outputs": [
        {
          "internalType": "uint256",
          "name": "",
          "type": "uint256"
        }
      ],
      "stateMutability": "view",
      "type": "function"
    },
    {
      "inputs": [
        {
          "internalType": "address",
          "name": "pool_",
          "type": "address"
        },
        {
          "internalType": "address",
          "name": "oracle_",
          "type": "address"
        },
        {
          "internalType": "uint256",
          "name": "minCollateralPrice_",
          "type": "uint256"
        },
        {
          "internalType": "uint256",
          "name": "maxLeverageNumerator_",
          "type": "uint256"
        },
        {
          "internalType": "uint256",
          "name": "maxLeverageDenominator_",
          "type": "uint256"
        },
        {
          "internalType": "uint256",
          "name": "liquidationFeePercentNumerator_",
          "type": "uint256"
        },
        {
          "internalType": "uint256",
          "name": "liquidationFeePercentDenominator_",
          "type": "uint256"
        }
      ],
      "name": "initialize",
      "outputs": [],
      "stateMutability": "nonpayable",
      "type": "function"
    },
    {
      "inputs": [
        {
          "internalType": "address",
          "name": "pool_",
          "type": "address"
        },
        {
          "internalType": "address",
          "name": "oracle_",
          "type": "address"
        }
      ],
      "name": "initializeMarginCore",
      "outputs": [],
      "stateMutability": "nonpayable",
      "type": "function"
    },
    {
      "inputs": [
        {
          "internalType": "uint256",
          "name": "maxLeverageNumerator_",
          "type": "uint256"
        },
        {
          "internalType": "uint256",
          "name": "maxLeverageDenominator_",
          "type": "uint256"
        }
      ],
      "name": "initializeMarginLevel",
      "outputs": [],
      "stateMutability": "nonpayable",
      "type": "function"
    },
    {
      "inputs": [
        {
          "internalType": "uint256",
          "name": "minCollateralPrice_",
          "type": "uint256"
        }
      ],
      "name": "initializeMarginLimits",
      "outputs": [],
      "stateMutability": "nonpayable",
      "type": "function"
    },
    {
      "inputs": [
        {
          "internalType": "uint256",
          "name": "liquidationFeePercentNumerator_",
          "type": "uint256"
        },
        {
          "internalType": "uint256",
          "name": "liquidationFeePercentDenominator_",
          "type": "uint256"
        }
      ],
      "name": "initializeMarginLongLiquidateCore",
      "outputs": [],
      "stateMutability": "nonpayable",
      "type": "function"
    },
    {
      "inputs": [
        {
          "internalType": "address",
          "name": "account_",
          "type": "address"
        }
      ],
      "name": "interest",
      "outputs": [
        {
          "internalType": "uint256",
          "name": "",
          "type": "uint256"
        }
      ],
      "stateMutability": "view",
      "type": "function"
    },
    {
      "inputs": [
        {
          "internalType": "address",
          "name": "token_",
          "type": "address"
        },
        {
          "internalType": "address",
          "name": "account_",
          "type": "address"
        }
      ],
      "name": "interest",
      "outputs": [
        {
          "internalType": "uint256",
          "name": "",
          "type": "uint256"
        }
      ],
      "stateMutability": "view",
      "type": "function"
    },
    {
      "inputs": [
        {
          "internalType": "address",
          "name": "token_",
          "type": "address"
        }
      ],
      "name": "isApprovedBorrowedToken",
      "outputs": [
        {
          "internalType": "bool",
          "name": "",
          "type": "bool"
        }
      ],
      "stateMutability": "view",
      "type": "function"
    },
    {
      "inputs": [
        {
          "internalType": "address",
          "name": "token_",
          "type": "address"
        }
      ],
      "name": "isApprovedCollateralToken",
      "outputs": [
        {
          "internalType": "bool",
          "name": "",
          "type": "bool"
        }
      ],
      "stateMutability": "view",
      "type": "function"
    },
    {
      "inputs": [
        {
          "internalType": "address",
          "name": "token_",
          "type": "address"
        }
      ],
      "name": "isBorrowedToken",
      "outputs": [
        {
          "internalType": "bool",
          "name": "",
          "type": "bool"
        }
      ],
      "stateMutability": "view",
      "type": "function"
    },
    {
      "inputs": [
        {
          "internalType": "address",
          "name": "token_",
          "type": "address"
        },
        {
          "internalType": "address",
          "name": "account_",
          "type": "address"
        }
      ],
      "name": "isBorrowing",
      "outputs": [
        {
          "internalType": "bool",
          "name": "",
          "type": "bool"
        }
      ],
      "stateMutability": "view",
      "type": "function"
    },
    {
      "inputs": [
        {
          "internalType": "address",
          "name": "account_",
          "type": "address"
        }
      ],
      "name": "isBorrowing",
      "outputs": [
        {
          "internalType": "bool",
          "name": "",
          "type": "bool"
        }
      ],
      "stateMutability": "view",
      "type": "function"
    },
    {
      "inputs": [
        {
          "internalType": "address",
          "name": "token_",
          "type": "address"
        }
      ],
      "name": "isCollateralToken",
      "outputs": [
        {
          "internalType": "bool",
          "name": "",
          "type": "bool"
        }
      ],
      "stateMutability": "view",
      "type": "function"
    },
    {
      "inputs": [
        {
          "internalType": "address",
          "name": "account_",
          "type": "address"
        }
      ],
      "name": "liquidatable",
      "outputs": [
        {
          "internalType": "bool",
          "name": "",
          "type": "bool"
        }
      ],
      "stateMutability": "view",
      "type": "function"
    },
    {
      "inputs": [
        {
          "internalType": "address",
          "name": "account_",
          "type": "address"
        }
      ],
      "name": "liquidateAccount",
      "outputs": [
        {
          "internalType": "address[]",
          "name": "",
          "type": "address[]"
        },
        {
          "internalType": "uint256[]",
          "name": "",
          "type": "uint256[]"
        }
      ],
      "stateMutability": "nonpayable",
      "type": "function"
    },
    {
      "inputs": [],
      "name": "liquidationFeePercent",
      "outputs": [
        {
          "internalType": "uint256",
          "name": "",
          "type": "uint256"
        },
        {
          "internalType": "uint256",
          "name": "",
          "type": "uint256"
        }
      ],
      "stateMutability": "view",
      "type": "function"
    },
    {
      "inputs": [
        {
          "internalType": "address",
          "name": "account_",
          "type": "address"
        }
      ],
      "name": "marginLevel",
      "outputs": [
        {
          "internalType": "uint256",
          "name": "",
          "type": "uint256"
        },
        {
          "internalType": "uint256",
          "name": "",
          "type": "uint256"
        }
      ],
      "stateMutability": "view",
      "type": "function"
    },
    {
      "inputs": [],
      "name": "maxLeverage",
      "outputs": [
        {
          "internalType": "uint256",
          "name": "",
          "type": "uint256"
        },
        {
          "internalType": "uint256",
          "name": "",
          "type": "uint256"
        }
      ],
      "stateMutability": "view",
      "type": "function"
    },
    {
      "inputs": [],
      "name": "minCollateralPrice",
      "outputs": [
        {
          "internalType": "uint256",
          "name": "",
          "type": "uint256"
        }
      ],
      "stateMutability": "view",
      "type": "function"
    },
    {
      "inputs": [],
      "name": "minMarginLevel",
      "outputs": [
        {
          "internalType": "uint256",
          "name": "",
          "type": "uint256"
        },
        {
          "internalType": "uint256",
          "name": "",
          "type": "uint256"
        }
      ],
      "stateMutability": "view",
      "type": "function"
    },
    {
      "inputs": [],
      "name": "oracle",
      "outputs": [
        {
          "internalType": "address",
          "name": "",
          "type": "address"
        }
      ],
      "stateMutability": "view",
      "type": "function"
    },
    {
      "inputs": [],
      "name": "owner",
      "outputs": [
        {
          "internalType": "address",
          "name": "",
          "type": "address"
        }
      ],
      "stateMutability": "view",
      "type": "function"
    },
    {
      "inputs": [],
      "name": "pool",
      "outputs": [
        {
          "internalType": "address",
          "name": "",
          "type": "address"
        }
      ],
      "stateMutability": "view",
      "type": "function"
    },
    {
      "inputs": [
        {
          "internalType": "address",
          "name": "token_",
          "type": "address"
        },
        {
          "internalType": "uint256",
          "name": "amount_",
          "type": "uint256"
        }
      ],
      "name": "removeCollateral",
      "outputs": [],
      "stateMutability": "nonpayable",
      "type": "function"
    },
    {
      "inputs": [],
      "name": "renounceOwnership",
      "outputs": [],
      "stateMutability": "nonpayable",
      "type": "function"
    },
    {
      "inputs": [
        {
          "internalType": "address",
          "name": "token_",
          "type": "address"
        }
      ],
      "name": "repayAccount",
      "outputs": [],
      "stateMutability": "nonpayable",
      "type": "function"
    },
    {
      "inputs": [],
      "name": "repayAccount",
      "outputs": [],
      "stateMutability": "nonpayable",
      "type": "function"
    },
    {
      "inputs": [
        {
          "internalType": "address",
          "name": "account_",
          "type": "address"
        }
      ],
      "name": "resetAccount",
      "outputs": [
        {
          "internalType": "address[]",
          "name": "",
          "type": "address[]"
        },
        {
          "internalType": "uint256[]",
          "name": "",
          "type": "uint256[]"
        }
      ],
      "stateMutability": "nonpayable",
      "type": "function"
    },
    {
      "inputs": [
        {
          "internalType": "address",
          "name": "account_",
          "type": "address"
        }
      ],
      "name": "resettable",
      "outputs": [
        {
          "internalType": "bool",
          "name": "",
          "type": "bool"
        }
      ],
      "stateMutability": "view",
      "type": "function"
    },
    {
      "inputs": [
        {
          "internalType": "address[]",
          "name": "token_",
          "type": "address[]"
        },
        {
          "internalType": "bool[]",
          "name": "approved_",
          "type": "bool[]"
        }
      ],
      "name": "setApprovedBorrowedToken",
      "outputs": [],
      "stateMutability": "nonpayable",
      "type": "function"
    },
    {
      "inputs": [
        {
          "internalType": "address[]",
          "name": "token_",
          "type": "address[]"
        },
        {
          "internalType": "bool[]",
          "name": "approved_",
          "type": "bool[]"
        }
      ],
      "name": "setApprovedCollateralToken",
      "outputs": [],
      "stateMutability": "nonpayable",
      "type": "function"
    },
    {
      "inputs": [
        {
          "internalType": "uint256",
          "name": "liquidationFeePercentNumerator_",
          "type": "uint256"
        },
        {
          "internalType": "uint256",
          "name": "liquidationFeePercentDenominator_",
          "type": "uint256"
        }
      ],
      "name": "setLiquidationFeePercent",
      "outputs": [],
      "stateMutability": "nonpayable",
      "type": "function"
    },
    {
      "inputs": [
        {
          "internalType": "uint256",
          "name": "maxLeverageNumerator_",
          "type": "uint256"
        },
        {
          "internalType": "uint256",
          "name": "maxLeverageDenominator_",
          "type": "uint256"
        }
      ],
      "name": "setMaxLeverage",
      "outputs": [],
      "stateMutability": "nonpayable",
      "type": "function"
    },
    {
      "inputs": [
        {
          "internalType": "uint256",
          "name": "minCollateralPrice_",
          "type": "uint256"
        }
      ],
      "name": "setMinCollateralPrice",
      "outputs": [],
      "stateMutability": "nonpayable",
      "type": "function"
    },
    {
      "inputs": [
        {
          "internalType": "address",
          "name": "oracle_",
          "type": "address"
        }
      ],
      "name": "setOracle",
      "outputs": [],
      "stateMutability": "nonpayable",
      "type": "function"
    },
    {
      "inputs": [
        {
          "internalType": "address",
          "name": "pool_",
          "type": "address"
        }
      ],
      "name": "setPool",
      "outputs": [],
      "stateMutability": "nonpayable",
      "type": "function"
    },
    {
      "inputs": [
        {
          "internalType": "address",
          "name": "account_",
          "type": "address"
        }
      ],
      "name": "sufficientCollateralPrice",
      "outputs": [
        {
          "internalType": "bool",
          "name": "",
          "type": "bool"
        }
      ],
      "stateMutability": "view",
      "type": "function"
    },
    {
      "inputs": [
        {
          "internalType": "address",
          "name": "token_",
          "type": "address"
        }
      ],
      "name": "totalBorrowed",
      "outputs": [
        {
          "internalType": "uint256",
          "name": "",
          "type": "uint256"
        }
      ],
      "stateMutability": "view",
      "type": "function"
    },
    {
      "inputs": [
        {
          "internalType": "address",
          "name": "token_",
          "type": "address"
        }
      ],
      "name": "totalCollateral",
      "outputs": [
        {
          "internalType": "uint256",
          "name": "",
          "type": "uint256"
        }
      ],
      "stateMutability": "view",
      "type": "function"
    },
    {
      "inputs": [
        {
          "internalType": "address",
          "name": "newOwner",
          "type": "address"
        }
      ],
      "name": "transferOwnership",
      "outputs": [],
      "stateMutability": "nonpayable",
      "type": "function"
    }
  ],
  "bytecode": "0x608060405234801561001057600080fd5b50614563806100206000396000f3fe608060405234801561001057600080fd5b50600436106103425760003560e01c80637e773d01116101b8578063ca3134f611610104578063e2e1ca2b116100a2578063f5af8d111161007c578063f5af8d1114610737578063f75958f41461074a578063ff8dd7b21461075d578063ffec70af1461077057600080fd5b8063e2e1ca2b146106fe578063edbf4ac214610711578063f2fde38b1461072457600080fd5b8063d65e6b0b116100de578063d65e6b0b146106b2578063d8459b45146106c5578063dd90a6bf146106d8578063de96f393146106eb57600080fd5b8063ca3134f614610679578063cc218ece1461068c578063d3eec4041461069f57600080fd5b8063a05aac3c11610171578063ae3302c21161014b578063ae3302c214610638578063b0a02abe14610640578063b21ae0d114610653578063b64c74041461066657600080fd5b8063a05aac3c1461060a578063a831e7ec1461061d578063ac436bdf1461062557600080fd5b80637e773d0114610596578063813c23021461059f578063876467f8146105b25780638ac5d4a3146105c55780638da5cb5b146105e6578063916b6c5b146105f757600080fd5b80634b8a352911610292578063706f1ada116102305780637adbf9731161020a5780637adbf9731461054a5780637cc357281461055d5780637dc0d1d0146105705780637e059b221461058357600080fd5b8063706f1ada1461051c578063715018a61461052f578063749af1d61461053757600080fd5b806362132cbb1161026c57806362132cbb146104ce5780636847e50b146104e15780636c3065e3146104f65780636d75b9ee1461050957600080fd5b80634b8a3529146104855780634eb720121461049857806350711be9146104a057600080fd5b806316f0115b116102ff57806325b69c0c116102d957806325b69c0c1461042f5780632dbaacdc1461044c5780634437152a1461045f5780634766162c1461047257600080fd5b806316f0115b146103de578063172fc1f2146104095780631b37d19d1461041c57600080fd5b806303f5aaad1461034757806307a48b0d1461036f57806308b1cb231461039057806313d8649b146103a357806314ace5bb146103b657806315442a0e146103cb575b600080fd5b61035a610355366004613e2f565b610783565b60405190151581526020015b60405180910390f35b61038261037d366004613e62565b6107c9565b604051908152602001610366565b61038261039e366004613e62565b61081e565b61035a6103b1366004613e62565b61090b565b6103c96103c4366004613e7d565b610929565b005b6103c96103d9366004613f7c565b61095e565b6065546103f1906001600160a01b031681565b6040516001600160a01b039091168152602001610366565b61035a610417366004613e62565b610aa2565b6103c961042a366004613fbf565b610ab8565b610437610b9c565b60408051928352602083019190915201610366565b61035a61045a366004613e62565b610bf3565b6103c961046d366004613e62565b610c29565b61035a610480366004613e62565b610c75565b6103c9610493366004614083565b610c93565b610437611020565b61035a6104ae366004613e62565b6001600160a01b03166000908152606d6020526040902060090154151590565b6103c96104dc366004613e7d565b611045565b6104e961107a565b60405161036691906140f1565b6103c9610504366004613f7c565b61108b565b6103c9610517366004614083565b6111cb565b61038261052a366004613e2f565b61133e565b6103c9611398565b61035a610545366004613e62565b6113ce565b6103c9610558366004613e62565b6113ff565b61043761056b366004613e62565b61144b565b6066546103f1906001600160a01b031681565b610382610591366004613e62565b611472565b61038260705481565b6104376105ad366004613e62565b6114b7565b6103c96105c0366004614083565b6114e5565b6105d86105d3366004613e62565b611708565b604051610366929190614104565b6033546001600160a01b03166103f1565b6103c9610605366004613e62565b611894565b6103c9610618366004613e2f565b611a01565b6103c9611aac565b610382610633366004613e62565b611b67565b610437611bc3565b61038261064e366004613e2f565b611be8565b6103c9610661366004613e7d565b611c42565b610382610674366004613e62565b611cbf565b6105d8610687366004613e62565b611d14565b61038261069a366004613e2f565b611e24565b6103c96106ad36600461415b565b611e7e565b6103c96106c036600461415b565b611ead565b6103826106d3366004613e62565b611f24565b61035a6106e6366004613e62565b61200c565b6103c96106f9366004613e7d565b61203d565b61038261070c366004613e62565b6120ba565b6103c961071f366004614174565b6120ff565b6103c9610732366004613e62565b61219f565b610382610745366004613e2f565b61223a565b610382610758366004613e2f565b612347565b6103c961076b366004613fbf565b6123a1565b61035a61077e366004613e62565b612480565b60008261078f8161090b565b6107b45760405162461bcd60e51b81526004016107ab906141d2565b60405180910390fd5b60006107c08585611be8565b11949350505050565b6000806107d58361081e565b905060006107e284611cbf565b905060006107ef85611f24565b905060006107fc86611b67565b90506108148161080e858188876124f9565b9061250c565b9695505050505050565b6001600160a01b0381166000908152606d6020526040812081805b60018301548110156109035760006108518483612518565b6066549091506000906001600160a01b031663b1d5e1b983610873818b611e24565b6040518363ffffffff1660e01b8152600401610890929190614222565b60206040518083038186803b1580156108a857600080fd5b505afa1580156108bc573d6000803e3d6000fd5b505050506040513d601f19601f820116820180604052508101906108e0919061423b565b90506108ec84826124f9565b9350505080806108fb9061426a565b915050610839565b509392505050565b6001600160a01b031660009081526068602052604090205460ff1690565b6033546001600160a01b031633146109535760405162461bcd60e51b81526004016107ab90614285565b607391909155607455565b6033546001600160a01b031633146109885760405162461bcd60e51b81526004016107ab90614285565b60005b8151811015610a9e57606760008383815181106109aa576109aa6142ba565b6020908102919091018101516001600160a01b031682528101919091526040016000205460ff16610a8c576001606760008484815181106109ed576109ed6142ba565b60200260200101516001600160a01b03166001600160a01b0316815260200190815260200160002060006101000a81548160ff0219169083151502179055507f7c3f95f8569977586927f95930461a261e2121e326fcb513242f9e5c8b8ea6dc828281518110610a5f57610a5f6142ba565b6020026020010151604051610a8391906001600160a01b0391909116815260200190565b60405180910390a15b80610a968161426a565b91505061098b565b5050565b6000607054610ab08361081e565b101592915050565b6033546001600160a01b03163314610ae25760405162461bcd60e51b81526004016107ab90614285565b60005b8251811015610b9757610b10838281518110610b0357610b036142ba565b6020026020010151610c75565b15610b8557818181518110610b2757610b276142ba565b602002602001015160696000858481518110610b4557610b456142ba565b60200260200101516001600160a01b03166001600160a01b0316815260200190815260200160002060006101000a81548160ff0219169083151502179055505b80610b8f8161426a565b915050610ae5565b505050565b60408051808201909152606e548152606f5460208201526000908190610beb90610be690610bd590610bcf60018061254b565b906125d3565b610be060018061254b565b906126c8565b612762565b915091509091565b6001600160a01b0381166000908152606d602052604081206009015415158015610c235750610c2182610aa2565b155b92915050565b6033546001600160a01b03163314610c535760405162461bcd60e51b81526004016107ab90614285565b606580546001600160a01b0319166001600160a01b0392909216919091179055565b6001600160a01b031660009081526067602052604090205460ff1690565b81610c9d8161200c565b610d0f5760405162461bcd60e51b815260206004820152603960248201527f4d617267696e417070726f7665643a204f6e6c7920617070726f76656420626f60448201527f72726f77656420746f6b656e73206d617920626520757365640000000000000060648201526084016107ab565b60008211610d855760405162461bcd60e51b815260206004820152603860248201527f4d617267696e4c6f6e67426f72726f773a20416d6f756e7420626f72726f776560448201527f64206d7573742062652067726561746572207468616e2030000000000000000060648201526084016107ab565b610d8f8333610783565b610d9c57610d9c3361279b565b610dd883610daa813361223a565b336000908152606d602090815260408083206001600160a01b03959095168352600890940190529190912055565b336000908152606d602090815260408083206001600160a01b03871684526007019091529020429055606554604051635569f64b60e11b81526001600160a01b039091169063aad3ec9690610e339086908690600401614222565b600060405180830381600087803b158015610e4d57600080fd5b505af1158015610e61573d6000803e3d6000fd5b50505050610e8483610e7e84610e788761064e3390565b906124f9565b336127a6565b60665460405163b1d5e1b960e01b81526000916001600160a01b03169063b1d5e1b990610eb79087908790600401614222565b60206040518083038186803b158015610ecf57600080fd5b505afa158015610ee3573d6000803e3d6000fd5b505050506040513d601f19601f82011682018060405250810190610f07919061423b565b9050610f4984610f1b83610e78833361133e565b336000908152606d602090815260408083206001600160a01b03959095168352600690940190529190912055565b610f5233610bf3565b158015610f655750610f6333612480565b155b610fd75760405162461bcd60e51b815260206004820152603f60248201527f4d617267696e4c6f6e67426f72726f773a20426f72726f77696e67206465736960448201527f72656420616d6f756e742070757473206163636f756e74206174207269736b0060648201526084016107ab565b336001600160a01b03167f312a5e5e1079f5dda4e95dbbd0b908b291fd5b992ef22073643ab691572c5b528585604051611012929190614222565b60405180910390a250505050565b60408051808201909152607354815260745460208201526000908190610beb90612762565b6033546001600160a01b0316331461106f5760405162461bcd60e51b81526004016107ab90614285565b606e91909155606f55565b606061108660716128c4565b905090565b6033546001600160a01b031633146110b55760405162461bcd60e51b81526004016107ab90614285565b60005b8151811015610a9e57606860008383815181106110d7576110d76142ba565b6020908102919091018101516001600160a01b031682528101919091526040016000205460ff166111b95760016068600084848151811061111a5761111a6142ba565b60200260200101516001600160a01b03166001600160a01b0316815260200190815260200160002060006101000a81548160ff0219169083151502179055507f482a937f25f20894d76d1492cb3345294b2d882b2e90e02486f9da3c893e792382828151811061118c5761118c6142ba565b60200260200101516040516111b091906001600160a01b0391909116815260200190565b60405180910390a15b806111c38161426a565b9150506110b8565b816111d5816113ce565b6112475760405162461bcd60e51b815260206004820152603b60248201527f4d617267696e417070726f7665643a204f6e6c7920617070726f76656420636f60448201527f6c6c61746572616c20746f6b656e73206d61792062652075736564000000000060648201526084016107ab565b600082116112c95760405162461bcd60e51b815260206004820152604360248201527f4d617267696e436f6c6c61746572616c3a20416d6f756e74206164646564206160448201527f7320636f6c6c61746572616c206d75737420626520677265617465722074686160648201526206e20360ec1b608482015260a4016107ab565b6112de6001600160a01b03841633308561292a565b6112f6836112f084610e788333611e24565b3361299b565b336001600160a01b03167fa32435755c235de2976ed44a75a2f85cb01faf0c894f639fe0c32bb9455fea8f8484604051611331929190614222565b60405180910390a2505050565b60008261134a8161090b565b6113665760405162461bcd60e51b81526004016107ab906141d2565b50506001600160a01b039081166000908152606d60209081526040808320949093168252600690930190925290205490565b6033546001600160a01b031633146113c25760405162461bcd60e51b81526004016107ab90614285565b6113cc6000612a79565b565b60006113d982610c75565b8015610c235750506001600160a01b031660009081526069602052604090205460ff1690565b6033546001600160a01b031633146114295760405162461bcd60e51b81526004016107ab90614285565b606680546001600160a01b0319166001600160a01b0392909216919091179055565b600080600061145984611cbf565b90506000611466856107c9565b91959194509092505050565b60008161147e81610c75565b61149a5760405162461bcd60e51b81526004016107ab906142d0565b50506001600160a01b03166000908152606c602052604090205490565b6000806000806114c68561144b565b915091506114da610be6610bd5838561254b565b935093505050915091565b816114ef81610c75565b61150b5760405162461bcd60e51b81526004016107ab906142d0565b6000821161158c5760405162461bcd60e51b815260206004820152604260248201527f4d617267696e436f6c6c61746572616c3a20436f6c6c61746572616c20616d6f60448201527f756e742072656d6f766564206d7573742062652067726561746572207468616e606482015261020360f41b608482015260a4016107ab565b6115968333611e24565b82111561160b5760405162461bcd60e51b815260206004820152603e60248201527f4d617267696e436f6c6c61746572616c3a2043616e6e6f742072656d6f76652060448201527f6d6f7265207468616e20617661696c61626c6520636f6c6c61746572616c000060648201526084016107ab565b61161d836112f08461080e8333611e24565b61162633610bf3565b158015611639575061163733612480565b155b6116b95760405162461bcd60e51b815260206004820152604560248201527f4d617267696e436f6c6c61746572616c3a205769746864726177696e6720646560448201527f736972656420636f6c6c61746572616c2070757473206163636f756e74206174606482015264207269736b60d81b608482015260a4016107ab565b6116cd6001600160a01b0384163384612acb565b336001600160a01b03167f367be65505e5aff90e7e646744b5f75280ec6d79a0e78690f6020b875a03bc128484604051611331929190614222565b60608061171483612480565b61177f5760405162461bcd60e51b815260206004820152603660248201527f4d617267696e4c6f6e674c69717569646174653a2054686973206163636f756e6044820152751d0818d85b9b9bdd081899481b1a5c5d5a59185d195960521b60648201526084016107ab565b600061178a8461081e565b9050600080611797611020565b909250905060006117b2826117ac8686612aea565b90612af6565b90506000806117c1838a612b02565b9150915060005b825181101561183457611822335b8383815181106117e8576117e86142ba565b6020026020010151858481518110611802576118026142ba565b60200260200101516001600160a01b0316612acb9092919063ffffffff16565b8061182c8161426a565b9150506117c8565b5061183e89612b76565b6001600160a01b0389167facd74f5a0eb0d086de0eebe2d1e70d5742838c88cb2cf492fc201d39e056f7e0335b6040516001600160a01b03909116815260200160405180910390a2909890975095505050505050565b8061189e8161090b565b6118ba5760405162461bcd60e51b81526004016107ab906141d2565b6118c48233610783565b611938576040805162461bcd60e51b81526020600482015260248101919091527f4d617267696e4c6f6e6752657061793a2043616e6e6f7420726570617920616360448201527f636f756e742077697468206e6f206c657665726167656420706f736974696f6e60648201526084016107ab565b6119428233612b88565b61194b33610bf3565b156119be5760405162461bcd60e51b815260206004820152603760248201527f4d617267696e4c6f6e6752657061793a205265706179696e6720706f7369746960448201527f6f6e2070757473206163636f756e74206174207269736b00000000000000000060648201526084016107ab565b604080516001600160a01b0384168152905133917f7d361c02aa3e26ac9383eca42a9b4f42433e252882bfb806e8b76869b815250f919081900360200190a25050565b600054610100900460ff16611a1c5760005460ff1615611a20565b303b155b611a3c5760405162461bcd60e51b81526004016107ab90614322565b600054610100900460ff16158015611a5e576000805461ffff19166101011790555b611a66612bab565b606580546001600160a01b038086166001600160a01b03199283161790925560668054928516929091169190911790558015610b97576000805461ff0019169055505050565b611ab5336104ae565b611b315760405162461bcd60e51b815260206004820152604160248201527f4d617267696e4c6f6e6752657061793a2043616e6e6f7420726570617920616360448201527f636f756e742077697468206e6f206c657665726167656420706f736974696f6e6064820152607360f81b608482015260a4016107ab565b611b3a33612be2565b60405133907f2a5e2bc4fa361e17232a0638ac48c9dd4aed21e3241a5bac60bb30f4d505344690600090a2565b600080611b7383612bf4565b90506000805b825181101561090357611baf611ba8848381518110611b9a57611b9a6142ba565b60200260200101518761223a565b83906124f9565b915080611bbb8161426a565b915050611b79565b60408051808201909152606e548152606f5460208201526000908190610beb90612762565b600082611bf48161090b565b611c105760405162461bcd60e51b81526004016107ab906141d2565b50506001600160a01b039081166000908152606d60209081526040808320949093168252600590930190925290205490565b600054610100900460ff16611c5d5760005460ff1615611c61565b303b155b611c7d5760405162461bcd60e51b81526004016107ab90614322565b600054610100900460ff16158015611c9f576000805461ffff19166101011790555b607383905560748290558015610b97576000805461ff0019169055505050565b600080611ccb83612bf4565b90506000805b825181101561090357611d00611ba8848381518110611cf257611cf26142ba565b60200260200101518761133e565b915080611d0c8161426a565b915050611cd1565b606080611d2083610bf3565b611d825760405162461bcd60e51b815260206004820152602d60248201527f4d617267696e4c6f6e6752657061793a2054686973206163636f756e7420636160448201526c1b9b9bdd081899481c995cd95d609a1b60648201526084016107ab565b611d8b83612be2565b6000611d968461081e565b9050600080611da3611020565b90925090506000611db8826117ac8686612aea565b9050600080611dc78333612b02565b9150915060005b8251811015611df257611de0336117d6565b80611dea8161426a565b915050611dce565b506001600160a01b0389167fa5df7b378f5dbf7c276ac35d5314c533b2fa1d772a893f471c41481862ec93db3361186b565b600082611e3081610c75565b611e4c5760405162461bcd60e51b81526004016107ab906142d0565b50506001600160a01b039081166000908152606d60209081526040808320949093168252600290930190925290205490565b6033546001600160a01b03163314611ea85760405162461bcd60e51b81526004016107ab90614285565b607055565b600054610100900460ff16611ec85760005460ff1615611ecc565b303b155b611ee85760405162461bcd60e51b81526004016107ab90614322565b600054610100900460ff16158015611f0a576000805461ffff19166101011790555b60708290558015610a9e576000805461ff00191690555050565b6001600160a01b0381166000908152606d6020526040812081805b6004830154811015610903576000611f5a6003850183612518565b6066549091506000906001600160a01b031663b1d5e1b983611f7c818b611be8565b6040518363ffffffff1660e01b8152600401611f99929190614222565b60206040518083038186803b158015611fb157600080fd5b505afa158015611fc5573d6000803e3d6000fd5b505050506040513d601f19601f82011682018060405250810190611fe9919061423b565b9050611ff584826124f9565b9350505080806120049061426a565b915050611f3f565b60006120178261090b565b8015610c235750506001600160a01b03166000908152606a602052604090205460ff1690565b600054610100900460ff166120585760005460ff161561205c565b303b155b6120785760405162461bcd60e51b81526004016107ab90614322565b600054610100900460ff1615801561209a576000805461ffff19166101011790555b606e839055606f8290558015610b97576000805461ff0019169055505050565b6000816120c68161090b565b6120e25760405162461bcd60e51b81526004016107ab906141d2565b50506001600160a01b03166000908152606b602052604090205490565b600054610100900460ff1661211a5760005460ff161561211e565b303b155b61213a5760405162461bcd60e51b81526004016107ab90614322565b600054610100900460ff1615801561215c576000805461ffff19166101011790555b6121668888611a01565b612170858561203d565b61217986611ead565b6121838383611c42565b8015612195576000805461ff00191690555b5050505050505050565b6033546001600160a01b031633146121c95760405162461bcd60e51b81526004016107ab90614285565b6001600160a01b03811661222e5760405162461bcd60e51b815260206004820152602660248201527f4f776e61626c653a206e6577206f776e657220697320746865207a65726f206160448201526564647265737360d01b60648201526084016107ab565b61223781612a79565b50565b6000826122468161090b565b6122625760405162461bcd60e51b81526004016107ab906141d2565b60655461233f906001600160a01b031663d0b9622c86612282818861133e565b61228c8989612347565b6040516001600160e01b031960e086901b1681526001600160a01b0390931660048401526024830191909152604482015260640160206040518083038186803b1580156122d857600080fd5b505afa1580156122ec573d6000803e3d6000fd5b505050506040513d601f19601f82011682018060405250810190612310919061423b565b6001600160a01b038086166000908152606d60209081526040808320938a168352600890930190522054610e78565b949350505050565b6000826123538161090b565b61236f5760405162461bcd60e51b81526004016107ab906141d2565b50506001600160a01b039081166000908152606d60209081526040808320949093168252600790930190925290205490565b6033546001600160a01b031633146123cb5760405162461bcd60e51b81526004016107ab90614285565b60005b8251811015610b97576123f98382815181106123ec576123ec6142ba565b602002602001015161090b565b1561246e57818181518110612410576124106142ba565b6020026020010151606a600085848151811061242e5761242e6142ba565b60200260200101516001600160a01b03166001600160a01b0316815260200190815260200160002060006101000a81548160ff0219169083151502179055505b806124788161426a565b9150506123ce565b6001600160a01b0381166000908152606d60205260408120600901546124a857506000919050565b6000806124b4846114b7565b9150915060006124c4838361254b565b90506000806124d1610b9c565b9150915060006124e1838361254b565b90506124ed8482612c1b565b98975050505050505050565b60006125058284614370565b9392505050565b60006125058284614388565b600082600101828154811061252f5761252f6142ba565b6000918252602090912001546001600160a01b03169392505050565b6040805180820190915260008082526020820152816125bd5760405162461bcd60e51b815260206004820152602860248201527f4672616374696f6e4d6174683a2044656e6f6d696e61746f722063616e6e6f7460448201526720657175616c206f60c01b60648201526084016107ab565b5060408051808201909152918252602082015290565b60408051808201909152600080825260208201528280602001516000141561260d5760405162461bcd60e51b81526004016107ab9061439f565b828060200151600014156126335760405162461bcd60e51b81526004016107ab9061439f565b83516126985760405162461bcd60e51b815260206004820152602e60248201527f4672616374696f6e4d6174683a204469766973696f72206672616374696f6e2060448201526d063616e6e6f7420657175616c20360941b60648201526084016107ab565b602084015185516126a891612aea565b8352835160208601516126ba91612aea565b602084015250909392505050565b6040805180820190915260008082526020820152828060200151600014156127025760405162461bcd60e51b81526004016107ab9061439f565b828060200151600014156127285760405162461bcd60e51b81526004016107ab9061439f565b6020850151845161274d9161273d9190612aea565b60208601518751610e7891612aea565b8352602080850151908601516126ba91612aea565b6000808280602001516000141561278b5760405162461bcd60e51b81526004016107ab9061439f565b5050815160209092015191929050565b612237607182612c93565b6001600160a01b0381166000908152606d602052604090206127cb6003820185612d59565b1580156127d757508215155b156127ee576127e96003820185612c93565b612817565b6127fb6003820185612d59565b8015612805575082155b15612817576128176003820185612dba565b61286f8461285385610e788560050160008a6001600160a01b03166001600160a01b031681526020019081526020016000205461080e8a6120ba565b6001600160a01b039091166000908152606b6020526040902055565b6001600160a01b0384166000908152600582016020526040902054600982015461289e918591610e789161250c565b60098201556001600160a01b039093166000908152600590930160205250604090912055565b60608160010180548060200260200160405190810160405280929190818152602001828054801561291e57602002820191906000526020600020905b81546001600160a01b03168152600190910190602001808311612900575b50505050509050919050565b6040516001600160a01b03808516602483015283166044820152606481018290526129959085906323b872dd60e01b906084015b60408051601f198184030181529190526020810180516001600160e01b03166001600160e01b031990931692909217909152612f0a565b50505050565b6001600160a01b0381166000908152606d602052604090206129bd8185612d59565b1580156129c957508215155b156129dd576129d88185612c93565b612a00565b6129e78185612d59565b80156129f1575082155b15612a0057612a008185612dba565b612a5884612a3c85610e788560020160008a6001600160a01b03166001600160a01b031681526020019081526020016000205461080e8a611472565b6001600160a01b039091166000908152606c6020526040902055565b6001600160a01b039093166000908152600290930160205250604090912055565b603380546001600160a01b038381166001600160a01b0319831681179093556040519116919082907f8be0079c531659141344cd1fd0a4f28419497f9722a3daafe3b4186f6b6457e090600090a35050565b610b978363a9059cbb60e01b848460405160240161295e929190614222565b600061250582846143f3565b60006125058284614412565b6060806000612b1084612fdc565b90506000815167ffffffffffffffff811115612b2e57612b2e613e9f565b604051908082528060200260200182016040528015612b57578160200160208202803683370190505b5090506000612b698787858585613000565b5091969095509350505050565b612b7f8161328a565b612237816132f1565b612b92828261333f565b15612ba157610a9e8282613401565b610a9e8282613495565b600054610100900460ff16612bd25760405162461bcd60e51b81526004016107ab90614434565b612bda613522565b6113cc613549565b612beb81613579565b612237816135ef565b6001600160a01b0381166000908152606d60205260409020606090610c23906003016128c4565b600082806020015160001415612c435760405162461bcd60e51b81526004016107ab9061439f565b82806020015160001415612c695760405162461bcd60e51b81526004016107ab9061439f565b60208501518451612c7991612aea565b60208501518651612c8991612aea565b1095945050505050565b612c9d8282612d59565b15612d015760405162461bcd60e51b815260206004820152602e60248201527f416464726573735365743a204164647265737320616c7265616479206578697360448201526d3a399034b7103a34329039b2ba1760911b60648201526084016107ab565b6001828101805480830182556000828152602090200180546001600160a01b0319166001600160a01b03851617905554612d3b9190614388565b6001600160a01b039091166000908152602092909252604090912055565b6001820154600090612d6d57506000610c23565b6001600160a01b0382166000818152602085905260409020546001850180549091908110612d9d57612d9d6142ba565b6000918252602090912001546001600160a01b0316149392505050565b612dc48282612d59565b612e275760405162461bcd60e51b815260206004820152602e60248201527f416464726573735365743a204164647265737320646f6573206e6f742065786960448201526d39ba1034b7103a34329039b2ba1760911b60648201526084016107ab565b60018281018054600092612e3a91614388565b81548110612e4a57612e4a6142ba565b60009182526020808320909101546001600160a01b03858116845291869052604080842054929091168084529220819055600185018054929350909183919083908110612e9957612e996142ba565b600091825260208083209190910180546001600160a01b0319166001600160a01b03948516179055918516815290859052604081205560018401805480612ee257612ee261447f565b600082815260209020810160001990810180546001600160a01b031916905501905550505050565b6000612f5f826040518060400160405280602081526020017f5361666545524332303a206c6f772d6c6576656c2063616c6c206661696c6564815250856001600160a01b03166136bc9092919063ffffffff16565b805190915015610b975780806020019051810190612f7d9190614495565b610b975760405162461bcd60e51b815260206004820152602a60248201527f5361666545524332303a204552433230206f7065726174696f6e20646964206e6044820152691bdd081cdd58d8d9595960b21b60648201526084016107ab565b6001600160a01b0381166000908152606d60205260409020606090610c23906128c4565b60005b6000861180156130135750835182105b1561328157600061303d85848151811061302f5761302f6142ba565b602002602001015187611e24565b60665486519192506000916001600160a01b039091169063b1d5e1b99088908790811061306c5761306c6142ba565b6020026020010151613097898881518110613089576130896142ba565b60200260200101518b611e24565b6040518363ffffffff1660e01b81526004016130b4929190614222565b60206040518083038186803b1580156130cc57600080fd5b505afa1580156130e0573d6000803e3d6000fd5b505050506040513d601f19601f82011682018060405250810190613104919061423b565b9050878110156131705781858581518110613121576131216142ba565b602002602001018181525050613152868581518110613142576131426142ba565b602002602001015160008961299b565b61315c888261250c565b97506131698460016124f9565b935061327a565b60665486516000916001600160a01b0316906395f881c99089908890811061319a5761319a6142ba565b60200260200101518b6040518363ffffffff1660e01b81526004016131c0929190614222565b60206040518083038186803b1580156131d857600080fd5b505afa1580156131ec573d6000803e3d6000fd5b505050506040513d601f19601f82011682018060405250810190613210919061423b565b90508281111561321d5750815b80868681518110613230576132306142ba565b602002602001018181525050613272878681518110613251576132516142ba565b602002602001015161326c838661250c90919063ffffffff16565b8a61299b565b505050613281565b5050613003565b50949350505050565b600061329582612fdc565b905060006132a2836136cb565b90506132ae8282613780565b60005b8251811015612995576132df8382815181106132cf576132cf6142ba565b602002602001015160008661299b565b806132e98161426a565b9150506132b1565b60006132fc82612bf4565b905060005b8151811015610b975761332d82828151811061331f5761331f6142ba565b6020026020010151846138ba565b806133378161426a565b915050613301565b60665460009081906001600160a01b031663b1d5e1b9856133608187611be8565b6040518363ffffffff1660e01b815260040161337d929190614222565b60206040518083038186803b15801561339557600080fd5b505afa1580156133a9573d6000803e3d6000fd5b505050506040513d601f19601f820116820180604052508101906133cd919061423b565b905060006133db858561133e565b905060006133e9868661223a565b90506133f582826124f9565b90921195945050505050565b600061340d83836139a0565b905061341983836138ba565b60655460405163f3fef3a360e01b81526001600160a01b039091169063f3fef3a39061344b9086908590600401614222565b600060405180830381600087803b15801561346557600080fd5b505af1158015613479573d6000803e3d6000fd5b50505050610b978361348f83610e788787611e24565b8461299b565b60006134a082612fdc565b90506000815167ffffffffffffffff8111156134be576134be613e9f565b6040519080825280602002602001820160405280156134e7578160200160208202803683370190505b50905060006134f68585613ada565b9050613506818585856000613000565b506135118383613780565b61351b85856138ba565b5050505050565b600054610100900460ff166113cc5760405162461bcd60e51b81526004016107ab90614434565b600054610100900460ff166135705760405162461bcd60e51b81526004016107ab90614434565b6113cc33612a79565b600061358482612bf4565b905060005b8151811015610b97576135b58282815181106135a7576135a76142ba565b60200260200101518461333f565b156135dd576135dd8282815181106135cf576135cf6142ba565b602002602001015184613401565b806135e78161426a565b915050613589565b60006135fa82612bf4565b9050600061360783612fdc565b90506000815167ffffffffffffffff81111561362557613625613e9f565b60405190808252806020026020018201604052801561364e578160200160208202803683370190505b5090506000805b84518110156136a8576000613683868381518110613675576136756142ba565b602002602001015188613ada565b90506136928188878787613000565b92505080806136a09061426a565b915050613655565b506136b38383613780565b61351b856132f1565b606061233f8484600085613b94565b606060006136d883612fdc565b90506000815167ffffffffffffffff8111156136f6576136f6613e9f565b60405190808252806020026020018201604052801561371f578160200160208202803683370190505b50905060005b825181101561090357613751838281518110613743576137436142ba565b602002602001015186611e24565b828281518110613763576137636142ba565b6020908102919091010152806137788161426a565b915050613725565b60005b8251811015610b975760008282815181106137a0576137a06142ba565b602002602001015111156138a857606554825161380d916001600160a01b0316908490849081106137d3576137d36142ba565b60200260200101518584815181106137ed576137ed6142ba565b60200260200101516001600160a01b0316613cbc9092919063ffffffff16565b60655483516001600160a01b03909116906347e7ef2490859084908110613836576138366142ba565b6020026020010151848481518110613850576138506142ba565b60200260200101516040518363ffffffff1660e01b8152600401613875929190614222565b600060405180830381600087803b15801561388f57600080fd5b505af11580156138a3573d6000803e3d6000fd5b505050505b806138b28161426a565b915050613783565b6065546001600160a01b031663bffe84c2836138d68185611be8565b6040518363ffffffff1660e01b81526004016138f3929190614222565b600060405180830381600087803b15801561390d57600080fd5b505af1158015613921573d6000803e3d6000fd5b5050506001600160a01b038083166000908152606d60209081526040808320938716835260069093019052908120555061395d826000836127a6565b6001600160a01b038181166000818152606d602081815260408084209588168452600886018252832083905592909152905260090154610a9e57610a9e81613dcf565b60665460009081906001600160a01b031663b1d5e1b9856139c18187611be8565b6040518363ffffffff1660e01b81526004016139de929190614222565b60206040518083038186803b1580156139f657600080fd5b505afa158015613a0a573d6000803e3d6000fd5b505050506040513d601f19601f82011682018060405250810190613a2e919061423b565b90506000613a3c858561133e565b90506000613a4a868661223a565b6066549091506001600160a01b031663468cde7287613a6d8461080e888861250c565b6040518363ffffffff1660e01b8152600401613a8a929190614222565b60206040518083038186803b158015613aa257600080fd5b505afa158015613ab6573d6000803e3d6000fd5b505050506040513d601f19601f82011682018060405250810190610814919061423b565b60665460009081906001600160a01b031663b1d5e1b985613afb8187611be8565b6040518363ffffffff1660e01b8152600401613b18929190614222565b60206040518083038186803b158015613b3057600080fd5b505afa158015613b44573d6000803e3d6000fd5b505050506040513d601f19601f82011682018060405250810190613b68919061423b565b90506000613b76858561133e565b90506000613b84868661223a565b90506108148361080e84846124f9565b606082471015613bf55760405162461bcd60e51b815260206004820152602660248201527f416464726573733a20696e73756666696369656e742062616c616e636520666f6044820152651c8818d85b1b60d21b60648201526084016107ab565b843b613c435760405162461bcd60e51b815260206004820152601d60248201527f416464726573733a2063616c6c20746f206e6f6e2d636f6e747261637400000060448201526064016107ab565b600080866001600160a01b03168587604051613c5f91906144de565b60006040518083038185875af1925050503d8060008114613c9c576040519150601f19603f3d011682016040523d82523d6000602084013e613ca1565b606091505b5091509150613cb1828286613dda565b979650505050505050565b801580613d455750604051636eb1769f60e11b81523060048201526001600160a01b03838116602483015284169063dd62ed3e9060440160206040518083038186803b158015613d0b57600080fd5b505afa158015613d1f573d6000803e3d6000fd5b505050506040513d601f19601f82011682018060405250810190613d43919061423b565b155b613db05760405162461bcd60e51b815260206004820152603660248201527f5361666545524332303a20617070726f76652066726f6d206e6f6e2d7a65726f60448201527520746f206e6f6e2d7a65726f20616c6c6f77616e636560501b60648201526084016107ab565b610b978363095ea7b360e01b848460405160240161295e929190614222565b612237607182612dba565b60608315613de9575081612505565b825115613df95782518084602001fd5b8160405162461bcd60e51b81526004016107ab91906144fa565b80356001600160a01b0381168114613e2a57600080fd5b919050565b60008060408385031215613e4257600080fd5b613e4b83613e13565b9150613e5960208401613e13565b90509250929050565b600060208284031215613e7457600080fd5b61250582613e13565b60008060408385031215613e9057600080fd5b50508035926020909101359150565b634e487b7160e01b600052604160045260246000fd5b604051601f8201601f1916810167ffffffffffffffff81118282101715613ede57613ede613e9f565b604052919050565b600067ffffffffffffffff821115613f0057613f00613e9f565b5060051b60200190565b600082601f830112613f1b57600080fd5b81356020613f30613f2b83613ee6565b613eb5565b82815260059290921b84018101918181019086841115613f4f57600080fd5b8286015b84811015613f7157613f6481613e13565b8352918301918301613f53565b509695505050505050565b600060208284031215613f8e57600080fd5b813567ffffffffffffffff811115613fa557600080fd5b61233f84828501613f0a565b801515811461223757600080fd5b60008060408385031215613fd257600080fd5b823567ffffffffffffffff80821115613fea57600080fd5b613ff686838701613f0a565b935060209150818501358181111561400d57600080fd5b85019050601f8101861361402057600080fd5b803561402e613f2b82613ee6565b81815260059190911b8201830190838101908883111561404d57600080fd5b928401925b8284101561407457833561406581613fb1565b82529284019290840190614052565b80955050505050509250929050565b6000806040838503121561409657600080fd5b61409f83613e13565b946020939093013593505050565b600081518084526020808501945080840160005b838110156140e65781516001600160a01b0316875295820195908201906001016140c1565b509495945050505050565b60208152600061250560208301846140ad565b60408152600061411760408301856140ad565b82810360208481019190915284518083528582019282019060005b8181101561414e57845183529383019391830191600101614132565b5090979650505050505050565b60006020828403121561416d57600080fd5b5035919050565b600080600080600080600060e0888a03121561418f57600080fd5b61419888613e13565b96506141a660208901613e13565b96999698505050506040850135946060810135946080820135945060a0820135935060c0909101359150565b60208082526030908201527f4d617267696e417070726f7665643a204f6e6c7920626f72726f77656420746f60408201526f1ad95b9cc81b585e481899481d5cd95960821b606082015260800190565b6001600160a01b03929092168252602082015260400190565b60006020828403121561424d57600080fd5b5051919050565b634e487b7160e01b600052601160045260246000fd5b600060001982141561427e5761427e614254565b5060010190565b6020808252818101527f4f776e61626c653a2063616c6c6572206973206e6f7420746865206f776e6572604082015260600190565b634e487b7160e01b600052603260045260246000fd5b60208082526032908201527f4d617267696e417070726f7665643a204f6e6c7920636f6c6c61746572616c206040820152711d1bdad95b9cc81b585e481899481d5cd95960721b606082015260800190565b6020808252602e908201527f496e697469616c697a61626c653a20636f6e747261637420697320616c72656160408201526d191e481a5b9a5d1a585b1a5e995960921b606082015260800190565b6000821982111561438357614383614254565b500190565b60008282101561439a5761439a614254565b500390565b60208082526034908201527f4672616374696f6e4d6174683a2044656e6f6d696e61746f72206f662066726160408201527306374696f6e2063616e6e6f7420657175616c20360641b606082015260800190565b600081600019048311821515161561440d5761440d614254565b500290565b60008261442f57634e487b7160e01b600052601260045260246000fd5b500490565b6020808252602b908201527f496e697469616c697a61626c653a20636f6e7472616374206973206e6f74206960408201526a6e697469616c697a696e6760a81b606082015260800190565b634e487b7160e01b600052603160045260246000fd5b6000602082840312156144a757600080fd5b815161250581613fb1565b60005b838110156144cd5781810151838201526020016144b5565b838111156129955750506000910152565b600082516144f08184602087016144b2565b9190910192915050565b60208152600082518060208401526145198160408501602087016144b2565b601f01601f1916919091016040019291505056fea264697066735822122092deef62292706c8359d0b0182bf00500f94d729bf7b97db9f0f59b136f3e49d64736f6c63430008090033",
  "linkReferences": {},
  "deployedLinkReferences": {}
}