{
  "_format": "hh-sol-artifact-1",
  "contractName": "Oracle",
  "sourceName": "contracts/Oracle/Oracle.sol",
  "abi": [
    {
      "inputs": [
        {
          "internalType": "uint256",
          "name": "thresholdNumerator_",
          "type": "uint256"
        },
        {
          "internalType": "uint256",
          "name": "thresholdDenominator_",
          "type": "uint256"
        }
      ],
      "stateMutability": "nonpayable",
      "type": "constructor"
    },
    {
      "anonymous": false,
      "inputs": [
        {
          "indexed": true,
          "internalType": "address",
          "name": "previousOwner",
          "type": "address"
        },
        {
          "indexed": true,
          "internalType": "address",
          "name": "newOwner",
          "type": "address"
        }
      ],
      "name": "OwnershipTransferred",
      "type": "event"
    },
    {
      "inputs": [
        {
          "internalType": "contract IERC20",
          "name": "token_",
          "type": "address"
        },
        {
          "internalType": "uint256",
          "name": "price_",
          "type": "uint256"
        }
      ],
      "name": "amountMax",
      "outputs": [
        {
          "internalType": "uint256",
          "name": "",
          "type": "uint256"
        }
      ],
      "stateMutability": "view",
      "type": "function"
    },
    {
      "inputs": [
        {
          "internalType": "contract IERC20",
          "name": "token_",
          "type": "address"
        },
        {
          "internalType": "uint256",
          "name": "price_",
          "type": "uint256"
        }
      ],
      "name": "amountMin",
      "outputs": [
        {
          "internalType": "uint256",
          "name": "",
          "type": "uint256"
        }
      ],
      "stateMutability": "view",
      "type": "function"
    },
    {
      "inputs": [
        {
          "internalType": "contract IERC20",
          "name": "token_",
          "type": "address"
        }
      ],
      "name": "decimals",
      "outputs": [
        {
          "internalType": "uint256",
          "name": "",
          "type": "uint256"
        }
      ],
      "stateMutability": "view",
      "type": "function"
    },
    {
      "inputs": [],
      "name": "defaultStablecoin",
      "outputs": [
        {
          "internalType": "contract IERC20",
          "name": "",
          "type": "address"
        }
      ],
      "stateMutability": "view",
      "type": "function"
    },
    {
      "inputs": [
        {
          "internalType": "contract IERC20",
          "name": "token_",
          "type": "address"
        }
      ],
      "name": "isSupported",
      "outputs": [
        {
          "internalType": "bool",
          "name": "",
          "type": "bool"
        }
      ],
      "stateMutability": "view",
      "type": "function"
    },
    {
      "inputs": [],
      "name": "owner",
      "outputs": [
        {
          "internalType": "address",
          "name": "",
          "type": "address"
        }
      ],
      "stateMutability": "view",
      "type": "function"
    },
    {
      "inputs": [
        {
          "internalType": "contract IERC20",
          "name": "token_",
          "type": "address"
        }
      ],
      "name": "priceFeed",
      "outputs": [
        {
          "internalType": "contract AggregatorV3Interface",
          "name": "",
          "type": "address"
        }
      ],
      "stateMutability": "view",
      "type": "function"
    },
    {
      "inputs": [
        {
          "internalType": "contract IERC20",
          "name": "token_",
          "type": "address"
        },
        {
          "internalType": "uint256",
          "name": "amount_",
          "type": "uint256"
        }
      ],
      "name": "priceMax",
      "outputs": [
        {
          "internalType": "uint256",
          "name": "",
          "type": "uint256"
        }
      ],
      "stateMutability": "view",
      "type": "function"
    },
    {
      "inputs": [
        {
          "internalType": "contract IERC20",
          "name": "token_",
          "type": "address"
        },
        {
          "internalType": "uint256",
          "name": "amount_",
          "type": "uint256"
        }
      ],
      "name": "priceMin",
      "outputs": [
        {
          "internalType": "uint256",
          "name": "",
          "type": "uint256"
        }
      ],
      "stateMutability": "view",
      "type": "function"
    },
    {
      "inputs": [],
      "name": "renounceOwnership",
      "outputs": [],
      "stateMutability": "nonpayable",
      "type": "function"
    },
    {
      "inputs": [
        {
          "internalType": "contract IERC20",
          "name": "token_",
          "type": "address"
        }
      ],
      "name": "reservePriceFeed",
      "outputs": [
        {
          "internalType": "contract AggregatorV3Interface",
          "name": "",
          "type": "address"
        }
      ],
      "stateMutability": "view",
      "type": "function"
    },
    {
      "inputs": [
        {
          "internalType": "contract IERC20",
          "name": "token_",
          "type": "address"
        }
      ],
      "name": "setDefaultStablecoin",
      "outputs": [],
      "stateMutability": "nonpayable",
      "type": "function"
    },
    {
      "inputs": [
        {
          "internalType": "contract IERC20[]",
          "name": "token_",
          "type": "address[]"
        },
        {
          "internalType": "contract AggregatorV3Interface[]",
          "name": "priceFeed_",
          "type": "address[]"
        },
        {
          "internalType": "contract AggregatorV3Interface[]",
          "name": "reservePriceFeed_",
          "type": "address[]"
        },
        {
          "internalType": "uint256[]",
          "name": "correctDecimals_",
          "type": "uint256[]"
        },
        {
          "internalType": "bool[]",
          "name": "supported_",
          "type": "bool[]"
        }
      ],
      "name": "setPriceFeed",
      "outputs": [],
      "stateMutability": "nonpayable",
      "type": "function"
    },
    {
      "inputs": [
        {
          "internalType": "uint256",
          "name": "thresholdNumerator_",
          "type": "uint256"
        },
        {
          "internalType": "uint256",
          "name": "thresholdDenominator_",
          "type": "uint256"
        }
      ],
      "name": "setThreshold",
      "outputs": [],
      "stateMutability": "nonpayable",
      "type": "function"
    },
    {
      "inputs": [],
      "name": "threshold",
      "outputs": [
        {
          "internalType": "uint256",
          "name": "",
          "type": "uint256"
        },
        {
          "internalType": "uint256",
          "name": "",
          "type": "uint256"
        }
      ],
      "stateMutability": "view",
      "type": "function"
    },
    {
      "inputs": [
        {
          "internalType": "address",
          "name": "newOwner",
          "type": "address"
        }
      ],
      "name": "transferOwnership",
      "outputs": [],
      "stateMutability": "nonpayable",
      "type": "function"
    }
  ],
  "bytecode": "0x608060405234801561001057600080fd5b5060405161114938038061114983398101604081905261002f91610096565b61003833610046565b6003919091556004556100b9565b600080546001600160a01b038381166001600160a01b0319831681178455604051919092169283917f8be0079c531659141344cd1fd0a4f28419497f9722a3daafe3b4186f6b6457e09190a35050565b600080604083850312156100a8578182fd5b505080516020909101519092909150565b611081806100c86000396000f3fe608060405234801561001057600080fd5b50600436106101005760003560e01c80638da5cb5b11610097578063b9c3620911610066578063b9c3620914610273578063c524a05614610286578063d449a83214610299578063f2fde38b146102ac57600080fd5b80638da5cb5b1461022957806395f881c91461023a578063b1d5e1b91461024d578063b61bb80a1461026057600080fd5b8063561c2ed8116100d3578063561c2ed8146101c95780636145f203146101dc578063715018a6146101f1578063833b8282146101f957600080fd5b80631fd48b9a1461010557806342cde4e81461014e578063468cde72146101695780634f129c531461018a575b600080fd5b610131610113366004610c27565b6001600160a01b039081166000908152600160205260409020541690565b6040516001600160a01b0390911681526020015b60405180910390f35b60035460045460408051928352602083019190915201610145565b61017c610177366004610d0f565b6102bf565b604051908152602001610145565b6101b9610198366004610c27565b6001600160a01b031660009081526001602052604090206003015460ff1690565b6040519015158152602001610145565b61017c6101d7366004610d0f565b61030e565b6101ef6101ea366004610c43565b61034e565b005b6101ef6104fe565b610131610207366004610c27565b6001600160a01b03908116600090815260016020819052604090912001541690565b6000546001600160a01b0316610131565b61017c610248366004610d0f565b610534565b61017c61025b366004610d0f565b61054f565b600254610131906001600160a01b031681565b6101ef610281366004610d3a565b610580565b6101ef610294366004610c27565b6105b5565b61017c6102a7366004610c27565b610644565b6101ef6102ba366004610c27565b610662565b6000806102da846102cf86610644565b6101d790600a610f11565b9050610304816102fe6102ec87610644565b6102f790600a610f11565b86906106fd565b90610710565b9150505b92915050565b60008060006103206003546004549091565b91509150610345816102fe610335888861071c565b61033f85876109fb565b906106fd565b95945050505050565b6000546001600160a01b031633146103815760405162461bcd60e51b815260040161037890610dcb565b60405180910390fd5b60005b85518110156104f6576000600160008884815181106103b357634e487b7160e01b600052603260045260246000fd5b60200260200101516001600160a01b03166001600160a01b0316815260200190815260200160002090508582815181106103fd57634e487b7160e01b600052603260045260246000fd5b602090810291909101015181546001600160a01b0319166001600160a01b03909116178155845185908390811061044457634e487b7160e01b600052603260045260246000fd5b60200260200101518160010160006101000a8154816001600160a01b0302191690836001600160a01b0316021790555083828151811061049457634e487b7160e01b600052603260045260246000fd5b602002602001015181600201819055508282815181106104c457634e487b7160e01b600052603260045260246000fd5b6020908102919091010151600391909101805460ff1916911515919091179055806104ee81610fef565b915050610384565b505050505050565b6000546001600160a01b031633146105285760405162461bcd60e51b815260040161037890610dcb565b6105326000610a07565b565b6000806102da8461054486610644565b61025b90600a610f11565b60008060006105616003546004549091565b91509150610345816102fe610576888861071c565b61033f8587610a57565b6000546001600160a01b031633146105aa5760405162461bcd60e51b815260040161037890610dcb565b600391909155600455565b6000546001600160a01b031633146105df5760405162461bcd60e51b815260040161037890610dcb565b80610605816001600160a01b031660009081526001602052604090206003015460ff1690565b6106215760405162461bcd60e51b815260040161037890610e00565b50600280546001600160a01b0319166001600160a01b0392909216919091179055565b6001600160a01b031660009081526001602052604090206002015490565b6000546001600160a01b0316331461068c5760405162461bcd60e51b815260040161037890610dcb565b6001600160a01b0381166106f15760405162461bcd60e51b815260206004820152602660248201527f4f776e61626c653a206e6577206f776e657220697320746865207a65726f206160448201526564647265737360d01b6064820152608401610378565b6106fa81610a07565b50565b60006107098284610fb9565b9392505050565b60006107098284610eae565b6001600160a01b038216600090815260016020526040812060030154839060ff166107595760405162461bcd60e51b815260040161037890610e00565b6001600160a01b0380851660009081526001602052604081205490911690506000816001600160a01b031663feaf968c6040518163ffffffff1660e01b815260040160a06040518083038186803b1580156107b357600080fd5b505afa1580156107c7573d6000803e3d6000fd5b505050506040513d601f19601f820116820180604052508101906107eb9190610d5b565b5050509150506000826001600160a01b031663313ce5676040518163ffffffff1660e01b815260040160206040518083038186803b15801561082c57600080fd5b505afa158015610840573d6000803e3d6000fd5b505050506040513d601f19601f820116820180604052508101906108649190610daa565b60ff16905060008213610986576001600160a01b0380881660009081526001602081905260409091200154169250826001600160a01b031663feaf968c6040518163ffffffff1660e01b815260040160a06040518083038186803b1580156108cb57600080fd5b505afa1580156108df573d6000803e3d6000fd5b505050506040513d601f19601f820116820180604052508101906109039190610d5b565b50506040805163313ce56760e01b815290519295506001600160a01b038716935063313ce5679260048083019350602092829003018186803b15801561094857600080fd5b505afa15801561095c573d6000803e3d6000fd5b505050506040513d601f19601f820116820180604052508101906109809190610daa565b60ff1690505b6000821361099a57600094505050506109f4565b6109ee6109a688610644565b6109b190600a610f11565b6102fe8861033f6109c386600a610f11565b6002546102fe906109dc906001600160a01b0316610644565b6109e790600a610f11565b89906106fd565b94505050505b5092915050565b60006107098284610e96565b600080546001600160a01b038381166001600160a01b0319831681178455604051919092169283917f8be0079c531659141344cd1fd0a4f28419497f9722a3daafe3b4186f6b6457e09190a35050565b60006107098284610fd8565b600082601f830112610a73578081fd5b81356020610a88610a8383610e72565b610e41565b80838252828201915082860187848660051b8901011115610aa7578586fd5b855b85811015610ad25781358015158114610ac0578788fd5b84529284019290840190600101610aa9565b5090979650505050505050565b600082601f830112610aef578081fd5b81356020610aff610a8383610e72565b80838252828201915082860187848660051b8901011115610b1e578586fd5b855b85811015610ad2578135610b3381611036565b84529284019290840190600101610b20565b600082601f830112610b55578081fd5b81356020610b65610a8383610e72565b80838252828201915082860187848660051b8901011115610b84578586fd5b855b85811015610ad2578135610b9981611036565b84529284019290840190600101610b86565b600082601f830112610bbb578081fd5b81356020610bcb610a8383610e72565b80838252828201915082860187848660051b8901011115610bea578586fd5b855b85811015610ad257813584529284019290840190600101610bec565b805169ffffffffffffffffffff81168114610c2257600080fd5b919050565b600060208284031215610c38578081fd5b813561070981611036565b600080600080600060a08688031215610c5a578081fd5b853567ffffffffffffffff80821115610c71578283fd5b610c7d89838a01610b45565b96506020880135915080821115610c92578283fd5b610c9e89838a01610adf565b95506040880135915080821115610cb3578283fd5b610cbf89838a01610adf565b94506060880135915080821115610cd4578283fd5b610ce089838a01610bab565b93506080880135915080821115610cf5578283fd5b50610d0288828901610a63565b9150509295509295909350565b60008060408385031215610d21578182fd5b8235610d2c81611036565b946020939093013593505050565b60008060408385031215610d4c578182fd5b50508035926020909101359150565b600080600080600060a08688031215610d72578081fd5b610d7b86610c08565b9450602086015193506040860151925060608601519150610d9e60808701610c08565b90509295509295909350565b600060208284031215610dbb578081fd5b815160ff81168114610709578182fd5b6020808252818101527f4f776e61626c653a2063616c6c6572206973206e6f7420746865206f776e6572604082015260600190565b60208082526021908201527f4f6e6c7920737570706f7274656420746f6b656e73206d6179206265207573656040820152601960fa1b606082015260800190565b604051601f8201601f1916810167ffffffffffffffff81118282101715610e6a57610e6a611020565b604052919050565b600067ffffffffffffffff821115610e8c57610e8c611020565b5060051b60200190565b60008219821115610ea957610ea961100a565b500190565b600082610ec957634e487b7160e01b81526012600452602481fd5b500490565b600181815b80851115610f09578160001904821115610eef57610eef61100a565b80851615610efc57918102915b93841c9390800290610ed3565b509250929050565b60006107098383600082610f2757506001610308565b81610f3457506000610308565b8160018114610f4a5760028114610f5457610f70565b6001915050610308565b60ff841115610f6557610f6561100a565b50506001821b610308565b5060208310610133831016604e8410600b8410161715610f93575081810a610308565b610f9d8383610ece565b8060001904821115610fb157610fb161100a565b029392505050565b6000816000190483118215151615610fd357610fd361100a565b500290565b600082821015610fea57610fea61100a565b500390565b60006000198214156110035761100361100a565b5060010190565b634e487b7160e01b600052601160045260246000fd5b634e487b7160e01b600052604160045260246000fd5b6001600160a01b03811681146106fa57600080fdfea2646970667358221220c9bd8e832e132ddb3cc6fa73e3ce443eb8d7e272e9b8644aed832550317bc3cb64736f6c63430008040033",
  "linkReferences": {},
  "deployedLinkReferences": {}
}