{
  "_format": "hh-sol-artifact-1",
  "contractName": "Oracle",
  "sourceName": "contracts/Oracle/Oracle.sol",
  "abi": [
    {
      "anonymous": false,
      "inputs": [
        {
          "indexed": true,
          "internalType": "address",
          "name": "previousOwner",
          "type": "address"
        },
        {
          "indexed": true,
          "internalType": "address",
          "name": "newOwner",
          "type": "address"
        }
      ],
      "name": "OwnershipTransferred",
      "type": "event"
    },
    {
      "inputs": [
        {
          "internalType": "contract IERC20",
          "name": "token_",
          "type": "address"
        },
        {
          "internalType": "uint256",
          "name": "price_",
          "type": "uint256"
        }
      ],
      "name": "amount",
      "outputs": [
        {
          "internalType": "uint256",
          "name": "",
          "type": "uint256"
        }
      ],
      "stateMutability": "view",
      "type": "function"
    },
    {
      "inputs": [
        {
          "internalType": "contract IERC20",
          "name": "token_",
          "type": "address"
        }
      ],
      "name": "decimals",
      "outputs": [
        {
          "internalType": "uint256",
          "name": "",
          "type": "uint256"
        }
      ],
      "stateMutability": "view",
      "type": "function"
    },
    {
      "inputs": [],
      "name": "defaultStablecoin",
      "outputs": [
        {
          "internalType": "contract IERC20",
          "name": "",
          "type": "address"
        }
      ],
      "stateMutability": "view",
      "type": "function"
    },
    {
      "inputs": [
        {
          "internalType": "contract IERC20",
          "name": "token_",
          "type": "address"
        }
      ],
      "name": "isSupported",
      "outputs": [
        {
          "internalType": "bool",
          "name": "",
          "type": "bool"
        }
      ],
      "stateMutability": "view",
      "type": "function"
    },
    {
      "inputs": [],
      "name": "owner",
      "outputs": [
        {
          "internalType": "address",
          "name": "",
          "type": "address"
        }
      ],
      "stateMutability": "view",
      "type": "function"
    },
    {
      "inputs": [
        {
          "internalType": "contract IERC20",
          "name": "token_",
          "type": "address"
        },
        {
          "internalType": "uint256",
          "name": "amount_",
          "type": "uint256"
        }
      ],
      "name": "price",
      "outputs": [
        {
          "internalType": "uint256",
          "name": "",
          "type": "uint256"
        }
      ],
      "stateMutability": "view",
      "type": "function"
    },
    {
      "inputs": [
        {
          "internalType": "contract IERC20",
          "name": "token_",
          "type": "address"
        }
      ],
      "name": "priceFeed",
      "outputs": [
        {
          "internalType": "contract AggregatorV3Interface",
          "name": "",
          "type": "address"
        }
      ],
      "stateMutability": "view",
      "type": "function"
    },
    {
      "inputs": [],
      "name": "renounceOwnership",
      "outputs": [],
      "stateMutability": "nonpayable",
      "type": "function"
    },
    {
      "inputs": [
        {
          "internalType": "contract IERC20",
          "name": "token_",
          "type": "address"
        }
      ],
      "name": "reservePriceFeed",
      "outputs": [
        {
          "internalType": "contract AggregatorV3Interface",
          "name": "",
          "type": "address"
        }
      ],
      "stateMutability": "view",
      "type": "function"
    },
    {
      "inputs": [
        {
          "internalType": "contract IERC20",
          "name": "token_",
          "type": "address"
        }
      ],
      "name": "setDefaultStablecoin",
      "outputs": [],
      "stateMutability": "nonpayable",
      "type": "function"
    },
    {
      "inputs": [
        {
          "internalType": "contract IERC20[]",
          "name": "token_",
          "type": "address[]"
        },
        {
          "internalType": "contract AggregatorV3Interface[]",
          "name": "priceFeed_",
          "type": "address[]"
        },
        {
          "internalType": "contract AggregatorV3Interface[]",
          "name": "reservePriceFeed_",
          "type": "address[]"
        },
        {
          "internalType": "uint256[]",
          "name": "correctDecimals_",
          "type": "uint256[]"
        },
        {
          "internalType": "bool[]",
          "name": "supported_",
          "type": "bool[]"
        }
      ],
      "name": "setPriceFeed",
      "outputs": [],
      "stateMutability": "nonpayable",
      "type": "function"
    },
    {
      "inputs": [
        {
          "internalType": "address",
          "name": "newOwner",
          "type": "address"
        }
      ],
      "name": "transferOwnership",
      "outputs": [],
      "stateMutability": "nonpayable",
      "type": "function"
    }
  ],
  "bytecode": "0x608060405234801561001057600080fd5b5061001a3361001f565b61006f565b600080546001600160a01b038381166001600160a01b0319831681178455604051919092169283917f8be0079c531659141344cd1fd0a4f28419497f9722a3daafe3b4186f6b6457e09190a35050565b610ebe8061007e6000396000f3fe608060405234801561001057600080fd5b50600436106100b45760003560e01c80638da5cb5b116100715780638da5cb5b146101af578063ad9b8024146101c0578063b61bb80a146101d3578063c524a056146101e6578063d449a832146101f9578063f2fde38b1461020c57600080fd5b80630be002aa146100b95780631fd48b9a146100df5780634f129c53146101235780636145f20314610162578063715018a614610177578063833b82821461017f575b600080fd5b6100cc6100c7366004610b9c565b61021f565b6040519081526020015b60405180910390f35b61010b6100ed366004610ab4565b6001600160a01b039081166000908152600160205260409020541690565b6040516001600160a01b0390911681526020016100d6565b610152610131366004610ab4565b6001600160a01b031660009081526001602052604090206003015460ff1690565b60405190151581526020016100d6565b610175610170366004610ad0565b61026e565b005b61017561041e565b61010b61018d366004610ab4565b6001600160a01b03908116600090815260016020819052604090912001541690565b6000546001600160a01b031661010b565b6100cc6101ce366004610b9c565b610454565b60025461010b906001600160a01b031681565b6101756101f4366004610ab4565b610739565b6100cc610207366004610ab4565b6107c8565b61017561021a366004610ab4565b6107e6565b60008061023a8461022f866107c8565b6101ce90600a610d65565b90506102648161025e61024c876107c8565b61025790600a610d65565b8690610881565b90610894565b9150505b92915050565b6000546001600160a01b031633146102a15760405162461bcd60e51b815260040161029890610c37565b60405180910390fd5b60005b8551811015610416576000600160008884815181106102d357634e487b7160e01b600052603260045260246000fd5b60200260200101516001600160a01b03166001600160a01b03168152602001908152602001600020905085828151811061031d57634e487b7160e01b600052603260045260246000fd5b602090810291909101015181546001600160a01b0319166001600160a01b03909116178155845185908390811061036457634e487b7160e01b600052603260045260246000fd5b60200260200101518160010160006101000a8154816001600160a01b0302191690836001600160a01b031602179055508382815181106103b457634e487b7160e01b600052603260045260246000fd5b602002602001015181600201819055508282815181106103e457634e487b7160e01b600052603260045260246000fd5b6020908102919091010151600391909101805460ff19169115159190911790558061040e81610e2c565b9150506102a4565b505050505050565b6000546001600160a01b031633146104485760405162461bcd60e51b815260040161029890610c37565b61045260006108a0565b565b6001600160a01b038216600090815260016020526040812060030154839060ff166104915760405162461bcd60e51b815260040161029890610c6c565b6001600160a01b0380851660009081526001602052604081205490911690506000816001600160a01b031663feaf968c6040518163ffffffff1660e01b815260040160a06040518083038186803b1580156104eb57600080fd5b505afa1580156104ff573d6000803e3d6000fd5b505050506040513d601f19601f820116820180604052508101906105239190610bc7565b5050509150506000826001600160a01b031663313ce5676040518163ffffffff1660e01b815260040160206040518083038186803b15801561056457600080fd5b505afa158015610578573d6000803e3d6000fd5b505050506040513d601f19601f8201168201806040525081019061059c9190610c16565b60ff169050600082136106be576001600160a01b0380881660009081526001602081905260409091200154169250826001600160a01b031663feaf968c6040518163ffffffff1660e01b815260040160a06040518083038186803b15801561060357600080fd5b505afa158015610617573d6000803e3d6000fd5b505050506040513d601f19601f8201168201806040525081019061063b9190610bc7565b50506040805163313ce56760e01b815290519295506001600160a01b038716935063313ce5679260048083019350602092829003018186803b15801561068057600080fd5b505afa158015610694573d6000803e3d6000fd5b505050506040513d601f19601f820116820180604052508101906106b89190610c16565b60ff1690505b600082136106d25760009450505050610732565b61072c6106de886107c8565b6106e990600a610d65565b61025e886107266106fb86600a610d65565b60025461025e90610714906001600160a01b03166107c8565b61071f90600a610d65565b8990610881565b90610881565b94505050505b5092915050565b6000546001600160a01b031633146107635760405162461bcd60e51b815260040161029890610c37565b80610789816001600160a01b031660009081526001602052604090206003015460ff1690565b6107a55760405162461bcd60e51b815260040161029890610c6c565b50600280546001600160a01b0319166001600160a01b0392909216919091179055565b6001600160a01b031660009081526001602052604090206002015490565b6000546001600160a01b031633146108105760405162461bcd60e51b815260040161029890610c37565b6001600160a01b0381166108755760405162461bcd60e51b815260206004820152602660248201527f4f776e61626c653a206e6577206f776e657220697320746865207a65726f206160448201526564647265737360d01b6064820152608401610298565b61087e816108a0565b50565b600061088d8284610e0d565b9392505050565b600061088d8284610d02565b600080546001600160a01b038381166001600160a01b0319831681178455604051919092169283917f8be0079c531659141344cd1fd0a4f28419497f9722a3daafe3b4186f6b6457e09190a35050565b600082601f830112610900578081fd5b8135602061091561091083610cde565b610cad565b80838252828201915082860187848660051b8901011115610934578586fd5b855b8581101561095f578135801515811461094d578788fd5b84529284019290840190600101610936565b5090979650505050505050565b600082601f83011261097c578081fd5b8135602061098c61091083610cde565b80838252828201915082860187848660051b89010111156109ab578586fd5b855b8581101561095f5781356109c081610e73565b845292840192908401906001016109ad565b600082601f8301126109e2578081fd5b813560206109f261091083610cde565b80838252828201915082860187848660051b8901011115610a11578586fd5b855b8581101561095f578135610a2681610e73565b84529284019290840190600101610a13565b600082601f830112610a48578081fd5b81356020610a5861091083610cde565b80838252828201915082860187848660051b8901011115610a77578586fd5b855b8581101561095f57813584529284019290840190600101610a79565b805169ffffffffffffffffffff81168114610aaf57600080fd5b919050565b600060208284031215610ac5578081fd5b813561088d81610e73565b600080600080600060a08688031215610ae7578081fd5b853567ffffffffffffffff80821115610afe578283fd5b610b0a89838a016109d2565b96506020880135915080821115610b1f578283fd5b610b2b89838a0161096c565b95506040880135915080821115610b40578283fd5b610b4c89838a0161096c565b94506060880135915080821115610b61578283fd5b610b6d89838a01610a38565b93506080880135915080821115610b82578283fd5b50610b8f888289016108f0565b9150509295509295909350565b60008060408385031215610bae578182fd5b8235610bb981610e73565b946020939093013593505050565b600080600080600060a08688031215610bde578081fd5b610be786610a95565b9450602086015193506040860151925060608601519150610c0a60808701610a95565b90509295509295909350565b600060208284031215610c27578081fd5b815160ff8116811461088d578182fd5b6020808252818101527f4f776e61626c653a2063616c6c6572206973206e6f7420746865206f776e6572604082015260600190565b60208082526021908201527f4f6e6c7920737570706f7274656420746f6b656e73206d6179206265207573656040820152601960fa1b606082015260800190565b604051601f8201601f1916810167ffffffffffffffff81118282101715610cd657610cd6610e5d565b604052919050565b600067ffffffffffffffff821115610cf857610cf8610e5d565b5060051b60200190565b600082610d1d57634e487b7160e01b81526012600452602481fd5b500490565b600181815b80851115610d5d578160001904821115610d4357610d43610e47565b80851615610d5057918102915b93841c9390800290610d27565b509250929050565b600061088d8383600082610d7b57506001610268565b81610d8857506000610268565b8160018114610d9e5760028114610da857610dc4565b6001915050610268565b60ff841115610db957610db9610e47565b50506001821b610268565b5060208310610133831016604e8410600b8410161715610de7575081810a610268565b610df18383610d22565b8060001904821115610e0557610e05610e47565b029392505050565b6000816000190483118215151615610e2757610e27610e47565b500290565b6000600019821415610e4057610e40610e47565b5060010190565b634e487b7160e01b600052601160045260246000fd5b634e487b7160e01b600052604160045260246000fd5b6001600160a01b038116811461087e57600080fdfea26469706673582212203739617ce323a79b8794fd76d8896a124f2ea8d275c18cbd449333ab2285783a64736f6c63430008040033",
  "linkReferences": {},
  "deployedLinkReferences": {}
}