{
  "_format": "hh-sol-artifact-1",
  "contractName": "Oracle",
  "sourceName": "contracts/Oracle/Oracle.sol",
  "abi": [
    {
      "inputs": [
        {
          "internalType": "uint256",
          "name": "thresholdNumerator_",
          "type": "uint256"
        },
        {
          "internalType": "uint256",
          "name": "thresholdDenominator_",
          "type": "uint256"
        },
        {
          "internalType": "uint256",
          "name": "priceDecimals_",
          "type": "uint256"
        }
      ],
      "stateMutability": "nonpayable",
      "type": "constructor"
    },
    {
      "anonymous": false,
      "inputs": [
        {
          "indexed": true,
          "internalType": "address",
          "name": "previousOwner",
          "type": "address"
        },
        {
          "indexed": true,
          "internalType": "address",
          "name": "newOwner",
          "type": "address"
        }
      ],
      "name": "OwnershipTransferred",
      "type": "event"
    },
    {
      "inputs": [
        {
          "internalType": "contract IERC20",
          "name": "token_",
          "type": "address"
        },
        {
          "internalType": "uint256",
          "name": "price_",
          "type": "uint256"
        }
      ],
      "name": "amountMax",
      "outputs": [
        {
          "internalType": "uint256",
          "name": "",
          "type": "uint256"
        }
      ],
      "stateMutability": "view",
      "type": "function"
    },
    {
      "inputs": [
        {
          "internalType": "contract IERC20",
          "name": "token_",
          "type": "address"
        },
        {
          "internalType": "uint256",
          "name": "price_",
          "type": "uint256"
        }
      ],
      "name": "amountMin",
      "outputs": [
        {
          "internalType": "uint256",
          "name": "",
          "type": "uint256"
        }
      ],
      "stateMutability": "view",
      "type": "function"
    },
    {
      "inputs": [
        {
          "internalType": "contract IERC20",
          "name": "token_",
          "type": "address"
        }
      ],
      "name": "decimals",
      "outputs": [
        {
          "internalType": "uint256",
          "name": "",
          "type": "uint256"
        }
      ],
      "stateMutability": "view",
      "type": "function"
    },
    {
      "inputs": [
        {
          "internalType": "contract IERC20",
          "name": "token_",
          "type": "address"
        }
      ],
      "name": "isSupported",
      "outputs": [
        {
          "internalType": "bool",
          "name": "",
          "type": "bool"
        }
      ],
      "stateMutability": "view",
      "type": "function"
    },
    {
      "inputs": [],
      "name": "owner",
      "outputs": [
        {
          "internalType": "address",
          "name": "",
          "type": "address"
        }
      ],
      "stateMutability": "view",
      "type": "function"
    },
    {
      "inputs": [],
      "name": "priceDecimals",
      "outputs": [
        {
          "internalType": "uint256",
          "name": "",
          "type": "uint256"
        }
      ],
      "stateMutability": "view",
      "type": "function"
    },
    {
      "inputs": [
        {
          "internalType": "contract IERC20",
          "name": "token_",
          "type": "address"
        }
      ],
      "name": "priceFeed",
      "outputs": [
        {
          "internalType": "contract AggregatorV3Interface",
          "name": "",
          "type": "address"
        }
      ],
      "stateMutability": "view",
      "type": "function"
    },
    {
      "inputs": [
        {
          "internalType": "contract IERC20",
          "name": "token_",
          "type": "address"
        },
        {
          "internalType": "uint256",
          "name": "amount_",
          "type": "uint256"
        }
      ],
      "name": "priceMax",
      "outputs": [
        {
          "internalType": "uint256",
          "name": "",
          "type": "uint256"
        }
      ],
      "stateMutability": "view",
      "type": "function"
    },
    {
      "inputs": [
        {
          "internalType": "contract IERC20",
          "name": "token_",
          "type": "address"
        },
        {
          "internalType": "uint256",
          "name": "amount_",
          "type": "uint256"
        }
      ],
      "name": "priceMin",
      "outputs": [
        {
          "internalType": "uint256",
          "name": "",
          "type": "uint256"
        }
      ],
      "stateMutability": "view",
      "type": "function"
    },
    {
      "inputs": [],
      "name": "renounceOwnership",
      "outputs": [],
      "stateMutability": "nonpayable",
      "type": "function"
    },
    {
      "inputs": [
        {
          "internalType": "contract IERC20",
          "name": "token_",
          "type": "address"
        }
      ],
      "name": "reservePriceFeed",
      "outputs": [
        {
          "internalType": "contract AggregatorV3Interface",
          "name": "",
          "type": "address"
        }
      ],
      "stateMutability": "view",
      "type": "function"
    },
    {
      "inputs": [
        {
          "internalType": "uint256",
          "name": "priceDecimals_",
          "type": "uint256"
        }
      ],
      "name": "setPriceDecimals",
      "outputs": [],
      "stateMutability": "nonpayable",
      "type": "function"
    },
    {
      "inputs": [
        {
          "internalType": "contract IERC20[]",
          "name": "token_",
          "type": "address[]"
        },
        {
          "internalType": "contract AggregatorV3Interface[]",
          "name": "priceFeed_",
          "type": "address[]"
        },
        {
          "internalType": "contract AggregatorV3Interface[]",
          "name": "reservePriceFeed_",
          "type": "address[]"
        },
        {
          "internalType": "uint256[]",
          "name": "correctDecimals_",
          "type": "uint256[]"
        },
        {
          "internalType": "bool[]",
          "name": "supported_",
          "type": "bool[]"
        }
      ],
      "name": "setPriceFeed",
      "outputs": [],
      "stateMutability": "nonpayable",
      "type": "function"
    },
    {
      "inputs": [
        {
          "internalType": "uint256",
          "name": "thresholdNumerator_",
          "type": "uint256"
        },
        {
          "internalType": "uint256",
          "name": "thresholdDenominator_",
          "type": "uint256"
        }
      ],
      "name": "setThreshold",
      "outputs": [],
      "stateMutability": "nonpayable",
      "type": "function"
    },
    {
      "inputs": [],
      "name": "threshold",
      "outputs": [
        {
          "internalType": "uint256",
          "name": "",
          "type": "uint256"
        },
        {
          "internalType": "uint256",
          "name": "",
          "type": "uint256"
        }
      ],
      "stateMutability": "view",
      "type": "function"
    },
    {
      "inputs": [
        {
          "internalType": "address",
          "name": "newOwner",
          "type": "address"
        }
      ],
      "name": "transferOwnership",
      "outputs": [],
      "stateMutability": "nonpayable",
      "type": "function"
    }
  ],
  "bytecode": "0x608060405234801561001057600080fd5b506040516110ed3803806110ed83398101604081905261002f9161009b565b806100393361004b565b600255506003919091556004556100c8565b600080546001600160a01b038381166001600160a01b0319831681178455604051919092169283917f8be0079c531659141344cd1fd0a4f28419497f9722a3daafe3b4186f6b6457e09190a35050565b6000806000606084860312156100af578283fd5b8351925060208401519150604084015190509250925092565b611016806100d76000396000f3fe608060405234801561001057600080fd5b50600436106101005760003560e01c8063715018a611610097578063b1d5e1b911610066578063b1d5e1b914610269578063b9c362091461027c578063d449a8321461028f578063f2fde38b146102a257600080fd5b8063715018a61461020d578063833b8282146102155780638da5cb5b1461024557806395f881c91461025657600080fd5b8063468cde72116100d3578063468cde72146101955780634f129c53146101a8578063561c2ed8146101e75780636145f203146101fa57600080fd5b806305300b28146101055780631fd48b9a14610121578063317c94ba1461016557806342cde4e81461017a575b600080fd5b61010e60025481565b6040519081526020015b60405180910390f35b61014d61012f366004610be5565b6001600160a01b039081166000908152600160205260409020541690565b6040516001600160a01b039091168152602001610118565b610178610173366004610cf8565b6102b5565b005b60035460045460408051928352602083019190915201610118565b61010e6101a3366004610ccd565b6102ed565b6101d76101b6366004610be5565b6001600160a01b031660009081526001602052604090206003015460ff1690565b6040519015158152602001610118565b61010e6101f5366004610ccd565b61033c565b610178610208366004610c01565b61037c565b610178610523565b61014d610223366004610be5565b6001600160a01b03908116600090815260016020819052604090912001541690565b6000546001600160a01b031661014d565b61010e610264366004610ccd565b610559565b61010e610277366004610ccd565b610574565b61017861028a366004610d10565b6105a5565b61010e61029d366004610be5565b6105da565b6101786102b0366004610be5565b6105f8565b6000546001600160a01b031633146102e85760405162461bcd60e51b81526004016102df90610da1565b60405180910390fd5b600255565b600080610308846102fd866105da565b6101f590600a610ea6565b90506103328161032c61031a876105da565b61032590600a610ea6565b8690610693565b906106a6565b9150505b92915050565b600080600061034e6003546004549091565b915091506103738161032c61036388886106b2565b61036d85876109b9565b90610693565b95945050505050565b6000546001600160a01b031633146103a65760405162461bcd60e51b81526004016102df90610da1565b60005b855181101561051b576000600160008884815181106103d857634e487b7160e01b600052603260045260246000fd5b60200260200101516001600160a01b03166001600160a01b03168152602001908152602001600020905085828151811061042257634e487b7160e01b600052603260045260246000fd5b602090810291909101015181546001600160a01b0319166001600160a01b03909116178155845185908390811061046957634e487b7160e01b600052603260045260246000fd5b60200260200101518160010160006101000a8154816001600160a01b0302191690836001600160a01b031602179055508382815181106104b957634e487b7160e01b600052603260045260246000fd5b602002602001015181600201819055508282815181106104e957634e487b7160e01b600052603260045260246000fd5b6020908102919091010151600391909101805460ff19169115159190911790558061051381610f84565b9150506103a9565b505050505050565b6000546001600160a01b0316331461054d5760405162461bcd60e51b81526004016102df90610da1565b61055760006109c5565b565b60008061030884610569866105da565b61027790600a610ea6565b60008060006105866003546004549091565b915091506103738161032c61059b88886106b2565b61036d8587610a15565b6000546001600160a01b031633146105cf5760405162461bcd60e51b81526004016102df90610da1565b600391909155600455565b6001600160a01b031660009081526001602052604090206002015490565b6000546001600160a01b031633146106225760405162461bcd60e51b81526004016102df90610da1565b6001600160a01b0381166106875760405162461bcd60e51b815260206004820152602660248201527f4f776e61626c653a206e6577206f776e657220697320746865207a65726f206160448201526564647265737360d01b60648201526084016102df565b610690816109c5565b50565b600061069f8284610f4e565b9392505050565b600061069f8284610e43565b6001600160a01b038216600090815260016020526040812060030154839060ff166107295760405162461bcd60e51b815260206004820152602160248201527f4f6e6c7920737570706f7274656420746f6b656e73206d6179206265207573656044820152601960fa1b60648201526084016102df565b6001600160a01b0380851660009081526001602052604081205490911690506000816001600160a01b031663feaf968c6040518163ffffffff1660e01b815260040160a06040518083038186803b15801561078357600080fd5b505afa158015610797573d6000803e3d6000fd5b505050506040513d601f19601f820116820180604052508101906107bb9190610d31565b5050509150506000826001600160a01b031663313ce5676040518163ffffffff1660e01b815260040160206040518083038186803b1580156107fc57600080fd5b505afa158015610810573d6000803e3d6000fd5b505050506040513d601f19601f820116820180604052508101906108349190610d80565b60ff16905060008213610956576001600160a01b0380881660009081526001602081905260409091200154169250826001600160a01b031663feaf968c6040518163ffffffff1660e01b815260040160a06040518083038186803b15801561089b57600080fd5b505afa1580156108af573d6000803e3d6000fd5b505050506040513d601f19601f820116820180604052508101906108d39190610d31565b50506040805163313ce56760e01b815290519295506001600160a01b038716935063313ce5679260048083019350602092829003018186803b15801561091857600080fd5b505afa15801561092c573d6000803e3d6000fd5b505050506040513d601f19601f820116820180604052508101906109509190610d80565b60ff1690505b6000821361096a57600094505050506109b2565b6109ac610976886105da565b61098190600a610ea6565b61032c61098f84600a610ea6565b61032c8a61036d600254600a6109a59190610ea6565b8990610693565b94505050505b5092915050565b600061069f8284610e2b565b600080546001600160a01b038381166001600160a01b0319831681178455604051919092169283917f8be0079c531659141344cd1fd0a4f28419497f9722a3daafe3b4186f6b6457e09190a35050565b600061069f8284610f6d565b600082601f830112610a31578081fd5b81356020610a46610a4183610e07565b610dd6565b80838252828201915082860187848660051b8901011115610a65578586fd5b855b85811015610a905781358015158114610a7e578788fd5b84529284019290840190600101610a67565b5090979650505050505050565b600082601f830112610aad578081fd5b81356020610abd610a4183610e07565b80838252828201915082860187848660051b8901011115610adc578586fd5b855b85811015610a90578135610af181610fcb565b84529284019290840190600101610ade565b600082601f830112610b13578081fd5b81356020610b23610a4183610e07565b80838252828201915082860187848660051b8901011115610b42578586fd5b855b85811015610a90578135610b5781610fcb565b84529284019290840190600101610b44565b600082601f830112610b79578081fd5b81356020610b89610a4183610e07565b80838252828201915082860187848660051b8901011115610ba8578586fd5b855b85811015610a9057813584529284019290840190600101610baa565b805169ffffffffffffffffffff81168114610be057600080fd5b919050565b600060208284031215610bf6578081fd5b813561069f81610fcb565b600080600080600060a08688031215610c18578081fd5b853567ffffffffffffffff80821115610c2f578283fd5b610c3b89838a01610b03565b96506020880135915080821115610c50578283fd5b610c5c89838a01610a9d565b95506040880135915080821115610c71578283fd5b610c7d89838a01610a9d565b94506060880135915080821115610c92578283fd5b610c9e89838a01610b69565b93506080880135915080821115610cb3578283fd5b50610cc088828901610a21565b9150509295509295909350565b60008060408385031215610cdf578182fd5b8235610cea81610fcb565b946020939093013593505050565b600060208284031215610d09578081fd5b5035919050565b60008060408385031215610d22578182fd5b50508035926020909101359150565b600080600080600060a08688031215610d48578283fd5b610d5186610bc6565b9450602086015193506040860151925060608601519150610d7460808701610bc6565b90509295509295909350565b600060208284031215610d91578081fd5b815160ff8116811461069f578182fd5b6020808252818101527f4f776e61626c653a2063616c6c6572206973206e6f7420746865206f776e6572604082015260600190565b604051601f8201601f1916810167ffffffffffffffff81118282101715610dff57610dff610fb5565b604052919050565b600067ffffffffffffffff821115610e2157610e21610fb5565b5060051b60200190565b60008219821115610e3e57610e3e610f9f565b500190565b600082610e5e57634e487b7160e01b81526012600452602481fd5b500490565b600181815b80851115610e9e578160001904821115610e8457610e84610f9f565b80851615610e9157918102915b93841c9390800290610e68565b509250929050565b600061069f8383600082610ebc57506001610336565b81610ec957506000610336565b8160018114610edf5760028114610ee957610f05565b6001915050610336565b60ff841115610efa57610efa610f9f565b50506001821b610336565b5060208310610133831016604e8410600b8410161715610f28575081810a610336565b610f328383610e63565b8060001904821115610f4657610f46610f9f565b029392505050565b6000816000190483118215151615610f6857610f68610f9f565b500290565b600082821015610f7f57610f7f610f9f565b500390565b6000600019821415610f9857610f98610f9f565b5060010190565b634e487b7160e01b600052601160045260246000fd5b634e487b7160e01b600052604160045260246000fd5b6001600160a01b038116811461069057600080fdfea264697066735822122054dbade0d5d1f817ddaad9e827ad03011f4c11b8b57d7392c8d442acd44d20ce64736f6c63430008040033",
  "linkReferences": {},
  "deployedLinkReferences": {}
}