{
  "_format": "hh-sol-artifact-1",
  "contractName": "Oracle",
  "sourceName": "contracts/Oracle.sol",
  "abi": [
    {
      "inputs": [
        {
          "internalType": "uint256",
          "name": "decimals_",
          "type": "uint256"
        }
      ],
      "stateMutability": "nonpayable",
      "type": "constructor"
    },
    {
      "anonymous": false,
      "inputs": [
        {
          "indexed": true,
          "internalType": "address",
          "name": "previousOwner",
          "type": "address"
        },
        {
          "indexed": true,
          "internalType": "address",
          "name": "newOwner",
          "type": "address"
        }
      ],
      "name": "OwnershipTransferred",
      "type": "event"
    },
    {
      "inputs": [
        {
          "internalType": "contract UniswapV2Router02",
          "name": "_router",
          "type": "address"
        }
      ],
      "name": "addRouter",
      "outputs": [],
      "stateMutability": "nonpayable",
      "type": "function"
    },
    {
      "inputs": [],
      "name": "decimals",
      "outputs": [
        {
          "internalType": "uint256",
          "name": "",
          "type": "uint256"
        }
      ],
      "stateMutability": "view",
      "type": "function"
    },
    {
      "inputs": [],
      "name": "owner",
      "outputs": [
        {
          "internalType": "address",
          "name": "",
          "type": "address"
        }
      ],
      "stateMutability": "view",
      "type": "function"
    },
    {
      "inputs": [
        {
          "internalType": "contract IERC20",
          "name": "_token1",
          "type": "address"
        },
        {
          "internalType": "contract IERC20",
          "name": "_token2",
          "type": "address"
        }
      ],
      "name": "pairPrice",
      "outputs": [
        {
          "internalType": "uint256",
          "name": "",
          "type": "uint256"
        }
      ],
      "stateMutability": "view",
      "type": "function"
    },
    {
      "inputs": [],
      "name": "renounceOwnership",
      "outputs": [],
      "stateMutability": "nonpayable",
      "type": "function"
    },
    {
      "inputs": [],
      "name": "router",
      "outputs": [
        {
          "internalType": "contract UniswapV2Router02",
          "name": "",
          "type": "address"
        }
      ],
      "stateMutability": "view",
      "type": "function"
    },
    {
      "inputs": [],
      "name": "routers",
      "outputs": [
        {
          "internalType": "contract UniswapV2Router02[]",
          "name": "",
          "type": "address[]"
        }
      ],
      "stateMutability": "view",
      "type": "function"
    },
    {
      "inputs": [
        {
          "internalType": "address",
          "name": "newOwner",
          "type": "address"
        }
      ],
      "name": "transferOwnership",
      "outputs": [],
      "stateMutability": "nonpayable",
      "type": "function"
    }
  ],
  "bytecode": "0x60a060405234801561001057600080fd5b50604051610d5f380380610d5f83398101604081905261002f91610090565b61003833610040565b6080526100a8565b600080546001600160a01b038381166001600160a01b0319831681178455604051919092169283917f8be0079c531659141344cd1fd0a4f28419497f9722a3daafe3b4186f6b6457e09190a35050565b6000602082840312156100a1578081fd5b5051919050565b608051610c966100c96000396000818160cd01526102a40152610c966000f3fe608060405234801561001057600080fd5b50600436106100885760003560e01c80638da5cb5b1161005b5780638da5cb5b146100f7578063aeb8fbf91461011c578063f2fde38b14610131578063f887ea401461014457600080fd5b80630ca279621461008d57806324ca984e146100b3578063313ce567146100c8578063715018a6146100ef575b600080fd5b6100a061009b366004610a87565b61014c565b6040519081526020015b60405180910390f35b6100c66100c13660046109ab565b61039a565b005b6100a07f000000000000000000000000000000000000000000000000000000000000000081565b6100c66104aa565b6000546001600160a01b03165b6040516001600160a01b0390911681526020016100aa565b6101246104e0565b6040516100aa9190610abf565b6100c661013f3660046109ab565b610542565b6101046105dd565b60408051600280825260608201835260009283929190602083019080368337019050509050838160008151811061019357634e487b7160e01b600052603260045260246000fd5b60200260200101906001600160a01b031690816001600160a01b03168152505082816001815181106101d557634e487b7160e01b600052603260045260246000fd5b6001600160a01b039092166020928302919091019091015260015460009067ffffffffffffffff81111561021957634e487b7160e01b600052604160045260246000fd5b604051908082528060200260200182016040528015610242578160200160208202803683370190505b50905060005b600154811015610387576001818154811061027357634e487b7160e01b600052603260045260246000fd5b60009182526020909120015460405163d06ca61f60e01b81526001600160a01b039091169063d06ca61f906102ce907f0000000000000000000000000000000000000000000000000000000000000000908790600401610b41565b60006040518083038186803b1580156102e657600080fd5b505afa1580156102fa573d6000803e3d6000fd5b505050506040513d6000823e601f3d908101601f1916820160405261032291908101906109c7565b60018151811061034257634e487b7160e01b600052603260045260246000fd5b602002602001015182828151811061036a57634e487b7160e01b600052603260045260246000fd5b60209081029190910101528061037f81610bda565b915050610248565b506103918161066c565b95945050505050565b6000546001600160a01b031633146103cd5760405162461bcd60e51b81526004016103c490610b0c565b60405180910390fd5b6001600160a01b03811660009081526002602052604090205460ff161515600114156104465760405162461bcd60e51b815260206004820152602260248201527f5468697320726f757465722068617320616c7265616479206265656e20616464604482015261195960f21b60648201526084016103c4565b6001805480820182557fb10e2d527612073b26eecdfd717e6a320cf44b4afac2b0732d9fcbe2b7fa0cf60180546001600160a01b039093166001600160a01b031990931683179055600091825260026020526040909120805460ff19169091179055565b6000546001600160a01b031633146104d45760405162461bcd60e51b81526004016103c490610b0c565b6104de600061075b565b565b6060600180548060200260200160405190810160405280929190818152602001828054801561053857602002820191906000526020600020905b81546001600160a01b0316815260019091019060200180831161051a575b5050505050905090565b6000546001600160a01b0316331461056c5760405162461bcd60e51b81526004016103c490610b0c565b6001600160a01b0381166105d15760405162461bcd60e51b815260206004820152602660248201527f4f776e61626c653a206e6577206f776e657220697320746865207a65726f206160448201526564647265737360d01b60648201526084016103c4565b6105da8161075b565b50565b600154600090819061062e903360405160609190911b6bffffffffffffffffffffffff1916602082015242603482015260540160408051601f198184030181529190528051602090910120906107ab565b90506001818154811061065157634e487b7160e01b600052603260045260246000fd5b6000918252602090912001546001600160a01b031692915050565b805160009061067a836107b7565b6106858160026107ab565b156106c15782610696826002610853565b815181106106b457634e487b7160e01b600052603260045260246000fd5b6020026020010151610754565b610754600261074e856106d48584610853565b815181106106f257634e487b7160e01b600052603260045260246000fd5b60200260200101518661071a600161071460028961085390919063ffffffff16565b9061085f565b8151811061073857634e487b7160e01b600052603260045260246000fd5b602002602001015161086b90919063ffffffff16565b90610853565b9392505050565b600080546001600160a01b038381166001600160a01b0319831681178455604051919092169283917f8be0079c531659141344cd1fd0a4f28419497f9722a3daafe3b4186f6b6457e09190a35050565b60006107548284610bf5565b60008151116108175760405162461bcd60e51b815260206004820152602660248201527f4c656e677468206f66206172726179206d75737420626520677265617465722060448201526507468616e20360d41b60648201526084016103c4565b60005b815181101561084f57600061082f8383610877565b905061083c838383610900565b508061084781610bda565b91505061081a565b5050565b60006107548284610baf565b60006107548284610bc3565b60006107548284610b97565b600060001982805b85518110156108f757828682815181106108a957634e487b7160e01b600052603260045260246000fd5b602002602001015110156108e5578581815181106108d757634e487b7160e01b600052603260045260246000fd5b602002602001015192508091505b806108ef81610bda565b91505061087f565b50949350505050565b82818151811061092057634e487b7160e01b600052603260045260246000fd5b602002602001015183838151811061094857634e487b7160e01b600052603260045260246000fd5b602002602001015184848151811061097057634e487b7160e01b600052603260045260246000fd5b6020026020010185848151811061099757634e487b7160e01b600052603260045260246000fd5b602090810291909101019190915252505050565b6000602082840312156109bc578081fd5b813561075481610c4b565b600060208083850312156109d9578182fd5b825167ffffffffffffffff808211156109f0578384fd5b818501915085601f830112610a03578384fd5b815181811115610a1557610a15610c35565b8060051b604051601f19603f83011681018181108582111715610a3a57610a3a610c35565b604052828152858101935084860182860187018a1015610a58578788fd5b8795505b83861015610a7a578051855260019590950194938601938601610a5c565b5098975050505050505050565b60008060408385031215610a99578081fd5b8235610aa481610c4b565b91506020830135610ab481610c4b565b809150509250929050565b6020808252825182820181905260009190848201906040850190845b81811015610b005783516001600160a01b031683529284019291840191600101610adb565b50909695505050505050565b6020808252818101527f4f776e61626c653a2063616c6c6572206973206e6f7420746865206f776e6572604082015260600190565b60006040820184835260206040818501528185518084526060860191508287019350845b81811015610b8a5784516001600160a01b031683529383019391830191600101610b65565b5090979650505050505050565b60008219821115610baa57610baa610c09565b500190565b600082610bbe57610bbe610c1f565b500490565b600082821015610bd557610bd5610c09565b500390565b6000600019821415610bee57610bee610c09565b5060010190565b600082610c0457610c04610c1f565b500690565b634e487b7160e01b600052601160045260246000fd5b634e487b7160e01b600052601260045260246000fd5b634e487b7160e01b600052604160045260246000fd5b6001600160a01b03811681146105da57600080fdfea2646970667358221220646b544d042114b07b47a0503a3293650ed48d850039d074f5b8f9405bbe7ebc64736f6c63430008040033",
  "linkReferences": {},
  "deployedLinkReferences": {}
}