{
  "_format": "hh-sol-artifact-1",
  "contractName": "Reserve",
  "sourceName": "contracts/Reserve/Reserve.sol",
  "abi": [
    {
      "inputs": [
        {
          "internalType": "contract Token",
          "name": "token_",
          "type": "address"
        },
        {
          "internalType": "contract Oracle",
          "name": "oracle_",
          "type": "address"
        }
      ],
      "stateMutability": "nonpayable",
      "type": "constructor"
    },
    {
      "anonymous": false,
      "inputs": [
        {
          "indexed": true,
          "internalType": "address",
          "name": "account",
          "type": "address"
        },
        {
          "indexed": false,
          "internalType": "contract IERC20",
          "name": "token",
          "type": "address"
        },
        {
          "indexed": false,
          "internalType": "uint256",
          "name": "amount",
          "type": "uint256"
        }
      ],
      "name": "ClaimYield",
      "type": "event"
    },
    {
      "anonymous": false,
      "inputs": [
        {
          "indexed": true,
          "internalType": "address",
          "name": "previousOwner",
          "type": "address"
        },
        {
          "indexed": true,
          "internalType": "address",
          "name": "newOwner",
          "type": "address"
        }
      ],
      "name": "OwnershipTransferred",
      "type": "event"
    },
    {
      "anonymous": false,
      "inputs": [
        {
          "indexed": true,
          "internalType": "address",
          "name": "account",
          "type": "address"
        },
        {
          "indexed": false,
          "internalType": "uint256",
          "name": "amount",
          "type": "uint256"
        },
        {
          "indexed": false,
          "internalType": "contract IERC20",
          "name": "redeemToken",
          "type": "address"
        },
        {
          "indexed": false,
          "internalType": "uint256",
          "name": "redeemValue",
          "type": "uint256"
        }
      ],
      "name": "Redeem",
      "type": "event"
    },
    {
      "anonymous": false,
      "inputs": [
        {
          "indexed": false,
          "internalType": "contract IERC20",
          "name": "token",
          "type": "address"
        },
        {
          "indexed": false,
          "internalType": "bool",
          "name": "approved",
          "type": "bool"
        }
      ],
      "name": "SetApproved",
      "type": "event"
    },
    {
      "anonymous": false,
      "inputs": [
        {
          "indexed": false,
          "internalType": "contract IERC20",
          "name": "token",
          "type": "address"
        },
        {
          "indexed": false,
          "internalType": "uint256",
          "name": "rateNumerator",
          "type": "uint256"
        },
        {
          "indexed": false,
          "internalType": "uint256",
          "name": "rateDenominator",
          "type": "uint256"
        }
      ],
      "name": "SetRate",
      "type": "event"
    },
    {
      "anonymous": false,
      "inputs": [
        {
          "indexed": true,
          "internalType": "address",
          "name": "account",
          "type": "address"
        },
        {
          "indexed": false,
          "internalType": "contract IERC20",
          "name": "token",
          "type": "address"
        },
        {
          "indexed": false,
          "internalType": "uint256",
          "name": "amount",
          "type": "uint256"
        }
      ],
      "name": "Stake",
      "type": "event"
    },
    {
      "anonymous": false,
      "inputs": [
        {
          "indexed": true,
          "internalType": "address",
          "name": "account",
          "type": "address"
        },
        {
          "indexed": false,
          "internalType": "contract IERC20",
          "name": "token",
          "type": "address"
        },
        {
          "indexed": false,
          "internalType": "uint256",
          "name": "amount",
          "type": "uint256"
        }
      ],
      "name": "Unstake",
      "type": "event"
    },
    {
      "inputs": [],
      "name": "backingPricePerAsset",
      "outputs": [
        {
          "internalType": "uint256",
          "name": "",
          "type": "uint256"
        },
        {
          "internalType": "uint256",
          "name": "",
          "type": "uint256"
        }
      ],
      "stateMutability": "view",
      "type": "function"
    },
    {
      "inputs": [
        {
          "internalType": "contract IERC20",
          "name": "token_",
          "type": "address"
        }
      ],
      "name": "claimYield",
      "outputs": [
        {
          "internalType": "uint256",
          "name": "",
          "type": "uint256"
        }
      ],
      "stateMutability": "nonpayable",
      "type": "function"
    },
    {
      "inputs": [
        {
          "internalType": "contract IERC20",
          "name": "token_",
          "type": "address"
        }
      ],
      "name": "getRate",
      "outputs": [
        {
          "internalType": "uint256",
          "name": "",
          "type": "uint256"
        },
        {
          "internalType": "uint256",
          "name": "",
          "type": "uint256"
        }
      ],
      "stateMutability": "view",
      "type": "function"
    },
    {
      "inputs": [
        {
          "internalType": "contract IERC20",
          "name": "token_",
          "type": "address"
        },
        {
          "internalType": "address",
          "name": "account_",
          "type": "address"
        }
      ],
      "name": "initialStakeBlock",
      "outputs": [
        {
          "internalType": "uint256",
          "name": "",
          "type": "uint256"
        }
      ],
      "stateMutability": "view",
      "type": "function"
    },
    {
      "inputs": [
        {
          "internalType": "contract IERC20",
          "name": "token_",
          "type": "address"
        }
      ],
      "name": "isApproved",
      "outputs": [
        {
          "internalType": "bool",
          "name": "",
          "type": "bool"
        }
      ],
      "stateMutability": "view",
      "type": "function"
    },
    {
      "inputs": [],
      "name": "oracle",
      "outputs": [
        {
          "internalType": "contract Oracle",
          "name": "",
          "type": "address"
        }
      ],
      "stateMutability": "view",
      "type": "function"
    },
    {
      "inputs": [
        {
          "internalType": "contract IERC20",
          "name": "token_",
          "type": "address"
        },
        {
          "internalType": "address",
          "name": "account_",
          "type": "address"
        }
      ],
      "name": "owedBalance",
      "outputs": [
        {
          "internalType": "uint256",
          "name": "",
          "type": "uint256"
        }
      ],
      "stateMutability": "view",
      "type": "function"
    },
    {
      "inputs": [],
      "name": "owner",
      "outputs": [
        {
          "internalType": "address",
          "name": "",
          "type": "address"
        }
      ],
      "stateMutability": "view",
      "type": "function"
    },
    {
      "inputs": [
        {
          "internalType": "uint256",
          "name": "amount_",
          "type": "uint256"
        },
        {
          "internalType": "contract IERC20",
          "name": "token_",
          "type": "address"
        }
      ],
      "name": "redeem",
      "outputs": [
        {
          "internalType": "uint256",
          "name": "",
          "type": "uint256"
        }
      ],
      "stateMutability": "nonpayable",
      "type": "function"
    },
    {
      "inputs": [
        {
          "internalType": "uint256",
          "name": "amount_",
          "type": "uint256"
        },
        {
          "internalType": "contract IERC20",
          "name": "token_",
          "type": "address"
        }
      ],
      "name": "redeemValue",
      "outputs": [
        {
          "internalType": "uint256",
          "name": "",
          "type": "uint256"
        }
      ],
      "stateMutability": "view",
      "type": "function"
    },
    {
      "inputs": [],
      "name": "renounceOwnership",
      "outputs": [],
      "stateMutability": "nonpayable",
      "type": "function"
    },
    {
      "inputs": [
        {
          "internalType": "contract IERC20[]",
          "name": "token_",
          "type": "address[]"
        },
        {
          "internalType": "bool[]",
          "name": "approved_",
          "type": "bool[]"
        }
      ],
      "name": "setApproved",
      "outputs": [],
      "stateMutability": "nonpayable",
      "type": "function"
    },
    {
      "inputs": [
        {
          "internalType": "contract Oracle",
          "name": "oracle_",
          "type": "address"
        }
      ],
      "name": "setOracle",
      "outputs": [],
      "stateMutability": "nonpayable",
      "type": "function"
    },
    {
      "inputs": [
        {
          "internalType": "contract IERC20[]",
          "name": "token_",
          "type": "address[]"
        },
        {
          "internalType": "uint256[]",
          "name": "rateNumerator_",
          "type": "uint256[]"
        },
        {
          "internalType": "uint256[]",
          "name": "rateDenominator_",
          "type": "uint256[]"
        }
      ],
      "name": "setRates",
      "outputs": [],
      "stateMutability": "nonpayable",
      "type": "function"
    },
    {
      "inputs": [
        {
          "internalType": "contract Token",
          "name": "token_",
          "type": "address"
        }
      ],
      "name": "setToken",
      "outputs": [],
      "stateMutability": "nonpayable",
      "type": "function"
    },
    {
      "inputs": [
        {
          "internalType": "contract IERC20",
          "name": "token_",
          "type": "address"
        },
        {
          "internalType": "uint256",
          "name": "amount_",
          "type": "uint256"
        }
      ],
      "name": "stake",
      "outputs": [],
      "stateMutability": "nonpayable",
      "type": "function"
    },
    {
      "inputs": [
        {
          "internalType": "contract IERC20",
          "name": "token_",
          "type": "address"
        },
        {
          "internalType": "address",
          "name": "account_",
          "type": "address"
        }
      ],
      "name": "staked",
      "outputs": [
        {
          "internalType": "uint256",
          "name": "",
          "type": "uint256"
        }
      ],
      "stateMutability": "view",
      "type": "function"
    },
    {
      "inputs": [],
      "name": "token",
      "outputs": [
        {
          "internalType": "contract Token",
          "name": "",
          "type": "address"
        }
      ],
      "stateMutability": "view",
      "type": "function"
    },
    {
      "inputs": [],
      "name": "totalPrice",
      "outputs": [
        {
          "internalType": "uint256",
          "name": "",
          "type": "uint256"
        }
      ],
      "stateMutability": "view",
      "type": "function"
    },
    {
      "inputs": [
        {
          "internalType": "contract IERC20",
          "name": "token_",
          "type": "address"
        }
      ],
      "name": "totalReserve",
      "outputs": [
        {
          "internalType": "uint256",
          "name": "",
          "type": "uint256"
        }
      ],
      "stateMutability": "view",
      "type": "function"
    },
    {
      "inputs": [
        {
          "internalType": "contract IERC20",
          "name": "token_",
          "type": "address"
        }
      ],
      "name": "totalStaked",
      "outputs": [
        {
          "internalType": "uint256",
          "name": "",
          "type": "uint256"
        }
      ],
      "stateMutability": "view",
      "type": "function"
    },
    {
      "inputs": [
        {
          "internalType": "address",
          "name": "newOwner",
          "type": "address"
        }
      ],
      "name": "transferOwnership",
      "outputs": [],
      "stateMutability": "nonpayable",
      "type": "function"
    },
    {
      "inputs": [
        {
          "internalType": "contract IERC20",
          "name": "token_",
          "type": "address"
        },
        {
          "internalType": "uint256",
          "name": "amount_",
          "type": "uint256"
        }
      ],
      "name": "unstake",
      "outputs": [],
      "stateMutability": "nonpayable",
      "type": "function"
    }
  ],
  "bytecode": "0x60806040523480156200001157600080fd5b5060405162001f0d38038062001f0d8339810160408190526200003491620000c6565b8181620000413362000076565b600180546001600160a01b039384166001600160a01b03199182161790915560028054929093169116179055506200011d9050565b600080546001600160a01b038381166001600160a01b0319831681178455604051919092169283917f8be0079c531659141344cd1fd0a4f28419497f9722a3daafe3b4186f6b6457e09190a35050565b60008060408385031215620000d9578182fd5b8251620000e68162000104565b6020840151909250620000f98162000104565b809150509250929050565b6001600160a01b03811681146200011a57600080fd5b50565b611de0806200012d6000396000f3fe608060405234801561001057600080fd5b506004361061014d5760003560e01c8063999927df116100c3578063c6d3afc91161007c578063c6d3afc914610336578063d28d244c1461036f578063e472d74414610382578063f0150d1114610395578063f2fde38b146103a8578063fc0c546a146103bb57600080fd5b8063999927df146102905780639bfd8d61146102a3578063a23edbea146102cc578063ab0d92dd14610308578063adc9772e14610310578063c2a672e01461032357600080fd5b8063673448dd11610115578063673448dd14610203578063715018a6146102265780637adbf9731461022e5780637bde82f2146102415780637dc0d1d0146102545780638da5cb5b1461027f57600080fd5b8063144fa6d7146101525780632ed759e01461016757806337cef7911461017a5780634e7e36e2146101da578063603742d9146101fb575b600080fd5b6101656101603660046119ad565b6103ce565b005b610165610175366004611a8e565b610423565b6101c06101883660046119ad565b6001600160a01b0316600090815260076020908152604091829020825180840190935280548084526001909101549290910182905291565b604080519283526020830191909152015b60405180910390f35b6101ed6101e83660046119ad565b61062a565b6040519081526020016101d1565b6101c06106d6565b6102166102113660046119ad565b61076f565b60405190151581526020016101d1565b610165610782565b61016561023c3660046119ad565b6107b8565b6101ed61024f366004611ba9565b610804565b600254610267906001600160a01b031681565b6040516001600160a01b0390911681526020016101d1565b6000546001600160a01b0316610267565b6101ed61029e3660046119ad565b610943565b6101ed6102b13660046119ad565b6001600160a01b031660009081526006602052604090205490565b6101ed6102da366004611b2e565b6001600160a01b03918216600090815260056020908152604080832093909416825291909152206001015490565b6101ed610a56565b61016561031e366004611b66565b610b86565b610165610331366004611b66565b610c1f565b6101ed610344366004611b2e565b6001600160a01b03918216600090815260056020908152604080832093909416825291909152205490565b6101ed61037d366004611b2e565b610d0f565b6101656103903660046119c9565b610d6d565b6101ed6103a3366004611ba9565b61102e565b6101656103b63660046119ad565b611170565b600154610267906001600160a01b031681565b6000546001600160a01b031633146104015760405162461bcd60e51b81526004016103f890611c1c565b60405180910390fd5b600180546001600160a01b0319166001600160a01b0392909216919091179055565b6000546001600160a01b0316331461044d5760405162461bcd60e51b81526004016103f890611c1c565b60005b83518110156106245782818151811061047957634e487b7160e01b600052603260045260246000fd5b6020026020010151600760008684815181106104a557634e487b7160e01b600052603260045260246000fd5b60200260200101516001600160a01b03166001600160a01b03168152602001908152602001600020600001819055508181815181106104f457634e487b7160e01b600052603260045260246000fd5b60200260200101516007600086848151811061052057634e487b7160e01b600052603260045260246000fd5b60200260200101516001600160a01b03166001600160a01b03168152602001908152602001600020600101819055507f9002403f1fb7daf8ef984c2925644987f2198485d18e7818fe275bf93244314e84828151811061059057634e487b7160e01b600052603260045260246000fd5b60200260200101518483815181106105b857634e487b7160e01b600052603260045260246000fd5b60200260200101518484815181106105e057634e487b7160e01b600052603260045260246000fd5b602090810291909101810151604080516001600160a01b0390951685529184019290925282015260600160405180910390a18061061c81611d40565b915050610450565b50505050565b6001600160a01b03811660009081526006602052604081205481906040516370a0823160e01b81523060048201529091506000906106ce9083906001600160a01b038716906370a082319060240160206040518083038186803b15801561069057600080fd5b505afa1580156106a4573d6000803e3d6000fd5b505050506040513d601f19601f820116820180604052508101906106c89190611b91565b9061120b565b949350505050565b600080600160009054906101000a90046001600160a01b03166001600160a01b03166318160ddd6040518163ffffffff1660e01b815260040160206040518083038186803b15801561072757600080fd5b505afa15801561073b573d6000803e3d6000fd5b505050506040513d601f19601f8201168201806040525081019061075f9190611b91565b610767610a56565b915091509091565b600061077c60038361121e565b92915050565b6000546001600160a01b031633146107ac5760405162461bcd60e51b81526004016103f890611c1c565b6107b6600061128d565b565b6000546001600160a01b031633146107e25760405162461bcd60e51b81526004016103f890611c1c565b600280546001600160a01b0319166001600160a01b0392909216919091179055565b6000816108108161076f565b61085c5760405162461bcd60e51b815260206004820181905260248201527f4f6e6c7920617070726f76656420746f6b656e73206d6179206265207573656460448201526064016103f8565b6001546001600160a01b0316639dc29fac336040516001600160e01b031960e084901b1681526001600160a01b03909116600482015260248101879052604401600060405180830381600087803b1580156108b657600080fd5b505af11580156108ca573d6000803e3d6000fd5b5050505060006108da858561102e565b90506108f06001600160a01b03851633836112dd565b604080518681526001600160a01b0386166020820152808201839052905133917f5268f300fa85aecf81f5f7e646f56b851cb0527fe7521d2a859f71eb1f3483fd919081900360600190a2949350505050565b6000806109508333610d0f565b6001549091506001600160a01b03166340c10f19336040516001600160e01b031960e084901b1681526001600160a01b03909116600482015260248101849052604401600060405180830381600087803b1580156109ad57600080fd5b505af11580156109c1573d6000803e3d6000fd5b50505050610a028360006109d23390565b6001600160a01b039283166000908152600560209081526040808320939095168252919091529190912060020155565b610a0d834333611340565b604080516001600160a01b038516815260208101839052815133927f497d80235eb5f8a92716d1e222145fe1ca6c1a328bec04ae59e6bef77da1aace928290030190a292915050565b60008080610a62611370565b905060005b8151811015610b7e5760025482516000916001600160a01b03169063ad9b802490859085908110610aa857634e487b7160e01b600052603260045260246000fd5b6020026020010151610ae0868681518110610ad357634e487b7160e01b600052603260045260246000fd5b602002602001015161062a565b6040516001600160e01b031960e085901b1681526001600160a01b039092166004830152602482015260440160206040518083038186803b158015610b2457600080fd5b505afa158015610b38573d6000803e3d6000fd5b505050506040513d601f19601f82011682018060405250810190610b5c9190611b91565b9050610b688482611381565b9350508080610b7690611d40565b915050610a67565b509092915050565b610b9a82610b948133610d0f565b336109d2565b610ba5824333611340565b610bba6001600160a01b03831633308461138d565b610bd882610bd283610bcc8333610344565b90611381565b336113c5565b604080516001600160a01b038416815260208101839052815133927f99039fcf0a98f484616c5196ee8b2ecfa971babf0b519848289ea4db381f85f7928290030190a25050565b6000610c2b8333610344565b905080821115610c8c5760405162461bcd60e51b815260206004820152602660248201527f43616e6e6f7420756e7374616b65206d6f7265207468616e20616d6f756e74206044820152651cdd185ad95960d21b60648201526084016103f8565b610ca06001600160a01b03841633846112dd565b610cae83610b948133610d0f565b610cb9834333611340565b610cc783610bd2838561120b565b604080516001600160a01b038516815260208101849052815133927f390b1276974b9463e5d66ab10df69b6f3d7b930eb066a0e66df327edd2cc811c928290030190a2505050565b6001600160a01b038281166000908152600560209081526040808320938516835292905290812060028101546001909101548290610d58908690610d538888610344565b61142b565b9050610d648282611381565b95945050505050565b6000546001600160a01b03163314610d975760405162461bcd60e51b81526004016103f890611c1c565b60005b825181101561102957818181518110610dc357634e487b7160e01b600052603260045260246000fd5b60200260200101518015610e045750610e02838281518110610df557634e487b7160e01b600052603260045260246000fd5b602002602001015161076f565b155b15610ee657610e44838281518110610e2c57634e487b7160e01b600052603260045260246000fd5b6020026020010151600361147b90919063ffffffff16565b7fd984ea421ae5d2a473199f85e03998a04a12f54d6f1fa183a955b3df1c0c546d838281518110610e8557634e487b7160e01b600052603260045260246000fd5b6020026020010151838381518110610ead57634e487b7160e01b600052603260045260246000fd5b6020026020010151604051610ed99291906001600160a01b039290921682521515602082015260400190565b60405180910390a1611017565b818181518110610f0657634e487b7160e01b600052603260045260246000fd5b6020026020010151158015610f395750610f39838281518110610df557634e487b7160e01b600052603260045260246000fd5b1561101757610f79838281518110610f6157634e487b7160e01b600052603260045260246000fd5b6020026020010151600361152a90919063ffffffff16565b7fd984ea421ae5d2a473199f85e03998a04a12f54d6f1fa183a955b3df1c0c546d838281518110610fba57634e487b7160e01b600052603260045260246000fd5b6020026020010151838381518110610fe257634e487b7160e01b600052603260045260246000fd5b602002602001015160405161100e9291906001600160a01b039290921682521515602082015260400190565b60405180910390a15b8061102181611d40565b915050610d9a565b505050565b600080611039610a56565b90506000600160009054906101000a90046001600160a01b03166001600160a01b03166318160ddd6040518163ffffffff1660e01b815260040160206040518083038186803b15801561108b57600080fd5b505afa15801561109f573d6000803e3d6000fd5b505050506040513d601f19601f820116820180604052508101906110c39190611b91565b905060006110db826110d5888661168d565b90611699565b6002546040516305f0015560e11b81526001600160a01b0388811660048301526024820184905292935060009290911690630be002aa9060440160206040518083038186803b15801561112d57600080fd5b505afa158015611141573d6000803e3d6000fd5b505050506040513d601f19601f820116820180604052508101906111659190611b91565b979650505050505050565b6000546001600160a01b0316331461119a5760405162461bcd60e51b81526004016103f890611c1c565b6001600160a01b0381166111ff5760405162461bcd60e51b815260206004820152602660248201527f4f776e61626c653a206e6577206f776e657220697320746865207a65726f206160448201526564647265737360d01b60648201526084016103f8565b6112088161128d565b50565b60006112178284611cfd565b9392505050565b60018201546000906112325750600061077c565b6001600160a01b038216600081815260208590526040902054600185018054909190811061127057634e487b7160e01b600052603260045260246000fd5b6000918252602090912001546001600160a01b0316149392505050565b600080546001600160a01b038381166001600160a01b0319831681178455604051919092169283917f8be0079c531659141344cd1fd0a4f28419497f9722a3daafe3b4186f6b6457e09190a35050565b6040516001600160a01b03831660248201526044810182905261102990849063a9059cbb60e01b906064015b60408051601f198184030181529190526020810180516001600160e01b03166001600160e01b0319909316929092179091526116a5565b6001600160a01b039283166000908152600560209081526040808320939095168252919091529190912060010155565b606061137c6003611777565b905090565b60006112178284611ca6565b6040516001600160a01b03808516602483015283166044820152606481018290526106249085906323b872dd60e01b90608401611309565b6001600160a01b03808416600081815260056020908152604080832094861683529381528382208054938352600690915292902054611409918591610bcc9161120b565b6001600160a01b03909416600090815260066020526040902093909355509055565b6001600160a01b0383166000908152600760209081526040808320815180830190925280548083526001909101549282018390529091610d64916110d5906114758781438b61120b565b9061168d565b611485828261121e565b156114d25760405162461bcd60e51b815260206004820181905260248201527f546f6b656e20616c72656164792065786973747320696e20746865207365742e60448201526064016103f8565b6001828101805480830182556000828152602090200180546001600160a01b0319166001600160a01b0385161790555461150c9190611cfd565b6001600160a01b039091166000908152602092909252604090912055565b611534828261121e565b6115805760405162461bcd60e51b815260206004820181905260248201527f546f6b656e20646f6573206e6f7420657869737420696e20746865207365742e60448201526064016103f8565b6001828101805460009261159391611cfd565b815481106115b157634e487b7160e01b600052603260045260246000fd5b60009182526020808320909101546001600160a01b0385811684529186905260408084205492909116808452922081905560018501805492935090918391908390811061160e57634e487b7160e01b600052603260045260246000fd5b600091825260208083209190910180546001600160a01b0319166001600160a01b0394851617905591851681529085905260408120556001840180548061166557634e487b7160e01b600052603160045260246000fd5b600082815260209020810160001990810180546001600160a01b031916905501905550505050565b60006112178284611cde565b60006112178284611cbe565b60006116fa826040518060400160405280602081526020017f5361666545524332303a206c6f772d6c6576656c2063616c6c206661696c6564815250856001600160a01b03166117dd9092919063ffffffff16565b80519091501561102957808060200190518101906117189190611b12565b6110295760405162461bcd60e51b815260206004820152602a60248201527f5361666545524332303a204552433230206f7065726174696f6e20646964206e6044820152691bdd081cdd58d8d9595960b21b60648201526084016103f8565b6060816001018054806020026020016040519081016040528092919081815260200182805480156117d157602002820191906000526020600020905b81546001600160a01b031681526001909101906020018083116117b3575b50505050509050919050565b60606106ce848460008585843b6118365760405162461bcd60e51b815260206004820152601d60248201527f416464726573733a2063616c6c20746f206e6f6e2d636f6e747261637400000060448201526064016103f8565b600080866001600160a01b031685876040516118529190611bcd565b60006040518083038185875af1925050503d806000811461188f576040519150601f19603f3d011682016040523d82523d6000602084013e611894565b606091505b5091509150611165828286606083156118ae575081611217565b8251156118be5782518084602001fd5b8160405162461bcd60e51b81526004016103f89190611be9565b600082601f8301126118e8578081fd5b813560206118fd6118f883611c82565b611c51565b80838252828201915082860187848660051b890101111561191c578586fd5b855b8581101561194357813561193181611d87565b8452928401929084019060010161191e565b5090979650505050505050565b600082601f830112611960578081fd5b813560206119706118f883611c82565b80838252828201915082860187848660051b890101111561198f578586fd5b855b8581101561194357813584529284019290840190600101611991565b6000602082840312156119be578081fd5b813561121781611d87565b600080604083850312156119db578081fd5b823567ffffffffffffffff808211156119f2578283fd5b6119fe868387016118d8565b9350602091508185013581811115611a14578384fd5b85019050601f81018613611a26578283fd5b8035611a346118f882611c82565b80828252848201915084840189868560051b8701011115611a53578687fd5b8694505b83851015611a7e578035611a6a81611d9c565b835260019490940193918501918501611a57565b5080955050505050509250929050565b600080600060608486031215611aa2578081fd5b833567ffffffffffffffff80821115611ab9578283fd5b611ac5878388016118d8565b94506020860135915080821115611ada578283fd5b611ae687838801611950565b93506040860135915080821115611afb578283fd5b50611b0886828701611950565b9150509250925092565b600060208284031215611b23578081fd5b815161121781611d9c565b60008060408385031215611b40578182fd5b8235611b4b81611d87565b91506020830135611b5b81611d87565b809150509250929050565b60008060408385031215611b78578182fd5b8235611b8381611d87565b946020939093013593505050565b600060208284031215611ba2578081fd5b5051919050565b60008060408385031215611bbb578081fd5b823591506020830135611b5b81611d87565b60008251611bdf818460208701611d14565b9190910192915050565b6020815260008251806020840152611c08816040850160208701611d14565b601f01601f19169190910160400192915050565b6020808252818101527f4f776e61626c653a2063616c6c6572206973206e6f7420746865206f776e6572604082015260600190565b604051601f8201601f1916810167ffffffffffffffff81118282101715611c7a57611c7a611d71565b604052919050565b600067ffffffffffffffff821115611c9c57611c9c611d71565b5060051b60200190565b60008219821115611cb957611cb9611d5b565b500190565b600082611cd957634e487b7160e01b81526012600452602481fd5b500490565b6000816000190483118215151615611cf857611cf8611d5b565b500290565b600082821015611d0f57611d0f611d5b565b500390565b60005b83811015611d2f578181015183820152602001611d17565b838111156106245750506000910152565b6000600019821415611d5457611d54611d5b565b5060010190565b634e487b7160e01b600052601160045260246000fd5b634e487b7160e01b600052604160045260246000fd5b6001600160a01b038116811461120857600080fd5b801515811461120857600080fdfea26469706673582212202be49f19516b7cdbfc5248aadd7cde438fbbeebda051997c48021388097323c164736f6c63430008040033",
  "linkReferences": {},
  "deployedLinkReferences": {}
}