{
  "_format": "hh-sol-artifact-1",
  "contractName": "Reserve",
  "sourceName": "contracts/Reserve/Reserve.sol",
  "abi": [
    {
      "inputs": [
        {
          "internalType": "contract Token",
          "name": "token_",
          "type": "address"
        },
        {
          "internalType": "contract Oracle",
          "name": "oracle_",
          "type": "address"
        }
      ],
      "stateMutability": "nonpayable",
      "type": "constructor"
    },
    {
      "anonymous": false,
      "inputs": [
        {
          "indexed": true,
          "internalType": "address",
          "name": "account",
          "type": "address"
        },
        {
          "indexed": false,
          "internalType": "contract IERC20",
          "name": "token",
          "type": "address"
        },
        {
          "indexed": false,
          "internalType": "uint256",
          "name": "amount",
          "type": "uint256"
        }
      ],
      "name": "ClaimYield",
      "type": "event"
    },
    {
      "anonymous": false,
      "inputs": [
        {
          "indexed": true,
          "internalType": "address",
          "name": "previousOwner",
          "type": "address"
        },
        {
          "indexed": true,
          "internalType": "address",
          "name": "newOwner",
          "type": "address"
        }
      ],
      "name": "OwnershipTransferred",
      "type": "event"
    },
    {
      "anonymous": false,
      "inputs": [
        {
          "indexed": true,
          "internalType": "address",
          "name": "account",
          "type": "address"
        },
        {
          "indexed": false,
          "internalType": "uint256",
          "name": "amount",
          "type": "uint256"
        },
        {
          "indexed": false,
          "internalType": "contract IERC20",
          "name": "redeemToken",
          "type": "address"
        },
        {
          "indexed": false,
          "internalType": "uint256",
          "name": "redeemValue",
          "type": "uint256"
        }
      ],
      "name": "Redeem",
      "type": "event"
    },
    {
      "anonymous": false,
      "inputs": [
        {
          "indexed": false,
          "internalType": "contract IERC20",
          "name": "token",
          "type": "address"
        },
        {
          "indexed": false,
          "internalType": "bool",
          "name": "approved",
          "type": "bool"
        }
      ],
      "name": "SetApproved",
      "type": "event"
    },
    {
      "anonymous": false,
      "inputs": [
        {
          "indexed": false,
          "internalType": "contract IERC20",
          "name": "token",
          "type": "address"
        },
        {
          "indexed": false,
          "internalType": "uint256",
          "name": "rateNumerator",
          "type": "uint256"
        },
        {
          "indexed": false,
          "internalType": "uint256",
          "name": "rateDenominator",
          "type": "uint256"
        }
      ],
      "name": "SetRate",
      "type": "event"
    },
    {
      "anonymous": false,
      "inputs": [
        {
          "indexed": true,
          "internalType": "address",
          "name": "account",
          "type": "address"
        },
        {
          "indexed": false,
          "internalType": "contract IERC20",
          "name": "token",
          "type": "address"
        },
        {
          "indexed": false,
          "internalType": "uint256",
          "name": "amount",
          "type": "uint256"
        }
      ],
      "name": "Stake",
      "type": "event"
    },
    {
      "anonymous": false,
      "inputs": [
        {
          "indexed": true,
          "internalType": "address",
          "name": "account",
          "type": "address"
        },
        {
          "indexed": false,
          "internalType": "contract IERC20",
          "name": "token",
          "type": "address"
        },
        {
          "indexed": false,
          "internalType": "uint256",
          "name": "amount",
          "type": "uint256"
        }
      ],
      "name": "Unstake",
      "type": "event"
    },
    {
      "inputs": [
        {
          "internalType": "contract IERC20",
          "name": "token_",
          "type": "address"
        }
      ],
      "name": "claimYield",
      "outputs": [
        {
          "internalType": "uint256",
          "name": "",
          "type": "uint256"
        }
      ],
      "stateMutability": "nonpayable",
      "type": "function"
    },
    {
      "inputs": [
        {
          "internalType": "contract IERC20",
          "name": "token_",
          "type": "address"
        }
      ],
      "name": "getRate",
      "outputs": [
        {
          "internalType": "uint256",
          "name": "",
          "type": "uint256"
        },
        {
          "internalType": "uint256",
          "name": "",
          "type": "uint256"
        }
      ],
      "stateMutability": "view",
      "type": "function"
    },
    {
      "inputs": [
        {
          "internalType": "contract IERC20",
          "name": "token_",
          "type": "address"
        },
        {
          "internalType": "address",
          "name": "account_",
          "type": "address"
        }
      ],
      "name": "initialStakeBlock",
      "outputs": [
        {
          "internalType": "uint256",
          "name": "",
          "type": "uint256"
        }
      ],
      "stateMutability": "view",
      "type": "function"
    },
    {
      "inputs": [
        {
          "internalType": "contract IERC20",
          "name": "token_",
          "type": "address"
        }
      ],
      "name": "isApproved",
      "outputs": [
        {
          "internalType": "bool",
          "name": "",
          "type": "bool"
        }
      ],
      "stateMutability": "view",
      "type": "function"
    },
    {
      "inputs": [],
      "name": "oracle",
      "outputs": [
        {
          "internalType": "contract Oracle",
          "name": "",
          "type": "address"
        }
      ],
      "stateMutability": "view",
      "type": "function"
    },
    {
      "inputs": [
        {
          "internalType": "contract IERC20",
          "name": "token_",
          "type": "address"
        },
        {
          "internalType": "address",
          "name": "account_",
          "type": "address"
        }
      ],
      "name": "owedBalance",
      "outputs": [
        {
          "internalType": "uint256",
          "name": "",
          "type": "uint256"
        }
      ],
      "stateMutability": "view",
      "type": "function"
    },
    {
      "inputs": [],
      "name": "owner",
      "outputs": [
        {
          "internalType": "address",
          "name": "",
          "type": "address"
        }
      ],
      "stateMutability": "view",
      "type": "function"
    },
    {
      "inputs": [
        {
          "internalType": "uint256",
          "name": "amount_",
          "type": "uint256"
        },
        {
          "internalType": "contract IERC20",
          "name": "token_",
          "type": "address"
        }
      ],
      "name": "redeem",
      "outputs": [
        {
          "internalType": "uint256",
          "name": "",
          "type": "uint256"
        }
      ],
      "stateMutability": "nonpayable",
      "type": "function"
    },
    {
      "inputs": [
        {
          "internalType": "uint256",
          "name": "amount_",
          "type": "uint256"
        },
        {
          "internalType": "contract IERC20",
          "name": "token_",
          "type": "address"
        }
      ],
      "name": "redeemValue",
      "outputs": [
        {
          "internalType": "uint256",
          "name": "",
          "type": "uint256"
        }
      ],
      "stateMutability": "view",
      "type": "function"
    },
    {
      "inputs": [],
      "name": "renounceOwnership",
      "outputs": [],
      "stateMutability": "nonpayable",
      "type": "function"
    },
    {
      "inputs": [
        {
          "internalType": "contract IERC20[]",
          "name": "token_",
          "type": "address[]"
        },
        {
          "internalType": "bool[]",
          "name": "approved_",
          "type": "bool[]"
        }
      ],
      "name": "setApproved",
      "outputs": [],
      "stateMutability": "nonpayable",
      "type": "function"
    },
    {
      "inputs": [
        {
          "internalType": "contract Oracle",
          "name": "oracle_",
          "type": "address"
        }
      ],
      "name": "setOracle",
      "outputs": [],
      "stateMutability": "nonpayable",
      "type": "function"
    },
    {
      "inputs": [
        {
          "internalType": "contract IERC20[]",
          "name": "token_",
          "type": "address[]"
        },
        {
          "internalType": "uint256[]",
          "name": "rateNumerator_",
          "type": "uint256[]"
        },
        {
          "internalType": "uint256[]",
          "name": "rateDenominator_",
          "type": "uint256[]"
        }
      ],
      "name": "setRates",
      "outputs": [],
      "stateMutability": "nonpayable",
      "type": "function"
    },
    {
      "inputs": [
        {
          "internalType": "contract Token",
          "name": "token_",
          "type": "address"
        }
      ],
      "name": "setToken",
      "outputs": [],
      "stateMutability": "nonpayable",
      "type": "function"
    },
    {
      "inputs": [
        {
          "internalType": "contract IERC20",
          "name": "token_",
          "type": "address"
        },
        {
          "internalType": "uint256",
          "name": "amount_",
          "type": "uint256"
        }
      ],
      "name": "stake",
      "outputs": [],
      "stateMutability": "nonpayable",
      "type": "function"
    },
    {
      "inputs": [
        {
          "internalType": "contract IERC20",
          "name": "token_",
          "type": "address"
        },
        {
          "internalType": "address",
          "name": "account_",
          "type": "address"
        }
      ],
      "name": "staked",
      "outputs": [
        {
          "internalType": "uint256",
          "name": "",
          "type": "uint256"
        }
      ],
      "stateMutability": "view",
      "type": "function"
    },
    {
      "inputs": [],
      "name": "token",
      "outputs": [
        {
          "internalType": "contract Token",
          "name": "",
          "type": "address"
        }
      ],
      "stateMutability": "view",
      "type": "function"
    },
    {
      "inputs": [],
      "name": "totalPrice",
      "outputs": [
        {
          "internalType": "uint256",
          "name": "",
          "type": "uint256"
        }
      ],
      "stateMutability": "view",
      "type": "function"
    },
    {
      "inputs": [
        {
          "internalType": "contract IERC20",
          "name": "token_",
          "type": "address"
        }
      ],
      "name": "totalStaked",
      "outputs": [
        {
          "internalType": "uint256",
          "name": "",
          "type": "uint256"
        }
      ],
      "stateMutability": "view",
      "type": "function"
    },
    {
      "inputs": [
        {
          "internalType": "address",
          "name": "newOwner",
          "type": "address"
        }
      ],
      "name": "transferOwnership",
      "outputs": [],
      "stateMutability": "nonpayable",
      "type": "function"
    },
    {
      "inputs": [
        {
          "internalType": "contract IERC20",
          "name": "token_",
          "type": "address"
        },
        {
          "internalType": "uint256",
          "name": "amount_",
          "type": "uint256"
        }
      ],
      "name": "unstake",
      "outputs": [],
      "stateMutability": "nonpayable",
      "type": "function"
    }
  ],
  "bytecode": "0x60806040523480156200001157600080fd5b5060405162001e7738038062001e778339810160408190526200003491620000c6565b8181620000413362000076565b600180546001600160a01b039384166001600160a01b03199182161790915560028054929093169116179055506200011d9050565b600080546001600160a01b038381166001600160a01b0319831681178455604051919092169283917f8be0079c531659141344cd1fd0a4f28419497f9722a3daafe3b4186f6b6457e09190a35050565b60008060408385031215620000d9578182fd5b8251620000e68162000104565b6020840151909250620000f98162000104565b809150509250929050565b6001600160a01b03811681146200011a57600080fd5b50565b611d4a806200012d6000396000f3fe608060405234801561001057600080fd5b50600436106101375760003560e01c80639bfd8d61116100b8578063c6d3afc91161007c578063c6d3afc914610305578063d28d244c1461033e578063e472d74414610351578063f0150d1114610364578063f2fde38b14610377578063fc0c546a1461038a57600080fd5b80639bfd8d6114610272578063a23edbea1461029b578063ab0d92dd146102d7578063adc9772e146102df578063c2a672e0146102f257600080fd5b80637adbf973116100ff5780637adbf973146101ef5780637bde82f2146102025780637dc0d1d0146102235780638da5cb5b1461024e578063999927df1461025f57600080fd5b8063144fa6d71461013c5780632ed759e01461015157806337cef79114610164578063673448dd146101c4578063715018a6146101e7575b600080fd5b61014f61014a366004611917565b61039d565b005b61014f61015f3660046119f8565b6103f2565b6101aa610172366004611917565b6001600160a01b0316600090815260056020908152604091829020825180840190935280548084526001909101549290910182905291565b604080519283526020830191909152015b60405180910390f35b6101d76101d2366004611917565b6105f9565b60405190151581526020016101bb565b61014f61060c565b61014f6101fd366004611917565b610642565b610215610210366004611b13565b61068e565b6040519081526020016101bb565b600254610236906001600160a01b031681565b6040516001600160a01b0390911681526020016101bb565b6000546001600160a01b0316610236565b61021561026d366004611917565b6107cd565b610215610280366004611917565b6001600160a01b031660009081526004602052604090205490565b6102156102a9366004611a98565b6001600160a01b03918216600090815260036020908152604080832093909416825291909152206001015490565b6102156108e0565b61014f6102ed366004611ad0565b610a83565b61014f610300366004611ad0565b610b1c565b610215610313366004611a98565b6001600160a01b03918216600090815260036020908152604080832093909416825291909152205490565b61021561034c366004611a98565b610c0c565b61014f61035f366004611933565b610c6a565b610215610372366004611b13565b610f2b565b61014f610385366004611917565b61106d565b600154610236906001600160a01b031681565b6000546001600160a01b031633146103d05760405162461bcd60e51b81526004016103c790611b86565b60405180910390fd5b600180546001600160a01b0319166001600160a01b0392909216919091179055565b6000546001600160a01b0316331461041c5760405162461bcd60e51b81526004016103c790611b86565b60005b83518110156105f35782818151811061044857634e487b7160e01b600052603260045260246000fd5b60200260200101516005600086848151811061047457634e487b7160e01b600052603260045260246000fd5b60200260200101516001600160a01b03166001600160a01b03168152602001908152602001600020600001819055508181815181106104c357634e487b7160e01b600052603260045260246000fd5b6020026020010151600560008684815181106104ef57634e487b7160e01b600052603260045260246000fd5b60200260200101516001600160a01b03166001600160a01b03168152602001908152602001600020600101819055507f9002403f1fb7daf8ef984c2925644987f2198485d18e7818fe275bf93244314e84828151811061055f57634e487b7160e01b600052603260045260246000fd5b602002602001015184838151811061058757634e487b7160e01b600052603260045260246000fd5b60200260200101518484815181106105af57634e487b7160e01b600052603260045260246000fd5b602090810291909101810151604080516001600160a01b0390951685529184019290925282015260600160405180910390a1806105eb81611caa565b91505061041f565b50505050565b6000610606600683611108565b92915050565b6000546001600160a01b031633146106365760405162461bcd60e51b81526004016103c790611b86565b6106406000611177565b565b6000546001600160a01b0316331461066c5760405162461bcd60e51b81526004016103c790611b86565b600280546001600160a01b0319166001600160a01b0392909216919091179055565b60008161069a816105f9565b6106e65760405162461bcd60e51b815260206004820181905260248201527f4f6e6c7920617070726f76656420746f6b656e73206d6179206265207573656460448201526064016103c7565b6001546001600160a01b0316639dc29fac336040516001600160e01b031960e084901b1681526001600160a01b03909116600482015260248101879052604401600060405180830381600087803b15801561074057600080fd5b505af1158015610754573d6000803e3d6000fd5b5050505060006107648585610f2b565b905061077a6001600160a01b03851633836111c7565b604080518681526001600160a01b0386166020820152808201839052905133917f5268f300fa85aecf81f5f7e646f56b851cb0527fe7521d2a859f71eb1f3483fd919081900360600190a2949350505050565b6000806107da8333610c0c565b6001549091506001600160a01b03166340c10f19336040516001600160e01b031960e084901b1681526001600160a01b03909116600482015260248101849052604401600060405180830381600087803b15801561083757600080fd5b505af115801561084b573d6000803e3d6000fd5b5050505061088c83600061085c3390565b6001600160a01b039283166000908152600360209081526040808320939095168252919091529190912060020155565b61089783433361122a565b604080516001600160a01b038516815260208101839052815133927f497d80235eb5f8a92716d1e222145fe1ca6c1a328bec04ae59e6bef77da1aace928290030190a292915050565b600080806108ec61125a565b905060005b8151811015610a7b5760025482516000916001600160a01b03169063ad9b80249085908590811061093257634e487b7160e01b600052603260045260246000fd5b602002602001015185858151811061095a57634e487b7160e01b600052603260045260246000fd5b60209081029190910101516040516370a0823160e01b81523060048201526001600160a01b03909116906370a082319060240160206040518083038186803b1580156109a557600080fd5b505afa1580156109b9573d6000803e3d6000fd5b505050506040513d601f19601f820116820180604052508101906109dd9190611afb565b6040516001600160e01b031960e085901b1681526001600160a01b039092166004830152602482015260440160206040518083038186803b158015610a2157600080fd5b505afa158015610a35573d6000803e3d6000fd5b505050506040513d601f19601f82011682018060405250810190610a599190611afb565b9050610a65848261126b565b9350508080610a7390611caa565b9150506108f1565b509092915050565b610a9782610a918133610c0c565b3361085c565b610aa282433361122a565b610ab76001600160a01b03831633308461127e565b610ad582610acf83610ac98333610313565b9061126b565b336112b6565b604080516001600160a01b038416815260208101839052815133927f99039fcf0a98f484616c5196ee8b2ecfa971babf0b519848289ea4db381f85f7928290030190a25050565b6000610b288333610313565b905080821115610b895760405162461bcd60e51b815260206004820152602660248201527f43616e6e6f7420756e7374616b65206d6f7265207468616e20616d6f756e74206044820152651cdd185ad95960d21b60648201526084016103c7565b610b9d6001600160a01b03841633846111c7565b610bab83610a918133610c0c565b610bb683433361122a565b610bc483610acf838561131c565b604080516001600160a01b038516815260208101849052815133927f390b1276974b9463e5d66ab10df69b6f3d7b930eb066a0e66df327edd2cc811c928290030190a2505050565b6001600160a01b038281166000908152600360209081526040808320938516835292905290812060028101546001909101548290610c55908690610c508888610313565b611328565b9050610c61828261126b565b95945050505050565b6000546001600160a01b03163314610c945760405162461bcd60e51b81526004016103c790611b86565b60005b8251811015610f2657818181518110610cc057634e487b7160e01b600052603260045260246000fd5b60200260200101518015610d015750610cff838281518110610cf257634e487b7160e01b600052603260045260246000fd5b60200260200101516105f9565b155b15610de357610d41838281518110610d2957634e487b7160e01b600052603260045260246000fd5b6020026020010151600661137890919063ffffffff16565b7fd984ea421ae5d2a473199f85e03998a04a12f54d6f1fa183a955b3df1c0c546d838281518110610d8257634e487b7160e01b600052603260045260246000fd5b6020026020010151838381518110610daa57634e487b7160e01b600052603260045260246000fd5b6020026020010151604051610dd69291906001600160a01b039290921682521515602082015260400190565b60405180910390a1610f14565b818181518110610e0357634e487b7160e01b600052603260045260246000fd5b6020026020010151158015610e365750610e36838281518110610cf257634e487b7160e01b600052603260045260246000fd5b15610f1457610e76838281518110610e5e57634e487b7160e01b600052603260045260246000fd5b6020026020010151600661142790919063ffffffff16565b7fd984ea421ae5d2a473199f85e03998a04a12f54d6f1fa183a955b3df1c0c546d838281518110610eb757634e487b7160e01b600052603260045260246000fd5b6020026020010151838381518110610edf57634e487b7160e01b600052603260045260246000fd5b6020026020010151604051610f0b9291906001600160a01b039290921682521515602082015260400190565b60405180910390a15b80610f1e81611caa565b915050610c97565b505050565b600080610f366108e0565b90506000600160009054906101000a90046001600160a01b03166001600160a01b03166318160ddd6040518163ffffffff1660e01b815260040160206040518083038186803b158015610f8857600080fd5b505afa158015610f9c573d6000803e3d6000fd5b505050506040513d601f19601f82011682018060405250810190610fc09190611afb565b90506000610fd882610fd2888661158a565b90611596565b6002546040516305f0015560e11b81526001600160a01b0388811660048301526024820184905292935060009290911690630be002aa9060440160206040518083038186803b15801561102a57600080fd5b505afa15801561103e573d6000803e3d6000fd5b505050506040513d601f19601f820116820180604052508101906110629190611afb565b979650505050505050565b6000546001600160a01b031633146110975760405162461bcd60e51b81526004016103c790611b86565b6001600160a01b0381166110fc5760405162461bcd60e51b815260206004820152602660248201527f4f776e61626c653a206e6577206f776e657220697320746865207a65726f206160448201526564647265737360d01b60648201526084016103c7565b61110581611177565b50565b600182015460009061111c57506000610606565b6001600160a01b038216600081815260208590526040902054600185018054909190811061115a57634e487b7160e01b600052603260045260246000fd5b6000918252602090912001546001600160a01b0316149392505050565b600080546001600160a01b038381166001600160a01b0319831681178455604051919092169283917f8be0079c531659141344cd1fd0a4f28419497f9722a3daafe3b4186f6b6457e09190a35050565b6040516001600160a01b038316602482015260448101829052610f2690849063a9059cbb60e01b906064015b60408051601f198184030181529190526020810180516001600160e01b03166001600160e01b0319909316929092179091526115a2565b6001600160a01b039283166000908152600360209081526040808320939095168252919091529190912060010155565b60606112666006611674565b905090565b60006112778284611c10565b9392505050565b6040516001600160a01b03808516602483015283166044820152606481018290526105f39085906323b872dd60e01b906084016111f3565b6001600160a01b038084166000818152600360209081526040808320948616835293815283822080549383526004909152929020546112fa918591610ac99161131c565b6001600160a01b03909416600090815260046020526040902093909355509055565b60006112778284611c67565b6001600160a01b0383166000908152600560209081526040808320815180830190925280548083526001909101549282018390529091610c6191610fd2906113728781438b61131c565b9061158a565b6113828282611108565b156113cf5760405162461bcd60e51b815260206004820181905260248201527f546f6b656e20616c72656164792065786973747320696e20746865207365742e60448201526064016103c7565b6001828101805480830182556000828152602090200180546001600160a01b0319166001600160a01b038516179055546114099190611c67565b6001600160a01b039091166000908152602092909252604090912055565b6114318282611108565b61147d5760405162461bcd60e51b815260206004820181905260248201527f546f6b656e20646f6573206e6f7420657869737420696e20746865207365742e60448201526064016103c7565b6001828101805460009261149091611c67565b815481106114ae57634e487b7160e01b600052603260045260246000fd5b60009182526020808320909101546001600160a01b0385811684529186905260408084205492909116808452922081905560018501805492935090918391908390811061150b57634e487b7160e01b600052603260045260246000fd5b600091825260208083209190910180546001600160a01b0319166001600160a01b0394851617905591851681529085905260408120556001840180548061156257634e487b7160e01b600052603160045260246000fd5b600082815260209020810160001990810180546001600160a01b031916905501905550505050565b60006112778284611c48565b60006112778284611c28565b60006115f7826040518060400160405280602081526020017f5361666545524332303a206c6f772d6c6576656c2063616c6c206661696c6564815250856001600160a01b03166116da9092919063ffffffff16565b805190915015610f2657808060200190518101906116159190611a7c565b610f265760405162461bcd60e51b815260206004820152602a60248201527f5361666545524332303a204552433230206f7065726174696f6e20646964206e6044820152691bdd081cdd58d8d9595960b21b60648201526084016103c7565b6060816001018054806020026020016040519081016040528092919081815260200182805480156116ce57602002820191906000526020600020905b81546001600160a01b031681526001909101906020018083116116b0575b50505050509050919050565b60606116e984846000856116f1565b949350505050565b6060824710156117525760405162461bcd60e51b815260206004820152602660248201527f416464726573733a20696e73756666696369656e742062616c616e636520666f6044820152651c8818d85b1b60d21b60648201526084016103c7565b843b6117a05760405162461bcd60e51b815260206004820152601d60248201527f416464726573733a2063616c6c20746f206e6f6e2d636f6e747261637400000060448201526064016103c7565b600080866001600160a01b031685876040516117bc9190611b37565b60006040518083038185875af1925050503d80600081146117f9576040519150601f19603f3d011682016040523d82523d6000602084013e6117fe565b606091505b509150915061106282828660608315611818575081611277565b8251156118285782518084602001fd5b8160405162461bcd60e51b81526004016103c79190611b53565b600082601f830112611852578081fd5b8135602061186761186283611bec565b611bbb565b80838252828201915082860187848660051b8901011115611886578586fd5b855b858110156118ad57813561189b81611cf1565b84529284019290840190600101611888565b5090979650505050505050565b600082601f8301126118ca578081fd5b813560206118da61186283611bec565b80838252828201915082860187848660051b89010111156118f9578586fd5b855b858110156118ad578135845292840192908401906001016118fb565b600060208284031215611928578081fd5b813561127781611cf1565b60008060408385031215611945578081fd5b823567ffffffffffffffff8082111561195c578283fd5b61196886838701611842565b935060209150818501358181111561197e578384fd5b85019050601f81018613611990578283fd5b803561199e61186282611bec565b80828252848201915084840189868560051b87010111156119bd578687fd5b8694505b838510156119e85780356119d481611d06565b8352600194909401939185019185016119c1565b5080955050505050509250929050565b600080600060608486031215611a0c578081fd5b833567ffffffffffffffff80821115611a23578283fd5b611a2f87838801611842565b94506020860135915080821115611a44578283fd5b611a50878388016118ba565b93506040860135915080821115611a65578283fd5b50611a72868287016118ba565b9150509250925092565b600060208284031215611a8d578081fd5b815161127781611d06565b60008060408385031215611aaa578182fd5b8235611ab581611cf1565b91506020830135611ac581611cf1565b809150509250929050565b60008060408385031215611ae2578182fd5b8235611aed81611cf1565b946020939093013593505050565b600060208284031215611b0c578081fd5b5051919050565b60008060408385031215611b25578081fd5b823591506020830135611ac581611cf1565b60008251611b49818460208701611c7e565b9190910192915050565b6020815260008251806020840152611b72816040850160208701611c7e565b601f01601f19169190910160400192915050565b6020808252818101527f4f776e61626c653a2063616c6c6572206973206e6f7420746865206f776e6572604082015260600190565b604051601f8201601f1916810167ffffffffffffffff81118282101715611be457611be4611cdb565b604052919050565b600067ffffffffffffffff821115611c0657611c06611cdb565b5060051b60200190565b60008219821115611c2357611c23611cc5565b500190565b600082611c4357634e487b7160e01b81526012600452602481fd5b500490565b6000816000190483118215151615611c6257611c62611cc5565b500290565b600082821015611c7957611c79611cc5565b500390565b60005b83811015611c99578181015183820152602001611c81565b838111156105f35750506000910152565b6000600019821415611cbe57611cbe611cc5565b5060010190565b634e487b7160e01b600052601160045260246000fd5b634e487b7160e01b600052604160045260246000fd5b6001600160a01b038116811461110557600080fd5b801515811461110557600080fdfea26469706673582212203b2f6c995c0a24883c067c3000e13cb2e421508f4e94adcc76bf0a1bd60f87a964736f6c63430008040033",
  "linkReferences": {},
  "deployedLinkReferences": {}
}