{
  "_format": "hh-sol-artifact-1",
  "contractName": "Timelock",
  "sourceName": "contracts/Governance/Timelock.sol",
  "abi": [
    {
      "inputs": [
        {
          "internalType": "uint256",
          "name": "minDelay_",
          "type": "uint256"
        },
        {
          "internalType": "address[]",
          "name": "proposers_",
          "type": "address[]"
        },
        {
          "internalType": "address[]",
          "name": "executors_",
          "type": "address[]"
        },
        {
          "internalType": "uint256",
          "name": "taxPercentageNumerator_",
          "type": "uint256"
        },
        {
          "internalType": "uint256",
          "name": "taxPercentageDenominator_",
          "type": "uint256"
        },
        {
          "internalType": "uint256",
          "name": "taxCooldown_",
          "type": "uint256"
        }
      ],
      "stateMutability": "nonpayable",
      "type": "constructor"
    },
    {
      "anonymous": false,
      "inputs": [
        {
          "indexed": true,
          "internalType": "bytes32",
          "name": "id",
          "type": "bytes32"
        },
        {
          "indexed": true,
          "internalType": "uint256",
          "name": "index",
          "type": "uint256"
        },
        {
          "indexed": false,
          "internalType": "address",
          "name": "target",
          "type": "address"
        },
        {
          "indexed": false,
          "internalType": "uint256",
          "name": "value",
          "type": "uint256"
        },
        {
          "indexed": false,
          "internalType": "bytes",
          "name": "data",
          "type": "bytes"
        }
      ],
      "name": "CallExecuted",
      "type": "event"
    },
    {
      "anonymous": false,
      "inputs": [
        {
          "indexed": true,
          "internalType": "bytes32",
          "name": "id",
          "type": "bytes32"
        },
        {
          "indexed": true,
          "internalType": "uint256",
          "name": "index",
          "type": "uint256"
        },
        {
          "indexed": false,
          "internalType": "address",
          "name": "target",
          "type": "address"
        },
        {
          "indexed": false,
          "internalType": "uint256",
          "name": "value",
          "type": "uint256"
        },
        {
          "indexed": false,
          "internalType": "bytes",
          "name": "data",
          "type": "bytes"
        },
        {
          "indexed": false,
          "internalType": "bytes32",
          "name": "predecessor",
          "type": "bytes32"
        },
        {
          "indexed": false,
          "internalType": "uint256",
          "name": "delay",
          "type": "uint256"
        }
      ],
      "name": "CallScheduled",
      "type": "event"
    },
    {
      "anonymous": false,
      "inputs": [
        {
          "indexed": true,
          "internalType": "bytes32",
          "name": "id",
          "type": "bytes32"
        }
      ],
      "name": "Cancelled",
      "type": "event"
    },
    {
      "anonymous": false,
      "inputs": [
        {
          "indexed": false,
          "internalType": "uint256",
          "name": "oldDuration",
          "type": "uint256"
        },
        {
          "indexed": false,
          "internalType": "uint256",
          "name": "newDuration",
          "type": "uint256"
        }
      ],
      "name": "MinDelayChange",
      "type": "event"
    },
    {
      "anonymous": false,
      "inputs": [
        {
          "indexed": true,
          "internalType": "bytes32",
          "name": "role",
          "type": "bytes32"
        },
        {
          "indexed": true,
          "internalType": "bytes32",
          "name": "previousAdminRole",
          "type": "bytes32"
        },
        {
          "indexed": true,
          "internalType": "bytes32",
          "name": "newAdminRole",
          "type": "bytes32"
        }
      ],
      "name": "RoleAdminChanged",
      "type": "event"
    },
    {
      "anonymous": false,
      "inputs": [
        {
          "indexed": true,
          "internalType": "bytes32",
          "name": "role",
          "type": "bytes32"
        },
        {
          "indexed": true,
          "internalType": "address",
          "name": "account",
          "type": "address"
        },
        {
          "indexed": true,
          "internalType": "address",
          "name": "sender",
          "type": "address"
        }
      ],
      "name": "RoleGranted",
      "type": "event"
    },
    {
      "anonymous": false,
      "inputs": [
        {
          "indexed": true,
          "internalType": "bytes32",
          "name": "role",
          "type": "bytes32"
        },
        {
          "indexed": true,
          "internalType": "address",
          "name": "account",
          "type": "address"
        },
        {
          "indexed": true,
          "internalType": "address",
          "name": "sender",
          "type": "address"
        }
      ],
      "name": "RoleRevoked",
      "type": "event"
    },
    {
      "inputs": [],
      "name": "DEFAULT_ADMIN_ROLE",
      "outputs": [
        {
          "internalType": "bytes32",
          "name": "",
          "type": "bytes32"
        }
      ],
      "stateMutability": "view",
      "type": "function"
    },
    {
      "inputs": [],
      "name": "EXECUTOR_ROLE",
      "outputs": [
        {
          "internalType": "bytes32",
          "name": "",
          "type": "bytes32"
        }
      ],
      "stateMutability": "view",
      "type": "function"
    },
    {
      "inputs": [],
      "name": "PROPOSER_ROLE",
      "outputs": [
        {
          "internalType": "bytes32",
          "name": "",
          "type": "bytes32"
        }
      ],
      "stateMutability": "view",
      "type": "function"
    },
    {
      "inputs": [],
      "name": "TIMELOCK_ADMIN_ROLE",
      "outputs": [
        {
          "internalType": "bytes32",
          "name": "",
          "type": "bytes32"
        }
      ],
      "stateMutability": "view",
      "type": "function"
    },
    {
      "inputs": [
        {
          "internalType": "bytes32",
          "name": "id",
          "type": "bytes32"
        }
      ],
      "name": "cancel",
      "outputs": [],
      "stateMutability": "nonpayable",
      "type": "function"
    },
    {
      "inputs": [
        {
          "internalType": "contract IERC20",
          "name": "token_",
          "type": "address"
        }
      ],
      "name": "claimTax",
      "outputs": [],
      "stateMutability": "nonpayable",
      "type": "function"
    },
    {
      "inputs": [
        {
          "internalType": "address",
          "name": "target",
          "type": "address"
        },
        {
          "internalType": "uint256",
          "name": "value",
          "type": "uint256"
        },
        {
          "internalType": "bytes",
          "name": "data",
          "type": "bytes"
        },
        {
          "internalType": "bytes32",
          "name": "predecessor",
          "type": "bytes32"
        },
        {
          "internalType": "bytes32",
          "name": "salt",
          "type": "bytes32"
        }
      ],
      "name": "execute",
      "outputs": [],
      "stateMutability": "payable",
      "type": "function"
    },
    {
      "inputs": [
        {
          "internalType": "address[]",
          "name": "targets",
          "type": "address[]"
        },
        {
          "internalType": "uint256[]",
          "name": "values",
          "type": "uint256[]"
        },
        {
          "internalType": "bytes[]",
          "name": "datas",
          "type": "bytes[]"
        },
        {
          "internalType": "bytes32",
          "name": "predecessor",
          "type": "bytes32"
        },
        {
          "internalType": "bytes32",
          "name": "salt",
          "type": "bytes32"
        }
      ],
      "name": "executeBatch",
      "outputs": [],
      "stateMutability": "payable",
      "type": "function"
    },
    {
      "inputs": [],
      "name": "getMinDelay",
      "outputs": [
        {
          "internalType": "uint256",
          "name": "duration",
          "type": "uint256"
        }
      ],
      "stateMutability": "view",
      "type": "function"
    },
    {
      "inputs": [
        {
          "internalType": "bytes32",
          "name": "role",
          "type": "bytes32"
        }
      ],
      "name": "getRoleAdmin",
      "outputs": [
        {
          "internalType": "bytes32",
          "name": "",
          "type": "bytes32"
        }
      ],
      "stateMutability": "view",
      "type": "function"
    },
    {
      "inputs": [
        {
          "internalType": "bytes32",
          "name": "id",
          "type": "bytes32"
        }
      ],
      "name": "getTimestamp",
      "outputs": [
        {
          "internalType": "uint256",
          "name": "timestamp",
          "type": "uint256"
        }
      ],
      "stateMutability": "view",
      "type": "function"
    },
    {
      "inputs": [
        {
          "internalType": "bytes32",
          "name": "role",
          "type": "bytes32"
        },
        {
          "internalType": "address",
          "name": "account",
          "type": "address"
        }
      ],
      "name": "grantRole",
      "outputs": [],
      "stateMutability": "nonpayable",
      "type": "function"
    },
    {
      "inputs": [
        {
          "internalType": "bytes32",
          "name": "role",
          "type": "bytes32"
        },
        {
          "internalType": "address",
          "name": "account",
          "type": "address"
        }
      ],
      "name": "hasRole",
      "outputs": [
        {
          "internalType": "bool",
          "name": "",
          "type": "bool"
        }
      ],
      "stateMutability": "view",
      "type": "function"
    },
    {
      "inputs": [
        {
          "internalType": "address",
          "name": "target",
          "type": "address"
        },
        {
          "internalType": "uint256",
          "name": "value",
          "type": "uint256"
        },
        {
          "internalType": "bytes",
          "name": "data",
          "type": "bytes"
        },
        {
          "internalType": "bytes32",
          "name": "predecessor",
          "type": "bytes32"
        },
        {
          "internalType": "bytes32",
          "name": "salt",
          "type": "bytes32"
        }
      ],
      "name": "hashOperation",
      "outputs": [
        {
          "internalType": "bytes32",
          "name": "hash",
          "type": "bytes32"
        }
      ],
      "stateMutability": "pure",
      "type": "function"
    },
    {
      "inputs": [
        {
          "internalType": "address[]",
          "name": "targets",
          "type": "address[]"
        },
        {
          "internalType": "uint256[]",
          "name": "values",
          "type": "uint256[]"
        },
        {
          "internalType": "bytes[]",
          "name": "datas",
          "type": "bytes[]"
        },
        {
          "internalType": "bytes32",
          "name": "predecessor",
          "type": "bytes32"
        },
        {
          "internalType": "bytes32",
          "name": "salt",
          "type": "bytes32"
        }
      ],
      "name": "hashOperationBatch",
      "outputs": [
        {
          "internalType": "bytes32",
          "name": "hash",
          "type": "bytes32"
        }
      ],
      "stateMutability": "pure",
      "type": "function"
    },
    {
      "inputs": [
        {
          "internalType": "bytes32",
          "name": "id",
          "type": "bytes32"
        }
      ],
      "name": "isOperation",
      "outputs": [
        {
          "internalType": "bool",
          "name": "pending",
          "type": "bool"
        }
      ],
      "stateMutability": "view",
      "type": "function"
    },
    {
      "inputs": [
        {
          "internalType": "bytes32",
          "name": "id",
          "type": "bytes32"
        }
      ],
      "name": "isOperationDone",
      "outputs": [
        {
          "internalType": "bool",
          "name": "done",
          "type": "bool"
        }
      ],
      "stateMutability": "view",
      "type": "function"
    },
    {
      "inputs": [
        {
          "internalType": "bytes32",
          "name": "id",
          "type": "bytes32"
        }
      ],
      "name": "isOperationPending",
      "outputs": [
        {
          "internalType": "bool",
          "name": "pending",
          "type": "bool"
        }
      ],
      "stateMutability": "view",
      "type": "function"
    },
    {
      "inputs": [
        {
          "internalType": "bytes32",
          "name": "id",
          "type": "bytes32"
        }
      ],
      "name": "isOperationReady",
      "outputs": [
        {
          "internalType": "bool",
          "name": "ready",
          "type": "bool"
        }
      ],
      "stateMutability": "view",
      "type": "function"
    },
    {
      "inputs": [],
      "name": "lastTax",
      "outputs": [
        {
          "internalType": "uint256",
          "name": "",
          "type": "uint256"
        }
      ],
      "stateMutability": "view",
      "type": "function"
    },
    {
      "inputs": [
        {
          "internalType": "bytes32",
          "name": "role",
          "type": "bytes32"
        },
        {
          "internalType": "address",
          "name": "account",
          "type": "address"
        }
      ],
      "name": "renounceRole",
      "outputs": [],
      "stateMutability": "nonpayable",
      "type": "function"
    },
    {
      "inputs": [
        {
          "internalType": "bytes32",
          "name": "role",
          "type": "bytes32"
        },
        {
          "internalType": "address",
          "name": "account",
          "type": "address"
        }
      ],
      "name": "revokeRole",
      "outputs": [],
      "stateMutability": "nonpayable",
      "type": "function"
    },
    {
      "inputs": [
        {
          "internalType": "address",
          "name": "target",
          "type": "address"
        },
        {
          "internalType": "uint256",
          "name": "value",
          "type": "uint256"
        },
        {
          "internalType": "bytes",
          "name": "data",
          "type": "bytes"
        },
        {
          "internalType": "bytes32",
          "name": "predecessor",
          "type": "bytes32"
        },
        {
          "internalType": "bytes32",
          "name": "salt",
          "type": "bytes32"
        },
        {
          "internalType": "uint256",
          "name": "delay",
          "type": "uint256"
        }
      ],
      "name": "schedule",
      "outputs": [],
      "stateMutability": "nonpayable",
      "type": "function"
    },
    {
      "inputs": [
        {
          "internalType": "address[]",
          "name": "targets",
          "type": "address[]"
        },
        {
          "internalType": "uint256[]",
          "name": "values",
          "type": "uint256[]"
        },
        {
          "internalType": "bytes[]",
          "name": "datas",
          "type": "bytes[]"
        },
        {
          "internalType": "bytes32",
          "name": "predecessor",
          "type": "bytes32"
        },
        {
          "internalType": "bytes32",
          "name": "salt",
          "type": "bytes32"
        },
        {
          "internalType": "uint256",
          "name": "delay",
          "type": "uint256"
        }
      ],
      "name": "scheduleBatch",
      "outputs": [],
      "stateMutability": "nonpayable",
      "type": "function"
    },
    {
      "inputs": [
        {
          "internalType": "address",
          "name": "account_",
          "type": "address"
        }
      ],
      "name": "setTaxAccount",
      "outputs": [],
      "stateMutability": "nonpayable",
      "type": "function"
    },
    {
      "inputs": [
        {
          "internalType": "bytes4",
          "name": "interfaceId",
          "type": "bytes4"
        }
      ],
      "name": "supportsInterface",
      "outputs": [
        {
          "internalType": "bool",
          "name": "",
          "type": "bool"
        }
      ],
      "stateMutability": "view",
      "type": "function"
    },
    {
      "inputs": [],
      "name": "taxAccount",
      "outputs": [
        {
          "internalType": "address",
          "name": "",
          "type": "address"
        }
      ],
      "stateMutability": "view",
      "type": "function"
    },
    {
      "inputs": [],
      "name": "taxCooldown",
      "outputs": [
        {
          "internalType": "uint256",
          "name": "",
          "type": "uint256"
        }
      ],
      "stateMutability": "view",
      "type": "function"
    },
    {
      "inputs": [],
      "name": "taxPercentage",
      "outputs": [
        {
          "internalType": "uint256",
          "name": "",
          "type": "uint256"
        },
        {
          "internalType": "uint256",
          "name": "",
          "type": "uint256"
        }
      ],
      "stateMutability": "view",
      "type": "function"
    },
    {
      "inputs": [
        {
          "internalType": "uint256",
          "name": "newDelay",
          "type": "uint256"
        }
      ],
      "name": "updateDelay",
      "outputs": [],
      "stateMutability": "nonpayable",
      "type": "function"
    },
    {
      "stateMutability": "payable",
      "type": "receive"
    }
  ],
  "bytecode": "0x60a06040523480156200001157600080fd5b5060405162002541380380620025418339810160408190526200003491620003eb565b82828288888862000055600080516020620024e18339815191528062000223565b6200007f60008051602062002501833981519152600080516020620024e183398151915262000223565b620000a960008051602062002521833981519152600080516020620024e183398151915262000223565b620000c4600080516020620024e1833981519152336200026e565b620000df600080516020620024e1833981519152306200026e565b60005b8251811015620001485762000135600080516020620025018339815191528483815181106200012157634e487b7160e01b600052603260045260246000fd5b60200260200101516200026e60201b60201c565b620001408162000478565b9050620000e2565b5060005b81518110156200019e576200018b600080516020620025218339815191528383815181106200012157634e487b7160e01b600052603260045260246000fd5b620001968162000478565b90506200014c565b5060028390556040805160008152602081018590527f11c24f4ead16507c69ac467fbd5e4eed5fb5c699626d2cc6d66421df253886d5910160405180910390a150620001ea9150503390565b600380546001600160a01b0319166001600160a01b039290921691909117905560049290925560055560805250620004b6945050505050565b600082815260208190526040808220600101805490849055905190918391839186917fbd79b86ffe0ab8e8776151514217cd7cacd52c909f66475c3af44e129f0b00ff9190a4505050565b6200027a82826200027e565b5050565b6000828152602081815260408083206001600160a01b038516845290915290205460ff166200027a576000828152602081815260408083206001600160a01b03851684529091529020805460ff19166001179055620002da3390565b6001600160a01b0316816001600160a01b0316837f2f8788117e7eff1d82e926ec794901d17c78024a50270940304540a733656f0d60405160405180910390a45050565b80516001600160a01b03811681146200033657600080fd5b919050565b600082601f8301126200034c578081fd5b815160206001600160401b03808311156200036b576200036b620004a0565b8260051b604051601f19603f83011681018181108482111715620003935762000393620004a0565b60405284815283810192508684018288018501891015620003b2578687fd5b8692505b85831015620003df57620003ca816200031e565b845292840192600192909201918401620003b6565b50979650505050505050565b60008060008060008060c0878903121562000404578182fd5b865160208801519096506001600160401b038082111562000423578384fd5b620004318a838b016200033b565b9650604089015191508082111562000447578384fd5b506200045689828a016200033b565b945050606087015192506080870151915060a087015190509295509295509295565b60006000198214156200049957634e487b7160e01b81526011600452602481fd5b5060010190565b634e487b7160e01b600052604160045260246000fd5b608051612008620004d96000396000818161055d0152610afd01526120086000f3fe6080604052600436106101d15760003560e01c80638065657f116100f7578063b1c5f42711610095578063d45c443511610064578063d45c44351461059f578063d547741f146105cc578063e38335e5146105ec578063f27a0c92146105ff57600080fd5b8063b1c5f4271461050b578063c4d252f51461052b578063c9d15a021461054b578063d0385b5e1461057f57600080fd5b806391d14854116100d157806391d148541461048e578063a217fddf146104ae578063aa0b28ff146104c3578063ae7b6d16146104e357600080fd5b80638065657f1461042c5780638f2a0bb01461044c5780638f61f4f51461046c57600080fd5b80632ab0f5291161016f578063584b153e1161013e578063584b153e1461039e5780636184c164146103be57806364d62353146103f657806372ed01ec1461041657600080fd5b80632ab0f5291461030d5780632f2ff15d1461033e57806331d507501461035e57806336568abe1461037e57600080fd5b80630d3cf6fc116101ab5780630d3cf6fc14610276578063134008d3146102aa57806313bc9f20146102bd578063248a9ca3146102dd57600080fd5b806301d5062a146101dd57806301ffc9a7146101ff57806307bd02651461023457600080fd5b366101d857005b600080fd5b3480156101e957600080fd5b506101fd6101f83660046118ab565b610614565b005b34801561020b57600080fd5b5061021f61021a366004611ada565b610698565b60405190151581526020015b60405180910390f35b34801561024057600080fd5b506102687fd8aa0f3194971a2a116679f7c2090f6939c8d4e01a2a8d7e41d55e5351469e6381565b60405190815260200161022b565b34801561028257600080fd5b506102687f5f58e3a2316349923ce3780f8d587db2d72378aed66a8261c916544fa6846ca581565b6101fd6102b836600461183f565b6106cf565b3480156102c957600080fd5b5061021f6102d8366004611a93565b610747565b3480156102e957600080fd5b506102686102f8366004611a93565b60009081526020819052604090206001015490565b34801561031957600080fd5b5061021f610328366004611a93565b6000908152600160208190526040909120541490565b34801561034a57600080fd5b506101fd610359366004611aab565b61076d565b34801561036a57600080fd5b5061021f610379366004611a93565b610798565b34801561038a57600080fd5b506101fd610399366004611aab565b6107b1565b3480156103aa57600080fd5b5061021f6103b9366004611a93565b610834565b3480156103ca57600080fd5b506003546103de906001600160a01b031681565b6040516001600160a01b03909116815260200161022b565b34801561040257600080fd5b506101fd610411366004611a93565b61084a565b34801561042257600080fd5b5061026860065481565b34801561043857600080fd5b5061026861044736600461183f565b6108ee565b34801561045857600080fd5b506101fd6104673660046119c5565b61092d565b34801561047857600080fd5b50610268600080516020611fb383398151915281565b34801561049a57600080fd5b5061021f6104a9366004611aab565b610a98565b3480156104ba57600080fd5b50610268600081565b3480156104cf57600080fd5b506101fd6104de366004611823565b610ac1565b3480156104ef57600080fd5b506004546005546040805192835260208301919091520161022b565b34801561051757600080fd5b50610268610526366004611920565b610bef565b34801561053757600080fd5b506101fd610546366004611a93565b610c34565b34801561055757600080fd5b506102687f000000000000000000000000000000000000000000000000000000000000000081565b34801561058b57600080fd5b506101fd61059a366004611823565b610cf8565b3480156105ab57600080fd5b506102686105ba366004611a93565b60009081526001602052604090205490565b3480156105d857600080fd5b506101fd6105e7366004611aab565b610d4d565b6101fd6105fa366004611920565b610d73565b34801561060b57600080fd5b50600254610268565b600080516020611fb383398151915261062d8133610ed2565b600061063d8989898989896108ee565b90506106498184610f36565b6000817f4cf4410cc57040e44862ef0f45f3dd5a5e02db8eb8add648d4b0e236f1d07dca8b8b8b8b8b8a60405161068596959493929190611ca0565b60405180910390a3505050505050505050565b60006001600160e01b03198216637965db0b60e01b14806106c957506301ffc9a760e01b6001600160e01b03198316145b92915050565b7fd8aa0f3194971a2a116679f7c2090f6939c8d4e01a2a8d7e41d55e5351469e636106fb816000610a98565b610709576107098133610ed2565b60006107198888888888886108ee565b90506107258185611025565b6107348160008a8a8a8a6110c1565b61073d816111d5565b5050505050505050565b6000818152600160205260408120546001811180156107665750428111155b9392505050565b6000828152602081905260409020600101546107898133610ed2565b610793838361120e565b505050565b60008181526001602052604081205481905b1192915050565b6001600160a01b03811633146108265760405162461bcd60e51b815260206004820152602f60248201527f416363657373436f6e74726f6c3a2063616e206f6e6c792072656e6f756e636560448201526e103937b632b9903337b91039b2b63360891b60648201526084015b60405180910390fd5b6108308282611292565b5050565b60008181526001602081905260408220546107aa565b3330146108ad5760405162461bcd60e51b815260206004820152602b60248201527f54696d656c6f636b436f6e74726f6c6c65723a2063616c6c6572206d7573742060448201526a62652074696d656c6f636b60a81b606482015260840161081d565b60025460408051918252602082018390527f11c24f4ead16507c69ac467fbd5e4eed5fb5c699626d2cc6d66421df253886d5910160405180910390a1600255565b600086868686868660405160200161090b96959493929190611ca0565b6040516020818303038152906040528051906020012090509695505050505050565b600080516020611fb38339815191526109468133610ed2565b8887146109655760405162461bcd60e51b815260040161081d90611db7565b8885146109845760405162461bcd60e51b815260040161081d90611db7565b60006109968b8b8b8b8b8b8b8b610bef565b90506109a28184610f36565b60005b8a811015610a8a5780827f4cf4410cc57040e44862ef0f45f3dd5a5e02db8eb8add648d4b0e236f1d07dca8e8e858181106109f057634e487b7160e01b600052603260045260246000fd5b9050602002016020810190610a059190611823565b8d8d86818110610a2557634e487b7160e01b600052603260045260246000fd5b905060200201358c8c87818110610a4c57634e487b7160e01b600052603260045260246000fd5b9050602002810190610a5e9190611e86565b8c8b604051610a7296959493929190611ca0565b60405180910390a3610a8381611f69565b90506109a5565b505050505050505050505050565b6000918252602082815260408084206001600160a01b0393909316845291905290205460ff1690565b6003546001600160a01b0316336001600160a01b031614610af45760405162461bcd60e51b815260040161081d90611dfa565b600654610b21907f00000000000000000000000000000000000000000000000000000000000000006112f7565b421015610b2d57600080fd5b6040516370a0823160e01b81523060048201526000906001600160a01b038316906370a082319060240160206040518083038186803b158015610b6f57600080fd5b505afa158015610b83573d6000803e3d6000fd5b505050506040513d601f19601f82011682018060405250810190610ba79190611b02565b600554600454919250600091610bc99190610bc3908590611303565b9061130f565b600354909150610be6906001600160a01b0385811691168361131b565b50504260065550565b60008888888888888888604051602001610c10989796959493929190611cdd565b60405160208183030381529060405280519060200120905098975050505050505050565b600080516020611fb3833981519152610c4d8133610ed2565b610c5682610834565b610cbc5760405162461bcd60e51b815260206004820152603160248201527f54696d656c6f636b436f6e74726f6c6c65723a206f7065726174696f6e2063616044820152701b9b9bdd0818994818d85b98d95b1b1959607a1b606482015260840161081d565b6000828152600160205260408082208290555183917fbaa1eb22f2a492ba1a5fea61b8df4d27c6c8b5f3971e63bb58fa14ff72eedb7091a25050565b6003546001600160a01b0316336001600160a01b031614610d2b5760405162461bcd60e51b815260040161081d90611dfa565b600380546001600160a01b0319166001600160a01b0392909216919091179055565b600082815260208190526040902060010154610d698133610ed2565b6107938383611292565b7fd8aa0f3194971a2a116679f7c2090f6939c8d4e01a2a8d7e41d55e5351469e63610d9f816000610a98565b610dad57610dad8133610ed2565b878614610dcc5760405162461bcd60e51b815260040161081d90611db7565b878414610deb5760405162461bcd60e51b815260040161081d90611db7565b6000610dfd8a8a8a8a8a8a8a8a610bef565b9050610e098185611025565b60005b89811015610ebc57610eac82828d8d85818110610e3957634e487b7160e01b600052603260045260246000fd5b9050602002016020810190610e4e9190611823565b8c8c86818110610e6e57634e487b7160e01b600052603260045260246000fd5b905060200201358b8b87818110610e9557634e487b7160e01b600052603260045260246000fd5b9050602002810190610ea79190611e86565b6110c1565b610eb581611f69565b9050610e0c565b50610ec6816111d5565b50505050505050505050565b610edc8282610a98565b61083057610ef4816001600160a01b0316601461136d565b610eff83602061136d565b604051602001610f10929190611bf9565b60408051601f198184030181529082905262461bcd60e51b825261081d91600401611d84565b610f3f82610798565b15610fa45760405162461bcd60e51b815260206004820152602f60248201527f54696d656c6f636b436f6e74726f6c6c65723a206f7065726174696f6e20616c60448201526e1c9958591e481cd8da19591d5b1959608a1b606482015260840161081d565b6002548110156110055760405162461bcd60e51b815260206004820152602660248201527f54696d656c6f636b436f6e74726f6c6c65723a20696e73756666696369656e746044820152652064656c617960d01b606482015260840161081d565b61100f8142611ecb565b6000928352600160205260409092209190915550565b61102e82610747565b61104a5760405162461bcd60e51b815260040161081d90611e3c565b8015806110665750600081815260016020819052604090912054145b6108305760405162461bcd60e51b815260206004820152602660248201527f54696d656c6f636b436f6e74726f6c6c65723a206d697373696e6720646570656044820152656e64656e637960d01b606482015260840161081d565b6000846001600160a01b03168484846040516110de929190611bcd565b60006040518083038185875af1925050503d806000811461111b576040519150601f19603f3d011682016040523d82523d6000602084013e611120565b606091505b505090508061118d5760405162461bcd60e51b815260206004820152603360248201527f54696d656c6f636b436f6e74726f6c6c65723a20756e6465726c79696e6720746044820152721c985b9cd858dd1a5bdb881c995d995c9d1959606a1b606482015260840161081d565b85877fc2617efa69bab66782fa219543714338489c4e9e178271560a91b82c3f612b58878787876040516111c49493929190611c6e565b60405180910390a350505050505050565b6111de81610747565b6111fa5760405162461bcd60e51b815260040161081d90611e3c565b600090815260016020819052604090912055565b6112188282610a98565b610830576000828152602081815260408083206001600160a01b03851684529091529020805460ff1916600117905561124e3390565b6001600160a01b0316816001600160a01b0316837f2f8788117e7eff1d82e926ec794901d17c78024a50270940304540a733656f0d60405160405180910390a45050565b61129c8282610a98565b15610830576000828152602081815260408083206001600160a01b0385168085529252808320805460ff1916905551339285917ff6391f5c32d9c69d2a47ea670b442974b53935d1edc7fd64eb21e047a839171b9190a45050565b60006107668284611ecb565b60006107668284611f03565b60006107668284611ee3565b604080516001600160a01b038416602482015260448082018490528251808303909101815260649091019091526020810180516001600160e01b031663a9059cbb60e01b17905261079390849061154f565b6060600061137c836002611f03565b611387906002611ecb565b67ffffffffffffffff8111156113ad57634e487b7160e01b600052604160045260246000fd5b6040519080825280601f01601f1916602001820160405280156113d7576020820181803683370190505b509050600360fc1b8160008151811061140057634e487b7160e01b600052603260045260246000fd5b60200101906001600160f81b031916908160001a905350600f60fb1b8160018151811061143d57634e487b7160e01b600052603260045260246000fd5b60200101906001600160f81b031916908160001a9053506000611461846002611f03565b61146c906001611ecb565b90505b6001811115611500576f181899199a1a9b1b9c1cb0b131b232b360811b85600f16601081106114ae57634e487b7160e01b600052603260045260246000fd5b1a60f81b8282815181106114d257634e487b7160e01b600052603260045260246000fd5b60200101906001600160f81b031916908160001a90535060049490941c936114f981611f52565b905061146f565b5083156107665760405162461bcd60e51b815260206004820181905260248201527f537472696e67733a20686578206c656e67746820696e73756666696369656e74604482015260640161081d565b60006115a4826040518060400160405280602081526020017f5361666545524332303a206c6f772d6c6576656c2063616c6c206661696c6564815250856001600160a01b03166116219092919063ffffffff16565b80519091501561079357808060200190518101906115c29190611a73565b6107935760405162461bcd60e51b815260206004820152602a60248201527f5361666545524332303a204552433230206f7065726174696f6e20646964206e6044820152691bdd081cdd58d8d9595960b21b606482015260840161081d565b60606116308484600085611638565b949350505050565b6060824710156116995760405162461bcd60e51b815260206004820152602660248201527f416464726573733a20696e73756666696369656e742062616c616e636520666f6044820152651c8818d85b1b60d21b606482015260840161081d565b843b6116e75760405162461bcd60e51b815260206004820152601d60248201527f416464726573733a2063616c6c20746f206e6f6e2d636f6e7472616374000000604482015260640161081d565b600080866001600160a01b031685876040516117039190611bdd565b60006040518083038185875af1925050503d8060008114611740576040519150601f19603f3d011682016040523d82523d6000602084013e611745565b606091505b5091509150611755828286611760565b979650505050505050565b6060831561176f575081610766565b82511561177f5782518084602001fd5b8160405162461bcd60e51b815260040161081d9190611d84565b60008083601f8401126117aa578182fd5b50813567ffffffffffffffff8111156117c1578182fd5b6020830191508360208260051b85010111156117dc57600080fd5b9250929050565b60008083601f8401126117f4578182fd5b50813567ffffffffffffffff81111561180b578182fd5b6020830191508360208285010111156117dc57600080fd5b600060208284031215611834578081fd5b813561076681611f9a565b60008060008060008060a08789031215611857578182fd5b863561186281611f9a565b955060208701359450604087013567ffffffffffffffff811115611884578283fd5b61189089828a016117e3565b979a9699509760608101359660809091013595509350505050565b600080600080600080600060c0888a0312156118c5578081fd5b87356118d081611f9a565b965060208801359550604088013567ffffffffffffffff8111156118f2578182fd5b6118fe8a828b016117e3565b989b979a50986060810135976080820135975060a09091013595509350505050565b60008060008060008060008060a0898b03121561193b578081fd5b883567ffffffffffffffff80821115611952578283fd5b61195e8c838d01611799565b909a50985060208b0135915080821115611976578283fd5b6119828c838d01611799565b909850965060408b013591508082111561199a578283fd5b506119a78b828c01611799565b999c989b509699959896976060870135966080013595509350505050565b600080600080600080600080600060c08a8c0312156119e2578081fd5b893567ffffffffffffffff808211156119f9578283fd5b611a058d838e01611799565b909b50995060208c0135915080821115611a1d578283fd5b611a298d838e01611799565b909950975060408c0135915080821115611a41578283fd5b50611a4e8c828d01611799565b9a9d999c50979a969997986060880135976080810135975060a0013595509350505050565b600060208284031215611a84578081fd5b81518015158114610766578182fd5b600060208284031215611aa4578081fd5b5035919050565b60008060408385031215611abd578182fd5b823591506020830135611acf81611f9a565b809150509250929050565b600060208284031215611aeb578081fd5b81356001600160e01b031981168114610766578182fd5b600060208284031215611b13578081fd5b5051919050565b818352600060208085019450848460051b860184845b87811015611b975783830389528135601e19883603018112611b50578687fd5b8701803567ffffffffffffffff811115611b68578788fd5b803603891315611b76578788fd5b611b838582898501611ba4565b9a87019a9450505090840190600101611b30565b5090979650505050505050565b81835281816020850137506000828201602090810191909152601f909101601f19169091010190565b8183823760009101908152919050565b60008251611bef818460208701611f22565b9190910192915050565b7f416363657373436f6e74726f6c3a206163636f756e7420000000000000000000815260008351611c31816017850160208801611f22565b7001034b99036b4b9b9b4b733903937b6329607d1b6017918401918201528351611c62816028840160208801611f22565b01602801949350505050565b60018060a01b0385168152836020820152606060408201526000611c96606083018486611ba4565b9695505050505050565b60018060a01b038716815285602082015260a060408201526000611cc860a083018688611ba4565b60608301949094525060800152949350505050565b60a0808252810188905260008960c08301825b8b811015611d20578235611d0381611f9a565b6001600160a01b0316825260209283019290910190600101611cf0565b5083810360208501528881526001600160fb1b03891115611d3f578283fd5b8860051b9150818a60208301370160208181018381528483039091016040850152611d6b81888a611b1a565b6060850196909652505050608001529695505050505050565b6020815260008251806020840152611da3816040850160208701611f22565b601f01601f19169190910160400192915050565b60208082526023908201527f54696d656c6f636b436f6e74726f6c6c65723a206c656e677468206d69736d616040820152620e8c6d60eb1b606082015260800190565b60208082526022908201527f4f6e6c792074686520746178206163636f756e74206d61792063616c6c207468604082015261697360f01b606082015260800190565b6020808252602a908201527f54696d656c6f636b436f6e74726f6c6c65723a206f7065726174696f6e206973604082015269206e6f7420726561647960b01b606082015260800190565b6000808335601e19843603018112611e9c578283fd5b83018035915067ffffffffffffffff821115611eb6578283fd5b6020019150368190038213156117dc57600080fd5b60008219821115611ede57611ede611f84565b500190565b600082611efe57634e487b7160e01b81526012600452602481fd5b500490565b6000816000190483118215151615611f1d57611f1d611f84565b500290565b60005b83811015611f3d578181015183820152602001611f25565b83811115611f4c576000848401525b50505050565b600081611f6157611f61611f84565b506000190190565b6000600019821415611f7d57611f7d611f84565b5060010190565b634e487b7160e01b600052601160045260246000fd5b6001600160a01b0381168114611faf57600080fd5b5056feb09aa5aeb3702cfd50b6b62bc4532604938f21248a27a1d5ca736082b6819cc1a2646970667358221220093d74e714fa33d1eb0681eb040cd8076f135874e17a83c84ad4d47e54e3600a64736f6c634300080400335f58e3a2316349923ce3780f8d587db2d72378aed66a8261c916544fa6846ca5b09aa5aeb3702cfd50b6b62bc4532604938f21248a27a1d5ca736082b6819cc1d8aa0f3194971a2a116679f7c2090f6939c8d4e01a2a8d7e41d55e5351469e63",
  "linkReferences": {},
  "deployedLinkReferences": {}
}