{
  "_format": "hh-sol-artifact-1",
  "contractName": "Token",
  "sourceName": "contracts/Governance/Token.sol",
  "abi": [
    {
      "inputs": [
        {
          "internalType": "uint256",
          "name": "initialSupply_",
          "type": "uint256"
        }
      ],
      "stateMutability": "nonpayable",
      "type": "constructor"
    },
    {
      "anonymous": false,
      "inputs": [
        {
          "indexed": true,
          "internalType": "address",
          "name": "owner",
          "type": "address"
        },
        {
          "indexed": true,
          "internalType": "address",
          "name": "spender",
          "type": "address"
        },
        {
          "indexed": false,
          "internalType": "uint256",
          "name": "value",
          "type": "uint256"
        }
      ],
      "name": "Approval",
      "type": "event"
    },
    {
      "anonymous": false,
      "inputs": [
        {
          "indexed": true,
          "internalType": "address",
          "name": "delegator",
          "type": "address"
        },
        {
          "indexed": true,
          "internalType": "address",
          "name": "fromDelegate",
          "type": "address"
        },
        {
          "indexed": true,
          "internalType": "address",
          "name": "toDelegate",
          "type": "address"
        }
      ],
      "name": "DelegateChanged",
      "type": "event"
    },
    {
      "anonymous": false,
      "inputs": [
        {
          "indexed": true,
          "internalType": "address",
          "name": "delegate",
          "type": "address"
        },
        {
          "indexed": false,
          "internalType": "uint256",
          "name": "previousBalance",
          "type": "uint256"
        },
        {
          "indexed": false,
          "internalType": "uint256",
          "name": "newBalance",
          "type": "uint256"
        }
      ],
      "name": "DelegateVotesChanged",
      "type": "event"
    },
    {
      "anonymous": false,
      "inputs": [
        {
          "indexed": true,
          "internalType": "bytes32",
          "name": "role",
          "type": "bytes32"
        },
        {
          "indexed": true,
          "internalType": "bytes32",
          "name": "previousAdminRole",
          "type": "bytes32"
        },
        {
          "indexed": true,
          "internalType": "bytes32",
          "name": "newAdminRole",
          "type": "bytes32"
        }
      ],
      "name": "RoleAdminChanged",
      "type": "event"
    },
    {
      "anonymous": false,
      "inputs": [
        {
          "indexed": true,
          "internalType": "bytes32",
          "name": "role",
          "type": "bytes32"
        },
        {
          "indexed": true,
          "internalType": "address",
          "name": "account",
          "type": "address"
        },
        {
          "indexed": true,
          "internalType": "address",
          "name": "sender",
          "type": "address"
        }
      ],
      "name": "RoleGranted",
      "type": "event"
    },
    {
      "anonymous": false,
      "inputs": [
        {
          "indexed": true,
          "internalType": "bytes32",
          "name": "role",
          "type": "bytes32"
        },
        {
          "indexed": true,
          "internalType": "address",
          "name": "account",
          "type": "address"
        },
        {
          "indexed": true,
          "internalType": "address",
          "name": "sender",
          "type": "address"
        }
      ],
      "name": "RoleRevoked",
      "type": "event"
    },
    {
      "anonymous": false,
      "inputs": [
        {
          "indexed": true,
          "internalType": "address",
          "name": "from",
          "type": "address"
        },
        {
          "indexed": true,
          "internalType": "address",
          "name": "to",
          "type": "address"
        },
        {
          "indexed": false,
          "internalType": "uint256",
          "name": "value",
          "type": "uint256"
        }
      ],
      "name": "Transfer",
      "type": "event"
    },
    {
      "inputs": [],
      "name": "DEFAULT_ADMIN_ROLE",
      "outputs": [
        {
          "internalType": "bytes32",
          "name": "",
          "type": "bytes32"
        }
      ],
      "stateMutability": "view",
      "type": "function"
    },
    {
      "inputs": [],
      "name": "DOMAIN_SEPARATOR",
      "outputs": [
        {
          "internalType": "bytes32",
          "name": "",
          "type": "bytes32"
        }
      ],
      "stateMutability": "view",
      "type": "function"
    },
    {
      "inputs": [],
      "name": "TOKEN_ADMIN",
      "outputs": [
        {
          "internalType": "bytes32",
          "name": "",
          "type": "bytes32"
        }
      ],
      "stateMutability": "view",
      "type": "function"
    },
    {
      "inputs": [],
      "name": "TOKEN_CONTROL",
      "outputs": [
        {
          "internalType": "bytes32",
          "name": "",
          "type": "bytes32"
        }
      ],
      "stateMutability": "view",
      "type": "function"
    },
    {
      "inputs": [
        {
          "internalType": "address",
          "name": "owner",
          "type": "address"
        },
        {
          "internalType": "address",
          "name": "spender",
          "type": "address"
        }
      ],
      "name": "allowance",
      "outputs": [
        {
          "internalType": "uint256",
          "name": "",
          "type": "uint256"
        }
      ],
      "stateMutability": "view",
      "type": "function"
    },
    {
      "inputs": [
        {
          "internalType": "address",
          "name": "spender",
          "type": "address"
        },
        {
          "internalType": "uint256",
          "name": "amount",
          "type": "uint256"
        }
      ],
      "name": "approve",
      "outputs": [
        {
          "internalType": "bool",
          "name": "",
          "type": "bool"
        }
      ],
      "stateMutability": "nonpayable",
      "type": "function"
    },
    {
      "inputs": [
        {
          "internalType": "address",
          "name": "account",
          "type": "address"
        }
      ],
      "name": "balanceOf",
      "outputs": [
        {
          "internalType": "uint256",
          "name": "",
          "type": "uint256"
        }
      ],
      "stateMutability": "view",
      "type": "function"
    },
    {
      "inputs": [
        {
          "internalType": "address",
          "name": "account_",
          "type": "address"
        },
        {
          "internalType": "uint256",
          "name": "amount_",
          "type": "uint256"
        }
      ],
      "name": "burn",
      "outputs": [],
      "stateMutability": "nonpayable",
      "type": "function"
    },
    {
      "inputs": [
        {
          "internalType": "address",
          "name": "account",
          "type": "address"
        },
        {
          "internalType": "uint32",
          "name": "pos",
          "type": "uint32"
        }
      ],
      "name": "checkpoints",
      "outputs": [
        {
          "components": [
            {
              "internalType": "uint32",
              "name": "fromBlock",
              "type": "uint32"
            },
            {
              "internalType": "uint224",
              "name": "votes",
              "type": "uint224"
            }
          ],
          "internalType": "struct ERC20Votes.Checkpoint",
          "name": "",
          "type": "tuple"
        }
      ],
      "stateMutability": "view",
      "type": "function"
    },
    {
      "inputs": [],
      "name": "decimals",
      "outputs": [
        {
          "internalType": "uint8",
          "name": "",
          "type": "uint8"
        }
      ],
      "stateMutability": "view",
      "type": "function"
    },
    {
      "inputs": [
        {
          "internalType": "address",
          "name": "spender",
          "type": "address"
        },
        {
          "internalType": "uint256",
          "name": "subtractedValue",
          "type": "uint256"
        }
      ],
      "name": "decreaseAllowance",
      "outputs": [
        {
          "internalType": "bool",
          "name": "",
          "type": "bool"
        }
      ],
      "stateMutability": "nonpayable",
      "type": "function"
    },
    {
      "inputs": [
        {
          "internalType": "address",
          "name": "delegatee",
          "type": "address"
        }
      ],
      "name": "delegate",
      "outputs": [],
      "stateMutability": "nonpayable",
      "type": "function"
    },
    {
      "inputs": [
        {
          "internalType": "address",
          "name": "delegatee",
          "type": "address"
        },
        {
          "internalType": "uint256",
          "name": "nonce",
          "type": "uint256"
        },
        {
          "internalType": "uint256",
          "name": "expiry",
          "type": "uint256"
        },
        {
          "internalType": "uint8",
          "name": "v",
          "type": "uint8"
        },
        {
          "internalType": "bytes32",
          "name": "r",
          "type": "bytes32"
        },
        {
          "internalType": "bytes32",
          "name": "s",
          "type": "bytes32"
        }
      ],
      "name": "delegateBySig",
      "outputs": [],
      "stateMutability": "nonpayable",
      "type": "function"
    },
    {
      "inputs": [
        {
          "internalType": "address",
          "name": "account",
          "type": "address"
        }
      ],
      "name": "delegates",
      "outputs": [
        {
          "internalType": "address",
          "name": "",
          "type": "address"
        }
      ],
      "stateMutability": "view",
      "type": "function"
    },
    {
      "inputs": [
        {
          "internalType": "uint256",
          "name": "blockNumber",
          "type": "uint256"
        }
      ],
      "name": "getPastTotalSupply",
      "outputs": [
        {
          "internalType": "uint256",
          "name": "",
          "type": "uint256"
        }
      ],
      "stateMutability": "view",
      "type": "function"
    },
    {
      "inputs": [
        {
          "internalType": "address",
          "name": "account",
          "type": "address"
        },
        {
          "internalType": "uint256",
          "name": "blockNumber",
          "type": "uint256"
        }
      ],
      "name": "getPastVotes",
      "outputs": [
        {
          "internalType": "uint256",
          "name": "",
          "type": "uint256"
        }
      ],
      "stateMutability": "view",
      "type": "function"
    },
    {
      "inputs": [
        {
          "internalType": "bytes32",
          "name": "role",
          "type": "bytes32"
        }
      ],
      "name": "getRoleAdmin",
      "outputs": [
        {
          "internalType": "bytes32",
          "name": "",
          "type": "bytes32"
        }
      ],
      "stateMutability": "view",
      "type": "function"
    },
    {
      "inputs": [
        {
          "internalType": "address",
          "name": "account",
          "type": "address"
        }
      ],
      "name": "getVotes",
      "outputs": [
        {
          "internalType": "uint256",
          "name": "",
          "type": "uint256"
        }
      ],
      "stateMutability": "view",
      "type": "function"
    },
    {
      "inputs": [
        {
          "internalType": "bytes32",
          "name": "role",
          "type": "bytes32"
        },
        {
          "internalType": "address",
          "name": "account",
          "type": "address"
        }
      ],
      "name": "grantRole",
      "outputs": [],
      "stateMutability": "nonpayable",
      "type": "function"
    },
    {
      "inputs": [
        {
          "internalType": "bytes32",
          "name": "role",
          "type": "bytes32"
        },
        {
          "internalType": "address",
          "name": "account",
          "type": "address"
        }
      ],
      "name": "hasRole",
      "outputs": [
        {
          "internalType": "bool",
          "name": "",
          "type": "bool"
        }
      ],
      "stateMutability": "view",
      "type": "function"
    },
    {
      "inputs": [
        {
          "internalType": "address",
          "name": "spender",
          "type": "address"
        },
        {
          "internalType": "uint256",
          "name": "addedValue",
          "type": "uint256"
        }
      ],
      "name": "increaseAllowance",
      "outputs": [
        {
          "internalType": "bool",
          "name": "",
          "type": "bool"
        }
      ],
      "stateMutability": "nonpayable",
      "type": "function"
    },
    {
      "inputs": [
        {
          "internalType": "address",
          "name": "to_",
          "type": "address"
        },
        {
          "internalType": "uint256",
          "name": "amount_",
          "type": "uint256"
        }
      ],
      "name": "mint",
      "outputs": [],
      "stateMutability": "nonpayable",
      "type": "function"
    },
    {
      "inputs": [],
      "name": "name",
      "outputs": [
        {
          "internalType": "string",
          "name": "",
          "type": "string"
        }
      ],
      "stateMutability": "view",
      "type": "function"
    },
    {
      "inputs": [
        {
          "internalType": "address",
          "name": "owner",
          "type": "address"
        }
      ],
      "name": "nonces",
      "outputs": [
        {
          "internalType": "uint256",
          "name": "",
          "type": "uint256"
        }
      ],
      "stateMutability": "view",
      "type": "function"
    },
    {
      "inputs": [
        {
          "internalType": "address",
          "name": "account",
          "type": "address"
        }
      ],
      "name": "numCheckpoints",
      "outputs": [
        {
          "internalType": "uint32",
          "name": "",
          "type": "uint32"
        }
      ],
      "stateMutability": "view",
      "type": "function"
    },
    {
      "inputs": [
        {
          "internalType": "address",
          "name": "owner",
          "type": "address"
        },
        {
          "internalType": "address",
          "name": "spender",
          "type": "address"
        },
        {
          "internalType": "uint256",
          "name": "value",
          "type": "uint256"
        },
        {
          "internalType": "uint256",
          "name": "deadline",
          "type": "uint256"
        },
        {
          "internalType": "uint8",
          "name": "v",
          "type": "uint8"
        },
        {
          "internalType": "bytes32",
          "name": "r",
          "type": "bytes32"
        },
        {
          "internalType": "bytes32",
          "name": "s",
          "type": "bytes32"
        }
      ],
      "name": "permit",
      "outputs": [],
      "stateMutability": "nonpayable",
      "type": "function"
    },
    {
      "inputs": [
        {
          "internalType": "bytes32",
          "name": "role",
          "type": "bytes32"
        },
        {
          "internalType": "address",
          "name": "account",
          "type": "address"
        }
      ],
      "name": "renounceRole",
      "outputs": [],
      "stateMutability": "nonpayable",
      "type": "function"
    },
    {
      "inputs": [
        {
          "internalType": "bytes32",
          "name": "role",
          "type": "bytes32"
        },
        {
          "internalType": "address",
          "name": "account",
          "type": "address"
        }
      ],
      "name": "revokeRole",
      "outputs": [],
      "stateMutability": "nonpayable",
      "type": "function"
    },
    {
      "inputs": [
        {
          "internalType": "bytes4",
          "name": "interfaceId",
          "type": "bytes4"
        }
      ],
      "name": "supportsInterface",
      "outputs": [
        {
          "internalType": "bool",
          "name": "",
          "type": "bool"
        }
      ],
      "stateMutability": "view",
      "type": "function"
    },
    {
      "inputs": [],
      "name": "symbol",
      "outputs": [
        {
          "internalType": "string",
          "name": "",
          "type": "string"
        }
      ],
      "stateMutability": "view",
      "type": "function"
    },
    {
      "inputs": [],
      "name": "totalSupply",
      "outputs": [
        {
          "internalType": "uint256",
          "name": "",
          "type": "uint256"
        }
      ],
      "stateMutability": "view",
      "type": "function"
    },
    {
      "inputs": [
        {
          "internalType": "address",
          "name": "recipient",
          "type": "address"
        },
        {
          "internalType": "uint256",
          "name": "amount",
          "type": "uint256"
        }
      ],
      "name": "transfer",
      "outputs": [
        {
          "internalType": "bool",
          "name": "",
          "type": "bool"
        }
      ],
      "stateMutability": "nonpayable",
      "type": "function"
    },
    {
      "inputs": [
        {
          "internalType": "address",
          "name": "sender",
          "type": "address"
        },
        {
          "internalType": "address",
          "name": "recipient",
          "type": "address"
        },
        {
          "internalType": "uint256",
          "name": "amount",
          "type": "uint256"
        }
      ],
      "name": "transferFrom",
      "outputs": [
        {
          "internalType": "bool",
          "name": "",
          "type": "bool"
        }
      ],
      "stateMutability": "nonpayable",
      "type": "function"
    }
  ],
  "bytecode": "0x6101606040527f6e71edae12b1b97f4d1f60370fef10105fa2faae0126114a169c64845d6126c9610140523480156200003757600080fd5b5060405162003087380380620030878339810160408190526200005a91620009c3565b6040518060400160405280600381526020016254415560e81b81525080604051806040016040528060018152602001603160f81b81525060405180604001604052806006815260200165546f7271756560d01b8152506040518060400160405280600381526020016254415560e81b8152508160039080519060200190620000e492919062000927565b508051620000fa90600490602084019062000927565b5050825160208085019190912083518483012060e08290526101008190524660a0818152604080517f8b73c3c69bb8fe3d512ecc4cf759cc79239f7b179b0ffacaa9a75d522b39400f81880181905281830187905260608201869052608082019490945230818401528151808203909301835260c0019052805194019390932091935091906080523060601b60c0526101205250620001b093506000805160206200306783398151915292508291505062000219565b620001eb7f2df36fbac7566feedf22e54b2fd0f2a50d5e622c83b981e911819559af699b766000805160206200306783398151915262000219565b62000206600080516020620030678339815191523362000264565b62000212338262000309565b5062000a64565b600082815260096020526040808220600101805490849055905190918391839186917fbd79b86ffe0ab8e8776151514217cd7cacd52c909f66475c3af44e129f0b00ff9190a4505050565b60008281526009602090815260408083206001600160a01b038516845290915290205460ff16620003055760008281526009602090815260408083206001600160a01b03851684529091529020805460ff19166001179055620002c43390565b6001600160a01b0316816001600160a01b0316837f2f8788117e7eff1d82e926ec794901d17c78024a50270940304540a733656f0d60405160405180910390a45b5050565b6200030582826200032060201b62000e241760201c565b620003378282620003d760201b62000eb41760201c565b6001600160e01b036200034b620004c68216565b1115620003b85760405162461bcd60e51b815260206004820152603060248201527f4552433230566f7465733a20746f74616c20737570706c79207269736b73206f60448201526f766572666c6f77696e6720766f74657360801b60648201526084015b60405180910390fd5b620003d1600862000f9b620004cc60201b1783620004e1565b50505050565b6001600160a01b0382166200042f5760405162461bcd60e51b815260206004820152601f60248201527f45524332303a206d696e7420746f20746865207a65726f2061646472657373006044820152606401620003af565b8060026000828254620004439190620009dc565b90915550506001600160a01b0382166000908152602081905260408120805483929062000472908490620009dc565b90915550506040518181526001600160a01b038316906000907fddf252ad1be2c89b69c2b068fc378daa952ba7f163c4a11628f55a4df523b3ef9060200160405180910390a36200030560008383620006bc565b60025490565b6000620004da8284620009dc565b9392505050565b8254600090819080156200053f5785620004fd600183620009f7565b815481106200051c57634e487b7160e01b600052603260045260246000fd5b60009182526020909120015464010000000090046001600160e01b031662000542565b60005b6001600160e01b031692506200055983858760201c565b9150600081118015620005a95750438662000576600184620009f7565b815481106200059557634e487b7160e01b600052603260045260246000fd5b60009182526020909120015463ffffffff16145b156200062957620005c582620006d460201b62000fa71760201c565b86620005d3600184620009f7565b81548110620005f257634e487b7160e01b600052603260045260246000fd5b9060005260206000200160000160046101000a8154816001600160e01b0302191690836001600160e01b03160217905550620006ae565b8560405180604001604052806200064b436200074360201b620010141760201c565b63ffffffff1681526020016200066c85620006d460201b62000fa71760201c565b6001600160e01b0390811690915282546001810184556000938452602093849020835194909301519091166401000000000263ffffffff909316929092179101555b50935093915050565b505050565b620006b7838383620007aa60201b620010791760201c565b60006001600160e01b038211156200073f5760405162461bcd60e51b815260206004820152602760248201527f53616665436173743a2076616c756520646f65736e27742066697420696e20326044820152663234206269747360c81b6064820152608401620003af565b5090565b600063ffffffff8211156200073f5760405162461bcd60e51b815260206004820152602660248201527f53616665436173743a2076616c756520646f65736e27742066697420696e203360448201526532206269747360d01b6064820152608401620003af565b620007c2838383620006b760201b620007021760201c565b6001600160a01b03838116600090815260066020526040808220548584168352912054620006b792918216911683818314801590620008015750600081115b15620006b7576001600160a01b038316156200088e576001600160a01b0383166000908152600760209081526040822082916200084b919062000919901b620010ab1785620004e1565b91509150846001600160a01b031660008051602062003047833981519152838360405162000883929190918252602082015260400190565b60405180910390a250505b6001600160a01b03821615620006b7576001600160a01b038216600090815260076020908152604082208291620008d29190620004cc901b62000f9b1785620004e1565b91509150836001600160a01b03166000805160206200304783398151915283836040516200090a929190918252602082015260400190565b60405180910390a25050505050565b6000620004da8284620009f7565b828054620009359062000a11565b90600052602060002090601f016020900481019282620009595760008555620009a4565b82601f106200097457805160ff1916838001178555620009a4565b82800160010185558215620009a4579182015b82811115620009a457825182559160200191906001019062000987565b506200073f9291505b808211156200073f5760008155600101620009ad565b600060208284031215620009d5578081fd5b5051919050565b60008219821115620009f257620009f262000a4e565b500190565b60008282101562000a0c5762000a0c62000a4e565b500390565b600181811c9082168062000a2657607f821691505b6020821081141562000a4857634e487b7160e01b600052602260045260246000fd5b50919050565b634e487b7160e01b600052601160045260246000fd5b60805160a05160c05160601c60e05161010051610120516101405161258562000ac26000396000610c5c01526000611523015260006115720152600061154d015260006114a6015260006114d0015260006114fa01526125856000f3fe608060405234801561001057600080fd5b50600436106101fb5760003560e01c80636fcfff451161011a578063a217fddf116100ad578063d1efebfe1161007c578063d1efebfe1461048b578063d505accf146104b2578063d547741f146104c5578063dd62ed3e146104d8578063f1127ed81461051157600080fd5b8063a217fddf1461044a578063a457c2d714610452578063a9059cbb14610465578063c3cda5201461047857600080fd5b806391d14854116100e957806391d148541461040957806395d89b411461041c5780639ab24eb0146104245780639dc29fac1461043757600080fd5b80636fcfff451461039257806370a08231146103ba5780637ecebe00146103e35780638e539e8c146103f657600080fd5b8063313ce567116101925780633a46b1a8116101615780633a46b1a81461031557806340c10f1914610328578063587cde1e1461033b5780635c19a95c1461037f57600080fd5b8063313ce567146102d85780633644e515146102e757806336568abe146102ef578063395093511461030257600080fd5b806318160ddd116101ce57806318160ddd1461028557806323b872dd1461028d578063248a9ca3146102a05780632f2ff15d146102c357600080fd5b806301ffc9a71461020057806306fdde0314610228578063095ea7b31461023d5780630f9197c514610250575b600080fd5b61021361020e366004612383565b61054e565b60405190151581526020015b60405180910390f35b610230610585565b60405161021f9190612420565b61021361024b36600461228b565b610617565b6102777f2df36fbac7566feedf22e54b2fd0f2a50d5e622c83b981e911819559af699b7681565b60405190815260200161021f565b600254610277565b61021361029b3660046121e7565b61062d565b6102776102ae366004612349565b60009081526009602052604090206001015490565b6102d66102d1366004612361565b6106dc565b005b6040516012815260200161021f565b610277610707565b6102d66102fd366004612361565b610716565b61021361031036600461228b565b610794565b61027761032336600461228b565b6107d0565b6102d661033636600461228b565b61084a565b61036761034936600461219b565b6001600160a01b039081166000908152600660205260409020541690565b6040516001600160a01b03909116815260200161021f565b6102d661038d36600461219b565b61087f565b6103a56103a036600461219b565b61088c565b60405163ffffffff909116815260200161021f565b6102776103c836600461219b565b6001600160a01b031660009081526020819052604090205490565b6102776103f136600461219b565b6108ae565b610277610404366004612349565b6108cc565b610213610417366004612361565b610928565b610230610953565b61027761043236600461219b565b610962565b6102d661044536600461228b565b6109f7565b610277600081565b61021361046036600461228b565b610a2c565b61021361047336600461228b565b610ac5565b6102d66104863660046122b4565b610ad2565b6102777f9e262e26e9d5bf97da5c389e15529a31bb2b13d89967a4f6eab01792567d5fd681565b6102d66104c0366004612222565b610c08565b6102d66104d3366004612361565b610d6c565b6102776104e63660046121b5565b6001600160a01b03918216600090815260016020908152604080832093909416825291909152205490565b61052461051f36600461230b565b610d92565b60408051825163ffffffff1681526020928301516001600160e01b0316928101929092520161021f565b60006001600160e01b03198216637965db0b60e01b148061057f57506301ffc9a760e01b6001600160e01b03198316145b92915050565b60606003805461059490612504565b80601f01602080910402602001604051908101604052809291908181526020018280546105c090612504565b801561060d5780601f106105e25761010080835404028352916020019161060d565b820191906000526020600020905b8154815290600101906020018083116105f057829003601f168201915b5050505050905090565b60006106243384846110b7565b50600192915050565b600061063a8484846111db565b6001600160a01b0384166000908152600160209081526040808320338452909152902054828110156106c45760405162461bcd60e51b815260206004820152602860248201527f45524332303a207472616e7366657220616d6f756e74206578636565647320616044820152676c6c6f77616e636560c01b60648201526084015b60405180910390fd5b6106d185338584036110b7565b506001949350505050565b6000828152600960205260409020600101546106f881336113af565b6107028383611413565b505050565b6000610711611499565b905090565b6001600160a01b03811633146107865760405162461bcd60e51b815260206004820152602f60248201527f416363657373436f6e74726f6c3a2063616e206f6e6c792072656e6f756e636560448201526e103937b632b9903337b91039b2b63360891b60648201526084016106bb565b61079082826115c0565b5050565b3360008181526001602090815260408083206001600160a01b038716845290915281205490916106249185906107cb908690612453565b6110b7565b60004382106108215760405162461bcd60e51b815260206004820152601f60248201527f4552433230566f7465733a20626c6f636b206e6f7420796574206d696e65640060448201526064016106bb565b6001600160a01b03831660009081526007602052604090206108439083611627565b9392505050565b7f2df36fbac7566feedf22e54b2fd0f2a50d5e622c83b981e911819559af699b7661087581336113af565b6107028383611700565b610889338261170a565b50565b6001600160a01b03811660009081526007602052604081205461057f90611014565b6001600160a01b03811660009081526005602052604081205461057f565b600043821061091d5760405162461bcd60e51b815260206004820152601f60248201527f4552433230566f7465733a20626c6f636b206e6f7420796574206d696e65640060448201526064016106bb565b61057f600883611627565b60009182526009602090815260408084206001600160a01b0393909316845291905290205460ff1690565b60606004805461059490612504565b6001600160a01b03811660009081526007602052604081205480156109e4576001600160a01b03831660009081526007602052604090206109a46001836124aa565b815481106109c257634e487b7160e01b600052603260045260246000fd5b60009182526020909120015464010000000090046001600160e01b03166109e7565b60005b6001600160e01b03169392505050565b7f2df36fbac7566feedf22e54b2fd0f2a50d5e622c83b981e911819559af699b76610a2281336113af565b6107028383611783565b3360009081526001602090815260408083206001600160a01b038616845290915281205482811015610aae5760405162461bcd60e51b815260206004820152602560248201527f45524332303a2064656372656173656420616c6c6f77616e63652062656c6f77604482015264207a65726f60d81b60648201526084016106bb565b610abb33858584036110b7565b5060019392505050565b60006106243384846111db565b83421115610b225760405162461bcd60e51b815260206004820152601d60248201527f4552433230566f7465733a207369676e6174757265206578706972656400000060448201526064016106bb565b604080517fe48329057bfd03d55e49b547132e39cffd9c1820ad7b9d4c5307691425d15adf60208201526001600160a01b038816918101919091526060810186905260808101859052600090610b9c90610b949060a0016040516020818303038152906040528051906020012061178d565b8585856117db565b9050610ba781611803565b8614610bf55760405162461bcd60e51b815260206004820152601960248201527f4552433230566f7465733a20696e76616c6964206e6f6e63650000000000000060448201526064016106bb565b610bff818861170a565b50505050505050565b83421115610c585760405162461bcd60e51b815260206004820152601d60248201527f45524332305065726d69743a206578706972656420646561646c696e6500000060448201526064016106bb565b60007f0000000000000000000000000000000000000000000000000000000000000000888888610c878c611803565b6040805160208101969096526001600160a01b0394851690860152929091166060840152608083015260a082015260c0810186905260e0016040516020818303038152906040528051906020012090506000610ce28261178d565b90506000610cf2828787876117db565b9050896001600160a01b0316816001600160a01b031614610d555760405162461bcd60e51b815260206004820152601e60248201527f45524332305065726d69743a20696e76616c6964207369676e6174757265000060448201526064016106bb565b610d608a8a8a6110b7565b50505050505050505050565b600082815260096020526040902060010154610d8881336113af565b61070283836115c0565b60408051808201909152600080825260208201526001600160a01b0383166000908152600760205260409020805463ffffffff8416908110610de457634e487b7160e01b600052603260045260246000fd5b60009182526020918290206040805180820190915291015463ffffffff8116825264010000000090046001600160e01b0316918101919091529392505050565b610e2e8282610eb4565b6002546001600160e01b031015610ea05760405162461bcd60e51b815260206004820152603060248201527f4552433230566f7465733a20746f74616c20737570706c79207269736b73206f60448201526f766572666c6f77696e6720766f74657360801b60648201526084016106bb565b610eae6008610f9b8361182b565b50505050565b6001600160a01b038216610f0a5760405162461bcd60e51b815260206004820152601f60248201527f45524332303a206d696e7420746f20746865207a65726f20616464726573730060448201526064016106bb565b8060026000828254610f1c9190612453565b90915550506001600160a01b03821660009081526020819052604081208054839290610f49908490612453565b90915550506040518181526001600160a01b038316906000907fddf252ad1be2c89b69c2b068fc378daa952ba7f163c4a11628f55a4df523b3ef9060200160405180910390a3610790600083836119ce565b60006108438284612453565b60006001600160e01b038211156110105760405162461bcd60e51b815260206004820152602760248201527f53616665436173743a2076616c756520646f65736e27742066697420696e20326044820152663234206269747360c81b60648201526084016106bb565b5090565b600063ffffffff8211156110105760405162461bcd60e51b815260206004820152602660248201527f53616665436173743a2076616c756520646f65736e27742066697420696e203360448201526532206269747360d01b60648201526084016106bb565b6001600160a01b03838116600090815260066020526040808220548584168352912054610702929182169116836119d9565b600061084382846124aa565b6001600160a01b0383166111195760405162461bcd60e51b8152602060048201526024808201527f45524332303a20617070726f76652066726f6d20746865207a65726f206164646044820152637265737360e01b60648201526084016106bb565b6001600160a01b03821661117a5760405162461bcd60e51b815260206004820152602260248201527f45524332303a20617070726f766520746f20746865207a65726f206164647265604482015261737360f01b60648201526084016106bb565b6001600160a01b0383811660008181526001602090815260408083209487168084529482529182902085905590518481527f8c5be1e5ebec7d5bd14f71427d1e84f3dd0314c0f7b2291e5b200ac8c7c3b925910160405180910390a3505050565b6001600160a01b03831661123f5760405162461bcd60e51b815260206004820152602560248201527f45524332303a207472616e736665722066726f6d20746865207a65726f206164604482015264647265737360d81b60648201526084016106bb565b6001600160a01b0382166112a15760405162461bcd60e51b815260206004820152602360248201527f45524332303a207472616e7366657220746f20746865207a65726f206164647260448201526265737360e81b60648201526084016106bb565b6001600160a01b038316600090815260208190526040902054818110156113195760405162461bcd60e51b815260206004820152602660248201527f45524332303a207472616e7366657220616d6f756e7420657863656564732062604482015265616c616e636560d01b60648201526084016106bb565b6001600160a01b03808516600090815260208190526040808220858503905591851681529081208054849290611350908490612453565b92505081905550826001600160a01b0316846001600160a01b03167fddf252ad1be2c89b69c2b068fc378daa952ba7f163c4a11628f55a4df523b3ef8460405161139c91815260200190565b60405180910390a3610eae8484846119ce565b6113b98282610928565b610790576113d1816001600160a01b03166014611b16565b6113dc836020611b16565b6040516020016113ed9291906123ab565b60408051601f198184030181529082905262461bcd60e51b82526106bb91600401612420565b61141d8282610928565b6107905760008281526009602090815260408083206001600160a01b03851684529091529020805460ff191660011790556114553390565b6001600160a01b0316816001600160a01b0316837f2f8788117e7eff1d82e926ec794901d17c78024a50270940304540a733656f0d60405160405180910390a45050565b6000306001600160a01b037f0000000000000000000000000000000000000000000000000000000000000000161480156114f257507f000000000000000000000000000000000000000000000000000000000000000046145b1561151c57507f000000000000000000000000000000000000000000000000000000000000000090565b50604080517f00000000000000000000000000000000000000000000000000000000000000006020808301919091527f0000000000000000000000000000000000000000000000000000000000000000828401527f000000000000000000000000000000000000000000000000000000000000000060608301524660808301523060a0808401919091528351808403909101815260c0909201909252805191012090565b6115ca8282610928565b156107905760008281526009602090815260408083206001600160a01b0385168085529252808320805460ff1916905551339285917ff6391f5c32d9c69d2a47ea670b442974b53935d1edc7fd64eb21e047a839171b9190a45050565b8154600090815b818110156116995760006116428284611cf8565b90508486828154811061166557634e487b7160e01b600052603260045260246000fd5b60009182526020909120015463ffffffff16111561168557809250611693565b611690816001612453565b91505b5061162e565b81156116eb57846116ab6001846124aa565b815481106116c957634e487b7160e01b600052603260045260246000fd5b60009182526020909120015464010000000090046001600160e01b03166116ee565b60005b6001600160e01b031695945050505050565b6107908282610e24565b6001600160a01b038281166000818152600660208181526040808420805485845282862054949093528787166001600160a01b03198416811790915590519190951694919391928592917f3134e8a2e6d97e929a7e54011ea5485d7d196dd5f0ba4d4ef95803e8e3fc257f9190a4610eae8284836119d9565b6107908282611d13565b600061057f61179a611499565b8360405161190160f01b6020820152602281018390526042810182905260009060620160405160208183030381529060405280519060200120905092915050565b60008060006117ec87878787611d2b565b915091506117f981611e18565b5095945050505050565b6001600160a01b03811660009081526005602052604090208054600181018255905b50919050565b82546000908190801561188457856118446001836124aa565b8154811061186257634e487b7160e01b600052603260045260246000fd5b60009182526020909120015464010000000090046001600160e01b0316611887565b60005b6001600160e01b031692506118a083858763ffffffff16565b91506000811180156118ec575043866118ba6001846124aa565b815481106118d857634e487b7160e01b600052603260045260246000fd5b60009182526020909120015463ffffffff16145b1561195a576118fa82610fa7565b866119066001846124aa565b8154811061192457634e487b7160e01b600052603260045260246000fd5b9060005260206000200160000160046101000a8154816001600160e01b0302191690836001600160e01b031602179055506119c5565b85604051806040016040528061196f43611014565b63ffffffff16815260200161198385610fa7565b6001600160e01b0390811690915282546001810184556000938452602093849020835194909301519091166401000000000263ffffffff909316929092179101555b50935093915050565b610702838383611079565b816001600160a01b0316836001600160a01b0316141580156119fb5750600081115b15610702576001600160a01b03831615611a89576001600160a01b03831660009081526007602052604081208190611a36906110ab8561182b565b91509150846001600160a01b03167fdec2bacdd2f05b59de34da9b523dff8be42e5e38e818c82fdb0bae774387a7248383604051611a7e929190918252602082015260400190565b60405180910390a250505b6001600160a01b03821615610702576001600160a01b03821660009081526007602052604081208190611abf90610f9b8561182b565b91509150836001600160a01b03167fdec2bacdd2f05b59de34da9b523dff8be42e5e38e818c82fdb0bae774387a7248383604051611b07929190918252602082015260400190565b60405180910390a25050505050565b60606000611b2583600261248b565b611b30906002612453565b67ffffffffffffffff811115611b5657634e487b7160e01b600052604160045260246000fd5b6040519080825280601f01601f191660200182016040528015611b80576020820181803683370190505b509050600360fc1b81600081518110611ba957634e487b7160e01b600052603260045260246000fd5b60200101906001600160f81b031916908160001a905350600f60fb1b81600181518110611be657634e487b7160e01b600052603260045260246000fd5b60200101906001600160f81b031916908160001a9053506000611c0a84600261248b565b611c15906001612453565b90505b6001811115611ca9576f181899199a1a9b1b9c1cb0b131b232b360811b85600f1660108110611c5757634e487b7160e01b600052603260045260246000fd5b1a60f81b828281518110611c7b57634e487b7160e01b600052603260045260246000fd5b60200101906001600160f81b031916908160001a90535060049490941c93611ca2816124ed565b9050611c18565b5083156108435760405162461bcd60e51b815260206004820181905260248201527f537472696e67733a20686578206c656e67746820696e73756666696369656e7460448201526064016106bb565b6000611d07600284841861246b565b61084390848416612453565b611d1d8282612019565b610eae60086110ab8361182b565b6000807f7fffffffffffffffffffffffffffffff5d576e7357a4501ddfe92f46681b20a0831115611d625750600090506003611e0f565b8460ff16601b14158015611d7a57508460ff16601c14155b15611d8b5750600090506004611e0f565b6040805160008082526020820180845289905260ff881692820192909252606081018690526080810185905260019060a0016020604051602081039080840390855afa158015611ddf573d6000803e3d6000fd5b5050604051601f1901519150506001600160a01b038116611e0857600060019250925050611e0f565b9150600090505b94509492505050565b6000816004811115611e3a57634e487b7160e01b600052602160045260246000fd5b1415611e435750565b6001816004811115611e6557634e487b7160e01b600052602160045260246000fd5b1415611eb35760405162461bcd60e51b815260206004820152601860248201527f45434453413a20696e76616c6964207369676e6174757265000000000000000060448201526064016106bb565b6002816004811115611ed557634e487b7160e01b600052602160045260246000fd5b1415611f235760405162461bcd60e51b815260206004820152601f60248201527f45434453413a20696e76616c6964207369676e6174757265206c656e6774680060448201526064016106bb565b6003816004811115611f4557634e487b7160e01b600052602160045260246000fd5b1415611f9e5760405162461bcd60e51b815260206004820152602260248201527f45434453413a20696e76616c6964207369676e6174757265202773272076616c604482015261756560f01b60648201526084016106bb565b6004816004811115611fc057634e487b7160e01b600052602160045260246000fd5b14156108895760405162461bcd60e51b815260206004820152602260248201527f45434453413a20696e76616c6964207369676e6174757265202776272076616c604482015261756560f01b60648201526084016106bb565b6001600160a01b0382166120795760405162461bcd60e51b815260206004820152602160248201527f45524332303a206275726e2066726f6d20746865207a65726f206164647265736044820152607360f81b60648201526084016106bb565b6001600160a01b038216600090815260208190526040902054818110156120ed5760405162461bcd60e51b815260206004820152602260248201527f45524332303a206275726e20616d6f756e7420657863656564732062616c616e604482015261636560f01b60648201526084016106bb565b6001600160a01b038316600090815260208190526040812083830390556002805484929061211c9084906124aa565b90915550506040518281526000906001600160a01b038516907fddf252ad1be2c89b69c2b068fc378daa952ba7f163c4a11628f55a4df523b3ef9060200160405180910390a3610702836000846119ce565b80356001600160a01b038116811461218557600080fd5b919050565b803560ff8116811461218557600080fd5b6000602082840312156121ac578081fd5b6108438261216e565b600080604083850312156121c7578081fd5b6121d08361216e565b91506121de6020840161216e565b90509250929050565b6000806000606084860312156121fb578081fd5b6122048461216e565b92506122126020850161216e565b9150604084013590509250925092565b600080600080600080600060e0888a03121561223c578283fd5b6122458861216e565b96506122536020890161216e565b9550604088013594506060880135935061226f6080890161218a565b925060a0880135915060c0880135905092959891949750929550565b6000806040838503121561229d578182fd5b6122a68361216e565b946020939093013593505050565b60008060008060008060c087890312156122cc578182fd5b6122d58761216e565b955060208701359450604087013593506122f16060880161218a565b92506080870135915060a087013590509295509295509295565b6000806040838503121561231d578182fd5b6123268361216e565b9150602083013563ffffffff8116811461233e578182fd5b809150509250929050565b60006020828403121561235a578081fd5b5035919050565b60008060408385031215612373578182fd5b823591506121de6020840161216e565b600060208284031215612394578081fd5b81356001600160e01b031981168114610843578182fd5b7f416363657373436f6e74726f6c3a206163636f756e74200000000000000000008152600083516123e38160178501602088016124c1565b7001034b99036b4b9b9b4b733903937b6329607d1b60179184019182015283516124148160288401602088016124c1565b01602801949350505050565b602081526000825180602084015261243f8160408501602087016124c1565b601f01601f19169190910160400192915050565b6000821982111561246657612466612539565b500190565b60008261248657634e487b7160e01b81526012600452602481fd5b500490565b60008160001904831182151516156124a5576124a5612539565b500290565b6000828210156124bc576124bc612539565b500390565b60005b838110156124dc5781810151838201526020016124c4565b83811115610eae5750506000910152565b6000816124fc576124fc612539565b506000190190565b600181811c9082168061251857607f821691505b6020821081141561182557634e487b7160e01b600052602260045260246000fd5b634e487b7160e01b600052601160045260246000fdfea2646970667358221220a7a68ea733f30eb144888d3021f027067e9adf9283437ce7eccc166a5347773f64736f6c63430008040033dec2bacdd2f05b59de34da9b523dff8be42e5e38e818c82fdb0bae774387a7249e262e26e9d5bf97da5c389e15529a31bb2b13d89967a4f6eab01792567d5fd6",
  "linkReferences": {},
  "deployedLinkReferences": {}
}