{
  "_format": "hh-sol-artifact-1",
  "contractName": "Converter",
  "sourceName": "contracts/Converter/Converter.sol",
  "abi": [
    {
      "inputs": [
        {
          "internalType": "address",
          "name": "router_",
          "type": "address"
        }
      ],
      "stateMutability": "nonpayable",
      "type": "constructor"
    },
    {
      "anonymous": false,
      "inputs": [
        {
          "indexed": true,
          "internalType": "address",
          "name": "previousOwner",
          "type": "address"
        },
        {
          "indexed": true,
          "internalType": "address",
          "name": "newOwner",
          "type": "address"
        }
      ],
      "name": "OwnershipTransferred",
      "type": "event"
    },
    {
      "inputs": [
        {
          "internalType": "address",
          "name": "tokenIn_",
          "type": "address"
        },
        {
          "internalType": "uint256",
          "name": "amountIn_",
          "type": "uint256"
        }
      ],
      "name": "maxAmountEthOut",
      "outputs": [
        {
          "internalType": "uint256",
          "name": "",
          "type": "uint256"
        }
      ],
      "stateMutability": "view",
      "type": "function"
    },
    {
      "inputs": [
        {
          "internalType": "address",
          "name": "tokenIn_",
          "type": "address"
        },
        {
          "internalType": "uint256",
          "name": "amountIn_",
          "type": "uint256"
        },
        {
          "internalType": "address",
          "name": "tokenOut_",
          "type": "address"
        }
      ],
      "name": "maxAmountTokenOut",
      "outputs": [
        {
          "internalType": "uint256",
          "name": "",
          "type": "uint256"
        }
      ],
      "stateMutability": "view",
      "type": "function"
    },
    {
      "inputs": [
        {
          "internalType": "address",
          "name": "tokenIn_",
          "type": "address"
        },
        {
          "internalType": "uint256",
          "name": "amountOut_",
          "type": "uint256"
        }
      ],
      "name": "minAmountTokenInEthOut",
      "outputs": [
        {
          "internalType": "uint256",
          "name": "",
          "type": "uint256"
        }
      ],
      "stateMutability": "view",
      "type": "function"
    },
    {
      "inputs": [
        {
          "internalType": "address",
          "name": "tokenIn_",
          "type": "address"
        },
        {
          "internalType": "address",
          "name": "tokenOut_",
          "type": "address"
        },
        {
          "internalType": "uint256",
          "name": "amountOut_",
          "type": "uint256"
        }
      ],
      "name": "minAmountTokenInTokenOut",
      "outputs": [
        {
          "internalType": "uint256",
          "name": "",
          "type": "uint256"
        }
      ],
      "stateMutability": "view",
      "type": "function"
    },
    {
      "inputs": [],
      "name": "owner",
      "outputs": [
        {
          "internalType": "address",
          "name": "",
          "type": "address"
        }
      ],
      "stateMutability": "view",
      "type": "function"
    },
    {
      "inputs": [],
      "name": "renounceOwnership",
      "outputs": [],
      "stateMutability": "nonpayable",
      "type": "function"
    },
    {
      "inputs": [],
      "name": "router",
      "outputs": [
        {
          "internalType": "address",
          "name": "",
          "type": "address"
        }
      ],
      "stateMutability": "view",
      "type": "function"
    },
    {
      "inputs": [
        {
          "internalType": "address",
          "name": "router_",
          "type": "address"
        }
      ],
      "name": "setRouter",
      "outputs": [],
      "stateMutability": "nonpayable",
      "type": "function"
    },
    {
      "inputs": [
        {
          "internalType": "address",
          "name": "tokenOut_",
          "type": "address"
        }
      ],
      "name": "swapMaxEthIn",
      "outputs": [
        {
          "internalType": "uint256",
          "name": "",
          "type": "uint256"
        }
      ],
      "stateMutability": "payable",
      "type": "function"
    },
    {
      "inputs": [
        {
          "internalType": "address",
          "name": "tokenIn_",
          "type": "address"
        },
        {
          "internalType": "uint256",
          "name": "amountIn_",
          "type": "uint256"
        }
      ],
      "name": "swapMaxEthOut",
      "outputs": [
        {
          "internalType": "uint256",
          "name": "",
          "type": "uint256"
        }
      ],
      "stateMutability": "nonpayable",
      "type": "function"
    },
    {
      "inputs": [
        {
          "internalType": "address",
          "name": "tokenIn_",
          "type": "address"
        },
        {
          "internalType": "uint256",
          "name": "amountIn_",
          "type": "uint256"
        },
        {
          "internalType": "address",
          "name": "tokenOut_",
          "type": "address"
        }
      ],
      "name": "swapMaxTokenOut",
      "outputs": [
        {
          "internalType": "uint256",
          "name": "",
          "type": "uint256"
        }
      ],
      "stateMutability": "nonpayable",
      "type": "function"
    },
    {
      "inputs": [
        {
          "internalType": "address",
          "name": "newOwner",
          "type": "address"
        }
      ],
      "name": "transferOwnership",
      "outputs": [],
      "stateMutability": "nonpayable",
      "type": "function"
    },
    {
      "stateMutability": "payable",
      "type": "receive"
    }
  ],
  "bytecode": "0x608060405234801561001057600080fd5b506040516119d13803806119d183398101604081905261002f916100ad565b6100383361005d565b600180546001600160a01b0319166001600160a01b03929092169190911790556100dd565b600080546001600160a01b038381166001600160a01b0319831681178455604051919092169283917f8be0079c531659141344cd1fd0a4f28419497f9722a3daafe3b4186f6b6457e09190a35050565b6000602082840312156100bf57600080fd5b81516001600160a01b03811681146100d657600080fd5b9392505050565b6118e5806100ec6000396000f3fe6080604052600436106100ab5760003560e01c8063c0c3d39711610064578063c0c3d39714610186578063c0d78655146101a6578063d868e12d146101c6578063f2fde38b146101e6578063f887ea4014610206578063fcf5ee8d1461022657600080fd5b8063715018a6146100b757806373a1abe0146100ce5780638da5cb5b146101015780639994f75e14610133578063af61ef3114610153578063bd046e1a1461016657600080fd5b366100b257005b600080fd5b3480156100c357600080fd5b506100cc610246565b005b3480156100da57600080fd5b506100ee6100e93660046114de565b610285565b6040519081526020015b60405180910390f35b34801561010d57600080fd5b506000546001600160a01b03165b6040516001600160a01b0390911681526020016100f8565b34801561013f57600080fd5b506100ee61014e366004611520565b610393565b6100ee610161366004611561565b61043e565b34801561017257600080fd5b506100ee61018136600461157e565b610613565b34801561019257600080fd5b506100ee6101a136600461157e565b6106ec565b3480156101b257600080fd5b506100cc6101c1366004611561565b6107a6565b3480156101d257600080fd5b506100ee6101e13660046114de565b6107f2565b3480156101f257600080fd5b506100cc610201366004611561565b610863565b34801561021257600080fd5b5060015461011b906001600160a01b031681565b34801561023257600080fd5b506100ee61024136600461157e565b6108fe565b6000546001600160a01b031633146102795760405162461bcd60e51b8152600401610270906115aa565b60405180910390fd5b6102836000610b92565b565b6000806102928584610be2565b90506102ab335b6001600160a01b038716903087610ec2565b6001546102c5906001600160a01b03878116911686610f33565b6001546000906001600160a01b03166338ed1739868385336102e84260016115f5565b6040518663ffffffff1660e01b8152600401610308959493929190611651565b600060405180830381600087803b15801561032257600080fd5b505af1158015610336573d6000803e3d6000fd5b505050506040513d6000823e601f3d908101601f1916820160405261035e91908101906116a3565b6001835161036c9190611761565b8151811061037c5761037c611778565b6020026020010151905080925050505b9392505050565b6000806103a08585610be2565b6001546040516307c0329d60e21b81529192506000916001600160a01b0390911690631f00ca74906103d8908790869060040161178e565b60006040518083038186803b1580156103f057600080fd5b505afa158015610404573d6000803e3d6000fd5b505050506040513d6000823e601f3d908101601f1916820160405261042c91908101906116a3565b60008151811061037c5761037c611778565b600080600061044c8461105c565b91509150811561054e57600154604080516315ab88c960e31b815290516000926001600160a01b03169163ad5c4648916004808301926020929190829003018186803b15801561049b57600080fd5b505afa1580156104af573d6000803e3d6000fd5b505050506040513d601f19601f820116820180604052508101906104d391906117a7565b9050806001600160a01b031663d0e30db0346040518263ffffffff1660e01b81526004016000604051808303818588803b15801561051057600080fd5b505af1158015610524573d6000803e3d6000fd5b50505050506105446105333390565b6001600160a01b038316903461119e565b5034949350505050565b6001546001600160a01b0316637ff36ab5346000843361056f4260016115f5565b6040518663ffffffff1660e01b815260040161058e94939291906117c4565b6000604051808303818588803b1580156105a757600080fd5b505af11580156105bb573d6000803e3d6000fd5b50505050506040513d6000823e601f3d908101601f191682016040526105e491908101906116a3565b600182516105f29190611761565b8151811061060257610602611778565b602002602001015192505050919050565b6000806000610621856111ce565b9150915081156106355783925050506106e6565b60015460405163d06ca61f60e01b81526001600160a01b039091169063d06ca61f90610667908790859060040161178e565b60006040518083038186803b15801561067f57600080fd5b505afa158015610693573d6000803e3d6000fd5b505050506040513d6000823e601f3d908101601f191682016040526106bb91908101906116a3565b600182516106c99190611761565b815181106106d9576106d9611778565b6020026020010151925050505b92915050565b60008060006106fa8561105c565b91509150811561070e5783925050506106e6565b6001546040516307c0329d60e21b81526001600160a01b0390911690631f00ca7490610740908790859060040161178e565b60006040518083038186803b15801561075857600080fd5b505afa15801561076c573d6000803e3d6000fd5b505050506040513d6000823e601f3d908101601f1916820160405261079491908101906116a3565b6000815181106106d9576106d9611778565b6000546001600160a01b031633146107d05760405162461bcd60e51b8152600401610270906115aa565b600180546001600160a01b0319166001600160a01b0392909216919091179055565b6000806107ff8584610be2565b60015460405163d06ca61f60e01b81529192506000916001600160a01b039091169063d06ca61f90610837908890869060040161178e565b60006040518083038186803b15801561084f57600080fd5b505afa158015610336573d6000803e3d6000fd5b6000546001600160a01b0316331461088d5760405162461bcd60e51b8152600401610270906115aa565b6001600160a01b0381166108f25760405162461bcd60e51b815260206004820152602660248201527f4f776e61626c653a206e6577206f776e657220697320746865207a65726f206160448201526564647265737360d01b6064820152608401610270565b6108fb81610b92565b50565b600080600061090c856111ce565b9150915061091a6102993390565b8115610b0957600154604080516315ab88c960e31b815290516000926001600160a01b03169163ad5c4648916004808301926020929190829003018186803b15801561096557600080fd5b505afa158015610979573d6000803e3d6000fd5b505050506040513d601f19601f8201168201806040525081019061099d91906117a7565b604051632e1a7d4d60e01b8152600481018790529091506001600160a01b03821690632e1a7d4d90602401600060405180830381600087803b1580156109e257600080fd5b505af11580156109f6573d6000803e3d6000fd5b505050506000610a033390565b604080516000815260208101918290526001600160a01b0392909216918891610a2c9190611825565b60006040518083038185875af1925050503d8060008114610a69576040519150601f19603f3d011682016040523d82523d6000602084013e610a6e565b606091505b5050905080610afd5760405162461bcd60e51b815260206004820152604f60248201527f436f6e7665727465723a204661696c656420746f207472616e7366657220455460448201527f4820746f2063616c6c65722e204d616b65207375726520636f6e74726163742060648201526e1858d8d95c1d1cc81c185e5b595b9d608a1b608482015260a401610270565b859450505050506106e6565b600154610b23906001600160a01b03878116911686610f33565b6001546001600160a01b03166318cbafe58560008433610b444260016115f5565b6040518663ffffffff1660e01b8152600401610b64959493929190611651565b600060405180830381600087803b158015610b7e57600080fd5b505af1158015610693573d6000803e3d6000fd5b600080546001600160a01b038381166001600160a01b0319831681178455604051919092169283917f8be0079c531659141344cd1fd0a4f28419497f9722a3daafe3b4186f6b6457e09190a35050565b6060816001600160a01b0316836001600160a01b03161415610c525760405162461bcd60e51b8152602060048201526024808201527f436f6e7665727465723a20546f6b656e732063616e6e6f74206265207468652060448201526373616d6560e01b6064820152608401610270565b600154604080516315ab88c960e31b815290516000926001600160a01b03169163ad5c4648916004808301926020929190829003018186803b158015610c9757600080fd5b505afa158015610cab573d6000803e3d6000fd5b505050506040513d601f19601f82011682018060405250810190610ccf91906117a7565b90506060816001600160a01b0316856001600160a01b03161415610d7a5760408051600280825260608201835290916020830190803683370190505090508181600081518110610d2157610d21611778565b60200260200101906001600160a01b031690816001600160a01b0316815250508381600181518110610d5557610d55611778565b60200260200101906001600160a01b031690816001600160a01b031681525050610eba565b816001600160a01b0316846001600160a01b03161415610dfc5760408051600280825260608201835290916020830190803683370190505090508481600081518110610dc857610dc8611778565b60200260200101906001600160a01b031690816001600160a01b0316815250508181600181518110610d5557610d55611778565b6040805160038082526080820190925290602082016060803683370190505090508481600081518110610e3157610e31611778565b60200260200101906001600160a01b031690816001600160a01b0316815250508181600181518110610e6557610e65611778565b60200260200101906001600160a01b031690816001600160a01b0316815250508381600281518110610e9957610e99611778565b60200260200101906001600160a01b031690816001600160a01b0316815250505b949350505050565b6040516001600160a01b0380851660248301528316604482015260648101829052610f2d9085906323b872dd60e01b906084015b60408051601f198184030181529190526020810180516001600160e01b03166001600160e01b0319909316929092179091526112ec565b50505050565b801580610fbc5750604051636eb1769f60e11b81523060048201526001600160a01b03838116602483015284169063dd62ed3e9060440160206040518083038186803b158015610f8257600080fd5b505afa158015610f96573d6000803e3d6000fd5b505050506040513d601f19601f82011682018060405250810190610fba9190611841565b155b6110275760405162461bcd60e51b815260206004820152603660248201527f5361666545524332303a20617070726f76652066726f6d206e6f6e2d7a65726f60448201527520746f206e6f6e2d7a65726f20616c6c6f77616e636560501b6064820152608401610270565b6040516001600160a01b03831660248201526044810182905261105790849063095ea7b360e01b90606401610ef6565b505050565b600060606000600160009054906101000a90046001600160a01b03166001600160a01b031663ad5c46486040518163ffffffff1660e01b815260040160206040518083038186803b1580156110b057600080fd5b505afa1580156110c4573d6000803e3d6000fd5b505050506040513d601f19601f820116820180604052508101906110e891906117a7565b90506060816001600160a01b0316856001600160a01b031614156111125760019590945092505050565b6040805160028082526060820183529091602083019080368337019050509050818160008151811061114657611146611778565b60200260200101906001600160a01b031690816001600160a01b031681525050848160018151811061117a5761117a611778565b6001600160a01b039092166020928302919091019091015260009590945092505050565b6040516001600160a01b03831660248201526044810182905261105790849063a9059cbb60e01b90606401610ef6565b600060606000600160009054906101000a90046001600160a01b03166001600160a01b031663ad5c46486040518163ffffffff1660e01b815260040160206040518083038186803b15801561122257600080fd5b505afa158015611236573d6000803e3d6000fd5b505050506040513d601f19601f8201168201806040525081019061125a91906117a7565b90506060816001600160a01b0316856001600160a01b031614156112845760019590945092505050565b604080516002808252606082018352909160208301908036833701905050905084816000815181106112b8576112b8611778565b60200260200101906001600160a01b031690816001600160a01b031681525050818160018151811061117a5761117a611778565b6000611341826040518060400160405280602081526020017f5361666545524332303a206c6f772d6c6576656c2063616c6c206661696c6564815250856001600160a01b03166113be9092919063ffffffff16565b805190915015611057578080602001905181019061135f919061185a565b6110575760405162461bcd60e51b815260206004820152602a60248201527f5361666545524332303a204552433230206f7065726174696f6e20646964206e6044820152691bdd081cdd58d8d9595960b21b6064820152608401610270565b6060610eba848460008585843b6114175760405162461bcd60e51b815260206004820152601d60248201527f416464726573733a2063616c6c20746f206e6f6e2d636f6e74726163740000006044820152606401610270565b600080866001600160a01b031685876040516114339190611825565b60006040518083038185875af1925050503d8060008114611470576040519150601f19603f3d011682016040523d82523d6000602084013e611475565b606091505b5091509150611485828286611490565b979650505050505050565b6060831561149f57508161038c565b8251156114af5782518084602001fd5b8160405162461bcd60e51b8152600401610270919061187c565b6001600160a01b03811681146108fb57600080fd5b6000806000606084860312156114f357600080fd5b83356114fe816114c9565b9250602084013591506040840135611515816114c9565b809150509250925092565b60008060006060848603121561153557600080fd5b8335611540816114c9565b92506020840135611550816114c9565b929592945050506040919091013590565b60006020828403121561157357600080fd5b813561038c816114c9565b6000806040838503121561159157600080fd5b823561159c816114c9565b946020939093013593505050565b6020808252818101527f4f776e61626c653a2063616c6c6572206973206e6f7420746865206f776e6572604082015260600190565b634e487b7160e01b600052601160045260246000fd5b60008219821115611608576116086115df565b500190565b600081518084526020808501945080840160005b838110156116465781516001600160a01b031687529582019590820190600101611621565b509495945050505050565b85815284602082015260a06040820152600061167060a083018661160d565b6001600160a01b0394909416606083015250608001529392505050565b634e487b7160e01b600052604160045260246000fd5b600060208083850312156116b657600080fd5b825167ffffffffffffffff808211156116ce57600080fd5b818501915085601f8301126116e257600080fd5b8151818111156116f4576116f461168d565b8060051b604051601f19603f830116810181811085821117156117195761171961168d565b60405291825284820192508381018501918883111561173757600080fd5b938501935b828510156117555784518452938501939285019261173c565b98975050505050505050565b600082821015611773576117736115df565b500390565b634e487b7160e01b600052603260045260246000fd5b828152604060208201526000610eba604083018461160d565b6000602082840312156117b957600080fd5b815161038c816114c9565b8481526080602082015260006117dd608083018661160d565b6001600160a01b03949094166040830152506060015292915050565b60005b838110156118145781810151838201526020016117fc565b83811115610f2d5750506000910152565b600082516118378184602087016117f9565b9190910192915050565b60006020828403121561185357600080fd5b5051919050565b60006020828403121561186c57600080fd5b8151801515811461038c57600080fd5b602081526000825180602084015261189b8160408501602087016117f9565b601f01601f1916919091016040019291505056fea2646970667358221220db87c2a9486ce2d110c6134f1a2f2da624e80125e5f516eb8df67eecb414001f64736f6c63430008090033",
  "linkReferences": {},
  "deployedLinkReferences": {}
}