{
  "_format": "hh-sol-artifact-1",
  "contractName": "LPool",
  "sourceName": "contracts/LPool/LPool.sol",
  "abi": [
    {
      "anonymous": false,
      "inputs": [
        {
          "indexed": true,
          "internalType": "address",
          "name": "account",
          "type": "address"
        },
        {
          "indexed": false,
          "internalType": "address",
          "name": "token",
          "type": "address"
        },
        {
          "indexed": false,
          "internalType": "uint256",
          "name": "amount",
          "type": "uint256"
        },
        {
          "indexed": false,
          "internalType": "uint256",
          "name": "lpTokenAmount",
          "type": "uint256"
        }
      ],
      "name": "AddLiquidity",
      "type": "event"
    },
    {
      "anonymous": false,
      "inputs": [
        {
          "indexed": true,
          "internalType": "address",
          "name": "account",
          "type": "address"
        },
        {
          "indexed": false,
          "internalType": "address",
          "name": "token",
          "type": "address"
        },
        {
          "indexed": false,
          "internalType": "uint256",
          "name": "amount",
          "type": "uint256"
        },
        {
          "indexed": false,
          "internalType": "address",
          "name": "convertedToken",
          "type": "address"
        },
        {
          "indexed": false,
          "internalType": "uint256",
          "name": "convertedAmount",
          "type": "uint256"
        }
      ],
      "name": "Deposit",
      "type": "event"
    },
    {
      "anonymous": false,
      "inputs": [
        {
          "indexed": false,
          "internalType": "address",
          "name": "account",
          "type": "address"
        }
      ],
      "name": "Paused",
      "type": "event"
    },
    {
      "anonymous": false,
      "inputs": [
        {
          "indexed": true,
          "internalType": "address",
          "name": "account",
          "type": "address"
        },
        {
          "indexed": false,
          "internalType": "address",
          "name": "token",
          "type": "address"
        },
        {
          "indexed": false,
          "internalType": "uint256",
          "name": "amount",
          "type": "uint256"
        },
        {
          "indexed": false,
          "internalType": "uint256",
          "name": "poolTokenAmount",
          "type": "uint256"
        }
      ],
      "name": "RedeemLiquidity",
      "type": "event"
    },
    {
      "anonymous": false,
      "inputs": [
        {
          "indexed": true,
          "internalType": "bytes32",
          "name": "role",
          "type": "bytes32"
        },
        {
          "indexed": true,
          "internalType": "bytes32",
          "name": "previousAdminRole",
          "type": "bytes32"
        },
        {
          "indexed": true,
          "internalType": "bytes32",
          "name": "newAdminRole",
          "type": "bytes32"
        }
      ],
      "name": "RoleAdminChanged",
      "type": "event"
    },
    {
      "anonymous": false,
      "inputs": [
        {
          "indexed": true,
          "internalType": "bytes32",
          "name": "role",
          "type": "bytes32"
        },
        {
          "indexed": true,
          "internalType": "address",
          "name": "account",
          "type": "address"
        },
        {
          "indexed": true,
          "internalType": "address",
          "name": "sender",
          "type": "address"
        }
      ],
      "name": "RoleGranted",
      "type": "event"
    },
    {
      "anonymous": false,
      "inputs": [
        {
          "indexed": true,
          "internalType": "bytes32",
          "name": "role",
          "type": "bytes32"
        },
        {
          "indexed": true,
          "internalType": "address",
          "name": "account",
          "type": "address"
        },
        {
          "indexed": true,
          "internalType": "address",
          "name": "sender",
          "type": "address"
        }
      ],
      "name": "RoleRevoked",
      "type": "event"
    },
    {
      "anonymous": false,
      "inputs": [
        {
          "indexed": false,
          "internalType": "address",
          "name": "account",
          "type": "address"
        }
      ],
      "name": "Unpaused",
      "type": "event"
    },
    {
      "anonymous": false,
      "inputs": [
        {
          "indexed": true,
          "internalType": "address",
          "name": "account",
          "type": "address"
        },
        {
          "indexed": false,
          "internalType": "address",
          "name": "token",
          "type": "address"
        },
        {
          "indexed": false,
          "internalType": "uint256",
          "name": "amount",
          "type": "uint256"
        }
      ],
      "name": "Withdraw",
      "type": "event"
    },
    {
      "inputs": [],
      "name": "DEFAULT_ADMIN_ROLE",
      "outputs": [
        {
          "internalType": "bytes32",
          "name": "",
          "type": "bytes32"
        }
      ],
      "stateMutability": "view",
      "type": "function"
    },
    {
      "inputs": [
        {
          "internalType": "address",
          "name": "token_",
          "type": "address"
        }
      ],
      "name": "LPFromPT",
      "outputs": [
        {
          "internalType": "address",
          "name": "",
          "type": "address"
        }
      ],
      "stateMutability": "view",
      "type": "function"
    },
    {
      "inputs": [],
      "name": "POOL_ADMIN",
      "outputs": [
        {
          "internalType": "bytes32",
          "name": "",
          "type": "bytes32"
        }
      ],
      "stateMutability": "view",
      "type": "function"
    },
    {
      "inputs": [
        {
          "internalType": "address",
          "name": "token_",
          "type": "address"
        }
      ],
      "name": "PTFromLP",
      "outputs": [
        {
          "internalType": "address",
          "name": "",
          "type": "address"
        }
      ],
      "stateMutability": "view",
      "type": "function"
    },
    {
      "inputs": [
        {
          "internalType": "address[]",
          "name": "token_",
          "type": "address[]"
        },
        {
          "internalType": "address[]",
          "name": "lpToken_",
          "type": "address[]"
        }
      ],
      "name": "addLPToken",
      "outputs": [],
      "stateMutability": "nonpayable",
      "type": "function"
    },
    {
      "inputs": [
        {
          "internalType": "address",
          "name": "account_",
          "type": "address"
        }
      ],
      "name": "addTaxAccount",
      "outputs": [],
      "stateMutability": "nonpayable",
      "type": "function"
    },
    {
      "inputs": [
        {
          "internalType": "address",
          "name": "token_",
          "type": "address"
        },
        {
          "internalType": "uint256",
          "name": "amount_",
          "type": "uint256"
        }
      ],
      "name": "claim",
      "outputs": [],
      "stateMutability": "nonpayable",
      "type": "function"
    },
    {
      "inputs": [],
      "name": "converter",
      "outputs": [
        {
          "internalType": "address",
          "name": "",
          "type": "address"
        }
      ],
      "stateMutability": "view",
      "type": "function"
    },
    {
      "inputs": [
        {
          "internalType": "address",
          "name": "token_",
          "type": "address"
        },
        {
          "internalType": "uint256",
          "name": "amount_",
          "type": "uint256"
        }
      ],
      "name": "deposit",
      "outputs": [],
      "stateMutability": "nonpayable",
      "type": "function"
    },
    {
      "inputs": [
        {
          "internalType": "bytes32",
          "name": "role",
          "type": "bytes32"
        }
      ],
      "name": "getRoleAdmin",
      "outputs": [
        {
          "internalType": "bytes32",
          "name": "",
          "type": "bytes32"
        }
      ],
      "stateMutability": "view",
      "type": "function"
    },
    {
      "inputs": [
        {
          "internalType": "bytes32",
          "name": "role",
          "type": "bytes32"
        },
        {
          "internalType": "address",
          "name": "account",
          "type": "address"
        }
      ],
      "name": "grantRole",
      "outputs": [],
      "stateMutability": "nonpayable",
      "type": "function"
    },
    {
      "inputs": [
        {
          "internalType": "bytes32",
          "name": "role",
          "type": "bytes32"
        },
        {
          "internalType": "address",
          "name": "account",
          "type": "address"
        }
      ],
      "name": "hasRole",
      "outputs": [
        {
          "internalType": "bool",
          "name": "",
          "type": "bool"
        }
      ],
      "stateMutability": "view",
      "type": "function"
    },
    {
      "inputs": [
        {
          "internalType": "address",
          "name": "converter_",
          "type": "address"
        },
        {
          "internalType": "address",
          "name": "oracle_",
          "type": "address"
        },
        {
          "internalType": "uint256",
          "name": "taxPercentNumerator_",
          "type": "uint256"
        },
        {
          "internalType": "uint256",
          "name": "taxPercentDenominator_",
          "type": "uint256"
        },
        {
          "internalType": "uint256",
          "name": "timePerInterestApplication_",
          "type": "uint256"
        }
      ],
      "name": "initialize",
      "outputs": [],
      "stateMutability": "nonpayable",
      "type": "function"
    },
    {
      "inputs": [
        {
          "internalType": "address",
          "name": "converter_",
          "type": "address"
        },
        {
          "internalType": "address",
          "name": "oracle_",
          "type": "address"
        }
      ],
      "name": "initializeLPoolCore",
      "outputs": [],
      "stateMutability": "nonpayable",
      "type": "function"
    },
    {
      "inputs": [
        {
          "internalType": "uint256",
          "name": "timePerInterestApplication_",
          "type": "uint256"
        }
      ],
      "name": "initializeLPoolInterest",
      "outputs": [],
      "stateMutability": "nonpayable",
      "type": "function"
    },
    {
      "inputs": [
        {
          "internalType": "uint256",
          "name": "taxPercentNumerator_",
          "type": "uint256"
        },
        {
          "internalType": "uint256",
          "name": "taxPercentDenominator_",
          "type": "uint256"
        }
      ],
      "name": "initializeLPoolTax",
      "outputs": [],
      "stateMutability": "nonpayable",
      "type": "function"
    },
    {
      "inputs": [
        {
          "internalType": "address",
          "name": "token_",
          "type": "address"
        },
        {
          "internalType": "uint256",
          "name": "borrowPrice_",
          "type": "uint256"
        },
        {
          "internalType": "uint256",
          "name": "borrowTime_",
          "type": "uint256"
        }
      ],
      "name": "interest",
      "outputs": [
        {
          "internalType": "uint256",
          "name": "",
          "type": "uint256"
        }
      ],
      "stateMutability": "view",
      "type": "function"
    },
    {
      "inputs": [
        {
          "internalType": "address",
          "name": "token_",
          "type": "address"
        }
      ],
      "name": "interestRate",
      "outputs": [
        {
          "internalType": "uint256",
          "name": "",
          "type": "uint256"
        },
        {
          "internalType": "uint256",
          "name": "",
          "type": "uint256"
        }
      ],
      "stateMutability": "view",
      "type": "function"
    },
    {
      "inputs": [
        {
          "internalType": "address",
          "name": "token_",
          "type": "address"
        }
      ],
      "name": "isApprovedLP",
      "outputs": [
        {
          "internalType": "bool",
          "name": "",
          "type": "bool"
        }
      ],
      "stateMutability": "view",
      "type": "function"
    },
    {
      "inputs": [
        {
          "internalType": "address",
          "name": "token_",
          "type": "address"
        }
      ],
      "name": "isApprovedPT",
      "outputs": [
        {
          "internalType": "bool",
          "name": "",
          "type": "bool"
        }
      ],
      "stateMutability": "view",
      "type": "function"
    },
    {
      "inputs": [
        {
          "internalType": "address",
          "name": "token_",
          "type": "address"
        }
      ],
      "name": "isLP",
      "outputs": [
        {
          "internalType": "bool",
          "name": "",
          "type": "bool"
        }
      ],
      "stateMutability": "view",
      "type": "function"
    },
    {
      "inputs": [
        {
          "internalType": "address",
          "name": "token_",
          "type": "address"
        }
      ],
      "name": "isPT",
      "outputs": [
        {
          "internalType": "bool",
          "name": "",
          "type": "bool"
        }
      ],
      "stateMutability": "view",
      "type": "function"
    },
    {
      "inputs": [
        {
          "internalType": "address",
          "name": "token_",
          "type": "address"
        }
      ],
      "name": "liquidity",
      "outputs": [
        {
          "internalType": "uint256",
          "name": "",
          "type": "uint256"
        }
      ],
      "stateMutability": "view",
      "type": "function"
    },
    {
      "inputs": [
        {
          "internalType": "address",
          "name": "token_",
          "type": "address"
        }
      ],
      "name": "maxInterestMax",
      "outputs": [
        {
          "internalType": "uint256",
          "name": "",
          "type": "uint256"
        },
        {
          "internalType": "uint256",
          "name": "",
          "type": "uint256"
        }
      ],
      "stateMutability": "view",
      "type": "function"
    },
    {
      "inputs": [
        {
          "internalType": "address",
          "name": "token_",
          "type": "address"
        }
      ],
      "name": "maxInterestMin",
      "outputs": [
        {
          "internalType": "uint256",
          "name": "",
          "type": "uint256"
        },
        {
          "internalType": "uint256",
          "name": "",
          "type": "uint256"
        }
      ],
      "stateMutability": "view",
      "type": "function"
    },
    {
      "inputs": [
        {
          "internalType": "address",
          "name": "token_",
          "type": "address"
        }
      ],
      "name": "maxUtilization",
      "outputs": [
        {
          "internalType": "uint256",
          "name": "",
          "type": "uint256"
        },
        {
          "internalType": "uint256",
          "name": "",
          "type": "uint256"
        }
      ],
      "stateMutability": "view",
      "type": "function"
    },
    {
      "inputs": [],
      "name": "oracle",
      "outputs": [
        {
          "internalType": "address",
          "name": "",
          "type": "address"
        }
      ],
      "stateMutability": "view",
      "type": "function"
    },
    {
      "inputs": [],
      "name": "pause",
      "outputs": [],
      "stateMutability": "nonpayable",
      "type": "function"
    },
    {
      "inputs": [],
      "name": "paused",
      "outputs": [
        {
          "internalType": "bool",
          "name": "",
          "type": "bool"
        }
      ],
      "stateMutability": "view",
      "type": "function"
    },
    {
      "inputs": [
        {
          "internalType": "address",
          "name": "token_",
          "type": "address"
        },
        {
          "internalType": "uint256",
          "name": "amount_",
          "type": "uint256"
        }
      ],
      "name": "provideLiquidity",
      "outputs": [
        {
          "internalType": "uint256",
          "name": "",
          "type": "uint256"
        }
      ],
      "stateMutability": "nonpayable",
      "type": "function"
    },
    {
      "inputs": [
        {
          "internalType": "address",
          "name": "token_",
          "type": "address"
        },
        {
          "internalType": "uint256",
          "name": "amount_",
          "type": "uint256"
        }
      ],
      "name": "provideLiquidityOutLPTokens",
      "outputs": [
        {
          "internalType": "uint256",
          "name": "",
          "type": "uint256"
        }
      ],
      "stateMutability": "view",
      "type": "function"
    },
    {
      "inputs": [
        {
          "internalType": "address",
          "name": "token_",
          "type": "address"
        },
        {
          "internalType": "uint256",
          "name": "amount_",
          "type": "uint256"
        }
      ],
      "name": "redeemLiquidity",
      "outputs": [
        {
          "internalType": "uint256",
          "name": "",
          "type": "uint256"
        }
      ],
      "stateMutability": "nonpayable",
      "type": "function"
    },
    {
      "inputs": [
        {
          "internalType": "address",
          "name": "token_",
          "type": "address"
        },
        {
          "internalType": "uint256",
          "name": "amount_",
          "type": "uint256"
        }
      ],
      "name": "redeemLiquidityOutPoolTokens",
      "outputs": [
        {
          "internalType": "uint256",
          "name": "",
          "type": "uint256"
        }
      ],
      "stateMutability": "view",
      "type": "function"
    },
    {
      "inputs": [
        {
          "internalType": "address",
          "name": "account_",
          "type": "address"
        }
      ],
      "name": "removeTaxAccount",
      "outputs": [],
      "stateMutability": "nonpayable",
      "type": "function"
    },
    {
      "inputs": [
        {
          "internalType": "bytes32",
          "name": "role",
          "type": "bytes32"
        },
        {
          "internalType": "address",
          "name": "account",
          "type": "address"
        }
      ],
      "name": "renounceRole",
      "outputs": [],
      "stateMutability": "nonpayable",
      "type": "function"
    },
    {
      "inputs": [
        {
          "internalType": "bytes32",
          "name": "role",
          "type": "bytes32"
        },
        {
          "internalType": "address",
          "name": "account",
          "type": "address"
        }
      ],
      "name": "revokeRole",
      "outputs": [],
      "stateMutability": "nonpayable",
      "type": "function"
    },
    {
      "inputs": [
        {
          "internalType": "address[]",
          "name": "token_",
          "type": "address[]"
        },
        {
          "internalType": "bool[]",
          "name": "approved_",
          "type": "bool[]"
        }
      ],
      "name": "setApproved",
      "outputs": [],
      "stateMutability": "nonpayable",
      "type": "function"
    },
    {
      "inputs": [
        {
          "internalType": "address",
          "name": "converter_",
          "type": "address"
        }
      ],
      "name": "setConverter",
      "outputs": [],
      "stateMutability": "nonpayable",
      "type": "function"
    },
    {
      "inputs": [
        {
          "internalType": "address[]",
          "name": "token_",
          "type": "address[]"
        },
        {
          "internalType": "uint256[]",
          "name": "percentNumerator_",
          "type": "uint256[]"
        },
        {
          "internalType": "uint256[]",
          "name": "percentDenominator_",
          "type": "uint256[]"
        }
      ],
      "name": "setMaxInterestMax",
      "outputs": [],
      "stateMutability": "nonpayable",
      "type": "function"
    },
    {
      "inputs": [
        {
          "internalType": "address[]",
          "name": "token_",
          "type": "address[]"
        },
        {
          "internalType": "uint256[]",
          "name": "percentNumerator_",
          "type": "uint256[]"
        },
        {
          "internalType": "uint256[]",
          "name": "percentDenominator_",
          "type": "uint256[]"
        }
      ],
      "name": "setMaxInterestMin",
      "outputs": [],
      "stateMutability": "nonpayable",
      "type": "function"
    },
    {
      "inputs": [
        {
          "internalType": "address[]",
          "name": "token_",
          "type": "address[]"
        },
        {
          "internalType": "uint256[]",
          "name": "percentNumerator_",
          "type": "uint256[]"
        },
        {
          "internalType": "uint256[]",
          "name": "percentDenominator_",
          "type": "uint256[]"
        }
      ],
      "name": "setMaxUtilization",
      "outputs": [],
      "stateMutability": "nonpayable",
      "type": "function"
    },
    {
      "inputs": [
        {
          "internalType": "address",
          "name": "oracle_",
          "type": "address"
        }
      ],
      "name": "setOracle",
      "outputs": [],
      "stateMutability": "nonpayable",
      "type": "function"
    },
    {
      "inputs": [
        {
          "internalType": "uint256",
          "name": "taxPercentNumerator_",
          "type": "uint256"
        },
        {
          "internalType": "uint256",
          "name": "taxPercentDenominator_",
          "type": "uint256"
        }
      ],
      "name": "setTaxPercentage",
      "outputs": [],
      "stateMutability": "nonpayable",
      "type": "function"
    },
    {
      "inputs": [
        {
          "internalType": "uint256",
          "name": "timePerInterestApplication_",
          "type": "uint256"
        }
      ],
      "name": "setTimePerInterestApplication",
      "outputs": [],
      "stateMutability": "nonpayable",
      "type": "function"
    },
    {
      "inputs": [
        {
          "internalType": "bytes4",
          "name": "interfaceId",
          "type": "bytes4"
        }
      ],
      "name": "supportsInterface",
      "outputs": [
        {
          "internalType": "bool",
          "name": "",
          "type": "bool"
        }
      ],
      "stateMutability": "view",
      "type": "function"
    },
    {
      "inputs": [],
      "name": "taxPercentage",
      "outputs": [
        {
          "internalType": "uint256",
          "name": "",
          "type": "uint256"
        },
        {
          "internalType": "uint256",
          "name": "",
          "type": "uint256"
        }
      ],
      "stateMutability": "view",
      "type": "function"
    },
    {
      "inputs": [],
      "name": "timePerInterestApplication",
      "outputs": [
        {
          "internalType": "uint256",
          "name": "",
          "type": "uint256"
        }
      ],
      "stateMutability": "view",
      "type": "function"
    },
    {
      "inputs": [
        {
          "internalType": "address",
          "name": "token_",
          "type": "address"
        }
      ],
      "name": "totalAmountLocked",
      "outputs": [
        {
          "internalType": "uint256",
          "name": "",
          "type": "uint256"
        }
      ],
      "stateMutability": "view",
      "type": "function"
    },
    {
      "inputs": [
        {
          "internalType": "address",
          "name": "token_",
          "type": "address"
        },
        {
          "internalType": "uint256",
          "name": "amount_",
          "type": "uint256"
        }
      ],
      "name": "unclaim",
      "outputs": [],
      "stateMutability": "nonpayable",
      "type": "function"
    },
    {
      "inputs": [],
      "name": "unpause",
      "outputs": [],
      "stateMutability": "nonpayable",
      "type": "function"
    },
    {
      "inputs": [
        {
          "internalType": "address",
          "name": "token_",
          "type": "address"
        }
      ],
      "name": "utilizationRate",
      "outputs": [
        {
          "internalType": "uint256",
          "name": "",
          "type": "uint256"
        },
        {
          "internalType": "uint256",
          "name": "",
          "type": "uint256"
        }
      ],
      "stateMutability": "view",
      "type": "function"
    },
    {
      "inputs": [
        {
          "internalType": "address",
          "name": "token_",
          "type": "address"
        }
      ],
      "name": "utilized",
      "outputs": [
        {
          "internalType": "uint256",
          "name": "",
          "type": "uint256"
        }
      ],
      "stateMutability": "view",
      "type": "function"
    },
    {
      "inputs": [
        {
          "internalType": "address",
          "name": "token_",
          "type": "address"
        },
        {
          "internalType": "uint256",
          "name": "amount_",
          "type": "uint256"
        }
      ],
      "name": "withdraw",
      "outputs": [],
      "stateMutability": "nonpayable",
      "type": "function"
    }
  ],
  "bytecode": "0x608060405234801561001057600080fd5b50613fea806100206000396000f3fe608060405234801561001057600080fd5b50600436106103275760003560e01c80638695ede3116101b8578063bffe84c211610104578063f019686d116100a2578063f3fef3a31161007c578063f3fef3a3146106f3578063fbfa54d114610706578063fe1431b714610719578063fe3d57681461072257600080fd5b8063f019686d146106ba578063f151f8f7146106cd578063f2fd9dc2146106e057600080fd5b8063d13f90b4116100de578063d13f90b41461066e578063d547741f14610681578063e472d74414610694578063e5a045cb146106a757600080fd5b8063bffe84c214610635578063c5e655de14610648578063d0b9622c1461065b57600080fd5b8063ae7b6d1611610171578063b7a0a03b1161014b578063b7a0a03b146105e9578063b8c876b1146105fc578063bd1d3a201461060f578063bd38837b1461062257600080fd5b8063ae7b6d16146105bb578063b09b7657146105c3578063b19337a4146105d657600080fd5b80638695ede31461055e57806391d1485414610571578063a217fddf14610584578063a2b4fe711461058c578063aa08ed7614610595578063aad3ec96146105a857600080fd5b80635c975abb1161027757806376509a93116102305780637c2c69c01161020a5780637c2c69c01461051d5780637dc0d1d0146105305780637df0f767146105435780638456cb591461055657600080fd5b806376509a93146104e45780637adbf973146104f75780637b5644601461050a57600080fd5b80635c975abb1461047a5780635fea6120146104855780636518711d146104985780636a112c89146104ab57806371a5a88f146104be5780637594825b146104d157600080fd5b8063248a9ca3116102e457806336568abe116102be57806336568abe146104215780633f4ba83a1461043457806347e7ef241461043c5780634c07d1b71461044f57600080fd5b8063248a9ca3146103ca57806325ddcd61146103fb5780632f2ff15d1461040e57600080fd5b806301ffc9a71461032c5780630c56186c1461035457806312e23ac21461036957806318b7373d14610391578063207b27df146103a457806320f5ad94146103b7575b600080fd5b61033f61033a3660046136a7565b610735565b60405190151581526020015b60405180910390f35b6103676103623660046137bf565b61076c565b005b61037c610377366004613823565b6108e9565b6040805192835260208301919091520161034b565b61033f61039f366004613823565b61095f565b61037c6103b2366004613823565b61097f565b6103676103c536600461383e565b6109ba565b6103ed6103d8366004613860565b60009081526065602052604090206001015490565b60405190815260200161034b565b610367610409366004613823565b6109d3565b61036761041c366004613879565b6109f0565b61036761042f366004613879565b610a16565b610367610a94565b61036761044a3660046138a5565b610aac565b61046261045d366004613823565b610caa565b6040516001600160a01b03909116815260200161034b565b60975460ff1661033f565b6103ed6104933660046138a5565b610cf2565b6103676104a636600461392a565b610ec4565b6104626104b9366004613823565b610fcf565b6103676104cc366004613860565b611017565b6103676104df366004613823565b61102a565b6103ed6104f2366004613823565b611042565b610367610505366004613823565b6110e8565b61036761051836600461392a565b611118565b61037c61052b366004613823565b61121c565b60cb54610462906001600160a01b031681565b61033f610551366004613823565b611312565b610367611332565b61037c61056c366004613823565b611347565b61033f61057f366004613879565b6113a9565b6103ed600081565b6103ed60c95481565b61037c6105a3366004613823565b6113d4565b6103676105b63660046138a5565b611436565b61037c6115ee565b6103676105d136600461383e565b61161b565b6103676105e4366004613823565b611698565b6103ed6105f73660046138a5565b6116c8565b6103ed61060a366004613823565b611799565b6103ed61061d3660046138a5565b6117f2565b60ca54610462906001600160a01b031681565b6103676106433660046138a5565b6118c7565b6103676106563660046139b2565b611a7a565b6103ed6106693660046139dc565b611b6f565b61036761067c366004613a0f565b611bdf565b61036761068f366004613879565b611c73565b6103676106a2366004613a6a565b611c99565b61033f6106b5366004613823565b611e86565b6103676106c8366004613860565b611eb7565b6103ed6106db3660046138a5565b611f2e565b6103676106ee36600461392a565b61211a565b6103676107013660046138a5565b61221e565b61033f610714366004613823565b6123bc565b6103ed60d75481565b6103ed610730366004613823565b6123fe565b60006001600160e01b03198216637965db0b60e01b148061076657506301ffc9a760e01b6001600160e01b03198316145b92915050565b60c9546107798133612432565b60005b83518110156108e3576107a784828151811061079a5761079a613b2e565b602002602001015161095f565b1580156107d357506107d18382815181106107c4576107c4613b2e565b6020026020010151611312565b155b156108d1578281815181106107ea576107ea613b2e565b602002602001015160cc600086848151811061080857610808613b2e565b60200260200101516001600160a01b03166001600160a01b0316815260200190815260200160002060006101000a8154816001600160a01b0302191690836001600160a01b0316021790555083818151811061086657610866613b2e565b602002602001015160cd600085848151811061088457610884613b2e565b60200260200101516001600160a01b03166001600160a01b0316815260200190815260200160002060006101000a8154816001600160a01b0302191690836001600160a01b031602179055505b806108db81613b5a565b91505061077c565b50505050565b600080826108f68161095f565b61091b5760405162461bcd60e51b815260040161091290613b75565b60405180910390fd5b6001600160a01b038416600090815260d96020908152604091829020825180840190935280548352600101549082015261095490612496565b925092505b50915091565b6001600160a01b03908116600090815260cc602052604090205416151590565b6000808261098c8161095f565b6109a85760405162461bcd60e51b815260040161091290613b75565b6109b1846123fe565b61095485611042565b60c9546109c78133612432565b5060d39190915560d455565b60c9546109e08133612432565b6109eb60d5836124d3565b505050565b600082815260656020526040902060010154610a0c8133612432565b6109eb83836124e8565b6001600160a01b0381163314610a865760405162461bcd60e51b815260206004820152602f60248201527f416363657373436f6e74726f6c3a2063616e206f6e6c792072656e6f756e636560448201526e103937b632b9903337b91039b2b63360891b6064820152608401610912565b610a90828261256e565b5050565b60c954610aa18133612432565b610aa96125d5565b50565b60975460ff1615610acf5760405162461bcd60e51b815260040161091290613bc0565b60c954610adc8133612432565b60008211610b485760405162461bcd60e51b815260206004820152603360248201527f4c506f6f6c4465706f7369743a204465706f73697420616d6f756e74206d75736044820152720742062652067726561746572207468616e203606c1b6064820152608401610912565b610b5d6001600160a01b038416333085612668565b6000610b676126d3565b9050826001600160a01b0380831690861614610c285760ca54610b97906001600160a01b0387811691168661298c565b60ca546040516348bd30c360e01b81526001600160a01b038781166004830152602482018790528481166044830152909116906348bd30c390606401602060405180830381600087803b158015610bed57600080fd5b505af1158015610c01573d6000803e3d6000fd5b505050506040513d601f19601f82011682018060405250810190610c259190613bea565b90505b6000610c348383612ab0565b9050337faaefaf378e10f40556b2167ea878af7e62d89229b0bce3924630aabf1ee611ff878786610c658787612b55565b604051610c9a94939291906001600160a01b039485168152602081019390935292166040820152606081019190915260800190565b60405180910390a2505050505050565b600081610cb681611312565b610cd25760405162461bcd60e51b815260040161091290613c03565b50506001600160a01b03908116600090815260cd60205260409020541690565b6000610d0060975460ff1690565b15610d1d5760405162461bcd60e51b815260040161091290613bc0565b82610d2781611e86565b610d435760405162461bcd60e51b815260040161091290613c58565b60008311610d635760405162461bcd60e51b815260040161091290613cac565b6000610d6e85610fcf565b90506000610d7c86866117f2565b905060008111610ddf5760405162461bcd60e51b815260206004820152602860248201527f4c506f6f6c50726f766964653a204e6f7420656e6f75676820746f6b656e73206044820152671c1c9bdd9a59195960c21b6064820152608401610912565b610df46001600160a01b038716333088612668565b6001600160a01b0382166340c10f19336040516001600160e01b031960e084901b1681526001600160a01b03909116600482015260248101849052604401600060405180830381600087803b158015610e4c57600080fd5b505af1158015610e60573d6000803e3d6000fd5b50505050610e6b3390565b604080516001600160a01b038981168252602082018990529181018490529116907fd2491a9b4fe81a7cd4511e8b7b7743951b061dad5bed7da8a7795b080ee08c7e9060600160405180910390a29250505b5092915050565b60c954610ed18133612432565b60005b8451811015610fc857610ef285828151811061079a5761079a613b2e565b15610fb657838181518110610f0957610f09613b2e565b602002602001015160da6000878481518110610f2757610f27613b2e565b60200260200101516001600160a01b03166001600160a01b0316815260200190815260200160002060000181905550828181518110610f6857610f68613b2e565b602002602001015160da6000878481518110610f8657610f86613b2e565b60200260200101516001600160a01b03166001600160a01b03168152602001908152602001600020600101819055505b80610fc081613b5a565b915050610ed4565b5050505050565b600081610fdb8161095f565b610ff75760405162461bcd60e51b815260040161091290613b75565b50506001600160a01b03908116600090815260cc60205260409020541690565b60c9546110248133612432565b5060d755565b60c9546110378133612432565b6109eb60d583612b61565b60008161104e8161095f565b61106a5760405162461bcd60e51b815260040161091290613b75565b6040516370a0823160e01b81523060048201526001600160a01b038416906370a082319060240160206040518083038186803b1580156110a957600080fd5b505afa1580156110bd573d6000803e3d6000fd5b505050506040513d601f19601f820116820180604052508101906110e19190613bea565b9392505050565b60c9546110f58133612432565b5060cb80546001600160a01b0319166001600160a01b0392909216919091179055565b60c9546111258133612432565b60005b8451811015610fc85761114685828151811061079a5761079a613b2e565b1561120a5783818151811061115d5761115d613b2e565b602002602001015160d9600087848151811061117b5761117b613b2e565b60200260200101516001600160a01b03166001600160a01b03168152602001908152602001600020600001819055508281815181106111bc576111bc613b2e565b602002602001015160d960008784815181106111da576111da613b2e565b60200260200101516001600160a01b03166001600160a01b03168152602001908152602001600020600101819055505b8061121481613b5a565b915050611128565b600080826112298161095f565b6112455760405162461bcd60e51b815260040161091290613b75565b6000806112518661097f565b9150915060006112618383612b76565b6001600160a01b038816600081815260da6020908152604080832081518083018352815481526001918201548185015285855260d884528285208351808501855281548152908301548186015295855260d9845293829020825180840190935280548352015491810191909152929350916112dc8484612bb7565b15611304576112f56112f085848685612c37565b612496565b98509850505050505050610959565b6112f56112f0858585612c99565b6001600160a01b03908116600090815260cd602052604090205416151590565b60c95461133f8133612432565b610aa9612cc3565b600080826113548161095f565b6113705760405162461bcd60e51b815260040161091290613b75565b6001600160a01b038416600090815260da6020908152604091829020825180840190935280548352600101549082015261095490612496565b60009182526065602090815260408084206001600160a01b0393909316845291905290205460ff1690565b600080826113e18161095f565b6113fd5760405162461bcd60e51b815260040161091290613b75565b6001600160a01b038416600090815260d86020908152604091829020825180840190935280548352600101549082015261095490612496565b60975460ff16156114595760405162461bcd60e51b815260040161091290613bc0565b60c9546114668133612432565b8261147081611e86565b61148c5760405162461bcd60e51b815260040161091290613c58565b600083116114f45760405162461bcd60e51b815260206004820152602f60248201527f4c506f6f6c436c61696d3a20636c61696d20616d6f756e74206d75737420626560448201526e02067726561746572207468616e203608c1b6064820152608401610912565b6114fd84611799565b8311156115675760405162461bcd60e51b815260206004820152603260248201527f4c506f6f6c436c61696d3a2043616e6e6f7420636c61696d206d6f7265207468604482015271616e20746f74616c206c697175696469747960701b6064820152608401610912565b33600090815260d1602090815260408083206001600160a01b03881684529091529020546115959084612d1b565b33600090815260d1602090815260408083206001600160a01b038916845282528083209390935560d2905220546115cc9084612d1b565b6001600160a01b03909416600090815260d26020526040902093909355505050565b6040805180820190915260d354815260d4546020820152600090819061161390612496565b915091509091565b600054610100900460ff166116365760005460ff161561163a565b303b155b6116565760405162461bcd60e51b815260040161091290613d01565b600054610100900460ff16158015611678576000805461ffff19166101011790555b60d383905560d482905580156109eb576000805461ff0019169055505050565b60c9546116a58133612432565b5060ca80546001600160a01b0319166001600160a01b0392909216919091179055565b6000826116d481611312565b6116f05760405162461bcd60e51b815260040161091290613c03565b60008490506000816001600160a01b03166318160ddd6040518163ffffffff1660e01b815260040160206040518083038186803b15801561173057600080fd5b505afa158015611744573d6000803e3d6000fd5b505050506040513d601f19601f820116820180604052508101906117689190613bea565b905060006117786104f288610caa565b905061178e826117888884612d27565b90612d33565b979650505050505050565b6000816117a58161095f565b6117c15760405162461bcd60e51b815260040161091290613b75565b6110e16117e3846001600160a01b0316600090815260d2602052604090205490565b6117ec85611042565b90612b55565b6000826117fe81611e86565b61181a5760405162461bcd60e51b815260040161091290613c58565b600061182585610fcf565b90506000816001600160a01b03166318160ddd6040518163ffffffff1660e01b815260040160206040518083038186803b15801561186257600080fd5b505afa158015611876573d6000803e3d6000fd5b505050506040513d601f19601f8201168201806040525081019061189a9190613bea565b905060006118a787611042565b9050806118b957859450505050610ebd565b61178e816117888885612d27565b60975460ff16156118ea5760405162461bcd60e51b815260040161091290613bc0565b60c9546118f78133612432565b826119018161095f565b61191d5760405162461bcd60e51b815260040161091290613b75565b600083116119875760405162461bcd60e51b815260206004820152603160248201527f4c506f6f6c436c61696d3a20556e636c61696d20616d6f756e74206d75737420604482015270062652067726561746572207468616e203607c1b6064820152608401610912565b33600090815260d1602090815260408083206001600160a01b0388168452909152902054831115611a155760405162461bcd60e51b815260206004820152603260248201527f4c506f6f6c436c61696d3a2043616e6e6f7420756e636c61696d206d6f7265206044820152717468616e2063757272656e7420636c61696d60701b6064820152608401610912565b33600090815260d1602090815260408083206001600160a01b0388168452909152902054611a439084612b55565b33600090815260d1602090815260408083206001600160a01b038916845282528083209390935560d2905220546115cc9084612b55565b600054610100900460ff16611a955760005460ff1615611a99565b303b155b611ab55760405162461bcd60e51b815260040161091290613d01565b600054610100900460ff16158015611ad7576000805461ffff19166101011790555b611adf612d3f565b611ae7612d68565b7f24e583e35a20f9ecfc1572e7cb66bcc18ad3cd1650ec40dbf6ad2290e553a9fa60c9819055611b179080612d97565b611b2960c954611b243390565b6124e8565b60ca80546001600160a01b038086166001600160a01b03199283161790925560cb80549285169290911691909117905580156109eb576000805461ff0019169055505050565b600083611b7b8161095f565b611b975760405162461bcd60e51b815260040161091290613b75565b6000611ba34285612b55565b9050600080611bb18861121c565b60d7549193509150611bd390611788838187611bcd8d89612d27565b90612d27565b98975050505050505050565b600054610100900460ff16611bfa5760005460ff1615611bfe565b303b155b611c1a5760405162461bcd60e51b815260040161091290613d01565b600054610100900460ff16158015611c3c576000805461ffff19166101011790555b611c468686611a7a565b611c50848461161b565b611c5982611eb7565b8015611c6b576000805461ff00191690555b505050505050565b600082815260656020526040902060010154611c8f8133612432565b6109eb838361256e565b60c954611ca68133612432565b60005b83518110156108e357611cc784828151811061079a5761079a613b2e565b15611e7457828181518110611cde57611cde613b2e565b602002602001015160d06000868481518110611cfc57611cfc613b2e565b60200260200101516001600160a01b03166001600160a01b0316815260200190815260200160002060006101000a81548160ff02191690831515021790555060d06000858381518110611d5157611d51613b2e565b6020908102919091018101516001600160a01b031682528101919091526040016000205460ff168015611dae5750611dac848281518110611d9457611d94613b2e565b602002602001015160ce612de290919063ffffffff16565b155b15611de657611de0848281518110611dc857611dc8613b2e565b602002602001015160ce6124d390919063ffffffff16565b50611e74565b60d06000858381518110611dfc57611dfc613b2e565b6020908102919091018101516001600160a01b031682528101919091526040016000205460ff16158015611e405750611e40848281518110611d9457611d94613b2e565b15611e7457611e72848281518110611e5a57611e5a613b2e565b602002602001015160ce612b6190919063ffffffff16565b505b80611e7e81613b5a565b915050611ca9565b6000611e918261095f565b80156107665750506001600160a01b0316600090815260d0602052604090205460ff1690565b600054610100900460ff16611ed25760005460ff1615611ed6565b303b155b611ef25760405162461bcd60e51b815260040161091290613d01565b600054610100900460ff16158015611f14576000805461ffff19166101011790555b60d78290558015610a90576000805461ff00191690555050565b6000611f3c60975460ff1690565b15611f595760405162461bcd60e51b815260040161091290613bc0565b82611f6381611312565b611f7f5760405162461bcd60e51b815260040161091290613c03565b60008311611f9f5760405162461bcd60e51b815260040161091290613cac565b836000611fab82610caa565b90506000611fb987876116c8565b9050611fc482611799565b8111156120395760405162461bcd60e51b815260206004820152603960248201527f4c506f6f6c50726f766964653a204e6f7420656e6f756768206c69717569646960448201527f747920746f2072656465656d20617420746869732074696d65000000000000006064820152608401610912565b6001600160a01b038316639dc29fac336040516001600160e01b031960e084901b1681526001600160a01b03909116600482015260248101899052604401600060405180830381600087803b15801561209157600080fd5b505af11580156120a5573d6000803e3d6000fd5b505050506120c46120b33390565b6001600160a01b0384169083612e04565b604080516001600160a01b038916815260208101889052808201839052905133917fdee0ce84f7131323a758cb544a1cb100f8cd05ad1493d37cdafa1bd34d9462a7919081900360600190a29695505050505050565b60c9546121278133612432565b60005b8451811015610fc85761214885828151811061079a5761079a613b2e565b1561220c5783818151811061215f5761215f613b2e565b602002602001015160d8600087848151811061217d5761217d613b2e565b60200260200101516001600160a01b03166001600160a01b03168152602001908152602001600020600001819055508281815181106121be576121be613b2e565b602002602001015160d860008784815181106121dc576121dc613b2e565b60200260200101516001600160a01b03166001600160a01b03168152602001908152602001600020600101819055505b8061221681613b5a565b91505061212a565b60975460ff16156122415760405162461bcd60e51b815260040161091290613bc0565b60c95461224e8133612432565b8261225881611e86565b6122745760405162461bcd60e51b815260040161091290613c58565b600083116122e15760405162461bcd60e51b815260206004820152603460248201527f4c506f6f6c4465706f7369743a20576974686472617720616d6f756e74206d75604482015273073742062652067726561746572207468616e20360641b6064820152608401610912565b6122ea84611799565b83111561235f5760405162461bcd60e51b815260206004820152603960248201527f4c506f6f6c4465706f7369743a20576974686472617720616d6f756e7420657860448201527f636565647320617661696c61626c65206c6971756964697479000000000000006064820152608401610912565b6123736001600160a01b0385163385612e04565b604080516001600160a01b038616815260208101859052815133927f9b1bfa7fa9ee420a16e124f794c35ac9f90472acc99140eb2f6447c714cad8eb928290030190a250505050565b60006123c782611312565b8015610766575060d060006123db84610caa565b6001600160a01b0316815260208101919091526040016000205460ff1692915050565b60008161240a8161095f565b6124265760405162461bcd60e51b815260040161091290613b75565b6110e16117e384611799565b61243c82826113a9565b610a9057612454816001600160a01b03166014612e34565b61245f836020612e34565b604051602001612470929190613d7b565b60408051601f198184030181529082905262461bcd60e51b825261091291600401613df0565b600080826124a78160200151151590565b6124c35760405162461bcd60e51b815260040161091290613e23565b5050815160209092015191929050565b60006110e1836001600160a01b038416612fd0565b6124f282826113a9565b610a905760008281526065602090815260408083206001600160a01b03851684529091529020805460ff1916600117905561252a3390565b6001600160a01b0316816001600160a01b0316837f2f8788117e7eff1d82e926ec794901d17c78024a50270940304540a733656f0d60405160405180910390a45050565b61257882826113a9565b15610a905760008281526065602090815260408083206001600160a01b0385168085529252808320805460ff1916905551339285917ff6391f5c32d9c69d2a47ea670b442974b53935d1edc7fd64eb21e047a839171b9190a45050565b60975460ff1661261e5760405162461bcd60e51b815260206004820152601460248201527314185d5cd8589b194e881b9bdd081c185d5cd95960621b6044820152606401610912565b6097805460ff191690557f5db9ee0a495bf2e6ff9c91a7834c1ba4fdd244a5e8aa4e537bd38aeae4b073aa335b6040516001600160a01b03909116815260200160405180910390a1565b6040516001600160a01b03808516602483015283166044820152606481018290526108e39085906323b872dd60e01b906084015b60408051601f198184030181529190526020810180516001600160e01b03166001600160e01b03199093169290921790915261301f565b6000806126de6130f1565b90506000815167ffffffffffffffff8111156126fc576126fc6136d1565b604051908082528060200260200182016040528015612725578160200160208202803683370190505b5090506000805b83518110156128a257600061275985838151811061274c5761274c613b2e565b60200260200101516123fe565b9050801561288f5760008061278687858151811061277957612779613b2e565b602002602001015161121c565b91509150600060cb60009054906101000a90046001600160a01b03166001600160a01b031663561c2ed88987815181106127c2576127c2613b2e565b6020026020010151866040518363ffffffff1660e01b81526004016127fc9291906001600160a01b03929092168252602082015260400190565b60206040518083038186803b15801561281457600080fd5b505afa158015612828573d6000803e3d6000fd5b505050506040513d601f19601f8201168201806040525081019061284c9190613bea565b9050600061285e836117888487612d27565b90508088878151811061287357612873613b2e565b60209081029190910101526128888782612d1b565b9650505050505b508061289a81613b5a565b91505061272c565b50600061290960016129038444435a336040805160208101959095528401929092526060808401919091521b6bffffffffffffffffffffffff1916608082015260940160408051601f19818403018152919052805160209091012090613102565b90612d1b565b9050600080805b86518110156129815761294586828151811061292e5761292e613b2e565b602002602001015184612d1b90919063ffffffff16565b925082841161296f5786818151811061296057612960613b2e565b60200260200101519150612981565b8061297981613b5a565b915050612910565b509695505050505050565b801580612a155750604051636eb1769f60e11b81523060048201526001600160a01b03838116602483015284169063dd62ed3e9060440160206040518083038186803b1580156129db57600080fd5b505afa1580156129ef573d6000803e3d6000fd5b505050506040513d601f19601f82011682018060405250810190612a139190613bea565b155b612a805760405162461bcd60e51b815260206004820152603660248201527f5361666545524332303a20617070726f76652066726f6d206e6f6e2d7a65726f60448201527520746f206e6f6e2d7a65726f20616c6c6f77616e636560501b6064820152608401610912565b6040516001600160a01b0383166024820152604481018290526109eb90849063095ea7b360e01b9060640161269c565b600080612abd60d561310e565b805160d45460d354929350600092612adc929161178891829089612d27565b90506000612af4835183612d2790919063ffffffff16565b905060005b8351811015612b4b57612b39848281518110612b1757612b17613b2e565b602002602001015184896001600160a01b0316612e049092919063ffffffff16565b80612b4381613b5a565b915050612af9565b5095945050505050565b60006110e18284613e77565b60006110e1836001600160a01b03841661311b565b604080518082018252600080825260209182015281518083019092528382528101829052816107665760405162461bcd60e51b815260040161091290613e23565b600082612bc78160200151151590565b612be35760405162461bcd60e51b815260040161091290613e23565b82612bf18160200151151590565b612c0d5760405162461bcd60e51b815260040161091290613e23565b60208501518451612c1d91612d27565b60208501518651612c2d91612d27565b1195945050505050565b60408051808201909152600080825260208201526000612c75612c6585612c5f600180612b76565b9061320e565b612c6f858861320e565b906132be565b9050612c8f81612c5f85612c89838b6133ad565b90613422565b9695505050505050565b6040805180820190915260008082526020820152612cbb83612c6f86856133ad565b949350505050565b60975460ff1615612ce65760405162461bcd60e51b815260040161091290613bc0565b6097805460ff191660011790557f62e78cea01bee320cd4e420270b5ea74000d11b0c9f74754ebdbfc544b05a25861264b3390565b60006110e18284613e8e565b60006110e18284613ea6565b60006110e18284613edb565b600054610100900460ff16612d665760405162461bcd60e51b815260040161091290613eef565b565b600054610100900460ff16612d8f5760405162461bcd60e51b815260040161091290613eef565b612d666134af565b600082815260656020526040808220600101805490849055905190918391839186917fbd79b86ffe0ab8e8776151514217cd7cacd52c909f66475c3af44e129f0b00ff9190a4505050565b6001600160a01b038116600090815260018301602052604081205415156110e1565b6040516001600160a01b0383166024820152604481018290526109eb90849063a9059cbb60e01b9060640161269c565b60606000612e43836002613ea6565b612e4e906002613e8e565b67ffffffffffffffff811115612e6657612e666136d1565b6040519080825280601f01601f191660200182016040528015612e90576020820181803683370190505b509050600360fc1b81600081518110612eab57612eab613b2e565b60200101906001600160f81b031916908160001a905350600f60fb1b81600181518110612eda57612eda613b2e565b60200101906001600160f81b031916908160001a9053506000612efe846002613ea6565b612f09906001613e8e565b90505b6001811115612f81576f181899199a1a9b1b9c1cb0b131b232b360811b85600f1660108110612f3d57612f3d613b2e565b1a60f81b828281518110612f5357612f53613b2e565b60200101906001600160f81b031916908160001a90535060049490941c93612f7a81613f3a565b9050612f0c565b5083156110e15760405162461bcd60e51b815260206004820181905260248201527f537472696e67733a20686578206c656e67746820696e73756666696369656e746044820152606401610912565b600081815260018301602052604081205461301757508154600181810184556000848152602080822090930184905584548482528286019093526040902091909155610766565b506000610766565b6000613074826040518060400160405280602081526020017f5361666545524332303a206c6f772d6c6576656c2063616c6c206661696c6564815250856001600160a01b03166134e29092919063ffffffff16565b8051909150156109eb57808060200190518101906130929190613f51565b6109eb5760405162461bcd60e51b815260206004820152602a60248201527f5361666545524332303a204552433230206f7065726174696f6e20646964206e6044820152691bdd081cdd58d8d9595960b21b6064820152608401610912565b60606130fd60ce61310e565b905090565b60006110e18284613f6e565b606060006110e1836134f1565b6000818152600183016020526040812054801561320457600061313f600183613e77565b855490915060009061315390600190613e77565b90508181146131b857600086600001828154811061317357613173613b2e565b906000526020600020015490508087600001848154811061319657613196613b2e565b6000918252602080832090910192909255918252600188019052604090208390555b85548690806131c9576131c9613f82565b600190038181906000526020600020016000905590558560010160008681526020019081526020016000206000905560019350505050610766565b6000915050610766565b6040805180820190915260008082526020820152826132308160200151151590565b61324c5760405162461bcd60e51b815260040161091290613e23565b8261325a8160200151151590565b6132765760405162461bcd60e51b815260040161091290613e23565b6020850151845161329b9161328b9190612d27565b602086015187516117ec91612d27565b8352602080850151908601516132b091612d27565b602084015250909392505050565b6040805180820190915260008082526020820152826132e08160200151151590565b6132fc5760405162461bcd60e51b815260040161091290613e23565b8261330a8160200151151590565b6133265760405162461bcd60e51b815260040161091290613e23565b835161338b5760405162461bcd60e51b815260206004820152602e60248201527f4672616374696f6e4d6174683a204469766973696f72206672616374696f6e2060448201526d063616e6e6f7420657175616c20360941b6064820152608401610912565b6020840151855161339b91612d27565b8352835160208601516132b091612d27565b6040805180820190915260008082526020820152826133cf8160200151151590565b6133eb5760405162461bcd60e51b815260040161091290613e23565b826133f98160200151151590565b6134155760405162461bcd60e51b815260040161091290613e23565b8351855161329b91612d27565b6040805180820190915260008082526020820152826134448160200151151590565b6134605760405162461bcd60e51b815260040161091290613e23565b8261346e8160200151151590565b61348a5760405162461bcd60e51b815260040161091290613e23565b6020850151845161329b9161349f9190612d27565b6020860151875161290391612d27565b600054610100900460ff166134d65760405162461bcd60e51b815260040161091290613eef565b6097805460ff19169055565b6060612cbb848460008561354d565b60608160000180548060200260200160405190810160405280929190818152602001828054801561354157602002820191906000526020600020905b81548152602001906001019080831161352d575b50505050509050919050565b6060824710156135ae5760405162461bcd60e51b815260206004820152602660248201527f416464726573733a20696e73756666696369656e742062616c616e636520666f6044820152651c8818d85b1b60d21b6064820152608401610912565b6001600160a01b0385163b6136055760405162461bcd60e51b815260206004820152601d60248201527f416464726573733a2063616c6c20746f206e6f6e2d636f6e74726163740000006044820152606401610912565b600080866001600160a01b031685876040516136219190613f98565b60006040518083038185875af1925050503d806000811461365e576040519150601f19603f3d011682016040523d82523d6000602084013e613663565b606091505b509150915061178e8282866060831561367d5750816110e1565b82511561368d5782518084602001fd5b8160405162461bcd60e51b81526004016109129190613df0565b6000602082840312156136b957600080fd5b81356001600160e01b0319811681146110e157600080fd5b634e487b7160e01b600052604160045260246000fd5b604051601f8201601f1916810167ffffffffffffffff81118282101715613710576137106136d1565b604052919050565b600067ffffffffffffffff821115613732576137326136d1565b5060051b60200190565b80356001600160a01b038116811461375357600080fd5b919050565b600082601f83011261376957600080fd5b8135602061377e61377983613718565b6136e7565b82815260059290921b8401810191818101908684111561379d57600080fd5b8286015b84811015612981576137b28161373c565b83529183019183016137a1565b600080604083850312156137d257600080fd5b823567ffffffffffffffff808211156137ea57600080fd5b6137f686838701613758565b9350602085013591508082111561380c57600080fd5b5061381985828601613758565b9150509250929050565b60006020828403121561383557600080fd5b6110e18261373c565b6000806040838503121561385157600080fd5b50508035926020909101359150565b60006020828403121561387257600080fd5b5035919050565b6000806040838503121561388c57600080fd5b8235915061389c6020840161373c565b90509250929050565b600080604083850312156138b857600080fd5b6138c18361373c565b946020939093013593505050565b600082601f8301126138e057600080fd5b813560206138f061377983613718565b82815260059290921b8401810191818101908684111561390f57600080fd5b8286015b848110156129815780358352918301918301613913565b60008060006060848603121561393f57600080fd5b833567ffffffffffffffff8082111561395757600080fd5b61396387838801613758565b9450602086013591508082111561397957600080fd5b613985878388016138cf565b9350604086013591508082111561399b57600080fd5b506139a8868287016138cf565b9150509250925092565b600080604083850312156139c557600080fd5b6139ce8361373c565b915061389c6020840161373c565b6000806000606084860312156139f157600080fd5b6139fa8461373c565b95602085013595506040909401359392505050565b600080600080600060a08688031215613a2757600080fd5b613a308661373c565b9450613a3e6020870161373c565b94979496505050506040830135926060810135926080909101359150565b8015158114610aa957600080fd5b60008060408385031215613a7d57600080fd5b823567ffffffffffffffff80821115613a9557600080fd5b613aa186838701613758565b9350602091508185013581811115613ab857600080fd5b85019050601f81018613613acb57600080fd5b8035613ad961377982613718565b81815260059190911b82018301908381019088831115613af857600080fd5b928401925b82841015613b1f578335613b1081613a5c565b82529284019290840190613afd565b80955050505050509250929050565b634e487b7160e01b600052603260045260246000fd5b634e487b7160e01b600052601160045260246000fd5b6000600019821415613b6e57613b6e613b44565b5060010190565b6020808252602b908201527f4c506f6f6c417070726f7665643a204f6e6c7920706f6f6c20746f6b656e732060408201526a1b585e481899481d5cd95960aa1b606082015260800190565b60208082526010908201526f14185d5cd8589b194e881c185d5cd95960821b604082015260600190565b600060208284031215613bfc57600080fd5b5051919050565b60208082526035908201527f4c506f6f6c417070726f7665643a204f6e6c79206c697175696469747920706f6040820152741bdb081d1bdad95b9cc81b585e481899481d5cd959605a1b606082015260800190565b60208082526034908201527f4c506f6f6c417070726f7665643a204f6e6c7920617070726f76656420706f6f6040820152731b081d1bdad95b9cc81b585e481899481d5cd95960621b606082015260800190565b60208082526035908201527f4c506f6f6c50726f766964653a20416d6f756e74206f6620746f6b656e73206d60408201527407573742062652067726561746572207468616e203605c1b606082015260800190565b6020808252602e908201527f496e697469616c697a61626c653a20636f6e747261637420697320616c72656160408201526d191e481a5b9a5d1a585b1a5e995960921b606082015260800190565b60005b83811015613d6a578181015183820152602001613d52565b838111156108e35750506000910152565b7f416363657373436f6e74726f6c3a206163636f756e7420000000000000000000815260008351613db3816017850160208801613d4f565b7001034b99036b4b9b9b4b733903937b6329607d1b6017918401918201528351613de4816028840160208801613d4f565b01602801949350505050565b6020815260008251806020840152613e0f816040850160208701613d4f565b601f01601f19169190910160400192915050565b60208082526034908201527f4672616374696f6e4d6174683a2044656e6f6d696e61746f72206f662066726160408201527306374696f6e2063616e6e6f7420657175616c20360641b606082015260800190565b600082821015613e8957613e89613b44565b500390565b60008219821115613ea157613ea1613b44565b500190565b6000816000190483118215151615613ec057613ec0613b44565b500290565b634e487b7160e01b600052601260045260246000fd5b600082613eea57613eea613ec5565b500490565b6020808252602b908201527f496e697469616c697a61626c653a20636f6e7472616374206973206e6f74206960408201526a6e697469616c697a696e6760a81b606082015260800190565b600081613f4957613f49613b44565b506000190190565b600060208284031215613f6357600080fd5b81516110e181613a5c565b600082613f7d57613f7d613ec5565b500690565b634e487b7160e01b600052603160045260246000fd5b60008251613faa818460208701613d4f565b919091019291505056fea2646970667358221220b8830783bcc9993dfa044a5a6b54689df2bce25f924198f58826d482d4aa24c664736f6c63430008090033",
  "linkReferences": {},
  "deployedLinkReferences": {}
}