{
  "_format": "hh-sol-artifact-1",
  "contractName": "LPool",
  "sourceName": "contracts/v1/LPool/LPool.sol",
  "abi": [
    {
      "anonymous": false,
      "inputs": [
        {
          "indexed": false,
          "internalType": "address",
          "name": "token",
          "type": "address"
        },
        {
          "indexed": false,
          "internalType": "address",
          "name": "LPToken",
          "type": "address"
        }
      ],
      "name": "AddLPToken",
      "type": "event"
    },
    {
      "anonymous": false,
      "inputs": [
        {
          "indexed": true,
          "internalType": "address",
          "name": "account",
          "type": "address"
        },
        {
          "indexed": false,
          "internalType": "address",
          "name": "token",
          "type": "address"
        },
        {
          "indexed": false,
          "internalType": "uint256",
          "name": "amount",
          "type": "uint256"
        },
        {
          "indexed": false,
          "internalType": "uint256",
          "name": "value",
          "type": "uint256"
        }
      ],
      "name": "AddLiquidity",
      "type": "event"
    },
    {
      "anonymous": false,
      "inputs": [
        {
          "indexed": true,
          "internalType": "address",
          "name": "account",
          "type": "address"
        },
        {
          "indexed": false,
          "internalType": "address",
          "name": "token",
          "type": "address"
        },
        {
          "indexed": false,
          "internalType": "uint256",
          "name": "amount",
          "type": "uint256"
        }
      ],
      "name": "Claim",
      "type": "event"
    },
    {
      "anonymous": false,
      "inputs": [
        {
          "indexed": true,
          "internalType": "address",
          "name": "account",
          "type": "address"
        },
        {
          "indexed": false,
          "internalType": "address",
          "name": "tokenIn",
          "type": "address"
        },
        {
          "indexed": false,
          "internalType": "uint256",
          "name": "amountIn",
          "type": "uint256"
        },
        {
          "indexed": false,
          "internalType": "address",
          "name": "convertedToken",
          "type": "address"
        },
        {
          "indexed": false,
          "internalType": "uint256",
          "name": "convertedAmount",
          "type": "uint256"
        }
      ],
      "name": "Deposit",
      "type": "event"
    },
    {
      "anonymous": false,
      "inputs": [
        {
          "indexed": true,
          "internalType": "address",
          "name": "account",
          "type": "address"
        },
        {
          "indexed": false,
          "internalType": "address",
          "name": "token",
          "type": "address"
        },
        {
          "indexed": false,
          "internalType": "uint256",
          "name": "amount",
          "type": "uint256"
        },
        {
          "indexed": false,
          "internalType": "uint256",
          "name": "value",
          "type": "uint256"
        }
      ],
      "name": "RemoveLiquidity",
      "type": "event"
    },
    {
      "anonymous": false,
      "inputs": [
        {
          "indexed": true,
          "internalType": "bytes32",
          "name": "role",
          "type": "bytes32"
        },
        {
          "indexed": true,
          "internalType": "bytes32",
          "name": "previousAdminRole",
          "type": "bytes32"
        },
        {
          "indexed": true,
          "internalType": "bytes32",
          "name": "newAdminRole",
          "type": "bytes32"
        }
      ],
      "name": "RoleAdminChanged",
      "type": "event"
    },
    {
      "anonymous": false,
      "inputs": [
        {
          "indexed": true,
          "internalType": "bytes32",
          "name": "role",
          "type": "bytes32"
        },
        {
          "indexed": true,
          "internalType": "address",
          "name": "account",
          "type": "address"
        },
        {
          "indexed": true,
          "internalType": "address",
          "name": "sender",
          "type": "address"
        }
      ],
      "name": "RoleGranted",
      "type": "event"
    },
    {
      "anonymous": false,
      "inputs": [
        {
          "indexed": true,
          "internalType": "bytes32",
          "name": "role",
          "type": "bytes32"
        },
        {
          "indexed": true,
          "internalType": "address",
          "name": "account",
          "type": "address"
        },
        {
          "indexed": true,
          "internalType": "address",
          "name": "sender",
          "type": "address"
        }
      ],
      "name": "RoleRevoked",
      "type": "event"
    },
    {
      "anonymous": false,
      "inputs": [
        {
          "indexed": true,
          "internalType": "address",
          "name": "account",
          "type": "address"
        },
        {
          "indexed": false,
          "internalType": "address",
          "name": "token",
          "type": "address"
        },
        {
          "indexed": false,
          "internalType": "uint256",
          "name": "amount",
          "type": "uint256"
        }
      ],
      "name": "Unclaim",
      "type": "event"
    },
    {
      "anonymous": false,
      "inputs": [
        {
          "indexed": true,
          "internalType": "address",
          "name": "account",
          "type": "address"
        },
        {
          "indexed": false,
          "internalType": "address",
          "name": "token",
          "type": "address"
        },
        {
          "indexed": false,
          "internalType": "uint256",
          "name": "amount",
          "type": "uint256"
        }
      ],
      "name": "Withdraw",
      "type": "event"
    },
    {
      "inputs": [],
      "name": "DEFAULT_ADMIN_ROLE",
      "outputs": [
        {
          "internalType": "bytes32",
          "name": "",
          "type": "bytes32"
        }
      ],
      "stateMutability": "view",
      "type": "function"
    },
    {
      "inputs": [
        {
          "internalType": "address",
          "name": "token_",
          "type": "address"
        }
      ],
      "name": "LPFromPT",
      "outputs": [
        {
          "internalType": "address",
          "name": "",
          "type": "address"
        }
      ],
      "stateMutability": "view",
      "type": "function"
    },
    {
      "inputs": [],
      "name": "POOL_ADMIN",
      "outputs": [
        {
          "internalType": "bytes32",
          "name": "",
          "type": "bytes32"
        }
      ],
      "stateMutability": "view",
      "type": "function"
    },
    {
      "inputs": [],
      "name": "POOL_APPROVED",
      "outputs": [
        {
          "internalType": "bytes32",
          "name": "",
          "type": "bytes32"
        }
      ],
      "stateMutability": "view",
      "type": "function"
    },
    {
      "inputs": [
        {
          "internalType": "address",
          "name": "token_",
          "type": "address"
        }
      ],
      "name": "PTFromLP",
      "outputs": [
        {
          "internalType": "address",
          "name": "",
          "type": "address"
        }
      ],
      "stateMutability": "view",
      "type": "function"
    },
    {
      "inputs": [
        {
          "internalType": "address[]",
          "name": "token_",
          "type": "address[]"
        },
        {
          "internalType": "string[]",
          "name": "name_",
          "type": "string[]"
        },
        {
          "internalType": "string[]",
          "name": "symbol_",
          "type": "string[]"
        }
      ],
      "name": "addLPToken",
      "outputs": [],
      "stateMutability": "nonpayable",
      "type": "function"
    },
    {
      "inputs": [
        {
          "internalType": "address",
          "name": "token_",
          "type": "address"
        },
        {
          "internalType": "uint256",
          "name": "amount_",
          "type": "uint256"
        }
      ],
      "name": "addLiquidity",
      "outputs": [
        {
          "internalType": "uint256",
          "name": "",
          "type": "uint256"
        }
      ],
      "stateMutability": "nonpayable",
      "type": "function"
    },
    {
      "inputs": [
        {
          "internalType": "address",
          "name": "token_",
          "type": "address"
        },
        {
          "internalType": "uint256",
          "name": "amount_",
          "type": "uint256"
        }
      ],
      "name": "addLiquidityOutLPTokens",
      "outputs": [
        {
          "internalType": "uint256",
          "name": "",
          "type": "uint256"
        }
      ],
      "stateMutability": "view",
      "type": "function"
    },
    {
      "inputs": [
        {
          "internalType": "address",
          "name": "account_",
          "type": "address"
        }
      ],
      "name": "addTaxAccount",
      "outputs": [],
      "stateMutability": "nonpayable",
      "type": "function"
    },
    {
      "inputs": [
        {
          "internalType": "address",
          "name": "token_",
          "type": "address"
        },
        {
          "internalType": "uint256",
          "name": "amount_",
          "type": "uint256"
        }
      ],
      "name": "claim",
      "outputs": [],
      "stateMutability": "nonpayable",
      "type": "function"
    },
    {
      "inputs": [
        {
          "internalType": "address",
          "name": "token_",
          "type": "address"
        },
        {
          "internalType": "address",
          "name": "account_",
          "type": "address"
        }
      ],
      "name": "claimed",
      "outputs": [
        {
          "internalType": "uint256",
          "name": "",
          "type": "uint256"
        }
      ],
      "stateMutability": "view",
      "type": "function"
    },
    {
      "inputs": [],
      "name": "converter",
      "outputs": [
        {
          "internalType": "address",
          "name": "",
          "type": "address"
        }
      ],
      "stateMutability": "view",
      "type": "function"
    },
    {
      "inputs": [
        {
          "internalType": "address",
          "name": "token_",
          "type": "address"
        },
        {
          "internalType": "uint256",
          "name": "amount_",
          "type": "uint256"
        }
      ],
      "name": "deposit",
      "outputs": [],
      "stateMutability": "nonpayable",
      "type": "function"
    },
    {
      "inputs": [
        {
          "internalType": "bytes32",
          "name": "role",
          "type": "bytes32"
        }
      ],
      "name": "getRoleAdmin",
      "outputs": [
        {
          "internalType": "bytes32",
          "name": "",
          "type": "bytes32"
        }
      ],
      "stateMutability": "view",
      "type": "function"
    },
    {
      "inputs": [
        {
          "internalType": "bytes32",
          "name": "role",
          "type": "bytes32"
        },
        {
          "internalType": "address",
          "name": "account",
          "type": "address"
        }
      ],
      "name": "grantRole",
      "outputs": [],
      "stateMutability": "nonpayable",
      "type": "function"
    },
    {
      "inputs": [
        {
          "internalType": "bytes32",
          "name": "role",
          "type": "bytes32"
        },
        {
          "internalType": "address",
          "name": "account",
          "type": "address"
        }
      ],
      "name": "hasRole",
      "outputs": [
        {
          "internalType": "bool",
          "name": "",
          "type": "bool"
        }
      ],
      "stateMutability": "view",
      "type": "function"
    },
    {
      "inputs": [
        {
          "internalType": "address",
          "name": "converter_",
          "type": "address"
        },
        {
          "internalType": "address",
          "name": "oracle_",
          "type": "address"
        },
        {
          "internalType": "uint256",
          "name": "taxPercentNumerator_",
          "type": "uint256"
        },
        {
          "internalType": "uint256",
          "name": "taxPercentDenominator_",
          "type": "uint256"
        },
        {
          "internalType": "uint256",
          "name": "timePerInterestApplication_",
          "type": "uint256"
        }
      ],
      "name": "initialize",
      "outputs": [],
      "stateMutability": "nonpayable",
      "type": "function"
    },
    {
      "inputs": [
        {
          "internalType": "address",
          "name": "converter_",
          "type": "address"
        },
        {
          "internalType": "address",
          "name": "oracle_",
          "type": "address"
        }
      ],
      "name": "initializeLPoolCore",
      "outputs": [],
      "stateMutability": "nonpayable",
      "type": "function"
    },
    {
      "inputs": [
        {
          "internalType": "uint256",
          "name": "timePerInterestApplication_",
          "type": "uint256"
        }
      ],
      "name": "initializeLPoolInterest",
      "outputs": [],
      "stateMutability": "nonpayable",
      "type": "function"
    },
    {
      "inputs": [
        {
          "internalType": "uint256",
          "name": "taxPercentNumerator_",
          "type": "uint256"
        },
        {
          "internalType": "uint256",
          "name": "taxPercentDenominator_",
          "type": "uint256"
        }
      ],
      "name": "initializeLPoolTax",
      "outputs": [],
      "stateMutability": "nonpayable",
      "type": "function"
    },
    {
      "inputs": [
        {
          "internalType": "address",
          "name": "token_",
          "type": "address"
        },
        {
          "internalType": "uint256",
          "name": "borrowPrice_",
          "type": "uint256"
        },
        {
          "internalType": "uint256",
          "name": "borrowTime_",
          "type": "uint256"
        }
      ],
      "name": "interest",
      "outputs": [
        {
          "internalType": "uint256",
          "name": "",
          "type": "uint256"
        }
      ],
      "stateMutability": "view",
      "type": "function"
    },
    {
      "inputs": [
        {
          "internalType": "address",
          "name": "token_",
          "type": "address"
        }
      ],
      "name": "interestRate",
      "outputs": [
        {
          "internalType": "uint256",
          "name": "",
          "type": "uint256"
        },
        {
          "internalType": "uint256",
          "name": "",
          "type": "uint256"
        }
      ],
      "stateMutability": "view",
      "type": "function"
    },
    {
      "inputs": [
        {
          "internalType": "address",
          "name": "token_",
          "type": "address"
        }
      ],
      "name": "isApprovedLP",
      "outputs": [
        {
          "internalType": "bool",
          "name": "",
          "type": "bool"
        }
      ],
      "stateMutability": "view",
      "type": "function"
    },
    {
      "inputs": [
        {
          "internalType": "address",
          "name": "token_",
          "type": "address"
        }
      ],
      "name": "isApprovedPT",
      "outputs": [
        {
          "internalType": "bool",
          "name": "",
          "type": "bool"
        }
      ],
      "stateMutability": "view",
      "type": "function"
    },
    {
      "inputs": [
        {
          "internalType": "address",
          "name": "token_",
          "type": "address"
        }
      ],
      "name": "isLP",
      "outputs": [
        {
          "internalType": "bool",
          "name": "",
          "type": "bool"
        }
      ],
      "stateMutability": "view",
      "type": "function"
    },
    {
      "inputs": [
        {
          "internalType": "address",
          "name": "token_",
          "type": "address"
        }
      ],
      "name": "isPT",
      "outputs": [
        {
          "internalType": "bool",
          "name": "",
          "type": "bool"
        }
      ],
      "stateMutability": "view",
      "type": "function"
    },
    {
      "inputs": [
        {
          "internalType": "address",
          "name": "token_",
          "type": "address"
        }
      ],
      "name": "liquidity",
      "outputs": [
        {
          "internalType": "uint256",
          "name": "",
          "type": "uint256"
        }
      ],
      "stateMutability": "view",
      "type": "function"
    },
    {
      "inputs": [
        {
          "internalType": "address",
          "name": "token_",
          "type": "address"
        }
      ],
      "name": "maxInterestMax",
      "outputs": [
        {
          "internalType": "uint256",
          "name": "",
          "type": "uint256"
        },
        {
          "internalType": "uint256",
          "name": "",
          "type": "uint256"
        }
      ],
      "stateMutability": "view",
      "type": "function"
    },
    {
      "inputs": [
        {
          "internalType": "address",
          "name": "token_",
          "type": "address"
        }
      ],
      "name": "maxInterestMin",
      "outputs": [
        {
          "internalType": "uint256",
          "name": "",
          "type": "uint256"
        },
        {
          "internalType": "uint256",
          "name": "",
          "type": "uint256"
        }
      ],
      "stateMutability": "view",
      "type": "function"
    },
    {
      "inputs": [
        {
          "internalType": "address",
          "name": "token_",
          "type": "address"
        }
      ],
      "name": "maxUtilization",
      "outputs": [
        {
          "internalType": "uint256",
          "name": "",
          "type": "uint256"
        },
        {
          "internalType": "uint256",
          "name": "",
          "type": "uint256"
        }
      ],
      "stateMutability": "view",
      "type": "function"
    },
    {
      "inputs": [],
      "name": "oracle",
      "outputs": [
        {
          "internalType": "address",
          "name": "",
          "type": "address"
        }
      ],
      "stateMutability": "view",
      "type": "function"
    },
    {
      "inputs": [
        {
          "internalType": "address",
          "name": "token_",
          "type": "address"
        },
        {
          "internalType": "uint256",
          "name": "amount_",
          "type": "uint256"
        }
      ],
      "name": "removeLiquidity",
      "outputs": [
        {
          "internalType": "uint256",
          "name": "",
          "type": "uint256"
        }
      ],
      "stateMutability": "nonpayable",
      "type": "function"
    },
    {
      "inputs": [
        {
          "internalType": "address",
          "name": "token_",
          "type": "address"
        },
        {
          "internalType": "uint256",
          "name": "amount_",
          "type": "uint256"
        }
      ],
      "name": "removeLiquidityOutPoolTokens",
      "outputs": [
        {
          "internalType": "uint256",
          "name": "",
          "type": "uint256"
        }
      ],
      "stateMutability": "view",
      "type": "function"
    },
    {
      "inputs": [
        {
          "internalType": "address",
          "name": "account_",
          "type": "address"
        }
      ],
      "name": "removeTaxAccount",
      "outputs": [],
      "stateMutability": "nonpayable",
      "type": "function"
    },
    {
      "inputs": [
        {
          "internalType": "bytes32",
          "name": "role",
          "type": "bytes32"
        },
        {
          "internalType": "address",
          "name": "account",
          "type": "address"
        }
      ],
      "name": "renounceRole",
      "outputs": [],
      "stateMutability": "nonpayable",
      "type": "function"
    },
    {
      "inputs": [
        {
          "internalType": "bytes32",
          "name": "role",
          "type": "bytes32"
        },
        {
          "internalType": "address",
          "name": "account",
          "type": "address"
        }
      ],
      "name": "revokeRole",
      "outputs": [],
      "stateMutability": "nonpayable",
      "type": "function"
    },
    {
      "inputs": [
        {
          "internalType": "address[]",
          "name": "token_",
          "type": "address[]"
        },
        {
          "internalType": "bool[]",
          "name": "approved_",
          "type": "bool[]"
        }
      ],
      "name": "setApproved",
      "outputs": [],
      "stateMutability": "nonpayable",
      "type": "function"
    },
    {
      "inputs": [
        {
          "internalType": "address",
          "name": "converter_",
          "type": "address"
        }
      ],
      "name": "setConverter",
      "outputs": [],
      "stateMutability": "nonpayable",
      "type": "function"
    },
    {
      "inputs": [
        {
          "internalType": "address[]",
          "name": "token_",
          "type": "address[]"
        },
        {
          "internalType": "uint256[]",
          "name": "percentNumerator_",
          "type": "uint256[]"
        },
        {
          "internalType": "uint256[]",
          "name": "percentDenominator_",
          "type": "uint256[]"
        }
      ],
      "name": "setMaxInterestMax",
      "outputs": [],
      "stateMutability": "nonpayable",
      "type": "function"
    },
    {
      "inputs": [
        {
          "internalType": "address[]",
          "name": "token_",
          "type": "address[]"
        },
        {
          "internalType": "uint256[]",
          "name": "percentNumerator_",
          "type": "uint256[]"
        },
        {
          "internalType": "uint256[]",
          "name": "percentDenominator_",
          "type": "uint256[]"
        }
      ],
      "name": "setMaxInterestMin",
      "outputs": [],
      "stateMutability": "nonpayable",
      "type": "function"
    },
    {
      "inputs": [
        {
          "internalType": "address[]",
          "name": "token_",
          "type": "address[]"
        },
        {
          "internalType": "uint256[]",
          "name": "percentNumerator_",
          "type": "uint256[]"
        },
        {
          "internalType": "uint256[]",
          "name": "percentDenominator_",
          "type": "uint256[]"
        }
      ],
      "name": "setMaxUtilization",
      "outputs": [],
      "stateMutability": "nonpayable",
      "type": "function"
    },
    {
      "inputs": [
        {
          "internalType": "address",
          "name": "oracle_",
          "type": "address"
        }
      ],
      "name": "setOracle",
      "outputs": [],
      "stateMutability": "nonpayable",
      "type": "function"
    },
    {
      "inputs": [
        {
          "internalType": "uint256",
          "name": "taxPercentNumerator_",
          "type": "uint256"
        },
        {
          "internalType": "uint256",
          "name": "taxPercentDenominator_",
          "type": "uint256"
        }
      ],
      "name": "setTaxPercentage",
      "outputs": [],
      "stateMutability": "nonpayable",
      "type": "function"
    },
    {
      "inputs": [
        {
          "internalType": "uint256",
          "name": "timePerInterestApplication_",
          "type": "uint256"
        }
      ],
      "name": "setTimePerInterestApplication",
      "outputs": [],
      "stateMutability": "nonpayable",
      "type": "function"
    },
    {
      "inputs": [
        {
          "internalType": "bytes4",
          "name": "interfaceId",
          "type": "bytes4"
        }
      ],
      "name": "supportsInterface",
      "outputs": [
        {
          "internalType": "bool",
          "name": "",
          "type": "bool"
        }
      ],
      "stateMutability": "view",
      "type": "function"
    },
    {
      "inputs": [],
      "name": "taxPercentage",
      "outputs": [
        {
          "internalType": "uint256",
          "name": "",
          "type": "uint256"
        },
        {
          "internalType": "uint256",
          "name": "",
          "type": "uint256"
        }
      ],
      "stateMutability": "view",
      "type": "function"
    },
    {
      "inputs": [],
      "name": "timePerInterestApplication",
      "outputs": [
        {
          "internalType": "uint256",
          "name": "",
          "type": "uint256"
        }
      ],
      "stateMutability": "view",
      "type": "function"
    },
    {
      "inputs": [
        {
          "internalType": "address",
          "name": "token_",
          "type": "address"
        }
      ],
      "name": "totalClaimed",
      "outputs": [
        {
          "internalType": "uint256",
          "name": "",
          "type": "uint256"
        }
      ],
      "stateMutability": "view",
      "type": "function"
    },
    {
      "inputs": [
        {
          "internalType": "address",
          "name": "token_",
          "type": "address"
        }
      ],
      "name": "tvl",
      "outputs": [
        {
          "internalType": "uint256",
          "name": "",
          "type": "uint256"
        }
      ],
      "stateMutability": "view",
      "type": "function"
    },
    {
      "inputs": [
        {
          "internalType": "address",
          "name": "token_",
          "type": "address"
        },
        {
          "internalType": "uint256",
          "name": "amount_",
          "type": "uint256"
        }
      ],
      "name": "unclaim",
      "outputs": [],
      "stateMutability": "nonpayable",
      "type": "function"
    },
    {
      "inputs": [
        {
          "internalType": "address",
          "name": "token_",
          "type": "address"
        }
      ],
      "name": "utilizationRate",
      "outputs": [
        {
          "internalType": "uint256",
          "name": "",
          "type": "uint256"
        },
        {
          "internalType": "uint256",
          "name": "",
          "type": "uint256"
        }
      ],
      "stateMutability": "view",
      "type": "function"
    },
    {
      "inputs": [
        {
          "internalType": "address",
          "name": "token_",
          "type": "address"
        }
      ],
      "name": "utilized",
      "outputs": [
        {
          "internalType": "uint256",
          "name": "",
          "type": "uint256"
        }
      ],
      "stateMutability": "view",
      "type": "function"
    },
    {
      "inputs": [
        {
          "internalType": "address",
          "name": "token_",
          "type": "address"
        },
        {
          "internalType": "uint256",
          "name": "amount_",
          "type": "uint256"
        }
      ],
      "name": "withdraw",
      "outputs": [],
      "stateMutability": "nonpayable",
      "type": "function"
    }
  ],
  "bytecode": "0x608060405234801561001057600080fd5b50615779806100206000396000f3fe60806040523480156200001157600080fd5b50600436106200036a5760003560e01c8063902c4e5511620001dc578063c5e655de1162000119578063ef5d9ae811620000af578063f3fef3a31162000086578063f3fef3a31462000819578063fbfa54d11462000830578063fe1431b71462000847578063fe3d5768146200085157600080fd5b8063ef5d9ae814620007d4578063f019686d14620007eb578063f2fd9dc2146200080257600080fd5b8063d547741f11620000f0578063d547741f1462000778578063e472d744146200078f578063e5a045cb14620007a6578063e75db61614620007bd57600080fd5b8063c5e655de1462000733578063d0b9622c146200074a578063d13f90b4146200076157600080fd5b8063aad3ec96116200018f578063b19337a41162000166578063b19337a414620006da578063b8c876b114620006f1578063bd38837b1462000708578063bffe84c2146200071c57600080fd5b8063aad3ec9614620006a2578063ae7b6d1614620006b9578063b09b765714620006c357600080fd5b8063902c4e55146200062657806391d14854146200063d578063a201ccf61462000654578063a217fddf146200066b578063a2b4fe711462000674578063aa08ed76146200068b57600080fd5b80635668870011620002ab57806377641147116200025e5780637c2c69c011620002355780637c2c69c014620005cd5780637dc0d1d014620005e45780637df0f76714620005f85780638695ede3146200060f57600080fd5b80637764114714620005885780637adbf973146200059f5780637b56446014620005b657600080fd5b80635668870014620004fe5780636518711d14620005155780636752a250146200052c5780636a112c89146200054357806371a5a88f146200055a5780637594825b146200057157600080fd5b806320f5ad9411620003215780632f2ff15d11620002f85780632f2ff15d146200048957806336568abe14620004a057806347e7ef2414620004b75780634c07d1b714620004ce57600080fd5b806320f5ad941462000433578063248a9ca3146200044c57806325ddcd61146200047257600080fd5b806301ffc9a7146200036f578063045f1f4f146200039b5780630c9cbf0e14620003c157806312e23ac214620003d857806318b7373d1462000405578063207b27df146200041c575b600080fd5b620003866200038036600462003c13565b62000868565b60405190151581526020015b60405180910390f35b620003b26000805160206200572483398151915281565b60405190815260200162000392565b620003b2620003d236600462003c5c565b620008a0565b620003ef620003e936600462003c94565b62000906565b6040805192835260208301919091520162000392565b620003866200041636600462003c94565b6200097a565b620003ef6200042d36600462003c94565b6200099a565b6200044a6200044436600462003cb2565b620009f1565b005b620003b26200045d36600462003cd5565b60009081526065602052604090206001015490565b6200044a6200048336600462003c94565b62000a19565b6200044a6200049a36600462003cef565b62000a46565b6200044a620004b136600462003cef565b62000a75565b6200044a620004c836600462003d15565b62000af3565b620004e5620004df36600462003c94565b62000cef565b6040516001600160a01b03909116815260200162000392565b620003b26200050f36600462003d15565b62000d3c565b6200044a6200052636600462003e86565b62000ef6565b620003b26200053d36600462003d15565b62001033565b620004e56200055436600462003c94565b6200111c565b6200044a6200056b36600462003cd5565b62001169565b6200044a6200058236600462003c94565b6200118b565b620003b26200059936600462003d15565b620011b4565b6200044a620005b036600462003c94565b620012a6565b6200044a620005c736600462003e86565b620012e5565b620003ef620005de36600462003c94565b6200140d565b609854620004e5906001600160a01b031681565b620003866200060936600462003c94565b62001517565b620003ef6200062036600462003c94565b62001537565b6200044a620006373660046200400b565b620015a0565b620003866200064e36600462003cef565b620017df565b620003b26200066536600462003d15565b6200180a565b620003b2600081565b620003b26000805160206200570483398151915281565b620003ef6200069c36600462003c94565b620019e2565b6200044a620006b336600462003d15565b62001a4b565b620003ef62001c3b565b6200044a620006d436600462003cb2565b62001c6a565b6200044a620006eb36600462003c94565b62001cee565b620003b26200070236600462003c94565b62001d2d565b609754620004e5906001600160a01b031681565b6200044a6200072d36600462003d15565b62001d88565b6200044a6200074436600462003c5c565b62001f8a565b620003b26200075b36600462004093565b6200209e565b6200044a62000772366004620040c9565b62002110565b6200044a6200078936600462003cef565b620021b1565b6200044a620007a03660046200412d565b620021db565b62000386620007b736600462003c94565b62002407565b620003b2620007ce36600462003c94565b6200243b565b620003b2620007e536600462003c94565b620024ea565b6200044a620007fc36600462003cd5565b62002534565b6200044a6200081336600462003e86565b620025b2565b6200044a6200082a36600462003d15565b620026da565b620003866200084136600462003c94565b6200286a565b620003b260a45481565b620003b26200086236600462003c94565b620028b1565b60006001600160e01b03198216637965db0b60e01b14806200089a57506301ffc9a760e01b6001600160e01b03198316145b92915050565b600082620008ae816200097a565b620008d65760405162461bcd60e51b8152600401620008cd90620041ff565b60405180910390fd5b6001600160a01b038084166000908152609e602090815260408083209388168352929052205491505b5092915050565b6000808262000915816200097a565b620009345760405162461bcd60e51b8152600401620008cd90620041ff565b6001600160a01b038416600090815260a6602090815260409182902082518084019093528054835260010154908201526200096f9062002911565b925092505b50915091565b6001600160a01b0390811660009081526099602052604090205416151590565b60008082620009a9816200097a565b620009c85760405162461bcd60e51b8152600401620008cd90620041ff565b6000620009d585620028b1565b90506000620009e4866200243b565b9194509092505050915091565b6000805160206200570483398151915262000a0d81336200294d565b5060a09190915560a155565b6000805160206200570483398151915262000a3581336200294d565b62000a4260a283620029bc565b5050565b60008281526065602052604090206001015462000a6481336200294d565b62000a70838362002a88565b505050565b6001600160a01b038116331462000ae75760405162461bcd60e51b815260206004820152602f60248201527f416363657373436f6e74726f6c3a2063616e206f6e6c792072656e6f756e636560448201526e103937b632b9903337b91039b2b63360891b6064820152608401620008cd565b62000a42828262002b12565b6000805160206200572483398151915262000b0f81336200294d565b6000821162000b7d5760405162461bcd60e51b815260206004820152603360248201527f4c506f6f6c4465706f7369743a204465706f73697420616d6f756e74206d75736044820152720742062652067726561746572207468616e203606c1b6064820152608401620008cd565b62000b946001600160a01b03841633308562002b7c565b600062000ba062002be9565b9050826001600160a01b038083169086161462000c685760975462000bd3906001600160a01b0387811691168662002eb9565b60975460405163039d0d5f60e51b81526001600160a01b038781166004830152602482018790528481166044830152909116906373a1abe090606401602060405180830381600087803b15801562000c2a57600080fd5b505af115801562000c3f573d6000803e3d6000fd5b505050506040513d601f19601f8201168201806040525081019062000c6591906200424a565b90505b600062000c76838362002fe6565b9050337faaefaf378e10f40556b2167ea878af7e62d89229b0bce3924630aabf1ee611ff87878662000ca987876200309b565b60405162000cdf94939291906001600160a01b039485168152602081019390935292166040820152606081019190915260800190565b60405180910390a2505050505050565b60008162000cfd8162001517565b62000d1c5760405162461bcd60e51b8152600401620008cd9062004264565b50506001600160a01b039081166000908152609a60205260409020541690565b60008262000d4a8162002407565b62000d695760405162461bcd60e51b8152600401620008cd90620042b9565b6000831162000d8c5760405162461bcd60e51b8152600401620008cd906200430d565b600062000d99856200111c565b9050600062000da98686620011b4565b90506000811162000e0e5760405162461bcd60e51b815260206004820152602860248201527f4c506f6f6c50726f766964653a204e6f7420656e6f75676820746f6b656e73206044820152671c1c9bdd9a59195960c21b6064820152608401620008cd565b62000e256001600160a01b03871633308862002b7c565b6001600160a01b0382166340c10f19336040516001600160e01b031960e084901b1681526001600160a01b03909116600482015260248101849052604401600060405180830381600087803b15801562000e7e57600080fd5b505af115801562000e93573d6000803e3d6000fd5b5050505062000e9f3390565b604080516001600160a01b038981168252602082018990529181018490529116907fd2491a9b4fe81a7cd4511e8b7b7743951b061dad5bed7da8a7795b080ee08c7e9060600160405180910390a295945050505050565b6000805160206200570483398151915262000f1281336200294d565b60005b84518110156200102c5762000f4685828151811062000f385762000f3862004362565b60200260200101516200097a565b15620010175783818151811062000f615762000f6162004362565b602002602001015160a7600087848151811062000f825762000f8262004362565b60200260200101516001600160a01b03166001600160a01b031681526020019081526020016000206000018190555082818151811062000fc65762000fc662004362565b602002602001015160a7600087848151811062000fe75762000fe762004362565b60200260200101516001600160a01b03166001600160a01b03168152602001908152602001600020600101819055505b8062001023816200438e565b91505062000f15565b5050505050565b600082620010418162001517565b620010605760405162461bcd60e51b8152600401620008cd9062004264565b8360006200106e8262000cef565b90506000826001600160a01b03166318160ddd6040518163ffffffff1660e01b815260040160206040518083038186803b158015620010ac57600080fd5b505afa158015620010c1573d6000803e3d6000fd5b505050506040513d601f19601f82011682018060405250810190620010e791906200424a565b90506000620010f6836200243b565b90506200111082620011098984620030a9565b90620030b7565b98975050505050505050565b6000816200112a816200097a565b620011495760405162461bcd60e51b8152600401620008cd90620041ff565b50506001600160a01b039081166000908152609960205260409020541690565b600080516020620057048339815191526200118581336200294d565b5060a455565b60008051602062005704833981519152620011a781336200294d565b62000a4260a283620030c5565b600082620011c28162002407565b620011e15760405162461bcd60e51b8152600401620008cd90620042b9565b6000620011ee856200111c565b90506000816001600160a01b03166318160ddd6040518163ffffffff1660e01b815260040160206040518083038186803b1580156200122c57600080fd5b505afa15801562001241573d6000803e3d6000fd5b505050506040513d601f19601f820116820180604052508101906200126791906200424a565b9050600062001276876200243b565b9050806200128a57859450505050620008ff565b6200129b81620011098885620030a9565b979650505050505050565b60008051602062005704833981519152620012c281336200294d565b50609880546001600160a01b0319166001600160a01b0392909216919091179055565b600080516020620057048339815191526200130181336200294d565b60005b84518110156200102c576200132785828151811062000f385762000f3862004362565b15620013f85783818151811062001342576200134262004362565b602002602001015160a6600087848151811062001363576200136362004362565b60200260200101516001600160a01b03166001600160a01b0316815260200190815260200160002060000181905550828181518110620013a757620013a762004362565b602002602001015160a66000878481518110620013c857620013c862004362565b60200260200101516001600160a01b03166001600160a01b03168152602001908152602001600020600101819055505b8062001404816200438e565b91505062001304565b600080826200141c816200097a565b6200143b5760405162461bcd60e51b8152600401620008cd90620041ff565b60008062001449866200099a565b9150915060006200145b838362003224565b6001600160a01b038816600081815260a76020908152604080832081518083018352815481526001918201548185015285855260a584528285208351808501855281548152908301548186015295855260a684529382902082518084019093528054835201549181019190915292935091620014d88484620032ae565b156200150657620014f6620014f08584868562003330565b62002911565b9850985050505050505062000974565b620014f6620014f08585856200339f565b6001600160a01b039081166000908152609a602052604090205416151590565b6000808262001546816200097a565b620015655760405162461bcd60e51b8152600401620008cd90620041ff565b6001600160a01b038416600090815260a7602090815260409182902082518084019093528054835260010154908201526200096f9062002911565b60008051602062005704833981519152620015bc81336200294d565b60005b84518110156200102c57620015e285828151811062000f385762000f3862004362565b1580156200161457506200161285828151811062001604576200160462004362565b602002602001015162001517565b155b15620017ca57600084828151811062001631576200163162004362565b60200260200101518483815181106200164e576200164e62004362565b6020026020010151604051620016649062003c05565b6200167192919062004409565b604051809103906000f0801580156200168e573d6000803e3d6000fd5b5090508060996000888581518110620016ab57620016ab62004362565b60200260200101516001600160a01b03166001600160a01b0316815260200190815260200160002060006101000a8154816001600160a01b0302191690836001600160a01b031602179055508582815181106200170c576200170c62004362565b6020026020010151609a6000836001600160a01b03166001600160a01b0316815260200190815260200160002060006101000a8154816001600160a01b0302191690836001600160a01b031602179055507f477e5c7d85f3de93afbcad26bdf96f48e48da2fe002f3e35e7aa07bf174daeff86838151811062001793576200179362004362565b602002602001015182604051620017c09291906001600160a01b0392831681529116602082015260400190565b60405180910390a1505b80620017d6816200438e565b915050620015bf565b60009182526065602090815260408084206001600160a01b0393909316845291905290205460ff1690565b600082620018188162001517565b620018375760405162461bcd60e51b8152600401620008cd9062004264565b600083116200185a5760405162461bcd60e51b8152600401620008cd906200430d565b836000620018688262000cef565b9050600062001878878762001033565b9050620018858262001d2d565b811115620018fc5760405162461bcd60e51b815260206004820152603960248201527f4c506f6f6c50726f766964653a204e6f7420656e6f756768206c69717569646960448201527f747920746f2072656465656d20617420746869732074696d65000000000000006064820152608401620008cd565b6001600160a01b038316639dc29fac336040516001600160e01b031960e084901b1681526001600160a01b03909116600482015260248101899052604401600060405180830381600087803b1580156200195557600080fd5b505af11580156200196a573d6000803e3d6000fd5b505050506200198c6200197a3390565b6001600160a01b0384169083620033c4565b604080516001600160a01b038916815260208101889052808201839052905133917f34ef8e86237e7385b43618862e895c6ce827b2b7d6107ad415d54336c1dd2dd6919081900360600190a29695505050505050565b60008082620019f1816200097a565b62001a105760405162461bcd60e51b8152600401620008cd90620041ff565b6001600160a01b038416600090815260a5602090815260409182902082518084019093528054835260010154908201526200096f9062002911565b6000805160206200572483398151915262001a6781336200294d565b8262001a738162002407565b62001a925760405162461bcd60e51b8152600401620008cd90620042b9565b6000831162001afc5760405162461bcd60e51b815260206004820152602f60248201527f4c506f6f6c436c61696d3a20636c61696d20616d6f756e74206d75737420626560448201526e02067726561746572207468616e203608c1b6064820152608401620008cd565b62001b078462001d2d565b83111562001b735760405162461bcd60e51b815260206004820152603260248201527f4c506f6f6c436c61696d3a2043616e6e6f7420636c61696d206d6f7265207468604482015271616e20746f74616c206c697175696469747960701b6064820152608401620008cd565b336000908152609e602090815260408083206001600160a01b038816845290915290205462001ba39084620033f6565b336000908152609e602090815260408083206001600160a01b0389168452825280832093909355609f9052205462001bdc9084620033f6565b6001600160a01b0385166000818152609f602090815260409182902093909355805191825291810185905233917f70eb43c4a8ae8c40502dcf22436c509c28d6ff421cf07c491be56984bd98706891015b60405180910390a250505050565b6040805180820190915260a054815260a1546020820152600090819062001c629062002911565b915091509091565b600054610100900460ff1662001c875760005460ff161562001c8b565b303b155b62001caa5760405162461bcd60e51b8152600401620008cd9062004432565b600054610100900460ff1615801562001ccd576000805461ffff19166101011790555b60a083905560a1829055801562000a70576000805461ff0019169055505050565b6000805160206200570483398151915262001d0a81336200294d565b50609780546001600160a01b0319166001600160a01b0392909216919091179055565b60008162001d3b816200097a565b62001d5a5760405162461bcd60e51b8152600401620008cd90620041ff565b600062001d6784620024ea565b905062001d808162001d79866200243b565b906200309b565b949350505050565b6000805160206200572483398151915262001da481336200294d565b8262001db0816200097a565b62001dcf5760405162461bcd60e51b8152600401620008cd90620041ff565b6000831162001e3b5760405162461bcd60e51b815260206004820152603160248201527f4c506f6f6c436c61696d3a20556e636c61696d20616d6f756e74206d75737420604482015270062652067726561746572207468616e203607c1b6064820152608401620008cd565b336000908152609e602090815260408083206001600160a01b038816845290915290205483111562001ecb5760405162461bcd60e51b815260206004820152603260248201527f4c506f6f6c436c61696d3a2043616e6e6f7420756e636c61696d206d6f7265206044820152717468616e2063757272656e7420636c61696d60701b6064820152608401620008cd565b336000908152609e602090815260408083206001600160a01b038816845290915290205462001efb90846200309b565b336000908152609e602090815260408083206001600160a01b0389168452825280832093909355609f9052205462001f3490846200309b565b6001600160a01b0385166000818152609f602090815260409182902093909355805191825291810185905233917fb357d3c8cf2c37863e04f4c71afd0e8bef633cec94ee21866dc4e7058932a489910162001c2d565b600054610100900460ff1662001fa75760005460ff161562001fab565b303b155b62001fca5760405162461bcd60e51b8152600401620008cd9062004432565b600054610100900460ff1615801562001fed576000805461ffff19166101011790555b62001ff762003404565b62002012600080516020620057048339815191528062003473565b6200203c600080516020620057248339815191526000805160206200570483398151915262003473565b62002057600080516020620057048339815191523362002a88565b609780546001600160a01b038086166001600160a01b0319928316179092556098805492851692909116919091179055801562000a70576000805461ff0019169055505050565b600083620020ac816200097a565b620020cb5760405162461bcd60e51b8152600401620008cd90620041ff565b6000620020d942856200309b565b9050600080620020e9886200140d565b60a4549193509150620011109062001109838187620021098d89620030a9565b90620030a9565b600054610100900460ff166200212d5760005460ff161562002131565b303b155b620021505760405162461bcd60e51b8152600401620008cd9062004432565b600054610100900460ff1615801562002173576000805461ffff19166101011790555b6200217f868662001f8a565b6200218b848462001c6a565b620021968262002534565b8015620021a9576000805461ff00191690555b505050505050565b600082815260656020526040902060010154620021cf81336200294d565b62000a70838362002b12565b60008051602062005704833981519152620021f781336200294d565b60005b835181101562002401576200221d84828151811062000f385762000f3862004362565b15620023ec5782818151811062002238576200223862004362565b6020026020010151609d600086848151811062002259576200225962004362565b60200260200101516001600160a01b03166001600160a01b0316815260200190815260200160002060006101000a81548160ff021916908315150217905550609d6000858381518110620022b157620022b162004362565b6020908102919091018101516001600160a01b031682528101919091526040016000205460ff16801562002314575062002312848281518110620022f957620022f962004362565b6020026020010151609b620034be90919063ffffffff16565b155b1562002352576200234c84828151811062002333576200233362004362565b6020026020010151609b620029bc90919063ffffffff16565b620023ec565b609d60008583815181106200236b576200236b62004362565b6020908102919091018101516001600160a01b031682528101919091526040016000205460ff16158015620023b45750620023b4848281518110620022f957620022f962004362565b15620023ec57620023ec848281518110620023d357620023d362004362565b6020026020010151609b620030c590919063ffffffff16565b80620023f8816200438e565b915050620021fa565b50505050565b600062002414826200097a565b80156200089a5750506001600160a01b03166000908152609d602052604090205460ff1690565b60008162002449816200097a565b620024685760405162461bcd60e51b8152600401620008cd90620041ff565b6040516370a0823160e01b81523060048201526001600160a01b038416906370a082319060240160206040518083038186803b158015620024a857600080fd5b505afa158015620024bd573d6000803e3d6000fd5b505050506040513d601f19601f82011682018060405250810190620024e391906200424a565b9392505050565b600081620024f8816200097a565b620025175760405162461bcd60e51b8152600401620008cd90620041ff565b50506001600160a01b03166000908152609f602052604090205490565b600054610100900460ff16620025515760005460ff161562002555565b303b155b620025745760405162461bcd60e51b8152600401620008cd9062004432565b600054610100900460ff1615801562002597576000805461ffff19166101011790555b60a4829055801562000a42576000805461ff00191690555050565b60008051602062005704833981519152620025ce81336200294d565b60005b84518110156200102c57620025f485828151811062000f385762000f3862004362565b15620026c5578381815181106200260f576200260f62004362565b602002602001015160a5600087848151811062002630576200263062004362565b60200260200101516001600160a01b03166001600160a01b031681526020019081526020016000206000018190555082818151811062002674576200267462004362565b602002602001015160a5600087848151811062002695576200269562004362565b60200260200101516001600160a01b03166001600160a01b03168152602001908152602001600020600101819055505b80620026d1816200438e565b915050620025d1565b60008051602062005724833981519152620026f681336200294d565b82620027028162002407565b620027215760405162461bcd60e51b8152600401620008cd90620042b9565b60008311620027905760405162461bcd60e51b815260206004820152603460248201527f4c506f6f6c4465706f7369743a20576974686472617720616d6f756e74206d75604482015273073742062652067726561746572207468616e20360641b6064820152608401620008cd565b6200279b8462001d2d565b831115620028125760405162461bcd60e51b815260206004820152603960248201527f4c506f6f6c4465706f7369743a20576974686472617720616d6f756e7420657860448201527f636565647320617661696c61626c65206c6971756964697479000000000000006064820152608401620008cd565b620028286001600160a01b0385163385620033c4565b604080516001600160a01b03861681526020810185905233917f9b1bfa7fa9ee420a16e124f794c35ac9f90472acc99140eb2f6447c714cad8eb910162001c2d565b6000620028778262001517565b80156200089a5750609d60006200288e8462000cef565b6001600160a01b0316815260208101919091526040016000205460ff1692915050565b600081620028bf816200097a565b620028de5760405162461bcd60e51b8152600401620008cd90620041ff565b6000620028eb8462001d2d565b90506000620028fa856200243b565b90506200290881836200309b565b95945050505050565b600080828060200151600014156200293d5760405162461bcd60e51b8152600401620008cd9062004480565b5050815160209092015191929050565b620029598282620017df565b62000a425762002974816001600160a01b0316601462003524565b6200298183602062003524565b60405160200162002994929190620044d4565b60408051601f198184030181529082905262461bcd60e51b8252620008cd916004016200454d565b620029c88282620034be565b1562002a2e5760405162461bcd60e51b815260206004820152602e60248201527f416464726573735365743a204164647265737320616c7265616479206578697360448201526d3a399034b7103a34329039b2ba1760911b6064820152608401620008cd565b6001828101805480830182556000828152602090200180546001600160a01b0319166001600160a01b0385161790555462002a6a919062004562565b6001600160a01b039091166000908152602092909252604090912055565b62002a948282620017df565b62000a425760008281526065602090815260408083206001600160a01b03851684529091529020805460ff1916600117905562002ace3390565b6001600160a01b0316816001600160a01b0316837f2f8788117e7eff1d82e926ec794901d17c78024a50270940304540a733656f0d60405160405180910390a45050565b62002b1e8282620017df565b1562000a425760008281526065602090815260408083206001600160a01b0385168085529252808320805460ff1916905551339285917ff6391f5c32d9c69d2a47ea670b442974b53935d1edc7fd64eb21e047a839171b9190a45050565b6040516001600160a01b0380851660248301528316604482015260648101829052620024019085906323b872dd60e01b906084015b60408051601f198184030181529190526020810180516001600160e01b03166001600160e01b031990931692909217909152620036de565b60008062002bf6620037b7565b90506000815167ffffffffffffffff81111562002c175762002c1762003d42565b60405190808252806020026020018201604052801562002c41578160200160208202803683370190505b5090506000805b835181101562002dca5760008062002c7c86848151811062002c6e5762002c6e62004362565b60200260200101516200140d565b915091506000609860009054906101000a90046001600160a01b03166001600160a01b031663561c2ed888868151811062002cbb5762002cbb62004362565b602002602001015162002cea8a888151811062002cdc5762002cdc62004362565b6020026020010151620028b1565b6040516001600160e01b031960e085901b1681526001600160a01b039092166004830152602482015260440160206040518083038186803b15801562002d2f57600080fd5b505afa15801562002d44573d6000803e3d6000fd5b505050506040513d601f19601f8201168201806040525081019062002d6a91906200424a565b9050600062002d7f83620011098487620030a9565b90508087868151811062002d975762002d9762004362565b602090810291909101015262002dae8682620033f6565b955050505050808062002dc1906200438e565b91505062002c48565b50600062002e288244435a336040805160208101959095528401929092526060808401919091521b6bffffffffffffffffffffffff1916608082015260940160408051601f19818403018152919052805160209091012090620037ca565b9050600080805b865181101562002eae5762002e6a86828151811062002e525762002e5262004362565b602002602001015184620033f690919063ffffffff16565b925082841162002e995786818151811062002e895762002e8962004362565b6020026020010151915062002eae565b8062002ea5816200438e565b91505062002e2f565b509695505050505050565b80158062002f475750604051636eb1769f60e11b81523060048201526001600160a01b03838116602483015284169063dd62ed3e9060440160206040518083038186803b15801562002f0a57600080fd5b505afa15801562002f1f573d6000803e3d6000fd5b505050506040513d601f19601f8201168201806040525081019062002f4591906200424a565b155b62002fb45760405162461bcd60e51b815260206004820152603660248201527f5361666545524332303a20617070726f76652066726f6d206e6f6e2d7a65726f60448201527520746f206e6f6e2d7a65726f20616c6c6f77616e636560501b6064820152608401620008cd565b6040516001600160a01b03831660248201526044810182905262000a7090849063095ea7b360e01b9060640162002bb1565b60008062002ff560a2620037d8565b805160a15460a0549293506000926200301792916200110991829089620030a9565b9050600062003031835183620030a990919063ffffffff16565b905060005b835181101562003091576200307c84828151811062003059576200305962004362565b602002602001015184896001600160a01b0316620033c49092919063ffffffff16565b8062003088816200438e565b91505062003036565b5095945050505050565b6000620024e3828462004562565b6000620024e382846200457c565b6000620024e38284620045b4565b620030d18282620034be565b620031365760405162461bcd60e51b815260206004820152602e60248201527f416464726573735365743a204164647265737320646f6573206e6f742065786960448201526d39ba1034b7103a34329039b2ba1760911b6064820152608401620008cd565b600182810180546000926200314b9162004562565b815481106200315e576200315e62004362565b60009182526020808320909101546001600160a01b03858116845291869052604080842054929091168084529220819055600185018054929350909183919083908110620031b057620031b062004362565b600091825260208083209190910180546001600160a01b0319166001600160a01b03948516179055918516815290859052604081205560018401805480620031fc57620031fc620045cb565b600082815260209020810160001990810180546001600160a01b031916905501905550505050565b604080518082019091526000808252602082015281620032985760405162461bcd60e51b815260206004820152602860248201527f4672616374696f6e4d6174683a2044656e6f6d696e61746f722063616e6e6f7460448201526720657175616c206f60c01b6064820152608401620008cd565b5060408051808201909152918252602082015290565b600082806020015160001415620032d95760405162461bcd60e51b8152600401620008cd9062004480565b82806020015160001415620033025760405162461bcd60e51b8152600401620008cd9062004480565b602085015184516200331491620030a9565b602085015186516200332691620030a9565b1195945050505050565b604080518082019091526000808252602082015260006200337662003363856200335c60018062003224565b9062003840565b6200336f858862003840565b90620038f5565b905062003395816200335c856200338e838b620039e8565b9062003a5d565b9695505050505050565b604080518082019091526000808252602082015262001d80836200336f8685620039e8565b6040516001600160a01b03831660248201526044810182905262000a7090849063a9059cbb60e01b9060640162002bb1565b6000620024e38284620045e1565b600054610100900460ff16620034715760405162461bcd60e51b815260206004820152602b60248201527f496e697469616c697a61626c653a20636f6e7472616374206973206e6f74206960448201526a6e697469616c697a696e6760a81b6064820152608401620008cd565b565b600082815260656020526040808220600101805490849055905190918391839186917fbd79b86ffe0ab8e8776151514217cd7cacd52c909f66475c3af44e129f0b00ff9190a4505050565b6001820154600090620034d4575060006200089a565b6001600160a01b038216600081815260208590526040902054600185018054909190811062003507576200350762004362565b6000918252602090912001546001600160a01b0316149392505050565b60606000620035358360026200457c565b62003542906002620045e1565b67ffffffffffffffff8111156200355d576200355d62003d42565b6040519080825280601f01601f19166020018201604052801562003588576020820181803683370190505b509050600360fc1b81600081518110620035a657620035a662004362565b60200101906001600160f81b031916908160001a905350600f60fb1b81600181518110620035d857620035d862004362565b60200101906001600160f81b031916908160001a9053506000620035fe8460026200457c565b6200360b906001620045e1565b90505b60018111156200368d576f181899199a1a9b1b9c1cb0b131b232b360811b85600f166010811062003643576200364362004362565b1a60f81b8282815181106200365c576200365c62004362565b60200101906001600160f81b031916908160001a90535060049490941c936200368581620045fc565b90506200360e565b508315620024e35760405162461bcd60e51b815260206004820181905260248201527f537472696e67733a20686578206c656e67746820696e73756666696369656e746044820152606401620008cd565b600062003735826040518060400160405280602081526020017f5361666545524332303a206c6f772d6c6576656c2063616c6c206661696c6564815250856001600160a01b031662003af49092919063ffffffff16565b80519091501562000a70578080602001905181019062003756919062004616565b62000a705760405162461bcd60e51b815260206004820152602a60248201527f5361666545524332303a204552433230206f7065726174696f6e20646964206e6044820152691bdd081cdd58d8d9595960b21b6064820152608401620008cd565b6060620037c5609b620037d8565b905090565b6000620024e3828462004636565b6060816001018054806020026020016040519081016040528092919081815260200182805480156200383457602002820191906000526020600020905b81546001600160a01b0316815260019091019060200180831162003815575b50505050509050919050565b6040805180820190915260008082526020820152828060200151600014156200387d5760405162461bcd60e51b8152600401620008cd9062004480565b82806020015160001415620038a65760405162461bcd60e51b8152600401620008cd9062004480565b60208501518451620038d091620038be9190620030a9565b6020860151875162001d7991620030a9565b835260208085015190860151620038e791620030a9565b602084015250909392505050565b604080518082019091526000808252602082015282806020015160001415620039325760405162461bcd60e51b8152600401620008cd9062004480565b828060200151600014156200395b5760405162461bcd60e51b8152600401620008cd9062004480565b8351620039c25760405162461bcd60e51b815260206004820152602e60248201527f4672616374696f6e4d6174683a204469766973696f72206672616374696f6e2060448201526d063616e6e6f7420657175616c20360941b6064820152608401620008cd565b60208401518551620039d491620030a9565b835283516020860151620038e791620030a9565b60408051808201909152600080825260208201528280602001516000141562003a255760405162461bcd60e51b8152600401620008cd9062004480565b8280602001516000141562003a4e5760405162461bcd60e51b8152600401620008cd9062004480565b83518551620038d091620030a9565b60408051808201909152600080825260208201528280602001516000141562003a9a5760405162461bcd60e51b8152600401620008cd9062004480565b8280602001516000141562003ac35760405162461bcd60e51b8152600401620008cd9062004480565b60208501518451620038d09162003adb9190620030a9565b6020860151875162003aed91620030a9565b90620033f6565b606062001d808484600085856001600160a01b0385163b62003b595760405162461bcd60e51b815260206004820152601d60248201527f416464726573733a2063616c6c20746f206e6f6e2d636f6e74726163740000006044820152606401620008cd565b600080866001600160a01b0316858760405162003b7791906200464d565b60006040518083038185875af1925050503d806000811462003bb6576040519150601f19603f3d011682016040523d82523d6000602084013e62003bbb565b606091505b50915091506200129b8282866060831562003bd8575081620024e3565b82511562003be95782518084602001fd5b8160405162461bcd60e51b8152600401620008cd91906200454d565b611098806200466c83390190565b60006020828403121562003c2657600080fd5b81356001600160e01b031981168114620024e357600080fd5b80356001600160a01b038116811462003c5757600080fd5b919050565b6000806040838503121562003c7057600080fd5b62003c7b8362003c3f565b915062003c8b6020840162003c3f565b90509250929050565b60006020828403121562003ca757600080fd5b620024e38262003c3f565b6000806040838503121562003cc657600080fd5b50508035926020909101359150565b60006020828403121562003ce857600080fd5b5035919050565b6000806040838503121562003d0357600080fd5b8235915062003c8b6020840162003c3f565b6000806040838503121562003d2957600080fd5b62003d348362003c3f565b946020939093013593505050565b634e487b7160e01b600052604160045260246000fd5b604051601f8201601f1916810167ffffffffffffffff8111828210171562003d845762003d8462003d42565b604052919050565b600067ffffffffffffffff82111562003da95762003da962003d42565b5060051b60200190565b600082601f83011262003dc557600080fd5b8135602062003dde62003dd88362003d8c565b62003d58565b82815260059290921b8401810191818101908684111562003dfe57600080fd5b8286015b8481101562002eae5762003e168162003c3f565b835291830191830162003e02565b600082601f83011262003e3657600080fd5b8135602062003e4962003dd88362003d8c565b82815260059290921b8401810191818101908684111562003e6957600080fd5b8286015b8481101562002eae578035835291830191830162003e6d565b60008060006060848603121562003e9c57600080fd5b833567ffffffffffffffff8082111562003eb557600080fd5b62003ec38783880162003db3565b9450602086013591508082111562003eda57600080fd5b62003ee88783880162003e24565b9350604086013591508082111562003eff57600080fd5b5062003f0e8682870162003e24565b9150509250925092565b6000601f838184011262003f2b57600080fd5b8235602062003f3e62003dd88362003d8c565b82815260059290921b8501810191818101908784111562003f5e57600080fd5b8287015b8481101562003fff57803567ffffffffffffffff8082111562003f855760008081fd5b818a0191508a603f83011262003f9b5760008081fd5b8582013560408282111562003fb45762003fb462003d42565b62003fc7828b01601f1916890162003d58565b92508183528c8183860101111562003fdf5760008081fd5b818185018985013750600090820187015284525091830191830162003f62565b50979650505050505050565b6000806000606084860312156200402157600080fd5b833567ffffffffffffffff808211156200403a57600080fd5b620040488783880162003db3565b945060208601359150808211156200405f57600080fd5b6200406d8783880162003f18565b935060408601359150808211156200408457600080fd5b5062003f0e8682870162003f18565b600080600060608486031215620040a957600080fd5b620040b48462003c3f565b95602085013595506040909401359392505050565b600080600080600060a08688031215620040e257600080fd5b620040ed8662003c3f565b9450620040fd6020870162003c3f565b94979496505050506040830135926060810135926080909101359150565b80151581146200412a57600080fd5b50565b600080604083850312156200414157600080fd5b823567ffffffffffffffff808211156200415a57600080fd5b620041688683870162003db3565b93506020915081850135818111156200418057600080fd5b85019050601f810186136200419457600080fd5b8035620041a562003dd88262003d8c565b81815260059190911b82018301908381019088831115620041c557600080fd5b928401925b82841015620041f0578335620041e0816200411b565b82529284019290840190620041ca565b80955050505050509250929050565b6020808252602b908201527f4c506f6f6c417070726f7665643a204f6e6c7920706f6f6c20746f6b656e732060408201526a1b585e481899481d5cd95960aa1b606082015260800190565b6000602082840312156200425d57600080fd5b5051919050565b60208082526035908201527f4c506f6f6c417070726f7665643a204f6e6c79206c697175696469747920706f6040820152741bdb081d1bdad95b9cc81b585e481899481d5cd959605a1b606082015260800190565b60208082526034908201527f4c506f6f6c417070726f7665643a204f6e6c7920617070726f76656420706f6f6040820152731b081d1bdad95b9cc81b585e481899481d5cd95960621b606082015260800190565b60208082526035908201527f4c506f6f6c50726f766964653a20416d6f756e74206f6620746f6b656e73206d60408201527407573742062652067726561746572207468616e203605c1b606082015260800190565b634e487b7160e01b600052603260045260246000fd5b634e487b7160e01b600052601160045260246000fd5b6000600019821415620043a557620043a562004378565b5060010190565b60005b83811015620043c9578181015183820152602001620043af565b83811115620024015750506000910152565b60008151808452620043f5816020860160208601620043ac565b601f01601f19169290920160200192915050565b6040815260006200441e6040830185620043db565b8281036020840152620029088185620043db565b6020808252602e908201527f496e697469616c697a61626c653a20636f6e747261637420697320616c72656160408201526d191e481a5b9a5d1a585b1a5e995960921b606082015260800190565b60208082526034908201527f4672616374696f6e4d6174683a2044656e6f6d696e61746f72206f662066726160408201527306374696f6e2063616e6e6f7420657175616c20360641b606082015260800190565b7f416363657373436f6e74726f6c3a206163636f756e74200000000000000000008152600083516200450e816017850160208801620043ac565b7001034b99036b4b9b9b4b733903937b6329607d1b601791840191820152835162004541816028840160208801620043ac565b01602801949350505050565b602081526000620024e36020830184620043db565b60008282101562004577576200457762004378565b500390565b600081600019048311821515161562004599576200459962004378565b500290565b634e487b7160e01b600052601260045260246000fd5b600082620045c657620045c66200459e565b500490565b634e487b7160e01b600052603160045260246000fd5b60008219821115620045f757620045f762004378565b500190565b6000816200460e576200460e62004378565b506000190190565b6000602082840312156200462957600080fd5b8151620024e3816200411b565b6000826200464857620046486200459e565b500690565b6000825162004661818460208701620043ac565b919091019291505056fe60806040523480156200001157600080fd5b506040516200109838038062001098833981016040819052620000349162000251565b8151829082906200004d906003906020850190620000de565b50805162000063906004906020840190620000de565b505050620000806200007a6200008860201b60201c565b6200008c565b5050620002f8565b3390565b600580546001600160a01b038381166001600160a01b0319831681179093556040519116919082907f8be0079c531659141344cd1fd0a4f28419497f9722a3daafe3b4186f6b6457e090600090a35050565b828054620000ec90620002bb565b90600052602060002090601f0160209004810192826200011057600085556200015b565b82601f106200012b57805160ff19168380011785556200015b565b828001600101855582156200015b579182015b828111156200015b5782518255916020019190600101906200013e565b50620001699291506200016d565b5090565b5b808211156200016957600081556001016200016e565b634e487b7160e01b600052604160045260246000fd5b600082601f830112620001ac57600080fd5b81516001600160401b0380821115620001c957620001c962000184565b604051601f8301601f19908116603f01168101908282118183101715620001f457620001f462000184565b816040528381526020925086838588010111156200021157600080fd5b600091505b8382101562000235578582018301518183018401529082019062000216565b83821115620002475760008385830101525b9695505050505050565b600080604083850312156200026557600080fd5b82516001600160401b03808211156200027d57600080fd5b6200028b868387016200019a565b93506020850151915080821115620002a257600080fd5b50620002b1858286016200019a565b9150509250929050565b600181811c90821680620002d057607f821691505b60208210811415620002f257634e487b7160e01b600052602260045260246000fd5b50919050565b610d9080620003086000396000f3fe608060405234801561001057600080fd5b50600436106101005760003560e01c8063715018a611610097578063a457c2d711610066578063a457c2d714610209578063a9059cbb1461021c578063dd62ed3e1461022f578063f2fde38b1461026857600080fd5b8063715018a6146101cb5780638da5cb5b146101d357806395d89b41146101ee5780639dc29fac146101f657600080fd5b8063313ce567116100d3578063313ce5671461016b578063395093511461017a57806340c10f191461018d57806370a08231146101a257600080fd5b806306fdde0314610105578063095ea7b31461012357806318160ddd1461014657806323b872dd14610158575b600080fd5b61010d61027b565b60405161011a9190610b79565b60405180910390f35b610136610131366004610bea565b61030d565b604051901515815260200161011a565b6002545b60405190815260200161011a565b610136610166366004610c14565b610325565b6040516012815260200161011a565b610136610188366004610bea565b610349565b6101a061019b366004610bea565b610388565b005b61014a6101b0366004610c50565b6001600160a01b031660009081526020819052604090205490565b6101a06103c9565b6005546040516001600160a01b03909116815260200161011a565b61010d6103ff565b6101a0610204366004610bea565b61040e565b610136610217366004610bea565b610442565b61013661022a366004610bea565b6104d4565b61014a61023d366004610c72565b6001600160a01b03918216600090815260016020908152604080832093909416825291909152205490565b6101a0610276366004610c50565b6104e2565b60606003805461028a90610ca5565b80601f01602080910402602001604051908101604052809291908181526020018280546102b690610ca5565b80156103035780601f106102d857610100808354040283529160200191610303565b820191906000526020600020905b8154815290600101906020018083116102e657829003601f168201915b5050505050905090565b60003361031b81858561057d565b5060019392505050565b6000336103338582856106a2565b61033e858585610734565b506001949350505050565b3360008181526001602090815260408083206001600160a01b038716845290915281205490919061031b9082908690610383908790610cf6565b61057d565b6005546001600160a01b031633146103bb5760405162461bcd60e51b81526004016103b290610d0e565b60405180910390fd5b6103c58282610902565b5050565b6005546001600160a01b031633146103f35760405162461bcd60e51b81526004016103b290610d0e565b6103fd60006109e1565b565b60606004805461028a90610ca5565b6005546001600160a01b031633146104385760405162461bcd60e51b81526004016103b290610d0e565b6103c58282610a33565b3360008181526001602090815260408083206001600160a01b0387168452909152812054909190838110156104c75760405162461bcd60e51b815260206004820152602560248201527f45524332303a2064656372656173656420616c6c6f77616e63652062656c6f77604482015264207a65726f60d81b60648201526084016103b2565b61033e828686840361057d565b60003361031b818585610734565b6005546001600160a01b0316331461050c5760405162461bcd60e51b81526004016103b290610d0e565b6001600160a01b0381166105715760405162461bcd60e51b815260206004820152602660248201527f4f776e61626c653a206e6577206f776e657220697320746865207a65726f206160448201526564647265737360d01b60648201526084016103b2565b61057a816109e1565b50565b6001600160a01b0383166105df5760405162461bcd60e51b8152602060048201526024808201527f45524332303a20617070726f76652066726f6d20746865207a65726f206164646044820152637265737360e01b60648201526084016103b2565b6001600160a01b0382166106405760405162461bcd60e51b815260206004820152602260248201527f45524332303a20617070726f766520746f20746865207a65726f206164647265604482015261737360f01b60648201526084016103b2565b6001600160a01b0383811660008181526001602090815260408083209487168084529482529182902085905590518481527f8c5be1e5ebec7d5bd14f71427d1e84f3dd0314c0f7b2291e5b200ac8c7c3b92591015b60405180910390a3505050565b6001600160a01b03838116600090815260016020908152604080832093861683529290522054600019811461072e57818110156107215760405162461bcd60e51b815260206004820152601d60248201527f45524332303a20696e73756666696369656e7420616c6c6f77616e636500000060448201526064016103b2565b61072e848484840361057d565b50505050565b6001600160a01b0383166107985760405162461bcd60e51b815260206004820152602560248201527f45524332303a207472616e736665722066726f6d20746865207a65726f206164604482015264647265737360d81b60648201526084016103b2565b6001600160a01b0382166107fa5760405162461bcd60e51b815260206004820152602360248201527f45524332303a207472616e7366657220746f20746865207a65726f206164647260448201526265737360e81b60648201526084016103b2565b6001600160a01b038316600090815260208190526040902054818110156108725760405162461bcd60e51b815260206004820152602660248201527f45524332303a207472616e7366657220616d6f756e7420657863656564732062604482015265616c616e636560d01b60648201526084016103b2565b6001600160a01b038085166000908152602081905260408082208585039055918516815290812080548492906108a9908490610cf6565b92505081905550826001600160a01b0316846001600160a01b03167fddf252ad1be2c89b69c2b068fc378daa952ba7f163c4a11628f55a4df523b3ef846040516108f591815260200190565b60405180910390a361072e565b6001600160a01b0382166109585760405162461bcd60e51b815260206004820152601f60248201527f45524332303a206d696e7420746f20746865207a65726f20616464726573730060448201526064016103b2565b806002600082825461096a9190610cf6565b90915550506001600160a01b03821660009081526020819052604081208054839290610997908490610cf6565b90915550506040518181526001600160a01b038316906000907fddf252ad1be2c89b69c2b068fc378daa952ba7f163c4a11628f55a4df523b3ef9060200160405180910390a35050565b600580546001600160a01b038381166001600160a01b0319831681179093556040519116919082907f8be0079c531659141344cd1fd0a4f28419497f9722a3daafe3b4186f6b6457e090600090a35050565b6001600160a01b038216610a935760405162461bcd60e51b815260206004820152602160248201527f45524332303a206275726e2066726f6d20746865207a65726f206164647265736044820152607360f81b60648201526084016103b2565b6001600160a01b03821660009081526020819052604090205481811015610b075760405162461bcd60e51b815260206004820152602260248201527f45524332303a206275726e20616d6f756e7420657863656564732062616c616e604482015261636560f01b60648201526084016103b2565b6001600160a01b0383166000908152602081905260408120838303905560028054849290610b36908490610d43565b90915550506040518281526000906001600160a01b038516907fddf252ad1be2c89b69c2b068fc378daa952ba7f163c4a11628f55a4df523b3ef90602001610695565b600060208083528351808285015260005b81811015610ba657858101830151858201604001528201610b8a565b81811115610bb8576000604083870101525b50601f01601f1916929092016040019392505050565b80356001600160a01b0381168114610be557600080fd5b919050565b60008060408385031215610bfd57600080fd5b610c0683610bce565b946020939093013593505050565b600080600060608486031215610c2957600080fd5b610c3284610bce565b9250610c4060208501610bce565b9150604084013590509250925092565b600060208284031215610c6257600080fd5b610c6b82610bce565b9392505050565b60008060408385031215610c8557600080fd5b610c8e83610bce565b9150610c9c60208401610bce565b90509250929050565b600181811c90821680610cb957607f821691505b60208210811415610cda57634e487b7160e01b600052602260045260246000fd5b50919050565b634e487b7160e01b600052601160045260246000fd5b60008219821115610d0957610d09610ce0565b500190565b6020808252818101527f4f776e61626c653a2063616c6c6572206973206e6f7420746865206f776e6572604082015260600190565b600082821015610d5557610d55610ce0565b50039056fea26469706673582212205f0eab13ccb2c855c995b40203449c0342a4cfd6ea224b27348ec4369d398f2a64736f6c6343000809003324e583e35a20f9ecfc1572e7cb66bcc18ad3cd1650ec40dbf6ad2290e553a9fae6026b923a18d83f4b6e92786fdd85dc8e02e7647281b0d8831236806acf2a30a26469706673582212203458a19c15477a6ad0f9c411ce98ff5449d27ae213ea45b47d5646e252e7033764736f6c63430008090033",
  "linkReferences": {},
  "deployedLinkReferences": {}
}