{
  "_format": "hh-sol-artifact-1",
  "contractName": "Oracle",
  "sourceName": "contracts/Oracle/Oracle.sol",
  "abi": [
    {
      "inputs": [
        {
          "internalType": "uint256",
          "name": "thresholdNumerator_",
          "type": "uint256"
        },
        {
          "internalType": "uint256",
          "name": "thresholdDenominator_",
          "type": "uint256"
        },
        {
          "internalType": "uint256",
          "name": "priceDecimals_",
          "type": "uint256"
        }
      ],
      "stateMutability": "nonpayable",
      "type": "constructor"
    },
    {
      "anonymous": false,
      "inputs": [
        {
          "indexed": true,
          "internalType": "address",
          "name": "previousOwner",
          "type": "address"
        },
        {
          "indexed": true,
          "internalType": "address",
          "name": "newOwner",
          "type": "address"
        }
      ],
      "name": "OwnershipTransferred",
      "type": "event"
    },
    {
      "inputs": [
        {
          "internalType": "address",
          "name": "token_",
          "type": "address"
        },
        {
          "internalType": "uint256",
          "name": "price_",
          "type": "uint256"
        }
      ],
      "name": "amountMax",
      "outputs": [
        {
          "internalType": "uint256",
          "name": "",
          "type": "uint256"
        }
      ],
      "stateMutability": "view",
      "type": "function"
    },
    {
      "inputs": [
        {
          "internalType": "address",
          "name": "token_",
          "type": "address"
        },
        {
          "internalType": "uint256",
          "name": "price_",
          "type": "uint256"
        }
      ],
      "name": "amountMin",
      "outputs": [
        {
          "internalType": "uint256",
          "name": "",
          "type": "uint256"
        }
      ],
      "stateMutability": "view",
      "type": "function"
    },
    {
      "inputs": [
        {
          "internalType": "address",
          "name": "token_",
          "type": "address"
        }
      ],
      "name": "decimals",
      "outputs": [
        {
          "internalType": "uint256",
          "name": "",
          "type": "uint256"
        }
      ],
      "stateMutability": "view",
      "type": "function"
    },
    {
      "inputs": [
        {
          "internalType": "address",
          "name": "token_",
          "type": "address"
        }
      ],
      "name": "isSupported",
      "outputs": [
        {
          "internalType": "bool",
          "name": "",
          "type": "bool"
        }
      ],
      "stateMutability": "view",
      "type": "function"
    },
    {
      "inputs": [],
      "name": "owner",
      "outputs": [
        {
          "internalType": "address",
          "name": "",
          "type": "address"
        }
      ],
      "stateMutability": "view",
      "type": "function"
    },
    {
      "inputs": [],
      "name": "priceDecimals",
      "outputs": [
        {
          "internalType": "uint256",
          "name": "",
          "type": "uint256"
        }
      ],
      "stateMutability": "view",
      "type": "function"
    },
    {
      "inputs": [
        {
          "internalType": "address",
          "name": "token_",
          "type": "address"
        }
      ],
      "name": "priceFeed",
      "outputs": [
        {
          "internalType": "address",
          "name": "",
          "type": "address"
        }
      ],
      "stateMutability": "view",
      "type": "function"
    },
    {
      "inputs": [
        {
          "internalType": "address",
          "name": "token_",
          "type": "address"
        },
        {
          "internalType": "uint256",
          "name": "amount_",
          "type": "uint256"
        }
      ],
      "name": "priceMax",
      "outputs": [
        {
          "internalType": "uint256",
          "name": "",
          "type": "uint256"
        }
      ],
      "stateMutability": "view",
      "type": "function"
    },
    {
      "inputs": [
        {
          "internalType": "address",
          "name": "token_",
          "type": "address"
        },
        {
          "internalType": "uint256",
          "name": "amount_",
          "type": "uint256"
        }
      ],
      "name": "priceMin",
      "outputs": [
        {
          "internalType": "uint256",
          "name": "",
          "type": "uint256"
        }
      ],
      "stateMutability": "view",
      "type": "function"
    },
    {
      "inputs": [],
      "name": "renounceOwnership",
      "outputs": [],
      "stateMutability": "nonpayable",
      "type": "function"
    },
    {
      "inputs": [
        {
          "internalType": "address",
          "name": "token_",
          "type": "address"
        }
      ],
      "name": "reservePriceFeed",
      "outputs": [
        {
          "internalType": "address",
          "name": "",
          "type": "address"
        }
      ],
      "stateMutability": "view",
      "type": "function"
    },
    {
      "inputs": [
        {
          "internalType": "uint256",
          "name": "priceDecimals_",
          "type": "uint256"
        }
      ],
      "name": "setPriceDecimals",
      "outputs": [],
      "stateMutability": "nonpayable",
      "type": "function"
    },
    {
      "inputs": [
        {
          "internalType": "address[]",
          "name": "token_",
          "type": "address[]"
        },
        {
          "internalType": "address[]",
          "name": "priceFeed_",
          "type": "address[]"
        },
        {
          "internalType": "address[]",
          "name": "reservePriceFeed_",
          "type": "address[]"
        },
        {
          "internalType": "uint256[]",
          "name": "correctDecimals_",
          "type": "uint256[]"
        },
        {
          "internalType": "bool[]",
          "name": "supported_",
          "type": "bool[]"
        }
      ],
      "name": "setPriceFeed",
      "outputs": [],
      "stateMutability": "nonpayable",
      "type": "function"
    },
    {
      "inputs": [
        {
          "internalType": "uint256",
          "name": "thresholdNumerator_",
          "type": "uint256"
        },
        {
          "internalType": "uint256",
          "name": "thresholdDenominator_",
          "type": "uint256"
        }
      ],
      "name": "setThreshold",
      "outputs": [],
      "stateMutability": "nonpayable",
      "type": "function"
    },
    {
      "inputs": [],
      "name": "threshold",
      "outputs": [
        {
          "internalType": "uint256",
          "name": "",
          "type": "uint256"
        },
        {
          "internalType": "uint256",
          "name": "",
          "type": "uint256"
        }
      ],
      "stateMutability": "view",
      "type": "function"
    },
    {
      "inputs": [
        {
          "internalType": "address",
          "name": "newOwner",
          "type": "address"
        }
      ],
      "name": "transferOwnership",
      "outputs": [],
      "stateMutability": "nonpayable",
      "type": "function"
    }
  ],
  "bytecode": "0x608060405234801561001057600080fd5b506040516112f93803806112f983398101604081905261002f91610099565b61003833610049565b6003929092556004556002556100c7565b600080546001600160a01b038381166001600160a01b0319831681178455604051919092169283917f8be0079c531659141344cd1fd0a4f28419497f9722a3daafe3b4186f6b6457e09190a35050565b6000806000606084860312156100ae57600080fd5b8351925060208401519150604084015190509250925092565b611223806100d66000396000f3fe608060405234801561001057600080fd5b50600436106101005760003560e01c8063715018a611610097578063b1d5e1b911610066578063b1d5e1b914610266578063b9c3620914610279578063d449a8321461028c578063f2fde38b1461029f57600080fd5b8063715018a61461020a578063833b8282146102125780638da5cb5b1461024257806395f881c91461025357600080fd5b8063468cde72116100d3578063468cde72146101925780634f129c53146101a5578063561c2ed8146101e45780636145f203146101f757600080fd5b806305300b28146101055780631fd48b9a1461011c578063317c94ba1461016057806342cde4e814610175575b600080fd5b6002545b6040519081526020015b60405180910390f35b61014861012a366004610c3c565b6001600160a01b039081166000908152600160205260409020541690565b6040516001600160a01b039091168152602001610113565b61017361016e366004610c57565b6102b2565b005b61017d6102ea565b60408051928352602083019190915201610113565b6101096101a0366004610c70565b610317565b6101d46101b3366004610c3c565b6001600160a01b031660009081526001602052604090206003015460ff1690565b6040519015158152602001610113565b6101096101f2366004610c70565b610366565b610173610205366004610e3c565b6103b9565b61017361051a565b610148610220366004610c3c565b6001600160a01b03908116600090815260016020819052604090912001541690565b6000546001600160a01b0316610148565b610109610261366004610c70565b610550565b610109610274366004610c70565b61056b565b610173610287366004610f0e565b61059c565b61010961029a366004610c3c565b6105d1565b6101736102ad366004610c3c565b6105ef565b6000546001600160a01b031633146102e55760405162461bcd60e51b81526004016102dc90610f30565b60405180910390fd5b600255565b6040805180820190915260035481526004546020820152600090819061030f9061068a565b915091509091565b60008061033284610327866105d1565b6101f290600a61105f565b905061035c81610356610344876105d1565b61034f90600a61105f565b86906106c3565b906106d6565b9150505b92915050565b60408051808201909152600354815260045460208201526000908190610397906103916001806106e2565b9061076a565b905061035c816020015161035683600001516103b38888610818565b906106c3565b6000546001600160a01b031633146103e35760405162461bcd60e51b81526004016102dc90610f30565b60005b8551811015610512576000600160008884815181106104075761040761106b565b60200260200101516001600160a01b03166001600160a01b0316815260200190815260200160002090508582815181106104435761044361106b565b602090810291909101015181546001600160a01b0319166001600160a01b03909116178155845185908390811061047c5761047c61106b565b60200260200101518160010160006101000a8154816001600160a01b0302191690836001600160a01b031602179055508382815181106104be576104be61106b565b602002602001015181600201819055508282815181106104e0576104e061106b565b6020908102919091010151600391909101805460ff19169115159190911790558061050a81611081565b9150506103e6565b505050505050565b6000546001600160a01b031633146105445760405162461bcd60e51b81526004016102dc90610f30565b61054e6000610b2d565b565b60008061033284610560866105d1565b61027490600a61105f565b60408051808201909152600354815260045460208201526000908190610397906105966001806106e2565b90610b7d565b6000546001600160a01b031633146105c65760405162461bcd60e51b81526004016102dc90610f30565b600391909155600455565b6001600160a01b031660009081526001602052604090206002015490565b6000546001600160a01b031633146106195760405162461bcd60e51b81526004016102dc90610f30565b6001600160a01b03811661067e5760405162461bcd60e51b815260206004820152602660248201527f4f776e61626c653a206e6577206f776e657220697320746865207a65726f206160448201526564647265737360d01b60648201526084016102dc565b61068781610b2d565b50565b600080828060200151600014156106b35760405162461bcd60e51b81526004016102dc9061109c565b5050815160209092015191929050565b60006106cf82846110f0565b9392505050565b60006106cf828461110f565b6040805180820190915260008082526020820152816107545760405162461bcd60e51b815260206004820152602860248201527f4672616374696f6e4d6174683a2044656e6f6d696e61746f722063616e6e6f7460448201526720657175616c206f60c01b60648201526084016102dc565b5060408051808201909152918252602082015290565b6040805180820190915260008082526020820152828060200151600014156107a45760405162461bcd60e51b81526004016102dc9061109c565b828060200151600014156107ca5760405162461bcd60e51b81526004016102dc9061109c565b602085015184516107f5916107df91906106c3565b602086015187516107ef916106c3565b90610c08565b83526020808501519086015161080a916106c3565b602084015250909392505050565b6001600160a01b038216600090815260016020526040812060030154839060ff1661089d5760405162461bcd60e51b815260206004820152602f60248201527f4f7261636c65546f6b656e733a204f6e6c7920737570706f7274656420746f6b60448201526e195b9cc81b585e481899481d5cd959608a1b60648201526084016102dc565b6001600160a01b0380851660009081526001602052604081205490911690506000816001600160a01b031663feaf968c6040518163ffffffff1660e01b815260040160a06040518083038186803b1580156108f757600080fd5b505afa15801561090b573d6000803e3d6000fd5b505050506040513d601f19601f8201168201806040525081019061092f919061114b565b5050509150506000826001600160a01b031663313ce5676040518163ffffffff1660e01b815260040160206040518083038186803b15801561097057600080fd5b505afa158015610984573d6000803e3d6000fd5b505050506040513d601f19601f820116820180604052508101906109a8919061119b565b60ff16905060008213610aca576001600160a01b0380881660009081526001602081905260409091200154169250826001600160a01b031663feaf968c6040518163ffffffff1660e01b815260040160a06040518083038186803b158015610a0f57600080fd5b505afa158015610a23573d6000803e3d6000fd5b505050506040513d601f19601f82011682018060405250810190610a47919061114b565b50506040805163313ce56760e01b815290519295506001600160a01b038716935063313ce5679260048083019350602092829003018186803b158015610a8c57600080fd5b505afa158015610aa0573d6000803e3d6000fd5b505050506040513d601f19601f82011682018060405250810190610ac4919061119b565b60ff1690505b60008213610ade5760009450505050610b26565b610b20610aea886105d1565b610af590600a61105f565b610356610b0384600a61105f565b6103568a6103b3600254600a610b19919061105f565b89906106c3565b94505050505b5092915050565b600080546001600160a01b038381166001600160a01b0319831681178455604051919092169283917f8be0079c531659141344cd1fd0a4f28419497f9722a3daafe3b4186f6b6457e09190a35050565b604080518082019091526000808252602082015282806020015160001415610bb75760405162461bcd60e51b81526004016102dc9061109c565b82806020015160001415610bdd5760405162461bcd60e51b81526004016102dc9061109c565b602085015184516107f591610bf291906106c3565b60208601518751610c02916106c3565b90610c14565b60006106cf82846111be565b60006106cf82846111d6565b80356001600160a01b0381168114610c3757600080fd5b919050565b600060208284031215610c4e57600080fd5b6106cf82610c20565b600060208284031215610c6957600080fd5b5035919050565b60008060408385031215610c8357600080fd5b610c8c83610c20565b946020939093013593505050565b634e487b7160e01b600052604160045260246000fd5b604051601f8201601f1916810167ffffffffffffffff81118282101715610cd957610cd9610c9a565b604052919050565b600067ffffffffffffffff821115610cfb57610cfb610c9a565b5060051b60200190565b600082601f830112610d1657600080fd5b81356020610d2b610d2683610ce1565b610cb0565b82815260059290921b84018101918181019086841115610d4a57600080fd5b8286015b84811015610d6c57610d5f81610c20565b8352918301918301610d4e565b509695505050505050565b600082601f830112610d8857600080fd5b81356020610d98610d2683610ce1565b82815260059290921b84018101918181019086841115610db757600080fd5b8286015b84811015610d6c5780358352918301918301610dbb565b600082601f830112610de357600080fd5b81356020610df3610d2683610ce1565b82815260059290921b84018101918181019086841115610e1257600080fd5b8286015b84811015610d6c5780358015158114610e2f5760008081fd5b8352918301918301610e16565b600080600080600060a08688031215610e5457600080fd5b853567ffffffffffffffff80821115610e6c57600080fd5b610e7889838a01610d05565b96506020880135915080821115610e8e57600080fd5b610e9a89838a01610d05565b95506040880135915080821115610eb057600080fd5b610ebc89838a01610d05565b94506060880135915080821115610ed257600080fd5b610ede89838a01610d77565b93506080880135915080821115610ef457600080fd5b50610f0188828901610dd2565b9150509295509295909350565b60008060408385031215610f2157600080fd5b50508035926020909101359150565b6020808252818101527f4f776e61626c653a2063616c6c6572206973206e6f7420746865206f776e6572604082015260600190565b634e487b7160e01b600052601160045260246000fd5b600181815b80851115610fb6578160001904821115610f9c57610f9c610f65565b80851615610fa957918102915b93841c9390800290610f80565b509250929050565b600082610fcd57506001610360565b81610fda57506000610360565b8160018114610ff05760028114610ffa57611016565b6001915050610360565b60ff84111561100b5761100b610f65565b50506001821b610360565b5060208310610133831016604e8410600b8410161715611039575081810a610360565b6110438383610f7b565b806000190482111561105757611057610f65565b029392505050565b60006106cf8383610fbe565b634e487b7160e01b600052603260045260246000fd5b600060001982141561109557611095610f65565b5060010190565b60208082526034908201527f4672616374696f6e4d6174683a2044656e6f6d696e61746f72206f662066726160408201527306374696f6e2063616e6e6f7420657175616c20360641b606082015260800190565b600081600019048311821515161561110a5761110a610f65565b500290565b60008261112c57634e487b7160e01b600052601260045260246000fd5b500490565b805169ffffffffffffffffffff81168114610c3757600080fd5b600080600080600060a0868803121561116357600080fd5b61116c86611131565b945060208601519350604086015192506060860151915061118f60808701611131565b90509295509295909350565b6000602082840312156111ad57600080fd5b815160ff811681146106cf57600080fd5b600082198211156111d1576111d1610f65565b500190565b6000828210156111e8576111e8610f65565b50039056fea2646970667358221220353ad74ffdf413d474e84435fcef7ff6bcf4353cbad704ac4fe731d2a402ba0064736f6c63430008090033",
  "linkReferences": {},
  "deployedLinkReferences": {}
}