{
  "_format": "hh-sol-artifact-1",
  "contractName": "Margin",
  "sourceName": "contracts/Margin.sol",
  "abi": [
    {
      "inputs": [
        {
          "internalType": "contract Oracle",
          "name": "oracle_",
          "type": "address"
        },
        {
          "internalType": "contract LPool",
          "name": "pool_",
          "type": "address"
        },
        {
          "internalType": "uint256",
          "name": "minBorrowLength_",
          "type": "uint256"
        },
        {
          "internalType": "uint256",
          "name": "maxInterestPercent_",
          "type": "uint256"
        },
        {
          "internalType": "uint256",
          "name": "minMarginThreshold_",
          "type": "uint256"
        }
      ],
      "stateMutability": "nonpayable",
      "type": "constructor"
    },
    {
      "anonymous": false,
      "inputs": [
        {
          "indexed": true,
          "internalType": "address",
          "name": "account",
          "type": "address"
        },
        {
          "indexed": true,
          "internalType": "uint256",
          "name": "periodId",
          "type": "uint256"
        },
        {
          "indexed": false,
          "internalType": "contract IERC20",
          "name": "collateral",
          "type": "address"
        },
        {
          "indexed": false,
          "internalType": "contract IERC20",
          "name": "borrowed",
          "type": "address"
        },
        {
          "indexed": false,
          "internalType": "uint256",
          "name": "amount",
          "type": "uint256"
        }
      ],
      "name": "Borrow",
      "type": "event"
    },
    {
      "anonymous": false,
      "inputs": [
        {
          "indexed": true,
          "internalType": "address",
          "name": "account",
          "type": "address"
        },
        {
          "indexed": true,
          "internalType": "uint256",
          "name": "periodId",
          "type": "uint256"
        },
        {
          "indexed": false,
          "internalType": "contract IERC20",
          "name": "collateral",
          "type": "address"
        },
        {
          "indexed": false,
          "internalType": "contract IERC20",
          "name": "borrowed",
          "type": "address"
        },
        {
          "indexed": false,
          "internalType": "uint256",
          "name": "amount",
          "type": "uint256"
        }
      ],
      "name": "Deposit",
      "type": "event"
    },
    {
      "anonymous": false,
      "inputs": [
        {
          "indexed": true,
          "internalType": "address",
          "name": "account",
          "type": "address"
        },
        {
          "indexed": true,
          "internalType": "uint256",
          "name": "periodId",
          "type": "uint256"
        },
        {
          "indexed": false,
          "internalType": "address",
          "name": "liquidator",
          "type": "address"
        },
        {
          "indexed": false,
          "internalType": "contract IERC20",
          "name": "collateral",
          "type": "address"
        },
        {
          "indexed": false,
          "internalType": "contract IERC20",
          "name": "borrowed",
          "type": "address"
        },
        {
          "indexed": false,
          "internalType": "uint256",
          "name": "amount",
          "type": "uint256"
        }
      ],
      "name": "FlashLiquidation",
      "type": "event"
    },
    {
      "anonymous": false,
      "inputs": [
        {
          "indexed": true,
          "internalType": "address",
          "name": "previousOwner",
          "type": "address"
        },
        {
          "indexed": true,
          "internalType": "address",
          "name": "newOwner",
          "type": "address"
        }
      ],
      "name": "OwnershipTransferred",
      "type": "event"
    },
    {
      "anonymous": false,
      "inputs": [
        {
          "indexed": true,
          "internalType": "address",
          "name": "account",
          "type": "address"
        },
        {
          "indexed": true,
          "internalType": "uint256",
          "name": "periodId",
          "type": "uint256"
        },
        {
          "indexed": false,
          "internalType": "contract IERC20",
          "name": "collateral",
          "type": "address"
        },
        {
          "indexed": false,
          "internalType": "contract IERC20",
          "name": "borrowed",
          "type": "address"
        },
        {
          "indexed": false,
          "internalType": "uint256",
          "name": "balance",
          "type": "uint256"
        }
      ],
      "name": "Repay",
      "type": "event"
    },
    {
      "anonymous": false,
      "inputs": [
        {
          "indexed": true,
          "internalType": "address",
          "name": "account",
          "type": "address"
        },
        {
          "indexed": true,
          "internalType": "uint256",
          "name": "periodId",
          "type": "uint256"
        },
        {
          "indexed": false,
          "internalType": "contract IERC20",
          "name": "collateral",
          "type": "address"
        },
        {
          "indexed": false,
          "internalType": "contract IERC20",
          "name": "borrowed",
          "type": "address"
        },
        {
          "indexed": false,
          "internalType": "uint256",
          "name": "amount",
          "type": "uint256"
        }
      ],
      "name": "Withdraw",
      "type": "event"
    },
    {
      "inputs": [
        {
          "internalType": "address",
          "name": "_account",
          "type": "address"
        },
        {
          "internalType": "contract IERC20",
          "name": "_collateral",
          "type": "address"
        },
        {
          "internalType": "contract IERC20",
          "name": "_borrowed",
          "type": "address"
        },
        {
          "internalType": "uint256",
          "name": "_periodId",
          "type": "uint256"
        }
      ],
      "name": "balanceOf",
      "outputs": [
        {
          "internalType": "uint256",
          "name": "",
          "type": "uint256"
        }
      ],
      "stateMutability": "view",
      "type": "function"
    },
    {
      "inputs": [
        {
          "internalType": "contract IERC20",
          "name": "_collateral",
          "type": "address"
        },
        {
          "internalType": "contract IERC20",
          "name": "_borrowed",
          "type": "address"
        },
        {
          "internalType": "uint256",
          "name": "_amount",
          "type": "uint256"
        }
      ],
      "name": "borrow",
      "outputs": [],
      "stateMutability": "nonpayable",
      "type": "function"
    },
    {
      "inputs": [
        {
          "internalType": "address",
          "name": "_account",
          "type": "address"
        },
        {
          "internalType": "contract IERC20",
          "name": "_collateral",
          "type": "address"
        },
        {
          "internalType": "contract IERC20",
          "name": "_borrowed",
          "type": "address"
        }
      ],
      "name": "borrowTime",
      "outputs": [
        {
          "internalType": "uint256",
          "name": "",
          "type": "uint256"
        }
      ],
      "stateMutability": "view",
      "type": "function"
    },
    {
      "inputs": [
        {
          "internalType": "contract IERC20",
          "name": "_borrowed",
          "type": "address"
        },
        {
          "internalType": "uint256",
          "name": "_initialBorrow",
          "type": "uint256"
        },
        {
          "internalType": "uint256",
          "name": "_borrowTime",
          "type": "uint256"
        }
      ],
      "name": "calculateInterest",
      "outputs": [
        {
          "internalType": "uint256",
          "name": "",
          "type": "uint256"
        }
      ],
      "stateMutability": "view",
      "type": "function"
    },
    {
      "inputs": [
        {
          "internalType": "contract IERC20",
          "name": "_borrowed",
          "type": "address"
        }
      ],
      "name": "calculateInterestRate",
      "outputs": [
        {
          "internalType": "uint256",
          "name": "",
          "type": "uint256"
        }
      ],
      "stateMutability": "view",
      "type": "function"
    },
    {
      "inputs": [
        {
          "internalType": "uint256",
          "name": "_deposited",
          "type": "uint256"
        },
        {
          "internalType": "uint256",
          "name": "_initialBorrowPrice",
          "type": "uint256"
        },
        {
          "internalType": "uint256",
          "name": "_borrowTime",
          "type": "uint256"
        },
        {
          "internalType": "uint256",
          "name": "_amountBorrowed",
          "type": "uint256"
        },
        {
          "internalType": "contract IERC20",
          "name": "_collateral",
          "type": "address"
        },
        {
          "internalType": "contract IERC20",
          "name": "_borrowed",
          "type": "address"
        }
      ],
      "name": "calculateMarginLevel",
      "outputs": [
        {
          "internalType": "uint256",
          "name": "",
          "type": "uint256"
        }
      ],
      "stateMutability": "view",
      "type": "function"
    },
    {
      "inputs": [
        {
          "internalType": "address",
          "name": "_account",
          "type": "address"
        },
        {
          "internalType": "contract IERC20",
          "name": "_collateral",
          "type": "address"
        },
        {
          "internalType": "contract IERC20",
          "name": "_borrowed",
          "type": "address"
        },
        {
          "internalType": "uint256",
          "name": "_periodId",
          "type": "uint256"
        }
      ],
      "name": "collateralOf",
      "outputs": [
        {
          "internalType": "uint256",
          "name": "",
          "type": "uint256"
        }
      ],
      "stateMutability": "view",
      "type": "function"
    },
    {
      "inputs": [],
      "name": "compensationPercentage",
      "outputs": [
        {
          "internalType": "uint256",
          "name": "",
          "type": "uint256"
        }
      ],
      "stateMutability": "view",
      "type": "function"
    },
    {
      "inputs": [
        {
          "internalType": "address",
          "name": "_account",
          "type": "address"
        },
        {
          "internalType": "contract IERC20",
          "name": "_collateral",
          "type": "address"
        },
        {
          "internalType": "contract IERC20",
          "name": "_borrowed",
          "type": "address"
        }
      ],
      "name": "debtOf",
      "outputs": [
        {
          "internalType": "uint256",
          "name": "",
          "type": "uint256"
        }
      ],
      "stateMutability": "view",
      "type": "function"
    },
    {
      "inputs": [
        {
          "internalType": "contract IERC20",
          "name": "_collateral",
          "type": "address"
        },
        {
          "internalType": "contract IERC20",
          "name": "_borrowed",
          "type": "address"
        },
        {
          "internalType": "uint256",
          "name": "_amount",
          "type": "uint256"
        }
      ],
      "name": "deposit",
      "outputs": [],
      "stateMutability": "nonpayable",
      "type": "function"
    },
    {
      "inputs": [
        {
          "internalType": "address",
          "name": "_account",
          "type": "address"
        },
        {
          "internalType": "contract IERC20",
          "name": "_collateral",
          "type": "address"
        },
        {
          "internalType": "contract IERC20",
          "name": "_borrowed",
          "type": "address"
        }
      ],
      "name": "flashLiquidate",
      "outputs": [],
      "stateMutability": "nonpayable",
      "type": "function"
    },
    {
      "inputs": [
        {
          "internalType": "address",
          "name": "_account",
          "type": "address"
        },
        {
          "internalType": "contract IERC20",
          "name": "_collateral",
          "type": "address"
        },
        {
          "internalType": "contract IERC20",
          "name": "_borrowed",
          "type": "address"
        }
      ],
      "name": "initialBorrowTime",
      "outputs": [
        {
          "internalType": "uint256",
          "name": "",
          "type": "uint256"
        }
      ],
      "stateMutability": "view",
      "type": "function"
    },
    {
      "inputs": [
        {
          "internalType": "address",
          "name": "_account",
          "type": "address"
        },
        {
          "internalType": "contract IERC20",
          "name": "_collateral",
          "type": "address"
        },
        {
          "internalType": "contract IERC20",
          "name": "_borrowed",
          "type": "address"
        }
      ],
      "name": "isLiquidatable",
      "outputs": [
        {
          "internalType": "bool",
          "name": "",
          "type": "bool"
        }
      ],
      "stateMutability": "view",
      "type": "function"
    },
    {
      "inputs": [
        {
          "internalType": "contract IERC20",
          "name": "_token",
          "type": "address"
        }
      ],
      "name": "liquidityAvailable",
      "outputs": [
        {
          "internalType": "uint256",
          "name": "",
          "type": "uint256"
        }
      ],
      "stateMutability": "view",
      "type": "function"
    },
    {
      "inputs": [
        {
          "internalType": "address",
          "name": "_account",
          "type": "address"
        },
        {
          "internalType": "contract IERC20",
          "name": "_collateral",
          "type": "address"
        },
        {
          "internalType": "contract IERC20",
          "name": "_borrowed",
          "type": "address"
        }
      ],
      "name": "marginLevel",
      "outputs": [
        {
          "internalType": "uint256",
          "name": "",
          "type": "uint256"
        }
      ],
      "stateMutability": "view",
      "type": "function"
    },
    {
      "inputs": [],
      "name": "maxInterestPercent",
      "outputs": [
        {
          "internalType": "uint256",
          "name": "",
          "type": "uint256"
        }
      ],
      "stateMutability": "view",
      "type": "function"
    },
    {
      "inputs": [],
      "name": "minBorrowLength",
      "outputs": [
        {
          "internalType": "uint256",
          "name": "",
          "type": "uint256"
        }
      ],
      "stateMutability": "view",
      "type": "function"
    },
    {
      "inputs": [
        {
          "internalType": "contract IERC20",
          "name": "_token",
          "type": "address"
        }
      ],
      "name": "minCollateral",
      "outputs": [
        {
          "internalType": "uint256",
          "name": "",
          "type": "uint256"
        }
      ],
      "stateMutability": "view",
      "type": "function"
    },
    {
      "inputs": [],
      "name": "minMarginThreshold",
      "outputs": [
        {
          "internalType": "uint256",
          "name": "",
          "type": "uint256"
        }
      ],
      "stateMutability": "view",
      "type": "function"
    },
    {
      "inputs": [],
      "name": "oracle",
      "outputs": [
        {
          "internalType": "contract Oracle",
          "name": "",
          "type": "address"
        }
      ],
      "stateMutability": "view",
      "type": "function"
    },
    {
      "inputs": [],
      "name": "owner",
      "outputs": [
        {
          "internalType": "address",
          "name": "",
          "type": "address"
        }
      ],
      "stateMutability": "view",
      "type": "function"
    },
    {
      "inputs": [],
      "name": "pool",
      "outputs": [
        {
          "internalType": "contract LPool",
          "name": "",
          "type": "address"
        }
      ],
      "stateMutability": "view",
      "type": "function"
    },
    {
      "inputs": [],
      "name": "renounceOwnership",
      "outputs": [],
      "stateMutability": "nonpayable",
      "type": "function"
    },
    {
      "inputs": [
        {
          "internalType": "address",
          "name": "_account",
          "type": "address"
        },
        {
          "internalType": "contract IERC20",
          "name": "_collateral",
          "type": "address"
        },
        {
          "internalType": "contract IERC20",
          "name": "_borrowed",
          "type": "address"
        },
        {
          "internalType": "uint256",
          "name": "_periodId",
          "type": "uint256"
        }
      ],
      "name": "repay",
      "outputs": [],
      "stateMutability": "nonpayable",
      "type": "function"
    },
    {
      "inputs": [
        {
          "internalType": "uint256",
          "name": "_maxInterestPercent",
          "type": "uint256"
        }
      ],
      "name": "setMaxInterestPercent",
      "outputs": [],
      "stateMutability": "nonpayable",
      "type": "function"
    },
    {
      "inputs": [
        {
          "internalType": "uint256",
          "name": "_minBorrowLength",
          "type": "uint256"
        }
      ],
      "name": "setMinBorrowLength",
      "outputs": [],
      "stateMutability": "nonpayable",
      "type": "function"
    },
    {
      "inputs": [
        {
          "internalType": "contract IERC20",
          "name": "_token",
          "type": "address"
        },
        {
          "internalType": "uint256",
          "name": "_amount",
          "type": "uint256"
        }
      ],
      "name": "setMinCollateral",
      "outputs": [],
      "stateMutability": "nonpayable",
      "type": "function"
    },
    {
      "inputs": [
        {
          "internalType": "uint256",
          "name": "_minMarginThreshold",
          "type": "uint256"
        }
      ],
      "name": "setMinMarginThreshold",
      "outputs": [],
      "stateMutability": "nonpayable",
      "type": "function"
    },
    {
      "inputs": [
        {
          "internalType": "contract IERC20",
          "name": "_token",
          "type": "address"
        }
      ],
      "name": "totalBorrowed",
      "outputs": [
        {
          "internalType": "uint256",
          "name": "",
          "type": "uint256"
        }
      ],
      "stateMutability": "view",
      "type": "function"
    },
    {
      "inputs": [
        {
          "internalType": "address",
          "name": "newOwner",
          "type": "address"
        }
      ],
      "name": "transferOwnership",
      "outputs": [],
      "stateMutability": "nonpayable",
      "type": "function"
    },
    {
      "inputs": [
        {
          "internalType": "contract IERC20",
          "name": "_collateral",
          "type": "address"
        },
        {
          "internalType": "contract IERC20",
          "name": "_borrowed",
          "type": "address"
        },
        {
          "internalType": "uint256",
          "name": "_amount",
          "type": "uint256"
        },
        {
          "internalType": "uint256",
          "name": "_periodId",
          "type": "uint256"
        }
      ],
      "name": "withdraw",
      "outputs": [],
      "stateMutability": "nonpayable",
      "type": "function"
    }
  ],
  "bytecode": "0x60c06040523480156200001157600080fd5b5060405162003dd938038062003dd98339810160408190526200003491620000bb565b6200003f336200006b565b6001600160601b0319606095861b81166080529390941b90921660a0526003556005556004556200012b565b600080546001600160a01b038381166001600160a01b0319831681178455604051919092169283917f8be0079c531659141344cd1fd0a4f28419497f9722a3daafe3b4186f6b6457e09190a35050565b600080600080600060a08688031215620000d3578081fd5b8551620000e08162000112565b6020870151909550620000f38162000112565b6040870151606088015160809098015196999198509695945092505050565b6001600160a01b03811681146200012857600080fd5b50565b60805160601c60a05160601c613b39620002a060003960008181610204015281816104d50152818161058e01528181610681015281816107b601528181610801015281816108ed015281816109cb01528181610b0501528181610bbe01528181610c5a01528181610d5001528181610df001528181611328015281816113580152818161149d01528181611556015281816117650152818161181e0152818161190a01528181611b0001528181611bda01528181611d4301528181611e4301528181611efc01528181611fbc0152818161205a015281816121f4015281816123c3015281816125090152818161269b015281816131e4015281816133290152613374015260008181610307015281816110ec0152818161118f0152818161124b01528181612467015281816125f30152818161289e01528181612bc301528181612c7f01528181612db701528181612f1601528181612fd601528181613021015281816130c5015261318c0152613b396000f3fe608060405234801561001057600080fd5b50600436106101e55760003560e01c806383e2e3031161010f578063c0d18843116100a2578063e2e1ca2b11610071578063e2e1ca2b14610424578063e401999c14610437578063e7e1ac3e14610440578063f2fde38b1461046957600080fd5b8063c0d18843146103e2578063c68ab0a0146103f5578063c9a80a1114610408578063d7a137d51461041b57600080fd5b80639ea2b760116100de5780639ea2b76014610386578063ad8b343514610399578063bd4f7428146103bc578063c035bd21146103cf57600080fd5b806383e2e3031461033c5780638da5cb5b1461034f5780639386ab2f14610360578063946cd6661461037357600080fd5b80635ad4fc981161018757806373a85bac1161015657806373a85bac146102dc5780637bfe950c146102ef5780637dc0d1d0146103025780638340f5491461032957600080fd5b80635ad4fc98146102b05780636558d7b1146102c35780636b05ac04146102cc578063715018a6146102d457600080fd5b806328ef8cb7116101c357806328ef8cb7146102565780633df0e0551461027757806349dd487d1461028a5780635224372c1461029d57600080fd5b8063072573d7146101ea57806316f0115b146101ff5780631f2b3a0c14610243575b600080fd5b6101fd6101f836600461384e565b61047c565b005b6102267f000000000000000000000000000000000000000000000000000000000000000081565b6040516001600160a01b0390911681526020015b60405180910390f35b6101fd6102513660046135d4565b6104b4565b6102696102643660046135d4565b6108e8565b60405190815260200161023a565b6102696102853660046135d4565b6109c6565b61026961029836600461361e565b610a9f565b6101fd6102ab36600461374e565b610ae4565b6102696102be36600461387e565b6110dd565b61026960035481565b6102696112ba565b6101fd6112ed565b6102696102ea3660046135b8565b611323565b6101fd6102fd36600461378e565b61147c565b6102267f000000000000000000000000000000000000000000000000000000000000000081565b6101fd61033736600461374e565b611744565b6101fd61034a36600461384e565b611a36565b6000546001600160a01b0316610226565b61026961036e36600461361e565b611a65565b6102696103813660046135d4565b611bd1565b6101fd61039436600461384e565b611cd4565b6103ac6103a73660046135d4565b611d03565b604051901515815260200161023a565b6101fd6103ca3660046137d3565b611d22565b6101fd6103dd36600461361e565b611e22565b6102696103f03660046135b8565b6123a3565b6102696104033660046135d4565b612504565b6102696104163660046137fe565b6125dd565b61026960045481565b6102696104323660046135b8565b612696565b61026960055481565b61026961044e3660046135b8565b6001600160a01b031660009081526002602052604090205490565b6101fd6104773660046135b8565b612756565b6000546001600160a01b031633146104af5760405162461bcd60e51b81526004016104a69061394e565b60405180910390fd5b600555565b60405163673448dd60e01b81526001600160a01b03808416600483015283917f00000000000000000000000000000000000000000000000000000000000000009091169063673448dd9060240160206040518083038186803b15801561051957600080fd5b505afa15801561052d573d6000803e3d6000fd5b505050506040513d601f19601f82011682018060405250810190610551919061372e565b61056d5760405162461bcd60e51b81526004016104a690613983565b60405163673448dd60e01b81526001600160a01b03808416600483015283917f00000000000000000000000000000000000000000000000000000000000000009091169063673448dd9060240160206040518083038186803b1580156105d257600080fd5b505afa1580156105e6573d6000803e3d6000fd5b505050506040513d601f19601f8201168201806040525081019061060a919061372e565b6106265760405162461bcd60e51b81526004016104a690613983565b610631858486611d03565b61067d5760405162461bcd60e51b815260206004820181905260248201527f54686973206163636f756e74206973206e6f74206c6971756964617461626c6560448201526064016104a6565b60007f00000000000000000000000000000000000000000000000000000000000000006001600160a01b031663988e65956040518163ffffffff1660e01b815260040160206040518083038186803b1580156106d857600080fd5b505afa1580156106ec573d6000803e3d6000fd5b505050506040513d601f19601f820116820180604052508101906107109190613866565b60008181526001602081815260408084206001600160a01b03808b1686529083528185208c821686529384018352818520908b16855290915282208054939450909290919061076290899089906127f1565b90506000610783606461077d6107766112ba565b8590612a0c565b90612a18565b90506107996001600160a01b0389163383612a24565b60006107a58383612a8c565b90506107db6001600160a01b038a167f000000000000000000000000000000000000000000000000000000000000000083612a98565b6040516311f9fbc960e21b81526001600160a01b038a81166004830152602482018390527f000000000000000000000000000000000000000000000000000000000000000016906347e7ef2490604401600060405180830381600087803b15801561084557600080fd5b505af1158015610859573d6000803e3d6000fd5b50506000865550506001840154855461087191612a8c565b855560006001850181905560028501558354604080513381526001600160a01b038d811660208301528c8116828401526060820193909352905188928e16917f68be4e7adfcb5bb41d5f9c891366107aaa46ba608893ee721c58862a73d68e99919081900360800190a35050505050505050505050565b6000807f00000000000000000000000000000000000000000000000000000000000000006001600160a01b031663988e65956040518163ffffffff1660e01b815260040160206040518083038186803b15801561094457600080fd5b505afa158015610958573d6000803e3d6000fd5b505050506040513d601f19601f8201168201806040525081019061097c9190613866565b60009081526001602081815260408084206001600160a01b0380891686529083528185208a82168652909301825280842092881684529190529020600401549150505b9392505050565b6000807f00000000000000000000000000000000000000000000000000000000000000006001600160a01b031663988e65956040518163ffffffff1660e01b815260040160206040518083038186803b158015610a2257600080fd5b505afa158015610a36573d6000803e3d6000fd5b505050506040513d601f19601f82011682018060405250810190610a5a9190613866565b60009081526001602081815260408084206001600160a01b03978816855282528084209887168452979091018152868220959094168152939092525050206003015490565b60008181526001602081815260408084206001600160a01b0380881686529083528185208982168652909301825280842092871684529190529020545b949350505050565b60405163673448dd60e01b81526001600160a01b03808516600483015284917f00000000000000000000000000000000000000000000000000000000000000009091169063673448dd9060240160206040518083038186803b158015610b4957600080fd5b505afa158015610b5d573d6000803e3d6000fd5b505050506040513d601f19601f82011682018060405250810190610b81919061372e565b610b9d5760405162461bcd60e51b81526004016104a690613983565b60405163673448dd60e01b81526001600160a01b03808516600483015284917f00000000000000000000000000000000000000000000000000000000000000009091169063673448dd9060240160206040518083038186803b158015610c0257600080fd5b505afa158015610c16573d6000803e3d6000fd5b505050506040513d601f19601f82011682018060405250810190610c3a919061372e565b610c565760405162461bcd60e51b81526004016104a690613983565b60007f00000000000000000000000000000000000000000000000000000000000000006001600160a01b031663988e65956040518163ffffffff1660e01b815260040160206040518083038186803b158015610cb157600080fd5b505afa158015610cc5573d6000803e3d6000fd5b505050506040513d601f19601f82011682018060405250810190610ce99190613866565b905060008411610d3b5760405162461bcd60e51b815260206004820152601d60248201527f416d6f756e74206d7573742062652067726561746572207468616e203000000060448201526064016104a6565b60405162fa7dd960e11b8152600481018290527f00000000000000000000000000000000000000000000000000000000000000006001600160a01b0316906301f4fbb29060240160206040518083038186803b158015610d9a57600080fd5b505afa158015610dae573d6000803e3d6000fd5b505050506040513d601f19601f82011682018060405250810190610dd2919061372e565b158015610e745750604051637042f20b60e01b8152600481018290527f00000000000000000000000000000000000000000000000000000000000000006001600160a01b031690637042f20b9060240160206040518083038186803b158015610e3a57600080fd5b505afa158015610e4e573d6000803e3d6000fd5b505050506040513d601f19601f82011682018060405250810190610e72919061372e565b155b610ed65760405162461bcd60e51b815260206004820152602d60248201527f43616e6e6f7420626f72726f7720647572696e67207468652070726f6c6f677560448201526c65206f72206570696c6f67756560981b60648201526084016104a6565b83610ee086611323565b1015610f435760405162461bcd60e51b815260206004820152602c60248201527f416d6f756e7420746f20626f72726f77206578636565647320617661696c616260448201526b6c65206c697175696469747960a01b60648201526084016104a6565b846001600160a01b0316866001600160a01b03161415610fb15760405162461bcd60e51b8152602060048201526024808201527f43616e6e6f7420626f72726f7720616761696e7374207468652073616d6520616044820152631cdcd95d60e21b60648201526084016104a6565b60008181526001602081815260408084206001600160a01b038a811686529083528185203386529384018352818520908b16855290915290912080541580159061101457506001600160a01b038816600090815260026020526040902054815410155b6110705760405162461bcd60e51b815260206004820152602760248201527f4e6f7420656e6f75676820636f6c6c61746572616c20746f20626f72726f77206044820152661859d85a5b9cdd60ca1b60648201526084016104a6565b6001810154611080574260048201555b61108d81838a8a8a612bbc565b82336001600160a01b03167f6e48230993103b32db5611cc6432e422b52db95faaeb5da86bb9accd421736c78a8a8a6040516110cb939291906138f7565b60405180910390a35050505050505050565b600083611188576111816103e77f00000000000000000000000000000000000000000000000000000000000000006001600160a01b031663313ce5676040518163ffffffff1660e01b815260040160206040518083038186803b15801561114357600080fd5b505afa158015611157573d6000803e3d6000fd5b505050506040513d601f19601f8201168201806040525081019061117b9190613866565b90612a0c565b90506112b0565b600061128e7f00000000000000000000000000000000000000000000000000000000000000006001600160a01b031663313ce5676040518163ffffffff1660e01b815260040160206040518083038186803b1580156111e657600080fd5b505afa1580156111fa573d6000803e3d6000fd5b505050506040513d601f19601f8201168201806040525081019061121e9190613866565b6040516306513cb160e11b81526001600160a01b038681166004830152878116602483015261077d9189917f00000000000000000000000000000000000000000000000000000000000000001690630ca27962906044015b60206040518083038186803b15801561114357600080fd5b9050600061129d8489896125dd565b90506112ab89838a84612db2565b925050505b9695505050505050565b60006112e8600a61077d6112da6064600454612e7290919063ffffffff16565b60045461077d906064612a0c565b905090565b6000546001600160a01b031633146113175760405162461bcd60e51b81526004016104a69061394e565b6113216000612e7e565b565b6000807f00000000000000000000000000000000000000000000000000000000000000006001600160a01b031663858e5b5f847f00000000000000000000000000000000000000000000000000000000000000006001600160a01b031663988e65956040518163ffffffff1660e01b815260040160206040518083038186803b1580156113af57600080fd5b505afa1580156113c3573d6000803e3d6000fd5b505050506040513d601f19601f820116820180604052508101906113e79190613866565b6040516001600160e01b031960e085901b1681526001600160a01b039092166004830152602482015260440160206040518083038186803b15801561142b57600080fd5b505afa15801561143f573d6000803e3d6000fd5b505050506040513d601f19601f820116820180604052508101906114639190613866565b9050600061147084612696565b9050610adc8282612a8c565b60405163673448dd60e01b81526001600160a01b03808616600483015285917f00000000000000000000000000000000000000000000000000000000000000009091169063673448dd9060240160206040518083038186803b1580156114e157600080fd5b505afa1580156114f5573d6000803e3d6000fd5b505050506040513d601f19601f82011682018060405250810190611519919061372e565b6115355760405162461bcd60e51b81526004016104a690613983565b60405163673448dd60e01b81526001600160a01b03808616600483015285917f00000000000000000000000000000000000000000000000000000000000000009091169063673448dd9060240160206040518083038186803b15801561159a57600080fd5b505afa1580156115ae573d6000803e3d6000fd5b505050506040513d601f19601f820116820180604052508101906115d2919061372e565b6115ee5760405162461bcd60e51b81526004016104a690613983565b60008381526001602081815260408084206001600160a01b038a811686529083528185203386528085018452828620918c168652925290922090810154156116935760405162461bcd60e51b815260206004820152603260248201527f43616e6e6f742077697468647261772077697468206f75747374616e64696e67604482015271081919589d0b081c995c185e48199a5c9cdd60721b60648201526084016104a6565b80548611156116e45760405162461bcd60e51b815260206004820181905260248201527f496e73756666696369656e742062616c616e636520746f20776974686472617760448201526064016104a6565b80546116f09087612a8c565b81556117066001600160a01b0389163388612a24565b84336001600160a01b03167fddba3f3b9daad0258359567b7c497137ae088f7a16fae07bab128c7cba2db3d38a8a8a6040516110cb939291906138f7565b60405163673448dd60e01b81526001600160a01b03808516600483015284917f00000000000000000000000000000000000000000000000000000000000000009091169063673448dd9060240160206040518083038186803b1580156117a957600080fd5b505afa1580156117bd573d6000803e3d6000fd5b505050506040513d601f19601f820116820180604052508101906117e1919061372e565b6117fd5760405162461bcd60e51b81526004016104a690613983565b60405163673448dd60e01b81526001600160a01b03808516600483015284917f00000000000000000000000000000000000000000000000000000000000000009091169063673448dd9060240160206040518083038186803b15801561186257600080fd5b505afa158015611876573d6000803e3d6000fd5b505050506040513d601f19601f8201168201806040525081019061189a919061372e565b6118b65760405162461bcd60e51b81526004016104a690613983565b600083116119065760405162461bcd60e51b815260206004820152601d60248201527f416d6f756e74206d7573742062652067726561746572207468616e203000000060448201526064016104a6565b60007f00000000000000000000000000000000000000000000000000000000000000006001600160a01b031663988e65956040518163ffffffff1660e01b815260040160206040518083038186803b15801561196157600080fd5b505afa158015611975573d6000803e3d6000fd5b505050506040513d601f19601f820116820180604052508101906119999190613866565b90506119b06001600160a01b038716333087612ece565b60008181526001602081815260408084206001600160a01b038a811686529083528185203386529384018352818520908b16855290915290912080546119f69087612e72565b815582336001600160a01b03167f71b6b5582bf9b91fa028105f0bd90da65ad879ae4fca2ffeedfbeb205b1a3b9f8a8a8a6040516110cb939291906138f7565b6000546001600160a01b03163314611a605760405162461bcd60e51b81526004016104a69061394e565b600455565b60008181526001602081815260408084206001600160a01b03808816865290835281852089821686528401835281852090881685528252808420815160a08101835281548152938101549284019290925260028201549083015260038101546060830152600481015460808301529082908190611ae59088908890612ef5565b60405163d55584db60e01b81526004810188905291935091507f00000000000000000000000000000000000000000000000000000000000000006001600160a01b03169063d55584db9060240160206040518083038186803b158015611b4a57600080fd5b505afa158015611b5e573d6000803e3d6000fd5b505050506040513d601f19601f82011682018060405250810190611b82919061372e565b611b9c578254611b929083612a8c565b9350505050610adc565b611bc582611bbf8560020154611bbf858860000154612e7290919063ffffffff16565b90612a8c565b98975050505050505050565b600080600160007f00000000000000000000000000000000000000000000000000000000000000006001600160a01b031663988e65956040518163ffffffff1660e01b815260040160206040518083038186803b158015611c3157600080fd5b505afa158015611c45573d6000803e3d6000fd5b505050506040513d601f19601f82011682018060405250810190611c699190613866565b8152602080820192909252604090810160009081206001600160a01b038088168352908452828220898216835260019081018552838320918916835293522080546002820154600483015493830154929450611ccb93919290919088886110dd565b95945050505050565b6000546001600160a01b03163314611cfe5760405162461bcd60e51b81526004016104a69061394e565b600355565b6000611d0d613015565b611d18858585611bd1565b1115949350505050565b60405163673448dd60e01b81526001600160a01b03808416600483015283917f00000000000000000000000000000000000000000000000000000000000000009091169063673448dd9060240160206040518083038186803b158015611d8757600080fd5b505afa158015611d9b573d6000803e3d6000fd5b505050506040513d601f19601f82011682018060405250810190611dbf919061372e565b611ddb5760405162461bcd60e51b81526004016104a690613983565b6000546001600160a01b03163314611e055760405162461bcd60e51b81526004016104a69061394e565b506001600160a01b03909116600090815260026020526040902055565b60405163673448dd60e01b81526001600160a01b03808516600483015284917f00000000000000000000000000000000000000000000000000000000000000009091169063673448dd9060240160206040518083038186803b158015611e8757600080fd5b505afa158015611e9b573d6000803e3d6000fd5b505050506040513d601f19601f82011682018060405250810190611ebf919061372e565b611edb5760405162461bcd60e51b81526004016104a690613983565b60405163673448dd60e01b81526001600160a01b03808516600483015284917f00000000000000000000000000000000000000000000000000000000000000009091169063673448dd9060240160206040518083038186803b158015611f4057600080fd5b505afa158015611f54573d6000803e3d6000fd5b505050506040513d601f19601f82011682018060405250810190611f78919061372e565b611f945760405162461bcd60e51b81526004016104a690613983565b6001600160a01b03861633148061203e5750604051637042f20b60e01b8152600481018490527f00000000000000000000000000000000000000000000000000000000000000006001600160a01b031690637042f20b9060240160206040518083038186803b15801561200657600080fd5b505afa15801561201a573d6000803e3d6000fd5b505050506040513d601f19601f8201168201806040525081019061203e919061372e565b806120de575060405163d55584db60e01b8152600481018490527f00000000000000000000000000000000000000000000000000000000000000006001600160a01b03169063d55584db9060240160206040518083038186803b1580156120a457600080fd5b505afa1580156120b8573d6000803e3d6000fd5b505050506040513d601f19601f820116820180604052508101906120dc919061372e565b155b6121465760405162461bcd60e51b815260206004820152603360248201527f4f6e6c7920746865206f776e6572206d6179207265706179206265666f7265206044820152721d1a1948195c1a5b1bd9dd59481c195c9a5bd9606a1b60648201526084016104a6565b60008381526001602081815260408084206001600160a01b03808a1686529083528185208b821686528085018452828620918b1686529252909220908101546121c45760405162461bcd60e51b815260206004820152601060248201526f4e6f206465627420746f20726570617960801b60448201526064016104a6565b60035481600301546121d69190613a28565b4211806122765750604051637042f20b60e01b8152600481018690527f00000000000000000000000000000000000000000000000000000000000000006001600160a01b031690637042f20b9060240160206040518083038186803b15801561223e57600080fd5b505afa158015612252573d6000803e3d6000fd5b505050506040513d601f19601f82011682018060405250810190612276919061372e565b6122f95760405162461bcd60e51b815260206004820152604860248201527f43616e6e6f7420726570617920756e74696c206d696e696d756d20626f72726f60448201527f7720706572696f64206973206f766572206f72206570696c6f67756520686173606482015267081cdd185c9d195960c21b608482015260a4016104a6565b600061230789898989611a65565b82549091508111156123255761232089898984866130be565b612332565b61233289898984866132b1565b600060028301556001820154835461234991612a8c565b83556000600183015585336001600160a01b03167f96cde24bdb8adc655cb8dcd8993ece729525032bfb8aa9e88e2c763d915585e18a8a85604051612390939291906138f7565b60405180910390a3505050505050505050565b6000806123af83612696565b905060006123bc84611323565b9050610adc7f00000000000000000000000000000000000000000000000000000000000000006001600160a01b031663d2ca21156040518163ffffffff1660e01b815260040160206040518083038186803b15801561241a57600080fd5b505afa15801561242e573d6000803e3d6000fd5b505050506040513d601f19601f820116820180604052508101906124529190613866565b61077d6064816124628688612e72565b61077d7f00000000000000000000000000000000000000000000000000000000000000006001600160a01b031663313ce5676040518163ffffffff1660e01b815260040160206040518083038186803b1580156124be57600080fd5b505afa1580156124d2573d6000803e3d6000fd5b505050506040513d601f19601f820116820180604052508101906124f69190613866565b60055461117b908b90612a0c565b6000807f00000000000000000000000000000000000000000000000000000000000000006001600160a01b031663988e65956040518163ffffffff1660e01b815260040160206040518083038186803b15801561256057600080fd5b505afa158015612574573d6000803e3d6000fd5b505050506040513d601f19601f820116820180604052508101906125989190613866565b60009081526001602081815260408084206001600160a01b03978816855282528084209887168452978201815287832096909516825294909352505091909120015490565b6000806125ec610776866123a3565b9050611ccb7f00000000000000000000000000000000000000000000000000000000000000006001600160a01b031663313ce5676040518163ffffffff1660e01b815260040160206040518083038186803b15801561264a57600080fd5b505afa15801561265e573d6000803e3d6000fd5b505050506040513d601f19601f820116820180604052508101906126829190613866565b61077d61268f4287612a8c565b8490612a0c565b6000807f00000000000000000000000000000000000000000000000000000000000000006001600160a01b031663988e65956040518163ffffffff1660e01b815260040160206040518083038186803b1580156126f257600080fd5b505afa158015612706573d6000803e3d6000fd5b505050506040513d601f19601f8201168201806040525081019061272a9190613866565b60009081526001602090815260408083206001600160a01b039096168352949052929092205492915050565b6000546001600160a01b031633146127805760405162461bcd60e51b81526004016104a69061394e565b6001600160a01b0381166127e55760405162461bcd60e51b815260206004820152602660248201527f4f776e61626c653a206e6577206f776e657220697320746865207a65726f206160448201526564647265737360d01b60648201526084016104a6565b6127ee81612e7e565b50565b60408051600280825260608201835260009283929190602083019080368337019050509050848160008151811061283857634e487b7160e01b600052603260045260246000fd5b60200260200101906001600160a01b031690816001600160a01b031681525050838160018151811061287a57634e487b7160e01b600052603260045260246000fd5b60200260200101906001600160a01b031690816001600160a01b03168152505060007f00000000000000000000000000000000000000000000000000000000000000006001600160a01b031663f887ea406040518163ffffffff1660e01b815260040160206040518083038186803b1580156128f557600080fd5b505afa158015612909573d6000803e3d6000fd5b505050506040513d601f19601f8201168201806040525081019061292d9190613832565b90506129436001600160a01b0387168286612a98565b6001600160a01b0381166338ed1739856000853061296342610e10613a28565b6040518663ffffffff1660e01b81526004016129839594939291906139b8565b600060405180830381600087803b15801561299d57600080fd5b505af11580156129b1573d6000803e3d6000fd5b505050506040513d6000823e601f3d908101601f191682016040526129d9919081019061366e565b6001815181106129f957634e487b7160e01b600052603260045260246000fd5b6020026020010151925050509392505050565b60006109bf8284613a60565b60006109bf8284613a40565b6040516001600160a01b038316602482015260448101829052612a8790849063a9059cbb60e01b906064015b60408051601f198184030181529190526020810180516001600160e01b03166001600160e01b0319909316929092179091526133db565b505050565b60006109bf8284613a7f565b801580612b215750604051636eb1769f60e11b81523060048201526001600160a01b03838116602483015284169063dd62ed3e9060440160206040518083038186803b158015612ae757600080fd5b505afa158015612afb573d6000803e3d6000fd5b505050506040513d601f19601f82011682018060405250810190612b1f9190613866565b155b612b8c5760405162461bcd60e51b815260206004820152603660248201527f5361666545524332303a20617070726f76652066726f6d206e6f6e2d7a65726f60448201527520746f206e6f6e2d7a65726f20616c6c6f77616e636560501b60648201526084016104a6565b6040516001600160a01b038316602482015260448101829052612a8790849063095ea7b360e01b90606401612a50565b6000612cae7f00000000000000000000000000000000000000000000000000000000000000006001600160a01b031663313ce5676040518163ffffffff1660e01b815260040160206040518083038186803b158015612c1a57600080fd5b505afa158015612c2e573d6000803e3d6000fd5b505050506040513d601f19601f82011682018060405250810190612c529190613866565b6040516306513cb160e11b81526001600160a01b038681166004830152878116602483015261077d9186917f00000000000000000000000000000000000000000000000000000000000000001690630ca2796290604401611276565b9050612cb8613015565b86546002880154612ce99190612cce9085612e72565b60048a015460018b0154612ce29088612e72565b89896110dd565b11612d6b5760405162461bcd60e51b815260206004820152604660248201527f54686973206465706f736974656420636f6c6c61746572616c206973206e6f7460448201527f20656e6f75676820746f20657863656564206d696e696d756d206d617267696e606482015265081b195d995b60d21b608482015260a4016104a6565b8454612d779083612e72565b85556002860154612d889082612e72565b60028701556001860154612d9c9083612e72565b6001870155505042600390940193909355505050565b6000807f00000000000000000000000000000000000000000000000000000000000000006001600160a01b031663313ce5676040518163ffffffff1660e01b815260040160206040518083038186803b158015612e0e57600080fd5b505afa158015612e22573d6000803e3d6000fd5b505050506040513d601f19601f82011682018060405250810190612e469190613866565b9050612e5c612e558787612e72565b8290612a0c565b90506112b0612e6b8585612e72565b8290612a18565b60006109bf8284613a28565b600080546001600160a01b038381166001600160a01b0319831681178455604051919092169283917f8be0079c531659141344cd1fd0a4f28419497f9722a3daafe3b4186f6b6457e09190a35050565b612eef846323b872dd60e01b858585604051602401612a50939291906138f7565b50505050565b6000806000612f0d85856040015186608001516125dd565b905060006130077f00000000000000000000000000000000000000000000000000000000000000006001600160a01b031663313ce5676040518163ffffffff1660e01b815260040160206040518083038186803b158015612f6d57600080fd5b505afa158015612f81573d6000803e3d6000fd5b505050506040513d601f19601f82011682018060405250810190612fa59190613866565b60208701516040516306513cb160e11b81526001600160a01b038a811660048301528b8116602483015261077d92917f000000000000000000000000000000000000000000000000000000000000000090911690630ca2796290604401611276565b919791965090945050505050565b60006112e8606461077d7f00000000000000000000000000000000000000000000000000000000000000006001600160a01b031663313ce5676040518163ffffffff1660e01b815260040160206040518083038186803b15801561307857600080fd5b505afa15801561308c573d6000803e3d6000fd5b505050506040513d601f19601f820116820180604052508101906130b09190613866565b60045461117b906064612e72565b60006131bb7f00000000000000000000000000000000000000000000000000000000000000006001600160a01b031663313ce5676040518163ffffffff1660e01b815260040160206040518083038186803b15801561311c57600080fd5b505afa158015613130573d6000803e3d6000fd5b505050506040513d601f19601f820116820180604052508101906131549190613866565b835461077d90613165908790612a8c565b6040516306513cb160e11b81526001600160a01b038a8116600483015289811660248301527f00000000000000000000000000000000000000000000000000000000000000001690630ca2796290604401611276565b60405163f3fef3a360e01b81526001600160a01b038681166004830152602482018390529192507f00000000000000000000000000000000000000000000000000000000000000009091169063f3fef3a390604401600060405180830381600087803b15801561322a57600080fd5b505af115801561323e573d6000803e3d6000fd5b50505050600061324f8587846127f1565b835490915061325e9082612e72565b83556001600160a01b03871633146132a8576000613282606461077d6107766112ba565b90506132986001600160a01b0388163383612a24565b83546132a49082612a8c565b8455505b50505050505050565b80546000906132c09084612a8c565b838355905060006132d28686846127f1565b905060006001600160a01b038816331461330c576132f6606461077d6107766112ba565b905061330c6001600160a01b0387163383612a24565b60006133188383612a8c565b905061334e6001600160a01b0388167f000000000000000000000000000000000000000000000000000000000000000083612a98565b6040516311f9fbc960e21b81526001600160a01b038881166004830152602482018390527f000000000000000000000000000000000000000000000000000000000000000016906347e7ef2490604401600060405180830381600087803b1580156133b857600080fd5b505af11580156133cc573d6000803e3d6000fd5b50505050505050505050505050565b6000613430826040518060400160405280602081526020017f5361666545524332303a206c6f772d6c6576656c2063616c6c206661696c6564815250856001600160a01b03166134ad9092919063ffffffff16565b805190915015612a87578080602001905181019061344e919061372e565b612a875760405162461bcd60e51b815260206004820152602a60248201527f5361666545524332303a204552433230206f7065726174696f6e20646964206e6044820152691bdd081cdd58d8d9595960b21b60648201526084016104a6565b6060610adc848460008585843b6135065760405162461bcd60e51b815260206004820152601d60248201527f416464726573733a2063616c6c20746f206e6f6e2d636f6e747261637400000060448201526064016104a6565b600080866001600160a01b0316858760405161352291906138db565b60006040518083038185875af1925050503d806000811461355f576040519150601f19603f3d011682016040523d82523d6000602084013e613564565b606091505b509150915061357482828661357f565b979650505050505050565b6060831561358e5750816109bf565b82511561359e5782518084602001fd5b8160405162461bcd60e51b81526004016104a6919061391b565b6000602082840312156135c9578081fd5b81356109bf81613aee565b6000806000606084860312156135e8578182fd5b83356135f381613aee565b9250602084013561360381613aee565b9150604084013561361381613aee565b809150509250925092565b60008060008060808587031215613633578081fd5b843561363e81613aee565b9350602085013561364e81613aee565b9250604085013561365e81613aee565b9396929550929360600135925050565b60006020808385031215613680578182fd5b825167ffffffffffffffff80821115613697578384fd5b818501915085601f8301126136aa578384fd5b8151818111156136bc576136bc613ad8565b8060051b604051601f19603f830116810181811085821117156136e1576136e1613ad8565b604052828152858101935084860182860187018a10156136ff578788fd5b8795505b83861015613721578051855260019590950194938601938601613703565b5098975050505050505050565b60006020828403121561373f578081fd5b815180151581146109bf578182fd5b600080600060608486031215613762578283fd5b833561376d81613aee565b9250602084013561377d81613aee565b929592945050506040919091013590565b600080600080608085870312156137a3578384fd5b84356137ae81613aee565b935060208501356137be81613aee565b93969395505050506040820135916060013590565b600080604083850312156137e5578182fd5b82356137f081613aee565b946020939093013593505050565b600080600060608486031215613812578283fd5b833561381d81613aee565b95602085013595506040909401359392505050565b600060208284031215613843578081fd5b81516109bf81613aee565b60006020828403121561385f578081fd5b5035919050565b600060208284031215613877578081fd5b5051919050565b60008060008060008060c08789031215613896578182fd5b8635955060208701359450604087013593506060870135925060808701356138bd81613aee565b915060a08701356138cd81613aee565b809150509295509295509295565b600082516138ed818460208701613a96565b9190910192915050565b6001600160a01b039384168152919092166020820152604081019190915260600190565b602081526000825180602084015261393a816040850160208701613a96565b601f01601f19169190910160400192915050565b6020808252818101527f4f776e61626c653a2063616c6c6572206973206e6f7420746865206f776e6572604082015260600190565b6020808252818101527f5468697320746f6b656e20686173206e6f74206265656e20617070726f766564604082015260600190565b600060a082018783526020878185015260a0604085015281875180845260c0860191508289019350845b81811015613a075784516001600160a01b0316835293830193918301916001016139e2565b50506001600160a01b03969096166060850152505050608001529392505050565b60008219821115613a3b57613a3b613ac2565b500190565b600082613a5b57634e487b7160e01b81526012600452602481fd5b500490565b6000816000190483118215151615613a7a57613a7a613ac2565b500290565b600082821015613a9157613a91613ac2565b500390565b60005b83811015613ab1578181015183820152602001613a99565b83811115612eef5750506000910152565b634e487b7160e01b600052601160045260246000fd5b634e487b7160e01b600052604160045260246000fd5b6001600160a01b03811681146127ee57600080fdfea26469706673582212202781f6259c936a2108055a09a6b236ebb5fd696d21591c1b1505e7a85371a37464736f6c63430008040033",
  "linkReferences": {},
  "deployedLinkReferences": {}
}